S02100006275696C642F64656275672F7263702D7370692D3830323135342E7333373F
S214004000C80A00208BC90000A5AC0100A9AC0100BD
S214004010C9C70000ADAC0100B5AC010041C100004D
S21400402041C1000041C1000041C1000041C1000083
S214004030B9AC01007C62020041C1000041C1000031
S21400404041C1000041C1000041C100009DF20000D6
S21400405041C1000041C1000041C1000041C1000053
S21400406041C1000041C100006117010041C10000CC
S21400407041C1000041C1000041C1000041C1000033
S21400408041C1000041C1000041C1000041C1000023
S21400409041C10000D9C1000041C1000041C100007B
S2140040A041C10000B9C1000099C1000041C1000033
S2140040B041C1000041C1000041C100006525020069
S2140040C02D46020029460200AD1C020043460200AF
S2140040D0314602002525020035460200A10B0200EB
S2140040E0A525020041C1000041C1000041C10000F9
S2140040F041C1000041C1000041C1000041C10000B3
S21400410041C1000041C1000041C1000041C10000A2
S21400411041C1000041C1000041C1000041C1000092
S21400412041C1000041C1000041C1000041C1000082
S20800413041C1000084
S214004140F0B5114A114C124E00F00105E3695F0705
S21400415013D40DB9334213D103EA00078F4207D1B7
S2140041600B4A1A40002A0CBF00206FF00100F0BD79
S214004170013AEBD16FF00200F9E74FF0FF30F6E7B7
S2140041806FF00100F3E700BF809698000000035030
S2140041900200010000000000000000000000000017
S2140041A02DE98048AD4BD1B05969C1F3073001F015
S2140041B03F01012917D1AA4A936DDC0313D4536B30
S2140041C023F4FF0323F4FE4343F4BC1343F4A06339
S2140041D05363136B23F4704343F440431363136B2E
S2140041E043F4E06313638DF840008DF84110BDF88A
S2140041F04030B3F5807F0CD14FF000531B68994BCD
S2140042001B68994B1B68994B1B68994B1B68994B0D
S2140042101B68994AD2F8803043F00303C2F8803016
S214004220EFF31183302282F31188944C94F84920DE
S214004230002A40F0E183012284F8492083F31188A4
S214004240BFF36F8F6FF0040350218D488D4D13F030
S214004250800F03F1010240F0C8832B443D2A83F807
S21400426000131346F3D1884AD2F84C3113F4802356
S21400427000F0C7834FF07E6292F89C3092F99C2043
S214004280002AB8BF25234FF4D15102207F4A4F2B76
S21400429051627F4928BF4F234860012001F58051B5
S2140042A0DBB24860116911F48031FBD143F48073AE
S2140042B0536140F201439360734B5160D3F84C2135
S2140042C0100300F1A183D3F85051EDB2714B724A3E
S2140042D093F90060714B2E441A60674B86F308060C
S2140042E01B6F03F00703032B01D120F009FE12F029
S2140042F0EBFC032842D045F60E030221584AC2F8CA
S2140043008030674B9962012103F580539962936D63
S214004310D903FCD4634B64491361936903F00043EB
S21400432043EA064343EA052343F0407343F03C0365
S2140043309361136A23F00D031362936A23F0330329
S21400434043F001039362464A936D31EA0303FBD1BF
S2140043500221534B9962936D5B00FCD4136923F4DE
S214004360700343F4001313614FF000424C4B9A6104
S214004370022203F580539A6201229A62424BD3F8D6
S21400438098504A4B5A68012A00F0448312F09CFC6D
S214004390042807D1464812F04DFC374A136F43F401
S2140043A080631367434A25F04073D16811F0060F07
S2140043B0FBD1916893609068434013F4F81F05BFE3
S2140043C03D4B3B4A91601A6012F07EFC042812D1E5
S2140043D020F096FD12F02EFC01200BF049F937492B
S2140043E0254A884294BF00200120136F23F480637F
S2140043F043EA80231367244B314AD3F8C0301E4D5E
S21400440023F0407393602E6F2948C6F38026731CF2
S21400441084F84A3012F00EFC2B6F43F480632B674F
S2140044202B6F23F0070343F002032B6720F068FD91
S21400443012F000FC2B6F23F4806343EA86232B677D
S2140044402B6F23F4505343F480632B670C4BD3F845
S214004450FC20D60140F1E48234E000BF00C00750E3
S21400446000C00050004000200080002000C0002057
S214004470000001200040012000800050082200209B
S21400448000ED00E000E100E00080E00F00000250D8
S21400449000100250901B002000F049028C3F0020C4
S2140044A000D000502008B00B0300014000C00150AF
S2140044B000B4C40400000150883F002080F0FA02D7
S2140044C00040015AD3F8FC2022F08072C3F8FC208A
S2140044D0D5F8802022F0030242F00202C5F88020C0
S2140044E0D3F8FC2042F08072C3F8FC20BE4BD3F811
S2140044F0202122F0070242F00102C3F82021D3F85F
S214004500802122F0030242F00102C3F88021D3F892
S214004510402122F0030242F00202C3F84021D3F801
S214004520602122F0030242F00202C3F86021D3F8B1
S214004530402222F0030242F00202C3F84022D3F8DF
S214004540002222F0070242F00202C3F80022D3F84B
S214004550082222F0070242F00202C3F80822A34A09
S214004560536A23F0010353624FF0E022136943F0CD
S214004570040313619E4B5A6F42F001025A67DA6ECB
S21400458022F03002DA66EFF31186302383F31188C7
S21400459094F84B30002B3ED14FF0B045954A13604F
S2140045A0954A1360954A13606B680BB10BF088FA56
S2140045B001220021924B5A60A96092494A60022269
S2140045C0EA606022EA631F229A615A614FF0B043A4
S2140045D09A6A12F00802FBD11A625A685B680BB13D
S2140045E00BF06EFA0127874D6F600BF069FA4FF0FB
S2140045F0B0434FF48062DF60834BC3F880211A60BB
S2140046001220AF613CA920F027FF3C9A7F4B1A602E
S214004610002A40F00E8286F31188BFF36F8F0BF0EE
S2140046202DFD7B4A7B49D2F8C03023F0FF0343F0D0
S214004630A003C2F8C030784B9942784940F0048213
S2140046400B687748C2F89830C2F89C0000F5BF3077
S21400465000F5FF70C2F8A00001330B60BFF35F8F58
S21400466005266B4BC3F894605A6A42F480325A624D
S214004670BFF34F8FBFF36F8FBFF34F8FBFF36F8FB5
S214004680684D694813F0D2FFB5F85830B5F85A109F
S214004690AA6E01EB4301013934200BF06CFB05F1E7
S2140046A06C0013F0C3FFB5F85830B5F85A10EA6E30
S2140046B001EB4301013907200BF05DFB05F17000AB
S2140046C013F0B4FFB5F858102A6F490801310120DD
S2140046D00BF051FB05F1740013F0A8FF686D6A6FCC
S2140046E0113080B2B5F8581004300BF044FB05F1D9
S2140046F0780013F09BFFB5F85810AA6F01390C200C
S2140047000BF039FB05F17C0013F090FF3146EA6FA1
S21400471094200BF030FB05F1800013F087FF002695
S214004720D5F88020B5F85A1008200BF024FB40F28C
S2140047300343324604213CA8ADF8F030C5E91866BC
S21400474009F072F9B36AB3F5804F80F093801A6867
S214004750364B9A4240F08E8094F84C6016F0FD0678
S21400476040F08880324F3B78002B00F08E81022389
S2140047703B7008214FF48033234A2E48C2F880113C
S214004780C36011602C4A136100239B6ADB6998475B
S2140047903B788046012B40F03C8208F0EFF9013070
S2140047A040F02882226E254B1A66626E5A66A26E0A
S2140047B0C3F87021E26ED20700F12882204A5368BF
S2140047C0013349D194F84C30002B45D11D49496836
S2140047D0C80748BF53601C4B5B68D90744BF01231A
S2140047E053601A4B5B6833E00080005000C00750EF
S2140047F00040005060180020A41B0020A01B0020D2
S214004800002000580010005800E100E04C0E002088
S21400481000ED00E0603F0020003F00209C1B0020D1
S21400482003000020903F0020F83F002007B0CD5E38
S214004830201B002000A0004400900044008000449C
S214004840DC4000200080055000C0055000000650E7
S214004850DB0744BF022353601AF07AFF236D83F30D
S2140048601188BFF36F8F3E70B8F1000F02D101239D
S21400487084F84C300BF014F94FF050234FF400320C
S214004880C7071A6700F1C78101221646114606FAC5
S21400489001F3034002F1010200F0BF81AE4B33F892
S2140048A01130AE4A062B1168AD480C918AB24FEA19
S2140048B0114140F0B9814FF20F03994240F0B181A7
S2140048C0B2F5406F28BF4FF4C06202804FF000532D
S2140048D04CF23C325A80A34A536A43F47023536224
S2140048E0EFF308834FF0CD319F4A043B934280F0AC
S2140048F0AC810BF0D7FB00233C934FF440730122AE
S21400490004212CA8ADF8B03009F08EF80122974BA0
S2140049100520C3F844243CA920F09EFD002839D188
S214004920904BD3F8F02042F00102C3F8F020D3F801
S214004930FC2042F08072C3F8FC208D4AA3F55D434C
S2140049401A603C9B8B4A03F5D52303F2FC43B3FB6A
S214004950F2F3894A013B13610223C2F8F0304FF4A8
S2140049608073C2F804334FF06043844AC3F8B02F14
S214004970834AC3F8802ED3F8002E42F48072C3F820
S214004980002EFF2283F82020D3F8002E22F4807217
S214004990C3F8002E7B4B1A68960104D44FF00072C1
S2140049A0C3F880211A601A68500104D44FF0806260
S2140049B0C3F880211A604FF060400221D0F8003E14
S2140049C0684F43F48073C0F8003E6F4BCDE93C134C
S2140049D000231E46052B00F26081DFE813F0680214
S2140049E039015401560158015A0103F00F03043BE4
S2140049F00344197613462AE483F31188BFF36F8FB6
S214004A0031E4D2F850213EE4604B1D88FF2D88BF6C
S214004A1081255BE45E494A609A699707FCD1B5E454
S214004A20D5F8803023F0030343F00203C5F8803046
S214004A305CE5002340F2E73156481EF00DFA564B6F
S214004A4084F84B701860E6E523F01F03203BB3F1B3
S214004A50005F0BD30868514DC2F8980043F001037D
S214004A600130C2F89C50C2F8A03008604C4A0B686F
S214004A703C4822F01F0242F00302C0F89830C0F80B
S214004A809C20484AC0F8A020E6E54FF0010824968E
S214004A902C9687F80080EFF31183302282F311887A
S214004AA023651AF04DFE94F854304BB90BF0FAFA21
S214004AB030B93D493D4815F06FF908B984F854807F
S214004AC03B4B5A68E2663B4A9A601A6E22665A6EFA
S214004AD06266D3F87031384AA366384B5968481C6A
S214004AE06ED04FF480138B4013660422324B4FF087
S214004AF080411A664FF480621A6610221A664FF4D6
S214004B0000524FF000081A6619665A66D8F8283020
S214004B10B3F5804F10D201233CA88DF8F030CDE9D4
S214004B203D8808F013F83E9B590505D5D8F828307F
S214004B302CA91B6C24A89847249A1F4B1A662C9AFB
S214004B405A6694F85420002A3FF413AEA26D1A66F3
S214004B50E26D5A660DE600BF6066020000000020A7
S214004B607A0E002000ED00E00800002000D0035080
S214004B70FF030040F8590D00000004E055CEACC518
S214004B800900010000E100E0006A18100001E00FD3
S214004B9000E0015018FCFFFFC80A002003000020B8
S214004BA07F3F0020E17F012060220020281B00209C
S214004BB00080004455CEAC0000900044DC4000204D
S214004BC094F84C30002B90D1BC4B5B6813B94FF473
S214004BD080131366BA4B5A68BA4B12B94FF40012D8
S214004BE01A66B94A5268002A7FF47FAF4FF48002F3
S214004BF01A667AE707F0C2FF40F2011398423FF4C4
S214004C00D1ADB24AD368DB07FCD4CBE500229A606C
S214004C10D4E5012627E6002140E6102A7FF436AECA
S214004C203FE64FF4C06250E640F20726B3420AD190
S214004C304FF20F06B14206D19A4202BF4FF0005221
S214004C404CF23C315180038045E643F804194DE6AA
S214004C500C22D0F8801EC90710D5D7F8FC1041F0FA
S214004C608071C7F8FC10D0F8001E41F48071C0F8BF
S214004C70001E016A0029F0D080F820200133112B95
S214004C807FF4A8AE18E0D122E3E78022E1E7002215
S214004C90DFE7711C3246CEB2DBE7A3F10E02012A33
S214004CA040F20781102B40F0FD804FF06042D2F8B2
S214004CB0802ED20700F1FF804FF06042D2F8003E0F
S214004CC0834923F48073C2F8003E0023C5E902330B
S214004CD0C5E90853C5E90D53E86C2B612B6485F8CC
S214004CE04430A5F8C43085F82830EB6185F83C30B0
S214004CF02B63C5E900338368A1F15009A1F1380898
S214004D009847002800F01E8110F034FA20F05AFA76
S214004D10704B5B6808F00AFF6F4B984200D048B9AA
S214004D203CA812F023FC28B94FF0FF309DF8F01095
S214004D301EF0D4FD4FF002080CF066FE674BDFF85D
S214004D40F091CDE93C834FF00073CDE93E93052307
S214004D503CA94FF0FF30002640931EF05EFF012373
S214004D603CA94FF0FF30CDE93C668DF8F2301EF0DE
S214004D7021FE6FF00A014FF0FF301EF051FF16F0D3
S214004D8051FD4022314656481EF057FA3022314631
S214004D9054481EF052FA5248534B544ADFF8949146
S214004DA0DFF89481DFF894E1DFF894C1039600F110
S214004DB0400B4FF0240A0021039E43E906100AFB2D
S214004DC006FA4B4E43E90498564443E902EC317721
S214004DD031621826039F42F8181C06FB07B642F8F5
S214004DE0146C444E43F8241B42F8106C424E20309C
S214004DF042F80C6C414E42F8086C414E42F8046C86
S214004E00404E564431773162012642F8241B002F6B
S214004E1000F0E38030461FF063FC8346002840F035
S214004E20308100200021384B4FF6FF79C3E900019E
S214004E3041F60B23354F2022BB80354B7F2135486A
S214004E40C4F8E030ADF82C908DF82E60C7F800B0AE
S214004E501EF0F3F947F67F724FF0FF384FF0800AE6
S214004E602D4B2E491A802E4BC4F800111B885A462B
S214004E70A4F8F0302B4B24391B683CA8C4F8F83053
S214004E80294BCDF8F0801B88A4F8F4A0A4F8F230E3
S214004E90264B1B68C4F8FC3016F022FD002800F0F4
S214004EA09E80FEE73CAA1A4412F8062CD1E65B2246
S214004EB0CFE65A22CDE65D22CFE600BF0080055041
S214004EC000C005500090004400000650000004405A
S214004ED0E03F002000ED00E0038000F0006A1800CC
S214004EE078220020B8220020E40A0020100D0020BE
S214004EF0CC0A0020216B00000D630000516B0000FF
S214004F00596B0000F80C0020900E0020AC0E00201C
S214004F107DB80000180F0020380F00200C2300205A
S214004F20CA6E0200D06E0200C86E0200CC6E02008E
S214004F300002040015AB000001630000C56A000013
S214004F406DAB0000E86C0368984700287FF4DCAE81
S214004F50E86C4946436898470646C0B94F4601463E
S214004F60C5F89800C5F8C00085F8BC00A5F8940000
S214004F70202209F19C001EF060F947F8846FC7E90B
S214004F800166E86CC9F89060C368984730B140463F
S214004F9008F0A3FCAC4808F0A0FCB5E638460BF0D9
S214004FA0B5FC0028F3D110F0E5F806460028EED14F
S214004FB04FF4844010F082FE003818BF0120A34B47
S214004FC0A34A83F84800A34B02201A60A24B1E6136
S214004FD008F038F908F0DEF896E60396E9E69F4909
S214004FE03C9817F00DF800B1FEE702213C981EF041
S214004FF0FAFC00B1FEE79A493C9817F0FBF900B1BD
S214005000FEE731463C981EF0DBFE00B1FEE7314677
S2140050103C981EF0E3FE044600B1FEE7914B0146C5
S214005020524618461EF009F93146A0F83C8080F832
S2140050307E8080F83E90A0F87C903C9816F0B6FCF7
S214005040DFF858823C9BC8F8003003B9FEE77CA323
S214005050D3E900234FF0FF304FF0FF3102F05CFA47
S2140050602146384602F076FC314630461FF020FBDB
S214005070D8F800000BA916F071FC00B1FEE706F0A8
S21400508023FE0AF00DFD784B4FF4003218604FF007
S21400509050234FF00009754CDFF804821A6794F825
S2140050A0E430002B40F0B580714A121BEB2A0DD875
S2140050B05321664A02EB8902C2F884316D4B6E4A70
S2140050C06E4815F069FE4FF00109E8E7C4E90134BF
S2140050D0C4E9033463614FF6FF73694F3E889E420E
S2140050E000D1FEE7EEB9B246C6F104010DAB3CAA0C
S2140050F089B29819CDF8F0A013F0DEFA002840F037
S2140051009C803C9B1E44032EEED90D9B002B00F08A
S21400511095806FF000420399934208BF0B46594AA8
S21400512013603B88C4E90744013364623B8001F0A6
S21400513016F90026544B04F13001A06200F18040BD
S214005140524A6363E163A063E66204F108002463E5
S21400515002F0FBFFFB23454AA4F85830E3693021F0
S2140051609B1A1E22DB10B3FBF2F34FF00B0B4FF62D
S214005170FF7A474ADBB201FB032304F18000C4E94F
S2140051801C34C4E91266C4E91E66246484F844B07C
S214005190A4F846A02665646502F004FF04F19000BA
S2140051A002F000FF04F1A00002F0FCFE394B04F10F
S2140051B05407C4F8BC3004F1B803C4F8C430384609
S2140051C0C4F8B84003F00CFD3846C4E91366A6647C
S2140051D084F844B0A4F846A003F002FD94F8CC305E
S2140051E0C4E9376623F03F0343F00C0384F8CC3061
S2140051F0C4F8C840A4F8CE60A4F8D06084F8DA609A
S21400520084F8E46002F014FF0123C4F8E80084F890
S214005210E43048F8044BF034B9F1000F3FF453AFD4
S214005220DFF82890D9F88481C9F88C81B8F1000F8E
S21400523038D16921184B104A42E7FEE7039B6EE718
S2140052400AE020FF22020000BC3F002008220020C7
S21400525029CC00004419002048190020070011003E
S214005260806602003C0F002084110020180B0020EE
S214005270F80C002041660200AC6602004F66020091
S2140052806410002068100020B1810000DC5A020083
S21400529078100020FDB6000055660200500E002073
S2140052A08C230020934C0027234643F8E98B636148
S2140052B004F6E903A3614FF4006304F114063046D4
S2140052C0A383C4E90877D9F888A103F0D9FC266639
S2140052D023460426013EC3E9197703F10803F9D1F2
S2140052E0C823DFF848E20022C4E92CE34FF6FF7338
S2140052F0A4F8B830804B0421C4E9303600237F4F31
S214005300C4E92266C4E92466C4E92666C4E93423EF
S214005310C4E93623A4F8846084F8A860C4F8AC60B6
S214005320C4F8BC80C4F8C86084F8E010C4F8E46030
S21400533084F8E86084F8ED6884F8EE68A4F8686994
S214005340A4F86E69A4F87069C4F88069C4F8846922
S214005350C4F88869C4F88C6984F89069C4F89469BC
S21400536047E90223D4F800B0C4F8A069A4F8A469F9
S214005370BBF1000F00D1FEE7614A624B3146C4E93B
S2140053800A24A7F1B00078221C601DF056FF4FF0EB
S214005390FF32C4F876295C4A7721C4F87269C4F8EB
S2140053A07A69C4F86A69C4F8E968A7F50D60CBE9BC
S2140053B03724C9E9002404F00DFEA7F6E40002F045
S2140053C04DFE514A4F4BC8E93724CAE937244F4AA5
S2140053D01B68C7F818284E4AA342C7F824284D4A27
S2140053E0C4E90168C4F80CA0A7F80668C7F81488D2
S2140053F0C7F81C68C7F82088C7F82868C7F82C883C
S214005400C7F83028C7F8346867D1434E96F8C430DA
S2140054103BB13368002B61D1404886F8C4300BF0AE
S21400542075FAB46C2746002F5ED1EFF31182302355
S21400543083F31188AB6C1B1BAB6482F31188BFF33C
S2140054406F8F95F8943023B134480BF0C3F985F884
S214005450947096F8BC3093B1032330482CAA3CA92C
S21400546011F0C0FF58B9BDF8B0303C982BB10278A7
S214005470D6F8C0301344C6F8C03008F0B0F8284C50
S214005480237823B10BF02CFA2378002B70D1254B10
S2140054901B78002B6CD0012323480DF12A020EA99D
S2140054A011F0A0FF002840F017820E9C63885A1E59
S2140054B0042A5AD80622DFF87880218802FB038265
S2140054C0B2F86220914250D1023B032B32D8DFE87B
S2140054D013F09800AA00D300ED01FEE793F85020E1
S2140054E0022A9ED11B6895E730460BF0B3FC013FBD
S2140054F099E700BF3024002009AB0000D02D002023
S214005500B5AA0000480E00208D9E00001F8E0000E9
S214005510C96E000015810000903F00201440002056
S21400552038190020584000202C19002000F8FF07EA
S214005530606602000421B64B227983F890110021A0
S21400554083F89111012183F892116FF07F0183F89F
S214005550931193F84810002951D1012A18BF24202E
S214005560C3F89401AB4807F0FCFD0E9808F037F836
S214005570B3680BB9F36823B130460AF01CFF002865
S214005580F6D07368002B40F0BA8196F84490002756
S2140055904C46DFF89C82EFF3118A302383F31188A0
S2140055A0404608F014F88AF31188BFF36F8F00287E
S2140055B040F0DE81EFF31182302383F3118896F8F2
S2140055C04430994540F2DE81002386F8443082F369
S2140055D01188BFF36F8F0027DFF83482D8F88C313C
S2140055E05C685F60002C00F0D581A068844200F003
S2140055F0CD818368A360436887609847F5E71220EB
S214005600AEE70423824880F89031002380F8913179
S214005610022380F892316FF07F0380F893312423C1
S214005620C0F8943175E07C4A231D04F1240153F838
S214005630040B8B4242F8040BF9D114F0C9FC744FEA
S214005640764B81461A6807F1080107F5CC701EF004
S21400565013F80622638807F5C87002FB03826FEA18
S21400566043436FEA5343B2F86420A7F89231A7F891
S2140056709021C7F8949176E7654890F84830002B5B
S21400568000F0058100211C2225A824911DF0D5FDDF
S214005690634B271D1B78052B02D1032007F0D2FD94
S2140056A02CAA07F1200C134638687968083703C31C
S2140056B067451A46F7D15B4F402138460FF035FD57
S2140056C098B93B4634AF03F1200C3A46186859683F
S2140056D0083303C263451746F7D11CAF3A4640214C
S2140056E03CAB2CA811F03AFDB0B1DDF80C90484B5D
S2140056F0C3F8949106226388454802FB03886FEA44
S21400570043436FEA5343B8F86420A0F89231A0F8F8
S214005710902100F5C87026E7434B97E80300998070
S214005720090C9DF87E20186099711E98BDF87C10B3
S2140057305A73C3F80700A3F80B1004F124023CAB1D
S21400574004F1440C1F4610685168083203C76245CE
S2140057503B46F7D1354B44AF03F1200C3A46186868
S2140057605968083303C263451746F7D10023012260
S2140057704FF4844016A910F06EFAA0BB169F7B6803
S214005780D7E9081A5FEA132916D13B8803F4E042EA
S214005790B2F5805F14D0B2F5005F11D044F201027A
S2140057A023F4405090420BD003F44F43B3F5824F9E
S2140057B006D0B3F5844F03D0384610F037FA12E01F
S2140057C0BAF1100FF8D852464CA81DF055FF4CAB56
S2140057D00021CAF1100203EB0A001DF02EFD384628
S2140057E010F024FA20B150213CA80DF041FD7CE7D2
S2140057F0502116AB24AA3CA811F0B0FC0746502155
S2140058003CA80DF035FDAFB1202124A8EDE700BF80
S214005810082200209823002030220020DC400020B0
S21400582040190020A023002048190020C023002093
S214005830D03F0020C04B1B78032B03D1BF4B18680A
S21400584010F062FA16A807F077FCBD4B0FA8199364
S2140058504FF440730F9307F077FC0F9BDFF804C3F9
S2140058601893002324A9CDE916C31B932022B34B1B
S21400587016A810F07BFB0746202124A80DF0F8FCA4
S214005880002F7FF432AF042007F0DCFC2FE7112254
S21400589080F8953180F8942180F8963180F8973119
S2140058A0402100F5CC700DF0E3FC23E74FF0AA335F
S2140058B04FF0AA32CDE912230423A24880F8903193
S2140058C0002380F89131052380F892316FF07F0332
S2140058D080F893310823A3E61B280DD1994C94F841
S2140058E0D831002B3FF444AE04F2D91007F039FC4F
S2140058F0002384F8D8313BE60AF0F2FF38E6EFF3EF
S2140059001184302383F311888F4807F060FE8246A7
S21400591084F31188BFF36F8F4FF000088A4F9AF810
S2140059204C30AAF10404022B12D1204607F07AFA72
S21400593070B1DAF8A0900AF12C001FF009FC484676
S21400594021468AF84C8007F0ADFF20460AF0FCF8A6
S214005950EFF31184302383F31188384607F037FEBF
S214005960824684F31188BFF36F8F0028D7D10CE6E8
S21400597043680774013CC068984714F0FF047FF43E
S2140059800AAE17E6A3EB0903DBB21EE62046636801
S214005990A76098476D4CD8F88C3122780993022A74
S2140059A0D3B200F08E80032B65D00BB90123237091
S2140059B0674B1C68002C00F0B382204602F05CFBAC
S2140059C004F58D50012316AA1CA9083011F00AFD13
S2140059D0002840F0968204F5805393F8A62112B969
S2140059E0012283F8A62100231C9ABDF858809A420B
S2140059F08DF8383008BF98460121C4F8902004225C
S214005A0004F1900A84F86F195046A4F89480A4F81C
S214005A109630A4F8988084F89A30A4F89C8084F88D
S214005A20E02084F8A8300EA903F0B5FCC8B99DF9AB
S214005A3038309DF83870002B13DAD4F884390133E7
S214005A40C4F88439C7F3011384F8713904EB83036F
S214005A505B682360002B59D106223946204604F0A5
S214005A60F7FC002384F86F391C9807F0B8FD00286F
S214005A7000F04782FEE705F07EF8364BD3E90023B8
S214005A809042994194D3344F386800B9FEE71E22FD
S214005A90324B4FF00008C31ADB10B3FBF2F3302290
S214005AA02F49DBB202FB03110B7F81F818806FF3DE
S214005AB082030B7705F080F80123C7F80080237077
S214005AC076E705F058F8234BD3E900239042994136
S214005AD0FFF46EAF204F386800B9FEE71F4B4FF05B
S214005AE0300EA0EB030C1E234FEAEC0CBCFBF3FCC1
S214005AF01B495FFA8CFC0B2300220EFB0C1105F0F1
S214005B0023FA0123237000233B6051E7504624A963
S214005B1003F09BFE002840F04A81DDF89090B9F132
S214005B20010F21D040F2EB81A9F10203032B40F2D2
S214005B30168105227FE100BF401900205C19002075
S214005B400002480508220020943F00206C10002028
S214005B50480E00207010002090110020180B002026
S214005B60781000200024000102238DF83C30B4F8A1
S214005B709630434505D050460FA903F00CFC00B103
S214005B80FEE79DF83C300DF1F009022B40F08E80C8
S214005B904FF0000B1E274846D4F8008002F002FAA9
S214005BA0A74BDFF8D4A283F800B0D8F81C30A5487D
S214005BB0A3EB0A03DB10B3FBF7F3DBB24022594634
S214005BC000EB83101DF039FBD8F81C309E48A3EB81
S214005BD00A03DB10B3FBF7F3DBB24022594600EBB7
S214005BE083101DF02AFB01201EF07AFD40B114F050
S214005BF059F800B1FEE701201EF072FD00B9FEE77D
S214005C00C24600275AF81C0F4FF6FF7101F0A8FC99
S214005C1050462CA9CDE92C7703F00CF84FF6FE7110
S214005C20D8F81C0001F0DCFC484602F0BBF9CDF8C1
S214005C3000904A464B463946D8F81C0012F09CFBAA
S214005C403946D8F81C0002F097F8384612F085FB63
S214005C504FF6FF790B2308F1540088F84430C8E962
S214005C601377C8F84870A8F8469002F0B9FF94F881
S214005C707139234483F86A7983F8727983F87699C0
S214005C8083F87A79206EC4F88079C4F88479C4F8E9
S214005C908879C4F88C7902F0F3FF702280212046C0
S214005CA004F0D6FB002800F08B80FEE7032B54D1CF
S214005CB001238DF8F03000234846CDE93D3306F049
S214005CC045FF3E9B9C0245D5604C63680BB109F0CE
S214005CD0C5FC01225E4B5A60A36A9806FCD40223D8
S214005CE00125A36063625B4B5D6009F0B7FC574B10
S214005CF0E5609A6AD106FCD402221A639A6AD20632
S214005D00FCD40323524A5361A2F5805293614FF4A8
S214005D108022514B1A604AF6E850504B504CDA6ECF
S214005D20D96E22F0030218664E4842F0020241F095
S214005D300301C0F82044DA66D966DA66D966DA6600
S214005D40D966DA66D966DA66BFF34F8FBFF36F8F10
S214005D5030BFFEE7444B454A1A6007F053FE2C90CE
S214005D602CA9504603F071FD18B104F067F90246FD
S214005D7061E02C9BB9F1030F049342D0A9F1040310
S214005D80012B0DD8B9F1050F41D1049B03223849E8
S214005D903CA804F0FFFCDDE93C930593082340E0B3
S214005DA0002239462046049B04F0E2FA40B104F093
S214005DB045F99DF8387002463946204604F045FB02
S214005DC094F8ED2894F8EE389A4202D0204604F073
S214005DD0AFFD94F871299DF83830224492F8E918FE
S214005DE003F00F0331B18B421EBFD4F8881901317E
S214005DF0C4F888190F2B0CBF0123013382F8E93849
S214005E002FE639462046049A05F0C6F8CEE7049BEE
S214005E100322184914A804F0BDFCDDE91493059389
S214005E2007230793059B03F001030693B9F1000FC0
S214005E3024D11BBB0D223946204604F006FBB5E7ED
S214005E40E9100020440D0020C40D0020004006503C
S214005E50006006500050065000E100E00040005090
S214005E600000FFFF00E003500000002002020FF0D9
S214005E700C670200E8660200180B00200023B4F846
S214005E8096B084F89B30A8EB0B0293B21A465046A5
S214005E90A4F89CB0A4F89E803CA9089303F094FD57
S214005EA00023059A84F86F3904EB6200059B069A76
S214005EB0D84588BFA4F896B05B1012B1E35853F8E3
S214005EC00990C847012384F86F3900287FF44DAF46
S214005ED004F1600839464046049B079ADDF8F090C6
S214005EE003F04CFF58B94946089A206E13F00AFE94
S214005EF028B9404603F081FF00283FF461AF002236
S214005F0099E704F5805393F8A6314BB104F11400D9
S214005F1002F04EFF20B904F58D50143002F09EF8C2
S214005F20002108461FF082FA4FF000099E4FDFF866
S214005F30BC82EFF3108072B67C881FF084FA002CC7
S214005F403ED14FF4F8501EF0CBFB68B34FF4807090
S214005F501EF0C6FB954F8046002800F090803B68F8
S214005F6021461B684FF480701B7813F0200F904B6F
S214005F700CBF4FF0000898461EF09AFB23460021FF
S214005F803A68C2E90411EFF31182302080F31188D9
S214005F90884880F8211282F31188BFF36F8F396822
S214005FA04246886A04F0D0FF834A099B9B1A1E2249
S214005FB0DB10B3FBF2F3DBB2012B40F28280FEE78C
S214005FC088F80090EFF3108072B67A8812B91FF046
S214005FD03AFAFEE73B88013A07EB8301CC68B988BA
S214005FE00133B3FBF1FC01FB1C337A803B801FF0CE
S214005FF02AFA002CEDD0DFF8F8A1237B9AF81720B8
S214006000C3F3800363F341028AF81720237B002042
S21400601003F0FB0323739AF81720DB0963F30002EF
S2140060208AF81720237B03F07F03237363788AF8AC
S2140060300630234613F80C2BAAF80420CAF80030C2
S21400604094F903305D4A8AF815301370A3785C4AD9
S2140060508AF8163013706368CAF82830A1681EF0F4
S214006060B5FEDAF8280018B9534802F001FB554887
S21400607002F0FEFA2146544812F071FC59E74FF43C
S21400608000701EF02DFB044630B141464FF4007000
S2140060901EF00EFB0F2372E74FF480601EF020FB0D
S2140060A0804638B121464FF480601EF001FBA046C2
S2140060B00E2364E701464FF480501EF0F9FA0B23D6
S2140060C05DE7424A52F8230020B10368022B01D153
S2140060D001F0AAFBEFF3108072B63D4F7C881FF0EC
S2140060E0B2F93CB301F0FBF920BBEFF3108072B6B7
S2140060F0798811B91FF0A7F9FEE73B8807EB830202
S214006100D468BA880133B3FBF2FC02FB1C333B8035
S2140061104B1E7B801FF097F9002CEDD0237913B12E
S214006120012B24D0FEE7A168206804F045FD204638
S21400613009F00AFD2749A1F1480001F0A1F9E0B1F4
S2140061402449A1F1480001F09BF90446F0B9224920
S214006150A1F1480001F094F9044600283FF456A93E
S21400616020461E4901F0A2F920461B49F2E7628943
S214006170217A206801F0E3FCD9E71749A1F148002D
S21400618001F07EF90028DBD1FFF740B9144B154A21
S2140061901978154B204600290CBF1146194601F008
S2140061A085F920460B49CEE7F8120020800E002025
S2140061B0E80E002008220020180B0020EB1000201C
S2140061C0EA100020080C002044130020840E002053
S2140061D094120020140B0020400D00205D67000084
S2140061E0440E00204167000089670000D810002098
S2140061F0B80E00200348044B834202D0034B03B181
S21400620018477047B0410020B04100200000000051
S214006210064B0749C91A891048BF0131491003D0F7
S214006220044B0BB101481847704700BFB04100202F
S214006230B04100200000000010B5064C237843B99A
S214006240FFF7D8FF044B13B10448AFF300800123D7
S214006250237010BD343E0020000000003C8B02007E
S21400626008B5054B1BB105490548AFF30080BDE8EE
S2140062700840FFF7CDBF00BF0000000040380020F8
S2140062803C8B0200A3F5803A704700BF174B002BEB
S21400629008BF134B9D46FFF7F5FF00218B460F46C0
S2140062A01348144A121A1CF0C8FF0E4B002B00D0DD
S2140062B098470D4B002B00D0984700200021040083
S2140062C00D000D48002802D00C48AFF3008014F0F3
S2140062D03FFD20002900FDF763FF14F027FD00BFF7
S2140062E0000008000000000000000000C80A0020AF
S2140062F0C80A0020603E00200000000000000000E9
S214006300014B1868704700BFC80A00204FF0FF30E6
S214006310704710B5044600B9FEE7037F1BB143691A
S21400632098470023237710BD38B5044600B9FEE72A
S214006330038B428B9A420CD90022013302770383E7
S214006340D0E90253984701462046A8470123237701
S21400635038BD036A01330362BDE83840D9E7014B14
S2140063605B691847C80A002010B5EFF31184302285
S21400637082F31188094A111D5032831A1E22DB103F
S214006380B3FBF2F32420DBB200FB0310FFF7C1FFE0
S21400639084F31188BFF36F8F10BD00BFC80A0020BA
S2140063A0014BD3F840321847C80A002010B5EFF367
S2140063B01184302282F31188094A02F50C7150329A
S2140063C0831A1E22DB10B3FBF2F32420DBB200FBA1
S2140063D00310FFF79EFF84F31188BFF36F8F10BD85
S2140063E0C80A00202DE9F843064614460D46FFF776
S2140063F090FF3369984700272D1947EB07032C1A9F
S21400640063F10005012C75F1000306DA336A3046A5
S21400641001333362BDE8F8437BE7D6E90283984749
S214006420A04277EB05031CD2F36898473B4602462A
S214006430294620461CF010FDF368914698473B46D7
S2140064400246294620461CF007FD4C4683B2002231
S2140064507383214630463283C04701233377BDE835
S214006460F8833B46F3E7F8B50E4C054604F14C03BB
S214006470C31A1E20DB10B3FBF0F32420DBB2434329
S214006480E7583026E01857B1EFF3118486F31188E9
S214006490FFF7A8FF84F31188BFF36F8FF8BDE550B0
S2140064A0F2E700BFCC0A0020F8B50E4C0546A4F56E
S2140064B0F073C31A1E20DB10B3FBF0F32420DBB20C
S2140064C04343E7583026E01857B1EFF3118486F3BC
S2140064D01188FFF787FF84F31188BFF36F8FF8BD2D
S2140064E0E550F2E7F80C0020FEE7C3071BD40F4B7D
S2140064F01B7803EA000103EA101001F00F020143C3
S21400650089070ED442EA0003C3F380005B070BD56D
S21400651002200138064BC0B2C0EB001003EB00109F
S21400652070470120F5E70020704700BF603F00205D
S214006530180B0020114B03F15002821A1E20D210B5
S214006540B2FBF0F2D2B203EB4200B0F8780203F5E9
S2140065501F730144002089B203EB82131A888A4213
S21400656001D19A783AB90130102803F10403F5D125
S2140065704FF0FF30704700B2704700BFC80A0020D7
S21400658038B504460D46FFF7D5FF80B20F2825D94B
S2140065901E21154BE21AD210B2FBF1F2D2B203EB77
S2140065A0821303F22E21002311F82300C0B1013319
S2140065B0102BF9D14FF0FF3399B20F2912D80B499F
S2140065C003EB021301EB830301EB4201B1F87822DF
S2140065D015440122A3F87C5283F87E22002038BDA1
S2140065E01BB2E9E70320FAE7180B0020C80A0020D0
S2140065F0154B30B503F15002821A1E20D210B2FBA2
S214006600F0F24C880D88D2B225448C8803EB420009
S214006610C988B0F878022C4421440144002003F5D0
S2140066203F7389B203EB82131A888A4201D19A78A3
S2140066303AB90130102803F10403F5D14FF0FF30CA
S21400664030BD00B2FCE700BFC80A00207047034612
S2140066508288C088114481429DBF1868998080183E
S21400666000207047A0F14103052B04D83738C0B28C
S214006670087000207047A0F16103052B01D8573839
S214006680F5E73038C0B20928F2D90720704770B550
S214006690466804460D4626B9BDE870404B6800685B
S2140066A018478B689847B2680146831A002BB8BF14
S2140066B0121A2B682068A8BF0022BDE87040184751
S2140066C038B50C461146E2680346944206D0456843
S2140066D0AC420BD14260FFF7DAFFE46038BD94426B
S2140066E00DD01146D268002AF9D1F6E72A460021D5
S2140066F0F9E7CB68002BF0D0DB68CB60EDE700292C
S214006700F7D1002DE9D0EA685A60E6E770B546682A
S21400671004460D467EB18B689847B368C01A0028B9
S21400672009DB20462A463146FFF7CAFF3046736823
S214006730BDE87040184729462046BDE87040A6E7E9
S21400674001490830E2E700BFDC5A02000146006853
S214006750014A1030B4E700BFE85A02000149103081
S214006760D4E700BFE85A02000122024B002083F85B
S2140067707C237047C80A00200020024B83F87C0365
S214006780704700BFC80A0020704700F44053B3F5B6
S214006790005F04D100F44C43B3F54C4F07D0B0F57E
S2140067A0804F04D380F04000C0F380107047002074
S2140067B0704700F01800102805D0A0F118035842C2
S2140067C05841C000704704207047012300F00700BE
S2140067D0834013F0220F09D113F0880F08D113F06D
S2140067E0440F14BF01200020C000704704207047EB
S2140067F01020704708B54307024608D0FFF7D9FFB8
S21400680012F0180F0CBF05300630C0B208BDFF20CE
S214006810FCE72DE9F3470E46044608B30378302B11
S21400682018D1437803F0DF03582B13D10127023425
S21400683000224FF0993915464FF00A08DFF870A08D
S21400684020784FB10DF10701FFF70CFFA8B102B099
S214006850BDE8F0870027EBE73038C0B2092801D939
S2140068600720F4E791457AEB05038DF80700F7D388
S214006870A2FB082308FB053306E0B5F1805FEFD2E4
S2140068802B0143EA127312019DF8071000208918A5
S21400689053F1000328BF01200A461D460028DFD119
S2140068A014F8010F0028CBD1C6E90013CFE700BFCC
S2140068B09999991913B50C466946FFF7AAFF48B986
S2140068C04FF0FF32009B9A42019A70EB020234BFEF
S2140068D00720236002B010BD10B5C38802899C1C37
S2140068E094420BD80268D4186478D35C43EA042335
S2140068F00B80C3880233C380002010BD0620FCE74F
S21400690070B5C4880389221D9A4211D805682A19D1
S214006910937856782C5D1B04D27843EA06232343EB
S21400692043EA02630B60C3880433C380002070BD53
S2140069300620FCE770B5C288038902F108049C4271
S2140069401CD80568AC18A3786678AA5C1B0443EAD2
S21400695006231343E278657943EA0263227942EA22
S2140069600522A579E47942EA054242EA0462C1E9D1
S2140069700032C3880833C380002070BD0620FCE7C1
S21400698000F1B4019030A7E70C20704707B59030AF
S2140069900DF10601FFF7A0FF002808BF0C2003B08A
S2140069A05DF804FBFEE7FEE737B500230022044649
S2140069B0CDE90023FFF7D3FC6946054604F19000B5
S2140069C0FFF7B8FF60B9DDE90032AB4272F10001B3
S2140069D008D35B1B62F10002C4F89839C4F89C29FE
S2140069E003B030BD0720FBE7074BD3F88023002316
S2140069F052F8041F884201D1D8B270470133042BE5
S214006A00F6D10020704700BFC80A002037B50446FC
S214006A100DF106019030FFF75FFF0546E0B92368E9
S214006A209A6CE2B1DC69BDF806102046FFF782FDDD
S214006A3083B20F2B15D80C4B03F15002A41A1E225A
S214006A40E410B4FBF2F4E4B200EB041003EB8003B2
S214006A5083F87E52A3F87C52284603B030BD0D253D
S214006A60FAE70A25F8E700BFC80A002013B504466F
S214006A700DF106019030FFF72FFF50B923689A6C8E
S214006A8032B1BDF80610D86902B0BDE8104077E50F
S214006A900D2002B010BD13B504460DF1060190306E
S214006AA0FFF71AFF50B923689A6C4AB1BDF8062062
S214006AB0B3F86010914201D0A3F8602002B010BD78
S214006AC00D20FBE710B51EF0AFFA124B8342124BB7
S214006AD08B411ED3114BD3F88423D2B14FF47A7472
S214006AE0A0FB040304FB0131531E13420DD1B2FA7E
S214006AF082F2C2F11F04531CD243E04001FA03F3B2
S214006B00184321FA02F2104310BD00231CF0A4F92A
S214006B10FAE7FEE7EFA7C64B37894100C80A002010
S214006B2007B50A4600B9FEE7037F03B1FEE7074B49
S214006B3001900093416801234FF0FF301CF086FE61
S214006B4000B1FEE703B05DF804FB00BFF35302009C
S214006B504FF0FF301DF074B800B9FEE741684FF003
S214006B60FF301CF083BE38B5124C94F87C33E3B18A
S214006B70E9B11568104928461CF0B5FD014668B90C
S214006B80D4F888031DF0FCF810B90024204638BD60
S214006B9001242146094811F0FFFDF7E72846084979
S214006BA01CF0A1FD18B90121EAE70D24F1E707243E
S214006BB0EFE700BFC80A0020205602002F5602004A
S214006BC02756020010B50F4B93F87C3393B1B9B13A
S214006BD014680D4920461CF086FD20B913F081F894
S214006BE00024204610BD204608491CF07CFD38B91C
S214006BF00120F3E70D242146054811F0CDFDF0E70E
S214006C000724F8E7C80A002020560200275602008C
S214006C102F56020037B5094D04460DF10601D5F88A
S214006C2088031CF0E4FE38B9034622469DF8061099
S214006C30D5F888031CF028FE03B030BDC80A002033
S214006C401FB50023CDE901330393FF230C4C8DF8C9
S214006C500430D4F888031CF019FE70B90DF1020157
S214006C60D4F888031CF0C3FE9DF80210D4F88803FD
S214006C7001AA1CF010FE00B1FEE704B010BD00BF74
S214006C80C80A002008B5054BD3F888031CF0D7FDCA
S214006C9000F00300C31E5842584108BDC80A002031
S214006CA00139013811F8012F10F8013F3AB9002BCD
S214006CB014BF01200220831E5842584170479A4252
S214006CC0F0D00020F7E710B5A9B114680B492046AC
S214006CD0FFF7E6FF38B10020FFF79CFF08B1012060
S214006CE010BD0020FCE720460549FFF7D9FF10B18C
S214006CF0FFF7A6FFF2E70720F2E700BF44560200C0
S214006D004A56020010B5A1B114680B492046FFF799
S214006D10C7FF30B10120FFF77DFF003818BF012004
S214006D2010BD20460549FFF7BBFF10B1FFF788FFEF
S214006D30F3E70720F4E700BF445602004A56020075
S214006D4038B50568044675B12B68012B06D1064B8D
S214006D50D3F8880303F563711CF088FD284608F015
S214006D60F3FE0023236038BDC80A002037B5036849
S214006D7004469A6C6AB31848DB69A0F50B729B1A36
S214006D801E22DB10B3FBF2F3DBB24022002100EB45
S214006D9083101CF052FA04F19005B4F89830B4F859
S214006DA096209B1A9BB2012B01D800200FE02846A4
S214006DB00DF10601FFF790FD48B92368BDF80610EF
S214006DC09A6C32B1D869FFF7DBFB0028E5D003B038
S214006DD030BD0D20FBE700BF440D0020012937B56C
S214006DE002D0072003B030BD10680028F9D0037821
S214006DF069462D2B0ED10130FFF70BFD0346002808
S214006E00F0D14FF00042009CA242019A9341E8D391
S214006E1064420DE02B2B08BF0130FFF7FAFC002878
S214006E20E0D1009C019BB4F1004F73F10003D8D26F
S214006E3004F18003FF2BD4D8064D04EB84014900EF
S214006E40D5F8880309B215F02BF800B1FEE785F8EF
S214006E50A443C7E7C80A002008B5054B00EB80002E
S214006E604100D3F8880315F01BF800B1FEE708BD13
S214006E70C80A0020012B08B50DD0022B15D0D3B9B7
S214006E808A4237BF4368511A5B1A01683CBF521AE0
S214006E90D11888B208BD8A4289BF4368891A9B1AEE
S214006EA0026884BF891AC918F3E7C721034B044A4E
S214006EB0044813F071FF0021EBE700BF4F560200B5
S214006EC055560200AF56020010B5074BD3F8804364
S214006ED004F58D50083009F07DFC00B1FEE704F59E
S214006EE0805484F8A60110BDC80A0020084B03F59C
S214006EF06A72D2E8AF2FD20707D493F8A82322B934
S214006F00C3F8AC23012283F8A8230248704700BFC9
S214006F10C80A0020740E002008B513468288232A6B
S214006F2005D90A46006801210BF0E3F900B1FEE737
S214006F3008BDF8B500F1080303604FF4041343607E
S214006F40002304460D460E8A064F03720E44B542D1
S214006F5001D12046F8BD3946204615F8012B11F020
S214006F60E3F8F4E7485702000EB4034617B505A940
S214006F7051F8040B5C6901910CB19A69A04703B003
S214006F80BDE8104003B0704770B5012905461446A9
S214006F90C2B006D112681649FFF7E6FF002042B0DD
S214006FA070BD022921D113491068FFF779FEE0B1C0
S214006FB0606801A9FFF77EFC0028F0D1019902ACB9
S214006FC0FF2928BFFF2122460A26884204D1002333
S214006FD0074913542846DFE7B0FBF6F306FB130316
S214006FE0303304F8013B0130EFE70720D7E700BF56
S214006FF03F5902004D57020013B50C4629B90F49F8
S214007000FFF7B2FF204602B010BD012911D1694634
S2140070101068FFF7FEFB04460028F3D1009B019A98
S214007020B3F5807F72F1000203D20B3BDBB20F2B6D
S21400703001D90724E6E70C24E4E700BF5057020016
S21400704070B586B011B90C2006B070BD14681F4923
S2140070502046FFF725FE0028F5D120461C49FFF7FD
S2140070601FFE0028EFD11023ADF8143064B320467D
S2140070701CF076FB431C212B4FEA530524D801AAAB
S214007080164600F001031544AE42DCD02078CBB99A
S2140070900DF10301FFF7E6FA0028D5D19DF803208D
S2140070A001341201D2B220780DF10301FFF7DAFAAB
S2140070B00028C9D19DF8033001341A4306F8012B85
S2140070C00346E1E70022EEE70720BDE72056020070
S2140070D0275602000368006E93F8441012F0FDBDB8
S2140070E0044B006E93F8B013490001F0FE0112F055
S2140070F0F4BD00BFC80A00203221006E12F0EDBDBC
S214007100AF21006E12F0E9BDF8B505460E46002424
S214007110012707FA04F3334204D10134202CF8D1B6
S2140071200020F8BD286EE1B212F0D7FD0028F4D09A
S214007130F7E7D0F8B010E7E70049E5E700F8FF0703
S2140071400049E1E700F8FF070368996C41B190F841
S2140071507139034493F97619013118BF01214900AA
S214007160006E12F0BABD0346002110B400F1100202
S21400717053F8044F0CB10131C9B29342F8D1006EF6
S2140071805DF8044B12F0A9BD0021006E12F0A5BDFB
S2140071900421006E12F0A1BD90F8E010006E12F00F
S2140071A09CBD9C21006E12F098BD0221006E12F06C
S2140071B094BD232070477F290B46F7B51ED9B1F53D
S2140071C0804F1DD3B1F5001F1CD3B1F1805F2CBFDB
S2140071D0052204226E4600243146571EBC42DDB20C
S2140071E012D104F108030DEB030405F07F0504F843
S2140071F0085C006812F086FC03B0F0BD0122E9E7E7
S2140072000222E7E70322E5E765F07F0506F8015B63
S214007210DB090134E2E72DE9F0470568044695F8F6
S2140072201C900E46B9F1020F25D0AB6AD0F82C8020
S214007230984523D14B464146EA6A2846FFF71AFE90
S214007240D4F828A007464B46524641462846FFF744
S21400725011FE874212D9C5F82CA094F825300021DB
S214007260204684F82430FFF7A6FF28B9314620468A
S214007270BDE8F0479FE70D20BDE8F0870720FBE755
S21400728002216030C7E7D0F8AC10603093E710B545
S21400729000F1600404212046FFF78DFF20B9204648
S2140072A0BDE81040032186E710BD0321603082E769
S2140072B0002160307FE710B500F16004052120460C
S2140072C0FFF779FF40BB0C212046FFF774FF18BB81
S2140072D018212046FFF76FFFF0B922212046FFF75E
S2140072E06AFFC8B940F201212046FFF764FF98B94B
S2140072F040212046FFF75FFF70B941212046FFF787
S2140073005AFF48B942212046FFF755FF20B92046CC
S214007310BDE8104043214EE710BD0B2160304AE720
S2140073200421603047E750F8603BB3F8581041F04E
S214007330340140E770B5164A86B002AC516805467F
S21400734026461068224604AB03C3124B124913F8B4
S21400735001098B4202F8010BF9D10822204604A944
S2140073601DF088F960B90D4B9A6CDB6CCDE90023F3
S2140073706A46234613F8011D934204F8011BF9D10F
S21400738008223146286E12F0BDFB06B070BD00BF65
S214007390D75702000900E00F0100E00F0080E00F61
S2140073A001680822006E623112F0ACBB0368006E02
S2140073B0996C003918BF012112F091BC90F8713910
S2140073C0034493F86A19006E12F089BC0021006E1F
S2140073D012F085BC90F87139034493F87A19006E60
S2140073E012F07DBC2DE9F0471F4BC2B0B3F8B223B4
S2140073F00123120A934040F2A172134211D00024D6
S214007400FC22214603A8029426461BF016FF174DC1
S214007410174FDFF86080DFF86090DFF860A02B7809
S2140074201BB9002042B0BDE8F08706F00302032A2D
S21400743014BF43464B46019357F8043B02A80093FB
S21400744052462B464FF48071204414F0B3F815F8DA
S214007450013B002BFBD1711CCEB211F003011CBF07
S2140074600019C1B20C46DAE7C80A0020F45A020036
S214007470603E0020E0570200D6570200E3570200A5
S214007480094A091A891030B55143034600222425BB
S2140074908A4205FB023005D00BB1046A04B130BD48
S2140074A00132F5E70020FAE7398EE33870B50D466D
S2140074B00668EFF31182302181F311880021046AF7
S2140074C0016282F31188BFF36F8F002C00DC70BD61
S2140074D03046013CA847F8E702201DF001B908B580
S2140074E00C4AD2F8BC335BB9D2F8C0336BB9FFF79D
S2140074F0F3FF40B9BDE808404FF4F8501DF0F0B86F
S2140075001B68012BF0D1012008BD1B68012BEED1B2
S214007510F9E700BFC80A00202DE9F3410F4C844666
S214007520D4E9F26586EA020885EA030708EA000855
S2140075300F4058EA07000DD0D4F8880350B1CDE9C3
S214007540002386EA080662460B467D401CF030FAA9
S214007550C4E9F26502B0BDE8F08100BFC80A0020A9
S21400756038B5104B0D4603F15002841A1E22E41063
S214007570B4FBF2F4E4B203EB4402A2F87812D3F8B8
S214007580880322461CF0EAFB00B1FEE74FF6FF73C5
S2140075909D4206D00123044A01341178A3400B43D0
S2140075A0137038BDC80A0020603F002073B505463A
S2140075B00DF106019030FFF78FF9044658B92D6893
S2140075C0AB6C5BB1BDF806606B6D3146D869FFF7F2
S2140075D0C7FFA5F84660204602B070BD0D24FAE746
S2140075E008B5084B03F15002821A1E20D210B2FBD7
S2140075F0F0F2D3F88803D2B21CF0B6FB00B1FEE777
S21400760008BD00BFC80A002037B505460DF10601C3
S2140076109030FFF761F9044650B92B689A6C52B166
S214007620BDF80610A3F85E105B6DD869FFF7D8FFAB
S214007630204603B030BD0D24FAE7094BB3F8D60355
S214007640FF280AD0B3F8D833FF2B06D0C0B2FF28E5
S21400765003D0C01A18BF012070470020704700BF33
S214007660C80A0020FF2330B585B08DF8043000230B
S2140076700546CDE90233FFF7E0FF1B4C0246D0B1CA
S214007680B4F8D633AB4204D0B4F8D833AB4200D00B
S214007690FEE71DF05BF81549D4F888031CF0BDFB27
S2140076A000B1FEE74FF48062D4F8880311461CF060
S2140076B0D2F940B1FEE74FF48061D4F888031CF09D
S2140076C0CAF900B1FEE7D4F88803294601AA1CF0DF
S2140076D0E2F8044630B901460B201DF0A7FE20460E
S2140076E005B030BD0120FBE7C80A0020980E002038
S2140076F0F0B589B0FFF7F0FE00B9FEE73D4CD4F8D0
S214007700B81301B9FEE710201CF0EAFF8B880027AB
S2140077108DF80B3001230DF10B011A46D4F88803BF
S2140077201CF054FA9DF80B20D4F8B813023A002344
S21400773092B20968D4F888031CF048FA2E4B0597D5
S2140077400693D4F8B833079793F82C2020208DF8AA
S21400775014201B6805AD1E78C6F340161CF0C0FF4B
S21400776050B112F0CBFA394620201CF0A1FF394662
S2140077704FF400401CF09CFFD4F8B873D4F888434C
S2140077807B69C3B910201CF0ABFFB97968B11B4BFD
S2140077903A7E20469A711A7C0433DA703246009597
S2140077A01CF06EF800BB09B0F0BD2B4632462046F2
S2140077B01CF064F8F6E70022962104923A69204607
S2140077C013440E4AA3F59B7311831432B9790393BD
S2140077D000920195324603AB1CF054F820B9012103
S2140077E040201CF065FFDEE74FF480501DF040FDA2
S2140077F0D9E700BFC80A002020A10700603F00208C
S21400780010B5084A92F8DC1351B90124102882F802
S214007810DC4300D0FEE71CF04BFFBDE8104067E7F6
S21400782010BD00BFC80A0020034670B548B30668FE
S214007830022E26D1417984790A461A4814B30129C2
S21400784026D8A0F55B74C1EB011104EB011400EB24
S21400785082001D79FFF774FA94F8E4306DB283B1B4
S214007860236A93F85A205C6F022A18BF83F85A607E
S214007870A36C33B1236D23B12946206C98470023AF
S214007880236570BD00EB8100BDE87040FFF758BA75
S21400789000EB81001B79FFF753FA002393F8E430DE
S2140078A0FFDE00BF840E002038B51446002A39D00B
S2140078B0D168936801391C4D9942D5F888034FF07A
S2140078C0FF3118BF00211BF0E8FF10F5007F0CD138
S2140078D080232374A368E26801339A42A3600FD919
S2140078E02046BDE8384010F0A4BE002894F91030B9
S2140078F0B8BF033040F387008342B8BF2074E9E77F
S21400790094F91030237102232360A37913B1204623
S214007910FFF78AFFD5F888030022BDE838408021AB
S2140079201CF099B838BD00BFC80A002008B5074B40
S214007930D3F888031CF059F830B1054BB3FBF0F0D0
S21400794083B20BB1184608BD0120FCE7C80A002028
S21400795040420F00F8B506462C4D33680C46D5F865
S21400796088031BB397211CF0F5F9024600B1FEE729
S2140079703168D5F8880314F0BDF800B1FEE7316829
S214007980D5F888031CF01AF83179814200D0FEE75A
S214007990D5F8880314F06CFA00B1FEE70122D5F89A
S2140079A0880311461CF00AFA20B1FEE70FF018F91A
S2140079B000B1FEE70322D5F8880311461CF0EEF965
S2140079C07F2C20D0D5F888031CF08CF8032814D11F
S2140079D004EB84046400D5F888730A2138461CF04A
S2140079E083F840F6E44138461CF080F82146D5F886
S2140079F0880314F055FA30B1FEE7D5F8880314F082
S214007A006BFA0446E7E7C5F8E063F8BDC80A00204D
S214007A1038B50446164D1CF099FE237D95F8E823EC
S214007A209A4223D895F8E9239A421FD3D5F8E03333
S214007A3005F57970834202D07F21FFF78BFF802205
S214007A40D5F8880311461CF006F810B10120002373
S214007A500AE0207DFFF706FE0028F7D1204610F04A
S214007A60E8FD0028F2D10123236038BD2120EEE78F
S214007A70C80A00202DE9F8430546FFF72DFD18B18A
S214007A807F252846BDE8F883254E06F15003ED1AFB
S214007A901E23ED10B5FBF3F5EDB2012D00D9FEE780
S214007AA006EB4503B3F8D69306EB8503D3F8BC8301
S214007AB0AF00B8F1000F2ED1182010F0ABFD5FFA22
S214007AC089F9A0F814904FF08009C0F8008045713D
S214007AD080F8049080F80680C0F808800446FFF717
S214007AE025FFC0001028D6BF10230123B3FBF0F3F8
S214007AF084F810902046E360FFF78AFF58B93E44AA
S214007B00C6F8BC432368012BFCD0257920466DB20D
S214007B10FFF78AFEB5E703483844FFF711F9AFE7E9
S214007B20C80A0020840E002010B504460068FFF73F
S214007B30A1FFC1B2206EBDE8104012F0CEB82DE90C
S214007B40F047214E894606F15003C51A1E23ED1054
S214007B50B5FBF3F5EDB2012D904600D9FEE706EB36
S214007B608503D3F8BCA3AF00BAF1000F26D11820C6
S214007B7010F050FDA0F8149045714FF080090125D3
S214007B80C0F800A0857180F80490C0F808A00446EC
S214007B90FFF7CCFEC300B8EBC00F28BFB8FBF3F569
S214007BA02046E56084F81090FFF732FF054630B9AE
S214007BB03E44C6F8BC432846BDE8F0870425034883
S214007BC03844FFF7BDF8F6E7C80A0020840E002008
S214007BD038B50F4B0C4693F8E823824215D893F835
S214007BE0E923824211D303F57975D3F8E033AB422B
S214007BF004D10846FFF730F9002038BD12F07EF8B1
S214007C0021462846FFF7A6FEF6E70720F5E700BF61
S214007C10C80A002070B504460D46FFF75DFC70BB31
S214007C201E22194E06F15003E31ADB10B3FBF2F3E3
S214007C30DBB2012B00D9FEE706EB8302D2F8BC23A9
S214007C4012B11268012A1AD006EB4303A3F8D653E2
S214007C5010F0C8FB01462846FFF7BAFF044660B995
S214007C602846FFF7FFFC044658B9014620201CF0C2
S214007C701FFD86F8F65386F82654204670BD0D2460
S214007C80FBE70124F9E700BFC80A002010B58368A7
S214007C9004465BB143690179D869FFF7BBFF20B999
S214007CA0A37E022B01D00223A37610BD0D20FCE795
S214007CB001297FB511D169461068FEF7AAFD044672
S214007CC060B9009D019BB5F5807F73F1000304D277
S214007CD0E8B2A0F10B030F2B03D90724204604B00B
S214007CE070BDFF230A4ECDE9004496F9A413029412
S214007CF08DF80030FFF76CFF044600B1FEE76A46D9
S214007D00D6F88803A9B21BF0C6FD0028E6D0FEE729
S214007D10C80A002030B5174B0B3A9D1891F9004061
S214007D2095F95054AC42A8BF2C460C7093F9704499
S214007D307F2C04D090F900507F2D16D104701A4481
S214007D4091F9004092F96024A242A8BF22460A7028
S214007D5093F971347F2B07D090F900207F2A02D048
S214007D609342B8BF1346037030BDAC42B8BF2C4632
S214007D70E4E700BFC80A002010B5EFF311823023F5
S214007D8083F31188084B03F15004001B1E24C01017
S214007D90B0FBF4F0C0B203EB8013C3F8781482F3A0
S214007DA01188BFF36F8F10BDC80A002008B53023B6
S214007DB083F311884FF000534FF20F0218805A8059
S214007DC0BFF35F8F05F01EFE2DE9F0416C4A6D4B48
S214007DD055686D4C5D65516A99656C49D1F800022D
S214007DE0D865D1F80412586B1966916A10F0040F22
S214007DF05966D16A4FF000009966116BD966516BCF
S214007E001967D26BD8645A67D3E90E1218BF1146A9
S214007E105F4A91421A655DD301F12000A04259D80D
S214007E208869C5F308051864CE69062D5E6455D1C9
S214007E30584DA84252D3584DA8424FD205884DF609
S214007E40426085424AD11868C3F890005868C3F863
S214007E50940040F20170A242154604D22E68043205
S214007E60B6F1CD3FF7D00022C3E91E22C3E9202297
S214007E70C3E92222641BDFF81CC1434DDFF818E17A
S214007E809C648D422DD8D3E91EC7D3E92065D3E97B
S214007E9022414FF0000E013AD2B2FF2A3CD1BEF189
S214007EA0000F05D0C3E91EC7C3E92065C3E9224118
S214007EB0B3F85430C3F308030C2B3BD8022B54D929
S214007EC0DA1E092A51D8DFE802F0315740435050F5
S214007ED05050504D0021C3E910112D494FF4206039
S214007EE0B9E755F8044D6445CBD37445C9D2E607C7
S214007EF0C7D50026294F57F8048FA045C1D00136B4
S214007F00062EF8D132B1013AD2B202F11E0643F87B
S214007F102640B6E70522F8E7E0464FF0010EBC46DD
S214007F2037462E4625460C464146B4E740F6012025
S214007F30BDE8F0813B2B18D1194B9B6913F0020F5B
S214007F4040F2025318BF1846F2E740F60320EFE768
S214007F5040F2017240F60423B0F5206F14BF1046BD
S214007F601846E5E740F60520E2E740F60722013B23
S214007F704B2B98BF1046DBE740F60220D8E700BF41
S214007F8000ED00E0603E0020C80A002000E100E0AE
S214007F9008000020A041000000560200D43E002049
S214007FA00080015A102200211BF047B970B5144D0D
S214007FB005F2F443D3E8AF4F14F0010416D195F858
S214007FC0F4349BB9C5F8F84405F2FC463019103471
S214007FD0FFF7E8FFA02CF9D10B220A4B013A19460D
S214007FE003F1100304D1012385F8F434064870BD6C
S214007FF0D5F8F80443F8100CC5F8F814EEE700BFFF
S214008000C80A0020C40F0020C00F0020037A012BEE
S21400801004D0022B06D053B90B7270470B7203883C
S2140080200B8070470B7203680B6043684B607047A9
S214008030094AB2F89C3503B9FEE748F24E30D2F84A
S214008040A035A3FB003010EB530044BF20F00040E7
S2140080500130C2F8A0057047C80A0020836853B9EB
S21400806003685A6812B958608060704792688260E8
S2140080705A68906058607047002337B500F58D54F5
S214008080083405460C221946204610F077F82E28AC
S21400809034D0042809D11A4BD3F8800300F58E504B
S2140080A00C3003B0BDE83040D8E700B1FEE720460C
S2140080B001A904F0D7FE58B9019B124A20469A65DA
S2140080C004F0C3FE204601A904F0CCFE08B1FEE78A
S2140080D0FEE7019B0C4A2046DA6504F0B6FE204611
S2140080E001A904F0BFFE00B1FEE7019B074A204647
S2140080F05A6704F0AAFE064BC5E9083503B030BD42
S214008100C80A0020C98D00004D66000021810000CD
S21400811031810000014BD3F88003ADE7C80A002088
S214008120024BD3F8800300F58E5097E7C80A00206C
S21400813000F5805393F8A62132B193F8A7311BB906
S21400814000F58D50143089E770472DE9F0419368AB
S21400815005460C46164698473246074621462846A8
S214008160FEF7AEFA6868002203466BB1A168D3F842
S21400817008E0A1EB070CAEEB070898EA0C0F14D446
S214008180A1EB0E01002908DA52B9E0606C603146B6
S2140081902846BDE8F041FEF77ABA1A46DB68E4E7FF
S2140081A0D368E360D460BDE8F081BCF1000FEAE775
S2140081B001688A6A8B6B086B934208BFCA6A03F130
S2140081C0804304BF0132CA628B63024A30310830F2
S2140081D0BBE700BFDC5A020000F44052B2F5005F75
S2140081E0034620D148F2400220F44E5020F03F00D3
S2140081F090421ED00CD8B0F5446F1AD005D8C8B13E
S214008200B0F5046018BF01207047B0F50040F9E7EC
S21400821003F44C43B3F5404F0BD04CF64043C01A22
S21400822018BF0120704710F4406F14BF01200020D3
S21400823070470020704710B58388032B12D900685A
S21400824011F064FD80F480720446C2F30021FFF74B
S214008250C3FF48B98A1CC4F38123022B06D0032B24
S21400826017D02BB1FF2212E00A1DF4E70232D2B279
S2140082702046FEF78AFA08B10232D2B2C4F381343D
S214008280022C08D0032C09D0002C18BFFF22104661
S21400829010BD0832EBE70232D2B2F8E70832FBE74D
S2140082A010B583880446022B07D9006811F061FDDB
S2140082B018B12046BDE81040BDE7FF2010BD38B518
S2140082C005460C46FFF7ECFFFF2817BF2B68062075
S2140082D01B5C00201CBF03F00703237038BD38B5B5
S2140082E005460C46FFF7DCFFFF2817BF2B68062065
S2140082F01B5C00201CBF03F01803237038BD38B584
S21400830005460C46FFF7CCFFFF281FBF431C2A6814
S214008310DBB2D3581ABF00202360062038BD38B51C
S21400832005460C46FFF7BCFFFF2800D1FEE72A688B
S214008330431CD9B2545452FA83F3220A5A70220CC0
S214008340240E9A70DC702B7F43F001032B7738BD28
S21400835070B506460D46FFF7A3FFFF28044609D072
S2140083603268105CFEF725FA224402440020537956
S2140083702B7070BD0620FCE770B506460D46FFF76D
S2140083808FFFFF28044600D1FEE73268105CFEF738
S21400839010FA22440244557170BD10B50446FFF72A
S2140083A07FFFFF2806D02368185CFEF70EFA02301F
S2140083B0C0B210BD0220FCE770B50546FFF73BFFD4
S2140083C0FF28044611D02E68304611F0D2FC60B16A
S2140083D0A9888C420BDA305DFEF70CFAFF2808D02D
S2140083E00444E4B2A142B8BFFF24204670BDFF2477
S2140083F0FBE70446F9E72DE9F0410746FFF7DCFF07
S214008400FF280446804644D03D68284611F07EFC8E
S214008410830506462ED53846FFF7BFFFB988A21C4F
S21400842093B210FA82F28A4205EB04072FDC2A5D2B
S21400843002F07F0213449CB210FA83F3994226DBC3
S2140084403A88C2F3C7127F2A01D09942E7DC2B781C
S21400845003F00703032B04D106F44056B6F5005F7D
S21400846012D15FFA84F8B8F1FF0F12D005EB0800BE
S214008470BDE8F0812B7803F00703032BF6D100F458
S2140084804056B6F5005FF1D00134A4B2E9E7FF2408
S214008490E7E70020ECE72DE9F047734F044697F82E
S2140084A07C330E46154686B0A3BB0846FFF7A3FFEF
S2140084B0804678B390F80090C9F38303032B29D144
S2140084C019F0020F26D1306811F020FCB6F804A08F
S2140084D000F44050BAF1090F1CD9D8B909F0C30905
S2140084E0B9F1010F1FD198F80130E32B16D18DB1E9
S2140084F097F8A435022B0DD1D6E9020445F20821DF
S21400850003230A1887F8A43507F5B66144F100037B
S21400851041E90223002006B0BDE8F087F32BF9D12D
S21400852085F00100F7E7B9F1800FF3D1BAF10D0F2E
S214008530F0D998F8013003F0F80255B9802AE9D14D
S21400854013F0070340D198F80630F02BE2D1012053
S214008550E1E7402ADED113F0070335D198F806305C
S214008560F02BD7D0E02B08D003F11C02D2B20B2A96
S21400857003D95033DBB20F2BCCD897F8A435022B97
S214008580C8D11E22394D08F10200631BDB10B3FB75
S214008590F2F33022DBB202FB0373D3F8B0150422E9
S2140085A009311CF067F80028B4D1D6E9020445F278
S2140085B0082103230A1887F8A43505F5AC6544F1AD
S2140085C0000345E90223A5E7022BA3D198F8033060
S2140085D0F02BA5D0E02B08D003F11C02D2B20B2A58
S2140085E003D95033DBB20F2B94D8002D92D097F8D6
S2140085F0A435022B8ED11E231C4D3020641BE410A4
S214008600B4FBF3F40023E4B205F5AC6500FB0450BC
S21400861003A98DF8143011F084FB18B9694603A835
S214008620FFF7F4FC304603A911F048FB0822684621
S21400863003A91CF01FF800287FF46CAF302303FB5F
S2140086400474D4F8B03598F80220DB7B9A427FF4A5
S21400865061AFD6E9020445F2082103230A1887F819
S214008660A43544F10003ACE7C80A0020180B00202C
S2140086701E2238B5114C054604F15003C31ADB1010
S214008680B3FBF2F3DBB204EB831393F87424D3F852
S2140086907C3484F8042404F57C710122C4F8003488
S2140086A0FFF7F9FE95F8E4303BB1286A94F8101607
S2140086B05430BDE838400FF0D7BF38BDC80A002098
S2140086C010B50446FFF797FE2368C01AC0B210BD67
S2140086D070B505468688FFF7F3FF04462846FFF781
S2140086E05CFE0444301B80B270BD2DE9F04F076875
S2140086F004469BB038460D4611F03BFB002800F0C0
S214008700D681204607A9FFF7EAFD8046002840F0FC
S214008710CE819DF81C90B9F1080F40F0C881237FE8
S214008720DA0600F1C481B34E97F800A006F15003B4
S214008730ED1A1E230AF0070AED10BAF1020FB5FB78
S214008740F3F51CD18DF81C0007A92046FFF700FEA4
S2140087509DF81C10002900F0B581EBB206EB8313E0
S21400876093F875345A1E914210D08B420CD00133C8
S214008770994200F0178148461BB0BDE8F08FEBB277
S21400878006EB831393F875144FF001089A4BEDB27D
S21400879008EB850003EB00130C33A360237FDB0795
S2140087A019D43B78AF0103F00703022B04BFF3197B
S2140087B0D3F87824204604BF83F87414C3F87C24C6
S2140087C0FFF7DAFDF319D3F8781420464A1CC3F8ED
S2140087D07824FFF7A4FD00232068029311F0C9FA5D
S2140087E0002800F0648120460DF10701FFF767FDC1
S2140087F0002840F05C81204602A9FFF780FD002893
S21400880040F055817D49029B01EBC50751F83500C4
S21400881079681ABA9DF8076003AB03C320468DF843
S21400882018600592FFF7B9FDA368861E5FFA86F802
S21400883016F00106139340F0B7800638C0B20C2835
S21400884000F2B2802046FFF743FF35460746034650
S2140088506A1C002B40F0A980EDB2022D38BF02251D
S2140088602046022DC5F10F0918BF5FFA89F9FFF7F8
S21400887027FF021E18BF0122013DA8F10203EDB238
S2140088805B1045EAC30343EA821303A94A468246BD
S2140088900DF11D008DF81C301AF0EEFE0BAA3946BD
S2140088A00F2393469945C0F0838007AA1146139874
S2140088B01CF030FDBAF1000F06D002269DF81D30E0
S2140088C08AEA03038DF81D304A4603A90DF12D00F0
S2140088D08DF82C501AF0D0FE07AB09F111000021DC
S2140088E0C9F10F0218441AF0A8FC002510232046F0
S2140088F0ADF86060CDE915578DF86490CDF850A0BE
S2140089001795ADF862308DF86580FFF7D9FE824581
S214008910064653D3276800EB0708B8454FD1159B8A
S214008920149A3344934215930AD1BDF8603023B1AC
S21400893007AA114613981CF0EDFC0023ADF8603032
S2140089402046FFF7C5FE179B169A0344934205463A
S2140089504FD82046FFF74FFD002680462F18474584
S2140089604ED1179B1D44169B17959D4215D3BDF8F7
S214008970603023B107AA114613981CF0CBFC9DF873
S21400898064200E2A09D802F1110007AB0021C2F1BB
S2140089900F0253FA80F01AF050FCDDE916329A42C4
S2140089A06FD0FEE7D046F1E6FEE715461B0A4FE716
S2140089B0013B02F8011DDBB2090A73E7FEE7BDF8CA
S2140089C06030102B06D107AA114613981CF0A2FCA3
S2140089D0ADF86050BDF860305A1C6833ADF86020C2
S2140089E06B4417F8012B13F84C1C4A4003F84C2C28
S2140089F093E7FEE7C80A00203C0F0020D9100020AD
S214008A00BDF86230102B12D10FA90F200A469DF830
S214008A1064C0604505DD11F8013D0133DBB20B7023
S214008A206BB3594613981CF075FCADF86260BDF840
S214008A30623098F800905A1C6833ADF862206B4498
S214008A4013F82C3C89EA030308F8013BBDF86030B4
S214008A50102B06D107AA114613981CF05BFCADF844
S214008A606060BDF860305A1C6833ADF860206B4417
S214008A7013F84C2C89EA020903F84C9C6FE701387E
S214008A80C7E72046FFF789FCA6880FAA361A59467C
S214008A90139825681CF03EFC002207ABA8199DF829
S214008AA065108A4206DB237F43F0100323774FF0DE
S214008AB0000960E613F8011B0132DD7F694000F80B
S214008AC0011BECE74FF0010955E601F1080313F826
S214008AD0012D8B4200F8012BF9D17047F8B50768D5
S214008AE00E46384611F012F90546384611F010F9D0
S214008AF004462846FFF770FB08B10234E4B2C5F31B
S214008B008123022B12D0032B13D02846FDF73DFEFF
S214008B1008B10234E4B2FF2C06D0C5F38135022D2D
S214008B2009D0032D0DD04DB1062009E00234E4B281
S214008B30EBE70834FBE701253B5B3380002035720A
S214008B40F8BD30463919FFF7C0FF0225F6E713B522
S214008B5004466846FFF7B9FF246869462046FDF7D5
S214008B6047FD80B20F2830D91E211B4AA31ADB10FE
S214008B70B3FBF1F3DBB202EB831202F2AE2100226A
S214008B8011F8220020B30132102AF9D14FF0FF323B
S214008B9091B20F291ED8114902EB031201EB4300D4
S214008BA001EB8202BDF80030BDF80210B0F8780282
S214008BB00B44BDF804100B44BDF806100B440344E8
S214008BC0A2F8FC32012382F8FE32002002B010BD6B
S214008BD012B2DDE70320F9E7180B0020C80A0020D0
S214008BE038B54FF6FE730025044643818381C38A59
S214008BF0C58003F0FE0343F4FE4343F00103C38243
S214008C000572C0F80E50C0F8125085612C30FFF780
S214008C10C9F904F13C00FFF7C5F904F14C00FFF771
S214008C20C1F9E565A4F8605004F16400BDE8384079
S214008C30FDF78CBD13B504466846FFF746FF1E21B8
S214008C400D4B2268D21AD210B2FBF1F20721D2B233
S214008C5003F2C15303EBC2031DF80100013903F808
S214008C60010BF9D2054B6946D3F888031BF082F84E
S214008C7000B1FEE702B010BD180B0020C80A0020A5
S214008C80036810B55A1E114603628B4211D8416222
S214008C900221017700210163A1F58031C0E90A3382
S214008CA0C0E90D13934207D8C0E90F23C0E911337A
S214008CB010BD04892144E8E701890A44F2E7012B44
S214008CC010B5044608460AD0022B0FD01BB96368BD
S214008CD01044834200D910BD2289801AF9E7236820
S214008CE0881A8342F7D922891044FAE79C21024B5E
S214008CF0024A034812F050F84F560200F25702009C
S214008D00AF5602002DE9F04790F8242012B90D2046
S214008D10BDE8F087013A0568D2B280F8242095F8BD
S214008D201C90B9F1020FF2D000EBC204AB6AA66841
S214008D309E42ECD1D5F82CA031464B4652462846EA
S214008D40FEF798F86768804631464B463A4628460E
S214008D50FEF790F880450646D9D94B465246394626
S214008D602846FEF787F80128D1D90236464512DC98
S214008D70841EA4B23C702B7F012239462846FFF79A
S214008D809EFF240A04700146012228462B7FFFF727
S214008D9096FF0020BCE70720BAE7134610B501226D
S214008DA00C78FFF78CFF03782402E01880B210BD21
S214008DB0C26B436A9A4205D1836B006A1B1A5842FB
S214008DC0584170470020704710B50E4B4FF40062B4
S214008DD0D3F88043002104F6A6101AF02EFA0022DB
S214008DE004F5805383F8A72104F11400FFF7E0FF91
S214008DF030B904F58D501430BDE81040FFF72EB999
S214008E0010BD00BFC80A002090F8353033B9C36BD8
S214008E10426A9B1A18BF012380F8343070472DE948
S214008E20F04F5D4B85B0D3F8804304F5805898F832
S214008E30A63104F11407002B4FD098F8A731002B69
S214008E404BD13846FFF7B4FF0646002845D101232C
S214008E5088F8A7313846FFF7ABFF029078BB384654
S214008E60FFF7D2FF94F8483004EB8303DB6CC4E9C9
S214008E70153310F0B1FE4FF6FF73B4F84A509D421A
S214008E8016D13846FFF7C0FF94F848A04FF00B09FC
S214008E9004EB8A03D3F84CB05B6B5946029D0393F0
S214008EA0039B994223D194F849300BB1A4F84A5059
S214008EB0B31CEA18B2F5006F04F6A61938D30025DD
S214008EC004F58D502B463246009504F6A611083060
S214008ED004F0EDF808B188F8A75198F8A631002BF1
S214008EE057D1384605B0BDE8F04F10F026BE5246C2
S214008EF038460291FFF751FF10F4004F029901D057
S214008F008B45D0D1C0F30D02534615443846023285
S214008F10FFF7D5FE09F1FF3313F0FF090146ADB2A6
S214008F20BED140F2AE311D4B1D4A1E4811F034FF33
S214008F30290A09EB060209F8061005F1020A994407
S214008F4055701FFA8AFA4D444D451BD094F84920B7
S214008F50032A17D0B2B1012A11D1E16D94F8483036
S214008F60384691F800B0FFF7AAFEA36DE065984278
S214008F7002D1384610F030FE09F801BBE4E74FF0A6
S214008F80000BF9E7B24438461FFA8AF610F0D5FD12
S214008F9060E705B0BDE8F08FC80A0020455802001B
S214008FA061580200AF560200416AD0E90E2399428A
S214008FB009D1017F012906D0531E026893420ED3C1
S214008FC04362C3637047016A914207D1027F2AB1A8
S214008FD042680133934205D2036283637047018976
S214008FE00B44EBE701895B1AF4E7037F022B06D0FC
S214008FF0083350F82330C0E90A3302230377D3E757
S214009000F8B5047F0546022C0E4605D1E6210E4B28
S2140090100E4A0F4811F0C0FE2346B4FA84F4C76A1D
S21400902001223946FFF74BFE6409083455F8243010
S214009030834203D03E70E8620020F8BD2846FFF762
S214009040D4FF0320F9E700BF92580200AE58020092
S214009050AF56020070B5D0E90A239A4205461DD1E4
S214009060037F0021083350F82360B31A5E425E4146
S214009070FFF7C6FFF603044670B901462846FFF719
S214009080BFFF044640B9A96A360A2B7F012228464C
S2140090900E70FFF714FE0470204670BD0024FBE738
S2140090A038B5037F0446022B0D4607D0FFF7D2FFE4
S2140090B028B929462046BDE83840A1E70D2038BD2E
S2140090C038B504460D460068C9B2FFF7E9FF20B977
S2140090D02068290ABDE83840E2E738BD50F8603B12
S2140090E0B3F84610ECE750F8603BB3F85E10E7E7DD
S2140090F0B0F8B4106030E3E738B504460D460068B3
S214009100C9B2FFF7CDFF80B92068C5F30721FFF786
S214009110C7FF50B92068C5F30741FFF7C1FF20B964
S2140091202068290EBDE83840BAE738BD036893F8D2
S214009130443093B10A2B08D84FF4FA62534303F530
S2140091405C2101F534616030D6E7192B07D841F26F
S2140091508832044902FB0311F5E70349F3E70021CF
S214009160F1E700BFB0DB2300CC3F0D0070B5D1B2F5
S2140091700446006816461D46FFF792FF30BB20687F
S214009180C6F30721FFF78CFF00BB2068C6F3074134
S214009190FFF786FFD0B92068310EFFF781FFA8B928
S2140091A02068E9B2FFF77CFF80B92068C5F3072185
S2140091B0FFF776FF50B92068C5F30741FFF770FF49
S2140091C020B92068290EBDE8704069E770BD00F53B
S2140091D01A6353E902236030C8E738B504460846E8
S2140091E00D461AF0BDFA4FF6FF73984228BF184690
S2140091F0294682B2206810F085FC014618B920681E
S214009200BDE838404CE738BD01496030E5E700BFAF
S214009210C05B020070B590F824500446032D1DD89C
S2140092200668337F022B19D03046FFF713FFA0B92C
S214009230F36A04EBC5056B60B36A0146AB60206851
S214009240FFF72EFF48B901462068FFF729FF20B92F
S21400925094F82430013384F8243070BD0D20FCE7E8
S2140092602DE9F843064617460C4600F16005D9B1CD
S214009270AAB9B1F80480D1F8009028464146FFF715
S2140092801FFF10B10120BDE8F88342464946306E04
S21400929010F038FC0028F5D194F915100AE00021EA
S2140092A02846FFF70DFFF5E72846FFF709FF0028D9
S2140092B0E8D12146306EC9B210F00FFD0028E1D18A
S2140092C08021306E10F009FD0028DBD1002C5BD029
S2140092D0E37D03F001019B074FEA011101D541F040
S2140092E020012846FFF7ECFE0028CBD12846FFF7E2
S2140092F091FF01460028C5D104B1A179306E10F067
S214009300ECFC01460028BDD104B1A17D306E10F002
S214009310E4FC0028B6D1002C38D0D4E90223284635
S214009320FFF724FF0028ADD12846FFF7EBFC002806
S214009330A8D12846FFF76EFF0028A3D13946284655
S214009340FDF739FF00289DD12846FFF7DBFC0028F3
S21400935098D12846FFF75EFF0146002892D104B157
S214009360217D306E10F0B9FC00288BD18CB12169BC
S2140093702846FFF7C1FE002884D12846FFF7C2FC26
S214009380003818BF01207EE72146AAE70022002306
S214009390C5E72146ECE710B5C38802895C1C9442F9
S2140093A097BF02680620D35C0B709FBFC38801334B
S2140093B0C380002010BD13B50C460DF10701FFF762
S2140093C0EAFF28B99DF8073023B1012B04D123709A
S2140093D002B010BD0346FAE70620F9E713B50446C7
S2140093E00DF107019030FFF7E6FF50B923689A6C3D
S2140093F04AB193F86A209DF8071061F3000283F8DB
S2140094006A2002B010BD0D20FBE7002337B50446E6
S2140094100DF1070190308DF80730FFF7CCFF70B9DB
S21400942023689DF807509A6C22B155B103F14000AD
S214009430FEF72CFC94F871391C4484F86A5903B082
S21400944030BD10F02FFCF5E707B590300DF10701A1
S214009450FFF7B1FF30B99DF8073013B9034A82F819
S2140094602030012003B05DF804FB00BF603F002001
S21400947010B590F87119044601F67A11014490303F
S214009480FFF799FF50B9226894F87139926C32B19F
S2140094901C4494F87A29034B83F8212610BD0D202E
S2140094A0FCE700BFC80A0020002337B504460DF1CC
S2140094B0070190308DF80730FFF77DFF0546A8B905
S2140094C09DF807302468A3B904F1B800FDF73EF90B
S2140094D010F0E8FB40B901201BF002F920B194F827
S2140094E05A300BB184F85A500023A364284603B0C0
S2140094F030BD94F85A3063B901201BF0F1F810F033
S214009500D1FB40B994F85A30012B02D0012384F8DD
S2140095105A30014BE9E7FEE7FF9E0000002373B5D3
S21400952000F19006044601A930468DF80330FDF799
S214009530E7F90546A0B9B4F89620B4F898309A42F0
S21400954038D030460DF10301FFF735FF002841D132
S21400955023689DF8030001999A6C58B31AB90D2533
S214009560284602B070BDD3F8B0208A42B3F858201F
S21400957038BFC3F8B0109006F2D55B6D164ADB69AB
S21400958002F150001B1A1E20DB10B3FBF0F3EFF3C2
S2140095901180302484F31188DBB202EB8313D3F8F6
S2140095A078248A4238BFC3F8781480F31188BFF352
S2140095B06F8FD5E7236801999A6C002ACFD0B3F84D
S2140095C05820C3F8B0109206CAD55B6DD869FEF76E
S2140095D0D3FBC5E70546C3E7C80A002013B50C460B
S2140095E00DF10701FFF7D7FE10B99DF8073023707D
S2140095F002B010BD002307B590300DF107018DF8BD
S2140096000730FFF7EBFF18B99DF80720024B1A74D6
S21400961003B05DF804FB00BF603F0020002337B5B1
S21400962005460DF1070190308DF80730FFF7D6FF9D
S214009630044690B90A4A2B6802F150015B1A1E21B3
S214009640DB10B3FBF1F352FA83F39DF8072083F89F
S21400965070240EF0C7FEFDF7FFFB204603B030BDBA
S214009660C80A002007B590300DF10701FFF7B6FFD6
S214009670002808BF0C2003B05DF804FB002337B5B4
S21400968005460DF1070190308DF80730FFF783FE91
S214009690044660B99DF8073023B1013B012B09D978
S2140096A0072404E02B689B6C4BB10EF056FE204658
S2140096B003B030BD2B689B6C0BB10120F5E70D2481
S2140096C0F5E7F7B504460025012700F19006B4F843
S2140096D09620B4F898309A4204D10020C4F8B050CE
S2140096E003B0F0BD30460DF10701FFF754FE002829
S2140096F0F6D19DF807301F2B03D807FA03F31D4356
S214009700E5E70720ECE70023F7B506460DF107016D
S21400971090308DF80730FFF73EFE044628B99DF8D6
S214009720073013B1022B03D00C24204603B0F0BD43
S2140097303568AB6C002BF8D096F87109304490F978
S2140097407639013301D00D24EFE7D6F8B0307BB37D
S2140097505A1E1A402CD15B08114602F10102FAD1BA
S21400976080F87619AB6CB6F8B470002BEBD095F891
S2140097705A30002BE7D0033B042BE4D9B5F8583019
S2140097809B07D1D56B6DDE69FDF7A9FE30B94FF4A6
S2140097907A7230467A43C9B2FEF7D1F995F85A3054
S2140097A0052B1CBF052385F85A30024B2B65BCE7FA
S2140097B00724BAE7459F000073B500F190060546FA
S2140097C00DF107013046FFF7E6FD044608BB3046BC
S2140097D00DF10601FFF702FF0446D0B99DF8071009
S2140097E0A1F10B030F2B17D80C4A2B6802F150007F
S2140097F01B1A1E20DB10B3FBF0F3DBB202EB0312E6
S2140098009DF806300A4482F845340EF0EBFDFDF76D
S21400981023FB204602B070BD0724FAE7C80A0020E2
S21400982013B504460DF107019030FFF7B4FD50B9AB
S2140098309DF8073003F0030304EB83046368002BF2
S21400984014BF23200C2002B010BDF0B50024C2883F
S214009850036807899E182346BF1A9F42C3EBC30EB0
S21400986012D0052B10D016F803C001330CF07F057C
S21400987005FA0EF51CF0800F44EA0504EDD11A44F3
S214009880C28000200C6000E00620F0BD002313B567
S214009890044601A990300193FFF7D7FFB8B92368B3
S2140098A09DF80420996C89B183F8442023689A6C4B
S2140098B06AB194F87129144494F86A293AB103F10C
S2140098C0400002B0BDE81040FEF7E0B90D2002B03F
