S02100006275696C642F64656275672F7263702D7370692D3830323135342E7333373F
S31508006000C80A0020956B0008F9DF0108FDDF0108C2
S31508006010516A000801E0010809E0010873620008F6
S3150800602073620008736200087362000873620008EE
S315080060300DE00108AC9C0208736200087362000850
S31508006040ED9800087362000873620008736200081E
S3150800605073620008736200087362000873620008BE
S3150800606073620008736200087362000873620008AE
S31508006070736200087362000873620008736200089E
S31508006080736200087362000873620008736200088E
S3150800609073620008116300087362000873620008DF
S315080060A073620008ED620008C9620008736200089E
S315080060B07362000875530208655C0208EF7D0208E2
S315080060C0EB7D0208D9530208057E0208F37D020813
S315080060D0355C0208F77D0208A55C02080D5D02081A
S315080060E0736200087362000873620008736200082E
S315080060F0736200087362000873620008736200081E
S31508006100736200087362000873620008736200080D
S3150800611073620008736200087362000873620008FD
S3150800612073620008736200087362000873620008ED
S3150800613073620008736200087362000873620008DD
S31508006140736200087362000873620008D58A020841
S315080061506541020873620008CF7D0208D57D0208F2
S3150800616073620008736200087362000873620008AD
S31508006180F0B5114A114C124E00F00105E3695F079C
S3150800619013D40DB9334213D103EA00078F4207D14E
S315080061A00B4A1A40002A0CBF00206FF00100F0BD10
S315080061B0013AEBD16FF00200F9E74FF0FF30F6E74E
S315080061C06FF00100F3E700BF8096980000000350C7
S315080061D002000100000000000000000000000000AE
S315080061E0013800D0FCE770470246D0F8940068B939
S315080061F0937B73B9D2F8900050B9D2F88C3043B972
S31508006200537B127B9B1A58425841704700207047AF
S315080062101846704740BA80B24140C1F3031359404B
S31508006220080380B24840490101F4FF5148407047CD
S31508006230024610B544180020A24200D110BD12F83B
S31508006240011BFFF7E7FFF7E721B1012300200B70D9
S315080062504870704722207047024B1888003818BFCC
S3150800626001207047443F00200020704701230B742B
S315080062707047FEE7F8B504460127124D0CB314F033
S3150800628001000BD0002024F0010405EBC0021668BB
S31508006290002EF3D05168C0B2B047EFE7224601306E
S315080062A020284FEA520201D0D307F8D507FA00F2A0
S315080062B00F2824EA0204E8D9421E05EBC202103868
S315080062C0E5E7F8BD88130020074BD3F82404D3F874
S315080062D0202403F50053104000F0553020F05020DC
S315080062E0C3F82004C6E700BF00C00350074BD3F825
S315080062F02404D3F8202403F50053104000F0AA30F4
S3150800630020F0A020C3F82004B4E700BF00C0035063
S315080063102DE9F0410F4A136D576D1F4000D5FEE772
S31508006320012600250C4CDFF83480374209D0C8F81E
S31508006330506023682BB1A168284601316268A160C4
S3150800634098470135082D4FEA460604F11004ECD1AA
S31508006350BDE8F081000004507814002000200450A5
S3150800636010B5416C4369A1F11404DA1CB2FBF4F2CE
S3150800637003EBC2000330B0FBF4F0B1F5805F00F127
S31508006380010002D1012828BF0120013010BD73B5D4
S3150800639006460D460024F36B01225B6901A92819FC
S315080063A09847019B013309D1736C043462196A401A
S315080063B05B421A42EFD0204602B070BD0024FAE7CD
S315080063C02DE9F341154690F842201E46012A0CBFD6
S315080063D0022304235D43CF7D2C1D844605F0020568
S315080063E0BFB915B1012724F00304486808342044CE
S315080063F0DCF83C30012A5B6927D101A9984717B117
S31508006400BDF806300193BDF80430336002B0BDE82C
S31508006410F08155B124F0030400230D7E01F1200E0E
S31508006420D8B2854203D80020E2E72F46F4E73EF8C3
S31508006430330003F10108A04204D901EBC303D8696C
S315080064400834D4E74346241AEAE70122314602B063
S31508006450BDE8F0411847D01E009B42424241187ED3
S31508006460824212D11A688A420FD85A688A420CD3D5
S315080064705A6901325A61D3E90302824205D2986801
S3150800648040F822101A6901321A6101207047002368
S315080064904FF0FF3142689A4202D8002303727047D0
S315080064A0026842F83310026802EBC30251600133F6
S315080064B0F0E7002370B546689E4210D00568DC00F8
S315080064C055F83320B2F1FF3F0AD0C2F313029142C6
S315080064D006D14FF0FF322A51036823445A6070BD33
S315080064E00133E9E710B5032A029C07D1A26A534093
S315080064F0626C5242134201D1FFF7DBFF012010BD47
S315080065000023F0B545689D4202D14FF0FF300EE0FA
S315080065100468DE0054F83340671C09D0C4F3130737
S31508006520B94205D1240D1470036833445868F0BD88
S315080065300133E8E773B5164600F108040D46204610
S3150800654009680DF10702FFF7DBFF032E05D16B681B
S31508006550834202D12046FFF7ACFF012002B070BD8E
S315080065602DE9F0414668002E3AD0056898464FF066
S31508006570000CAE4655F83C40C4F31307013401D06D
S31508006580B94222D00CF1010CB4450EF1080EF1D136
S3150800659000273C4603E0B44207F108071DD055F82A
S315080065A0343001340133F6D16FEA01316FEA113123
S315080065B0E9510168CB59C3F3130343EA0853CB5196
S315080065C003683B445A60BDE8F08141EA0851CEF8B9
S315080065D00010036803EBCC03F4E7B8F1030F03D10B
S315080065E001230372BDE8F08100273C4603E0B4426C
S315080065F007F10807F4D055F834300134C3F3075CC3
S31508006600BCF1030FF3D11B0D1B050B43EB51D0E770
S3150800661008B508301346D1E90012FFF7A1FF01209B
S3150800662008BD4FF48032064B00209A6641F6713257
S3150800663003F51C33DA63012203F50053DA60704769
S31508006640009000500B4B01219B6EDB035EBF4FF49D
S315080066508032094B9A6641F67132084BDA63084A6A
S31508006660D1600022DA634FF48032A3F518339A66B4
S31508006670704700BF00800050009000500000035093
S3150800668000200350704737B5054601F10C044369ED
S3150800669001A9012220469847BDF80430012200933B
S315080066A069462046AB69984703B030BD202A0B6877
S315080066B01EBF4FF0FF3191408B43590801F0553109
S315080066C05B1A03F033319B0803F033330B4401782C
S315080066D003EB13130A444FF0013103F00F334B4316
S315080066E0A2EB13620270704737B5044600251B22D9
S315080066F0011D0DF107008DF80750FFF7D7FF6368F6
S315080067009DF80720B2EBD36F03D123F0784003B08E
S3150800671030BD1B2204F108018DF80750FFF7C6FFAC
S31508006720A0689DF80730B3EBD06F0ABFC0434FF09F
S31508006730FF3020F07840EAE72DE9F043064699460F
S3150800674089B0036908460F469046984704460028CC
S3150800675067D1D9F804305B0A012B22464FEA530366
S3150800676004F10104F8D899F8035099F802302D037A
S31508006770DB0203F4006305F480551D43B9F80030C5
S315080067804FF00009C3F30A0352032B4492B29D1833
S31508006790294B0DF107001B2228F0784402A9039320
S315080067A002948DF80790FFF781FF9DF807306FEA8E
S315080067B0054544EAC36404946FEA08041B2224F0DE
S315080067C0784402A902948DF80790FFF76FFF9DF8A9
S315080067D007306FEA154544EAC3644FF0FF330122D8
S315080067E00594069307A9B369079507F1100098471A
S315080067F001220446B36905A907F108009847012252
S31508006800484518BF0446B36904A9381D98470122AC
S31508006810484518BF0446B369384603A9984728B1BE
S31508006820044639463046FFF72EFF01E0002CF8D122
S31508006830204609B0BDE8F08301009AB210B5164BA0
S315080068400446D3F8283103F00703013B052B04D887
S31508006850DFE803F00A161E120E1A0023184604B1C2
S31508006860206001B10B6010BD0C4B58680523F6E794
S315080068700A4B58680623F2E721F0A2FE0723EEE743
S31508006880064B98680323EAE7044B98680423E6E76F
S3150800689002230348E3E700BF00800050443F00207E
S315080068A0002D310110B5174B0446D3F8200100F02E
S315080068B0070006281FD8DFE800F0040A0E21121682
S315080068C01A00012304B1206001B10B6010BD0E4B04
S315080068D058680523F6E70C4B98680323F2E721F07E
S315080068E06FFE0723EEE7084B58680623EAE7064BD0
S315080068F098680423E6E700231846E3E702230348DB
S31508006900E0E700BF00800050443F0020002D310121
S315080069100E4BD3F8403103F00303022B0DD0032BA3
S315080069200FD0012B0BBF0A2301234FF4004200228C
S3150800693000B1026001B10B60704709234FF40042B1
S31508006940F6E70C234FF47A72F2E700BF0080005096
S315080069504FF480322DE9F843204B4FF001089A6630
S3150800696041F671331E4D0446EF69EB631D4B00215A
S31508006970C3F80C800223686121202B61174022F09E
S315080069805BFBDFF86890064640B1C9F80C8007B192
S31508006990E96301360CD16E20BDE8F883212022F088
S315080069A04BFBC9F80C8007B1EE63431CF3D008B162
S315080069B07120F1E70C4B9A6801230A3202F01F0294
S315080069C0934023F0030323449C4201D10020E3E7CC
S315080069D054F8042B0132F7D03E20DDE70090005032
S315080069E000000350001003500080E00F0020035001
S315080069F0044BD868421C02BF034AD2F89400D860F8
S31508006A00704700BF443F002000400050054B9A687D
S31508006A109107FCD45A689207F9D4DA69002AF6D1A4
S31508006A20704700BF00800A50BFF35F8F074B5A6A52
S31508006A3022F480325A62D3F8942022F00102C3F875
S31508006A409420BFF34F8FBFF36F8F704700ED00E0C0
S31508006A50BFF34F8F0549064BCA6802F4E062134339
S31508006A60CB60BFF34F8F00BFFDE700BF00ED00E02E
S31508006A700400FA0538B5202204460D460C300021DC
S31508006A801FF0EFFF4FF0FF33C4E90035A36038BDB0
S31508006A9010B5044644EA010313F00303084609D176
S31508006AA0934201D1002010BD54F8231040F823105A
S31508006AB00133F5E72146920020F0F2F9F2E707B52F
S31508006AC04022094B09481A610123009300F5B87260
S31508006AD000F5C071064BD0F8900115F02DFD002089
S31508006AE003B05DF804FB00BF0000045088130020C3
S31508006AF02DB8000807B52548D0F89421A2F12C0333
S31508006B00998952F82C2CC0F89831C0F8A02190F831
S31508006B10B82179B961F3410280F8B82100231C4AEB
S31508006B200093D0F80C0202F1100115F005FD03B030
S31508006B305DF804FB42F0020280F8B8215A68B0F802
S31508006B40BC11C0F8C0219A89013A62F30E119A68FD
S31508006B50A0F8BC117AB1D0F8C81100F5E67292080F
S31508006B6062F39F01C0F8C8119A68C0F8D0210E33A5
S31508006B70C0F8E031D2E7D0F8C81100F5EE729208F5
S31508006B8062F39F01C0F8C811F1E700BF881300201F
S31508006B907415002008B5294B83F30A884FF4804101
S31508006BA0274B284A9A60D3F8882042F47002C3F823
S31508006BB08820254A91664FF0FF31244A11662449F8
S31508006BC051660221C3F8D010BFF34F8FBFF36F8F02
S31508006BD001204FF440331F49C1F88001D360086093
S31508006BE0A2F5005213611C481C4BC01A801012F003
S31508006BF0AFFE1B4B1B498B4212D300201A4B1B4975
S31508006C008B4218D306F08EFC186850F82240586854
S31508006C1040F82240013298688242F5D30C33EAE7FD
S31508006C200022F8E71C6844F8220001325C68A24298
S31508006C30F8D30833E4E70022F8E700BF080000208D
S31508006C4000ED00E0006000080090005000A000443D
S31508006C50F7FF370000E100E0E06100088061000806
S31508006C60980B0308A40B0308A40B0308A40B03083A
S31508006C702DE9F74F89464FF480314FEA820A384AA0
S31508006C80384C9166E269804602EA010341F67132A0
S31508006C9001210093E263344A8346D16057464A4647
S31508006CA077B938460122314BDA60009B13B10022CE
S31508006CB02C4BDA63431C3DD0002846D071203AE0BD
S31508006CC00BF5005525F4FF5525F01F05C4F814B03B
S31508006CD0A5EB0B05E169BD4228BF3D46490731D4FE
S31508006CE0164656F8041B2A44A161964210D104227E
S31508006CF000212120226122F09FF90028D2D12120EB
S31508006D0022F09AF90028CDD13246AB447F1BC7E75B
S31508006D1008210846019222F08FF9019A70B10423DE
S31508006D2001222361114BDA60009B0BB10023E36358
S31508006D300130C3D16E2003B0BDE8F08F56F8041BAE
S31508006D40A161D2E74FF0FF30ACE7524649464046CC
S31508006D5021F071F8002814BF3D200020EBE700BFA2
S31508006D60009000500000035000100350002003500C
S31508006D70002337B50D4614460193FAB1434203F092
S31508006D8003031844C2E90210684301A914F0AEFCD3
S31508006D9060B90246019B013DC4E9003391B28D42B8
S31508006DA002F1010204D84FF0FF321A6003B030BD79
S31508006DB0E16819441960E1680B44EFE72220F5E71A
S31508006DC04FF000639A6A02F17841B1F5C04F03D2D9
S31508006DD01168074A914203D0002303708360704705
S31508006DE0012202709A6A926842609B6A9B69F5E77B
S31508006DF007B0CD5E1FB54FF000639B6A03F178427A
S31508006E00B2F5C04F23D21B6B03F17843B3F5C04FDD
S31508006E101DD201238DF80430002301A8CDE90233E1
S31508006E20FFF7CEFF039BDB0311D5029B1A0E0ED08C
S31508006E30012A03D1C3F307430A2B08D94FF000638D
S31508006E409B6A1B6B1B6C05B05DF804EB184740F298
S31508006E50011005B05DF804FB08B5C36F0A462BB1EF
S31508006E60D0F88010007A9847012008BD1846FCE73C
S31508006E70006800B97047037A8B42F9D190F8503010
S31508006E80002B08BF0020704708B503683BB9017995
S31508006E900448FFF7EDFF08B190F8500008BD93F8D5
S31508006EA05000FBE7543F0020054A08B502F5047078
S31508006EB0FFF7EAFF05281CBF012382F81C3208BD2C
S31508006EC088130020022808B509D1042906D1002113
S31508006ED00948FFF7CDFF012380F8A03008BD032835
S31508006EE0FCD10429FAD10022044B1B69002BF5D0EA
S31508006EF0C3E926221B68F9E7543F0020443F0020D7
S31508006F0008B50146FFF770F950B1D1F8880040B9C5
S31508006F10D1F8843023B9B1F86800B0FA80F0400996
S31508006F2008BD0020FCE7EFF31182302383F31188B4
S31508006F308368013B836082F31188BFF36F8F7047C4
S31508006F4010B508B9022010BDEFF31184302282F380
S31508006F501188826822B984F31188BFF36F8FF1E72D
S31508006F600132826084F31188BFF36F8F036813B10F
S31508006F7000200B60E7E7FFF7D6FFE3E7002307B536
S31508006F80012219460E4814F009FA68B90C4801A9F5
S31508006F90FFF7D6FF40B9019B0A4A09489A65FFF7E9
S31508006FA0C2FFFFF7CDFF18B1002003B05DF804FB60
S31508006FB0019B054A02485A67FFF7B5FF0120F4E727
S31508006FC098150020E1750008A96E000870B50446FA
S31508006FD006460D46002016F8011BFFF71BF9AB1BEA
S31508006FE014FA83F39BB2002BF5D1131A5842584171
S31508006FF070BD10B5C2F3062402F0070241B942EA91
S31508007000042242F440220630224B43F8202010BDC9
S31508007010142C2CD008D8012C31D0122C21D0631E68
S31508007020312B07D9002307E0242C04F1FF3307D8B6
S31508007030202C07D81849CB5C42EA03221630E3E72E
S31508007040322CECD1042AF5D8DFE802F0030517073D
S3150800705009000022EEE70122ECE70322EAE7042210
S31508007060E8E7022A0DD0032A0DD01123E2E7022A07
S315080070700BD0032A0BD01323DCE70222DAE700231E
S31508007080D8E70022F1E70122EFE70022F3E7012221
S31508007090F1E700BF00800350C49B02082DE9F041C8
S315080070A00446806E0F46164614F0DBFF0546F8B117
S315080070B0342200211FF0D5FCEFF31188302383F327
S315080070C01188731E042B2CD8DFE803F0182B032134
S315080070D00300B4F85820B4F86630013A93420ADB44
S315080070E02946A06E14F0B8FF88F31188BFF36F8F96
S315080070F01A20BDE8F0810133A4F8663088F31188B8
S31508007100BFF36F8F0020EE74AC613D60F1E7B4F811
S315080071106430B4F85A209A42E2D90133A4F86430AC
S31508007120ECE72120E5E710B550F8044C011F606F25
S3150800713014F092FF204610BD10B5C06F0C4614F02F
S3150800714090FF206038B10023036018462268137246
S315080071502268536010BD1A20FCE7C06C836A03B12D
S3150800716018477047F8B5044600284BD0837C002B97
S315080071704AD10168856911B1284614F06EFFA168E5
S3150800718019B1D5F8800014F067FFE37C022B0AD00A
S31508007190032B0AD0012B0AD1606820B1FFF7C3FF81
S315080071A02846FFF7DAFF012602E06168E1B9002602
S315080071B0EFF31187302383F311882146A86E14F064
S315080071C04BFFE37C042B13D1B5F86430013BA5F8DB
S315080071D0643087F31188BFF36F8F1EB1E86C436A7A
S315080071E003B198470020F8BD286F14F035FFDEE795
S315080071F0052B01D0032BECD1B5F86630013BA5F879
S315080072006630E6E72220EEE70420ECE72DE9F347AF
S315080072109146042204468846D0F8A4000DEB0201E4
S315080072209A46FFF73BFF074650B91AF00E0F667AE3
S31508007230019D1CD0B30707D42846FFF793FF2127E3
S31508007240384602B0BDE8F0871AF0020F14D11AF0DA
S31508007250040F14D11AF0080613D1324694F85030A8
S31508007260052B10D02846FFF77DFF0227E8E716F022
S315080072700106E1D10122F1E706463A46EEE7042681
S31508007280FBE70E26F9E7C5F80480A5F80C906C61B3
S31508007290237A6B740A9B2B62CAB1A37AE27A1B0122
S315080072A0DBB21343CAF3001A43EACA0A85F810A0E8
S315080072B0A37A013303F00703A37249464046FEF753
S315080072C0B7FF2946E881204614F02EF9B8E766F09C
S315080072D03F062E74F1E72DE9FF410F4603A906463E
S315080072E015469846FFF72CFE0446E0B925B30398E1
S315080072F0D0F8A42090F8A030B2F85C4040F6F772B7
S31508007300002C08BF14460BB1083CA4B2A5420ED8FF
S315080073100A9B2A46009339464346FFF777FF0446F9
S315080073203046FFF700FE204604B0BDE8F08130463F
S31508007330FFF7F9FD2B24F6E72124F4E738B50546CF
S315080073400C4661B1486820B1FFF7EDFE2846FFF705
S3150800735004FF2146A86FBDE8384014F07DBE38BD4D
S3150800736010B50446182200211FF07BFB204610BDED
S315080073700368D90444BF43F48063036003689A042E
S3150800738044BF43F400630360704707B50022084B07
S31508007390014683F8D8200288064B0432009392B23D
S315080073A001230548FFF797FF03B05DF804FB00BF0C
S315080073B0443F0020E17500089815002010F1840F5D
S315080073C012DA10F1950F25DB9530102822D8DFE860
S315080073D000F01D2121211B2121211913110F151F31
S315080073E01723090008207047003818BF0120704786
S315080073F01D2070472E2070472D2070472420704787
S31508007400212070471A2070472F2070472C2070477C
S3150800741025207047012070470F2070470146054B0D
S3150800742093F81D0283F81D12D3F8203203B11847CA
S31508007430704700BF881300202DE9F04F644E0446BC
S3150800744096F81D320D4692468FB0002B00F0BB8091
S31508007450022B08D1007A012894BF00200120C00021
S315080074600FB0BDE8F08F012B00F0AF80033B012B76
S3150800747003D8037A012B00F0A88094F8A00000280E
S31508007480EED02A68137903F0070123F00703137176
S315080074902B68D6F824020693237A07918DF82C30A8
S315080074A0D4F89830CDF82D0043F000430D93494B9E
S315080074B0D6F838029A889B79ADF831208DF83330A2
S315080074C000234FF4007209930AA9434BD5F8049098
S315080074D0BAF8007010F0B1FB834688BBDDF8288047
S315080074E0D8F80430D8E908121B0A012B37D03B48D4
S315080074F0834234D0002B5DD109ABCDE90473069BDA
S3150800750040460093CDE90279CDF804900BAB13F011
S3150800751077FD10F1860F83462FD10DF12203B8F8B7
S3150800752000102D480DF1230213F031F8031E14BF85
S315080075309B466FF0850B002F3FD10A9810F068FB29
S315080075405846FFF73BFF10B9099BAAF800302A688E
S315080075500799137923F007031943117180E709ABDB
S31508007560CDE90473069B40460093CDE90279CDF830
S3150800757004900BAB13F044FD8346BBF1000FDAD140
S315080075800A9810F045FB14F056FDD4F898200132FD
S31508007590C4F89820D6F834220132B2F1005FC6F852
S315080075A03422CDD196F81D22052AC9D10320FFF72A
S315080075B035FFC5E76FF0860BBDE73A46002148461A
S315080075C01FF04FFAB9E703204AE7002048E700BF53
S315080075D088130020AC150020000248050200800030
S315080075E0094A13B1012382F81C320121074B83F89B
S315080075F0D81092F81D32042B04D100230520C2F8B6
S3150800760034320BE7704700BF88130020443F002040
S31508007610EFB506460D46843803A91746FFF78CFDD5
S3150800762088B90623039909228B8105230D7245F42F
S315080076308055CB810E600D610F7501230091304690
S315080076400C31FFF748FE04B0E0BD2DE9F0431D46B6
S315080076500623137049681446302987B070D00ED8AF
S31508007660042905D9202965D0002363600D2334E059
S31508007670013903292FD8DFE801F03256384140F2A4
S31508007680022399427BD00ED850295CD0B1F5007FF1
S315080076905ED04029E8D1516050F8380CC369984744
S315080076A0A06008234AE040F2013399426CD0B1F554
S315080076B0885F6ED0A1F58053FF2B00F28D80C9B28A
S315080076C041F480534D485360FFF7D2FB08B190F858
S315080076D05000207207E000235360A360E1E701230E
S315080076E0536006231372052328E003230422C4E902
S315080076F001320822C4E9032310231FE0134604229B
S3150800770043F8042F3E4A11685960516812899960F6
S315080077109A810E23638001234374638804332B60A4
S3150800772007B0BDE8F0830223536010F8333CDB0052
S315080077300133D2E7516050F8302C22816380ECE7A0
S315080077405160C36BC9E7516050F8380C036AA6E765
S31508007750516003A8FFF734FB049BE3600023236111
S315080077609DF80C30012B02D103232372C4E723B9F9
S3150800777023724FF0FF33E360BEE70423F5E7214B9E
S315080077805160D3F83C32A8E71E4B516093F81D327E
S31508007790A3E7516002F1070802F18709002216469D
S315080077A0531C6846CDE90066CDE903668DF80420CA
S315080077B08DF8103002960596FFF766FB074603A874
S315080077C0FFF762FB47EA001708F8017F0232C14556
S315080077D0D2B2E5D18423B1E7A1F5E063FF2B3FF6EA
S315080077E043AFC9B241F4E06304485360FFF740FB76
S315080077F000283FF46EAF90F8A0006AE7543F0020D7
S315080078009C9B020888130020036813B90B6001606B
S3150800781070471846F8E710B5EFF31184302383F361
S3150800782011880F4A13882BB984F31188BFF36F8F19
S31508007830032010BD013B13808B7C0A4A01338B74ED
S3150800784002F5CA702C31FFF7DFFFD2F898310BB971
S31508007850FFF750F984F31188BFF36F8F0020E8E72C
S31508007860443F002088130020F8B516461F460D46EB
S31508007870A1B1806F14F0F5FB014688B100240222FD
S3150800788004606B688272436007813046FFF7BCFF6D
S315080078902846EA74FFF766FC2046F8BD2220FCE776
S315080078A01A20FAE78B7C3031013301F81E3CABE72E
S315080078B010B581624469EFF31182302383F311888E
S315080078C0D4F8A430014603F11000FFF7EBFF82F36A
S315080078D01188BFF36F8FD4F8A420074902F1180066
S315080078E014F004FC4FF6FF72B4F8683093421CBFDC
S315080078F00133A4F8683010BDB77900082DE9F743BD
S315080079008946174601A9032206461D469DF8288082
S31508007910FFF7C4FB30BB306F019C14F0A2FB60601C
S3150800792020B9204603B0BDE8F0431BE4012165F009
S315080079306F05A181C4F814906774257480F80080D7
S315080079406068FEF775FCE081EFF31182302383F35C
S315080079501188214606F10800FFF7A4FF82F3118873
S31508007960BFF36F8F03B0BDE8F0830346006818B114
S3150800797002681A6000230360704710B578B1FFF7F4
S31508007980D2FB04466030FFF7F0FF014610B1A06F46
S3150800799014F062FB2046FFF7E0FB002010BD222012
S315080079A0FCE708B5FFF7E1FF20B110F81E3C3038B8
S315080079B0013B837408BD2DE9F047064630274FF092
S315080079C0020900F1100833697BB1EFF3118187F3DF
S315080079D011884046FFF7E5FF4469054694F850309C
S315080079E02BB981F31188BFF36F8FBDE8F087B4F820
S315080079F06830002BF5D0013BA4F8683081F3118874
S31508007A00BFF36F8F2B7C40697F2B4FEA931231D9D6
S31508007A10032A09D1D0F864A0BAF1000F04D0AB6AE2
S31508007A202A6A6968007AD04794F85030062B24D021
S31508007A30082B22D0032B17D12046FFF761FA98B1FD
S31508007A40637A84F85090DB060ED5EFF31182302363
S31508007A5083F31188D4F8A430596844F8041F5C608D
S31508007A6082F31188BFF36F8F002328466B60FFF7F8
S31508007A7079FBA8E7D0F858A0CEE72046FEF7B4FB76
S31508007A800028F1D0D4F8A4000922217A8430FFF71F
S31508007A90BFFD18B1092384F85030E5E794F8503053
S31508007AA0062BE1D10723F6E72DE9F04F0646C06C11
S31508007AB0C7B0836998470746002800F0AC83F36887
S31508007AC023B9B368002B3BD11B2435E0A14B93F8AF
S31508007AD01D3203F0FB03012BF3D1EFF311813023A1
S31508007AE083F3118806F10C00FFF75BFF054681F367
S31508007AF01188BFF36F8F0028E3D02B7C4FEA931AC7
S31508007B007F2BAB6898BF4FF0000A43BBF06E14F0AA
S31508007B10A8FA286020BBEFF31182302383F311887B
S31508007B20AB7C0133AB74B36845F8303FB56082F37C
S31508007B301188BFF36F8F1A24204647B0BDE8F08F2F
S31508007B40EFF31181302383F3118806F10800FFF75C
S31508007B5028FF054681F31188BFF36F8FCDE700270D
S31508007B60A98900293BD08B1C9BB2D5F814C0BAF161
S31508007B70000F06D12A7C9CF80B0022F0070202436C
S31508007B802A74287C2C687F28D5F8089029D841B310
S31508007B90B9F1000F28D19CF8A080B8F1000F27D0C2
S31508007BA06C4A92F81D2202F0FB02012A1ED02146D9
S31508007BB0304614F052FAC5F80090EFF311823023DC
S31508007BC083F31188AB7C0133AB74F36845F8303F17
S31508007BD0F56082F31188BFF36F8F0024ACE70B467C
S31508007BE0C3E7B9F1000F23D04FF0000808339BB262
S31508007BF014216A7CA3701B0A217020710521204676
S31508007C006270E370FEF714FB6071000AA071B8F1A8
S31508007C10000F00F0BC82D6F8800014F022FA044661
S31508007C20A86038B93046296814F017FA2C6082E73C
S31508007C30C846DDE72A68474C137910A803F0070100
S31508007C4023F0070313712B68D5F814B00593AB68B6
S31508007C50D5F8048006939BF8083018228DF834303E
S31508007C60DBF89C3009910F93D4F82B320021CDF81C
S31508007C703530B4F82F32AF89ADF8393094F831324F
S31508007C808DF83B301EF0EDFE0021D4F83842C022B4
S31508007C9016A80C911EF0E5FE20464FF480722E4B76
S31508007CA00CA90FF0CAFF044630B10C980FF0B0FFCC
S31508007CB010A813F095FE7BE0DDF83090D9F8203057
S31508007CC00793D9F824300893D9F804301B0A012BF6
S31508007CD046D0224A934227D0002B40F086800423C0
S31508007CE00146A82216A810931EF0BBFE2023029375
S31508007CF016ABCDE90043DDE907230394494620A8DE
S31508007D0011F064FE10F1860F044621D10123109369
S31508007D10B9F8001010480AAB0BAA12F038FC002874
S31508007D2018BF04464846C1E704230146A82216A8F8
S31508007D3010931EF096FE2023029316ABCDE900435E
S31508007D40DDE907230394494620A811F03FFE0446BF
S31508007D50ECB1E7E78813002000024805020080001E
S31508007D600146C02216A81EF07CFE3C231C20CDE945
S31508007D70023016ABCDE90043DDE90723494626A8BC
S31508007D8011F024FE04460028CCD105231093B9F837
S31508007D9000304846ADF848300FF03AFF9E4B04468F
S31508007DA011939DF8543043F010038DF85430F8B110
S31508007DB02046FFF703FB2A6809991379044623F03E
S31508007DC0070319431171AA68002800F0CF8122B170
S31508007DD01146D6F8800014F03FF900273046296886
S31508007DE0AF6014F03AF92F60A6E66FF0860499E7BB
S31508007DF0109BCBB19DF8542012F00E0F14D1042B12
S31508007E0036D0052B39D0012B7ED1844B169A9A424F
S31508007E100DD00523CDE913379DF8543043F00203FE
S31508007E208DF85430109B5BBB6FF0880419E09DF801
S31508007E305F30022B19D0102B17D8D90715D4052275
S31508007E40CDE9212300232393319B18A843F002038D
S31508007E502097319310F011FE0EF01CFF04460028FF
S31508007E60D7D010A813F0BCFD22E76FF00C00F3E79B
S31508007E70394620A811F000FEF0E7394626A8F9E7AA
S31508007E809DF85420D207CFD4119A654922F47E1260
S31508007E908A4203D001F580718A4235D1042B36D047
S31508007EA0052B3FD0012B2FD15C4B169A9A4240F0F6
S31508007EB0CE809DF85E100C230DAA01F0010118A8CA
S31508007EC010F01AFE0EF0E6FE04460028C9D19DF809
S31508007ED05430109A43F001038DF85430002AA3D089
S31508007EE09DF8543003F0090101299DD19C0725D539
S31508007EF0139B042B08D9053B1393042A79D0052A2A
S31508007F0000F09080012A1ED06FF08604A9E7339B03
S31508007F10002B89D12FAB0DAA07CA83E807000C23CB
S31508007F203393D4E7399B002B7FF47EAF35AB0DAA8C
S31508007F3007CA83E807000C233993C8E7374B11991A
S31508007F409942DAD170E7354B169A9A427FD105994C
S31508007F5018A812F0ABFA0EF09DFE0446002880D150
S31508007F609DF854300B9043F004038DF85430109B61
S31508007F70002B3FF459AF9DF85420D0077FF554AF36
S31508007F8091075FD5139A002ABED1149A9742BBD897
S31508007F90D21B1492042B5DD0052B68D0012BB3D1CC
S31508007FA01E4B169A0C979A4251D10CAB3A4641464B
S31508007FB0CDE9007318A8434610F0D2FD0EF06AFE0C
S31508007FC0044600287FF44DAF0C9B0B939DF8543064
S31508007FD04FF0000C43F008038DF85430082310982E
S31508007FE00B9CCDF828C00C93002848D16FF0880464
S31508007FF072E0059B002B87D0209B002B3FF414AF23
S31508008000DDE9293213437FF40FAF0522059920A82D
S315080080100CF0F9F8A1E700BF000250050001500571
S3150800802000014005059B002B3FF46EAF269B002BF5
S315080080303FF4FAAEDDE92F310B437FF4F5AE05992F
S3150800804026A8E5E7754A11999142A3D1ECE66FF0A7
S31508008050850406E70BABCDE900733A46434641462D
S3150800806020A811F031FD04460028AFD0F9E60BAB85
S31508008070CDE900733A464346414626A8F1E79DF8FE
S31508008080543013F0010264D09A0703D5DDE91312C0
S315080080900A4362D113F010035BD0042808EB0401ED
S315080080A0A7EB040240D005284CD0012855D19DF8ED
S315080080B05F20082A54D8594B1699994253D10699E4
S315080080C018A810F099FC0EF0E5FD0446002842D1E8
S315080080D00A909DF85F000C90069BC0F108020344C5
S315080080E0212118461EF0BDFC10A813F079FC002CBF
S315080080F07FF4DEAD13F09FFFDBF89C30484A01336E
S31508008100CBF89C30D2F834320133B3F1005FC2F8B1
S3150800811034327FF44DAE92F81D32052B7FF448AE0B
S315080081200320FFF77BF943E60CAB0193069B20A8D7
S3150800813000930AAB12F080F80446002C0C9818BF7E
S315080081400020C9E70CAB0193069B26A800930AAB4F
S31508008150F0E76FF088040020BEE76FF08604FAE7C0
S315080081606FF08904F7E76FF08504F4E71746D5F84A
S315080081700480B5F80C90C144C84527D1083217F8D1
S31508008180011BFEF747F89742F9D10027E881EFF37C
S315080081901188302383F31188F06C29464369984780
S315080081A00446C0B1AB7C0133AB742B46B26843F8C6
S315080081B0302FB3602FB13046296813F04EFF0023E5
S315080081C02B6088F31188BFF36F8FB5E418F8011B8D
S315080081D0FEF720F8D0E7686940B9BAF1020F17D060
S315080081E088F31188BFF36F8F0124A5E4BAF1000F55
S315080081F00ED129468C30FFF755FB6A69D37B0133CC
S31508008200D3736C69237C1BB920F0C6FAC4E906014E
S3150800821088F31188DFE434248EE400BF000150059A
S315080082208813002008B5FFF7A0FB20B110F81A3C08
S315080082302C38013B837408BD73B5EFF311863025DE
S3150800824085F31188154C04F51070FFF7EBFF30B96C
S3150800825086F31188BFF36F8F1B2002B070BD86F3BB
S315080082601188BFF36F8F0860EFF3118685F31188C5
S31508008270D4F8440201A913F00CFF48B9019B9A7C73
S3150800828001329A74D4F8482243F82C2FC4F848329D
S3150800829086F31188BFF36F8F0020DEE7881300206E
S315080082A073B52C4CD4E9943213431FD004F51475D6
S315080082B005212846B4F85522FEF788FEB0B1B4F871
S315080082C05212B1F5857F11D804F51270FFF7AAFF8F
S315080082D00346C4F85802F8B90123D4F8902184F863
S315080082E07C3293401C4A136502B070BD1B4BD4F810
S315080082F068229B0863F39F02C4F868220023184A81
S315080083000093A2F58871174BD4F8900114F014F96C
S315080083102022154B1A64E7E70268D4F85002106069
S31508008320AE88A879968090710029DFD0D4F86802C3
S3150800833004F52072920862F39F00C4F868025B682D
S315080083400139C4F88832B4F8803261F30E13A4F800
S315080083508032D3E78813002000200450F41500204B
S31508008360181600202DB8000800E0035037B5EFF3C3
S315080083701185302383F311880F4CD4F8440201A9E0
S3150800838013F087FE28B185F31188BFF36F8F03B00A
S3150800839030BD019B9A7C01329A74D4F8482243F87E
S315080083A02C2FC4F8483294F87C32002BE5D084F898
S315080083B07C02FFF775FFE0E788130020036803B91E
S315080083C070478B4204D10B68036000230B6070472B
S315080083D01846F3E7024608B5937C0846013B9374B2
S315080083E002F13001FFF7EAFFBDE8084033211046E5
S315080083F0FFF75EBA014610B5EFF31184302383F315
S315080084001188037C5BB180684030FFF7D7FF8A6824
S3150800841092F84430013B82F8443000230B7484F30D
S315080084201188BFF36F8F10BD4FF0FF307047FEE71E
S315080084300020704701207047012070474FF0FF3039
S31508008440704700207047002070470020704730B4FE
S315080084500446EFF3108072B6256885EA02030B40DE
S315080084606B40236030BC20F01ABD2DE9F04102268E
S315080084702E4C2F4D04F1340020F0C1FD04F13800D4
S3150800848020F0BDFD04F13C002A4C20F0B8FD04F5AF
S3150800849000572846C7F8A0601022F021FFF7D7FF3B
S315080084A004232846C7F8A0304FF480624FF4706161
S315080084B0FFF7CDFF08234FF48052C7F8A0300127F5
S315080084C004EB020828464FF47041FFF7C0FF324616
S315080084D028460F21C8F8A070FFF7B9FF20234FF4EC
S315080084E08002C8F840304FF470011348FFF7AFFF19
S315080084F0124B0020C4F838374FF00213C4F830374F
S3150800850003F58033C4F834371D23C4F82467C4F848
S3150800851020370B4B03F58052576040F201429A60B0
S315080085200522DA605A61BDE8F08100BFC49B0208E3
S3150800853094C0035000C0035034C003500200010029
S3150800854000C00550BFF34F8F0549064BCA6802F4B1
S31508008550E0621343CB60BFF34F8F00BFFDE700BF58
S3150800856000ED00E00400FA052DE9F0410C46154639
S315080085700746002842D0EFF31186302383F311888B
S315080085801F4BD3F810334B1E0E2B2DD989B34FF042
S315080085900008387879784DB320F088FB0F217A786F
S315080085A03B78072A03EB43034FEA031388BF083ACD
S315080085B0144895BF4FEA820C4FEA820C04330C33F9
S315080085C008FA0CF201FA0CF11844FFF740FF24B937
S315080085D0387879787DB120F069FB86F31188BFF386
S315080085E06F8F0020BDE8F0818846D2E713F0ABFC18
S315080085F0D4E78846D2E713F0A6FCEEE72220F1E797
S3150800860000C0035030C0035008B528B1417800783F
S3150800861020F04CFB002008BD2220FCE708B528B155
S315080086204178007813F08FFC002008BD2220FCE773
S3150800863038B505460C46FDF793FE6B6CA3F114029C
S31508008640B3F5805F02FB00F005D140F6E87369696F
S31508008650994288BFCC30E31DB3FBF2F3013304EB38
S31508008660C304204438BD38B5054644692146FFF79A
S31508008670DFFF6A6CE31D143AB3FBF2F3AA691444EC
S3150800868004EBC3040C34204438BD03460846EFF314
S31508008690108172B6024ADB6BC2F8A012DB68184773
S315080086A0881300202DE9F0410646406882B0C0B123
S315080086B00F4690460024336853F8345003EBC4033E
S315080086C0C5F30752C5F31301013504F1010406D0B9
S315080086D05B683046CDF80080B84710B170688442B0
S315080086E0E9D302B0BDE8F081036813F07E0F03D129
S315080086F0406820F07C40704713F078001CBF03F0F8
S315080087007F03D81F70474BF29A2210B503680446B8
S31508008710B2EB134F13D19BB2012B15D1FDF7E4FF32
S31508008720013011D04FF6FF72E068B2EB104F4FEAF6
S3150800873010430BD180B2C01A18BF012010BD0133F7
S3150800874014BF04200320F9E70420F7E70220F5E721
S31508008750F0B50546002687B0EC69013CB44203D85B
S315080087600C46204607B0F0BD01B14C1E6F6C286858
S31508008770EB6B05225B6901A907FB0400984701A872
S31508008780FFF7C1FF0128ECD921460136E4E7F0B529
S3150800879003680646CC1A436C0025B4FBF3F487B08D
S315080087A0F36937685A1E9542706C06D3736C306845
S315080087B003FB0400143007B0F0BD0134B4FBF3F238
S315080087C003FB1244F36B05225B6901A900FB0470E5
S315080087D0984701A8FFF797FF0128E7D90135DFE792
S315080087E010B423F0030422449B070A44436C18BFC1
S315080087F004325B4282EA0104234202D05DF8044B4C
S31508008800C5E710465DF8044B70472DE9F04F14464E
S3150800881006460F468BB00393C36B01225B6907A913
S3150800882060689847F36B01225B69384606A9984742
S31508008830079B5D1C07D10022A360A2756275002004
S315080088400BB0BDE8F08F0122A2750022217E069D9D
S3150800885004EBC101CF610A846068C5F3D31CB84232
S3150800886005F07F010CD14FF0FF33C4F800C0217525
S31508008870A360237D043B022B26D80023A375DEE7DD
S3150800888094F814E020688E4503D1A0EB0C00424210
S31508008890424103F07F0001288CBF002001200129F6
S315080088A08CBF00210121884218BF002215F07E0FD7
S315080088B0A27503F07E0304D1002BDAD00023A3753A
S315080088C0D7E7002BD5D1F9E715F07E0F0FD1F36B5B
S315080088D0022238465B6908A9984708A8FFF704FFEB
S315080088E0237D032B51D8DFE803F0150F045906A89A
S315080088F0F4E7CC22237E04EBC3031A8401236A4AD5
S31508008900134493F840300AE0237E04EBC30318842B
S315080089100023F4E7237E04EBC30318840123149A87
S315080089201370069A12F07E084FEAD26A227E37D171
S3150800893004EBC2020AF0030582F82250F36BB2F880
S3150800894020905B69022208A93846984720220DF133
S3150800895017000DEB02018DF81780FDF7A7FE1A2206
S3150800896009A9FDF7A3FE9DF81730099A4FF0080BE1
S31508008970B3EB926F0CBF012300236375637D33BB92
S315080089800023A3754FF0000852E0227E013BDBB2BC
S3150800899004EBC202052B1084C0D8B0E70223AEE769
S315080089A0002504EBC202B2F8209082F8225006A9EC
S315080089B01B2208A88DF82050FDF778FE9DF8202088
S315080089C04FF0040BA2EB0A0253425341D5E794F841
S315080089D01680B8F1000FD5D0B9F1000F09D1E5B16D
S315080089E00123E375637E002B36D1012D29D16576E7
S315080089F015E0736C07EB0B025B4287EA02010B4238
S31508008A001CBF0023A375736C591E0A409B1A4B455D
S31508008A10B6D3A37D002BE2D1B4E7E37D43B94FF08B
S31508008A2000084B465A4639463046FFF7D9FEA0603D
S31508008A30A27D237EBAB9012B33D801332376A07DD4
S31508008A40FEE696F8343063B9F36A0133E9D1032DAB
S31508008A50E7D10123A376E2E7012DE9D0032DDED184
S31508008A60F7E79846DDE72269012B4A44226118D8C0
S31508008A7001332376039B002BE1D0E37D002BDED068
S31508008A80B8F1000FDBD1032DD9D0A1684B1CD6D085
S31508008A90149B2246009330460123FFF7B6FEA075C5
S31508008AA0CDE70023A375CAE7C49B020813B50C4695
S31508008AB0002121760093616813462246FFF7A5FE3A
S31508008AC018B1E37D03B1A07EA075A07D02B010BDEC
S31508008AD02DE9F743044616461F460D46DFF874800F
S31508008AE0816AE36A8B421ED04B1C1CD0DFF860906B
S31508008AF04846FDF7BFFF0122494620460DF1070308
S31508008B00FFF7D4FF30B13B4620469DF807201049B1
S31508008B10B04740B1D8F8AC124A1C07D0012D0DD089
S31508008B20E36A9942E4D103B0BDE8F083D8F8A81205
S31508008B302046FFF72CFE012D0146D2D1D8F8A832DF
S31508008B4081EA0302636C5B421A42ECD1C9E700BFB3
S31508008B502C160020881300202DE9F0410F461646F2
S31508008B609846044688B060B390F83450FDB10121A8
S31508008B70FFF78BFD00210E9BCDE90511CDE90237E4
S31508008B809DF83C30CDF804808DF81C30237C049683
S31508008B908BB90D4901AA04F10800FFF783FDDDE949
S31508008BA00553E06B002E08BF1D4613F000FC28464F
S31508008BB008B0BDE8F0812046044A01ABFFF788FFFC
S31508008BC0EDE70546F3E700BF57640008118E000875
S31508008BD02DE9F041D0E90A369E42044686B028D1EE
S31508008BE01422C369456802FB1355284606B0BDE83A
S31508008BF0F0812068676C331AB3FBF7F3E26B07FB67
S31508008C000300D2F8148001A90522C04701A8FFF77E
S31508008C107AFD012804D0636C1D44013B3340ED1AEC
S31508008C2031462046FFF7B3FD0646A36AB342E0D1B4
S31508008C30DBE70025F9E72DE9F04F0F469A460023B2
S31508008C4089B004464FF0FF31104690468DF80B3038
S31508008C50FDF710FFB7F5801F20D2394603AA04F1A5
S31508008C600800FDF74DFC451C014605D1237CBBB920
S31508008C702D2009B0BDE8F08F4046FDF7FBFE012226
S31508008C80414620460DF10B03FFF710FF0028EDD0F3
S31508008C909DF80B308AF800300020EAE7B81CE5D1C9
S31508008CA0E66A711C2CD12046616AFFF751FD06461B
S31508008CB0BB1C18BF0123DFF8C4B00093636A626C5B
S31508008CC00193236803A902FB0639E36B484605228C
S31508008CD05B6909F114099847002549464B1C05D0DC
S31508008CE0636C81EA09025B4213420FD03146204683
S31508008CF0FFF72EFD019BB3422FD085BB0646DDE765
S31508008D002368F61A636CB6FBF3F6D1E71A48FDF743
S31508008D10B1FE2046009A18490DF10B03FFF7C6FE6F
S31508008D208446B8B1BA1C03D0DBF8D032BB4211D1A5
S31508008D3045469DF80B30DFF840E08AF80030BEE87B
S31508008D400F000FC5BEE80F000FC59EE8070085E8AF
S31508008D5007006546DBF8D812C0E7002D88D0B7F5BE
S31508008D60801F99D239469AF80030D8F8042004F1C1
S31508008D700800FDF7F5FB8FE758160020881300203A
S31508008D802DE9F04385B00C4617461E460546DDF824
S31508008D903080A0B390F834309BB3B1F5801F32D23F
S31508008DA0DFF868900121FFF770FC214628460DF18F
S31508008DB00F0309F53F72FFF73EFF044688B99DF891
S31508008DC00F30012B14D1D9F80C2306EB08039A426D
S31508008DD013D30090434632463946284612F0A4F982
S31508008DE00446E86B13F0E3FA204605B0BDE8F083C5
S31508008DF0022B14BF2D246024F3E76324F1E7212412
S31508008E00F2E71124F0E72924EEE700BF88130020D3
S31508008E1073B50D46D11E4A421C461B7E4A419A42EC
S31508008E2029D129682368994225D36368994222D8AB
S31508008E30124E0DF1070306F54A72FFF7FCFED0B98C
S31508008E40D6F82C236B689A4215D19DF80730DA1E9E
S31508008E5053425341227E93420DD1636901336361C4
S31508008E60D4E90323934206D22968A26842F823105C
S31508008E70236901332361012002B070BD88130020E5
S31508008E8070B50025044686B00562E369AB4202D890
S31508008E90206A06B070BD666C2068E36B05225B69C4
S31508008EA006FB050001A9984701A8FFF72CFC012835
S31508008EB098BF236A05F101059CBF01332362E4E7E5
S31508008EC038B50446456C006804F1400305FB01010A
S31508008ED0E06BFDF731FC05462046FFF7D1FF284633
S31508008EE038BD2DE9F04100254FF0FF384FF6FF73E6
S31508008EF0044647462E46C0E9085386B0E369B3429E
S31508008F000DD8A5EB0805012D06D94FF6FF730025E8
S31508008F106362E369AB4223D806B0BDE8F081E26B31
S31508008F202368606CD2F814C000FB0630052201A93C
S31508008F30E04701A8FFF7E7FB01280FD801A8FDF7CE
S31508008F40D3FB874288BF6662804528BF8046854234
S31508008F5038BF05460746236A013323620136CDE743
S31508008F60666C2068E36B06FB050005225B6901A9B0
S31508008F7098470135CDE72DE9F04F97B0CDE908239D
S31508008F800D460A69416CD31D1439B3FBF1F301335D
S31508008F9002EBC302036B04469342C0F0D982002356
S31508008FA0DFF8C0920C93E36AAD4819460693FDF7BD
S31508008FB061FDD5E903370393099B022B40F026810F
S31508008FC0CC2F40F0A682089B002B00F0F1800026EB
S31508008FD06868E36B119601225B6911A90830984706
S31508008FE0B04694F84230012B40F0AD80632E2DD95F
S31508008FF0119B666C069A1293731E1340F61AE36B5E
S3150800900001225B69686814A99847149B13F07E0FC0
S3150800901014BF04230823782F059340F20781012201
S3150800902000234FF0080A04922A68C9F8E072C9F8C2
S31508009030D022099A032A00F01F81022A00F0C7806D
S31508009040049A002A14BF00220722C4E0612E08D819
S3150800905014AB324629462046FDF7B2F99DF8503042
S3150800906023B314AB3246294620468DF84C80FDF7CB
S31508009070A7F994F84230DDF850A0012B52D14FF6EB
S31508009080FF739A4500F09280082214A913A8FDF7E9
S315080090900DFB9DF84C20CAF307239A4240F08680C0
S315080090A05FFA8AFA119B534411937FE094F8423091
S315080090B0012B2DD132462946204612ABFDF780F901
S315080090C02946204613AB721CFDF77AF92946204635
S315080090D014ABB21CFDF774F90823102213A90DF17D
S315080090E043008DF84330FDF7E1FA102214A9FDF785
S315080090F0DDFA129BDAB2002A51D19DF84320B2EB71
S31508009100132F4CD1DDE9133203EB0243119346E0EA
S31508009110302E2BD943E09DF84320B2EB134F3ED1B6
S31508009120139BF3E7BAF1FF3F40D0102214A913A806
S31508009130FDF7BCFA9DF84C20CAF307439A4235D18D
S315080091401FFA8AFAAEE7312E3FF652AF89D014AB32
S31508009150324629462046FDF733F9BDF85030002B34
S315080091607FF47FAF94F84230012BA3D032462946CC
S31508009170204612ABFDF724F92946204613AB721C8C
S31508009180FDF71EF91023202213A90DF143008DF8CF
S315080091904330FDF78BFA129B9AB2002ABBD094F89B
S315080091A04230012B14BF012302231E44013618E75F
S315080091B0039B01221B684FF0080A12932B6804923E
S315080091C0C9F8D03208230593089BC9F8E072049AB7
S315080091D0C2F10202D2B289F8E4224FEA9A020E924A
S315080091E0069A019200220A920D9207920B92606CDF
S315080091F0019A411E1140421A002F3FD053449A4209
S3150800920047D8236B1B1A0B4423635BE1666C069AEB
S31508009210731E1340782FA6EB030619D8EB7D8BB97E
S31508009220089B002B7FF4EBAE042305933B1DB3424A
S315080092301AD9F7B1082E3FF6F2AE042300229A4651
S315080092400492F1E6089B002B7FF4D9AE0823ECE7DD
S31508009250089B002B7FF4D3AE08230593DFE600BFF7
S315080092605816002088130020002304934FF0040AA0
S31508009270DAE604230497F9E7099AACE75245C0D31E
S31508009280B846019B53440293079B002B18BF032340
S3150800929014E0A2EB0A02019B9742B846534428BF42
S315080092A0904697420293EFD90123D9F8E02289F82C
S315080092B0E732974243D1019AC9F8D422079399F81D
S315080092C0E732002B3DD099F8E8220199D31C09EB27
S315080092D0C303C3F8D41207990132A3F8D88283F8D6
S315080092E0DA1289F8E822B8F1000F14D0099B022B8C
S315080092F02BD10A9B7BB90D9B4344032B0BD9E36BFC
S3150800930001229B69029812A998470646002840F050
S31508009310278101230A9399F8E4322E688D4A012B96
S3150800932002EAC61628F07C4B40F289809A1E012A6A
S3150800933003D908F1070303F07F031E4385E00223E0
S31508009340BCE7019BC9F8D432CDE7089B002B31D185
S31508009350039BB8F1030F03EB080B28D9DDE90201DB
S31508009360E36B4FEA98029B6998470646002840F047
S31508009370CA8018F003025FD0039B28F00306334423
S315080093800393029B1E444FF0FF33039913A81393CC
S315080093901DF086FDE36B304601229B6913A99847A9
S315080093A00646CDF80CB0002EB5D0029B6FE04246BB
S315080093B0029EE8E705F12003DDF808B00F93EB7D80
S315080093C068689BB100232E7E0B9AD9B28E4211D9BA
S315080093D00F9903F1010C31F83310914226D90599FA
S315080093E005EBC303D8690A44104403E00B9B059AAE
S315080093F013441844E36B01225B6913A99847139B2E
S31508009400012211930B9B584604330B93E36B11A966
S315080094109B699847029B06464344A3EB0B03042B20
S3150800942007D9002872D10BF1040BC8E76346521A14
S31508009430CBE7CDF808B0B6E7CDF80CB06BE7079ADE
S3150800944043EAC263334343F060464FF000038DF8A6
S315080094504C30049BCDE9146B002B49D0202214A96B
S3150800946013A8FDF723F91A2215A9FDF71FF99DF888
S315080094704C304BEA83631593E36B0E9A9B6901980C
S3150800948014A99847019A061E0C9B18BF1346524604
S315080094900C93204643460199FFF7A2F9236B08F17E
S315080094A00302A3EB0A0322F003029B1AC9F8D802A7
S315080094B02363002E54D10D9BA7EB080743440D9355
S315080094C0029B019320460199FFF761F90023019059
S315080094D0002F7FF48CAE204A04F10800D2F8D83267
S315080094E0D2F8D422E3622968099BFDF739F811E01E
S315080094F01B2214A913A8FDF7D9F89DF84C3046EAA3
S31508009500C3661496B8E7CDF80CB04EE7CDF808B0A8
S315080095104BE77027384617B0BDE8F08F002760E0A4
S3150800952004F10800FCF7B3FF3B46394620460B4AD0
S31508009530FFF7CEFA2A69616CD31D1439B3FBF1F330
S31508009540013302EBC302236B9342BFF42CAD6DE0EB
S315080095501C27DFE780FFFF07881300201166000835
S315080095603D2E63D104F1080301932768069B204624
S31508009570E16AD4F844A0A3EB070BFFF708F9A26A3F
S31508009580BBFBFAFB8242D5D0616CD9F8D82201F12F
S31508009590FF3C02EA0C0C226B0C9B521A62442263B3
S315080095A02268E0629A1AB2FBF1F8C345B6D10AFB03
S315080095B00877069B07F1140BB3EB0B0711D0E36B87
S315080095C0BA0859469B6998478246E26A069B3A4416
S315080095D0E262226B0198D21A5A442263FCF757FFBB
S315080095E057462368616CE06B01FB0831FDF74BF8C1
S315080095F02046FFF745FC2046FFF773FC626A616C5C
S315080096002368204601FB02331433A362FFF7E0FA0E
S315080096102063002F84D02A69616CD31D1439B3FBEB
S31508009620F1F3013302EBC30290429ED2374671E74B
S31508009630F7B5089C032A1646256805D1237A012B17
S3150800964025D0012003B0F0BD274F28460DF10703AA
S3150800965007F54A72FFF7EFFA60600028EED1D4F8F2
S3150800966000E0D7F82C03DEF82810DEF844C048409E
S31508009670CCF100031840227AE0D1012A09D1E26828
S31508009680D7F8383313446A69934202D92074207C88
S31508009690D8E7DEF80020DEF82C30891A9B1AB3FBCF
S315080096A0FCF3B1FBFCF18B420DD1696CEB6A4A1EE7
S315080096B013402A6B521A13442B6325682846A96A55
S315080096C0FFF765F8E862D7F83823E36808321344E9
S315080096D0E3600122334605492068FFF74CFC6060C9
S315080096E00028ABD00020ADE788130020B016002074
S315080096F0032A2DE9F34106460D4617461C4606D1B0
S31508009700237A012B24D0012002B0BDE8F081DFF8CE
S31508009710608009680DF1070308F54A72FFF78BFAAE
S3150800972060600028ECD19DF80720237A032AE7D049
S31508009730D8F82C136A689142E2D1012B2969D4F82A
S315080097400CC007D172690CEB0103934202D920744D
S31508009750207CD9E708316144E1603B46012229466D
S315080097603046FFF708FC60600028C9D00020CBE728
S31508009770881300202DE9F34104461F4616468846FD
S315080097802C4D4FF0FF3105F54A70FDF773F99DF83A
S3150800979020300022204605F54A71C5E9CD67C5F88F
S315080097A02883FFF7E8FB236E0746002B3DD02046AB
S315080097B06169FEF73DFF626E236B024493422CBF3C
S315080097C000220122984228BF0023257C38BF1B1A95
S315080097D0002684F85020636584F85850D5B1DFF820
S315080097E0588033463246314620460196CDF80080E9
S315080097F0FFF7B2F901230546CDE900833246334621
S3150800980031462046FFF7A8F9E36805449D4294BF10
S315080098103546ED1A94F85030E56513B994F8583082
S315080098201BB1236E04F150009847384602B0BDE8D4
S31508009830F08100BF88130020FFFF0F002DE9FF41CC
S315080098400F4690461E460546002847D090F8343005
S31508009850002B45D0B1F5801F44D2234C0221FEF7D8
S3150800986014FF04F53F72394628460DF10F03FFF73A
S31508009870E2F9024620B16B699E4219D9622410E0CA
S315080098809DF80F30012BF6D1D4F80C138E42F2D185
S31508009890009341463346284611F046FC0446002804
S315080098A0E9D1E86B12F083FD204604B0BDE8F081EB
S315080098B0284612F09DFB31462846FEF7B9FE2C6B6A
S315080098C0844209D301234246009339463346284643
S315080098D0FFF750FF0446E4E71C24E2E72124E3E708
S315080098E01124E1E72924DFE78813002007B51F487C
S315080098F090F8543303B9FEE70023694600F556701D
S31508009900CDE9003312F060FDE8B9194AD2F84031C2
S31508009910D2F840211F2B4FF001030FD9203A93406C
S31508009920019A1A43019208236A4612491248FFF718
S3150800993085FF124B124A1A60FEF704FE9340009AFE
S315080099401A430092EFE72D28F3D1094AD2F840319D
S31508009950D2F840211F2B4FF0010385BF203A9340D0
S315080099609340019398BF0093DDE700BF881300205A
S315080099700080004400710800E01600200000002066
S315080099800B020FF07FB50C46054648B390F8343005
S3150800999043B3B1F5801F27D20221FEF776FE214692
S315080099A02846124A0DF10F03FFF745F90646A8B9EE
S315080099B09DF80F30032B11D0284612F019FB03230C
S315080099C021460093324633462846FFF7D3FE04461F
S315080099D0E86B12F0ECFC204604B070BD2D24F7E7C6
S315080099E02124F8E71124F6E72924F4E78416002051
S315080099F0F0B504460D46466CE36B006887B0052251
S31508009A005B6901A906FB0500984701A8FEF77BFEDE
S31508009A10012804D801A8FCF767FE07B0F0BD29465F
S31508009A202046FEF795FE0646676C2068E36B05221E
S31508009A305B6901A907FB0600984701A8FCF754FED5
S31508009A40431CEAD0B54238BF0130E6E72DE9F04FAE
S31508009A504FF0FF334FF6FF720025044600F1080861
S31508009A60C0E909238BB0C3620562056340468B468D
S31508009A70FCF70DFD2046FFF703FA40BB4FF6FF79CA
S31508009A80676A00264F4514BF3D460025E3699E4296
S31508009A903BD32046FFF7F4F908BB5E2028E023688D
S31508009AA0E26B606C566900FB0530052205A9B047D4
S31508009AB005A8FEF728FE01281DD129462046FFF7EE
S31508009AC097FF421C29462046FFF7FAF90135E36954
S31508009AD09D42E4D32046FFF7D3F90028CED020468E
S31508009AE0FFF7FFF94FF6FF72636A934237D1672093
S31508009AF00BB0BDE8F08F0338C0B20128E6D8294676
S31508009B002046FFF775FF0246DCE7E26B2368606CC8
S31508009B10D2F814C000FB0530052205A9E04705A8C0
S31508009B20FEF7F1FD022807D04F450DD10BF10102D2
S31508009B3029462046FFF7C4F9E3690135B5FBF3F278
S31508009B40013603FB1255A1E729462046FFF750FFC9
S31508009B50B0F1FF3F14BF02465A460132E8E7E26B0E
S31508009B60666C206855696946052206FB0300A84706
S31508009B70626A616C23684B4D01FB02331433A3629E
S31508009B804FF0FF336FF00101E362204605AB05F5A0
S31508009B904A72FFF750F8002849D1D5F830532946BC
S31508009BA02046E562FCF7F3FB206320B92046E16A0C
S31508009BB0FEF7EDFDE06229462046FEF7E8FD05467C
S31508009BC0A36A9D4235D12046FCF7CAFB0026074604
S31508009BD03546E3699D423ED3B74257D92046616A66
S31508009BE0FEF7B6FD4FF00008054604F1400A464563
S31508009BF012D8626C2368694602FB0539E36B0522B5
S31508009C005B69484698476846FCF76EFD5346024628
S31508009C104946E06BFCF790FD29462046FEF798FD7D
S31508009C2008F1010847450546E1D1642060E7A56AC1
S31508009C30B5E729462046FCF7AAFB236B29460344C9
S31508009C40064623632046FEF7A2FD0546002EB7D139
S31508009C50C4E90B06B4E7626C236805A902FB05395B
S31508009C60E36B05225B694846984705A8FEF74BFD56
S31508009C70012809D8204609F11401FCF788FB636C12
S31508009C80143B984208BF01360135A2E74046FCF767
S31508009C90FEFB002320461946034AFEF719FF00205B
S31508009CA026E700BF88130020116600082DE9F8434F
S31508009CB00023B04CB04E94F88C73D4F8C083D6F811
S31508009CC0DC50C4F8C0337FB3D4F85823AA4240F016
S31508009CD04581D6F8E010D4F85C23914240F03E81E5
S31508009CE0D6F8E410D4F86023914240F03781D6F8CC
S31508009CF0E810D4F86423914240F03081D6F8EC108D
S31508009D00D4F86C23914240F02981D6F8F410D4F89F
S31508009D109423914240F022811D46D6F8F020C4F8DB
S31508009D2070232846BDE8F8835822394604F55A7048
S31508009D30D4F890931CF095FED6F8E03004F55870E8
S31508009D40C4F85C33D6F8EC30C4F89093C4F86C3396
S31508009D50D6F8F030C4F85853C4F87033D6E9392326
S31508009D60C4E9D823FCF793FBD6F8F43004F56670FB
S31508009D70C4F894339B68984730B9D4F89C731FB1DC
S31508009D80D4F85C33B3FBF7F794F89B33C4F87473D1
S31508009D90002B00F0E5800023D4F89C53C4F8B833B0
S31508009DA0002D00F0E580002F00F0E280D4F858334B
S31508009DB0B3FBF5F205FB1233002B40F0D380D4F841
S31508009DC05C73B7FBF5F605FB1676002E40F0CA80E5
S31508009DD06A48FEF748FC8742C0F0C68040F63472EF
S31508009DE0D4F86C33CC3B934200F2C080B5F5805F63
S31508009DF0C0F0BE8003216148FEF747FCD4E9D601CE
S31508009E00D4F894331B6898470546D4F8943302204F
S31508009E10DB68984735B184F88C63D4F8940312F05C
S31508009E20C6FA7EE741465548FFF710FE6428054600
S31508009E3004D141465148FFF709FE0546D4F89C333C
S31508009E40143B7DBBD4F878234C4802FB03F6FEF797
S31508009E500AFC864203D284F88C535A25DDE701238F
S31508009E60D4E9D66084F88C33D4F8C433D4F8C873EC
S31508009E700133C4F8C433FCF7D7FD1F2816D8BFF33F
S31508009E805F8F05223E4BC3F894205A6A42F480320B
S31508009E905A62BFF34F8FBFF36F8FBFF34F8FBFF376
S31508009EA06F8FBAE7002384F88C33B6E74FF0000CBF
S31508009EB0F10600F1FF3018BF26F01F0106EB00037C
S31508009EC00CBF31462031DA062D4A18BF23F01F038E
S31508009ED05FFA8CF0874226D8D2F8C00021F01F011D
S31508009EE020F47F4040F48070C2F8C00041F00301BE
S31508009EF0EFF31186302080F31188D4F8C80323F0D5
S31508009F001F0343F00303C2F89800C2F89C10C2F876
S31508009F10A03086F31188BFF36F8FD4F8C8330133A6
S31508009F20C4F8C833ABE7C2F89800D2F89C00D2F858
S31508009F30A06020F01F00884226F01F0601D19E422D
S31508009F409DD08E4201D3984299D9D2F898000CF147
S31508009F50010C20F0FF00C2F89800B9E75D25E0E69D
S31508009F602125DEE65925DCE65A25DAE65F25D8E618
S31508009F705B25D6E688130020443F0020E016002023
S31508009F8000ED00E0034B5A6812B19A6A002AFAD12A
S31508009F90704700BF00400650044BD3F88420D20611
S31508009FA0FBD4D3F88400C0F38110704700400050FA
S31508009FB0430905D0012B0CD0022B084B18BF0023F0
S31508009FC000F01F0039B103F58053012282401A6060
S31508009FD07047034BF4E703F50053F6E76880005033
S31508009FE06480005010B5EFF31182302383F3118893
S31508009FF0204B93F8CC432CB182F31188BFF36F8FB3
S3150800A0001D4810BD012183F8CC1382F31188BFF3D4
S3150800A0106F8F202083F8FC4083F80C4183F81C419D
S3150800A02083F82C4183F83C4183F84C4183F85C4122
S3150800A03083F86C41FFF7BCFF2120FFF7B9FFFF2229
S3150800A0400E4B59609C609C619A624FF000429C637B
S3150800A0501C645A654FF0FF3203F500531A658021D8
S3150800A0604FF40012064BC3F8802183F815131A60C3
S3150800A0702046C6E788130020038000F0000004503D
S3150800A08000E100E000232DE9F04F0D460A26184CA2
S3150800A09085B0C4F84832C4F84032C4F89431C4F8DC
S3150800A0A04412284603A911F0F4FFD0B9039B013ED8
S3150800A0B09A7C02F101029A74D4F8482243F82C2FAC
S3150800A0C0C4F84832EDD10A220A4B1A80FFF78AFFF4
S3150800A0D018B1094B984240F0CA8108480FF046FC6F
S3150800A0E070B14FF01908404605B0BDE8F08F00BFC3
S3150800A0F088130020443F0020038000F01815002034
S3150800A100DC480FF033FC80460028EAD1D4F89031B9
S3150800A110D4F80C224FF0000A934288BFC4F8902165
S3150800A1204FF0100288BFC4F80C32D34B02269A614E
S3150800A1304FF020129A614FF40012DA61A3F510432A
S3150800A1409A6ACE4A01279A62DA6A4FF44222DA629A
S3150800A1504FF48023C4F88031C94BCA4DC4F8FC318A
S3150800A16042F22003C4F884A1C4F800A2C5E901AAF2
S3150800A170C5E920AA84F89C62D4F89C2205F51370D8
S3150800A18020FA06FC6CF39F024FF0400B5146C4F8C8
S3150800A1909C220D22C4F89832C4E9A47A84F88971FD
S3150800A1A084F8057284F88D711CF05BFCB64B4FF091
S3150800A1B02009C4E9993603F5F73303F5F273C4E9C0
S3150800A1C0A13A42F2200384F8DC63D4F8DC0305F1F3
S3150800A1D0D802F24062F39F00AC4A84F88C62C4F855
S3150800A1E0DC03C4F88022D4F88C0205F1E802F240B8
S3150800A1F062F39F00A64A84F87862C4E99CB2C4F860
S3150800A2008C0205F51772D4F87802F24062F39F00C3
S3150800A210A04A84F8EC63C4E9F82AC4F87802D4F8AA
S3150800A220EC2305F51B70C4F8E83340FA06F363F32C
S3150800A2309F025146C4F8EC230D22C4E9976984F8B5
S3150800A240D993019384F8D073C4F86C621CF009FCA6
S3150800A250914A924B84F8FC63C4E9FC2305F5237202
S3150800A260C4F8F8236022019B84F8F223D4F8FC236F
S3150800A270514663F39F02C4F8FC2305F51F700D22AF
S3150800A2801CF0EFFBD4F80C2405F5247323F0030324
S3150800A2903A4033431343C4F80C348023C4F81834C3
S3150800A2A07F4B84F82064C4F81C34A5F11400D4F854
S3150800A2B0203420FA06F262F39F0351460D22C4F8B1
S3150800A2C0203484F8007484F804B4C4F814641CF0C8
S3150800A2D0C8FB84F87C61D4F87C3105F5287020FA2F
S3150800A2E006F262F39F0351460D2284F87991C4F869
S3150800A2F07C3184F870711CF0B4FB84F83064D4F8AF
S3150800A300302405F52C73F34063F39F0284F8406408
S3150800A310C4F830245C4AD4F8403405F53070C4F8E3
S3150800A3203C2420FA06F262F39F0351461022C4F831
S3150800A3303894C4F8403484F8247484F829B4C4F8EA
S3150800A34034641CF08EFB574B84F8F861C4F8443427
S3150800A350524BD4F8F821C4F8483405F1CC03C4F8B4
S3150800A3604C3444F24003C4F8F43105F53473F34031
S3150800A37063F39F024C4B84F86064C4F8F821C4F870
S3150800A3805C34D4F8602405F11803F34063F39F02A4
S3150800A390464B84F8A861C4E9673AC4F8602405F511
S3150800A3A03873D4F8A821F34063F39F024FF480531F
S3150800A3B0C4F8683441F2100384F87064C4F86C3445
S3150800A3C005F12800D4F87034C4F85894C4F8A821C4
S3150800A3D0DFF8E89020FA06F262F39F0351460D2251
S3150800A3E0C4F87034C4E97B7AC4F85464C4F8A491F8
S3150800A3F0C4F864741CF035FB05F53C73D4F8B82131
S3150800A400C4F8B43105F1380323F003033A40334363
S3150800A4101343C4F8B831264B84F8C861C4E96F3AC7
S3150800A42005F15800D4F8C83140FA06F262F39F03E2
S3150800A430C4F8C8311F4B84F8D861C4E9733AD4F814
S3150800A440D831514662F39F031022C4F8D83184F8F4
S3150800A450AC61C4F8B071C4F8C491C4F8D4911CF0C6
S3150800A46000FB154BC4F8E491C4F8DC313BE64FF029
S3150800A470100838E6941500200010045005200C003A
S3150800A480020004000C15002040D00350F07F0003A2
S3150800A49014D00550010010000800200024C0055003
S3150800A4A014C005506000100340E0035060000030FF
S3150800A4B0F07F003070000030100000303CC00550BE
S3150800A4C01FB50023B0F5807F019300F03E816BD85D
S3150800A4D05E2862D85E2863D8DFE810F0770062004D
S3150800A4E0620062006200620062006200620062004E
S3150800A4F0620062006200620062006200620062003E
S3150800A500620062006200620062006200620062002D
S3150800A5106200620062006200620062007700F20078
S3150800A5207700F20013011301130113011301F2005E
S3150800A53025018000AB0048018000F200F200F2001D
S3150800A54062006200620062006200620062006200ED
S3150800A550F200F200F200C1006701F2006200620038
S3150800A56062006200620062006200620062006200CD
S3150800A57062006200620013017700770077005801D5
S3150800A580800080007301D0009600200162006200FE
S3150800A590620062006200DD007700802800F081809A
S3150800A5A0019805B05DF804FBB0F5D06F00F0DE80C9
S3150800A5B044D8B0F5607F00F08A801AD8B0F5007FDD
S3150800A5C073D005D8B0F5C07FEAD11EF071F86AE0FD
S3150800A5D0B0F5207F74D0B0F5407FE1D11EF068F861
S3150800A5E0924B1B6FC3F380230133B0FBF3F0400893
S3150800A5F059E0B0F5B06F00F0968017D8B0F5806FC7
S3150800A6007FD0B0F5A06FCBD10021884B0391D3F84A
S3150800A610203203F00703042B06D8022B7AD8012B25
S3150800A62074D0022B00F0E380039B98E0B0F5C06F6E
S3150800A630B6D1002101A8FCF76BF9B1E7B0F5106FA8
S3150800A64000F0A4800FD8B0F5086F00F0D980A7D81D
S3150800A650B0F5E06F00F0A980B0F5F06FA0D1734BAC
S3150800A660D3F86031A4E0B0F5406F57D010D8B0F5F4
S3150800A670206F00F0A680B0F5286F91D100216B4BB2
S3150800A6800391D3F8703203F00303012BCCD1AAE06F
S3150800A690B0F5486F84D100230393644BD3F8943202
S3150800A6A094E01DF0E7FF01907AE71DF0E3FF5F4BAA
S3150800A6B0D3F89030C3F304630133B0FBF3F0F2E749
S3150800A6C01DF0F6FF594B1B6FC3F38023F4E7574978
S3150800A6D0D1F8802002F00302022A0AD0032A0BD0FE
S3150800A6E0012A0CD11DF0C6FFD1F88030C3F301133F
S3150800A6F0E2E71DF065FFF7E74D4B5868F4E71846A3
S3150800A700F2E7002101A8FCF7CDF849E703A8FCF712
S3150800A71095F889E74FF40043039385E7002101A8DC
S3150800A720FCF78CF83CE70021404B0391D3F88031C5
S3150800A73003F00303022B5ED0032B58D0012B7FF4C2
S3150800A74073AF03A8FCF7AEF86EE702934FF0E02369
S3150800A7501B695A0705D51DF0ABFF0290029B0193B2
S3150800A7601EE703A902A8FCF7D3F8F7E72F4BD3F89F
S3150800A770003203F00700032812D05B070AD4013819
S3150800A78001288CBF00200120C0038CE7274BD3F893
S3150800A7900832EEE7042806D11DF08AFF800A82E710
S3150800A7A04FF47A707FE700207DE7204BD3F84032DC
S3150800A7B003F00303032B20D0003B18BF0123DB0360
S3150800A7C0CDE700230393194BD3F8603203F0070350
S3150800A7D0013B032B3FF628AFDFE803F002040D091F
S3150800A7E00021AEE7002103A8FCF792F81CE71DF04C
S3150800A7F0E7FE039018E70F4B8EE74FF47A73AEE740
S3150800A8000A4BD3F8003103F00303022B06D0032BBF
S3150800A81007D0012B07D1064B9B68A0E74FF40043EE
S3150800A8209DE7054B9BE7002399E700BF0080005092
S3150800A830443F0020002D310180D5430208B5802011
S3150800A840FFF73EFE034B98429EBF4FF48032024B01
S3150800A8501A6708BD005A620200A0005008B54FF4F6
S3150800A860C070FFF72DFE0649064A884294BF0020AD
S3150800A8700120136F23F4806343EA8023136708BD1E
S3150800A88080F0FA020080005007B5032001A91EF0E7
S3150800A8900FFB0198044B98429ABF0A23B0FBF3F0CA
S3150800A8A0024803B05DF804FB09879303808D5B00BB
S3150800A8B038B5174CFF28A26A28D8A36D154D13F48E
S3150800A8C0803F18BF4FF48031134B18BF99624FF081
S3150800A8D080719962A36995F9F85023F47F030544BA
S3150800A8E023F47F4343EA002385F3080543EA054337
S3150800A8F0A3610A48FDF7ABFDA36DDB0304D54FF44E
S3150800A90080310648FDF7A3FD002038BD2120FCE76D
S3150800A9100040005A443F00200050005A2840005A80
S3150800A92038B50F4C0F48A26AA36D13F4803F18BFC1
S3150800A9304FF480310C4B18BF99624FF080719962C1
S3150800A940A569FDF784FDA36DC5F30725DB0304D5CB
S3150800A9504FF480310348FDF77AFD284638BD00BF1D
S3150800A9600040005A2840005A0050005A014B83F80C
S3150800A970F8007047443F0020014B93F9F8007047F0
S3150800A980443F00204FF4803311481249826A8B6293
S3150800A990836D03F00303032BFAD14FF080730E483F
S3150800A9A08B620B4B996D30EA0101FBD101200949F5
S3150800A9B00865996D8907FCD4054B996D8807FCD500
S3150800A9C0996D8907FCD505490548FDF740BD00BFC7
S3150800A9D00040005A0050005A03000100000001011F
S3150800A9E02840005A4FF4803210B5104B9A66A3F5EA
S3150800A9F080531B6FC3F3033303FB00000C4BDC6966
S3150800AA00144041F67132DA635A6822F4401259B991
S3150800AA100849884294BF00200120000502435A6075
S3150800AA200CB10022DA6310BD0349F2E7009000502A
S3150800AA3000000350005A6202002D310110B50C4C7B
S3150800AA40022011F03CFD236F0A4AC3F38023013329
S3150800AA500021094882F87834FFF7C4FF236F43F4CE
S3150800AA60806323674FF4803304F58054236710BD51
S3150800AA70008000508813002000B4C40438B5054689
S3150800AA801DF016FE0446FFF787FA0128D4BF0121F8
S3150800AA9000212046FFF7A6FF002011F045FD25B14D
S3150800AAA0FFF7DCFEBDE83840C8E60649064A0B6FE4
S3150800AAB092F8782423F48063013A43EA82230B67E9
S3150800AAC0F0E700BF0080005088130020024A536B4D
S3150800AAD00342FCD1704700BF004009504FF00042C6
S3150800AAE070B50F4B04465D6E03F580535A664AF6F9
S3150800AAF0CD330C4980204E6C0B64FFF7E7FF0B6AD9
S3150800AB0023F4F85343EA04230B62F30744BF064BC6
S3150800AB100B64002DA2BF4FF00042044B5A6670BD6D
S3150800AB2000800050004009503254FFFF00A000503A
S3150800AB30012370B5C4B2A3401E4C22F0030223655C
S3150800AB4084000D6804F1A04404F588246560302566
S3150800AB5068434C7B00F1A04000F580200466CC7A5F
S3150800AB608E7A240544EA06440E7B44EA4654C465B4
S3150800AB700267EFF3118485F311880F4A5365087A43
S3150800AB8000B11364487A00B1936308798A7942EA76
S3150800AB900042084882614D79CA79074942EA054266
S3150800ABA08A61064A4363936484F31188BFF36F8FFF
S3150800ABB070BD00BF0020045000100450000004506F
S3150800ABC00123C0B28340EFF31180302282F311884B
S3150800ABD0054A516D21EA03015165936280F3118894
S3150800ABE0BFF36F8F704700BF000004500123C0B247
S3150800ABF08340EFF31181302282F31188074AD06A25
S3150800AC00184209D1526B93430CBF0120002081F3EF
S3150800AC101188BFF36F8F70470020F8E700000450D3
S3150800AC200A4392B20021FCF7E4B9021E30B54FF090
S3150800AC3000000CBF1025042547F60774074952B9CA
S3150800AC40831D51F82330234023B101308542F6D1C4
S3150800AC504FF0FF3030BD00F11603F2E700800350D5
S3150800AC603AB122F0030202F1A04202F5603209B9B4
S3150800AC70106070470002FBE74FF48032064B5A66B5
S3150800AC8003F5E6239B69C3F38512827003F03F023E
S3150800AC901B0B4270037070470090005007B50146C1
S3150800ACA001A8FFF7E9FF9DF8063001220B804FF453
S3150800ACB0807300204B80054B9B680A3303F01F0303
S3150800ACC002FA03F34B6003B05DF804FB0080E00F63
S3150800ACD0036BDB0702D503695A06F9D4012200F58E
S3150800ACE000531A63036B9B07FCD40B794A881B0233
S3150800ACF043EA82438A7A13434A7843EA8213CA7A32
S3150800AD0043EAC2130A7B43EA42134A7B43EA021325
S3150800AD108A7B43EAC203CA7B43EAC2238A7943EAA7
S3150800AD200243CA7943EA42430122436000F580534D
S3150800AD301A630B780BB90223C360002343624B796D
S3150800AD400A7A1B0143EA82034A7A134383600B7823
S3150800AD500BB10123C3607047012200F580531A63C3
S3150800AD600223C36000231F4900F5005283608361F4
S3150800AD7051614FF6FF710362C1614CF6806143620F
S3150800AD80436683660367C0F88430C0F88830C0F825
S3150800AD909030C0F8A430C0F8A830C0F8B030C0F879
S3150800ADA0FC10C0F8EC30C0F8F0301F23C0F8F830BB
S3150800ADB0036BD90702D503695B06F9D4012313632C
S3150800ADC0036B13F00203FBD143600366C0F88030BF
S3150800ADD0C0F8A030C0F8E030C0F8E830C0F8E43079
S3150800ADE0704700BF770077072DE9F04F85B0002838
S3150800ADF000F0F5807C4A13689842C0F0F2805168EA
S3150800AE000B44984280F0ED80D2E9055CEFF3118B94
S3150800AE10302383F3118810F8083C30F8067CDB07EA
S3150800AE20A0F1080600D53FB98BF31188BFF36F8FE1
S3150800AE30012005B0BDE8F08F9468D2F81090A4EB15
S3150800AE40C7039360019309F10103136130F804EC19
S3150800AE50791CBEF1000F47D04FEACE030293A6EB4A
S3150800AE60CE03DC8810F8088C03941C78B3F802A08B
S3150800AE70E40708F0020826D4B8F1000F26D1039C8F
S3150800AE80A4EB0A0EBEF1010F2ED1019C0237083C35
S3150800AE9007EB0A01C2F81090946030F802ECBEF194
S3150800AEA0000F23D110F8084C20F806EC6EF30004C6
S3150800AEB000F8084C0139598019786EF300011970A9
S3150800AEC00021D98047E0B8F1000F0DD0DDE9017403
S3150800AED03C1B946010F8084C71446FF3410400F869
S3150800AEE0084C00249C80D8E73346D6E706EBCE0804
S3150800AEF0D2E900472744B8450ED310F8084C013963
S3150800AF006FF3000400F8084C002420F8064C59801A
S3150800AF10197864F30001D2E716F83E60444616F045
S3150800AF20010630F8067C30D010F8086C01396FF34A
S3150800AF30000600F8086C002689B220F8066C5980CD
S3150800AF40197866F300011970C3F107012144C1F3AA
S3150800AF50CF01D980A180002D3FD09D423DD8698878
S3150800AF60002908BF1D46BCF1000F06D09C4504D336
S3150800AF70BCF80210002918BF6346C2E905538BF3D3
S3150800AF801188BFF36F8F002053E7AEEB070EBEF1B3
S3150800AF90010FC9D1B8F80270A8F802600F44B8F8D2
S3150800AFA00610C1B108EBC104002611690139116107
S3150800AFB091680839916010F8081C20F8066C6FF340
S3150800AFC0000100F8081C19785F8066F30001197003
S3150800AFD0002CB9D174E70C46E6E71D46C3E72220E4
S3150800AFE027E700235B69FFDE4C130020002313B517
S3150800AFF0019369B160B101FB00F401A9204610F084
S3150800B00075FB014620B9019810B122461BF029FDAF
S3150800B010019802B010BDFEE7002307B5084601A94E
S3150800B020019310F063FB019803B05DF804FB084632
S3150800B030DAE608461146D9E70023036043607047FD
S3150800B04038B50E4C94F87934B3B902250C480D4935
S3150800B0500D4A091AC2E900010139C9085362C2E951
S3150800B06005001577FFF7E8FF418008210123C2E9AB
S3150800B0700211136184F8793438BD00BF88130020A3
S3150800B08098410020000004204C13002000232DE9DD
S3150800B090F3478D4E019373680C469A42104604D2C4
S3150800B0A039B912B101A910F021FB019802B0BDE827
S3150800B0B0F0871AB90846FFF797FEF6E7EFF3118906
S3150800B0C0302383F31188A1F1080C31F8061C0730E8
S3150800B0D04FEAC10820F00705A84580F0838034F8B8
S3150800B0E0023C002B69D0591A012966D10CEBC3071B
S3150800B0F01CF83330DA0760D47B88A8EB050212EB1C
S3150800B100C3025AD41F2A34DD6019C5F3CF0524F8C3
S3150800B110065C013524F8025CD208FFF78DFF4280F1
S3150800B12034F8023C8380FB8803B37988591A11FAEC
S3150800B13082F292B207EBC303C2809A800022394694
S3150800B14010F090FA3846FFF777FF002234F8061C0D
S3150800B150B368019403EBC103F168A3EB08038B42C0
S3150800B160B3603DD872B3083BB3602BE00023C380BD
S3150800B170E4E73369013B336134F8063C7A880133E6
S3150800B180134424F8063CFA889AB17988511A11FAB8
S3150800B19083F39BB207EBC20224F8023C9380604615
S3150800B1A00122394610F05EFA3846FFF745FF0122BC
S3150800B1B0CCE7002324F8023CF1E7284601A910F061
S3150800B1C095FA20B189F31188BFF36F8F6DE7424670
S3150800B1D0214601981BF064FE2046FFF705FEF1E7BD
S3150800B1E0F360BFE76ED934F8023CA8EB05075A1E90
S3150800B1F0521AA3B30CEBC30A1CF83330DB072FD45F
S3150800B20072BBC5F3CF0324F8063C0133601924F852
S3150800B210023CFFF711FFBAF8023003EBD70343806D
S3150800B22034F8022C8280BAF80620B2B1BAF80210B5
S3150800B230511A11FA83F39BB20AEBC202C3809380B8
S3150800B2400022514610F00EFA5046FFF7F5FEB36895
S3150800B25001942B44A3EB080386E7C280F0E79A46DD
S3150800B260272F2FD9C5F3CF0324F8063C013F013316
S3150800B270601924F8023CFF08FFF7DEFE478034F821
S3150800B280023C8380BAF1000F19D0013212FA87F70F
S3150800B290BFB2C780AAF80470002233691146013389
S3150800B2A0336110F0DFF9B368F26808332B44A3EB77
S3150800B2B0080393420194B36084D9F36082E7A0F847
S3150800B2C006A0E9E701947DE74C130020F8B504468B
S3150800B2D0EFF31186302383F31188D0F8A4309D68E4
S3150800B2E015BB04F130001DF0C1FBD4F8A4305D692C
S3150800B2F0002D35D1274657F88C5F002D4CD12746AF
S3150800B300257457F8905F002D5ED1274657F8945F4D
S3150800B310002D60D1D4F8A430DF68002F62D186F3FF
S3150800B3201188BFF36F8FF8BD15F8203CA5F13000E2
S3150800B3307F2B4FEA9317436998BF0027A3422D68CE
S3150800B340CED1D4F8A4100831FDF744F81FB9637BB1
S3150800B35001336373C4E7032F04BF0023A373BFE756
S3150800B36015F8203CA5F130007F2B4FEA9317436967
S3150800B37098BF0027A3422D68BAD1D4F8A410143177
S3150800B380FDF728F81FB9637B01336373B0E7032F12
S3150800B39004BF0023A373ABE72A4652F83059384650
S3150800B3A0937C02F13001013B9374FDF707F8937C17
S3150800B3B033B9637B3321013310466373FCF778FA9C
S3150800B3C0E37B013BE37398E72846394650F8305942
S3150800B3D0FDF700F897E72846394650F83059FCF744
S3150800B3E0F9FF95E7384650F830794369A34294D176
S3150800B3F0D4F8A4100C31FCF7EDFF84F8A1508CE7C3
S3150800B400F8B50546EFF31183302282F311880468F4
S3150800B41044B1627AD2060FD483F31188BFF36F8FD3
S3150800B4200F20F8BD8268012A58D8846083F31188F2
S3150800B430BFF36F8F0020F4E78268012A4ED80022F6
S3150800B440826083F31188BFF36F8F94F8506030469B
S3150800B45010F06AFE08B9042E08D1217A31B1D4F861
S3150800B460A40000B184300222FCF7D2F8032304F1C9
S3150800B470840684F85030D4F88430ABBB04F18807CE
S3150800B480D4F88860CEBB2046FFF720FF642066818B
S3150800B4901DF0A0F9002200236061C4E906232046B6
S3150800B4A0C4E90823C4E90A23C4E92666FBF728FD8C
S3150800B4B088B1022384F85030EFF31182302383F3E6
S3150800B4C01188D4F8A430596844F8041F5C6082F3E4
S3150800B4D01188BFF36F8F00232B60ABE783F31188C6
S3150800B4E0BFF36F8F04209CE73046FCF73EFA01460F
S3150800B4F0D4F8A400FBF722FFBDE73846FCF735FA77
S3150800B5000146D4F8A400FBF719FFB9E710B5084CB3
