S02800006275696C642F64656275672F6F742D626C652D646D702D6E6F2D627574746F6E732E73333760
S3150800600008140020CFC70208091905080D19050844
S31508006010311B0308111905081919050831BC0208AE
S3150800602031BC020831BC020831BC0208F5B50608C5
S315080060301D1905087C1F070899B506083FDF0608DD
S31508006040CDF1020831BC020831BC020831BC020895
S3150800605031BC020831BC020831BC020831BC020856
S3150800606031BC020831BC020831BC0208C11604085A
S315080060705D16040831BC020831BC020831BC0208AE
S3150800608031BC020831BC020831BC020831BC020826
S3150800609031BC0208E1BC020831BC020831BC020866
S315080060A031BC0208BDBC020899BC020831BC020812
S315080060B031BC0208ED270608C13006084BB10608B0
S315080060C047B106083528060861B106084FB1060823
S315080060D09130060853B106080131060869310608E9
S315080060E031BC020831BC020831BC020831BC0208C6
S315080060F05D29030831BC020831BC020831BC02081C
S3150800610031BC020831BC020831BC020831BC0208A5
S3150800611031BC020831BC020831BC020831BC020895
S3150800612031BC020831BC020831BC020831BC020885
S3150800613031BC020831BC020831BC020831BC020875
S3150800614031BC0208E12C030831BC0208B5CF0608A9
S315080061501D12060831BC02082BB1060831B1060823
S3150800616031BC020831BC020831BC020831BC020845
S31508006180F0B5114A114C124E00F00105E3695F079C
S3150800619013D40DB9334213D103EA00078F4207D14E
S315080061A00B4A1A40002A0CBF00206FF00100F0BD10
S315080061B0013AEBD16FF00200F9E74FF0FF30F6E74E
S315080061C06FF00100F3E700BF8096980000000350C7
S315080061D002000100000000000000000000000000AE
S315080061E0013800D0FCE7704770B505680C4625B93C
S315080061F0BDE870404B68084818478B6898476A6836
S315080062000146831A002BB8BF121A2368A8BF0022BA
S31508006210BDE8704000481847C81F002038B50C462E
S315080062201146A2680346944206D00568AC420BD1D3
S315080062300260FFF7D9FFA46038BD94420DD011461D
S315080062409268002AF9D1F6E72A460021F9E78B6811
S31508006250002BF0D09B688B60EDE70029F7D1002D65
S31508006260E9D0AA681A60E6E72DE9F0419368054681
S315080062700C46164698473246074621462846FFF7F3
S31508006280CDFF2868002203466BB16168D3F804E0A5
S31508006290A1EB070CAEEB070898EA0C0F13D4A1EB99
S315080062A00E01002907DA4AB9A060314628462C6053
S315080062B0BDE8F04198E71A469B68E5E79368A3604E
S315080062C09460BDE8F081BCF1000FEBE770B5066895
S315080062D004460D467EB18B6898477368C01A002835
S315080062E009DB20462A463146FFF798FF30463368D1
S315080062F0BDE87040184729462046BDE8704073E758
S3150800630000F5405393F8C43B13B102490830DDE762
S31508006310704700BFBC17070800F5405393F8C43B05
S3150800632013B102490C30D1E7704700BFC8170708F8
S31508006330012300F00700834013F0220F09D113F060
S31508006340880F08D113F0440F14BF01200020C000A5
S31508006350704704207047102070474200400800F03C
S31508006360553002F0AA3202439300920802F0333203
S3150800637003F0CC33134318011B0903F00F3300F065
S31508006380F030184300BA7047A0F14103192B98BFA3
S315080063902030A1F1410398BFC0B2192B9CBF203110
S315080063A0C9B20B1A58425841704738B504460846D0
S315080063B04D7894F8FE20A91C031B51FA83F3D21AD0
S315080063C001445EF071FE94F8FE30023B5B1B84F8D4
S315080063D0FE3038BD00230B604B60026802B9704777
S315080063E00B88106801330B80012340B948880344A1
S315080063F04B8050894B68D26903444B60EEE7013302
S315080064000068DBB2F1E700230B604B60026802B953
S3150800641070470B88106801330B80012340B9488800
S3150800642003444B8050894B68D26903444B60EEE7BE
S3150800643001330068DBB2F1E738B50546D1E9000358
S315080064400C465BBA2B8018F086F82289A37AC5F821
S31508006450020043EA42035BBAEB8038BD70B50646D4
S315080064600D460024AC4201D3012070BD305D0134D5
S31508006470030605D44BF06AFC0028F3D00020F4E7A5
S3150800648010F04003FAD0810612D5C20612D50307CA
S31508006490F4D4032307E0AC42F0D0325D013402F0B5
S315080064A0C002802AEAD1013BDBB2FF2BF3D1D9E740
S315080064B00123F8E70223F6E746F078B944F006BA6E
S315080064C010B503780446002B14BF0520032000F5F9
S315080064D0003010F024F82378BDE81040002B14BFD4
S315080064E00620042000F5003010F019B88378082B30
S315080064F009D190F86E00C30903D000F07F000AF0B6
S31508006500CBBA0AF09BBA704770B58CB0054602A89C
S315080065100C4617F046FF4FF2BF03ADF82A306B78EA
S315080065209B0726D42B78002B14BF1C200D2043F084
S315080065304FF90646F8B1214694F8FE2018F0F8FB04
S31508006540044690B902A826F03BFE31460B4B0C4890
S31508006550009502AA18F014FD044630B96B7843F08A
S3150800656002036B7020460CB070BD304618F090F9E7
S31508006570F8E71824F6E70324F4E700BFE1710008FA
S31508006580EC37002037B58DF8071001393E29054646
S3150800659014460DD810460DF1070118F029FE28B942
S315080065A0294620469DF8072018F0C2FB03B030BDE7
S315080065B00720FBE713B50446218920680DF105027B
S315080065C019F00CFE58B99DF8053013F0C00010D12B
S315080065D03BB9638913B9238901336381172002B054
S315080065E010BD2289A371013292B21344A28023817D
S315080065F0F5E7C0281BD1218920680DF1060219F09C
S31508006600F0FD0028EBD1638913B92389023363812E
S31508006610BDF8063022685BBA9289C3F30D031344AA
S31508006620A2899BB29A4202D92381A381C4E7062094
S31508006630D5E743898B4200D2FEE75B1A43818389FB
S31508006640C2898B4294BF00235B1A0A4488BF9BB257
S31508006650C2818381704770B54489A14230D21588BA
S315080066600D44AEB2B14201D8A54201DB641A1480CA
S31508006670C4899860214489B24B29044610D834301D
S315080066804418C1F14C0189B2998010881C60814276
S3150800669028BF0146998011889B88CB1A138070BD44
S315080066A04C39246889B20CB99C60FEE77B2905D869
S315080066B09C6004340C44C1F17C01E4E77C39F0E7C2
S315080066C00021E7E770B5154686B0ADF806300DF13E
S315080066D0060203ABFFF7BFFF2C46BDF810601EB9D4
S315080066E0601B80B206B070BD0399324620465EF044
S315080066F0F5FC03A90DF10600344409F0EBFFECE7BD
S3150800670038B54589CC18AC4203DCFFF7DBFF00201F
S3150800671038BD0620FCE72DE9FF4780460D46924620
S315080067200A88014601A89946BDF8307019F0FBFCA5
S315080067300646B0B9BDF80430BDF80C405BBA64BA79
S315080067409BB2A4B25345298804F10A040DD1A74285
S315080067500BD83B464A464046FFF7D2FF2B881F44D4
S315080067602F80304604B0BDE8F087214417262980DB
S31508006770F7E710B44C889C4203D309885DF8044BAC
S31508006780BEE706205DF8044B70472DE9F04786B052
S3150800679017461C46ADF806300DF1060203ABDDF8C8
S315080067A03880FFF758FFBDF810507DB1039EB8F149
S315080067B0000F11D0B94606EB050AB24513D019F8F1
S315080067C0011B16F8010BC0470028F6D1B4FA84F06D
S315080067D0400906B0BDE8F0872A463946304664F0D7
S315080067E0D8FC0028F2D12F4403A9651B0DF1060039
S315080067F0ACB209F06FFFD6E770B586B0ADF80630D3
S315080068000B4414469AB2914200D9FEE74289934254
S3150800681000DDFEE703AB0DF10602FFF71CFFBDF82E
S3150800682010500DB906B070BD21462A4603985EF091
S315080068303BFC03A90DF106002C4409F04BFFEEE7DB
S31508006840F8B504460E46154600F13407E3899D421D
S315080068500BD85B1B6289E381A3892A442B4492B235
S315080068609BB29A42628117D2FEE76079C0F3410073
S315080068700CF06CFDD0B123680360E38920604B2BD4
S3150800688006D83430C3F14C02F91818445EF026FCD9
S31508006890E3897C33E381D9E7A3812EB12B463246BF
S315080068A000212046FFF7A8FF0020F8BD0320FCE7DB
S315080068B0F0B50646B2420C461046194689B001D1D3
S315080068C0A34215D36B460EAAFFF7C5FEBDF80450C2
S315080068D00DB909B0F0BD214630462B46009AFFF7A0
S315080068E08BFF2C4469460EA8A4B209F0F3FEEDE727
S315080068F0BDF838502C441D44A4B2ADB2BDF83820BA
S31508006900002AE6D0202A174628BF2027ED1BD21BCF
S31508006910ADB2E41B3B462946ADF8382030466A46F8
S31508006920A4B2FFF7CFFE3B466A4621463046FFF73C
S3150800693063FFE3E773B5054603796E8940798E42AE
S31508006940C0F3410228BF0E46C3F340038DF8052065
S31508006950E98901AA40098DF804300CF059FD04466E
S31508006960002832D033460022294618F069FC48BB75
S31508006970AB896289B34228BF33469A4200D2FEE702
S31508006980A381AA79A37962F30303A3712B792279E8
S31508006990DB0963F3C71222716B796279C3F3C1030A
S315080069A063F3C4026271AB69A3612B8A23826B8A83
S315080069B063822B7A2372AB8DA385EB8DE385204604
S315080069C002B070BD204617F063FF0024F7E738B51C
S315080069D004460D460B882C3020F81A3C8B7800F8B4
S315080069E0243C91F903101BF069FD297904F12E0066
S315080069F01BF03BFE6B79C3F3400203F001035B0017
S31508006A0043EA0223A28822F481721343A38038BD85
S31508006A100368994204BFCB6903604368994204BF7F
S31508006A200B6A43600B6A0BB1CA69DA61CB690BB1B1
S31508006A300A6A1A6200220B79C1E9072162F3820306
S31508006A400B71704710B5FFF7E3FFBDE81040084625
S31508006A5017F01EBF10B50446216801B910BD2046BF
S31508006A60FFF7F0FFF8E70B7910B55B0700D4FEE7F0
S31508006A704B79C3F3410300EB83025468A14209D161
S31508006A800C6A546034B16479C4F341049C421CBF57
S31508006A90002353600368994204BFCB690360CB693E
S31508006AA00BB10A6A1A620B6A0BB1CA69DA6100226B
S31508006AB00B79C1E9072162F382030B7110BD4A798C
S31508006AC070B5C2F3410214460B79061D43F0040360
S31508006AD00B7156F824301BB90134E5B2042DF8D1F0
S31508006AE00B624BB90368CB610160CB6903B11962CC
S31508006AF000EB8200416070BDDC69CC61D961F4E7C6
S31508006B008B894989038099422CBFC3EB0102C3EBE9
S31508006B100302DB4392B29BB2934228BF13464380DB
S31508006B20704743880288994228BF194612FA81F2AB
S31508006B305B1A02804380704700232DE9F3410B60FE
S31508006B40438904460E46002B33D01D4F608988B30F
S31508006B5001282ED06068218978B302236A46FFF798
S31508006B60B1FD6D466B78628903F10208424520D370
S31508006B702A78C2B9042B1CD1606828B106236A4654
S31508006B8004F10801FFF7F5FDD5F8020017F0E3FC5C
S31508006B90FFF7E3FB2B78002B0CBF3B46002318407E
S31508006BA0336803433360414604F10800FFF7B9FF31
S31508006BB0CCE7062002B0BDE8F08125680D44D1E790
S31508006BC000F8FF07084A138803B9FEE748F24E3073
S31508006BD05368A3FB003010EB530044BF20F000407D
S31508006BE001305060704700BF985B0020814210B5A5
S31508006BF0044600D8FEE7FFF7E5FF091BB0FBF1F3F3
S31508006C0003FB1100204410BD10B50446FFF7DAFF58
S31508006C10091BC0B290FBF1F301FB13002044C0B27C
S31508006C2010BD38B50D46814288BF85B26900044655
S31508006C3001310020FFF7DAFF2044401B38BD11233D
S31508006C4013B50F2200210446ADF806305EF0A4F90C
S31508006C500223E3730023224623740520618A0DF17B
S31508006C60060308F096FC0C2800D1FEE7003818BF8A
S31508006C700120207502B010BD10B540B10023441E96
S31508006C8098B2814203D90133E25C002AF8D110BDDB
S31508006C90F7B50F6805460C46817938461646FFF75C
S31508006CA0EBFF814202D0002003B0F0BD0D4B3A46FF
S31508006CB0009328680B46A988FFF767FD0346002856
S31508006CC0F1D02068AA7981182160825CB2FA82F034
S31508006CD04009002EE8D12E2A02BF0131184621604C
S31508006CE0E2E700BF896300080139013811F8012F6E
S31508006CF010F8013F3AB9002B14BF01200220831E69
S31508006D005842584170479A42F0D00020F7E7F0B54C
S31508006D10054606680024062037463B780136303B90
S31508006D20DBB2092B02D92F600C70F0BD04EB84048A
S31508006D3003EB44039CB2A2424FF00000ECD20620BB
S31508006D40F3E7A0F14103052B04D83738C0B2087021
S31508006D5000207047A0F16103052B01D85738F5E7E5
S31508006D603038C0B20928F2D90720704770B50446F2
S31508006D700E46E588134682880068AA4234BFA91AD7
S31508006D800021104432464AF0F1FF002800DAFEE7F7
S31508006D90A388E288184480B2904228BF2368A0805E
S31508006DA022BF9B18002203F8012C204670BD0EB4A2
S31508006DB017B5044605AA52F8041B0192FFF7D6FF39
S31508006DC0204603B0BDE8104003B0704710B504462E
S31508006DD064F0BFFA01462046BDE81040FFF73EBB07
S31508006DE008B54368A3B90B4B5A686AB9586040603E
S31508006DF010F09AFD084B1A7A586842F001021A7286
S31508006E00BDE8084066F000BF5168416050605860B0
S31508006E1008BD00BFC81F00200817002003685A1ABB
S31508006E2011EA220138BF194643685A1A13EA22039F
S31508006E3038BF0B46436070474160024A0146024824
S31508006E40FFF712BABC170708D01F0020002A00DA7D
S31508006E50FEE71144F0E738B50D46044617F058FA30
S31508006E602A4601462046BDE83840EFE7064B074864
S31508006E705A69196A914208BF9A6901F1804104BFAB
S31508006E8001329A61D8E700BFC81F0020E41F00201E
S31508006E908368984203D04368CB1A002B00DACBE705
S31508006EA070470146014A0248FFF7B8B9BC170708F8
S31508006EB0D01F0020D1E9003103F10043013B8B428A
S31508006EC000D0B9E7EDE708B5064B93F8E130042B97
S31508006ED006D10548FFF7E5FFBDE8084042F01CBEAD
S31508006EE008BD00BFC83F0020CC5800204160024AB8
S31508006EF001460248FFF7B8B9C8170708D41F00208B
S31508006F0010B5274C94F8923E033B042B47D8DFE88C
S31508006F1003F0030718140300BDE8104009F0A0BFEA
S31508006F20D4F8A83E987909F0B7FDD4F8A80E0E2231
S31508006F30BDE81040002144F095BFBDE8104009F0B7
S31508006F40BDBFB4F8903E9B0700D5FEE742F0A4FE0D
S31508006F507F2807D094F9A33E7F2B01D0984201DD04
S31508006F6084F8A30E17F0D4F9D4F8A43EC01A002862
S31508006F7006DAD4F8F41E0B488031BDE81040B5E7B0
S31508006F8094F8923E94F9A30E022B1CBF022384F8B0
S31508006F90923E42F0B9FEBDE8104045F093BC10BDE4
S31508006FA0C82F0020B83E00200146024A0248FFF7D3
S31508006FB035B900BFC8170708D41F00204378FF2B30
S31508006FC004D1408840BA80B204307047981C704794
S31508006FD008B50246FFF7F2FF104408BD38B5054666
S31508006FE00C46FFF7EBFF294682B22046BDE838403B
S31508006FF017F09EBEF7B50E461746044602236A46A4
S3150800700039463046FFF7B5FB054680B99DF800308E
S3150800701023709DF80130FF2B0CD0022160700233DB
S315080070203A68C4F80220A288934214D9062528464D
S3150800703003B0F0BD0423394630460DEB0302FFF7D3
S3150800704098FBD8B901236370BDF8063004215BBAF2
S315080070509BB20433E4E79BB2934228BF1346628887
S31508007060A380134472899BB29A42DFD3D4F80230C4
S31508007070A01DC4F80630FFF754FDD8E70546D6E745
S3150800708073B5044601A80D461646FFF739FD29468D
S31508007090204601AAFFF7AEFF38B92378B34205D0D8
S315080070A0A18801A8FFF73DFDF1E7172002B070BDE2
S315080070B0F0B585B0054616460A46014601A81F469C
S315080070C0FFF7DEFF044650B9BDF808203B46B2423A
S315080070D028BF32462846BDF8061048F0CEFE2046A0
S315080070E005B0F0BD1FB514460A46014601A8FFF7CC
S315080070F0C7FF10B9DDF80A30236004B010BDF0B53B
S315080071001746428985B0ADF800101E468A422CBF44
S31508007110C1EB0203C1EB0103C9439BB289B2994291
S3150800712028BF19460546ADF802106A46014601A869
S31508007130FFF760FF044660B9BDF80C203346974256
S3150800714028BF174628463A46BDF80A1048F095FE65
S31508007150F455204605B0F0BDF0B51746428985B00E
S31508007160ADF800101E468A422CBFC1EB0203C1EBE4
S315080071700103C9439BB289B2994228BF19460546FD
S31508007180ADF802106A46014601A8FFF733FF044628
S3150800719060B9BDF80C2096420BD8B2423B4628BFD0
S315080071A032462846BDF80A1048F067FE204605B064
S315080071B0F0BD0624FAE730B585B0044615460A46FA
S315080071C0014601A8FFF75CFF40B901232A4620467D
S315080071D0BDF8061005B0BDE83040BDE705B030BDC6
S315080071E0002213B504468DF80720084663B9102116
S315080071F00DF10702FFF7DFFF0346C0B99DF8072028
S31508007200AAB1FF2A08BF2523002062786FF341023E
S315080072106270D4E9092160620AB11846904741F2C2
S31508007220883104F1180002B0BDE8104013E60623C1
S31508007230EAE730B585B0054614460A46014601A870
S31508007240FFF71EFF50B9022322462846BDF806104E
S31508007250FFF782FF10B923885BBA238005B030BDDB
S315080072607FB5064615460A46014601A8FFF708FFF8
S31508007270044660B904232A463046BDF80610FFF7CF
S315080072806BFF044618B9286817F065F92860204688
S3150800729004B070BD73B5154601AA04461E46FFF72D
S315080072A021FF28B933462A46204601A9FFF761FA85
S315080072B002B070BD38B50446154601448C4202D367
S315080072C00024204638BDA31C9942F9D36378FF2BC6
S315080072D002D1231D9942F3D32046FFF779FE88424F
S315080072E0EED82378AB42ECD00446E7E7042217F041
S315080072F01FBD022217F01CBDFF2B73B505461646A7
S315080073001C4612D18DF805304FF47F438DF80410D2
S3150800731001A9ADF80630FFF7E9FF20B92246314644
S31508007320284617F005FD02B070BD8DF800106946B5
S315080073308DF80130FFF7DDFF0028F4D1002CF2D0DC
S31508007340ECE770B505460E461C46114618460BB1C5
S31508007350FFF792FC22463146C3B22846BDE8704084
S31508007360CAE707B501238DF807200DF10702FFF7D5
S31508007370C3FF03B05DF804FB07B552BAADF80620A3
S3150800738002230DF10602FFF7B7FF03B05DF804FB11
S3150800739037B5044610460D4617F0DDF8042301906C
S315080073A0294620460DEB0302FFF7A6FF03B030BDC2
S315080073B0F0B58FB004A80D46164616F0F2FF4FF248
S315080073C0BF03092130480DF10602ADF832301FF02F
S315080073D051FFA0B940F2013303A8ADF80C300CF008
S315080073E0A3F81D22012107F077FF044638B11221C0
S315080073F0728CFFF7C1FF20B1204617F049FA0FB08B
S31508007400F0BD08231321204606F11802FFF774FF82
S315080074100028F1D11D4E14212046B6F8E420FFF7C6
S31508007420ABFF0028E8D1294603A8FFF769FB4FF60A
S315080074301173BDF80E70ADF8083020467BBA02A964
S31508007440ADF80A30FFF752FF0028D5D13B4629464A
S315080074502046BDF80C2017F0F3FE0028CCD1BDF865
S31508007460065004A825F0A6FE2A4606F53A7108A88D
S3150800747019F082F8214604AAA6F2DC7017F0B0FECD
S315080074800028BCD0B8E700BFE4560020C83F00205B
S3150800749010B590F82430044643B1012B01D1436955
S315080074A083612046A169BDE81040D4E44169B1EB87
S315080074B0510F4FEA510001D9FFF798FB0023A0614D
S315080074C0E38384F82530ECE710B590F824300446B9
S315080074D07BB1012B08D10169C0680131FFF786FB32
S315080074E060612046FFF7D4FF2046236ABDE81040B6
S315080074F0184790F825306BB1012BF5D1426922B1B6
S315080075000369991A8A4298BF530020466361BDE809
S315080075101040BDE7012380F82530D0E90513C91AC4
S31508007520FFF799FCE28BA38B9A42DDD310BD10B509
S31508007530044616F0EDFED4E90031E268C01A9A4214
S3150800754002D10028A8BF013110BD2DE9F3411E461E
S315080075501B4B044683424FF000038B4115460AD263
S3150800756015A3D3E900235CF09BFC16491446024692
S315080075702846FFF71CFC144B4EF66021B4FBF3F2C9
S3150800758003FB1244B4FBF1F34FF47A7801FB13447E
S31508007590B4FBF8F728460D490097FFF708FC46B1F3
S315080075A0284608FB17420A4902B0BDE8F041FFF732
S315080075B0FEBB02B0BDE8F081005C260500000000B5
S315080075C0FF5B26057817070880EE36007E17070842
S315080075D08D17070813B5006850B14AB141B10023A9
S315080075E00068019301AB0AF005FF0EF024FF00B115
S315080075F0FEE702B010BD2DE9F843436C1546134467
S31508007600026C044693420E461AD84FF000084F19EA
S3150800761000F11009B74214D1636C1D44236C6564EC
S315080076209D420BD1B4F850302BB104F1100211462B
S315080076302046FFF7CFFF0023A4F85030BDE8F883B3
S31508007640FEE7B4F85030102B06D14A464946204684
S31508007650FFF7C0FFA4F85080B4F850305A1CA4F8BD
S315080076605020234416F8010B1A7C50401874D1E7B1
S315080076702DE9F04F1D4685B09DF8383091460293A6
S31508007680C36C826C2B4493420446884629D86FF013
S31508007690200B0F46CA466B18019300F12003ABEB8B
S315080076A0000B0393019B9F421CD1E36C1D44A36C02
S315080076B0E5649D426CD3B4F850302BB104F1100246
S315080076C011462046FFF786FF002194F8542002F160
S315080076D021002044C2F10F0205B0BDE8F04F5DF06D
S315080076E05BBCFEE7B4F85220102A16D104F130002C
S315080076F0024694F854600BEB00018E4206DA10F845
S31508007700011D0131C9B201700029F4D02046039940
S31508007710FFF760FF0022A4F85220029B43BB3E7885
S31508007720B9F1000F0AD0B4F85220511CA4F852102F
S31508007730224492F8302072408AF80020B4F850208B
S31508007740102A08D104F1100211462046FFF742FF1D
S315080077500022A4F85020B4F850200137511CA4F890
S3150800776050102244117C0AF1010A4E40167499E71A
S31508007770B4F852209AF80060511CA4F8521022441A
S3150800778092F830205640B8F1000FD7D03E70D5E7B2
S3150800779005B0BDE8F08F38B5D0E912329A420446F2
S315080077A00D4600D0FEE700F1300200F12001FFF798
S315080077B011FF002304F10F0294F855108B4200DBE9
S315080077C038BD12F8011F92F820004140E9540133F0
S315080077D0F2E7006808B528B1034932F02DFC0EF02F
S315080077E02AFE00B1FEE708BD09000002006808B5D8
S315080077F028B121B132F07EFC0EF01DFE00B1FEE785
S3150800780008BD10B586B00446ADF80630084603AB89
S3150800781011460DF10602FEF71EFFBDF810200AB943
S3150800782006B010BD20460399FFF7E0FF03A90DF146
S31508007830060008F04FFFF0E7002307B5006801933C
S3150800784030B1202201AB32F0EDFC0EF0F4FD00B1B0
S31508007850FEE703B05DF804FB73B50C460546462201
S315080078600021A01C5DF098FB2C2305F5805223808F
S31508007870B2F8603604F10801C3F12C036380B2F84C
S31508007880623605F5FF50A38005F5FE56FEF7BBFDEB
S3150800789004F1100106F13400FEF79CFD05F5B3501E
S315080078A004F118011430FEF7AEFD05F5B95004F1E0
S315080078B020011430FEF78EFD05F5055004F1280168
S315080078C00C30FEF787FD05F5C15004F1300108308C
S315080078D0FEF780FD05F5C25069461030FEF77AFDC1
S315080078E0238EBDF8002013442386BDF80220638E3C
S315080078F013446386019A636B1344636302B070BDD5
S315080079001F299DBF0068C84000F00100002070478D
S3150800791010B50B780446FF2B04BF0A230B700B78AF
S315080079200A460133D9B21A29117001D9172010BD98
S315080079302046FFF7E5FF10B90131C9B2F3E7002089
S31508007940F5E7FF2337B5054600248DF807302846A6
S315080079500DF10701FFF7DCFF234601340028F6D0B6
S31508007960D8B203B030BDFF2337B58DF807300368AA
S3150800797005467BB1FFF7E5FF014600B9FEE70020A3
S31508007980FFF742F90DF1070104462846FFF7C0FF45
S3150800799000B91CB99DF8070003B030BD28460DF1A3
S315080079A00701013CFFF7B4FFE4B2F1E7837F024623
S315080079B013F00F0004D0108C022894BF0020012079
S315080079C0704710B504460C30FFF76BFAE37A6FF38D
S315080079D08703E372238B03F08003238310BD0129F9
S315080079E038B50446456832D107F0DCFB237E9A0792
S315080079F002D5642828BF64205B0715D5A022214B31
S31508007A00B0F57A7FB3F87E3E28BF4FF47A705343B9
S31508007A1003F5FA73B3F57A7F06D34FF47A72B3FB9C
S31508007A20F2F3984228BF1846637E0F2B02D9BC286A
S31508007A3028BFBC20A36833F07C4204D0C3F31903E3
S31508007A40984228BF1846002808BF0A20606016F02A
S31508007A505FFC6369014604F10C0098420DD0626828
S31508007A60AA420DD0531A24680A3BE3424CBF0A22A5
S31508007A702146BDE83840FFF7E9B962682160F8E7B2
S31508007A8038BD00BFC82F0020038910B58B420446B5
S31508007A9005D1BDE810404FF4004007F055BE0181FE
S31508007AA04FF4004007F011FE2089BDE8104007F0AA
S31508007AB0FFBA10B5027804465107437817D412075F
S31508007AC001D5F3B110BD002BFCD1B0F8A030FBB145
S31508007AD090F83630082B1CBF082380F83630838E82
S31508007AE01906EFD4BDE810403430FEF7FFBC002B72
S31508007AF0E8D14388D80504D5E16904F1D000FFF739
S31508007B009BF9E17A04F13400BDE8104048F0EAB880
S31508007B1090F84630DA070AD4838EDB0507D594F841
S31508007B203630012BCED0012384F83630CAE708F068
S31508007B3085FF0028C6D1F2E7012342888B4013430C
S31508007B404380437813B9C830FFF74AB9704738B548
S31508007B50037E0546DA0736D51D4C94F85C3E5B076E
S31508007B6031D404F580531B4893F8323200F58672F7
S31508007B7003F00F03072B08BF104616F01DFA10B3C3
S31508007B8005F10C00FFF78DF994F85C2ED0071AD58D
S31508007B9094F85D3E052B10D0B4F85E3E99060CD4D9
S31508007BA0C3F3001383F0010363F34102052104F6CE
S31508007BB05C6084F85C2EFFF7BFFF28460021FFF7BC
S31508007BC00EFF002038BD2846FFF7FBFE0D20F9E71B
S31508007BD0C82F0020D04000200048B8E78C4000207D
S31508007BE008B51C4B93F85D2E012A03D0062A05D04A
S31508007BF03AB3FEE7BDE8084044F0BEBD002083F86E
S31508007C005D0E03F5805393F8DC10CA070ED5C1F351
S31508007C10C302013202F00F0262F3C601042A83F896
S31508007C20DC1007D803F1C400FFF791FFBDE8084050
S31508007C3044F0BCBD93F8DC2060F3C60283F8DC2070
S31508007C40F4E793F85C2E520703D5B3F85E3EDB05DE
S31508007C50ECD408BDC82F002070B50578ED071DD5F2
S31508007C604578012D1CD0468816F0020F18D1022D32
S31508007C7016D0C6F38005760712D48362049B428227
S31508007C80C362FF230374C368002908BF19460B4063
S31508007C9043610221FFF750FF284670BD0D20FCE71F
S31508007CA00520FAE770B50578ED0722D54578012D48
S31508007CB021D0468816F0020F1DD1022D1BD0C6F31F
S31508007CC08005760717D48362049B002AC3624FF0A7
S31508007CD0FF030374C36808BF4FF49672002908BFF0
S31508007CE019460B40428243610121FFF725FF2846CA
S31508007CF070BD0D20FCE70520FAE7002303807047D6
S31508007D002DE9F04FA84C042189B04FF47A70E56C40
S31508007D10FEF787FF291804F14800FFF78DF8636C12
S31508007D20D8072ED5062204F5005696F8C03002FB71
S31508007D30034303F50153203306F16002934240F0F2
S31508007D40E48000254FF0060842F2600996F8C070F4
S31508007D50BD42C0F0E08016F0DBFA944D8046D5F8B7
S31508007D60F41F04A848F0B6F805F6F4790499002932
S31508007D7040F0DF80D5F8F43F1BB917B9384607F04D
S31508007D80D3FD636C990708D5894D95F8E3309A07B2
S31508007D9000F1E280012007F0C7FD636C5D0726D578
S31508007DA04FF00008834FD7F800370493049A002A47
S31508007DB040F0EC820125D7F804370493049A002A88
S31508007DC040F0EF8201254FF07809D7F80C37049375
S31508007DD0049E002E40F0F282D7F80857002D40F096
S31508007DE00983B8F1000F02D1022007F09DFD636CEC
S31508007DF018070AD5002604A804968DF8146019F009
S31508007E00EDFD049D002D40F02083636C990626D570
S31508007E10684D95F89D397BB116F07AFAD5F8A039F0
S31508007E2003F5C333A0331B1A002BBEBF95F8BE3922
S31508007E3043F0010385F8BE3995F8C71995F8C629A0
S31508007E40B5F8C439002940F03A83002A40F049833E
S31508007E50002B40F05283D5F8C40947F026FE636C20
S31508007E605A0620D5534EB6F87C3943B1013B9BB22E
S31508007E70A6F87C391BB906F6781020F0B3F9D6F8BF
S31508007E8078596DB1013DC6F878594DB9022041F0CF
S31508007E9011F94948294620F09FFA284641F074FA14
S31508007EA045481EF0D3FA636CDB0540F13B8300209E
S31508007EB0034605464149A1F2A466CA787AB1013A51
S31508007EC0D2B2CA7032B1086806EB8302C2F8A406B9
S31508007ED0012001330135232D01F10401EDD10021E3
S31508007EE004EB830404F5B5540734222B04DC14F898
S31508007EF0042B002A40F01283002840F01383082040
S31508007F0009B0BDE8F04F07F00FBD11790632013907
S31508007F1002F8021C12E708FB056393F864302BB9D4
S31508007F2018FB0590204408F029FC0FE70135EDB24F
S31508007F300CE78B69A8EB0303B3F5FA6F08D34B7903
S31508007F4048465B0902BF336C01333364FEF77AFD9A
S31508007F5004A816F04EFB09E795F8683313B1013B00
S31508007F6085F8683395F86A333BB1013BDBB285F88F
S31508007F706A3313B912481DF083FF0E4E96F86072E5
S31508007F8037B1013FFFB286F86072B7FA87F77F0903
S31508007F9095F8E130042B00F29280DFE803F00390B5
S31508007FA013718E00FEE700BFC81F0020C82F0020EF
S31508007FB0C83F0020C84F0020405900206C360020DA
S31508007FC0A840002096F80C82002F4AD095F8643312
S31508007FD0434511D96FF0630095F92D111AF057FB37
S31508007FE009281CD83C2303FB0848AE4E08F52A5836
S31508007FF008F10C08B04503D1AB481DF011FF12E09B
S31508008000B37F03F00F03072B07D16FF0630096F9D0
S3150800801025101AF03CFB092801D83C36EAE702216C
S31508008020A2481EF04BF8D5F87C63A14B9E427FF41C
S31508008030B4AEA6F525701EF0A9F89E489E4B9F493A
S31508008040C5E9E0034FF6FF73A5F89033012385F8D9
S315080080509833FEF7CBFDC5F888033046FFF718FAC4
S315080080609BE6B8F1000F2AD095481FF061FB95F8FA
S315080080706333834223D80121924820F095FA09E018
S3150800808096F80C32CBB18E481FF052FB95F8633345
S315080080909842F0D29FB196F80C2295F865339A4229
S315080080A003D90321874820F07FFA80481DF0F8FE9F
S315080080B028B97E481DF030F901E0002FF5D10023DC
S315080080C00493052304A88DF814304FF0010819F01D
S315080080D085FCDDF81090B9F1000F33D13C2396F8F2
S315080080E00C72DFF8C09103FB074707F52A570C37D0
S315080080F0A9F1040AA9F5146B4F4575D100237249F5
S3150800810011F8012F013350B20028C8BF02F1FF321F
S31508008110DBB2C8BF0A703F2BF2D195F8E130042BC9
S315080081200DD167481FF004FB092808D996F85C3278
S31508008130013386F85C3216F0EBF8C6F8580240F0C0
S3150800814051FE2AE699F81E3003F00F03072B39D89B
S3150800815008FA03F313F0C60F06D113F0110F2DD149
S3150800816013F0280706D0FEE74FF47A72D9F8603084
S3150800817002FB03F709F1480019F028FB98B116F03D
S31508008180C7F84FF47A72D9F85430C01AD9F84C3077
S315080081905343984207D399F848306FF3C71389F8C1
S315080081A0483008F023FA16F0B3F8D9F80830C01AA0
S315080081B0B84209D349463D481FF0DCFB04A819F02C
S315080081C0EDFB86E70027D5E795F8E10047F038FB91
S315080081D00028F3D099F81E3003F00F03012BEDD1D8
S315080081E0484649F015F9E9E7B9F81C10B5F8E4204E
S315080081F0914206D116F08CF8C9F8080009F13C0935
S315080082007AE716F085F8D9F80820304BA0EB020873
S31508008210B9F83A20012A82BF02F57F42FE32A9F850
S315080082203A2099F81E20984502F00F0252D999F87B
S315080082303A10072A6FF3000189F83A1050D195F8D9
S31508008240E120022A07D101211D481FF083FA95F87B
S315080082506923824266D3494604A818F01FF91A21F1
S315080082601B4804AA1BF084FA40B999F8392012F081
S315080082700C0F04BF42F0030289F8392099F8392017
S3150800828093072DD0D11C61F3010289F839204FF4E8
S315080082907A7007F00BF9494602460D481BF0A5FA15
S315080082A01EE000BF544A002078420020A840002063
S315080082B03C43002090B20800F09C0900F19C09009C
S315080082C0504A0020C8410020DF5100209F86010047
S315080082D014410020072A03D195F8E120022A32D159
S315080082E099F81E2002F00F02052A2CD1494604A847
S315080082F018F0D4F81A21584604AA1BF039FA10BB0C
S3150800830099F8392012F00C0F18D099F83910C1F3E2
S315080083108102033202F0030262F3830189F83910FD
S31508008320B2B90BE0814A9045DAD9494604A818F053
S31508008330B5F81A217E4804AA1BF075FA49467D4805
S315080083401FF018FB5AE799F8392012F00C0FDCD108
S3150800835095F8E120042A7FF451AF504699F8381071
S315080083601FF08FF900287FF449AF484607F0C4FF8D
S315080083700F287FF643AF704A90457FF63FAFB9F8AE
S315080083801C106E48890A1FF06BFA37E7D37C04A8DD
S315080083903F2B82BFC033D3744FF0010819F0BFF9E1
S315080083A004E5938A33B1013B9BB2938203B91576F0
S315080083B04FF0010804A819F0B2F9FFE4B38A53B1E3
S315080083C0013B9BB2B38223B9737E43B97576A6F88F
S315080083D014904FF0010804A819F0A1F9F8E4F28AFC
S315080083E053080F2B38BF0F239A42F2D0F382782313
S315080083F0B382EEE7AB8A03B9FEE7013B9BB2AB82D9
S31508008400FBB9EB8A4FF00108AB825B009BB2782B75
S3150800841028BF782331464A48EB82A5F8188047F0EA
S31508008420CFFB2946474819F063F90221284609F087
S315080084302BF9002E3FF4D0AC304619F0CFF805469C
S31508008440CCE42E464FF00108F6E7AB7F7F2B32D8F7
S31508008450B5F8A8207AB3B5F8AA3001339BB29A4288
S31508008460A5F8AA3027D8EB8F0296C3F30D03FBB9FC
S315080084700121354A02200AF0CBFF014602A817F06F
S31508008480B3FE029FA7B1314B314AEB1A1B11534376
S3150800849038460DF10601ADF80630FEF72AFF38B961
S315080084A0CDE9020703A80BF077FA039847F0BEFD5B
S315080084B0029847F0BBFD04A819F070FAA1E4013947
S315080084C0C9B285F8C71900297FF4BFAC82B923B1B0
S315080084D0013B9BB2A5F8C439B3B11E48FEF780FC30
S315080084E0B9E4013AD2B285F8C629002AEFD0AFE43A
S315080084F0013AD2B285F8C629E9E7013B9BB2A5F84D
S31508008500C439002B7FF4A7AC95F89D3913B1012324
S3150800851085F89D391048FFF7F0FBDEE704F8041CE0
S315080085200133E2E409B0BDE8F08F00BFEF4902006D
S3150800853014410020A84000208F5F0100504A002007
S31508008540D0560020D4560020DD16070870430020B8
S31508008550A38B2EBA4C5900209259002038B50D46E7
S315080085600468204647F0AEFE35B140F0100080B2F0
S315080085702070000A607038BD20F01000F7E700F49C
S315080085804052B2F5005F034620D148F2400220F47B
S315080085904E5020F03F0090421ED00CD8B0F5446FE4
S315080085A01AD005D8C8B1B0F5046018BF01207047C5
S315080085B0B0F50040F9E703F44C43B3F5404F0BD050
S315080085C04CF64043C01A18BF0120704710F4406F9C
S315080085D014BF0120002070470020704738B5056891
S315080085E00C46284647F06EFEFFF7C9FF40B12846FD
S315080085F047F06AFEFF2803D02B5A0020238038BD97
S315080086000620FCE710B50468204647F05BFEC30564
S3150800861000D5FEE7A07810BD38B505680C46284693
S3150800862047F050FEC30500D5FEE7AC7038BD00F430
S315080086304053B3F5005F04D100F44C43B3F54C4FF7
S3150800864007D0B0F5804F04D380F04000C0F3801007
S31508008650704700207047838810B5032B12D900682D
S3150800866047F030FE80F480720446C2F30021FFF71B
S3150800867086FF48B98A1CC4F38123022B06D0032B34
S3150800868017D02BB1FF2212E00A1DF4E70232D2B24C
S315080086902046FFF7CCFF08B10232D2B2C4F38134C8
S315080086A0022C08D0032C09D0002C18BFFF22104634
S315080086B010BD0832EBE70232D2B2F8E70832FBE720
S315080086C0F8B507680E46384647F0FCFD0546FFF73D
S315080086D0AEFFD0B1384647F0F7FD04462846FFF707
S315080086E04EFF08B10234E4B2C5F38125022D07D046
S315080086F0032D08D0FF2C08D000203B5B3380F8BD43
S315080087000234E4B2F6E70834FBE70620F7E7838885
S3150800871010B5022B044607D9006847F0EEFD18B1DC
S315080087202046BDE8104096E7FF2010BD38B505463F
S315080087300C46FFF7ECFFFF2817BF2B6806201B5CCB
S3150800874000201CBF03F00703237038BD38B5054663
S315080087500C46FFF7DCFFFF2817BF2B6806201B5CBB
S3150800876000201CBF03F01803237038BD38B5054632
S315080087700C46FFF7CCFFFF281FBF431C2A68DBB255
S31508008780D35816BF00200620236038BD38B50546E5
S315080087900C46FFF7BCFFFF2800D1FEE72A68431CFA
S315080087A0D9B2545452FA83F3220A5A70220C240E70
S315080087B09A70DC702B7F43F001032B7738BD00F0ED
S315080087C01800102805D0A0F1180358425841C000D7
S315080087D070470420704708B54307024608D0FFF7DC
S315080087E0EEFF12F0180F0CBF05300630C0B208BDF8
S315080087F0FF20FCE72DE9F04F057B0688B0F80290CC
S3150800880087B0031D012D04460F4646EA090B01935E
S3150800881030D0022D0CBF0322002294F816A04BEA92
S31508008820823BBAF1010F04F10E0825D0BAF1020F06
S315080088302FD0BAF1000F21D1A37F94F82120003B55
S3150800884018BF0123B9F5805F4BEAC30305D0B9F514
S31508008850005F21D0B9F1000F29D145B1BAF1000F57
S3150800886005D0208B618B884208BF43F04003D607AA
S3150800887021D5FEE70222D0E74BF4006B5146E0898A
S3150800888047F064FA0028D7D1022E18BF4BF0200B08
S31508008890D2E74BF4406BF1E7BAF1000F40F0948051
S315080088A0617F002D40F08880002940F09A80D50726
S315080088B048BF43F48073C2F3400243EA42253B684B
S315080088C004A804934FF4FE032946059347F0DDFAFE
S315080088D0E80503D4012104A815F05EFE2846FFF733
S315080088E04EFE18B1618B04A847F0CFFA04A841469A
S315080088F047F0D6FA2846FFF79AFE18B1218B04A846
S3150800890047F0C3FA211D04A847F0CAFABDF8143087
S31508008910BB80A67FA6B1E37F0DF10F011E4304A815
S315080089208DF80F6015F043FE3046FFF754FF411EE1
S3150800893089B204A815F030FE3046FDF7F9FC064664
S3150800894094F8213099070ED5022104A815F024FEC3
S315080089500D2304214370017004A815F01DFE3B7F0A
S3150800896043F008033B77AA0523880ED5032B03D0CB
S3150800897094F821305B0714D4022104A815F00CFEE4
S315080089806FF07F0303703F2343702388032B08D1BE
S3150800899094F820300DF10F0104A88DF80F3015F06A
S315080089A006FE0236B1B204A815F0F6FDBDF814307D
S315080089B0BB8007B0BDE8F08F00297FF478AF217F30
S315080089C000297FF474AF0CE00DB9617FF8E7022D3A
S315080089D002D1BAF1020FF8D0208B618B88427FF45E
S315080089E066AF43F0400362E770B50546FFF733FE0E
S315080089F0FF28044611D02E68304647F07EFC60B149
S31508008A00A9888C420BDA305DFFF7E5FEFF2808D00F
S31508008A100444E4B2A142B8BFFF24204670BDFF2437
S31508008A20FBE70446F9E770B506460D46FFF76FFE05
S31508008A30FF28044609D03268105CFFF7C0FE2244BE
S31508008A400244002053792B7070BD0620FCE770B5F0
S31508008A5006460D46FFF75BFEFF28044600D1FEE7F3
S31508008A603268105CFFF7ABFE22440244557170BDB4
S31508008A7010B50446FFF74BFEFF2806D02368185C9E
S31508008A80FDF756FC0230C0B210BD0220FCE770B5F7
S31508008A900646FFF7A9FFFF2804462CD03568284666
S31508008AA047F010FC83051BD53046FFF7E1FFB18878
S31508008AB0A21C93B210FA82F28A4205EB04061CDC69
S31508008AC02A5D02F07F0213449CB210FA83F399429E
S31508008AD013DB3288C2F3C7127F2A01D09942E7DC3A
S31508008AE02B7803F00703032B05D1284647F0FBFB39
S31508008AF008B90134A4B2E0B270BDFF24FBE738B56B
S31508008B000546FFF7C4FFFF28044614D028680378F3
S31508008B1003F00703032B04D147F0E5FB08B1013442
S31508008B20E4B22846FFF7A4FFAB8804449C42CCBFB6
S31508008B300620002038BD0620FCE710B50446FFF7DE
S31508008B40A6FFFF2816BF23680020C01810BD10B561
S31508008B500446FFF7F2FF2368C01AC0B210BD70B50D
S31508008B6005468688FFF7F3FF04462846FFF780FF89
S31508008B700444301B80B270BD70B506460C46FFF73C
S31508008B80E6FF05463046FFF773FF05442C44B480DC
S31508008B9070BD10B50446006847F094FB830503D5FD
S31508008BA02046BDE810401FE7FF2010BD08B508F0B5
S31508008BB017FA003818BF012008BD08B508F010FAE2
S31508008BC000B1023008BD00232DE9F0419EB00393A1
S31508008BD00AAB08930823044600680D46ADF824300E
S31508008BE047F08BFB002859D020460DF10B01FFF703
S31508008BF09DFD002852D1204603A9FFF7B7FD06467A
S31508008C0000284BD10DF110084346286869689DF87D
S31508008C100B7003C30398194615F0EFFBA3688DF88C
S31508008C201C70196808A847F019F92046FFF720FFB5
S31508008C3005462046FFF78BFF07462046FFF78FFFBE
S31508008C40AB1EDBB20246394608A8CDF8008006F00E
S31508008C50B1F82046FFF77BFF25680246294608A893
S31508008C60FEF7C9FC2046FFF768FF05462046FFF7D2
S31508008C7076FF2A460346294608A80096FEF7F8FC1A
S31508008C802046FFF7F5FEA38825681B1AE91808A8E9
S31508008C90FEF781FD237F43F0100323771EB0BDE85E
S31508008CA0F08100232DE9F041A2B003930EAB0C939B
S31508008CB00823044600680D461646ADF8343047F0DA
S31508008CC01CFB30B120460DF10B01FFF72FFD18B143
S31508008CD0082022B0BDE8F081204603A9FFF746FD2B
S31508008CE00028F5D104AF3B46286869689DF80B80D3
S31508008CF003C30398194615F080FB31680CA88DF854
S31508008D001C8047F0ABF82046FFF7B2FE851E2046CA
S31508008D10FFF71DFF06462046FFF721FFEDB22B465B
S31508008D20024631460CA8009706F044F82046FFF79D
S31508008D300EFF2668024631460CA8FEF75CFC204664
S31508008D40FFF7FBFE06462046FFF709FF012203460A
S31508008D50314600920CA83246FEF78AFC08A90CA8F0
S31508008D60FEF719FD2046FFF783FEA3882668181A22
S31508008D7031182A4608A862F00CFA003818BF0120F4
S31508008D80C000A6E70B6803604B684360037883F06E
S31508008D90020303707047082208B562F0FAF9B0FAC0
S31508008DA080F0400908BD10B5044600680DF0B7FB11
S31508008DB04FF00043236010BDF0B5002787B0044686
S31508008DC000680E46154605970DF0A9FB4FF00043BF
S31508008DD0236010234FF41051CDE90163074A45F487
S31508008DE04073009705A828F003FE0DF024FB00B198
S31508008DF0FEE7059B236007B0F0BD00BF00444004B2
S31508008E0008210DF085BB01F1080313F8012D8B42EB
S31508008E1000F8012BF9D17047F8B507680E463846B1
S31508008E2047F052FA0446384647F04CFA0546FFF72B
S31508008E30A6FB04EB4003DBB2FF2B13D0C5F381205E
S31508008E40022805D0032807D0002300203372F8BD76
S31508008E50FB5A33800123F8E7F9183046FFF7D3FFAA
S31508008E600223F2E70620F2E7F8B507680E46384609
S31508008E7047F028FA0546384647F026FA04462846B3
S31508008E80FFF77DFB08B10234E4B2C5F38123022B58
S31508008E9012D0032B13D02846FFF7C9FB08B10234BA
S31508008EA0E4B2FF2C06D0C5F38135022D09D0032D77
S31508008EB00DD04DB1062009E00234E4B2EBE70834E0
S31508008EC0FBE701253B5B338000203572F8BD304651
S31508008ED03919FFF798FF0225F6E708B5044BC18054
S31508008EE00022186861F0D8FC00B1FEE708BD00BF93
S31508008EF05C14002007B50A68C0F80A204A68C0F85A
S31508008F000E206846FFF77FFF0723094A1DF803105E
S31508008F10013B02F8011BF9D2064B00226946186884
S31508008F2061F0D0FC00B1FEE703B05DF804FB00BFBA
S31508008F30A05B00205C1400202DE9F043044689B0AC
S31508008F40B0F86C600EF0F1FBE36F514AC11A94F861
S31508008F50800000233230A1FB00015AF0A1FFA027B0
S31508008F6094F881307E4303EB830300EB430000F162
S31508008F70C80300F5AE6520467608B54228BF3546D3
S31508008F809E4228BF1E4630F8843BA16F13F080022C
S31508008F9054D0B4F86C305F433944491BFDF7A6FF3B
S31508008FA0A36FD4F874803B44A3673A4B07EB0802D7
S31508008FB01A61A378626713F0FD0F35D094F86E70C6
S31508008FC007F048FD04463448C7F3060907F07F074B
S31508008FD062F0DEF940BB214638460EF083FC0446B3
S31508008FE010BB0121202062F0BDF9FF238DF8043063
S31508008FF00123A5F57A75294807948DF81C30A8EB46
S315080090000503049335443946006801AB04AACDE943
S3150800901002440594069561F02FF840B9204B83F871
S315080090200690204B83F8069009B0BDE8F0832146E8
S31508009030202009B0BDE8F04362F094B994F86E3088
S315080090405FEAD31C0CD062F3C71384F86E30491B51
S31508009050FDF74CFF204609B0BDE8F043FDF746BAD8
S315080090603144B4F86C50FDF741FF94F86E307D43F7
S3150800907043F0800384F86E300BF056FAA26F636FE4
S315080090802A44A267034A2B4463671361E2E700BFD9
S3150800909040420F003C170020400001005C140020ED
S315080090A0A016002070160020004845E7583E00200C
S315080090B0F8B50446B4F86CC090F86E008C45069D69
S315080090C0B4F8706000F07F070CD094F86E0062F375
S315080090D0060084F86E004FF6FF729142A4F87030CD
S315080090E00CD1FEE7974206D062F306009E4284F84A
S315080090F06E00F0D1F8BD9E42E7D1FBE74FF6FD7250
S31508009100934209D815480246C16022F8023B2B68EB
S31508009110C0F802306B68536094F86E30A4F86C108F
S315080091206FF3C71384F86E3004F18400FDF73CFF33
S31508009130B4F86C304BB10EF0F8FA60670BF0F4F93E
S31508009140A0672046BDE8F840F6E623881B06D1D47A
S315080091502046BDE8F840FDF7C9B900BF3C17002016
S3150800916013B590F82030DB0717D590F8212002B9FF
S31508009170827A0B4C343004F58473009330F8121C51
S31508009180B4F82431FFF794FF05F0F0FF04F1E0008E
S3150800919002B0BDE810401AF0FBBA02B010BD00BF1D
S315080091A0C83F002010B504460C30FEF7A9FB00B3F3
S315080091B0A27A8A4205D14FF4804006F0C5FA00200B
S315080091C010BD4FF48040A17206F07FFA04F5B47022
S315080091D0FEF793FD23789B06F1D4A37AE37294F8FD
S315080091E0213013B92046FFF7BBFF2046FEF761FC86
S315080091F0E5E70720E4E71FB590F82030044699070D
S3150800920003F001020ED5418C61B1F2B943F00103B6
S3150800921080F82030FFF7A4FF204604B0BDE81040D0
S31508009220FEF747BC8AB1002294F8203011466FF346
S31508009230000384F8203002AB009304F134004FF6A3
S31508009240FE73CDE90222FFF733FF04B010BD0A46CC
S3150800925090F8FE10FEF72EB8002910B514BF33217A
S315080092600E211446FFF7F3FF38B1D0F80230236019
S31508009270D0F806300020636010BD1720FCE7F8B56B
S31508009280044618300D46FDF70CFE4FF0FF332374E5
S315080092906374A374E37423756375A375E375237206
S315080092A06372A372E37223736373A373E37395F80C
S315080092B0FE30DBB126466378284643F00103637027
S315080092C016F8087B32463946FFF7C6FF28B996E8EE
S315080092D0030004F1100383E8030017B9284606F0D3
S315080092E04BFA2078BDE8F84046F0DCBCF8BD2DE91D
S315080092F0F0410746884603261A4D86B0013E02D13C
S3150800930006B0BDE8F0813B7803BB6B7803F5003304
S31508009310404629780593FFF79AFF044600B342783A
S31508009320F2B1FF2A0CBF042302230344019301234D
S3150800933041F20101029200934FF0004205A828F07D
S3150800934057FB0DF078F8014610B1FEE7AB78DDE77C
S315080093506278FF2A0CBF0420022020445BF01CFE22
S315080093600335CBE7D417070870B50D46C2B00446D7
S31508009370FDF7A6F895F8FE604EBB23784FF0FF314F
S31508009380002B14BF0220012045F02CFA637866F3FF
S31508009390000322466370284612F8081BFFF75CFF95
S315080093A048B14FF0FF3323726372A372E3722373DB
S315080093B06373A373E37314F0ABFF23786060012B28
S315080093C01ED1284642B0BDE8704040F085BA01A8D3
S315080093D046F070FC3246294601A85BF07FFED5F8B8
S315080093E00031204601A941938DF80261FFF77FFFFE
S315080093F0207801A906F0BEF8637843F00103C8E7B0
S3150800940042B070BD70B50C460546C2B001A846F01C
S3150800941051FC94F8FE602146324601A85BF05EFED8
S31508009420D4F80031284601A941938DF80261FFF767
S315080094305EFF287801A906F09DF842B070BD10B508
S3150800944091F8FE200446FF2A09D080F8FE205BF03A
S3150800945045FE14F05DFFC4F80001002010BD07208A
S31508009460FCE72DE9F8430F46984690F8FE40054676
S315080094701646FFF7ECFEC4F1FE040146A4B208F155
S31508009480020918B94C450AD2032021E04378023371
S315080094901C44A4B24C45F7D32846FCF786FF95F83A
S315080094A0FE30B8F1FF0F994405EB030085F8FE90EE
S315080094B0EF5414BF022304234246314680F8018044
S315080094C018445BF00BFE14F023FFC5F800010020DA
S315080094D0BDE8F88313B50446084615F03CF804239E
S315080094E00190342120460DEB0302FFF7BAFF02B0C4
S315080094F010BD10B50446FFF7AAFE014620B1204666
S31508009500BDE81040FCF751BF10BDD0F8020000BA04
S3150800951070472DE9F74F0C460021FE2284F8FE100D
S31508009520037806468B4214BF02200120ADF80420BA
S3150800953001AB224606F02DF80C28054600D1FEE7B9
S31508009540002842D1BDF80430FE2B3DD88146324F63
S3150800955084F8FE3007F1060B3378002B39D197F8DB
S3150800956001A020463978FFF772FE804698B1427806
S315080095708AB1FF2A0CBF0421022101AB01440AF576
S3150800958000300CF084FF38BB98F80120019B9A4202
S3150800959018BF4FF0010903375F45DDD1B9F1000F58
S315080095A003D021463046FFF72DFF3378BBB9332168
S315080095B02046FFF79EFF34212046FFF79AFF14F056
S315080095C0A7FEC4F8000100E01725284603B0BDE849
S315080095D0F08F97F802A0C4E74FF00109DBE73421C2
S315080095E02046FFF734FE07460028EED0FFF78DFF2A
S315080095F00A4B7668984228BF1846804614F088FEBB
S31508009600831B98458ABF361A002006EB0800B91C4A
S3150800961014F0F3FED3E700BFD41707080014730F3E
S3150800962030B50446C3B001A846F044FB01A920465C
S31508009630FFF76FFF054601A92046FFF720FE2846DB
S3150800964043B030BD2DE9F0430546D3B002A814F067
S31508009650A8FEAC6CACB16B6C05F13C069E4210D111
S3150800966061893C233C3989B202AA2046FDF748F8AD
S3150800967014F04EFE0C99401A002805DA3046FDF71C
S31508009680DBFB53B0BDE8F083214605F14800FDF742
S31508009690D9F901220DA92548FFF78EFB0023244F8F
S315080096A011A8C7F84C3E46F005FB152040F090F887
S315080096B00446002834D00322837911A962F30303F0
S315080096C0837107F65850FFF724FF30BB4FF009089F
S315080096D0DFF86890B8F1010814D106212046D7F8BA
S315080096E0F02DFDF755FEC0B92946124846F0F7FB9E
S315080096F02146104B1048009502AA15F041FC002897
S31508009700BFD00AE019F8011B11A8FFF7A0FD20B188
S315080097102146FDF763FC0028DCD0204615F0B8F892
S3150800972000213046FDF797FBABE700BF043E00205B
S31508009730C82F002049970008EC370020DA170708D9
S3150800974000487FE7745800207CE770B50C4605464C
S31508009750C2B001A846F0AEFAFF22002120465BF00F
S315080097601BFC284601A9FFF7D4FE054640B99DF81B
S3150800977002612046324601A95BF0B0FC84F8FE601F
S31508009780284642B070BD70B504464FF0FF352646F0
S31508009790437805746FF30003437045748574C57484
S315080097A0057545758575C575057245728572C572E7
S315080097B0057345738573C573FCF782FE16F8183B67
S315080097C02946002B14BF0220012045F00BF830462D
S315080097D0FDF767FB2378012B02D10448FDF761FBEF
S315080097E02078BDE8704046F05DBA00BF783D00209D
S315080097F038B515463FF03CFD044650B101462A46A9
S31508009800044815F0EDFC20B12046BDE8384015F0B7
S315080098103FB838BDEC370020024690F8403030B5E6
S31508009820C4189442154606D1402B08D05A1C80F815
S315080098304020C15403E02D7801328D42F1D130BD6C
S315080098402DE9F0419CB0804601A80C461F461646F5
S31508009850229D14F0A6FD4FF2BF03ADF82630002373
S315080098608DF86C3023781BB10E210BA8FFF7D4FFB7
S3150800987063781BB133210BA8FFF7CEFFA3781BB182
S3150800988005210BA8FFF7C8FFE3781BB103210BA836
S31508009890FFF7C2FF23791BB102210BA8FFF7BCFF14
S315080098A063791BB107210BA8FFF7B6FFA3791BB194
S315080098B034210BA8FFF7B0FFE3791BB101210BA8F0
S315080098C0FFF7AAFF237A1BB100210BA8FFF7A4FF15
S315080098D0237B1BB14A210BA8FFF79EFF637A1BB1B6
S315080098E004210BA8FFF798FFA37A1BB10C210BA83C
S315080098F0FFF792FFE37A1BB135210BA8FFF78CFF20
S315080099003744BE421BD198F80030002B14BF1A20EA
S315080099100B203FF05DFF064670B39DF86C30A3B987
S3150800992001A823F04DFCDDB93146144801AA15F00B
S3150800993057FC044680B920461CB0BDE8F08116F8ED
S31508009940011B0BA8FFF768FFDBE70D210BAAFDF744
S31508009950D3FC04460028E3D0304614F099FFEAE722
S315080099602B4605AC1035224618685968083303C2D9
S31508009970AB421446F7D1D7E70324DCE7EC370020DF
S3150800998030B50446C3B001A846F094F9204601A9AB
S31508009990FFF7BFFD044668B9074D15F8011B01A876
S315080099A0FFF755FC20B10134E4B2052CF5D10120AE
S315080099B043B030BD0020FBE7E217070810B50C4698
S315080099C00E21FFF744FC38B1D0F802302360D0F8F6
S315080099D006300020636010BD1720FCE710B50C4662
S315080099E00521FFF734FC50B12146831C123053F889
S315080099F0042B834241F8042BF9D1002010BD17200F
S31508009A00FCE7082208B561F0C4FBB0FA80F040090B
S31508009A1008BD38B504460D46FFF7F3FF28B1BDE883
S31508009A2038404FF4003005F08FBE2B684FF40030F5
S31508009A3023606B686360BDE8384005F046BE90F861
S31508009A40523007B5DB0704D5B0F8500003B05DF80F
S31508009A5004FB122106480DF106021DF00BFC18B195
S31508009A604FF47A73ADF80630BDF80600EEE700BF8E
S31508009A70E4560020F8B5164F044697F8E3309B07DE
S31508009A8025D53FF0E7FCA58AA8B12046FFF7D7FF02
S31508009A900646E5B904340221204617F07BFD314617
S31508009AA020461BF0ABF832462946A7F21A20BDE835
S31508009AB0F84016F0BDBE55B12A46A7F21A20012174
S31508009AC016F0B6FE201DBDE8F84017F023BDF8BD18
S31508009AD0C83F0020F0B50546007840B30A88C6009E
S31508009AE0F6B2B2FBF6F3012706FB1322431EDCB2DD
S31508009AF0C2F3C403E31A55FA83F35B7802F007024C
S31508009B0007FA02F213EA020011D04B88B3FBF6F209
S31508009B1006FB1233C3F3C402A41A55FA84F003F001
S31508009B2007039F4043783B4214BF01200020F0BD45
S31508009B3041F2210337B50C460546014601A80193B3
S31508009B403FF0BCFD48F205032080294601A8019391
S31508009B503FF0B4FD608003B030BD002373B5CDE996
S31508009B600033037A5A1E3F2A1FD8D0E900460DF162
S31508009B7007051A462846072A18D8DD08C5EB4512F0
S31508009B8003EBC20313F0FF020AD00123401B9340E4
S31508009B90DBB202785D42013B2A402340134303703F
S31508009BA06846FFF7C5FF02B070BDFEE705F8014934
S31508009BB0083A240A44EA0664D2B2360ADBE730B524
S31508009BC00546C3B008A80C4646F0DCF808A8FDF719
S31508009BD000FE0822294608A8FDF708FE694608A8D7
S31508009BE0FDF72AFE6B4603CB20602378616043F0BD
S31508009BF00203237008A846F0BBF843B030BD2DE930
S31508009C00F04704469946254B8CB0186890469A88C2
S31508009C109B79029020460F460DF1080AADF80C20F4
S31508009C208DF80E30FDF7D2F8A8B34FF480712046B0
S31508009C30FDF722F8064611213846FDF71DF8B31F31
S31508009C409BB2F92BC5B226D8102D24D81022002194
S31508009C500DF11E005BF0A0F99AE80300D8F8003071
S31508009C602A46CDF81630D8F804300490ADF814100A
S31508009C700DF11E003946CDF81A305BF02FFA314641
S31508009C802046CDF8009005F10E0304AA08F034FE2C
S31508009C900CB0BDE8F0870720FAE700BF971707085A
S31508009CA013B50446684618F045F9638861785BBAC7
S31508009CB00229ADF8003000D1FEE7227903294FEAE0
S31508009CC0D213C2F3801043F0800343EA4003C2F381
S31508009CD0401043EA8003C2F3001043EAC00382F04F
S31508009CE00400C0F3800043EA001382F002006FEA22
S31508009CF00202C0F3400002F0010243EA401343EABD
S31508009D008213BDF8022022F47F6222F00F0243EA92
S31508009D100203ADF8023011D0617923F4786381F03B
S31508009D20400001F08002C0F3801042EA002201F0F0
S31508009D30070142EA41221343ADF802300020009B96
S31508009D409AB262F30F001B0C63F31F4002B010BDFA
S31508009D501FB500230293ADF80C30831C019343789A
S31508009D6001A8ADF80E30FCF7E7FE05B05DF804FB78
S31508009D70F7B590F8FE300546FF2B00EB03065CD1DD
S31508009D80062003B0F0BD6178FF29F9D0A71CBE42B2
S31508009D90F6D32046FDF71CF98642F1D323780E2B1D
S31508009DA00BD80E2B10D8DFE803F0213E442E424292
S31508009DB00F440F0F0F0F340F4400352B2CD013D838
S31508009DC0332B36D0342B36D0611B2846227889B2FD
S31508009DD0FDF770FA0028D3D12046FDF7F9F80446B6
S31508009DE0B442D0D30020CCE74A2BEDD10229C7D9FB
S31508009DF0A378002BC4D1B4F803305BBA0B3B9BB2F3
S31508009E000F2BE1D9BCE73846FCF728FB0028DBD145
S31508009E10B6E70229D8D8B3E7204601A9FFF798FF85
S31508009E200028D1D0ACE702239942CDD2A8E7102367
S31508009E30FAE70823F8E70423F6E70446D0E730B53F
S31508009E4085B00C466A4635210546FDF74BF938B903
S31508009E50009BCDE90105214601A80393FCF76CFE9A
S31508009E6005B030BD002310B5044683710848084084
S31508009E7058B1237004236370FCF76FFA14F06BFB78
S31508009E800623C4F80200A37110BD002AF1D1FBE72E
S31508009E9000F8FF0791F8783073B505460C465BB1B4
S31508009EA06846FCF7C9FA08236A460E212846FFF7D2
S31508009EB0D8FA002840F00F8194F879306BB16846DB
S31508009EC004F11001FCF7B8FA08236A46332128463C
S31508009ED0FFF7C7FA002840F0FE8094F87E30002B82
S31508009EE040F0F28094F880307BB10021B4F85A3003
S31508009EF06A465BBAADF80130284603238DF8001090
S31508009F00FFF7AFFA002840F0E68094F8843083B172
S31508009F100022B4F85C308DF800205BBAADF8013049
S31508009F206A4603234A212846FFF79BFA002840F091
S31508009F30D28094F8833073B100226846616FFFF7C8
S31508009F4091FF6A46352128469DF80630FFF789FABB
S31508009F50002840F0C08094F87C30002B40F0BD808B
S31508009F6094F87D304BB108230721284604F14902AD
S31508009F70FFF777FA002840F0AE8094F87A304BB1B4
S31508009F8010230521284604F12002FFF76AFA002863
S31508009F9040F0A18094F87B3073B104F130061121AA
S31508009FA03046FCF769FE3246C3B203212846FFF75E
S31508009FB058FA002840F08F8094F87F3063B1B4F8DF
S31508009FC058306A465BBAADF80030012102232846AC
S31508009FD0FFF747FA00287ED194F8813043B1102361
S31508009FE00421284604F15E02FFF73BFA002872D1E5
S31508009FF094F88230002B65D040F20C43ADF800305F
S3150800A000B4F86E305BBAADF802300023ADF8043010
S3150800A01094F87030DE0744BF80228DF80420980734
S3150800A02042BF9DF8042042F040028DF804205907EB
S3150800A03042BF9DF8042042F020028DF804201A073A
S3150800A04042BF9DF8042042F010028DF80420DE0677
S3150800A0505EBF9DF8042042F004028DF8042098069D
S3150800A06058BF9DF8042028465CBF42F002028DF8CE
S3150800A0700420590658BF9DF804204FF00C015CBF18
S3150800A08042F001028DF80420DB091CBF80238DF8FD
S3150800A090053094F87130DA075EBF9DF8052042F066
S3150800A0A040028DF80520C3F342029DF8053013439C
S3150800A0B043F038038DF805300DF102020423FFF74B
S3150800A0C0D0F940B9002006E02846616DFFF702FA8C
S3150800A0D000283FF407AF02B070BD082302212846C6
S3150800A0E004F14102FFF7BDF900283FF439AFF2E762
S3150800A0F0F0B5C3B00F46054601A81C46164645F0FE
S3150800A100D9FD0023394601A88DF80231FFF7C2FEB2
S3150800A1109DF802012318FE2B15D801AB22463146BD
S3150800A12018445AF0DBFF9DF8023128461C4401A961
S3150800A1308DF80241FCF7E8F918B9489B6B62499B10
S3150800A140AB6243B0F0BD0320FBE7034608461A7925
S3150800A15019685AF0C3BF08B50279006861F019F8A2
S3150800A160B0FA80F0400908BD73B56E46054603C9C6
S3150800A17086E803009DF80410FCF77EFDC4B2102C97
S3150800A18010D8294630468DF80440FFF7E4FF08B199
S3150800A1902B5D4BB130462946FFF7D7FF00202855DF
S3150800A1A002B070BD0720FBE71820F9E7112313B5A5
S3150800A1B00446084600918DF80430FCF707FE28B1DE
S3150800A1C069462046FFF7D0FF02B010BD0720FBE71F
S3150800A1D04FF6FF720388934208D1D0F80220013265
S3150800A1E004D1C088C01A18BF0120704701207047E3
S3150800A1F010B50446D0F8020014F0ADF9218849BA22
S3150800A20089B210BD73B50C46064688220021204641
S3150800A2105AF0C2FE354696F8FE3033449D4201D3C5
S3150800A22002B070BD2B780E2B0BD80E2B10D8DFE89A
S3150800A23003F030854D749E650F590F0F0F0FAD0F44
S3150800A2401F00352B2ED008D8332B7FD0342B35D092
S3150800A2502846FCF7BDFE0546DDE74A2BF8D1012264
S3150800A260B5F8033084F884205BBAA4F85C30EFE7CD
S3150800A2700123A81C84F87830FFF7BAFFC4E9000167
S3150800A2802B895BBAC3F34E0203F001032281A37242
S3150800A290DEE70122B5F8033084F880205BBAA4F81B
S3150800A2A05A30D5E769462846FFF752FD0028CFD130
S3150800A2B0012384F88330009B6367C9E72846FFF7C4
S3150800A2C024F90123606584F87E30C1E7012384F808
S3150800A2D07C30D5F80230C4F84130D5F80630C4F8D9
S3150800A2E04530B5E7012384F87D30D5F80230C4F847
S3150800A2F04930D5F80630C4F84D30A9E7012304F1F2
S3150800A300200284F87A3005F11201AB1C53F8040BCD
S3150800A3108B4242F8040BF9D19AE7012384F87B3083
S3150800A3206B78AA1C102B28BF1023694604F130004D
S3150800A33000928DF80430FFF717FF89E701226B8832
S3150800A34084F87F205BBAA4F8583081E70123A81C5B
S3150800A35084F87930FFF74CFFC4E904012B895BBA0E
S3150800A360C3F34E0203F001032283A37670E70123A9
S3150800A37004F15E0284F8813005F11201AB1C53F832
S3150800A380040B8B4242F8040BF9D161E72846FFF724
S3150800A39087FC0123009084F88230C4F86E0057E7E2
S3150800A3A030B50D460446C3B001A845F083FC8822A3
S3150800A3B0002128465AF0F0FD204601A9FFF7A9F822
S3150800A3C0044618B9294601A8FFF71CFF204643B0E2
S3150800A3D030BDF8B50C460546FFF7FAFE014620469D
S3150800A3E0FFF7F6FE81422CD12846FFF701FF074604
S3150800A3F020460E46FFF7FCFE8E4208BF874204D071
S3150800A400B842B1410ED20120F8BDEB885BBAC3F35E
S3150800A4104E0299B2E3885BBA98B2C3F34E039A42E6
S3150800A42003D0F0D84FF0FF30EEE701F0010300F05B
S3150800A4300102934207D0002B0CBF4FF0FF300120DA
S3150800A440E2E70029F8E70020DEE72DE9F04180463B
S3150800A4500E4618F8105B044629461746304642460B
S3150800A460FEF7FAFE0543EDB28DB1404604F1080148
S3150800A470FFF7AFFF002811DD31462046FEF774FFCF
S3150800A4803FF0C4FA207845F00DFC002004E0304681
S3150800A49005F072F90028E8D0BDE8F081002FEBD16D
S3150800A4A00028EFD041F2883104F11800FCF7D3FCFC
S3150800A4B0E8E770B500F1080604460D46C4B0314613
S3150800A4C01030FFF786FF002821DA237883B903A81E
S3150800A4D045F0F0FB03A90F48FFF71BF801A903A8ED
S3150800A4E0FFF76CFA20B9314601A8FFF772FF70B181
S3150800A4F029462046FCF708F8032808D141F2883196
S3150800A50004F1180044B0BDE87040FCF7A4BC44B0A0
S3150800A51070BD00BF4C3D002043789B0706D4044B12
S3150800A52093F8E130023B012B00D8C2E7704700BF21
S3150800A530C83F002038B504460D46FEF715FF104BF8
S3150800A54093F8E130032B07D8012B13D86BB1207889
S3150800A550BDE8384045F0A6BB042BF8D1294620466D
S3150800A560FEF78DFE3FF052FAF1E729462046FEF740
S3150800A57086FEECE729462046FFF7CEFFE7E700BF51
S3150800A580C83F002030B5C3B004460D4601A845F0C3
S3150800A59091FB0023294601A88DF80231FFF77AFCC2
S3150800A5A0204601A9FFF7C6FF43B030BD30B50C46BB
S3150800A5B0C3B0054601A845F07DFB214601A8FEF774
S3150800A5C03EFF18B10724204643B030BD01A8FFF767
S3150800A5D0CFFB04460028F5D1284601A9FFF7AAFFB4
S3150800A5E0F1E710B50446C2B001A845F063FB204662
S3150800A5F001A9FEF78EFF18B9204601A9FFF78CFFBF
S3150800A60042B010BD0048ECE74C3D00200048E8E7A2
S3150800A610203D00208378028803B90902114489B2D3
S3150800A6208A4284BF013189B283F0010301808370B5
S3150800A630704738B50C468D18AC4200D138BD14F8B1
S3150800A640011BFFF7E7FFF7E70223FCF7D5B84189B7
S3150800A650FCF770B90246402308460021FCF750B8BB
S3150800A66030B5054691B008463FF08AFA04460146D9
S3150800A67005F13C00FCF7CCF90CB911B030BD6846C1
S3150800A6802146FFF7E7FF0F9808B114F001F92046B5
S3150800A69014F0FEF80E9CEFE770B590B006460C462F
S3150800A6A0684649681546FFF7D5FFDDE901329DF88A
S3150800A6B00010062909D8DFE801F00404040404049C
S3150800A6C0040013B12146284698473046616810B001
S3150800A6D0BDE87040C4E770B50E4688B00446154616
S3150800A6E00021202268465AF057FC30463FF048FAC7
S3150800A6F0044B2A46CDE9003069462046FFF7CCFFD1
S3150800A70008B070BDC81F0020F0B50F46154689B0C1
S3150800A71020220021044668461E465AF03DFC39466A
S3150800A7202A4668463EF0C8FA0396014630B16B469B
S3150800A7302A462046FFF7E8FF09B0F0BD02466946FB
S3150800A7402046FFF7A9FFF7E730B593B00D46C16B72
S3150800A750684645F0BFFB009C14B9204613B030BDCF
S3150800A760214602A8FFF776FFBDF80A30AB42F4D0BF
S3150800A770109C002CF4D1684613F03BFFEBE7F8B5C4
S3150800A780044617460D4631B90FCF0FC497E80F0098
S3150800A79084E80F00F8BD06460FCD0FC695E80F00F2
S3150800A7A086E80F00204615F058FE48B13B4622467B
S3150800A7B007F1100153F8040B8B4242F8040BF9D148
S3150800A7C0238A0BB93B8A238263690BB97B69636168
S3150800A7D0237E0BB93B7E2376637E0BB97B7E63763D
S3150800A7E0A37E0BB9BB7EA376E37E0BB9FB7EE3762D
S3150800A7F0237F002BCED13B7F2377CBE738B50446A2
S3150800A800E56B2DB9201D16F085FE84F8A15038BDDC
S3150800A8100B2229462046FFF75EFFF1E7F8B500252B
S3150800A820044600F5405700F50350012187F8C45B3C
S3150800A83020301AF01FFD04F5BA50083022F040FB0C
S3150800A84004F5805393F85C2E04F5F45665F300027C
S3150800A850103683F85C2E304645F050FA04F5EF5072
S3150800A8600C3017F02BFD164B164D93F8C43BA3B1CD
S3150800A8702B692A7D013B2B617AB173B9124A92F88A
S3150800A880341041B182F83430AB69013BAB6113B97E
S3150800A890D36B5B68984700232B75304645F02EFA34
S3150800A8A0D7F8480A45F060FA04F5CA500C30FFF7A5
S3150800A8B0A5FF2B8803B9FEE7013B2B80F8BD00BF37
S3150800A8C0C84F0020985B00208814002010B590F827
S3150800A8D030200B4682B1013AD2B280F8302000EB24
S3150800A8E00210814207D000F1100250F8041B904272
S3150800A8F043F8041BF9D110BD144603CC102C18607C
S3150800A9005960224603F10803F6D1FFDE00230360EF
S3150800A9104360836070472DE9F04315468FB0804643
S3150800A92001A89946FFF7F2FF04A80F4613F039FD70
S3150800A93095F83030013385F8303013F0E9FC6B6A4E
S3150800A9400344EB606B88002B50D1022101A80BF061
S3150800A950DFFD0446002840F0A180BDF80410002958
S3150800A960F3D049BA404689B2FFF7EEFE0028ECD18B
S3150800A970BDF804305BBA6B809DF8063095F829203F
S3150800A98003F00703012A8DF8063004BF43F00103DC
S3150800A9908DF806302B780820032B14BF4FF48073EC
S3150800A9A04FF400734749ADF8083008F0B8FD06467D
S3150800A9B0002800F085800C2201A914F0B9F9044694
S3150800A9C0002851D17B894022403B394630469BB20C
S3150800A9D014F036FC0446002846D12B78062B09D8F5
S3150800A9E0DFE803F02D23252727292B005BBAADF8CE
S3150800A9F00430C1E700235BBAADF800304FF480732A
S3150800AA0069463046ADF80230FCF770FC044658BB80
S3150800AA102B78032B15D0B28973899B1A95F82C20AD
S3150800AA209BB2022A24D107241EE00123E3E70C2364
S3150800AA30E1E72123DFE71023DDE76B8EDBE71C2345
S3150800AA40D9E77B894022403B394630469BB214F011
S3150800AA50F7FB044640B91C4B694630460093FCF7A1
S3150800AA6045FC04460028D6D0304613F011FF15E001
S3150800AA70B3F5007FD7D808AC05F110030FCB84E8EF
S3150800AA800F002B8C3246ADF83230104804AB08F173
S3150800AA90040119F0C9FA04460028E5D1B9F1000FF6
S3150800AAA004D0E96808F14400FCF7F2F93846402377
S3150800AAB02A460021FBF7A0FE20460FB0BDE8F0832A
S3150800AAC00324EBE7DD1607080010000160360020B6
S3150800AAD02DE9F0479946838A88B006460C46904683
S3150800AAE09DF840A05BB10B78012B0FD191F82A3065
S3150800AAF0012B06D1264802A91EF03DFB30B10D25D3
S3150800AB0000E00725284608B0BDE8F0874A464146D2
S3150800AB10204601AB3EF02CFD05460028F2D1019FE8
S3150800AB2006F13C00394612F0BFF8012322463946A1
S3150800AB303046FFF7F0FE054620B139463046FFF7A6
S3150800AB408FFDDFE7BAF1070FDCD0608084F83000AC
S3150800AB504A464146204684F800A0676302AB3EF0A9
S3150800AB6007FD0028CED1DDF808802246012341469C
S3150800AB703046FFF7D0FE39462046FFF76BFD4023E7
S3150800AB80224629463846C4F83880FBF735FEB9E729
S3150800AB90E4560020402200215AF0FEB938B50D4689
S3150800ABA040210446FCF768F82A46C1B22046BDE8AB
S3150800ABB03840FBF7E7BC2DE9F0418846054688B1E1
S3150800ABC000242046A3B2EF5C1FB12E2F01D001341A
S3150800ABD0F8E7231A13F0FF01A6B206D117B196B902
S3150800ABE06B7883B90020BDE8F081FD2E0BD842466C
S3150800ABF02844FBF7C7FC0028F5D10136B0B201346A
S3150800AC00002FDFD1EEE70720EDE7002307B50DF1AA
S3150800AC1007018DF8073014F0EBFA03B05DF804FB72
S3150800AC200346B3F5404F07B5084600D3FEE76FEA7B
S3150800AC3083436FEA93430DF106015BBAADF806301C
S3150800AC40FCF757FB03B05DF804FB10B50C46FFF79D
S3150800AC50B2FF18B92046BDE81040D6E710BD1FB5AB
S3150800AC6000220C460B880090ADF80830ADF80A2093
S3150800AC70ADF80C306846FBF79DFC0028FAD017287B
S3150800AC8002BF0020BDF80A30238004B010BD2DE9AC
S3150800AC90F04313680D468FB0002B31D00A88002187
S3150800ACA0ADF83020ADF834201A7806932E2A0A908B
S3150800ACB0ADF8321011D001260AA8FBF77BFC044632
S3150800ACC0A8B117280FD126B1069B1B78002B08BF01
S3150800ACD00024BDF832302B8005E05A1C5B780692BA
S3150800ACE0002BE8D0072420460FB0BDE8F083002EDD
S3150800ACF0E2D0024606A90AA8FBF7CAFF0646DBE722
S3150800AD005668002E59D00A96012612890988069097
S3150800AD10ADF82010ADF82230ADF82410ADF830208B
S3150800AD20ADF83230ADF8342006A8FBF743FC0446EC
S3150800AD3058B11728D7D12EB10AA8FBF73BFC17281C
S3150800AD4008BF0024BDF82230C5E7002EECD00AA8BB
S3150800AD50FBF730FC26460028E6D19DF81E309DF804
S3150800AD602E409C42E0D1BDF81C10069803AB0DF1AD
S3150800AD700A02DDF82880BDF82C60ADF80A40FBF71A
S3150800AD806AFCDFF84090BDF8107047B13B46314683
S3150800AD904046039ACDF80090FBF7F7FC18B9B4FAC9
S3150800ADA084F67609C0E73E44E41B03A90DF10A00C0
S3150800ADB0B6B2A4B205F08EFCE5E70FB0BDE8F043E5
S3150800ADC04DE700BF896300082DE9F04F064688461F
S3150800ADD0144687B01D460B88BDF844A0BDF84CB094
S3150800ADE0ADF80A30FCB13046109A0DF10A01FFF7AA
S3150800ADF04EFFB0B1172817D10027BDF80A90314683
S3150800AE004A4603A815F08FF970B9013CA4B2C7B930
S3150800AE10BDF8143009F10A025BBA1A44ADF80A20E3
S3150800AE20E0E70127E9E7172007B0BDE8F08F129B96
S3150800AE300A371B89013D5BBA1F44ADB2ADF80A70EB
S3150800AE40D0E752463046129BCDF800B00DF10A0104
S3150800AE50BDF80A70FBF75FFC1728C3D00028E3D1BA
S3150800AE60002DE4D1BDF80A30A8F80030DCE72DE95A
S3150800AE70F0471E6B054617461C4688B0002E3CD187
S3150800AE809B6A002B39D08068002836D0002936D135
S3150800AE902B8A6A8AADF812300A21002384F82E30EC
S3150800AEA0039105A902911021CDE900710DF1120156
S3150800AEB0FFF78AFF00283CD1BDF81C80A38D98FABD
S3150800AEC098F81FFA88F7D4F82890BDF812A0BB4264
S3150800AED028BF3B464A465146A868FBF711FC30BBDB
S3150800AEE0A38DBA44BB42ADF812A00DD2012384F853
S3150800AEF02E30069813F02FFB206300200CE02B8BD6
S3150800AF006A8BADF81230C7E7A4F82C80B3B29F421B
S3150800AF1005D80028EDD0062008B0BDE8F08718B996
S3150800AF2019F806000136F1E70138C0B2FAE7032836
S3150800AF30DCD01728E1D0EFE72DE9F04304460F46A9
S3150800AF40154628264FF00A0889B00DF114092FBBBB
S3150800AF50238A628AADF812300523CDE90298CDE935
S3150800AF6000530DF112010023A068FFF72DFF1728E3
S3150800AF7019D080B9A368BDF81220C5E900032A8153
S3150800AF8018460DF11201FFF76AFE20B9013EB6B266
S3150800AF90002EDCD1062009B0BDE8F083238B628B36
S3150800AFA0ADF81230D8E70020F5E72DE9F04105465F
S3150800AFB0984690B0AB6806AE0F4607CA86E8070003
S3150800AFC0002B33D0324639462846FFF7B5FF0446EC
S3150800AFD018BB37BB2B8A6A8AADF816301A23039337
S3150800AFE009AB02931C23CDE900630DF11601434614
S3150800AFF0A868FFF7E9FE044678B9169A0DF12E03FC
S3150800B0000DF13E0153F8040B8B4242F8040BF9D1BB
S3150800B0100A9813F0A0FA179B1860204610B0BDE8EE
S3150800B020F0812B8B6A8BADF81630D7E71724F4E737
S3150800B0302DE9F047994600230F464168A6B0CDE9A9
S3150800B04006314023054616A89046ADF82030FFF78E
S3150800B05001FB9DF858A0BAF1010F02D0297F0029FB
S3150800B0604CD0286810A900F55C501C301EF083F8F7
S3150800B070002841D106AB93E80700AB68BAF1010492
S3150800B08009AE18BF012486E8070023B9172420460D
S3150800B09026B0BDE8F087214632462846FFF74CFF22
S3150800B0A004460028F3D1BAF1010F0BBF2B8A2B8B6C
S3150800B0B0ADF81630ADF816304FF00E030CBF6A8A9D
S3150800B0C06A8B03930CAB02930123CDE900630DF160
S3150800B0D016013B46A868FFF777FE04460028D6D136
S3150800B0E040460DF13A0210A919F068FD0D9813F0C3
S3150800B0F032FAC9F80000CAE70D24C8E73B462846D5
S3150800B100CDE9008906AAFFF750FF0446BFE7F0B568
S3150800B1101746002285B01D460B88009068460C46E7
S3150800B120ADF80830ADF80A20ADF80C30FBF742FA56
S3150800B13088B99DF806602B78B3420ED933463A464D
S3150800B140BDF804100098FBF7DBFA20B9BDF8083003
S3150800B150B8552E70238005B0F0BD0320FBE7F0B587
S3150800B160164600221F4643688DB0CDE909234023C1
S3150800B17004468068ADF82C3000283CD0238AADF808
S3150800B18016300A23039306AB02930C23019309ABEB
S3150800B1900093628A0B460DF11601FFF715FEC0B93A
S3150800B1A0A5680DF1160128468DF81570BDF81670BC
S3150800B1B0FFF755FD68B9BDF82040A7F10A039BB211
S3150800B1C064BA13FA84F4BDF816300A34A34202D9D5
S3150800B1D006200DB0F0BD324628460DF115030DF1D7
S3150800B1E01601ADF81670FFF792FF0028F1D16B89AA
S3150800B1F09C42EED9ECE71720EBE72DE9FF41144610
S3150800B20000220F464FF001081D460B880090ADF846
S3150800B2100830ADF80A20ADF80C306846FBF7CAF9D5
S3150800B22020B1172831D004B0BDE8F081B8F1000F7D
S3150800B23004D12E23013D04F8013BADB2402D2B4627
S3150800B24028BF40239DF80660DBB2B34201D803202D
S3150800B250E9E733462246BDF804100098FBF750FA92
S3150800B2600028E0D1A219A055B8F1000F03D1013C7E
S3150800B27014F8013F2BB9AE1B14464FF00008B5B2BF
S3150800B280CBE72E2BF4D10620CDE72E23012D2370F4
S3150800B290DDD00020BDF80A3060703B80C3E7F0B50A
S3150800B2A01C4600238DB0CDE90533ADF81C30236864
S3150800B2B00546164613B100200DB0F0BD806800287B
S3150800B2C065D0002956D12B8A6A8AADF81230102328
S3150800B2D0039308AB029321230DF11201CDE9006314
S3150800B2E00023FFF771FD0028E6D1099813F033F91A
S3150800B2F0BDF82E30AF685BBAA380BDF82A30BDF81A
S3150800B30012605BBAE380BDF82C30E2685BBA206055
S3150800B31023810697ADF81C608AB33846238A0DF157
S3150800B3201201FFF76AFF0028C6D1BDF82820A6F14A
S3150800B330100352BA92B212FA83F3BDF812200A33F6
S3150800B3409A4226D87A89934223D8ADF8123004F166
S3150800B3501206304615F081F80028ACD024340023B4
S3150800B36001212846CDE9006405AAFFF71EFE172825
S3150800B370A2D1A0E72B8B6A8BADF81230A7E7384627
S3150800B3800DF11201FFF76BFC0028E0D094E71720B7
S3150800B39092E7062090E72DE9F0410C46E8B0002137
S3150800B3A00646154603A8202259F0F6FD214618A898
S3150800B3B0FFF750F99DF86030033B012B4CD89DF8F8
S3150800B3C09130002B48D02A46214603A83DF074FC4C
S3150800B3D0342200210BA859F0DFFDFF230021402766
S3150800B3E0ADF83C306A460DF1A0080BAB03A8CDE9D1
S3150800B3F00014CDF83880ADF80870FFF750FF054601
S3150800B40050BB0DF13E0015F028F828B320468DF8FC
S3150800B4106050ADF862508DF890503EF0B1FB294669
S3150800B42025906B46424618A83EF0A2F8054698B9FC
S3150800B430DDF80080012318AA41463046FFF76BFA6B
S3150800B440214618A8FFF706F93B462946204618AABA
S3150800B450CDF89880FBF7D0F968B0BDE8F08130B533
S3150800B46004460D4685B001AA0A23FBF749F9628905
S3150800B470C5F57F43F63313445BBAADF80C3029465D
S3150800B4800A23204601AAFBF7B7F905B030BD7FB5F8
S3150800B49005460E46144614B9204604B070BD31461A
S3150800B4A02846FFF7DCFB0028F7D12946328801A891
S3150800B4B014F039FE0028F0D1BDF80C3032885BBA9A
S3150800B4C00A331344013C3380A4B2E4E700232DE990
S3150800B4D0F04F1646428A91B08A420746059309D824
S3150800B4E0C38A134499425DDB428B1344994280F226
S3150800B4F0F7800223B3753B8A0A46B86804A9ADF8F3
