S02200006275696C642F64656275672F736C656570792D64656D6F2D6D74642E73333787
S315080060000818002059530208ED5B0308F15B0308E2
S3150800601061C70008F55B0308FD5B030877100208F3
S31508006020771002087710020877100208771002081E
S31508006030015C03080C370408771002087710020879
S3150800604077100208771002087710020877100208FE
S3150800605077100208771002087710020877100208EE
S3150800606077100208771002087710020877100208DE
S3150800607077100208771002087710020877100208CE
S3150800608077100208771002087710020877100208BE
S31508006090F9B20208A1B202087710020877100208BE
S315080060A0771002087710020877100208771002089E
S315080060B0771002087710020877100208771002088E
S315080060C07710020877100208771002086D11020887
S315080060D0771002087710020877100208491102089B
S315080060E025110208771002087710020877100208AF
S315080060F07710020875C9030849D20308DDF70308B3
S31508006100D9F70308BDC90308F3F70308E1F703083D
S3150800611019D20308E5F7030889D20308F1D2030860
S31508006120771002087710020877100208771002081D
S31508006130E16602087710020877100208771002084D
S3150800614077100208771002087710020877100208FD
S3150800615077100208771002087710020877100208ED
S3150800616077100208771002087710020877100208DD
S3150800617077100208771002087710020877100208CD
S315080061807710020877100208771002080907040832
S3150800619039B5030877100208C7F70308CDF70308CF
S315080061A0771002087710020877100208771002089D
S309080061B0771002084C
S315080061C0F0B5114A114C124E00F00105E3695F075C
S315080061D013D40DB9334213D103EA00078F4207D10E
S315080061E00B4A1A40002A0CBF00206FF00100F0BDD0
S315080061F0013AEBD16FF00200F9E74FF0FF30F6E70E
S315080062006FF00100F3E700BF809698000000035086
S31508006210020001000000000000000000000000006D
S31508006220013800D0FCE7704700F58050D0F8F8092F
S31508006230704700F58050D0F8FC09704700F580508B
S31508006240D0F8EC09704700F58050C0F8EC19704793
S3150800625000F50050B0F8CA04704700F50050B0F8D1
S31508006260C804704700F50050D0F83C06704730B5B2
S31508006270E9B100F5805393F8D62D00F5EE501230AB
S3150800628000EB42048442054603D1022A07D10320C3
S3150800629004E02D8802308D42F4D1002030BD501C18
S315080062A083F8D60D03EB4203A3F8D21DF5E70720C2
S315080062B0F4E7F0B529B300F5805500F5EE50123035
S315080062C0024695F8D63D00EB43069642144601D1A0
S315080062D01720F0BD278802328F42F6D10BB91B88EA
S315080062E0FFDE013BDBB285F8D63D1AB200EB43036D
S315080062F09C4218BF30F812304FF0000018BF2380B8
S31508006300E7E70720E5E700F5805090F8520E70475A
S3150800631000F5805090F8600E70470148704700BF3E
S315080063203C330408004870473D330408004870476A
S315080063303E330408004870473F330408002908BF65
S315080063404FF4E151044B00F58050994294BFC0F8D0
S31508006350F819C0F8F83970479AC42000074B00F5B9
S315080063608050002914BF0A461A46054B9A4294BF24
S31508006370C0F8FC29C0F8FC39704700BF0075120048
S315080063809AC4200000F50050406E704700F5ED50A5
S315080063901030704700F5EE500130704700F5805018
S315080063A0D0F8DC0D704700F58050B0F8120E704733
S315080063B000F58050A0F8121E704703468288C088F0
S315080063C0114481429DBF1868998080180020704743
S315080063D070B505680C4625B9BDE870404B68084895
S315080063E018478B6898476A680146831A002BB8BF16
S315080063F0121A2368A8BF0022BDE870400048184753
S31508006400F01F002038B50C461146A2680346944290
S3150800641006D00568AC420BD10260FFF7D9FFA4602D
S3150800642038BD94420DD011469268002AF9D1F6E794
S315080064302A460021F9E78B68002BF0D09B688B6011
S31508006440EDE70029F7D1002DE9D0AA681A60E6E73A
S315080064502DE9F041936805460C461646984732469C
S31508006460074621462846FFF7CDFF2868002203463F
S315080064706BB16168D3F804E0A1EB070CAEEB070833
S3150800648098EA0C0F13D4A1EB0E01002907DA4AB9D2
S31508006490A060314628462C60BDE8F04198E71A46C8
S315080064A09B68E5E79368A3609460BDE8F081BCF15A
S315080064B0000FEBE770B5066804460D467EB18B689B
S315080064C098477368C01A002809DB20462A463146D1
S315080064D0FFF798FF30463368BDE8704018472946ED
S315080064E02046BDE8704073E700F5005393F8383648
S315080064F013B102490830DDE7704700BF403304088E
S3150800650000F5005393F8383613B102490C30D1E739
S31508006510704700BF4C330408012300F0070083408E
S3150800652013F0220F09D113F0880F08D113F0440F86
S3150800653014BF01200020C0007047042070471020B7
S315080065407047D0F8020000BA70474200400800F0D1
S31508006550553002F0AA3202439300920802F0333211
S3150800656003F0CC33134318011B0903F00F3300F073
S31508006570F030184300BA70470968006838F0B3B9B4
S315080065800968006838F0AFB90968006838F0ABB92F
S31508006590014B024A12F017BD3D6300082962000844
S315080065A0014B024A12F00FBD5D6300083362000812
S315080065B0014B024A12F007BD476200083D62000817
S315080065C030B50C4687B0054601A920682EF012F8AA
S315080065D070B9606805A92EF024F848B9A3684BB9C4
S315080065E02B68024603F5CE5001A91C3017F088FF28
S315080065F007B030BD0720FBE710B50C684CB900683A
S31508006600224600F5CE501C30214616F0EBFA2046FD
S3150800661010BD0720FCE770B50E6805460C4686B027
S31508006620304619492DF0B1FDD0B100260434206852
S3150800663001A92DF0DFFF88B9606805A92DF0F1FFE3
S3150800664060B9A368F3B9286885F8406000F5B450C6
S3150800665001AA05F10C01183017F0C2FC06B070BD8E
S3150800666030460A492DF091FD10B103260434DEE7C1
S31508006670304607492DF089FD10B101260434D6E7C6
S315080066800226D4E70720E9E7202F0408232F040869
S31508006690262F0408014651F80C0B00F5B4501830A3
S315080066A016F074BA1346B0F86C202AB10A4600F1FF
S315080066B05C01024817F074BF0D2070478836002029
S315080066C000F50050B0F8CA348B4209D0A0F8CA14B5
S315080066D0044890F85930022B02D158302FF0A8B947
S315080066E0704700BFF03F002000F50053B3F8C824F8
S315080066F08A4206D000F51350A3F8C814083016F0DD
S3150800670015BB70471FB500240294079C00F5C950B5
S315080067100194069C1830009418F0F6F804B010BDE1
S315080067201FB501240294079C00F5C9500194069CE4
S315080067301830009418F0E8F804B010BD08B53130E8
S31508006740313120F0010021F0010103780A7803F0C5
S315080067500F0302F00F029A4207D10431043039F0D0
S3150800676061F8B0FA80F0400908BD0020FCE710B5D2
S31508006770044604F5005427F07BFE236C33F07C4274
S3150800678004D0C3F31903984228BF184610BD05293B
S3150800679038BF0521B1F5E14F28BF4FF4E14138B5BF
S315080067A000F500556B6E044699420DD0696627F0D0
S315080067B08BFC95F85930022B06D104F50150183098
S315080067C0BDE838402FF034B938BD42F2107399420B
S315080067D010B5044613D800F500539A6E91420CD0B2
S315080067E0996627F071FC074B93F8683EDB0704D5DA
S315080067F004F50150183017F075FD002010BD07206C
S31508006800FCE700BFF02F002010B503780446002BE4
S3150800681014BF0520032000F5003011F05FFC237833
S31508006820BDE81040002B14BF0620042000F50030F8
S3150800683011F054BC00F5EE500022183016F0F8BEE0
S3150800684038B5044608464D7894F8FE20A91C031B63
S3150800685051FA83F3D21A014437F093FF94F8FE30C5
S31508006860023B5B1B84F8FE3038BD2DF039BA2AF09E
S3150800687003BD08B51B4B93F8492E012A03D0062AF7
S3150800688005D02AB3FEE7BDE808402AF0DBBC0020A5
S3150800689083F8490E03F5805393F85010CA070CD5B0
S315080068A0C1F3C302013202F00F0262F3C601042AE1
S315080068B083F8501005D82DF013FABDE808402AF0E1
S315080068C0DBBC93F8502060F3C60283F85020F4E747
S315080068D093F8482E520703D5B3F84A3E1B06ECD464
S315080068E008BD00BFF02F00208378072B09D190F848
S315080068F06E00C30903D000F07F0028F089BB28F09A
S3150800690045BB704725F080B9436810B4D3E9004009
S3150800691023465DF8044B18470EB403B503AA52F88C
S31508006920041B0192FFF7F0FF02B05DF804EB03B019
S3150800693070470149F0E700BF9946040873B50D464C
S315080069400446028843881F492846FFF7E5FF228840
S315080069509AB1237B8BB963889A420ED34FF47A7126
S31508006960D31A4B430A2193FBF2F3B3FBF1F2284601
S3150800697001FB12331449FFF7CFFF6288A2B14FF427
S315080069807A7660680023A0FB060137F065FBB0FB4A
S31508006990F6F306FB130062890090019228462289C5
S315080069A00A499BB2FFF7B8FF2846FFF7C2FF287AC5
S315080069B010F0010004D102B0BDE8704026F01ABFFD
S315080069C002B070BD292F0408562F04086F2F04083B
S315080069D0F8B506460C46064F8D18AC4200D1F8BDF0
S315080069E03946304614F8012BFFF796FFF5E700BF46
S315080069F02C12040810B50446FFF7EAFF2046BDE846
S31508006A00104096E7FF2330B5C3B005468DF807302A
S31508006A1099B900680DF1070300F50C5002AA343045
S31508006A201BF08FFD044628B928469DF8072002A9C1
S31508006A30FFF7E0FF204643B030BD0C24FAE72DE906
S31508006A40F74F4FF0000A4FF6FF7304460F465646B7
S31508006A505546DFF88080DFF88090ADF806305FFA9B
S31508006A608AF357F823B0BBF1000F09D1BDF8062009
S31508006A70FDB946B34FF6FF739A421FD007200FE0C1
S31508006A80414658462DF081FB68B9494658462DF0CF
S31508006A907CFB60B958460DF106012DF0C2FD18B110
S31508006AA003B0BDE8F08F05460AF1010AD7E70646A6
S31508006AB0FAE74FF6FF739A42E0D126B129462046F7
S31508006AC0FFF7A0FFECE72046294612F02FFD00202D
S31508006AD0E6E700BF4B100408DD1E0408F0B51C46A7
S31508006AE0002387B08DF8143052EA0403064615468B
S31508006AF00ED130230DF113078DF8133030463A4680
S31508006B000D49FFF709FF304607B0BDE8F04010E72A
S31508006B1005AF284621460A22002337F09DFA30326F
S31508006B2007F8012D2A4623460A2A73F1000305466B
S31508006B300C46EED2E2E700BF2C1904084FF42013E6
S31508006B4030B58DB0044601930023084602AD694668
S31508006B5008228DF80830009515F035FC2A4620469F
S31508006B600249FFF7D9FE0DB030BD00BF2C19040845
S31508006B7010B50446FFF7E2FF2046BDE81040D8E608
S31508006B8037B50546CC884B8864BAA4B20A880194FE
S31508006B9089885BBA49BA89B252BA00919BB204494C
S31508006BA092B2FFF7B9FE284603B0BDE83040C0E60A
S31508006BB09B2F040810B504468CB00846694626F093
S31508006BC062FE20466A460449FFF7A6FE20460CB038
S31508006BD0BDE81040ADE600BF2C1904080CB473B527
S31508006BE0054606AC54F8046B0A46074B0749FFF7F7
S31508006BF093FE2246314628460194FFF785FE02B0E9
S31508006C00BDE8704002B070477C4904085330040858
S31508006C100EB417B5044605AA52F8041B0192FFF7ED
S31508006C2073FE2046FFF785FE03B0BDE8104003B0AB
S31508006C30704737B50D460446428A0A49083228463F
S31508006C4092B2FFF769FE21462846FFF777FF238AA7
S31508006C5028460093A37DA28A0349FFF7D9FF03B00C
S31508006C6030BD00BFAC2F0408BB2F0408F8B5056873
S31508006C700F6805F5D05604461A3627B93146FFF788
S31508006C8099FF0020F8BD4B68BBB938460D492DF071
S31508006C907CFA20B131462046FFF76AFFF1E738460D
S31508006CA009492DF072FA50B105F580552046B5F818
S31508006CB02A2A0649FFF7ACFFE3E70720E2E7232085
S31508006CC0E0E700BF833B0408151D0408E50E040829
S31508006CD02DE9F04115461D4A0446FFF77FFF2A684D
S31508006CE03AB120461A49FFF717FEAA7A072A05D9A4
S31508006CF0FEE720461749FFF70FFEF6E7164B204634
S31508006D0003EB8203DA691549FFF706FE6E7A26B1A8
S31508006D1013492046BDE8F0417AE720461149FFF7B6
S31508006D20FBFDDFF848802B7AF7B2BB4201D80E4943
S31508006D30EFE71FB141462046FFF7EEFD696820469A
S31508006D4001EB0711FFF7FAFE0136ECE7DB2F040823
S31508006D50EA340408E12F04083C330408E82F040841
S31508006D60FB2F04088A17040801120408F9110408FD
S31508006D702DE9F0470D6804460E468AB045B9026803
S31508006D80294602F5D2520C32FFF7A2FF0020FDE099
S31508006D902846AC492DF0F9F900284FD077686FB925
S31508006DA0236803F58053D3F84C2AA74B002A08BF5B
S31508006DB01A462046A549FFF72BFFE7E7D6F80880CD
S31508006DC0B8F1000F40F01081384637F0E1FD85B282
S31508006DD03F2D00F20981206800F5805393F8562A62
S31508006DE00ABBC3F84C7A00F5D45700F5CE501C30D0
S31508006DF015F002FD6A1C92B23846716837F03CFD00
S31508006E00206800F5805393F8562AA2B1072ABDD107
S31508006E100022C3F84C7A83F8562A00F5CE501C3067
S31508006E2015F0EAFCB2E7072A40F05F81C3F84C7A0E
S31508006E3083F8568AD7E7C3F84C7AEEE7284684499A
S31508006E402DF0A3F980B17368002B40F0CD8023683C
S31508006E5003F5805393F8562A072A00D9FEE77D4B97
S31508006E6003EB8203DA69A4E728467B492DF08DF9FE
S31508006E700746002800F08D80D6F804802568B8F10A
S31508006E80000F17D105F5805595F8556A66B1204665
S31508006E907249FFF7BDFE79E7D5F8501A204601EB8F
S31508006EA00311FFF765FE013695F8542AF3B29A42A4
S31508006EB0F2D86BE7404669492DF067F910B305F536
S31508006EC0805494F8553A002B7FF460AF05F5CE55FB
S31508006ED01C35284615F0B6FB002857D1604BD3F869
S31508006EE034374BB9A4F8E039C4F8503A4FF48073F4
S31508006EF02846A4F8543A93E7DA7C6FF34102DA7429
S31508006F005B69EEE702AF394640462DF073FB002871
S31508006F103CD1B068A8B306A92DF06CFBB0BBF368EA
S31508006F209BBB4FF00208266841F6DC1906EB090AF6
S31508006F30504615F087FB48BB06F5805686F8550A75
S31508006F4005F5D6555046C6F8507A86F8548A15F08F
S31508006F5053FC394628464FEA081237F08DFC246858
S31508006F60A144484615F06EFB00287FF40FAF04F5E0
S31508006F70805383F8550AC3F8505A484683F8548A0A
S31508006F804EE74FF001082668CEE703200AB0BDE8B1
S31508006F90F087284633492DF0F8F8002864D0706841
S31508006FA08DF808708DF8077068B923689DF8084051
S31508006FB003F5CE5003F5805393F8561A1C3007296B
S31508006FC014D11820E2E702A92DF0D6FA0028DDD15F
S31508006FD0B0680028E9D00DF107012DF0CDFA002898
S31508006FE0D4D1F368002BE0D00720CFE70A1F012A87
S31508006FF006D893F8DD29C2F30012A2423FF4C6AEC2
S31508007000042693F8DD299DF8075064F3041283F8E3
S31508007010DD29D3F8582A3AB969B97DB9072283F820
S31508007020562A15F0ACFBB1E6D47D043C012C88BF8A
S31508007030D675D269EFE704293FF4F2AE042283F845
S31508007040562AEDE64C1B0408E12F04082C190408FF
S31508007050F71E04083C330408833B0408FB2F040886
S31508007060F02F0020E6100408284622492DF08DF856
S3150800707000283CD07368002BB6D1256805F58056E4
S3150800708096F8DC3905F5CE55023B032B05F11C05B0
S3150800709003D80421284615F0E8FA96F8DD390021C8
S315080070A06FF3030386F8DD394FF4E163C6F8E43974
S315080070B00023C6F8583A2B676B67AB6796F8563ABB
S315080070C0072B1CBF072386F8563A236803F5805218
S315080070D0C2F8001B03F5D75103F5E0530431143306
S315080070E0C2F8301CC2F8E03A50E60D204EE72320DD
S315080070F04CE700BF1B1904082DE9F74305460E4661
S315080071001446DFF86C8014B903B0BDE8F083236831
S3150800711042460093636831462846FFF75FFDA36839
S315080071207BB9E17D072910D9FEE749462846FFF7CE
S31508007130F3FBA368BAB253F822200137002AF4D128
S31508007140EFE70027DFF82C90F3E7074A238A02EBDC
S315080071508102A18A28460191618AD2690091034970
S31508007160FFF756FDE469CEE73C3304081C300408F3
S315080071700030040818300408034A044B00290CBFE1
S315080071801146194644E500BFB220040849300408F0
S3150800719010B50C685CB9036803F5805393F8DC19DD
S315080071A0003918BF0121FFF7E7FF204610BD072069
S315080071B0FCE70CB473B5044606AD55F8046B094BE9
S315080071C00A460949FFF7A8FB2A4631462046019593
S315080071D0FFF79AFB2046FFF7ACFB02B0BDE870400C
S315080071E002B070477C490408533004082DE9F04F73
S315080071F005460E461C461746DFF890B085B003F1E3
S31508007200FF3802EB81094F4517D128461C49FFF77D
S31508007210FFFCDFF87090DFF8788026444946284658
S31508007220FFF77AFB14F8017B17BBB442F6D1284660
S31508007230144905B0BDE8F04FEAE457F8043B18F8DE
S3150800724001AF1846039337F0A3FB02305045039B62
S3150800725006D859462846CAF10102FFF75DFBD2E770
S3150800726000935346284608495A42FFF755FBCAE792
S3150800727041462846013FFFF74FFBFFB2D4E700BF60
S31508007280021904085E30040857300408513004080F
S31508007290A445040870B506680D46304607492CF023
S315080072A074FF044620B9304605492CF06EFF10B12C
S315080072B000202C7070BD2320FCE700BF6030040856
S315080072C0673004080A6813B50B46044662B90368B2
S315080072D003F5805393F87C1A003918BF0121FFF78C
S315080072E04BFF002002B010BD18460DF10701FFF74D
S315080072F0D1FF0028F6D124689DF8071004F58053BD
S31508007300A1B193F87C2AC3F8740AC3F8780A002A4C
S31508007310E7D1012204F5CE541C34204683F87C2A92
S3150800732015F016FC204618F035F8DAE793F87C2AAB
S31508007330002AD6D083F87C1AD3E710B50C680B461A
S315080073402CB1BDE8104000F108011846A2E7017A01
S31508007350FFF712FF204610BD10B50C680B462CB17E
S31508007360BDE8104000F10801184693E7017AFFF7D7
S3150800737003FF204610BD2DE9F041804608680F46F8
S3150800738016461D4688B008B311462DF033F900237A
S3150800739004462B7098B1396891B101A826F020FBF4
S315080073A070B908F50C5002A934301FF094FA58B990
S315080073B0304601AA02A917F070FF01232B7000249A
S315080073C0204608B0BDE8F0810D24F9E70724F7E761
S315080073D0F0B587B00DF10303044601AA00680D460F
S315080073E0FFF7C9FF034668BB9DF803303BB120464B
S315080073F01749FFF791FA204601A9FFF7B9FB05AF30
S31508007400394668682DF00DF90346D8B9AA68E2B975
S31508007410254655F81ECB01AA164603CEBE4228605D
S315080074206960324605F10805F6D132882A80A28BB2
S3150800743042B904F10C020CF5B4501146183016F096
S31508007440CFFD0346184607B0F0BD0723FAE700BF8D
S315080074506F300408102208B538F0E4F9B0FA80F065
S31508007460400908BD0FB407B504AA52F8041B04481E
S31508007470019226F0DAFD03B05DF804EB04B070471C
S31508007480783304080023036043607047F8B5C1F3F6
S315080074904003C1F300025B0043EAC203C1F3800163
S315080074A00B4399075AB247D400F5005595F85B7017
S315080074B042F004039F4224D000F5015418342046B4
S315080074C085F85B3016F060FB95F8596030462CF06D
S315080074D0AAFEC0B195F85B1095F85830C7F340027C
S315080074E0C1F340008242C3F3C00304D15BB93A0733
S315080074F009D50B0707D400232046A5F8803116F0D6
S31508007500BBFF0020F8BD012E0BD100262046A5F8AA
S31508007510806116F02DFF314604F5907016F01AFCBE
S31508007520EFE7022EEDD12046B5F85C1017F09CFD6A
S3150800753020462EF07DFAE4E70720E3E7036823B93F
S315080075401720B0FA80F040097047994201D01B6BAA
S31508007550F5E70020F5E713B50146024651F80C0B8E
S3150800756000F5B45400F5B5501834FFF7E7FF38B9FD
S31508007570009220460122034B15F06EFB02B010BDA7
S315080075801820FBE7617A000808B50CF0ADF808BDCD
S3150800759001F1100351F8042B994240F8042BF9D154
S315080075A07047313020F001000078C0F301107047B1
S315080075B008B5FFF7F6FFB0FA80F0400908BD836DFD
S315080075C018472622002136F038BF030E0B70030C2D
S315080075D04B70030A8B70C870704708B50246FFF7F0
S315080075E0E7FF30B1313222F001025078831E58424B
S315080075F0584108BD1422002136F01FBF2DE9F84F67
S315080076000746884691469A464FF0000B0A9D0BEBB3
S315080076100904661006FB0A8638463146A84700283C
S31508007620C4F34F0407D0D2BFA14601341FFA84FB26
S31508007630CB45ECD300263046BDE8F88F0023F0B5DD
S31508007640441E184601392AB91BB1024492B2904227
S3150800765011D1F0BD14F8017F11F8016F082A1546FB
S3150800766028BF0825B74287EA0603EDD12844521BEE
S3150800767080B292B2E7E71906EBD45B000130DBB2C1
S3150800768080B2E4E725289DBF024B03EB8003986C84
S31508007690014870473C33040898300408F8B5069D3D
S315080076A01C462B7A0F46164613B3FFF7EBFF17490E
S315080076B002462846FFF7ACFA28461549FFF7A8FA06
S315080076C03A4604212846FFF703FB28461149FFF7E7
S315080076D09FFA324604212846FFF70EFD4CB128468C
S315080076E00D49FFF795FA224604212846FFF704FDBF
S315080076F004B9F8BD2B68E26903F58053D3F8E01A9C
S31508007700E161C3F8E04A1446F2E700BFA93004086D
S31508007710C8300408D3300408E130040800BA7047BA
S3150800772008B50346D1E9000252BA1A80FFF7F6FFF8
S315080077308A7AC3F80200088942EA400252BADA8015
S3150800774008BD838870B50446C0889E1886421546CB
S3150800775008D82068184437F08FF80020A3881D44FD
S31508007760A58070BD0320FCE707B549BAADF8061039
S3150800777002220DF10601FFF7E4FF03B05DF804FBF2
S315080077800122DEE738B50446A38808469342154623
S315080077900AD3216837F070F80020A38822685B1B9B
S315080077A02A442260A38038BD0620FCE70122E9E7C7
S315080077B010B502220C46FFF7E5FF10B923885BBA1D
S315080077C0238010BD4368036003B1DB6943607047DB
S315080077D038B5436A044623B1002202214262826A0E
S315080077E09847236A9C4200D0FEE7094A02F5805171
S315080077F0D56DB1F860362068013B25609BB22546F9
S3150800780018B9D465A1F8603638BD0446F3E700BF59
S31508007810F01F0020C3892DE9F04101EB03081FFA88
S3150800782088F8434504460D4602D90320BDE8F08191
S3150800783006465027B845336815D8002214483260E2
S3150800784000F5805CC66DBCF860164F1EBFB2C3B9A2
S3150800785012B1C665ACF86016A3890020AB426581F3
S3150800786088BFA581E2E71BB17C373668BFB2E1E77E
S315080078706079C0F3410027F00BF930600028F3D196
S31508007880D3E71A6839461E601E4613460122DCE70E
S31508007890F01F0020F8B500F1310424F00104054674
S315080078A020460F461646FFF7A5FE2378042103F067
S315080078B03F0343F04003237000232846AB8121820F
S315080078C0FFF7A8FF2378667023F0300343EA071111
S315080078D02170F8BD70B500F1310525F001052B784A
S315080078E0064623F00F0302F00F000343284614460A
S315080078F000F8043B36F0C0FF2B8A3046E11889B2FF
S315080079002982BDE8704085E7313121F001010A7806
S3150800791002F00F02082A00D9FEE70431DAE7838964
S3150800792042891944914200DDFEE789B2914281817C
S3150800793000D9FEE7704743898B4200D2FEE75B1AFF
S3150800794043818389C2898B4294BF00235B1A0A4408
S3150800795088BF9BB2C2818381704770B54489A142B2
S3150800796030D215880D44AEB2B14201D8A54201DB2A
S31508007970641A1480C4899860214489B24F29044640
S3150800798010D830304418C1F1500189B29980108856
S315080079901C60814228BF0146998011889B88CB1AB2
S315080079A0138070BD5039246889B20CB99C60FEE713
S315080079B07B2905D89C6004340C44C1F17C01E4E7BA
S315080079C07C39F0E70021E7E770B5154686B0ADF8D3
S315080079D006300DF1060203ABFFF7BFFF2C46BDF8D4
S315080079E010601EB9601B80B206B070BD039932469E
S315080079F0204636F041FF03A90DF10600344427F06E
S31508007A00C7F9ECE770B5054616460C468B894A89D0
S31508007A10ADF5BC6DD21A0F49FEF77EFF284606F172
S31508007A201001FFF78BF82846728C0B4901AEFEF75A
S31508007A3073FF3246A18940F2DB532046FFF7C4FFA5
S31508007A4000233246335405492846FFF7E1F80DF579
S31508007A50BC6D70BDF7300408063104082C190408FB
S31508007A60D0E738B54589CC18AC4203DCFFF7ACFF44
S31508007A70002038BD0620FCE7024608464989382317
S31508007A80383989B2EDE70246084649892C232C394C
S31508007A9089B2E6E770B51646313104688CB021F034
S31508007AA0010514B920460CB070BD04F1310323F06A
S31508007AB001036A885B889A4212D102A8FFF781FD02
S31508007AC0214601A8FFF7DFFFBDF82A20738C9A42EA
S31508007AD006D106F1100106A8FFF7BCFC0028E1D183
S31508007AE0E469DEE738B504460D460B4601890068A9
S31508007AF0FFF7B7FF10B923891D44258138BD0B88C8
S31508007B0013B50C2B0C460BD90D2B0CD101210DF1FD
S31508007B100602FFF7E7FF20B99DF806300D332380EC
S31508007B20002002B010BD0E2B0CD102210DF1060269
S31508007B30FFF7D8FF0028F4D1BDF806305BBA03F288
S31508007B400D13ECE70620ECE773B54FF6FF76C3880E
S31508007B500446B34206D001210DF10302FFF7C2FF26
S31508007B6018B1E680002002B070BD9DF80350FF2DC5
S31508007B700CD1236822895B89E6809A42F2D30620D3
S31508007B804FF6FF73E38000232381ECE72B09204699
S31508007B900DF10601ADF80630FFF7B1FF0028EFD169
S31508007BA005F00F05204601A9ADF80450FFF7A7FF19
S31508007BB00028E5D1216823894989BDF80420C91A16
S31508007BC08A42DCDC1344BDF806102381A388E280D0
S31508007BD00B44A380C6E730B401F1310222F001025A
S31508007BE0D48912784D8902F00F0204322244954254
S31508007BF04FF0000404D3C0E9001430BC0281A3E7A7
S31508007C004FF6FF720481C28030BC0620704710B45C
S31508007C104C889C4203D309885DF8044B21E706206B
S31508007C205DF8044B70472DE9F04786B017461C46A9
S31508007C30ADF806300DF1060203ABDDF83880FFF724
S31508007C408CFEBDF810507DB1039EB8F1000F11D01F
S31508007C50B94606EB050AB24513D019F8011B16F802
S31508007C60010BC0470028F6D1B4FA84F0400906B0E3
S31508007C70BDE8F0872A463946304637F0D3FD002856
S31508007C80F2D12F4403A9651B0DF10600ACB227F00B
S31508007C907FF8D6E770B586B0ADF806300B441446C3
S31508007CA09AB2914200D9FEE74289934200DDFEE787
S31508007CB003AB0DF10602FFF750FEBDF810500DB9E3
S31508007CC006B070BD21462A46039836F05AFD03A928
S31508007CD00DF106002C4427F05BF8EEE770B500F1CD
S31508007CE0310424F00104A37C05465BB14389218A4B
S31508007CF0994207D1012994BF491A01F1FF3189B286
S31508007D00FFF788FD2378224603F00F032846BDE8CF
S31508007D10704000210433BDE72DE9F041B0F80A8030
S31508007D200F4602EB080399B24145054616460CD3A1
S31508007D30FFF770FD044628B933463A4641462846B9
S31508007D40FFF7A8FF2046BDE8F0810324FAE72DE9EE
S31508007D50F043074601239BB057F80C4B8DF80530C6
S31508007D60037A0646884604F5B55039468DF8043038
S31508007D70FFF7E4FB002800F0B6802622002103A8BE
S31508007D8036F05BFBD8F80830EBB1204641460DAB20
S31508007D9007AAFFF7F0FA0446002843D19DF83430C5
S31508007DA03BB130465349FEF7B7FD304607A9FEF703
S31508007DB0DFFED8F804000DF12E012CF032FC044643
S31508007DC080BB08F10808082001A926F057FF0546D8
S31508007DD0002800F08A80D8F80040474920462CF051
S31508007DE0D4F900283ED0D8F804000DA92CF019FCC7
S31508007DF0044600283FD13023BDF834808DF808307A
S31508007E00B8F1000F12D16B79306813F0180F31D022
S31508007E1000F5B4502A46394603AB183016F0C0FBB5
S31508007E20044640BB20461BB0BDE8F0830122284625
S31508007E3002A9FFF771FF0446E8B99DF808305A2BE6
S31508007E400AD07A2B0AD0392B0AD00133DBB208F1D3
S31508007E50FF381FFA88F8D1E76123F8E73023F6E7F9
S31508007E604123F4E7204625492CF08FF920B3D8F8AA
S31508007E70043023B907242846FFF7AAFCD2E74FF0B7
S31508007E803209029302230DAA0DF1060102A8ADF8E4
S31508007E9006901AF0DDFC804608B1242827D128462A
S31508007EA0BDF806200DA9FFF737FF04460028E2D1E2
S31508007EB0B8F1000FE6D1A6E7204611492CF065F97E
S31508007EC008B108F10408D8F80040002CD2D02046A2
S31508007ED036F05EFD214682B22846FFF71DFF0446AE
S31508007EE0002890D0C7E70D249CE703249AE70446A8
S31508007EF0C1E700BF0B31040831310408DD1E040850
S31508007F0034310408012207E7FF2313B58DF807303B
S31508007F1043890446B3F5007F0FD20DF10701FFF739
S31508007F20F1FF40B9012204F1310323F001039A74E9
S31508007F3062891A82A28102B010BD0320FBE703788A
S31508007F401BB1012B03D0002070474068E4E60430DB
S31508007F50FFF7F7BB2DE9F04114469A180E4691B281
S31508007F6086B08C420546ADF8063029D8718991420B
S31508007F7028DBB0F80A80434499B2414524D3FFF779
S31508007F8049FC074648B92146304603AB0DF10602BF
S31508007F90FFF7E3FCBDF810401CB9384606B0BDE84B
S31508007FA0F081234641462846039AFFF773FE444468
S31508007FB003A90DF106001FFA84F826F0E9FEE9E7A1
S31508007FC00727EAE70627E8E70327E6E7F8B50446BA
S31508007FD00E46154600F13007E3899D420BD85B1B18
S31508007FE06289E381A3892A442B4492B29BB29A42BE
S31508007FF0628117D2FEE76079C0F3410026F048FD9A
S31508008000C8B123680360E38920604F2B06D8303057
S31508008010C3F15002F918184436F02EFCE3897C3374
S31508008020E381D9E72046A38132462B460021FFF794
S3150800803031FE0020F8BD0320FCE773B50546037939
S315080080406E8940798E42C0F3410228BF0E46C3F3BB
S3150800805040038DF80520E98901AA40098DF8043006
S3150800806026F056FD0446002832D03346002229461B
S31508008070FFF770FF48BBAB896289B34228BF334616
S315080080809A4200D2FEE7A381AA79A37962F3030391
S31508008090A3712B792279DB0963F3C71222716B79F5
S315080080A06279C3F3C10363F3C4026271AB69A36166
S315080080B02B8A23826B8A63822B7A2372AB8DA385E4
S315080080C0EB8DE385204602B070BD2046FFF780FBA6
S315080080D00024F7E710B50446FFF7AFFF98B104F19F
S315080080E0310300F1310223F0010322F0010203F10A
S315080080F0100153F8044B8B4242F8044BF9D1198806
S3150800810011809B78937010BD0368994204BFCB69B0
S3150800811003604368994204BF0B6A43600B6A0BB15C
S31508008120CA69DA61CB690BB10A6A1A6200220B794D
S31508008130C1E9072162F382030B71704710B5FFF797
S31508008140E3FFBDE810400846FFF742BB10B50446FA
S31508008150216801B910BD2046FFF7F0FFF8E702468F
S3150800816008B50846FFF78EF9126802B908BD0388F4
S31508008170116801330380012341B941880B444380C8
S3150800818051894368D2690B444360EEE701330968B5
S31508008190DBB2F1E70B7910B55B0700D4FEE74B7944
S315080081A0C3F3410300EB83025468A14209D10C6A68
S315080081B0546034B16479C4F341049C421CBF002363
S315080081C053600368994204BFCB690360CB690BB15E
S315080081D00A6A1A620B6A0BB1CA69DA6100220B795C
S315080081E0C1E9072162F382030B7110BD024608B587
S315080081F00846FFF747F9126802B908BD03881168EF
S3150800820001330380012341B941880B4443805189D6
S315080082104368D2690B444360EEE701330968DBB271
S31508008220F1E74A7970B5C2F3410214460B79061D87
S3150800823043F004030B7156F824301BB90134E5B238
S31508008240042DF8D10B624BB90368CB610160CB6989
S3150800825003B1196200EB8200416070BDDC69CC6134
S31508008260D961F4E743880288994228BF194612FA69
S3150800827081F25B1A028043807047084A138803B963
S31508008280FEE748F24E305368A3FB003010EB53006C
S3150800829044BF20F000400130506070476856002007
S315080082A0814210B5044600D8FEE7FFF7E6FF091B32
S315080082B0B0FBF1F303FB1100204410BD38B50D46A1
S315080082C0814288BF85B26900044601310020FFF764
S315080082D0E7FF2044401B38BD10B540B10023441EBB
S315080082E098B2814203D90133E25C002AF8D110BD65
S315080082F00139013811F8012F10F8013F3AB9002B5E
S3150800830014BF01200220831E5842584170479A42E2
S31508008310F0D00020F7E72DE9F04F0C6807460E4627
S3150800832085B04CB90368214603F58053D3F8582A1B
S31508008330FEF7E2FE002444E02046A2492BF025FF82
S31508008340002800F0F1803B6803F58053D3F8E05A23
S31508008350002D00F02981AB46EA690021C3F8E02A1E
S3150800836028464FF4987236F068F805F1340A05F590
S315080083708A734BF894ABAB6005F12803EB600123D5
S3150800838005F1D408C5F804B0AB75C5F82C8005F11D
S3150800839010094946F0682CF044F9044648B9716852
S315080083A00846019136F0F4FA421C402A01990CD984
S315080083B007243B6803F58053D3F8E02AEA61C3F83B
S315080083C0E05A204605B0BDE8F08F584636F054FA14
S315080083D0D6F808B0584636F0DBFA421C602AE7D8C9
S315080083E05946504636F048FA2C21504636F0B0FA2F
S315080083F078B94946F0682CF014F904460028D8D113
S315080084003069B8B97069E8B9B4691CBB0023AB75A3
S3150800841033E005F5887A05F5947B00F8014B2C21A5
S315080084204AF8040F36F094FA0028E2D0D345F4D17E
S315080084300324BEE705F112012CF0F3F804460028E0
S31508008440E0D0B6E705F114012CF0EBF80446002855
S31508008450DAD0AEE720465C492BF097FE0028D5D146
S3150800846029464023424621F8303F03A801230394B6
S315080084701AF0EEF9044600289BD1F069002830D19D
S31508008480306A002835D13E6806F58059D9F8588AE9
S315080084904446002C3AD12B68002B89D06B68002BF8
S315080084A086D0EB6813B9AB7D002B81D107232A6AE6
S315080084B0EB75464BC5F81C809A4294BF2A622B621C
S315080084C06A6A00219A4294BF6A626B622846C9F8B2
S315080084D0585A14F080F806F5CE501C3014F08CF972
S315080084E028E705F120011AF018FA04460028C7D033
S315080084F05FE705F124011AF010FA044600287FF414
S3150800850058AF736A002B7FF453AFBCE7296820681D
S31508008510FFF7EEFE20B169686068FFF7E9FE08B963
S31508008520E469B6E7182444E7204629492BF02DFECE
S31508008530814628B9204627492BF027FE002835D042
S31508008540B3680193002B33D0D6F80CB0BBF1000FFB
S315080085502ED1D7F8008008F5805ADAF8585A2C46F2
S315080085600CB917242DE7616870682BF00EFE28B148
S31508008570216801982BF009FE002846D1E469EFE747
S31508008580AC4217D0ED69002DFAD1EAE79C4223D018
S315080085909B46DB69002BF9D1E3E7DBF81C3013B304
S315080085A0DB69CBF81C301EE003240AE7232408E71E
S315080085B0072406E7E37D043B012B8FD90423E375E3
S315080085C08CE700BF43100408A44504089AC4200099
S315080085D0E61004081B190408BBF1000FDDD115B11C
S315080085E0EB69CAF8583A0023E361E37D072B1CBF01
S315080085F00723E37514F000F93B6803F58053D3F8B5
S31508008600E02AE261C3F8E04A94E608F5CE501C3049
S31508008610B9F1000FB7D12B46BCE7A0F14103052BF2
S3150800862004D83738C0B2087000207047A0F161033B
S31508008630052B01D85738F5E73038C0B20928F2D9E2
S315080086400720704770B504460E46E58813468288AB
S315080086500068AA4234BFA91A0021104432462DF0F8
S315080086603FFF002800DAFEE7A388E288184480B2B4
S31508008670904228BF2368A08022BF9B18002203F8D7
S31508008680012C204670BD0EB417B5044605AA52F84B
S31508008690041B0192FFF7D6FF204603B0BDE8104041
S315080086A003B070474FF434132DE9F04794B00293A2
S315080086B0002303AA06460C460D46914691F810C0BB
S315080086C08DF820300CF10703DB100DF120085F1C34
S315080086D0CDF804807F0801F1100A96462868696873
S315080086E00835AEE8030055457246F6D129788EF866
S315080086F000106BB14FF0FF3103F14F026A4412F8D4
S31508008700440CCCEBC30C01FA0CF1014002F8441CF2
S31508008710102BC3F1100292B209EB030088BF0022A6
S31508008720002135F08AFE3A46484601A913F04BFE69
S31508008730237C0733772B03D8084901A8FFF7A3FF43
S31508008740227C074901A8FFF79EFF424630460549A5
S31508008750FEF7E2F814B0BDE8F08700BF3731040829
S315080087603A3104082C19040870B506460D4600244B
S31508008770AC4201D3012070BD305D0134030605D437
S315080087802DF09EFE0028F3D00020F4E710F04003F9
S31508008790FAD0810612D5C20612D50307F4D40323EC
S315080087A007E0AC42F0D0325D013402F0C002802A04
S315080087B0EAD1013BDBB2FF2BF3D1D9E70123F8E776
S315080087C00223F6E743684BB9054B5A6812B9586055
S315080087D0406070475168416050605860704700BFFC
S315080087E0F01F002003685A1A11EA220138BF1946F9
S315080087F043685A1A13EA220338BF0B464360704788
S315080088004160024A01460248FDF722BE4033040889
S31508008810F81F00202DE9F341734C04214FF47A70B8
S31508008820E56CFFF74BFD291804F14800FFF7E8FF50
S31508008830636CD80716D5FEF7A7FE04F580560546DD
S31508008840D6F8E01F68462BF0E8FD04F5FF5704F557
S3150800885000580099002940F08180D6F8E00F08B941
S3150800886025F0E3F8636C990625D5604D95F89D3497
S315080088707BB1FEF789FED5F8A03403F5C333A033E0
S315080088801B1A002BBEBF95F8BE3443F0010385F8CA
S31508008890BE3495F8C714B5F8C43495F8C62400292B
S315080088A070D1002A40F08380002B40F08780D5F8ED
S315080088B0C4042BF003FD636C5A0620D54B4EB6F85C
S315080088C07C3443B1013B9BB2A6F87C341BB906F550
S315080088D08F601DF067FCD6F878546DB1013DC6F877
S315080088E078544DB9022022F0BFFC414829461DF0B4
S315080088F033FD284624F0E4FE3D4819F0E1FA636C9E
S31508008900DB056ED50020034605463A49A1F2A46662
S31508008910CA787AB1013AD2B2CA7032B1086806EB9F
S315080089208302C2F8A406012001330135232D01F183
S315080089300401EDD1002104EB830404F5B554073492
S31508008940222B03DC14F8042B002A46D1002848D130
S31508008950082002B0BDE8F04125F067B88B69EB1A2C
S31508008960B3F5FA6F0AD34B7938465B0902BFD8F8D4
S3150800897020300133C8F82030FFF7E0FB6846FEF7E1
S3150800898021FF66E70139C9B285F8C714002988D1DD
S315080089901AB1013AD2B285F8C62423B1013B9BB27B
S315080089A0A5F8C4348BB11448FFF70CFF7FE7013AEA
S315080089B0D2B285F8C624002AEFD075E7013B9BB2F0
S315080089C0A5F8C434002B7FF472AF95F89D34002BBC
S315080089D0E9D0012385F89D34E5E704F8041C013342
S315080089E0AEE702B0BDE8F081F01F0020F03F00209E
S315080089F0684400209436002074440020002A00DAD7
S31508008A00FEE71144FCE638B50D460446FEF7BCFD04
S31508008A102A4601462046BDE83840EFE710B590F8EB
S31508008A202430044643B1012B01D1436983612046B2
S31508008A30A169BDE81040E6E74169B1EB510F4FEA7D
S31508008A40510001D9FFF72CFC0023A061E38384F8C9
S31508008A502530ECE710B590F8243004467BB1012B9D
S31508008A6008D10169C0680131FFF71AFC6061204628
S31508008A70FFF7D4FF2046236ABDE81040184790F850
S31508008A8025306BB1012BF5D1426922B10369991AD8
S31508008A908A4298BF530020466361BDE81040BDE78F
S31508008AA0012380F82530D0E90513C91AFFF7ABFF73
S31508008AB0E28BA38B9A42DDD310BD064B06485A6952
S31508008AC0196A914208BF9A6901F1804104BF0132CF
S31508008AD09A6195E6F01F00200C20002083689842D2
S31508008AE003D04368CB1A002B00DA89E670470146A3
S31508008AF0014A0248FDF786BC40330408F81F0020E7
S31508008B00D1E9003103F10043013B8B4200D077E6FF
S31508008B10EDE710B5044692B068462BF047FC61684D
S31508008B2002A82BF07AFC029931B9694604F11000C3
S31508008B30FFF7E6FF12B010BD04A8FEF79DFF6846D2
S31508008B400F99FFF74FFE02A8FEF73CFEEBE72DE96B
S31508008B50F0410546144604301E46069F9DF81C80C3
S31508008B60FFF7ECFA2846FFF7D4FF656A3DB143469E
S31508008B703A463146AC46A06ABDE8F0416047BDE8D2
S31508008B80F0812DE9F04192B004460D46416802A8ED
S31508008B902BF043FC0B274FF00008029E16B912B0C3
S31508008BA0BDE8F081314604A8FEF766FF25B12946DF
S31508008BB004A8FEF74FFC38B1002331462046CDE91C
S31508008BC0008704AAFFF7C3FF02A8FEF7FBFDE4E748
S31508008BD02DE9F04F9FB00093289B0646084601935F
S31508008BE0FEF7DFFC02280C4617460CD0032801F1D5
S31508008BF0310300F0F280B28923F00103511C52BA06
S31508008C00B1815A8045E006A8FEF7DBFCFEF7BCFCFE
S31508008C103A4600F57130D83006F12C09059006ABB6
S31508008C2007F1200C1D4610685168083203C56245D5
S31508008C302B46F7D110682146286092884846AA80B4
S31508008C403A46FEF727FF054618BBF16A03A82BF03C
S31508008C50E4FBAA46AB46DDF80C80B8F1000F40F0FD
S31508008C609C801FFA8AF3092B03D929464846FFF741
S31508008C7065FA20466189FFF72DFA054648B12C2288
S31508008C8005A9FFF749F8002800F09D802846FEF759
S31508008C909FFD2046FFF722F82046FEF789FC0028AC
S31508008CA000F0A280B4F80AB0BBF1000F00F0B6805D
S31508008CB010AB3D46994607F1100C1A4628686968B4
S31508008CC0083503C265451346F7D17B8C14AAADF85F
S31508008CD0603005F1100C134628686968083503C327
S31508008CE065451A46F7D1009A97F825301992019AE0
S31508008CF0C3F300131A92BDF874209B0222F49F62F4
S31508008D0022F0070243F00403134340F6B9314FF447
S31508008D10FA60ADF87430FFF7C3FA9DF875301C9009
S31508008D206FF3000320468DF87530FEF741FC9DF879
S31508008D30753060F341038DF87530FEF725FC9DF814
S31508008D40753059469B074CBF1C9B384B18441B90E3
S31508008D502046FFF7BFF9054600285AD0382249466B
S31508008D60FEF7DAFF002851D106F1040829464046E5
S31508008D7025F0A8FC3046FFF7CCFE21463A46304699
S31508008D80FEF71DFC0446002844D040462946FFF756
S31508008D90D5F93046FFF7BDFE3CE011A8FEF711FCF9
S31508008DA0414610A8FEF76FFE25B1109AA2EB0B02FA
S31508008DB0002A02DA4546DDF840B003A8FEF702FDB0
S31508008DC00AF1010A47E72946484625F07BFC05993A
S31508008DD006F13400FFF782FE5BE723F001035B78B8
S31508008DE0002B3FF456AFFEE72046FEF7DAFB0128D4
S31508008DF014D1009B93B104F1310323F0010393F8D6
S31508008E0000B00BF00F0B0BF1040B51E72846FEF7E9
S31508008E10DFFC032420461FB0BDE8F08F3A46214602
S31508008E2030461FB0BDE8F04FFEF7C9BB486B0100DE
S31508008E30002307B50093FFF7CBFE03B05DF804FBEC
S31508008E402DE9F0419CB0C568FEF79EFB064604A8CE
S31508008E50FEF7B7FB696802A82BF0DFFA1C274FF06C
S31508008E600008029C2CB92846FFF753FE1CB0BDE843
S31508008E70F08121460EA8FEF7FFFD199BF31A002B79
S31508008E800EDB9DF86D309A0702D59DF86C305BB9FC
S31508008E90002321462846CDE900870EAAFFF757FE8C
S31508008EA002A8FEF78FFCDCE7013B8DF86C301A9BB5
S31508008EB061895B001A9333441993382338390DEBCB
S31508008EC00302204689B2FEF7E5FE9DF86D30DB0702
S31508008ED0E6D40DF1200C12AB0FCB8CE80F00BDF8D1
S31508008EE058300EA904A8ADF83230FEF751FB9DF8AC
S31508008EF06D309DF83520C3F3800363F304128DF8B3
S31508008F00352061892046383989B2FFF7E3F80446E7
S31508008F100028C5D0014604AA2846FEF750FB0028BB
S31508008F20BED02046FEF754FCBAE72DE9F04701F11A
S31508008F30310727F0010715467B1ACA891C3B9A4256
S31508008F4006460C4694B000D2FEE7B1F80C803846C7
S31508008F50FEF750FB04233A4641462046A7F80E8002
S31508008F60FEF77FFD00284DD13B7803F00F03082B51
S31508008F7048D808F1040120463A1D89B2FEF771FD6A
S31508008F8000283FD10DF1180821464046FEF723FE7A
S31508008F90002837D14FF6FF79BDF81E304B452CD146
S31508008FA0FB89BDF820102046C91A89B23982FEF716
S31508008FB0B6FC7B78013B032B35D9716803A82BF0E7
S31508008FC02CFA05F1100ADDF80C90B9F1000F40F003
S31508008FD0D480F36C002B40F00B812046FEF7E8FAAC
S31508008FE020B92046FEF7DDFA01285DD12B46224638
S31508008FF0032130462BF092FA56E04046FEF7A4FDD0
S315080090000028C9D02B78FF2B4ED02046FEF7D0FA81
S31508009010002849D02B4622460321304614B0BDE825
S31508009020F0472BF07BBA736ADBB92A46214606F16C
S315080090302C00FEF72FFD38BB214603A8FEF7CBFD13
S315080090404FF6FF77002840F02981BDF81230BB4261
S3150800905063D0BDF810300B2B5FD003A8FEF774FD64
S31508009060F0E72946B26A98470028DED017281BD1B0
S315080090702B78FF2B18D02B4622468421304614B075
S31508009080BDE8F0472BF0FAB941892C3989B2FFF7C8
S3150800909021F8074640B1FEF721FE2A4639463046F2
S315080090A0FEF78DFA002857D114B0BDE8F08747457A
S315080090B016BF3A46424602F801ABD7180DF13901F8
S315080090C08F42F1D2BDF814100398C91A89B2FEF777
S315080090D07BFC03A8FEF738FD002840F0DF80BDF8CA
S315080090E012304B4503D0BDF810300B2BF1D1BDF82B
S315080090F012304B45DBD100233B70776D9FB9376A39
S31508009100CFB9736C23BB2B78FF2BCDD02B462246C9
S31508009110842130462BF0B2F9C6E747464FF6FF7969
S315080091204FF02F0AE3E72B46224641463046B8471A
S315080091300028E4D0B8E741463868FFF7D9F828B1DF
S315080091402A4621467B68B8689847ADE7FF68D7E79F
S315080091502A462146B06CF7E7172808D12B78FF2B4B
S3150800916005D02B462246842130462BF087F938460F
S3150800917014B0BDE8F047FEF72BBB49464046FEF75C
S315080091807BFC51460AA8FEF765F920B1BDF83820E0
S315080091906B8C9A4207D09DF82830FF2B03D00CA879
S315080091A012F066FE00B32046FEF7FBF9012815D932
S315080091B00238C0B2012817D809F1310323F0010398
S315080091C05A887B889A420FD12046FEF7EAF9032887
S315080091D03FF66AAFDFE800F04F55211449462046AE
S315080091E0FDF7ACFA0028EFD103A8FEF7EBFAEAE69A
S315080091F02A462146306D984700287FF455AFECE69D
S315080092007B78002B7FF450AF0B22CDE90032424623
S3150800921049463046FFF79BFC46E77B78E3B99DF85D
S315080092204D309A070CD543F001038DF84D30B9F847
S315080092300A10382338394246484689B2FEF72AFDCD
S315080092400F9B002B7FF430AF301D4946FEF776FFA3
S315080092503046FFF75EFC27E73F2B7FF625AF4946EA
S315080092602046FDF76BFA00283FF41EAF0023CDE930
S3150800927000532346CBE72B462246022130462BF0E5
S315080092804DF90F9F002FF1D09DF82830FF2BEDD117
S3150800929000232A4621461098B84705E717283FF4C1
S315080092A032AF01E730B5C46891B001A82BF07EF85B
S315080092B0216803A82BF0B1F8039D35B901A904F17B
S315080092C00800FFF71DFC11B030BD06A8FEF779F9B6
S315080092D0294605A8FEF7D7FB0599019B5B1A002BC3
S315080092E007DB29462046FEF729FF03A8FEF76AFA98
S315080092F0E2E701A8FFF776FAF7E74160024A014676
S315080093000248FDF7A5B800BF4C330408FC1F00202F
S3150800931010B5274C94F87E3E033B032B46D8DFE86E
S3150800932003F002061713BDE8104026F00FB8D4F86C
S31508009330943E987925F06CFED4F8940E0E22BDE87A
S315080093401040002128F046BBBDE8104026F02CB896
S31508009350B4F87C3E9B0700D5FEE724F01BFC7F286B
S3150800936007D094F98F3E7F2B01D0984201DD84F80F
S315080093708F0EFEF709F9D4F8903EC01A002806DACF
S31508009380D4F8E01E0B488031BDE81040B5E794F8E4
S315080093907E3E94F98F0E022B1CBF022384F87E3E74
S315080093A024F030FCBDE8104028F0E5BC10BD00BF35
S315080093B0F02F0020CC3E00200146024A0248FDF765
S315080093C021B800BF4C330408FC1F00204378FF2B4C
S315080093D004D1408840BA80B204307047981C704760
S315080093E038B505460C46FFF7F1FF294682B22046F6
S315080093F0BDE83840FEF790BCF7B50E46174604465A
S3150800940002236A4639463046FEF701FC054680B90E
S315080094109DF8003023709DF80130FF2B0CD00221F7
S31508009420607002333A68C4F80220A288934214D9BD
S315080094300625284603B0F0BD0423394630460DEB11
S315080094400302FEF7E4FBD8B901236370BDF80630C2
S3150800945004215BBA9BB20433E4E79BB2934228BF6C
S3150800946013466288A380134472899BB29A42DFD35B
S31508009470D4F80230A01DC4F80630FEF7F3FED8E78C
S315080094800546D6E773B58B890D4649891646ADF864
S31508009490043099422CBFC3EB0102C3EB0302DB4342
S315080094A092B29BB2934228BF13460446ADF80630E3
S315080094B02946204601AAFFF79FFF38B92378B34209
S315080094C005D0A18801A8FEF7CDFEF1E7172002B066
S315080094D070BDF0B585B0054616460A46014601A890
S315080094E01F46FFF7CFFF044650B9BDF808203B4694
S315080094F0B24228BF32462846BDF806102AF060FF59
S31508009500204605B0F0BD1FB514460A46014601A817
S31508009510FFF7B8FF10B9DDF80A30236004B010BDB4
S31508009520F0B51746428985B0ADF800101E468A4246
S315080095302CBFC1EB0203C1EB0103C9439BB289B23D
S31508009540994228BF19460546ADF802106A460146F3
S3150800955001A8FFF751FF044660B9BDF80C20334651
S31508009560974228BF174628463A46BDF80A102AF0F9
S3150800957027FFF455204605B0F0BDF0B517464289D9
S3150800958085B0ADF800101E468A422CBFC1EB020317
S31508009590C1EB0103C9439BB289B2994228BF194658
S315080095A00546ADF802106A46014601A8FFF724FFF2
S315080095B0044660B9BDF80C2096420BD8B2423B4629
S315080095C028BF32462846BDF80A102AF0F9FE20467A
S315080095D005B0F0BD0624FAE710B502231446FFF7D6
S315080095E0CCFF10B923885BBA238010BD042310B5BD
S315080095F01446FFF7C2FF034618B92068FEF78EF82F
S315080096002060184610BD30B585B0044615460A4692
S31508009610014601A8FFF736FF40B901232A4620462E
S31508009620BDF8061005B0BDE83040A6E705B030BD68
S31508009630002213B504468DF80720084663B91021A1
S315080096400DF10702FFF7DFFF0346C8B99DF80720AB
S31508009650B2B1FF2A08BF2523002062786FF34102C2
S315080096606270D4E9092160620AB11846904741F24E
S31508009670883104F1180002B0BDE81040FFF7C3B9FD
S315080096800623E9E730B585B0044615460A4601467D
S3150800969001A8FFF7F7FE38B92A462046BDF8061096
S315080096A005B0BDE8304097E705B030BD30B585B0A8
S315080096B0044615460A46014601A8FFF7E3FE38B9EF
S315080096C02A462046BDF8061005B0BDE830408DE7AD
S315080096D005B030BD73B5154601AA04461E46FFF708
S315080096E012FF28B933462A46204601A9FEF78FFA03
S315080096F002B070BD10B5044601448C4202D3002462
S31508009700204610BDA31C9942F9D36378FF2B02D1DA
S31508009710231D9942F3D32046FFF758FE2044814281
S31508009720EDD323789342EBD00446E6E70222FEF710
S31508009730F3BAFF2B73B5054616461C4614D1042208
S315080097408DF805304FF47F438DF804100DEB0201B8
S31508009750ADF80630FEF7E0FA20B92246314628462B
S31508009760FEF7DAFA02B070BD8DF8001069468DF87A
S315080097700130FFF7DBFF0028F4D1002CF2D0ECE72C
S3150800978070B505460E461C46114618460BB1FEF73F
S31508009790A3FD22463146C3B22846BDE87040C8E755
S315080097A007B501238DF807200DF10702FFF7C1FF62
S315080097B003B05DF804FB07B552BAADF806200223DC
S315080097C00DF10602FFF7B5FF03B05DF804FB13B50C
S315080097D004461046FDF7A2FF042301900DEB030291
S315080097E02046FFF7A6FF02B010BD10B50446FDF7E8
S315080097F0CBFED4E90031E268C01A9A4202D10028A9
S31508009800A8BF013110BD2DE9F3411E461C4B044685
S3150800981083424FF000038B4115460AD216A3D3E9BB
S31508009820002334F019FC1749144602462846FEF769
S315080098302AFF154B4EF66021B4FBF3F203FB1244E4
S31508009840B4FBF1F34FF47A7801FB1344B4FBF8F751
S3150800985028460E490097FEF716FF46B1284608FB2C
S3150800986017420B4902B0BDE8F041FEF70CBF02B043
S31508009870BDE8F081AFF30080005C2605000000001B
S31508009880FF5B26053E31040880EE360044310408A5
S315080098905331040813B5006850B14AB141B10023E9
S315080098A00068019301AB29F038F90EF0A1F900B16F
S315080098B0FEE702B010BD2DE9F843436C1546134484
S315080098C0026C044693420E461AD84FF000084F1908
S315080098D000F11009B74214D1636C1D44236C65640A
S315080098E09D420BD1B4F850302BB104F11002114649
S315080098F02046FFF7CFFF0023A4F85030BDE8F883D1
S31508009900FEE7B4F85030102B06D14A4649462046A1
S31508009910FFF7C0FFA4F85080B4F850305A1CA4F8DA
S315080099205020234416F8010B1A7C50401874D1E7CE
S315080099302DE9F04F1D4685B09DF8383091460293C3
S31508009940C36C826C2B4493420446884629D86FF030
S31508009950200B0F46CA466B18019300F12003ABEBA8
S31508009960000B0393019B9F421CD1E36C1D44A36C1F
S31508009970E5649D426CD3B4F850302BB104F1100263
S3150800998011462046FFF786FF002194F8542002F17D
S3150800999021002044C2F10F0205B0BDE8F04F34F0B3
S315080099A04CBDFEE7B4F85220102A16D104F1300057
S315080099B0024694F854600BEB00018E4206DA10F862
S315080099C0011D0131C9B201700029F4D0204603995E
S315080099D0FFF760FF0022A4F85220029B43BB3E78A3
S315080099E0B9F1000F0AD0B4F85220511CA4F852104D
S315080099F0224492F8302072408AF80020B4F85020A9
S31508009A00102A08D104F1100211462046FFF742FF3A
S31508009A100022A4F85020B4F850200137511CA4F8AD
S31508009A2050102244117C0AF1010A4E40167499E737
S31508009A30B4F852209AF80060511CA4F85210224437
S31508009A4092F830205640B8F1000FD7D03E70D5E7CF
S31508009A5005B0BDE8F08F38B5D0E912329A4204460F
S31508009A600D4600D0FEE700F1300200F12001FFF7B5
S31508009A7011FF002304F10F0294F855108B4200DB06
S31508009A8038BD12F8011F92F820004140E95401330D
S31508009A90F2E72DE9F04F056889461746A5B0002D6F
S31508009AA000F020812B68002B00F01F81042B33D097
S31508009AB0052B36D0012B40F0DF80A868002800F07F
S31508009AC00E818D4B20F47E149C421AD1EB680BB1A3
S31508009AD0E86C38B989481EF000F90446002800F0F9
S31508009AE0F08038E005F0ACFA10F1860F06D00028B1
S31508009AF0F1D09330EED16FF06F00ECE76FF07100A4
S31508009B00E9E77F4B0340B3F1607F40F0E88005F159
S31508009B1010001EF07BFFE0E705F1080005F090FA5B
S31508009B20DBE7D5F88840764B05F1080B2340B3F1FF
S31508009B30607F40F0CC80D5F8AC10002940F0CF808B
S31508009B4028221AA834F079FC1AA837F0BBF8804600
S31508009B5028B16FF0920428461FF0A0F8B2E0E3B2ED
S31508009B6043F0007303F17E43053B062B00F29D800C
S31508009B70DFE803F0909B9B8D930485003026042331
S31508009B80C4F30544B44277D8002C18BF2646202EC5
S31508009B907AD85C495A1E51FA82F292F8E0A0BAF1D4
S31508009BA0200F7FD8584A584602EB03231A930023FE
S31508009BB012A9CDE91B33229304F0F2F904460028D2
S31508009BC071D112991AA837F084F839461AA837F0CD
S31508009BD080F86946584604F0BCFA0446002862D163
S31508009BE069461AA804F0F2FA584603A904F0C8FA16
S31508009BF00446002857D1012403A91AA847F000579C
S31508009C0004F0E4FACDF83C9006AB10940FAA11972D
S31508009C1007CA83E8070019461AA804F0D7FA12AB50
S31508009C200C934AF000530D940CAA0E9309AB07CA7D
S31508009C3083E8070019461AA837F054F81AA836F028
S31508009C4027FA044678BB324612A905F18C0034F08F
S31508009C5013FE0023C5F8AC6012AA02F8083008F112
S31508009C600108B8F1200FF7D1212C21D11AA837F015
S31508009C7029F800287FF46DAF6FF086046BE714F4BB
S31508009C807C1FC4F305460BD16FF0890463E71C26D5
S31508009C90022375E71426012372E7202603236FE7BC
S31508009CA0052374E721240026D3E76FF0850452E7DD
S31508009CB0002C7FF44EAF1AA837F004F800287FF47A
S31508009CC048AF002420460DF093FF88B1FEE71346FF
S31508009CD005F188000A46594604F0E0FDFDE66FF0F6
S31508009CE0880438E76FF08604ECE76FF08804E9E744
S31508009CF025B0BDE8F08F00BF0002C003009FFFFF3C
S31508009D000000C07F3C33040800010203006808B560
S31508009D1028B104491EF0D0FE0DF06AFF00B1FEE737
S31508009D2008BD00BF09000002006808B528B121B1C6
S31508009D301EF06CFE0DF05CFF00B1FEE708BD10B525
S31508009D4086B00446ADF80630084603AB11460DF159
S31508009D500602FDF702FEBDF810200AB906B010BDCE
S31508009D6020460399FFF7E0FF03A90DF1060025F049
S31508009D700FF8F0E7002307B50068019330B12022F9
S31508009D8001AB1EF043FF0DF033FF00B1FEE703B051
S31508009D905DF804FB1F299DBF0068C84000F001005C
S31508009DA00020704710B50B780446FF2B04BF0A2322
S31508009DB00B700B780A460133D9B21A29117001D9EA
S31508009DC0172010BD2046FFF7E5FF10B90131C9B2CB
S31508009DD0F3E70020F5E7837FC22003F00F03D8409E
S31508009DE000F001007047012938B50446456832D1AC
S31508009DF024F03EFB237E9A0702D5642828BF6420F8
S31508009E005B0715D5A022214BB0F57A7FB3F86A3ED9
S31508009E1028BF4FF47A70534303F5FA73B3F57A7F84
S31508009E2006D34FF47A72B3FBF2F3984228BF18466A
S31508009E30637E0F2B02D9BC2828BFBC20A36833F049
S31508009E407C4204D0C3F31903984228BF1846002859
S31508009E5008BF0A206060FDF797FB6369014604F1B5
S31508009E600C0098420DD06268AA420DD0531A246895
S31508009E700A3BE3424CBF0A222146BDE83840FEF7BA
S31508009E80BDBD62682160F8E738BD00BFF02F00202D
S31508009E9010B531B1092919D96FF07C43994228BF09
S31508009EA0194600F50052136CC3F319048C420BD003
S31508009EB061F31903136492F85030DB0704D5104692
S31508009EC001213830FFF78FFF002010BD0720FCE77F
S31508009ED0038910B58B420C4605D1BDE810404FF4F6
S31508009EE0004024F025BA01814FF4004024F080F99F
S31508009EF02046BDE8104024F0F5BA10B502780446AD
S31508009F005107437817D4120701D5F3B110BD002BBA
S31508009F10FCD1B0F8A030FBB190F83630072B1CBF47
S31508009F20072380F83630838E1906EFD4BDE8104033
S31508009F303430FCF7D9BC002BE8D14388180604D581
S31508009F40E16904F1D000FEF75BFCE17A04F1340024
S31508009F50BDE810402AF0E6B990F84630DA070AD488
S31508009F60838EDB0507D594F83630012BCED0012336
S31508009F7084F83630CAE725F009F80028C6D1F2E792
S31508009F80012342888B4013434380437813B9C83072
S31508009F90FEF718BC704770B50578ED071DD54578EE
S31508009FA0012D1CD0468816F0020F18D1022D16D0A6
S31508009FB0C6F38005760712D48362049B4282C36285
S31508009FC0FF230374C368002908BF19460B40436181
S31508009FD00221FFF7D5FF284670BD0D20FCE70520B6
S31508009FE0FAE770B50578ED0722D54578012D21D019
S31508009FF0468816F0020F1DD1022D1BD0C6F3800528
S3150800A000760717D48362049B002AC3624FF0FF03C6
S3150800A0100374C36808BF4FF49672002908BF19462F
S3150800A0200B40428243610121FFF7AAFF284670BD13
S3150800A0300D20FCE70520FAE700230380704700F4AB
S3150800A0404052B2F5005F034620D148F2400220F4A0
S3150800A0504E5020F03F0090421ED00CD8B0F5446F09
S3150800A0601AD005D8C8B1B0F5046018BF01207047EA
S3150800A070B0F50040F9E703F44C43B3F5404F0BD075
S3150800A0804CF64043C01A18BF0120704710F4406FC1
S3150800A09014BF0120002070470020704738B50568B6
S3150800A0A00C4628462AF026FBFFF7C9FF40B128468A
S3150800A0B02AF022FBFF2803D02B5A0020238038BD24
S3150800A0C00620FCE738B505680C4628462AF012FB38
S3150800A0D0C30500D5FEE7AC7038BD00F44053B3F5B0
S3150800A0E0005F04D100F44C43B3F54C4F07D0B0F5EC
S3150800A0F0804F04D380F04000C0F3801070470020E2
S3150800A1007047838810B5032B12D900682AF0F2FA33
S3150800A11080F480720446C2F30021FFF790FF48B925
S3150800A1208A1CC4F38123022B06D0032B17D02BB12C
S3150800A130FF2212E00A1DF4E70232D2B22046FFF7E8
S3150800A140CCFF08B10232D2B2C4F38134022C08D053
S3150800A150032C09D0002C18BFFF22104610BD083268
S3150800A160EBE70232D2B2F8E70832FBE7F8B5076840
S3150800A1700E4638462AF0BEFA0546FFF7AEFFD0B1BE
S3150800A18038462AF0B9FA04462846FFF758FF08B1B8
S3150800A1900234E4B2C5F38125022D07D0032D08D079
S3150800A1A0FF2C08D000203B5B3380F8BD0234E4B2B4
S3150800A1B0F6E70834FBE70620F7E7838810B5022B95
S3150800A1C0044607D900682AF0B0FA18B12046BDE857
S3150800A1D0104096E7FF2010BD38B505460C46FFF738
S3150800A1E0ECFFFF2817BF2B6806201B5C00201CBF4E
S3150800A1F003F00703237038BD38B505460C46FFF74C
S3150800A200DCFFFF2817BF2B6806201B5C00201CBF3D
S3150800A21003F01803237038BD38B505460C46FFF71A
S3150800A220CCFFFF281FBF431C2A68DBB2D35816BFD2
S3150800A23000200620236038BD38B505460C46FFF7D2
S3150800A240BCFFFF2800D1FEE72A68431CD9B2545444
S3150800A25052FA83F3220A5A70220C240E9A70DC7082
S3150800A2602B7F43F001032B7738BD00F01800102828
S3150800A27005D0A0F1180358425841C0007047042081
S3150800A280704708B54307024608D0FFF7EEFF12F0FD
S3150800A290180F0CBF05300630C0B208BDFF20FCE71A
S3150800A2A02DE9F04F057B0688B0F8029087B0031DAC
S3150800A2B0012D04460F4646EA090B019330D0022DBC
S3150800A2C00CBF0322002294F816A04BEA823BBAF18F
S3150800A2D0010F04F10E0825D0BAF1020F2FD0BAF1FA
S3150800A2E0000F21D1A37F94F82120003B18BF01233A
S3150800A2F0B9F5805F4BEAC30305D0B9F5005F21D0F5
S3150800A300B9F1000F29D145B1BAF1000F05D0208B5C
S3150800A310618B884208BF43F04003D60721D5FEE784
S3150800A3200222D0E74BF4006B5146E0892AF00EF87A
S3150800A3300028D7D1022E18BF4BF0200BD2E74BF4DA
S3150800A340406BF1E7BAF1000F40F09480617F002D71
S3150800A35040F08880002940F09A80D50748BF43F42A
S3150800A3608073C2F3400243EA42253B6804A804937B
S3150800A3704FF4FE03294605932AF02AF8E80503D484
S3150800A380012104A8FCF719F82846FFF758FE18B16A
S3150800A390618B04A82AF01CF804A841462AF023F881
S3150800A3A02846FFF79AFE18B1218B04A82AF010F860
S3150800A3B0211D04A82AF017F8BDF81430BB80A67F23
S3150800A3C0A6B1E37F0DF10F011E4304A88DF80F60B7
S3150800A3D0FDF7D6F93046FFF754FF411E89B204A8A7
S3150800A3E0FBF7EBFF3046FCF797F8064694F8213062
S3150800A3F099070ED5022104A8FBF7DFFF0D230421D8
S3150800A4004370017004A8FBF7D8FF3B7F43F00803AD
S3150800A4103B77AA0523880ED5032B03D094F8213061
S3150800A4205B0714D4022104A8FBF7C7FF6FF07F036C
S3150800A43003703F2343702388032B08D194F82030F8
S3150800A4400DF10F0104A88DF80F30FDF799F90236C2
S3150800A450B1B204A8FBF7B1FFBDF81430BB8007B052
S3150800A460BDE8F08F00297FF478AF217F00297FF4BB
S3150800A47074AF0CE00DB9617FF8E7022D02D1BAF18D
S3150800A480020FF8D0208B618B88427FF466AF43F0C9
S3150800A490400362E770B50546FFF733FEFF2804461A
S3150800A4A011D02E6830462AF040F960B1A9888C424E
S3150800A4B00BDA305DFFF7E5FEFF2808D00444E4B266
S3150800A4C0A142B8BFFF24204670BDFF24FBE704461F
S3150800A4D0F9E770B506460D46FFF76FFEFF280446F6
S3150800A4E009D03268105CFFF7C0FE224402440020FF
S3150800A4F053792B7070BD0620FCE770B506460D46ED
S3150800A500FFF75BFEFF28044600D1FEE73268105CC1
S3150800A510FFF7ABFE22440244557170BD10B50446E0
S3150800A520FFF74BFEFF2806D02368185CFBF7F4FFFD
S3150800A5300230C0B210BD0220FCE770B50646FFF730
S3150800A540A9FFFF2804462CD0356828462AF0D2F8F9
S3150800A55083051BD53046FFF7E1FFB188A21C93B2ED
S3150800A56010FA82F28A4205EB04061CDC2A5D02F028
S3150800A5707F0213449CB210FA83F3994213DB3288A4
S3150800A580C2F3C7127F2A01D09942E7DC2B7803F081
S3150800A5900703032B05D128462AF0BDF808B901346C
S3150800A5A0A4B2E0B270BDFF24FBE738B50546FFF755
S3150800A5B0C4FFFF28044614D02868037803F007036D
S3150800A5C0032B04D12AF0A7F808B10134E4B22846CF
S3150800A5D0FFF7A4FFAB8804449C42CCBF06200020AA
S3150800A5E038BD0620FCE710B50446FFF7A6FFFF288E
S3150800A5F016BF23680020C01810BD10B50446FFF723
S3150800A600F2FF2368C01AC0B210BD70B50546868829
S3150800A610FFF7F3FF04462846FFF780FF0444301B84
S3150800A62080B270BD10B5044600682AF063F8830549
S3150800A63003D52046BDE810402CE7FF2010BD08B51D
S3150800A64024F020FF003818BF012008BD08B524F003
S3150800A65019FF00B1023008BD00232DE9F0419EB074
S3150800A66003930AAB08930823044600680D46ADF821
S3150800A67024302AF05AF8002859D020460DF10B014B
S3150800A680FFF7AAFD002852D1204603A9FFF7C4FD0B
S3150800A690064600284BD10DF110084346286869681C
S3150800A6A09DF80B2003C303981946FCF78EFFA36891
S3150800A6B08DF81C20196808A829F073FE2046FFF7B4
S3150800A6C02DFF05462046FFF798FF07462046FFF769
S3150800A6D09CFFAB1EDBB20246394608A8CDF80080BF
S3150800A6E023F0E4FA2046FFF788FF25680246294644
S3150800A6F008A8FFF7E0F82046FFF775FF054620464D
S3150800A700FFF783FF2A460346294608A80096FFF75F
S3150800A7100FF92046FFF702FFA38825681B1AE918D8
S3150800A72008A8FFF798F9237F43F0100323771EB094
S3150800A730BDE8F0810023F0B5A3B003930EAB0C93EC
S3150800A7400823044600680D461646ADF8343029F04D
S3150800A750ECFF30B120460DF10B01FFF73DFD10B1BE
S3150800A760082023B0F0BD204603A9FFF755FD0028B1
S3150800A770F6D104AF3B46286869689DF80B2003C3E9
S3150800A78003981946FCF721FF31680CA88DF81C20A0
S3150800A79029F007FE2046FFF7C1FE851E2046FFF773
S3150800A7A02CFF06462046FFF730FFEDB22B46024641
S3150800A7B031460CA8009723F079FA2046FFF71DFFCB
S3150800A7C02668024631460CA8FFF775F82046FFF7BB
S3150800A7D00AFF06462046FFF718FF012203463146C0
S3150800A7E000920CA83246FFF7A3F808A90CA8FFF7B1
S3150800A7F032F92046FFF792FEA3882668181A311800
S3150800A8002A4608A835F00EF8003818BF0120C000FF
S3150800A810A7E70B6803604B684360037883F002037D
S3150800A82003707047082208B534F0FCFFB0FA80F0D0
S3150800A830400908BD10B5044600680DF04FFC4FF0FE
S3150800A8400043236010BDF0B5002787B004460068B2
S3150800A8500E46154605970DF041FC4FF00043236060
S3150800A86010234FF41051CDE90163074A45F44073AC
S3150800A870009705A818F0A4F80DF0BAF900B1FEE79C
S3150800A880059B236007B0F0BD0044400408210DF085
S3150800A8901BBC01F1080313F8012D8B4200F8012BAC
S3150800A8A0F9D17047F8B507680E46384629F024FFEF
S3150800A8B00446384629F01EFF0546FFF7C0FB04EBA1
S3150800A8C04003DBB2FF2B13D0C5F38120022805D045
S3150800A8D0032807D0002300203372F8BDFB5A3380C3
S3150800A8E00123F8E7F9183046FFF7D3FF0223F2E70A
S3150800A8F00620F2E7F8B507680E46384629F0FAFE4C
S3150800A9000546384629F0F8FE04462846FFF797FB21
S3150800A91008B10234E4B2C5F38123022B12D0032B0B
S3150800A92013D02846FFF7D9FB08B10234E4B2FF2C4E
S3150800A93006D0C5F38135022D09D0032D0DD04DB1B2
S3150800A940062009E00234E4B2EBE70834FBE7012508
S3150800A9503B5B338000203572F8BD30463919FFF766
S3150800A96098FF0225F6E708B5044BC180002218684F
S3150800A97034F000FB00B1FEE708BD00BF5C190020FB
S3150800A98007B50A68C0F80A204A68C0F80E20684663
S3150800A990FFF77FFF0723094A1DF80310013B02F85A
S3150800A9A0011BF9D2064B00226946186834F0E8FA0A
S3150800A9B000B1FEE703B05DF804FB00BF7056002047
S3150800A9C05C1900202DE9F043044689B0B0F86C60A4
S3150800A9D00FF027F8E36F514AC11A94F88000002354
S3150800A9E03230A1FB000133F037FBA02794F8813001
S3150800A9F07E4303EB830300EB430000F1780300F585
S3150800AA00647520467608B54228BF35469E4228BF5B
S3150800AA101E4630F8843BA16F13F0800254D0B4F878
S3150800AA206C305F433944491BFEF767FCA36FD4F8C3
S3150800AA3074803B44A3673A4B07EB08021A61A37874
S3150800AA40626713F0FD0F35D094F86E7024F0BEFAE5
S3150800AA5004463448C7F3060907F07F0734F00AFFAF
S3150800AA6040BB214638460DF01FFC044610BB0121A9
S3150800AA70202034F0E7FEFF238DF804300123A5F5E6
S3150800AA801675294807948DF81C30A8EB050304931E
S3150800AA9035443946006801AB04AACDE90244059459
S3150800AAA0069534F021F840B9204B83F80690204BE0
S3150800AAB083F8069009B0BDE8F0832146202009B046
S3150800AAC0BDE8F04334F0BEBE94F86E305FEAD31C9E
S3150800AAD00CD062F3C71384F86E30491BFEF70DFCE1
S3150800AAE0204609B0BDE8F043FBF7FEBE3144B4F892
S3150800AAF06C50FEF702FC94F86E307D4343F08003F9
S3150800AB0084F86E3008F006FEA26F636F2A44A267C7
S3150800AB10034A2B4463671361E2E700BF40420F0014
S3150800AB20341B0020400001005C190020F01A0020A8
S3150800AB30C01A0020F8B50446B4F86CC090F86E0048
S3150800AB408C45069DB4F8706000F07F070CD094F829
S3150800AB506E0062F3060084F86E004FF6FF729142AB
S3150800AB60A4F870300CD1FEE7974206D062F30600CF
S3150800AB709E4284F86E00F0D1F8BD9E42E7D1FBE70D
S3150800AB804FF6FD72934209D815480246C16022F86D
S3150800AB90023B2B68C0F802306B68536094F86E303D
S3150800ABA0A4F86C106FF3C71384F86E3004F18400B0
S3150800ABB0FEF702FCB4F86C304BB10EF032FF60675A
S3150800ABC008F0A8FDA0672046BDE8F840FAE6238805
S3150800ABD01B06D1D42046BDE8F840FBF785BE00BF6A
S3150800ABE0341B002013B590F82030DB0717D590F8F2
S3150800ABF0212002B9827A0B4C343004F18003009389
S3150800AC0030F8121CB4F89C30FFF794FF23F05CFA76
S3150800AC1004F1580002B0BDE8104013F063BB02B05F
S3150800AC2010BD00BFF03F002008B519B1A1F10B0314
S3150800AC300F2B0ED800F5805393F8692E8A4206D05A
S3150800AC4000F5F25083F8691E0830FFF7CBFF0020A5
S3150800AC5008BD0720FCE710B504460C30FFF79AF844
S3150800AC6000B3A27A8A4205D14FF4804023F060FBF4
S3150800AC70002010BD4FF48040A17223F0B9FA04F504
S3150800AC80B470FFF7D9F923789B06F1D4A37AE37257
S3150800AC9094F8213013B92046FFF7A4FF2046FFF7A2
S3150800ACA02CF9E5E70720E4E71FB590F820300446BD
S3150800ACB0990703F001020ED5418C61B1F2B943F050
S3150800ACC0010380F82030FFF78DFF204604B0BDE869
S3150800ACD01040FFF712B98AB1002294F820301146C5
S3150800ACE06FF3000384F8203002AB009304F13400BC
S3150800ACF04FF6FE73CDE90222FFF71CFF04B010BD24
S3150800AD00024608B569B902F58052B2F86A3E00F5FE
S3150800AD10F25008301BB1A2F86A1EFFF7C5FF0020E3
S3150800AD2008BDA020B1FBF0F300FB1310F0B94FF6F5
S3150800AD30FF70834228BF0346B1F51B5F9BB215D34C
S3150800AD4002F5F25002F58052B2F86A1E08308B42BC
S3150800AD50E5D0A2F86A3EB1FA81F2B3FA83F3520952
S3150800AD605B099A42D9D1FFF73DFFD8E70720D7E715
S3150800AD70004827E66C3E00200A4690F8FE10FEF7CB
S3150800AD80B9BC002910B514BF33210E211446FFF7AC
S3150800AD90F3FF38B1D0F802302360D0F8063000202F
S3150800ADA0636010BD1720FCE7F8B5044618300D4659
S3150800ADB0FDF79DFE4FF0FF3323746374A374E374A9
S3150800ADC023756375A375E37523726372A372E372C1
S3150800ADD023736373A373E37395F8FE30DBB12646DA
S3150800ADE06378284643F00103637016F8087B3246F9
S3150800ADF03946FFF7C6FF28B996E8030004F11003A1
S3150800AE0083E8030017B9284627F0BEF82078BDE87E
S3150800AE10F84029F065BAF8BD2DE9F041074688469D
S3150800AE2003261B4D86B0013E02D106B0BDE8F0816F
S3150800AE303B7803BB6B7803F50033404629780593C6
S3150800AE40FFF79AFF044600B34278F2B1FF2A0CBF17
S3150800AE500423022303440193012341F201010292D0
S3150800AE6000934FF0004205A817F0AAFD0CF0C0FEAB
S3150800AE70014610B1FEE7AB78DDE76278FF2A0CBF22
S3150800AE8004200220204433F0D8FA0335CBE700BF6C
S3150800AE902134040870B50D46C2B00446FBF7B4FC6D
S3150800AEA095F8FE60002E3BD12378002B14BF0220B4
S3150800AEB0012022F0FFFD0C2800D1FEE7637866F337
S3150800AEC0000322466370284612F8081BFFF759FF4D
S3150800AED048B14FF0FF3323726372A372E372237390
S3150800AEE06373A373E373FCF74FFB23786060012B4E
S3150800AEF02FD11948FDF7FBFD34212846FFF73CFF03
S3150800AF0038B3FBF71EFB154B0246984228BF1A4674
S3150800AF10D5F80011104842B0BDE87040FDF76EBD87
S3150800AF2001A829F0E5F93246294601A833F0A4FC20
S3150800AF30D5F80031204601A941938DF80261FFF743
S3150800AF406BFF207801A923F061F8637843F00103C9
S3150800AF50B7E742B070BD00BF8C3D00200014730FE8
S3150800AF6070B50C460546C2B001A829F0C1F994F897
S3150800AF70FE602146324601A833F07EFCD4F8003143
S3150800AF80284601A941938DF80261FFF745FF287805
S3150800AF9001A923F03BF842B070BD10B591F8FE2028
S3150800AFA00446FF2A09D080F8FE2033F065FCFCF73A
S3150800AFB0EBFAC4F80001002010BD0720FCE72DE9D4
S3150800AFC0F8430F46984690F8FE4005461646FFF7A2
S3150800AFD0D3FEC4F1FE040146A4B208F1020918B969
S3150800AFE04C450AD2032021E0437802331C44A4B21C
S3150800AFF04C45F7D32846FBF723FC95F8FE30B8F105
S3150800B000FF0F994405EB030085F8FE90EF5414BF33
S3150800B010022304234246314680F80180184433F05F
S3150800B0202BFCFCF7B1FAC5F800010020BDE8F8834F
S3150800B03010B50446FFF7A0FE014620B12046BDE83C
S3150800B0401040FBF7FDBB10BD00232DE9F74FFE228C
S3150800B05081F8FE3003780546002BADF8042014BFAE
S3150800B0600220012001AA0C4622F08EFE074600287F
S3150800B07042D1BDF80430FE2B3DD88146314E84F8C6
S3150800B080FE3006F1060B2B78002B39D196F801A075
S3150800B09020463178FFF770FE804698B142788AB12B
S3150800B0A0FF2A0CBF0421022101AB01440AF5003036
S3150800B0B00CF002FF38BB98F80120019B9A4218BF92
S3150800B0C04FF0010903365E45DDD1B9F1000F03D013
S3150800B0D021462846FFF744FF2B78BBB93321204683
S3150800B0E0FFF7A6FF34212046FFF7A2FFFCF74CFA2C
S3150800B0F0C4F8000100E01727384603B0BDE8F08F12
S3150800B10096F802A0C4E74FF00109DBE73421204690
S3150800B110FFF732FE06460028EED0FBF712FA0A4B76
S3150800B1206D68984228BF18468046FCF72DFA431BDF
S3150800B13098458ABF2D1A002005EB0800B11CFCF7BC
S3150800B14044FAD3E7213404080014730F30B50446D3
S3150800B150C3B001A829F0CCF801A92046FFF774FF6F
S3150800B160054601A92046FFF71FFE284643B030BD15
S3150800B17070B50C460546C2B001A829F0B9F8FF22F9
S3150800B1800021204633F059F9284601A9FFF75CFF4C
S3150800B190054640B99DF802612046324601A933F0BA
S3150800B1A06BFB84F8FE60284642B070BD4FF0FF3353
S3150800B1B010B50446037443748374C37403754375E6
S3150800B1C08375C375037243728372C37203734373C1
S3150800B1D08373C37343786FF300034370FBF714FB61
S3150800B1E02378002B14BF0220012022F063FC0C28D0
S3150800B1F000D1FEE704F11800FDF779FC2378012B4E
S3150800B20002D10448FDF773FC2078BDE8104029F008
S3150800B21067B800BF8C3D002038B500F5005393F899
S3150800B2205930044693B900F5F2500830FFF713FD7C
S3150800B230054648B904F5EA500430FFF7B7FF04F5A8
S3150800B240EB501030FFF7B2FF284638BD0D25FBE757
S3150800B25038B500F5005393F85950044685B900F5FA
S3150800B260F2500830FEF734FE04F5EA500430FFF7D2
S3150800B2709DFF04F5EB501030FFF798FF284638BDC0
S3150800B2800D25FBE72DE9F04105460E46B9B300F555
S3150800B290005393F85940A4BB00F5805800F5EE57C3
S3150800B2A0D8F8D80D1837814210D14FF4802023F0F2
S3150800B2B03FF805F5EA500430FFF778FF05F5EB503F
S3150800B2C01030FFF773FF2046BDE8F0810CF006FF4B
S3150800B2D04FF48020C8F8D86D22F08AFF4FF48070AA
S3150800B2E022F086FF3846C8F8DC4D12F0FDF8064B0A
S3150800B2F0C3E92444C3F89840C3F88C40D9E7072427
S3150800B300E1E70D24DFE700BFF03F002070B58CB001
S3150800B310054602A80C46FCF754F94FF2BF03ADF8F0
S3150800B3202A306B78990732D42B78002B14BF1C204F
S3150800B3300D2023F0B1FC064658B3214694F8FE20AA
S3150800B340FCF7EAFC0446F0B902A81AF025FF4FF00C
S3150800B3507F42114C06AB94E8030083E803000F4BC9
S3150800B360A4F63820CDE9082331460D4B009502AAEC
S3150800B370FDF72EFC044630B96B7843F002036B7078
S3150800B38020460CB070BD3046FCF722FAF8E71824C0
S3150800B390F6E70324F4E700BF38420020FE00FC006D
S3150800B3A03196000838B515461FF07CFE044650B1A4
S3150800B3B001462A460448FDF73BFD20B12046BDE874
S3150800B3C03840FCF705BA38BD00380020024690F828
S3150800B3D0403030B5C4189442154606D1402B08D0E3
S3150800B3E05A1C80F84020C15403E02D7801328D4262
S3150800B3F0F1D130BD2DE9F0419CB0804601A80C463C
S3150800B4001F461646229DFCF7DCF84FF2BF03ADF83F
S3150800B410263000238DF86C3023781BB10E210BA83B
S3150800B420FFF7D4FF63781BB133210BA8FFF7CEFFD4
S3150800B430A3781BB105210BA8FFF7C8FFE3781BB15A
S3150800B44003210BA8FFF7C2FF23791BB102210BA822
S3150800B450FFF7BCFF63791BB107210BA8FFF7B6FFFF
S3150800B460A3791BB134210BA8FFF7B0FFE3791BB111
S3150800B47001210BA8FFF7AAFF237A1BB100210BA80D
S3150800B480FFF7A4FF237B1BB14A210BA8FFF79EFFFA
S3150800B490637A1BB104210BA8FFF798FFA37A1BB1A7
S3150800B4A00C210BA8FFF792FFE37A1BB135210BA8F5
S3150800B4B0FFF78CFF3744BE422BD198F80030002B9B
S3150800B4C014BF1A200B2023F0E7FB064600283CD0C1
S3150800B4D09DF86C301BBB01A81AF05EFE1C4B05AA32
S3150800B4E093E803004FF07F4382E803000793FE23A7
S3150800B4F0ADF82030F5B9FC23ADF8223031461548B1
