S02300006275696C642F64656275672F736C656570792D64656D6F2D737365642E7333371C
S3150800600008180020090E0108D9590308DD590308A4
S31508006010ADD70008E1590308E959030803CF00087A
S3150800602003CF000803CF000803CF000803CF0008FA
S31508006030ED590308D43C040803CF000803CF000831
S3150800604099F9000803CF000803CF000803CF00081A
S3150800605003CF000803CF000803CF000803CF0008CA
S3150800606003CF000803CF000803CF000819AD0208C4
S31508006070C1AC020803CF000803CF000803CF00080D
S3150800608003CF000803CF000803CF000803CF00089A
S3150800609003CF0008F9CF000803CF000803CF000894
S315080060A003CF0008D5CF0008B1CF000803CF0008FA
S315080060B003CF000805C60308D9CE0308E7F303088B
S315080060C0E3F303084DC60308FDF30308EBF30308DF
S315080060D0A9CE0308EFF3030819CF030881CF0308F5
S315080060E003CF000803CF000803CF000803CF00083A
S315080060F0951D010803CF000803CF000803CF000849
S3150800610003CF000803CF000803CF000803CF000819
S3150800611003CF000803CF000803CF000803CF000809
S3150800612003CF000803CF000803CF000803CF0008F9
S3150800613003CF000803CF000803CF000803CF0008E9
S3150800614003CF000803CF000803CF0008F1020408B4
S31508006150F9B1030803CF0008D1F30308D7F30308FE
S3150800616003CF000803CF000803CF000803CF0008B9
S31508006180F0B5114A114C124E00F00105E3695F079C
S3150800619013D40DB9334213D103EA00078F4207D14E
S315080061A00B4A1A40002A0CBF00206FF00100F0BD10
S315080061B0013AEBD16FF00200F9E74FF0FF30F6E74E
S315080061C06FF00100F3E700BF8096980000000350C7
S315080061D002000100000000000000000000000000AE
S315080061E000F58050D0F8EC09704700F58050C0F8EB
S315080061F0EC19704700F50050B0F8CA04704700F56E
S315080062000050B0F8C804704700F50050D0F83C06B6
S31508006210704730B5E9B100F5805393F8D62D00F5EF
S31508006220EE50123000EB42048442054603D1022A9E
S3150800623007D1032004E02D8802308D42F4D10020D6
S3150800624030BD501C83F8D60D03EB4203A3F8D21DCC
S31508006250F5E70720F4E7F0B529B300F5805500F512
S31508006260EE501230024695F8D63D00EB43069642AC
S31508006270144601D11720F0BD278802328F42F6D185
S315080062800BB91B88FFDE013BDBB285F8D63D1AB297
S3150800629000EB43039C4218BF30F812304FF0000061
S315080062A018BF2380E7E70720E5E700F5805090F858
S315080062B0520E704700F5805090F8600E70470148FE
S315080062C0704700BF3C2E0408004870473D2E04085E
S315080062D0004870473E2E0408004870473F2E0408C1
S315080062E000F58050D0F8F8097047002908BF4FF428
S315080062F0E151054B00F58050994294BFC0F8F81952
S31508006300C0F8F839704700BF9AC4200000F58050DD
S31508006310D0F8FC097047074B00F58050002914BFD8
S315080063200A461A46044B9A4294BFC0F8FC29C0F89C
S31508006330FC397047007512009AC4200000F5005019
S31508006340406E704700F5ED501030704700F5EE507E
S315080063500130704700F58050D0F8DC0D704700F525
S315080063608050B0F8120E704700F58050A0F8121E43
S31508006370704703468288C088114481429DBF1868C9
S31508006380998080180020704770B505680C4625B9B5
S31508006390BDE870404B68084818478B6898476A6894
S315080063A00146831A002BB8BF121A2368A8BF002219
S315080063B0BDE8704000481847F01F002038B50C4665
S315080063C01146A2680346944206D00568AC420BD132
S315080063D00260FFF7D9FFA46038BD94420DD011467C
S315080063E09268002AF9D1F6E72A460021F9E78B6870
S315080063F0002BF0D09B688B60EDE70029F7D1002DC4
S31508006400E9D0AA681A60E6E72DE9F04193680546DF
S315080064100C46164698473246074621462846FFF751
S31508006420CDFF2868002203466BB16168D3F804E003
S31508006430A1EB070CAEEB070898EA0C0F13D4A1EBF7
S315080064400E01002907DA4AB9A060314628462C60B1
S31508006450BDE8F04198E71A469B68E5E79368A360AC
S315080064609460BDE8F081BCF1000FEBE770B50668F3
S3150800647004460D467EB18B6898477368C01A002893
S3150800648009DB20462A463146FFF798FF304633682F
S31508006490BDE87040184729462046BDE8704073E7B6
S315080064A000F5005393F8383613B102490830DDE792
S315080064B0704700BF402E040800F5005393F838369D
S315080064C013B102490C30D1E7704700BF4C2E0408BF
S315080064D0012300F00700834013F0220F09D113F0BF
S315080064E0880F08D113F0440F14BF01200020C00004
S315080064F070470420704710207047D0F8020000BA91
S3150800650070474200400800F0553002F0AA320243B4
S315080065109300920802F0333203F0CC331343180188
S315080065201B0903F00F3300F0F030184300BA704728
S3150800653010B590F830200B4682B1013AD2B280F8F5
S31508006540302000EB0210814207D000F1100250F80B
S31508006550041B904243F8041BF9D110BD144603CC22
S31508006560102C18605960224603F10803F6D1FFDEA5
S3150800657030B50C4687B0054601A920682DF030FFD6
S3150800658070B9606805A92DF042FF48B9A3684BB9F0
S315080065902B68024603F5CE5001A91C3019F086F97E
S315080065A007B030BD0720FBE710B50C684CB900688A
S315080065B0224600F5CE501C30214617F0F1FD204644
S315080065C010BD0720FCE7024B024A14F096BC00BF38
S315080065D0EB610008E16100080968006837F087BFC9
S315080065E00968006837F083BF70B50E6805460C4623
S315080065F086B0304619492DF0BEFCD0B100260434C9
S31508006600206801A92DF0ECFE88B9606805A92DF06F
S31508006610FEFE60B9A368F3B9286885F8406000F5FE
S31508006620B45001AA05F10C01183019F067F806B044
S3150800663070BD30460A492DF09EFC10B1032604347D
S31508006640DEE7304607492DF096FC10B101260434E2
S31508006650D6E70226D4E70720E9E700BF142B04088B
S31508006660172B04081A2B0408014651F80C0B00F5E1
S31508006670B450183017F068BD1346B0F86C202AB12C
S315080066800A4600F15C01024819F08ABB0D207047E2
S315080066908836002000F50050B0F8CA348B4209D07D
S315080066A0A0F8CA14044890F85930022B02D1583081
S315080066B02FF0B4B8704700BFF03F002000F5005334
S315080066C0B3F8C8248A4206D000F51350A3F8C814B4
S315080066D0083017F009BE704708B53130313120F05F
S315080066E0010021F0010103780A7803F00F0302F094
S315080066F00F029A4207D10431043038F098FEB0FAF6
S3150800670080F0400908BD0020FCE710B5044604F5F2
S31508006710005428F05FF8236C33F07C4204D0C3F3AE
S315080067201903984228BF184610BD42F210739942C1
S3150800673010B5044613D800F500539A6E91420CD052
S31508006740996627F091FE074B93F8683EDB0704D558
S3150800675004F50150183019F0A3F9002010BD0720E0
S31508006760FCE700BFF02F0020052938BF0521B1F549
S31508006770E14F28BF4FF4E14138B500F500556B6E7F
S31508006780044699420DD0696627F06EFE95F8593091
S31508006790022B06D104F501501830BDE838402FF019
S315080067A03DB838BD10B503780446002B14BF052044
S315080067B0032000F5003013F091F92378BDE8104066
S315080067C0002B14BF0620042000F5003013F086B90C
S315080067D000F5EE500022183018F008BA38B504460D
S315080067E008464D7894F8FE20A91C031B51FA83F33A
S315080067F0D21A014437F0C9FD94F8FE30023B5B1B00
S3150800680084F8FE3038BD2DF06BB92AF01DBF08B5E7
S315080068101B4B93F8492E012A03D0062A05D02AB322
S31508006820FEE7BDE808402AF0F5BE002083F8490EC9
S3150800683003F5805393F85010CA070CD5C1F3C30269
S31508006840013202F00F0262F3C601042A83F85010DF
S3150800685005D82DF045F9BDE808402AF0F5BE93F8AD
S31508006860502060F3C60283F85020F4E793F8482EC8
S31508006870520703D5B3F84A3E1B06ECD408BD00BF41
S31508006880F02F00208378072B09D190F86E00C309F2
S3150800689003D000F07F0028F015BD28F0D1BC704762
S315080068A025F022B9436810B4D3E9004023465DF8C1
S315080068B0044B18470EB403B503AA52F8041B0192F9
S315080068C0FFF7F0FF02B05DF804EB03B0704701492B
S315080068D0F0E700BF62410408F8B506460C46064FC5
S315080068E08D18AC4200D1F8BD3946304614F8012B54
S315080068F0FFF7E0FFF5E700BF3B0D040810B50446B7
S31508006900FFF7EAFF2046BDE81040E0E7F0B51C4671
S31508006910002387B08DF8143052EA0403064615465C
S315080069200ED130230DF113078DF8133030463A4651
S315080069300D49FFF7BFFF304607B0BDE8F040C6E790
S3150800694005AF284621460A22002337F089F9303256
S3150800695007F8012D2A4623460A2A73F1000305463D
S315080069600C46EED2E2E700BF0C1504084FF42013DC
S3150800697030B58DB0044601930023084602AD69463A
S3150800698008228DF80830009516F0FDFF2A462046A5
S315080069900249FFF78FFF0DB030BD00BF0C15040884
S315080069A010B50446FFF7E2FF2046BDE810408EE723
S315080069B037B50546CC884B8864BAA4B20A880194D0
S315080069C089885BBA49BA89B252BA00919BB204491E
S315080069D092B2FFF76FFF284603B0BDE8304076E76E
S315080069E01D2B040810B504468CB00846694627F0E6
S315080069F05EF920466A460449FFF75CFF20460CB05C
S31508006A00BDE8104063E700BF0C1504080CB473B565
S31508006A10054606AC54F8046B0A46074B0749FFF7C8
S31508006A2049FF2246314628460194FFF73BFF02B04C
S31508006A30BDE8704002B07047AC4404089A2B0408BD
S31508006A400EB417B5044605AA52F8041B0192FFF7BF
S31508006A5029FF2046FFF73BFF03B0BDE8104003B00F
S31508006A607047F8B505680F6805F5D05604461A3616
S31508006A7027B93146FFF7B6FF0020F8BD4B68BBB90A
S31508006A8038460D492DF077FA20B131462046FFF7F2
S31508006A9087FFF1E7384609492DF06DFA50B105F53B
S31508006AA080552046B5F82A2A0549FFF7C9FFE3E7C6
S31508006AB00720E2E72320E0E741340408E918040840
S31508006AC0C50904082DE9F04115461D4A0446FFF795
S31508006AD09DFF2A683AB120461A49FFF7EBFEAB7AC2
S31508006AE0072B05D9FEE720461749FFF7E3FEF6E729
S31508006AF0164A204652F823201549FFF7DBFE6E7A20
S31508006B0026B114492046BDE8F04199E720461249C6
S31508006B10FFF7D0FEDFF848802B7AF7B2BB4201D8E0
S31508006B200E49EFE71FB141462046FFF7C3FE6968E5
S31508006B30204601EB0711FFF719FF0136ECE700BF06
S31508006B402E2B0408E22F040820130408142704082F
S31508006B50342B0408271304080B130408100D040823
S31508006B60080D04082DE9F74305460E461446DFF8D6
S31508006B706C8014B903B0BDE8F083236842460093DD
S31508006B80636831462846FFF741FFA3687BB9E27D73
S31508006B90072A10D9FEE749462846FFF78BFEA36861
S31508006BA0BAB253F822200137002AF4D1EFE70027BA
S31508006BB0DFF82C90F3E7A18A238A0191618A284697
S31508006BC00091044951F822200349FFF739FFE46987
S31508006BD0CFE700BF14270408632B0408472B0408D3
S31508006BE05F2B0408034A044B00290CBF11461946BB
S31508006BF026E700BF861C0408902B040810B50C680D
S31508006C005CB9036803F5805393F8DC19003918BF9B
S31508006C100121FFF7E7FF204610BD0720FCE70CB46B
S31508006C2073B5044606AD55F8046B094B0A4609497F
S31508006C30FFF740FE2A46314620460195FFF732FE09
S31508006C402046FFF744FE02B0BDE8704002B0704728
S31508006C50AC4404089A2B04082DE9F04F05460E4665
S31508006C601C461746DFF890B085B003F1FF3802EBF3
S31508006C7081094F4517D128461C49FFF7E1FEDFF881
S31508006C807090DFF87880264449462846FFF712FEBA
S31508006C9014F8017B17BBB442F6D12846144905B04F
S31508006CA0BDE8F04FCCE657F8043B18F801AF184694
S31508006CB0039337F071FC02305045039B06D85946BA
S31508006CC02846CAF10102FFF7F5FDD2E700935346BD
S31508006CD0284608495A42FFF7EDFDCAE741462846C5
S31508006CE0013FFFF7E7FDFFB2D4E700BFE814040849
S31508006CF0A52B04089E2B0408982B04088642040832
S31508006D0070B506680D46304607492DF034F9044635
S31508006D1020B9304605492DF02EF910B100202C7007
S31508006D2070BD2320FCE700BFA72B0408AE2B040880
S31508006D3010B50C680B462CB1BDE8104000F10801EF
S31508006D401846DDE7017AFFF74DFF204610BD2DE90D
S31508006D50F041804608680F4616461D4688B008B3B7
S31508006D6011462DF03DFB002304462B7098B1396877
S31508006D7091B101A827F048F870B908F50C5002A996
S31508006D8034300BF05EF958B9304601AA02A919F059
S31508006D904DFC01232B700024204608B0BDE8F08185
S31508006DA00D24F9E70724F7E7F0B587B00DF10303DB
S31508006DB0044601AA00680D46FFF7C9FF034668BBEB
S31508006DC09DF803303BB120461749FFF773FD20466F
S31508006DD001A9FFF7E5FD05AF394668682DF017FBF1
S31508006DE00346D8B9AA68E2B9254655F81ECB01AAC2
S31508006DF0164603CEBE4228606960324605F108058C
S31508006E00F6D132882A80A28B42B904F10C020CF51D
S31508006E10B4501146183018F071FC0346184607B0EE
S31508006E20F0BD0723FAE700BFB62B0408102208B501
S31508006E3038F0FDFAB0FA80F0400908BDF8B5044606
S31508006E400F4690F8306000EB0616B442254601D18D
S31508006E50002506E020463946FFF7E8FF10340028EB
S31508006E60F3D02846F8BD0FB407B504AA52F8041B98
S31508006E700448019227F0A9FA03B05DF804EB04B0C0
S31508006E80704700BF582E040800230360436070470C
S31508006E90F8B5C1F34003C1F300025B0043EAC2033D
S31508006EA0C1F380010B4399075AB247D400F5005540
S31508006EB095F85B7042F004039F4224D000F5015414
S31508006EC01834204685F85B3018F0B4F895F8596000
S31508006ED030462DF09EF8C0B195F85B1095F85830FD
S31508006EE0C7F34002C1F340008242C3F3C00304D192
S31508006EF05BB93A0709D50B0707D400232046A5F83E
S31508006F00803118F0A1FE0020F8BD012E0BD1002615
S31508006F102046A5F8806118F009FE314604F5907000
S31508006F2018F05EFAEFE7022EEDD12046B5F85C10B0
S31508006F3019F0D8F820462EF071FCE4E70720E3E7BD
S31508006F40036823B91720B0FA80F0400970479942C0
S31508006F5001D01B6BF5E70020F5E713B5014602469D
S31508006F6051F80C0B00F5B45400F5B5501834FFF77A
S31508006F70E7FF38B9009220460122034B17F04AF979
S31508006F8002B010BD1820FBE76574000808B50DF0BF
S31508006F9049FF08BD01F1100351F8042B994240F846
S31508006FA0042BF9D17047313020F001000078C0F386
S31508006FB00110704708B5FFF7F6FFB0FA80F04009F0
S31508006FC008BD836D18472622002137F03AB8030E0C
S31508006FD00B70030C4B70030A8B70C870704708B5AA
S31508006FE00246FFF7E7FF30B1313222F0010250784E
S31508006FF0831E5842584108BD1422002137F021B893
S315080070002DE9F84F0746884691469A464FF0000BF9
S315080070100A9D0BEB0904661006FB0A8638463146BC
S31508007020A8470028C4F34F0407D0D2BFA1460134AD
S315080070301FFA84FBCB45ECD300263046BDE8F88F13
S315080070400023F0B5441E184601392AB91BB102447B
S3150800705092B2904211D1F0BD14F8017F11F8016F78
S31508007060082A154628BF0825B74287EA0603EDD140
S315080070702844521B80B292B2E7E71906EBD45B00AC
S315080070800130DBB280B2E4E725289DBF024B03EB53
S315080070908003986A014870473C2E0408DF2B0408D1
S315080070A0F8B5069D1C462B7A0F46164613B3FFF70E
S315080070B0EBFF174902462846FFF7C2FC2846154942
S315080070C0FFF7BEFC3A4604212846FFF7FBFC284694
S315080070D01149FFF7B5FC324604212846FFF742FD61
S315080070E04CB128460D49FFF7ABFC22460421284639
S315080070F0FFF738FD04B9F8BD2B68E26903F580533C
S31508007100D3F8E01AE161C3F8E04A1446F2E700BF93
S31508007110F02B04080F2C04081A2C0408282C040841
S3150800712000BA704708B50346D1E9000252BA1A8078
S31508007130FFF7F6FF8A7AC3F80200088942EA400296
S3150800714052BADA8008BD838870B50446C0889E188E
S315080071508642154608D82068184437F091F9002069
S31508007160A3881D44A58070BD0320FCE707B549BA6E
S31508007170ADF8061002220DF10601FFF7E4FF03B091
S315080071805DF804FB0122DEE738B50446A388084605
S31508007190934215460AD3216837F072F90020A3886E
S315080071A022685B1B2A442260A38038BD0620FCE7C0
S315080071B00122E9E710B502220C46FFF7E5FF10B9F0
S315080071C023885BBA238010BD4368036003B1DB697B
S315080071D04360704738B5436A044623B1002202214A
S315080071E04262826A9847236A9C4200D0FEE7094AAF
S315080071F002F58051D56DB1F860362068013B2560EF
S315080072009BB2254618B9D465A1F8603638BD044640
S31508007210F3E700BFF01F0020C3892DE9F04101EB19
S3150800722003081FFA88F8434504460D4602D9032089
S31508007230BDE8F08106465027B845336815D80022C0
S315080072401448326000F5805CC66DBCF860164F1EA7
S31508007250BFB2C3B912B1C665ACF86016A3890020DF
S31508007260AB42658188BFA581E2E71BB17C373668EA
S31508007270BFB2E1E76079C0F3410027F097FD3060BF
S315080072800028F3D1D3E71A6839461E601E4613460E
S315080072900122DCE7F01F0020F8B500F1310424F0E4
S315080072A00104054620460F461646FFF7A5FE237835
S315080072B0042103F03F0343F04003237000232846CC
S315080072C0AB812182FFF7A8FF2378667023F030038D
S315080072D043EA07112170F8BD70B500F1310525F0B4
S315080072E001052B78064623F00F0302F00F0003432F
S315080072F02846144600F8043B37F0C2F82B8A304675
S31508007300E11889B22982BDE8704085E7313121F05C
S3150800731001010A7802F00F02082A00D9FEE70431B3
S31508007320DAE7838942891944914200DDFEE789B28A
S315080073309142818100D9FEE7704743898B4200D28A
S31508007340FEE75B1A43818389C2898B4294BF002377
S315080073505B1A0A4488BF9BB2C2818381704770B5A5
S315080073604489A14230D215880D44AEB2B14201D843
S31508007370A54201DB641A1480C4899860214489B245
S315080073804F29044610D830304418C1F1500189B24B
S31508007390998010881C60814228BF0146998011880F
S315080073A09B88CB1A138070BD5039246889B20CB9F2
S315080073B09C60FEE77B2905D89C6004340C44C1F127
S315080073C07C01E4E77C39F0E70021E7E770B515466C
S315080073D086B0ADF806300DF1060203ABFFF7BFFF26
S315080073E02C46BDF810601EB9601B80B206B070BD91
S315080073F003993246204637F043F803A90DF10600F3
S31508007400344427F01FFEECE770B5054616460C46D1
S315080074108B894A89ADF5BC6DD21A0F49FFF74AFA2E
S31508007420284606F11001FFF7A1FA2846728C0B4987
S3150800743001AEFFF73FFA3246A18940F2DB532046F8
S31508007440FFF7C4FF00233246335405492846FFF7A1
S31508007450F7FA0DF5BC6D70BD3E2C04084D2C0408DA
S315080074600C150408D0E738B54589CC18AC4203DCBE
S31508007470FFF7ACFF002038BD0620FCE702460846A9
S3150800748049893823383989B2EDE7024608464989D9
S315080074902C232C3989B2E6E770B5164631310468D3
S315080074A08CB021F0010514B920460CB070BD04F16A
S315080074B0310323F001036A885B889A4212D102A835
S315080074C0FFF781FD214601A8FFF7DFFFBDF82A2057
S315080074D0738C9A4206D106F1100106A8FFF7A6FC9E
S315080074E00028E1D1E469DEE738B504460D460B46C7
S315080074F001890068FFF7B7FF10B923891D44258164
S3150800750038BD0B8813B50C2B0C460BD90D2B0CD19B
S3150800751001210DF10602FFF7E7FF20B99DF80630B5
S315080075200D332380002002B010BD0E2B0CD1022192
S315080075300DF10602FFF7D8FF0028F4D1BDF8063092
S315080075405BBA03F20D13ECE70620ECE773B54FF6CA
S31508007550FF76C3880446B34206D001210DF1030223
S31508007560FFF7C2FF18B1E680002002B070BD9DF893
S315080075700350FF2D0CD1236822895B89E6809A4245
S31508007580F2D306204FF6FF73E38000232381ECE74E
S315080075902B0920460DF10601ADF80630FFF7B1FFBD
S315080075A00028EFD105F00F05204601A9ADF80450D3
S315080075B0FFF7A7FF0028E5D1216823894989BDF887
S315080075C00420C91A8A42DCDC1344BDF8061023815C
S315080075D0A388E2800B44A380C6E730B401F13102E8
S315080075E022F00102D48912784D8902F00F02043282
S315080075F0224495424FF0000404D3C0E9001430BC7D
S315080076000281A3E74FF6FF720481C28030BC0620D0
S31508007610704710B44C889C4203D309885DF8044B24
S3150800762021E706205DF8044B70472DE9F04786B040
S3150800763017461C46ADF806300DF1060203ABDDF819
S315080076403880FFF78CFEBDF810507DB1039EB8F167
S31508007650000F11D0B94606EB050AB24513D019F842
S31508007660011B16F8010BC0470028F6D1B4FA84F0BE
S31508007670400906B0BDE8F0872A463946304637F055
S31508007680D6FE0028F2D12F4403A9651B0DF106008A
S31508007690ACB227F0D7FCD6E770B586B0ADF80630A1
S315080076A00B4414469AB2914200D9FEE742899342A6
S315080076B000DDFEE703AB0DF10602FFF750FEBDF84D
S315080076C010500DB906B070BD21462A46039836F00B
S315080076D05CFE03A90DF106002C4427F0B3FCEEE787
S315080076E070B500F1310424F00104A37C05465BB1B2
S315080076F04389218A994207D1012994BF491A01F180
S31508007700FF3189B2FFF788FD2378224603F00F037D
S315080077102846BDE8704000210433BDE72DE9F04155
S31508007720B0F80A800F4602EB080399B241450546B0
S3150800773016460CD3FFF770FD044628B933463A4679
S3150800774041462846FFF7A8FF2046BDE8F0810324F6
S31508007750FAE72DE9F043074601239BB057F80C4B8F
S315080077608DF80530037A0646884604F5B55039463D
S315080077708DF80430FFF7E4FB002800F0B6802622D7
S31508007780002103A836F05DFCD8F80830EBB1204696
S3150800779041460DAB07AAFFF7DAFA0446002843D19B
S315080077A09DF834303BB130465349FFF783F83046ED
S315080077B007A9FFF7F5F8D8F804000DF12E012CF00B
S315080077C026FE044680BB08F10808082001A927F010
S315080077D0AFFB0546002800F08A80D8F800404749E4
S315080077E020462CF0C8FB00283ED0D8F804000DA986
S315080077F02CF00DFE044600283FD13023BDF8348016
S315080078008DF80830B8F1000F12D16B79306813F093
S31508007810180F31D000F5B4502A46394603AB183054
S3150800782018F0BEFA044640BB20461BB0BDE8F083FC
S315080078300122284602A9FFF771FF0446E8B99DF818
S3150800784008305A2B0AD07A2B0AD0392B0AD00133A2
S31508007850DBB208F1FF381FFA88F8D1E76123F8E7A9
S315080078603023F6E74123F4E7204625492CF083FB2D
S3150800787020B3D8F8043023B907242846FFF7AAFC12
S31508007880D2E74FF03209029302230DAA0DF1060141
S3150800789002A8ADF8069006F0BBFC804608B124287D
S315080078A027D12846BDF806200DA9FFF737FF04465D
S315080078B00028E2D1B8F1000FE6D1A6E72046114923
S315080078C02CF059FB08B108F10408D8F80040002C40
S315080078D0D2D0204636F060FE214682B22846FFF70F
S315080078E01DFF0446002890D0C7E70D249CE7032413
S315080078F09AE70446C1E700BF522C0408782C04080E
S31508007900B11A04087B2C0408012207E7FF2313B5E4
S315080079108DF8073043890446B3F5007F0FD20DF181
S315080079200701FFF7F1FF40B9012204F1310323F003
S3150800793001039A7462891A82A28102B010BD0320DB
S31508007940FBE703781BB1012B03D000207047406882
S31508007950E4E60430FFF7F7BB37B58DF807100139B1
S315080079603E29054614460DD810460DF10701FFF7C6
S31508007970CBFF28B9294620469DF80720FFF7CEFEFB
S3150800798003B030BD0720FBE72DE9F04114469A18ED
S315080079900E4691B286B08C420546ADF8063029D817
S315080079A07189914228DBB0F80A80434499B241456F
S315080079B024D3FFF731FC074648B92146304603ABC6
S315080079C00DF10602FFF7CBFCBDF810401CB938468E
S315080079D006B0BDE8F081234641462846039AFFF7DC
S315080079E05BFE444403A90DF106001FFA84F827F04C
S315080079F029FBE9E70727EAE70627E8E70327E6E793
S31508007A00F8B504460E46154600F13007E3899D424F
S31508007A100BD85B1B6289E381A3892A442B4492B263
S31508007A209BB29A42628117D2FEE76079C0F34100A1
S31508007A3027F0BCF9C8B123680360E38920604F2B9F
S31508007A4006D83030C3F15002F918184436F018FD3C
S31508007A50E3897C33E381D9E72046A38132462B4666
S31508007A600021FFF719FE0020F8BD0320FCE773B5D7
S31508007A70054603796E8940798E42C0F3410228BFD4
S31508007A800E46C3F340038DF80520E98901AA40098B
S31508007A908DF8043027F0CAF90446002832D0334658
S31508007AA000222946FFF770FF48BBAB896289B342BB
S31508007AB028BF33469A4200D2FEE7A381AA79A37962
S31508007AC062F30303A3712B792279DB0963F3C712E7
S31508007AD022716B796279C3F3C10363F3C4026271DD
S31508007AE0AB69A3612B8A23826B8A63822B7A237202
S31508007AF0AB8DA385EB8DE385204602B070BD20468D
S31508007B00FFF768FB0024F7E710B50446FFF7AFFF59
S31508007B1098B104F1310300F1310223F0010322F098
S31508007B20010203F1100153F8044B8B4242F8044B4F
S31508007B30F9D1198811809B78937010BD0368994212
S31508007B4004BFCB6903604368994204BF0B6A43606C
S31508007B500B6A0BB1CA69DA61CB690BB10A6A1A6298
S31508007B6000220B79C1E9072162F382030B71704782
S31508007B7010B5FFF7E3FFBDE810400846FFF72ABB3C
S31508007B8010B50446216801B910BD2046FFF7F0FF7D
S31508007B90F8E7024608B50846FFF776F9126802B90B
S31508007BA008BD0388116801330380012341B9418860
S31508007BB00B44438051894368D2690B444360EEE71E
S31508007BC001330968DBB2F1E70B7910B55B0700D41E
S31508007BD0FEE74B79C3F3410300EB83025468A142E5
S31508007BE009D10C6A546034B16479C4F341049C42E7
S31508007BF01CBF002353600368994204BFCB69036026
S31508007C00CB690BB10A6A1A620B6A0BB1CA69DA61E7
S31508007C1000220B79C1E9072162F382030B7110BDBB
S31508007C20024608B50846FFF72FF9126802B908BDDB
S31508007C300388116801330380012341B941880B4445
S31508007C40438051894368D2690B444360EEE70133A8
S31508007C500968DBB2F1E74A7970B5C2F34102144606
S31508007C600B79061D43F004030B7156F824301BB933
S31508007C700134E5B2042DF8D10B624BB90368CB6128
S31508007C800160CB6903B1196200EB8200416070BDE7
S31508007C90DC69CC61D961F4E743880288994228BF38
S31508007CA0194612FA81F25B1A028043807047084A25
S31508007CB0138803B9FEE748F24E305368A3FB003039
S31508007CC010EB530044BF20F000400130506070476D
S31508007CD0E0590020814210B5044600D8FEE7FFF7B8
S31508007CE0E6FF091BB0FBF1F303FB1100204410BDAE
S31508007CF038B50D46814288BF85B269000446013110
S31508007D000020FFF7E7FF2044401B38BD10B540B1FF
S31508007D100023441E98B2814203D90133E25C002A4B
S31508007D20F8D110BD0139013811F8012F10F8013FBB
S31508007D303AB9002B14BF01200220831E584258412D
S31508007D4070479A42F0D00020F7E72DE9F04F0C680B
S31508007D5007460E4685B04CB90368214603F580539D
S31508007D60D3F8582AFEF7FEFE002444E02046A2492E
S31508007D702CF001F9002800F0F1803B6803F58053E8
S31508007D80D3F8E05A002D00F02981AB46EA690021B4
S31508007D90C3F8E02A28464FF4987236F052F905F1EE
S31508007DA0340A05F58A734BF894ABAB6005F12803E2
S31508007DB0EB60012305F1D408C5F804B0AB75C5F826
S31508007DC02C8005F110094946F0682CF020FB044682
S31508007DD048B971680846019136F0DEFB421C402A14
S31508007DE001990CD907243B6803F58053D3F8E02A98
S31508007DF0EA61C3F8E05A204605B0BDE8F08F584658
S31508007E0036F03EFBD6F808B0584636F0C5FB421C9D
S31508007E10602AE7D85946504636F032FB2C215046A0
S31508007E2036F09AFB78B94946F0682CF0F0FA044621
S31508007E300028D8D13069B8B97069E8B9B4691CBBEB
S31508007E400023AB7533E005F5887A05F5947B00F8D1
S31508007E50014B2C214AF8040F36F07EFB0028E2D0AD
S31508007E60D345F4D10324BEE705F112012CF0CFFA6D
S31508007E7004460028E0D0B6E705F114012CF0C7FA4D
S31508007E8004460028DAD0AEE720465C492CF073F8A1
S31508007E900028D5D129464023424621F8303F03A879
S31508007EA00123039406F0B4F9044600289BD1F0692F
S31508007EB0002830D1306A002835D13E6806F5805949
S31508007EC0D9F8588A4446002C3AD12B68002B89D019
S31508007ED06B68002B86D0EB6813B9AB7D002B81D17C
S31508007EE007232A6AEB75464BC5F81C809A4294BF4D
S31508007EF02A622B626A6A00219A4294BF6A626B629E
S31508007F002846C9F8585A15F046FE06F5CE501C30D4
S31508007F1015F052FF28E705F1200106F0DEF90446C0
S31508007F200028C7D05FE705F1240106F0D6F9044614
S31508007F3000287FF458AF736A002B7FF453AFBCE771
S31508007F4029682068FFF7EEFE20B169686068FFF7C8
S31508007F50E9FE08B9E469B6E7182444E72046294942
S31508007F602CF009F8814628B9204627492CF003F851
S31508007F70002835D0B3680193002B33D0D6F80CB05F
S31508007F80BBF1000F2ED1D7F8008008F5805ADAF831
S31508007F90585A2C460CB917242DE7616870682BF0DF
S31508007FA0EAFF28B1216801982BF0E5FF002846D1A1
S31508007FB0E469EFE7AC4217D0ED69002DFAD1EAE79C
S31508007FC09C4223D09B46DB69002BF9D1E3E7DBF81B
S31508007FD01C3013B3DB69CBF81C301EE003240AE718
S31508007FE0232408E7072406E7E37D043B012B8FD902
S31508007FF00423E3758CE700BF520B04088642040885
S315080080009AC42000F50B04082C130408BBF1000FD2
S31508008010DDD115B1EB69CAF8583A0023E361E37D6F
S31508008020072B1CBF0723E37515F0C6FE3B6803F54F
S315080080308053D3F8E02AE261C3F8E04A94E608F5EB
S31508008040CE501C30B9F1000FB7D12B46BCE7A0F1D2
S315080080504103052B04D83738C0B208700020704792
S31508008060A0F16103052B01D85738F5E73038C0B2BF
S315080080700928F2D90720704770B504460E46E588E8
S31508008080134682880068AA4234BFA91A0021104400
S3150800809032462EF01BF9002800DAFEE7A388E288AC
S315080080A0184480B2904228BF2368A08022BF9B183C
S315080080B0002203F8012C204670BD0EB417B50446FD
S315080080C005AA52F8041B0192FFF7D6FF204603B013
S315080080D0BDE8104003B070474FF434132DE9F0475C
S315080080E094B00293002303AA06460C460D46914611
S315080080F091F810C08DF820300CF10703DB100DF154
S3150800810020085F1CCDF804807F0801F1100A964606
S31508008110286869680835AEE8030055457246F6D101
S3150800812029788EF800106BB14FF0FF3103F14F023A
S315080081306A4412F8440CCCEBC30C01FA0CF101406A
S3150800814002F8441C102BC3F1100292B209EB03008B
S3150800815088BF0022002135F074FF3A46484601A937
S3150800816015F011FC237C0733772B03D8084901A89F
S31508008170FFF7A3FF227C074901A8FFF79EFF4246A7
S3150800818030460549FEF796FB14B0BDE8F08700BFF8
S315080081907E2C0408812C04080C15040870B50646C4
S315080081A00D460024AC4201D3012070BD305D013478
S315080081B0030605D42EF07AF80028F3D00020F4E759
S315080081C010F04003FAD0810612D5C20612D503076D
S315080081D0F4D4032307E0AC42F0D0325D013402F058
S315080081E0C002802AEAD1013BDBB2FF2BF3D1D9E7E3
S315080081F00123F8E70223F6E743684BB9054B5A68AB
S3150800820012B95860406070475168416050605860C4
S31508008210704700BFF01F002003685A1A11EA2201AE
S3150800822038BF194643685A1A13EA220338BF0B4661
S31508008230436070474160024A01460248FEF7E4B8C7
S31508008240402E0408F81F00202DE9F341734C042141
S315080082504FF47A70E56CFFF74BFD291804F14800D6
S31508008260FFF7E8FF636CD80716D5FEF78FFE04F50F
S3150800827080560546D6F8E01F68462BF0C4FF04F57D
S31508008280FF5704F500580099002940F08180D6F878
S31508008290E00F08B925F0DDFD636C990625D5604D1C
S315080082A095F89D347BB1FEF771FED5F8A03403F539
S315080082B0C333A0331B1A002BBEBF95F8BE3443F058
S315080082C0010385F8BE3495F8C714B5F8C43495F893
S315080082D0C624002970D1002A40F08380002B40F084
S315080082E08780D5F8C4042BF0DFFE636C5A0620D5C8
S315080082F04B4EB6F87C3443B1013B9BB2A6F87C34AE
S315080083001BB906F58F6017F0F1FFD6F878546DB1F2
S31508008310013DC6F878544DB9022022F0DFF94148EC
S31508008320294618F0BDF8284622F0A4FB3D4816F069
S315080083309BFF636CDB056ED50020034605463A496C
S31508008340A1F2A466CA787AB1013AD2B2CA7032B139
S31508008350086806EB8302C2F8A4060120013301353A
S31508008360232D01F10401EDD1002104EB830404F56A
S31508008370B5540734222B03DC14F8042B002A46D103
S31508008380002848D1082002B0BDE8F04125F061BDBB
S315080083908B69EB1AB3F5FA6F0AD34B7938465B0942
S315080083A002BFD8F820300133C8F82030FFF7E0FBC9
S315080083B06846FEF709FF66E70139C9B285F8C714AA
S315080083C0002988D11AB1013AD2B285F8C62423B158
S315080083D0013B9BB2A5F8C4348BB11448FFF70CFFD8
S315080083E07FE7013AD2B285F8C624002AEFD075E7AE
S315080083F0013B9BB2A5F8C434002B7FF472AF95F805
S315080084009D34002BE9D0012385F89D34E5E704F86F
S31508008410041C0133AEE702B0BDE8F081F01F00206E
S31508008420F03F002068440020943600207444002061
S31508008430002A00DAFEE71144FCE638B50D46044684
S31508008440FEF7A4FD2A4601462046BDE83840EFE778
S3150800845010B590F82430044643B1012B01D1436985
S3150800846083612046A169BDE81040E6E74169B1EBA2
S31508008470510F4FEA510001D9FFF72CFC0023A061E8
S31508008480E38384F82530ECE710B590F824300446E9
S315080084907BB1012B08D10169C0680131FFF71AFCCD
S315080084A060612046FFF7D4FF2046236ABDE81040E6
S315080084B0184790F825306BB1012BF5D1426922B1E6
S315080084C00369991A8A4298BF530020466361BDE83A
S315080084D01040BDE7012380F82530D0E90513C91AF5
S315080084E0FFF7ABFFE28BA38B9A42DDD310BD064B99
S315080084F006485A69196A914208BF9A6901F180418A
S3150800850004BF01329A6195E6F01F00200C20002076
S315080085108368984203D04368CB1A002B00DA89E6B1
S3150800852070470146014A0248FDF748BF402E040835
S31508008530F81F0020D1E9003103F10043013B8B42CB
S3150800854000D077E6EDE710B5044692B068462BF002
S3150800855023FE616802A82BF056FE029931B96946D6
S3150800856004F11000FFF7E6FF12B010BD04A8FEF7ED
S3150800857085FF68460F99FFF74FFE02A8FEF724FE0F
S31508008580EBE72DE9F0410546144604301E46069FE2
S315080085909DF81C80FFF7ECFA2846FFF7D4FF656ABA
S315080085A03DB143463A463146AC46A06ABDE8F0417D
S315080085B06047BDE8F0812DE9F04192B004460D46CA
S315080085C0416802A82BF01FFE0B274FF00008029EF9
S315080085D016B912B0BDE8F081314604A8FEF74EFF81
S315080085E025B1294604A8FEF721FC38B100233146F7
S315080085F02046CDE9008704AAFFF7C3FF02A8FEF7C5
S31508008600E3FDE4E72DE9F04F9FB00093289B06466B
S3150800861008460193FEF7C7FC02280C4617460CD0FD
S31508008620032801F1310300F0F280B28923F0010337
S31508008630511C52BAB1815A8045E006A8FEF7C3FC20
S31508008640FEF7A4FC3A4600F57130D83006F12C093D
S31508008650059006AB07F1200C1D46106851680832D4
S3150800866003C562452B46F7D11068214628609288D3
S315080086704846AA803A46FEF70FFF054618BBF16A38
S3150800868003A82BF0C0FDAA46AB46DDF80C80B8F16E
S31508008690000F40F09C801FFA8AF3092B03D929465C
S315080086A04846FFF765FA20466189FFF72DFA054621
S315080086B048B12C2205A9FFF731F8002800F09D8063
S315080086C02846FEF787FD2046FFF70AF82046FEF7FC
S315080086D071FC002800F0A280B4F80AB0BBF1000FC4
S315080086E000F0B68010AB3D46994607F1100C1A46C5
S315080086F028686968083503C265451346F7D17B8C37
S3150800870014AAADF8603005F1100C1346286869689C
S31508008710083503C365451A46F7D1009A97F82530F8
S315080087201992019AC3F300131A92BDF874209B029A
S3150800873022F49F6222F0070243F00403134340F633
S31508008740B9314FF4FA60ADF87430FFF7C3FA9DF803
S3150800875075301C906FF3000320468DF87530FEF7D0
S3150800876029FC9DF8753060F341038DF87530FEF7E6
S315080087700DFC9DF8753059469B074CBF1C9B384B22
S3150800878018441B902046FFF7BFF9054600285AD023
S3150800879038224946FEF7C2FF002851D106F10408DF
S315080087A02946404626F01CF93046FFF7CCFE2146FE
S315080087B03A463046FEF705FC0446002844D04046B3
S315080087C02946FFF7D5F93046FFF7BDFE3CE011A86C
S315080087D0FEF7F9FB414610A8FEF757FE25B1109A99
S315080087E0A2EB0B02002A02DA4546DDF840B003A8E0
S315080087F0FEF7EAFC0AF1010A47E72946484626F049
S31508008800EFF8059906F13400FFF782FE5BE723F0DF
S3150800881001035B78002B3FF456AFFEE72046FEF7D0
S31508008820C2FB012814D1009B93B104F1310323F054
S31508008830010393F800B00BF00F0B0BF1040B51E793
S315080088402846FEF7C7FC032420461FB0BDE8F08F74
S315080088503A46214630461FB0BDE8F04FFEF7B1BB99
S31508008860486B0100002307B50093FFF7CBFE03B062
S315080088705DF804FB2DE9F0419CB0C568FEF786FB60
S31508008880064604A8FEF79FFB696802A82BF0BBFC06
S315080088901C274FF00008029C2CB92846FFF753FE08
S315080088A01CB0BDE8F08121460EA8FEF7E7FD199B2E
S315080088B0F31A002B0EDB9DF86D309A0702D59DF84A
S315080088C06C305BB9002321462846CDE900870EAAFD
S315080088D0FFF757FE02A8FEF777FCDCE7013B8DF8A9
S315080088E06C301A9B61895B001A93334419933823B9
S315080088F038390DEB0302204689B2FEF7CDFE9DF806
S315080089006D30DB07E6D40DF1200C12AB0FCB8CE8EB
S315080089100F00BDF858300EA904A8ADF83230FEF79E
S3150800892039FB9DF86D309DF83520C3F3800363F35A
S3150800893004128DF8352061892046383989B2FFF747
S31508008940E3F804460028C5D0014604AA2846FEF7DF
S3150800895038FB0028BED02046FEF73CFCBAE72DE9D6
S31508008960F04701F1310727F0010715467B1ACA8936
S315080089701C3B9A4206460C4694B000D2FEE7B1F874
S315080089800C803846FEF738FB04233A464146204613
S31508008990A7F80E80FEF767FD00284DD13B7803F057
S315080089A00F03082B48D808F1040120463A1D89B25E
S315080089B0FEF759FD00283FD10DF11808214640461B
S315080089C0FEF70BFE002837D14FF6FF79BDF81E30AB
S315080089D04B452CD1FB89BDF820102046C91A89B20F
S315080089E03982FEF79EFC7B78013B032B35D97168EB
S315080089F003A82BF008FC05F1100ADDF80C90B9F174
S31508008A00000F40F0D480F36C002B40F00B81204619
S31508008A10FEF7D0FA20B92046FEF7C5FA01285DD13F
S31508008A202B462246032130462BF06EFC56E0404684
S31508008A30FEF78CFD0028C9D02B78FF2B4ED0204698
S31508008A40FEF7B8FA002849D02B46224603213046BD
S31508008A5014B0BDE8F0472BF057BC736ADBB92A4659
S31508008A60214606F12C00FEF717FD38BB214603A860
S31508008A70FEF7B3FD4FF6FF77002840F02981BDF8D1
S31508008A801230BB4263D0BDF810300B2B5FD003A861
S31508008A90FEF75CFDF0E72946B26A98470028DED063
S31508008AA017281BD12B78FF2B18D02B46224684215A
S31508008AB0304614B0BDE8F0472BF0D6BB41892C39B7
S31508008AC089B2FFF721F8074640B1FEF709FE2A46A4
S31508008AD039463046FEF775FA002857D114B0BDE876
S31508008AE0F087474516BF3A46424602F801ABD71803
S31508008AF00DF139018F42F1D2BDF814100398C91A45
S31508008B0089B2FEF763FC03A8FEF720FD002840F0B3
S31508008B10DF80BDF812304B4503D0BDF810300B2B63
S31508008B20F1D1BDF812304B45DBD100233B70776D90
S31508008B309FB9376ACFB9736C23BB2B78FF2BCDD07F
S31508008B402B462246842130462BF08EFBC6E7474645
S31508008B504FF6FF794FF02F0AE3E72B4622464146A8
S31508008B603046B8470028E4D0B8E741463868FFF7EA
S31508008B70D9F828B12A4621467B68B8689847ADE7F0
S31508008B80FF68D7E72A462146B06CF7E7172808D1C9
S31508008B902B78FF2B05D02B462246842130462BF016
S31508008BA063FB384614B0BDE8F047FEF713BB4946E9
S31508008BB04046FEF763FC51460AA8FEF737F920B18E
S31508008BC0BDF838206B8C9A4207D09DF82830FF2BC9
S31508008BD003D00CA814F0E7FC00B32046FEF7E3F92F
S31508008BE0012815D90238C0B2012817D809F131036E
S31508008BF023F001035A887B889A420FD12046FEF754
S31508008C00D2F903283FF66AAFDFE800F04F55211482
S31508008C1049462046FDF760FD0028EFD103A8FEF778
S31508008C20D3FAEAE62A462146306D984700287FF4AB
S31508008C3055AFECE67B78002B7FF450AF0B22CDE9DD
S31508008C400032424649463046FFF79BFC46E77B78AA
S31508008C50E3B99DF84D309A070CD543F001038DF81A
S31508008C604D30B9F80A10382338394246484689B291
S31508008C70FEF712FD0F9B002B7FF430AF301D4946DF
S31508008C80FEF776FF3046FFF75EFC27E73F2B7FF6B9
S31508008C9025AF49462046FDF71FFD00283FF41EAFC5
S31508008CA00023CDE900532346CBE72B462246022173
S31508008CB030462BF029FB0F9F002FF1D09DF8283066
S31508008CC0FF2BEDD100232A4621461098B84705E721
S31508008CD017283FF432AF01E730B5C46891B001A850
S31508008CE02BF05AFA216803A82BF08DFA039D35B9A3
S31508008CF001A904F10800FFF71DFC11B030BD06A854
S31508008D00FEF761F9294605A8FEF7BFFB0599019B01
S31508008D105B1A002B07DB29462046FEF729FF03A826
S31508008D20FEF752FAE2E701A8FFF776FAF7E741609D
S31508008D30024A01460248FDF767BB00BF4C2E0408ED
S31508008D40FC1F002010B5274C94F87E3E033B032BEE
S31508008D5046D8DFE803F002061713BDE8104026F0F0
S31508008D604FBCD4F8943E987926F0ACFAD4F8940E11
S31508008D700E22BDE81040002129F014B8BDE81040C5
S31508008D8026F06CBCB4F87C3E9B0700D5FEE725F0C0
S31508008D9015F97F2807D094F98F3E7F2B01D098428A
S31508008DA001DD84F88F0EFEF7F1F8D4F8903EC01A6C
S31508008DB0002806DAD4F8E01E0B488031BDE81040DA
S31508008DC0B5E794F87E3E94F98F0E022B1CBF02235A
S31508008DD084F87E3E25F02AF9BDE8104029F0B3B99B
S31508008DE010BD00BFF02F0020CC3E00200146024AED
S31508008DF00248FDF7E3BA00BF4C2E0408FC1F00200A
S31508008E004378FF2B04D1408840BA80B204307047BB
S31508008E10981C704738B505460C46FFF7F1FF2946FA
S31508008E2082B22046BDE83840FEF778BCF7B50E4654
S31508008E301746044602236A4639463046FEF7E9FBDA
S31508008E40054680B99DF8003023709DF80130FF2B48
S31508008E500CD00221607002333A68C4F80220A28856
S31508008E60934214D90625284603B0F0BD0423394693
S31508008E7030460DEB0302FEF7CCFBD8B9012363702D
S31508008E80BDF8063004215BBA9BB20433E4E79BB213
S31508008E90934228BF13466288A380134472899BB203
S31508008EA09A42DFD3D4F80230A01DC4F80630FEF784
S31508008EB0F3FED8E70546D6E773B58B890D4649898B
S31508008EC01646ADF8043099422CBFC3EB0102C3EB3A
S31508008ED00302DB4392B29BB2934228BF1346044671
S31508008EE0ADF806302946204601AAFFF79FFF38B994
S31508008EF02378B34205D0A18801A8FEF7CDFEF1E795
S31508008F00172002B070BDF0B585B0054616460A466C
S31508008F10014601A81F46FFF7CFFF044650B9BDF822
S31508008F2008203B46B24228BF32462846BDF80610FE
S31508008F302BF03CF9204605B0F0BD1FB514460A468D
S31508008F40014601A8FFF7B8FF10B9DDF80A3023601B
S31508008F5004B010BDF0B51746428985B0ADF80010CB
S31508008F601E468A422CBFC1EB0203C1EB0103C9436B
S31508008F709BB289B2994228BF19460546ADF8021038
S31508008F806A46014601A8FFF751FF044660B9BDF8D5
S31508008F900C203346974228BF174628463A46BDF85E
S31508008FA00A102BF003F9F455204605B0F0BDF0B5CC
S31508008FB01746428985B0ADF800101E468A422CBF76
S31508008FC0C1EB0203C1EB0103C9439BB289B29942C3
S31508008FD028BF19460546ADF802106A46014601A89B
S31508008FE0FFF724FF044660B9BDF80C2096420BD85B
S31508008FF0B2423B4628BF32462846BDF80A102BF037
S31508009000D5F8204605B0F0BD0624FAE710B50223C8
S315080090101446FFF7CCFF10B923885BBA238010BD2E
S31508009020042310B51446FFF7C2FF034618B9206893
S31508009030FEF776F82060184610BD30B585B00446B0
S3150800904015460A46014601A8FFF736FF40B901232F
S315080090502A462046BDF8061005B0BDE83040A6E70A
S3150800906005B030BD002213B504468DF80720084622
S3150800907063B910210DF10702FFF7DFFF0346C8B9F0
S315080090809DF80720B2B1FF2A08BF25230020627881
S315080090906FF341026270D4E9092160620AB1184689
S315080090A0904741F2883104F1180002B0BDE810403B
S315080090B0FFF7C3B90623E9E730B585B00446154678
S315080090C00A46014601A8FFF7F7FE38B92A462046A0
S315080090D0BDF8061005B0BDE8304097E705B030BDCD
S315080090E030B585B0044615460A46014601A8FFF77D
S315080090F0E3FE38B92A462046BDF8061005B0BDE895
S3150800910030408DE705B030BD73B5154601AA044653
S315080091101E46FFF712FF28B933462A46204601A9FC
S31508009120FEF777FA02B070BD10B5044601448C42CA
S3150800913002D30024204610BDA31C9942F9D36378B4
S31508009140FF2B02D1231D9942F3D32046FFF758FE81
S3150800915020448142EDD323789342EBD00446E6E7D8
S315080091600222FEF7DBBAFF2B73B5054616461C46E8
S3150800917014D104228DF805304FF47F438DF804107E
S315080091800DEB0201ADF80630FEF7C8FA20B9224603
S3150800919031462846FEF7C2FA02B070BD8DF80010B7
S315080091A069468DF80130FFF7DBFF0028F4D1002C63
S315080091B0F2D0ECE770B505460E461C461146184631
S315080091C00BB1FEF7A3FD22463146C3B22846BDE8D9
S315080091D07040C8E707B501238DF807200DF107028F
S315080091E0FFF7C1FF03B05DF804FB07B552BAADF847
S315080091F0062002230DF10602FFF7B5FF03B05DF85E
S3150800920004FB13B504461046FDF78AFF04230190B4
S315080092100DEB03022046FFF7A6FF02B010BD10B5FE
S315080092200446FDF7B3FED4E90031E268C01A9A4253
S3150800923002D10028A8BF013110BD2DE9F3411E4611
S315080092401B4B044683424FF000038B4115460AD256
S3150800925015A3D3E9002334F003FD16491446024644
S315080092602846FEF72AFF144B4EF66021B4FBF3F2AC
S3150800927003FB1244B4FBF1F34FF47A7801FB134471
S31508009280B4FBF8F728460D490097FEF716FF46B1D6
S31508009290284608FB17420A4902B0BDE8F041FEF726
S315080092A00CBF02B0BDE8F081005C26050000000096
S315080092B0FF5B2605852C040880EE36008B2C0408F7
S315080092C09A2C040813B5006850B14AB141B100237D
S315080092D00068019301AB26F067FD10F0C1FA00B1F2
S315080092E0FEE702B010BD2DE9F843436C154613445A
S315080092F0026C044693420E461AD84FF000084F19DE
S3150800930000F11009B74214D1636C1D44236C6564DF
S315080093109D420BD1B4F850302BB104F1100211461E
S315080093202046FFF7CFFF0023A4F85030BDE8F883A6
S31508009330FEE7B4F85030102B06D14A464946204677
S31508009340FFF7C0FFA4F85080B4F850305A1CA4F8B0
S315080093505020234416F8010B1A7C50401874D1E7A4
S315080093602DE9F04F1D4685B09DF838309146029399
S31508009370C36C826C2B4493420446884629D86FF006
S31508009380200B0F46CA466B18019300F12003ABEB7E
S31508009390000B0393019B9F421CD1E36C1D44A36CF5
S315080093A0E5649D426CD3B4F850302BB104F1100239
S315080093B011462046FFF786FF002194F8542002F153
S315080093C021002044C2F10F0205B0BDE8F04F34F089
S315080093D038BEFEE7B4F85220102A16D104F1300040
S315080093E0024694F854600BEB00018E4206DA10F838
S315080093F0011D0131C9B201700029F4D02046039934
S31508009400FFF760FF0022A4F85220029B43BB3E7878
S31508009410B9F1000F0AD0B4F85220511CA4F8521022
S31508009420224492F8302072408AF80020B4F850207E
S31508009430102A08D104F1100211462046FFF742FF10
S315080094400022A4F85020B4F850200137511CA4F883
S3150800945050102244117C0AF1010A4E40167499E70D
S31508009460B4F852209AF80060511CA4F8521022440D
S3150800947092F830205640B8F1000FD7D03E70D5E7A5
S3150800948005B0BDE8F08F38B5D0E912329A420446E5
S315080094900D4600D0FEE700F1300200F12001FFF78B
S315080094A011FF002304F10F0294F855108B4200DBDC
S315080094B038BD12F8011F92F820004140E9540133E3
S315080094C0F2E72DE9F04F056889461746A5B0002D45
S315080094D000F020812B68002B00F01F81042B33D06D
S315080094E0052B36D0012B40F0DF80A868002800F055
S315080094F00E818D4B20F47E149C421AD1EB680BB179
S31508009500E86C38B989481EF0E2FD0446002800F0E8
S31508009510F08038E01BF0E4FC10F1860F06D0002836
S31508009520F1D09330EED16FF06F00ECE76FF0710079
S31508009530E9E77F4B0340B3F1607F40F0E88005F12F
S3150800954010001FF03AFCE0E705F108001BF0C8FC24
S31508009550DBE7D5F88840764B05F1080B2340B3F1D5
S31508009560607F40F0CC80D5F8AC10002940F0CF8061
S3150800957028221AA834F065FD1AA837F020F9804683
S3150800958028B16FF0920428461FF060FDB2E0E3B2FE
S3150800959043F0007303F17E43053B062B00F29D80E2
S315080095A0DFE803F0909B9B8D930485003026042307
S315080095B0C4F30544B44277D8002C18BF2646202E9B
S315080095C07AD85C495A1E51FA82F292F8C0A0BAF1CA
S315080095D0200F7FD8584A584602EB03231A930023D4
S315080095E012A9CDE91B3322931AF02AFC0446002857
S315080095F071D112991AA837F0E9F839461AA837F03E
S31508009600E5F8694658461AF0F4FC0446002862D183
S3150800961069461AA81AF02AFD584603A91AF000FD49
S315080096200446002857D1012403A91AA847F0005771
S315080096301AF01CFDCDF83C9006AB10940FAA1197B2
S3150800964007CA83E8070019461AA81AF00FFD12ABD5
S315080096500C934AF000530D940CAA0E9309AB07CA53
S3150800966083E8070019461AA837F0B9F81AA836F099
S3150800967015FD044678BB324612A905F18C0034F074
S31508009680FFFE0023C5F8AC6012AA02F8083008F1FC
S315080096900108B8F1200FF7D1212C21D11AA837F0EB
S315080096A08EF800287FF46DAF6FF086046BE714F42C
S315080096B07C1FC4F305460BD16FF0890463E71C26AB
S315080096C0022375E71426012372E7202603236FE792
S315080096D0052374E721240026D3E76FF0850452E7B3
S315080096E0002C7FF44EAF1AA837F069F800287FF4EB
S315080096F048AF0024204610F0B3F888B1FEE71346B9
S3150800970005F188000A4659461BF018F8FDE66FF081
S31508009710880438E76FF08604ECE76FF08804E9E719
S3150800972025B0BDE8F08F00BF0002C003009FFFFF11
S315080097300000C07F3C2E040800010203006808B53B
S3150800974028B104491FF090FB10F08AF800B1FEE733
S3150800975008BD00BF09000002006808B528B121B19C
S315080097601FF02BFB10F07CF800B1FEE708BD10B522
S3150800977086B00446ADF80630084603AB11460DF12F
S315080097800602FDF7ECFDBDF810200AB906B010BDBB
S3150800979020460399FFF7E0FF03A90DF1060025F01F
S315080097A051FCF0E7002307B50068019330B1202289
S315080097B001AB1FF003FC10F053F800B1FEE703B04D
S315080097C05DF804FB1F299DBF0068C84000F0010032
S315080097D00020704710B50B780446FF2B04BF0A23F8
S315080097E00B700B780A460133D9B21A29117001D9C0
S315080097F0172010BD2046FFF7E5FF10B90131C9B2A1
S31508009800F3E70020F5E7837FC22003F00F03D84073
S3150800981000F001007047012938B50446456832D181
S3150800982024F0D8FF237E9A0702D5642828BF64202F
S315080098305B0715D5A022214BB0F57A7FB3F86A3EAF
S3150800984028BF4FF47A70534303F5FA73B3F57A7F5A
S3150800985006D34FF47A72B3FBF2F3984228BF184640
S31508009860637E0F2B02D9BC2828BFBC20A36833F01F
S315080098707C4204D0C3F31903984228BF184600282F
S3150800988008BF0A206060FDF781FB6369014604F1A1
S315080098900C0098420DD06268AA420DD0531A24686B
S315080098A00A3BE3424CBF0A222146BDE83840FEF790
S315080098B0BFBD62682160F8E738BD00BFF02F002001
S315080098C010B531B1092919D96FF07C43994228BFDF
S315080098D0194600F50052136CC3F319048C420BD0D9
S315080098E061F31903136492F85030DB0704D5104668
S315080098F001213830FFF78FFF002010BD0720FCE755
S31508009900038910B58B420C4605D1BDE810404FF4CB
S31508009910004024F0BFBE01814FF4004024F01AFE37
S315080099202046BDE8104024F08FBF10B502780446E3
S315080099305107437817D4120701D5F3B110BD002B90
S31508009940FCD1B0F8A030FBB190F83630072B1CBF1D
S31508009950072380F83630838E1906EFD4BDE8104009
S315080099603430FCF78FBF002BE8D14388180604D59E
S31508009970E16904F1D000FEF75DFCE17A04F13400F8
S31508009980BDE810402AF0C4BB90F84630DA070AD47E
S31508009990838EDB0507D594F83630012BCED001230C
S315080099A084F83630CAE725F04BFC0028C6D1F2E722
S315080099B0012342888B4013434380437813B9C83048
S315080099C0FEF71ABC704770B50578ED071DD54578C2
S315080099D0012D1CD0468816F0020F18D1022D16D07C
S315080099E0C6F38005760712D48362049B4282C3625B
S315080099F0FF230374C368002908BF19460B40436157
S31508009A000221FFF7D5FF284670BD0D20FCE705208B
S31508009A10FAE770B50578ED0722D54578012D21D0EE
S31508009A20468816F0020F1DD1022D1BD0C6F38005FD
S31508009A30760717D48362049B002AC3624FF0FF039C
S31508009A400374C36808BF4FF49672002908BF194605
S31508009A500B40428243610121FFF7AAFF284670BDE9
S31508009A600D20FCE70520FAE700230380704700F481
S31508009A704052B2F5005F034620D148F2400220F476
S31508009A804E5020F03F0090421ED00CD8B0F5446FDF
S31508009A901AD005D8C8B1B0F5046018BF01207047C0
S31508009AA0B0F50040F9E703F44C43B3F5404F0BD04B
S31508009AB04CF64043C01A18BF0120704710F4406F97
S31508009AC014BF0120002070470020704738B505688C
S31508009AD00C4628462AF004FDFFF7C9FF40B1284680
S31508009AE02AF000FDFF2803D02B5A0020238038BD1A
S31508009AF00620FCE738B505680C4628462AF0F0FC2F
S31508009B00C30500D5FEE7AC7038BD00F44053B3F585
S31508009B10005F04D100F44C43B3F54C4F07D0B0F5C1
S31508009B20804F04D380F04000C0F3801070470020B7
S31508009B307047838810B5032B12D900682AF0D0FC29
S31508009B4080F480720446C2F30021FFF790FF48B9FB
S31508009B508A1CC4F38123022B06D0032B17D02BB102
S31508009B60FF2212E00A1DF4E70232D2B22046FFF7BE
S31508009B70CCFF08B10232D2B2C4F38134022C08D029
S31508009B80032C09D0002C18BFFF22104610BD08323E
S31508009B90EBE70232D2B2F8E70832FBE7F8B5076816
S31508009BA00E4638462AF09CFC0546FFF7AEFFD0B1B4
S31508009BB038462AF097FC04462846FFF758FF08B1AE
S31508009BC00234E4B2C5F38125022D07D0032D08D04F
S31508009BD0FF2C08D000203B5B3380F8BD0234E4B28A
S31508009BE0F6E70834FBE70620F7E7838810B5022B6B
S31508009BF0044607D900682AF08EFC18B12046BDE84D
S31508009C00104096E7FF2010BD38B505460C46FFF70D
S31508009C10ECFFFF2817BF2B6806201B5C00201CBF23
S31508009C2003F00703237038BD38B505460C46FFF721
S31508009C30DCFFFF2817BF2B6806201B5C00201CBF13
S31508009C4003F01803237038BD38B505460C46FFF7F0
S31508009C50CCFFFF281FBF431C2A68DBB2D35816BFA8
S31508009C6000200620236038BD38B505460C46FFF7A8
S31508009C70BCFFFF2800D1FEE72A68431CD9B254541A
S31508009C8052FA83F3220A5A70220C240E9A70DC7058
S31508009C902B7F43F001032B7738BD00F018001028FE
S31508009CA005D0A0F1180358425841C0007047042057
S31508009CB0704708B54307024608D0FFF7EEFF12F0D3
S31508009CC0180F0CBF05300630C0B208BDFF20FCE7F0
S31508009CD02DE9F04F057B0688B0F8029087B0031D82
S31508009CE0012D04460F4646EA090B019330D0022D92
S31508009CF00CBF0322002294F816A04BEA823BBAF165
S31508009D00010F04F10E0825D0BAF1020F2FD0BAF1CF
S31508009D10000F21D1A37F94F82120003B18BF01230F
S31508009D20B9F5805F4BEAC30305D0B9F5005F21D0CA
S31508009D30B9F1000F29D145B1BAF1000F05D0208B32
S31508009D40618B884208BF43F04003D60721D5FEE75A
S31508009D500222D0E74BF4006B5146E0892AF0ECF971
S31508009D600028D7D1022E18BF4BF0200BD2E74BF4B0
S31508009D70406BF1E7BAF1000F40F09480617F002D47
S31508009D8040F08880002940F09A80D50748BF43F400
S31508009D908073C2F3400243EA42253B6804A8049351
S31508009DA04FF4FE03294605932AF008FAE80503D47A
S31508009DB0012104A8FCF7DDFA2846FFF758FE18B17A
S31508009DC0618B04A82AF0FAF904A841462AF001FA98
S31508009DD02846FFF79AFE18B1218B04A82AF0EEF957
S31508009DE0211D04A82AF0F5F9BDF81430BB80A67F1A
S31508009DF0A6B1E37F0DF10F011E4304A88DF80F608D
S31508009E00FDF7C0F93046FFF754FF411E89B204A892
S31508009E10FCF7AFFA3046FCF75BFB064694F82130B0
S31508009E2099070ED5022104A8FCF7A3FA0D230421ED
S31508009E304370017004A8FCF79CFA3B7F43F00803C3
S31508009E403B77AA0523880ED5032B03D094F8213037
S31508009E505B0714D4022104A8FCF78BFA6FF07F0382
S31508009E6003703F2343702388032B08D194F82030CE
S31508009E700DF10F0104A88DF80F30FDF783F90236AE
S31508009E80B1B204A8FCF775FABDF81430BB8007B068
S31508009E90BDE8F08F00297FF478AF217F00297FF491
S31508009EA074AF0CE00DB9617FF8E7022D02D1BAF163
S31508009EB0020FF8D0208B618B88427FF466AF43F09F
S31508009EC0400362E770B50546FFF733FEFF280446F0
S31508009ED011D02E6830462AF01EFB60B1A9888C4244
S31508009EE00BDA305DFFF7E5FEFF2808D00444E4B23C
S31508009EF0A142B8BFFF24204670BDFF24FBE70446F5
S31508009F00F9E770B506460D46FFF76FFEFF280446CB
S31508009F1009D03268105CFFF7C0FE224402440020D4
S31508009F2053792B7070BD0620FCE770B506460D46C2
S31508009F30FFF75BFEFF28044600D1FEE73268105C97
S31508009F40FFF7ABFE22440244557170BD10B50446B6
S31508009F50FFF74BFEFF2806D02368185CFCF7B8FA13
S31508009F600230C0B210BD0220FCE770B50646FFF706
S31508009F70A9FFFF2804462CD0356828462AF0B0FAEF
S31508009F8083051BD53046FFF7E1FFB188A21C93B2C3
S31508009F9010FA82F28A4205EB04061CDC2A5D02F0FE
S31508009FA07F0213449CB210FA83F3994213DB32887A
S31508009FB0C2F3C7127F2A01D09942E7DC2B7803F057
S31508009FC00703032B05D128462AF09BFA08B9013462
S31508009FD0A4B2E0B270BDFF24FBE738B50546FFF72B
S31508009FE0C4FFFF28044614D02868037803F0070343
S31508009FF0032B04D12AF085FA08B10134E4B22846C5
S3150800A000FFF7A4FFAB8804449C42CCBF062000207F
S3150800A01038BD0620FCE710B50446FFF7A6FFFF2863
S3150800A02016BF23680020C01810BD10B50446FFF7F8
S3150800A030F2FF2368C01AC0B210BD70B505468688FF
S3150800A040FFF7F3FF04462846FFF780FF0444301B5A
S3150800A05080B270BD10B5044600682AF041FA83053F
S3150800A06003D52046BDE810402CE7FF2010BD08B5F3
S3150800A07025F062FB003818BF012008BD08B525F099
S3150800A0805BFB00B1023008BD00232DE9F0419EB00C
S3150800A09003930AAB08930823044600680D46ADF8F7
S3150800A0A024302AF038FA002859D020460DF10B0141
S3150800A0B0FFF7AAFD002852D1204603A9FFF7C4FDE1
S3150800A0C0064600284BD10DF11008434628686968F2
S3150800A0D09DF80B2003C303981946FCF778FFA3687D
S3150800A0E08DF81C20196808A82AF051F82046FFF7B1
S3150800A0F02DFF05462046FFF798FF07462046FFF73F
S3150800A1009CFFAB1EDBB20246394608A8CDF8008094
S3150800A11023F0E0FF2046FFF788FF25680246294618
S3150800A12008A8FFF7E0F82046FFF775FF0546204622
S3150800A130FFF783FF2A460346294608A80096FFF735
S3150800A1400FF92046FFF702FFA38825681B1AE918AE
S3150800A15008A8FFF798F9237F43F0100323771EB06A
S3150800A160BDE8F0810023F0B5A3B003930EAB0C93C2
S3150800A1700823044600680D461646ADF834302AF022
S3150800A180CAF930B120460DF10B01FFF73DFD10B1BC
S3150800A190082023B0F0BD204603A9FFF755FD002887
S3150800A1A0F6D104AF3B46286869689DF80B2003C3BF
S3150800A1B003981946FCF70BFF31680CA88DF81C208C
S3150800A1C029F0E5FF2046FFF7C1FE851E2046FFF76A
S3150800A1D02CFF06462046FFF730FFEDB22B46024617
S3150800A1E031460CA8009723F075FF2046FFF71DFFA0
S3150800A1F02668024631460CA8FFF775F82046FFF791
S3150800A2000AFF06462046FFF718FF01220346314695
S3150800A21000920CA83246FFF7A3F808A90CA8FFF786
S3150800A22032F92046FFF792FEA3882668181A3118D5
S3150800A2302A4608A835F0FBF8003818BF0120C000E8
S3150800A240A7E70B6803604B684360037883F0020353
S3150800A25003707047082208B535F0E9F8B0FA80F0BF
S3150800A260400908BD10B5044600680FF037FC4FF0EA
S3150800A2700043236010BDF0B5002787B00446006888
S3150800A2800E46154605970FF029FC4FF0004323604C
S3150800A29010234FF41051CDE90163074A45F4407382
S3150800A2A0009705A804F042F80FF0DAFA00B1FEE7C5
S3150800A2B0059B236007B0F0BD0044400408210FF059
S3150800A2C003BC01F1080313F8012D8B4200F8012B9A
S3150800A2D0F9D17047F8B507680E4638462AF002F9EC
S3150800A2E0044638462AF0FCF80546FFF7C0FB04EB9F
S3150800A2F04003DBB2FF2B13D0C5F38120022805D01B
S3150800A300032807D0002300203372F8BDFB5A338098
S3150800A3100123F8E7F9183046FFF7D3FF0223F2E7DF
S3150800A3200620F2E7F8B507680E4638462AF0D8F848
S3150800A330054638462AF0D6F804462846FFF797FB1E
S3150800A34008B10234E4B2C5F38123022B12D0032BE1
S3150800A35013D02846FFF7D9FB08B10234E4B2FF2C24
S3150800A36006D0C5F38135022D09D0032D0DD04DB188
S3150800A370062009E00234E4B2EBE70834FBE70125DE
S3150800A3803B5B338000203572F8BD30463919FFF73C
S3150800A39098FF0225F6E708B5044BC1800022186825
S3150800A3A034F0ECFB00B1FEE708BD00BF5C190020E5
S3150800A3B007B50A68C0F80A204A68C0F80E20684639
S3150800A3C0FFF77FFF0723094A1DF80310013B02F830
S3150800A3D0011BF9D2064B00226946186834F0D4FBF3
S3150800A3E000B1FEE703B05DF804FB00BFE8590020A2
S3150800A3F05C1900202DE9F043044689B0B0F86C607A
S3150800A40011F06DF8E36F514AC11A94F880000023E1
S3150800A4103230A1FB000133F023FCA02794F88130E9
S3150800A4207E4303EB830300EB430000F1780300F55A
S3150800A430647520467608B54228BF35469E4228BF31
S3150800A4401E4630F8843BA16F13F0800254D0B4F84E
S3150800A4506C305F433944491BFEF769FCA36FD4F897
S3150800A46074803B44A3673A4B07EB08021A61A3784A
S3150800A470626713F0FD0F35D094F86E7024F000FF74
S3150800A48004463448C7F3060907F07F0734F0F8FF97
S3150800A49040BB214638460FF007FC044610BB012195
S3150800A4A0202034F0D5FFFF238DF804300123A5F5CD
S3150800A4B01675294807948DF81C30A8EB05030493F4
S3150800A4C035443946006801AB04AACDE9024405942F
S3150800A4D0069534F00DF940B9204B83F80690204BC9
S3150800A4E083F8069009B0BDE8F0832146202009B01C
S3150800A4F0BDE8F04334F0ACBF94F86E305FEAD31C85
S3150800A5000CD062F3C71384F86E30491BFEF70FFCB4
S3150800A510204609B0BDE8F043FCF7B4B93144B4F8B5
S3150800A5206C50FEF704FC94F86E307D4343F08003CC
S3150800A53084F86E300AF08CFCA26F636F2A44A26717
S3150800A540034A2B4463671361E2E700BF40420F00EA
S3150800A550341B0020400001005C190020F01A00207E
S3150800A560C01A0020F8B50446B4F86CC090F86E001E
S3150800A5708C45069DB4F8706000F07F070CD094F8FF
S3150800A5806E0062F3060084F86E004FF6FF72914281
S3150800A590A4F870300CD1FEE7974206D062F30600A5
S3150800A5A09E4284F86E00F0D1F8BD9E42E7D1FBE7E3
S3150800A5B04FF6FD72934209D815480246C16022F843
S3150800A5C0023B2B68C0F802306B68536094F86E3013
S3150800A5D0A4F86C106FF3C71384F86E3004F1840086
S3150800A5E0FEF704FCB4F86C304BB110F078FF6067E6
S3150800A5F00AF02EFCA0672046BDE8F840FAE6238854
S3150800A6001B06D1D42046BDE8F840FCF73BB900BF8D
S3150800A610341B002013B590F82030DB0717D590F8C7
S3150800A620212002B9827A0B4C343004F1800300935E
S3150800A63030F8121CB4F89C30FFF794FF23F014FF8F
S3150800A64004F1580002B0BDE8104015F029BA02B06E
S3150800A65010BD00BFF03F002008B519B1A1F10B03EA
S3150800A6600F2B0ED800F5805393F8692E8A4206D030
S3150800A67000F5F25083F8691E0830FFF7CBFF00207B
S3150800A68008BD0720FCE710B504460C30FFF79AF81A
S3150800A69000B3A27A8A4205D14FF4804023F0FAFF2C
S3150800A6A0002010BD4FF48040A17223F053FF04F53B
S3150800A6B0B470FFF7D9F923789B06F1D4A37AE3722D
S3150800A6C094F8213013B92046FFF7A4FF2046FFF778
S3150800A6D02CF9E5E70720E4E71FB590F82030044693
S3150800A6E0990703F001020ED5418C61B1F2B943F026
S3150800A6F0010380F82030FFF78DFF204604B0BDE83F
S3150800A7001040FFF712B98AB1002294F8203011469A
S3150800A7106FF3000384F8203002AB009304F1340091
S3150800A7204FF6FE73CDE90222FFF71CFF04B010BDF9
S3150800A730438C8B420AD0B3FA83F34184B1FA81F190
S3150800A7405B0949098B4200D0C6E763E770470A46AA
S3150800A75008B581B1A021B2FBF1F301FB132141B980
S3150800A7604FF6FF718B4228BF0B46B2F51B5F99B2B5
S3150800A77001D2072005E000F5F2500830FFF7D8FFB0
S3150800A780002008BD004835E66C3E00200A4690F8D1
S3150800A790FE10FEF7C9BC002910B514BF33210E21DF
S3150800A7A01446FFF7F3FF38B1D0F802302360D0F82B
S3150800A7B006300020636010BD1720FCE7F8B5044694
S3150800A7C018300D46FDF7ADFE4FF0FF332374637462
S3150800A7D0A374E37423756375A375E37523726372B3
S3150800A7E0A372E37223736373A373E37395F8FE305E
S3150800A7F0DBB126466378284643F00103637016F8F2
S3150800A800087B32463946FFF7C6FF28B996E80300A3
S3150800A81004F1100383E8030017B9284627F09CFDC6
S3150800A8202078BDE8F84029F051BCF8BD2DE9F04183
S3150800A8300746884603261B4D86B0013E02D106B060
S3150800A840BDE8F0813B7803BB6B7803F500334046DF
S3150800A85029780593FFF79AFF044600B34278F2B1C8
S3150800A860FF2A0CBF0423022303440193012341F268
S3150800A8700101029200934FF0004205A803F056FD2D
S3150800A8800EF0EEFF014610B1FEE7AB78DDE7627821
S3150800A890FF2A0CBF04200220204433F0D2FB0335E4
S3150800A8A0CBE700BF012F040870B50D46C2B00446B9
S3150800A8B0FBF778FF95F8FE60002E3BD12378002B36
S3150800A8C014BF0220012023F009FB0C2800D1FEE763
S3150800A8D0637866F3000322466370284612F8081B5D
S3150800A8E0FFF759FF48B14FF0FF3323726372A37223
S3150800A8F0E37223736373A373E373FCF747FB23784D
S3150800A9006060012B2FD11948FDF70BFE342128462C
S3150800A910FFF73CFF38B3FBF7F0FD154B02469842AC
S3150800A92028BF1A46D5F80011104842B0BDE8704055
S3150800A930FDF77EBD01A829F0D1FB3246294601A8BC
S3150800A94033F09EFDD5F80031204601A941938DF8D4
S3150800A9500261FFF76BFF207801A923F027FD6378D2
S3150800A96043F00103B7E742B070BD00BF8C3D00203D
S3150800A9700014730F70B50C460546C2B001A829F03D
S3150800A980ADFB94F8FE602146324601A833F078FD07
S3150800A990D4F80031284601A941938DF80261FFF7E2
S3150800A9A045FF287801A923F001FD42B070BD10B516
S3150800A9B091F8FE200446FF2A09D080F8FE2033F0DD
S3150800A9C05FFDFCF7E3FAC4F80001002010BD07207C
S3150800A9D0FCE72DE9F8430F46984690F8FE400546F1
S3150800A9E01646FFF7D3FEC4F1FE040146A4B208F1E9
S3150800A9F0020918B94C450AD2032021E043780233EC
S3150800AA001C44A4B24C45F7D32846FBF7E7FE95F855
S3150800AA10FE30B8F1FF0F994405EB030085F8FE9068
S3150800AA20EF5414BF022304234246314680F80180BE
S3150800AA30184433F025FDFCF7A9FAC5F800010020F3
S3150800AA40BDE8F88310B50446FFF7A0FE014620B11D
S3150800AA502046BDE81040FBF7C1BE10BD00232DE916
S3150800AA60F74FFE2281F8FE3003780546002BADF835
S3150800AA70042014BF0220012001AA0C4623F098FBEB
S3150800AA800746002842D1BDF80430FE2B3DD8814642
S3150800AA90314E84F8FE3006F1060B2B78002B39D19F
S3150800AAA096F801A020463178FFF770FE804698B1E7
S3150800AAB042788AB1FF2A0CBF0421022101AB014466
S3150800AAC00AF500300EF0F8FE38BB98F80120019B15
S3150800AAD09A4218BF4FF0010903365E45DDD1B9F138
S3150800AAE0000F03D021462846FFF744FF2B78BBB951
S3150800AAF033212046FFF7A6FF34212046FFF7A2FFA1
S3150800AB00FCF744FAC4F8000100E01727384603B0FA
S3150800AB10BDE8F08F96F802A0C4E74FF00109DBE71D
S3150800AB2034212046FFF732FE06460028EED0FBF712
S3150800AB30E4FC0A4B6D68984228BF18468046FCF725
S3150800AB4025FA431B98458ABF2D1A002005EB0800F5
S3150800AB50B11CFCF73CFAD3E7012F04080014730F65
S3150800AB6030B50446C3B001A829F0B8FA01A92046B1
S3150800AB70FFF774FF054601A92046FFF71FFE284682
S3150800AB8043B030BD70B50C460546C2B001A829F0E1
S3150800AB90A5FAFF220021204633F053FA284601A9D8
S3150800ABA0FFF75CFF054640B99DF80261204632462C
S3150800ABB001A933F065FC84F8FE60284642B070BDF2
S3150800ABC04FF0FF3310B50446037443748374C3749B
S3150800ABD0037543758375C375037243728372C372B3
S3150800ABE0037343738373C37343786FF3000343702C
S3150800ABF0FBF7D8FD2378002B14BF0220012023F091
S3150800AC006DF90C2800D1FEE704F11800FDF789FC60
S3150800AC102378012B02D10448FDF783FC2078BDE890
S3150800AC20104029F053BA00BF8C3D002038B500F516
S3150800AC30005393F85930044693B900F5F25008309A
S3150800AC40FFF721FD054648B904F5EA500430FFF739
S3150800AC50B7FF04F5EB501030FFF7B2FF284638BDB2
S3150800AC600D25FBE738B500F5005393F8595004460F
S3150800AC7085B900F5F2500830FEF742FE04F5EA50B1
S3150800AC800430FFF79DFF04F5EB501030FFF798FFEF
S3150800AC90284638BD0D25FBE72DE9F04105460E4649
S3150800ACA0B9B300F5005393F85940A4BB00F5805892
S3150800ACB000F5EE57D8F8D80D1837814210D14FF461
S3150800ACC0802023F0E7FC05F5EA500430FFF778FF0B
S3150800ACD005F5EB501030FFF773FF2046BDE8F0810D
S3150800ACE00EF0FCFE4FF48020C8F8D86D23F032FC35
S3150800ACF04FF4807023F02EFC3846C8F8DC4D13F06C
S3150800AD00D1FE064BC3E92444C3F89840C3F88C40E7
S3150800AD10D9E70724E1E70D24DFE700BFF03F00206D
S3150800AD2070B58CB0054602A80C46FCF74CF94FF2F4
S3150800AD30BF03ADF82A306B78990732D42B78002BED
S3150800AD4014BF1C200D2024F001F9064658B32146ED
S3150800AD5094F8FE20FCF7E2FC0446F0B902A806F0D7
S3150800AD60C1FF4FF07F42114C06AB94E8030083E81D
S3150800AD7003000F4BA4F63820CDE9082331460D4BC6
S3150800AD80009502AAFDF73EFC044630B96B7843F0FD
S3150800AD9002036B7020460CB070BD3046FCF71AFAF9
S3150800ADA0F8E71824F6E70324F4E700BF3842002042
S3150800ADB0FE00FC006590000838B515461FF0B5FD85
S3150800ADC0044650B101462A460448FDF74BFD20B11A
S3150800ADD02046BDE83840FCF7FDB938BD00380020EC
S3150800ADE0024690F8403030B5C4189442154606D14C
S3150800ADF0402B08D05A1C80F84020C15403E02D7817
S3150800AE0001328D42F1D130BD2DE9F0419CB080462A
S3150800AE1001A80C461F461646229DFCF7D4F84FF2A9
S3150800AE20BF03ADF8263000238DF86C3023781BB1AC
S3150800AE300E210BA8FFF7D4FF63781BB133210BA8AB
S3150800AE40FFF7CEFFA3781BB105210BA8FFF7C8FFB4
S3150800AE50E3781BB103210BA8FFF7C2FF23791BB1C7
S3150800AE6002210BA8FFF7BCFF63791BB107210BA8CA
S3150800AE70FFF7B6FFA3791BB134210BA8FFF7B0FF84
S3150800AE80E3791BB101210BA8FFF7AAFF237A1BB1AF
S3150800AE9000210BA8FFF7A4FF237B1BB14A210BA8AF
S3150800AEA0FFF79EFF637A1BB104210BA8FFF798FFF3
S3150800AEB0A37A1BB10C210BA8FFF792FFE37A1BB10B
S3150800AEC035210BA8FFF78CFF3744BE422BD198F8E3
S3150800AED00030002B14BF1A200B2024F037F8064642
S3150800AEE000283CD09DF86C301BBB01A806F0FAFE82
S3150800AEF01C4B05AA93E803004FF07F4382E8030042
S3150800AF000793FE23ADF82030F5B9FC23ADF82230BF
S3150800AF103146154801AAFDF7A5FC044680B9204626
S3150800AF201CB0BDE8F08116F8011B0BA8FFF758FF07
S3150800AF30CBE70D210BAAFEF716F904460028D4D054
S3150800AF403046FCF747F9EAE72B46103514461868E9
S3150800AF505968083303C4AB422246F7D1D8E703241D
S3150800AF60DDE700BF384200200038002010B50C4647
S3150800AF700E21FFF70BFC38B1D0F802302360D0F869
S3150800AF8006300020636010BD1720FCE7082208B5CC
S3150800AF9034F04DFAB0FA80F0400908BD38B50446D9
S3150800AFA00D46FFF7F3FF28B1BDE838404FF40030EF
S3150800AFB023F070BB2B684FF4003023606B68636026
S3150800AFC0BDE8384023F0C6BAF0B50546007840B368
S3150800AFD00A88C600F6B2B2FBF6F3012706FB13226F
S3150800AFE0431EDCB2C2F3C403E31A55FA83F35B7853
S3150800AFF002F0070207FA02F213EA020011D04B88A0
S3150800B000B3FBF6F206FB1233C3F3C402A41A55FACD
S3150800B01084F003F007039F4043783B4214BF0120A6
S3150800B0200020F0BD41F2210337B50C46054601461E
S3150800B03001A8019322F05AFE48F20503208029460A
S3150800B04001A8019322F052FE608003B030BD30B5EE
S3150800B0500546C3B008A80C4629F086F808A8FEF7E6
S3150800B0606DFB0822294608A8FEF776FB694608A85C
S3150800B070FEF798FB6B4603CB20602378616043F0AC
S3150800B0800203237008A829F065F843B030BD13B54C
S3150800B0900446684613F050FA638861785BBA022959
S3150800B0A0ADF8003000D1FEE7227903294FEAD21322
S3150800B0B0C2F3801043F0800343EA4003C2F3401012
S3150800B0C043EA8003C2F3001043EAC00382F0040097
S3150800B0D0C0F3800043EA001382F002006FEA02021E
S3150800B0E0C0F3400002F0010243EA401343EA821328
S3150800B0F0BDF8022022F47F6222F00F0243EA02031F
S3150800B100ADF8023011D0617923F4786381F04000FC
S3150800B11001F08002C0F3801042EA002201F0070124
S3150800B12042EA41221343ADF802300020009B9AB24E
S3150800B13062F30F001B0C63F31F4002B010BD00231F
S3150800B1402DE9F3410B60438904460E46002B33D0A4
S3150800B1501D4F608988B301282ED06068218978B38D
S3150800B16002236A46FCF732F96D466B78628903F169
S3150800B1700208424520D32A78C2B9042B1CD160683C
S3150800B18028B106236A4604F10801FCF742FAD5F805
S3150800B1900200FBF7C5FFFBF7B4F92B78002B0CBFB1
S3150800B1A03B4600231840336803433360414604F1A5
S3150800B1B00800FCF771FDCCE7062002B0BDE8F08177
S3150800B1C025680D44D1E700BF00F8FF071FB5002327
S3150800B1D00293ADF80C30831C0193437801A8ADF8AF
S3150800B1E00E30FFF7ACFF05B05DF804FB73B590F8B9
S3150800B1F0FE300546FF2B00EB03065DD1062002B0A4
S3150800B20070BD6178FF29F9D0A21C9642F6D3204674
S3150800B210FDF7F6FD20448642F0D323780E2B0BD893
S3150800B2200E2B10D8DFE803F0213E442E42420F448D
S3150800B2300F0F0F0F340F4400352B2CD013D8332B98
S3150800B24036D0342B36D0611B2846227889B2FDF7D2
S3150800B2506BFF0028D2D12046FDF7D2FD0444B44244
S3150800B260CFD30020CBE74A2BEDD10229C6D9A37844
S3150800B270002BC3D1B4F803305BBA0B3B9BB20F2B40
S3150800B280E1D9BBE71046FCF789FF0028DBD1B5E713
S3150800B2900229D8D8B2E7204601A9FFF797FF002868
S3150800B2A0D1D0ABE702239942CDD2A7E71023FAE71C
S3150800B2B00823F8E70423F6E70446D0E730B585B057
S3150800B2C00C466A4635210546FDF737FE38B9009B18
S3150800B2D0CDE90105214601A80393FFF730FF05B024
S3150800B2E030BD002310B5044683710948084058B19B
S3150800B2F0237004236370FBF704F9FBF711FF062399
S3150800B300C4F80200A37110BD002AF1D1FBE700BF03
S3150800B31000F8FF0791F8783073B505460C465BB11F
S3150800B3206846FBF7FFFE08236A460E212846FFF704
S3150800B33050FB002840F0168194F879306BB16846C6
S3150800B34004F11001FBF7EEFE08236A46332128466E
S3150800B350FFF73FFB002840F0058194F87E30002B6C
S3150800B36040F0F38094F880307BB10021B4F85A306D
S3150800B3706A465BBAADF80130284603238DF80010FB
S3150800B380FFF727FB002840F0ED8094F8843083B15E
S3150800B3900022B4F85C308DF800205BBAADF80130B5
S3150800B3A06A4603234A212846FFF713FB002840F084
S3150800B3B0D98094F8833073B100226846616FFFF72D
S3150800B3C090FF6A46352128469DF80630FFF701FBAF
S3150800B3D0002840F0C78094F87C30002B40F0C480E9
S3150800B3E094F87D304BB108230721284604F1490219
S3150800B3F0FFF7EFFA002840F0B58094F87A304BB1A1
S3150800B40010230521284604F12002FFF7E2FA002856
S3150800B41040F0A88094F87B3073B104F1300611210E
S3150800B4203046FCF773FC3246C3B203212846FFF7C1
S3150800B430D0FA002840F0968094F87F306BB1B4F8C3
S3150800B44058306A465BBAADF8003001210223284617
S3150800B450FFF7BFFA002840F0858094F8813043B1A1
S3150800B46010230421284604F15E02FFF7B2FA0028E9
S3150800B47078D194F88230002B65D040F20C43ADF8B1
S3150800B4800030B4F86E305BBAADF802300023ADF880
S3150800B490043094F87030DE0744BF80228DF804200B
S3150800B4A0980742BF9DF8042042F040028DF8042018
S3150800B4B0590742BF9DF8042042F020028DF8042067
S3150800B4C01A0742BF9DF8042042F010028DF80420A6
S3150800B4D0DE065EBF9DF8042042F004028DF80420C3
S3150800B4E0980658BF9DF8042028465CBF42F0020221
S3150800B4F08DF80420590658BF9DF804204FF00C011A
S3150800B5005CBF42F001028DF80420DB091CBF8023D2
