S02200006275696C642F64656275672F736C656570792D64656D6F2D6674642E7333378E
S3150800600008180020235D0208993104089D31040808
S3150800601099C60008A1310408A93104089554020854
S315080060209554020895540208955402089554020896
S31508006030AD31040820030508955402089554020852
S31508006040C199020895540208955402089554020805
S315080060509554020895540208955402089554020866
S3150800606095540208955402089554020817280308FF
S3150800607015280308955402089554020895540208F1
S315080060809554020895540208955402089554020836
S31508006090955402088D55020895540208955402082D
S315080060A09554020869550208455502089554020890
S315080060B095540208619C040835A50408A5C6040879
S315080060C0A1C60408A99C0408BBC60408A9C60408F6
S315080060D005A50408ADC6040875A50408DDA50408C9
S315080060E095540208955402089554020895540208D6
S315080060F095540208955402089554020895540208C6
S3150800610095540208955402089554020895540208B5
S3150800611095540208955402089554020895540208A5
S315080061209554020895540208955402089554020895
S315080061309554020895540208955402089554020885
S3150800614095540208955402089554020831CD04085E
S31508006150A5880408955402088FC6040895C604083D
S315080061609554020895540208955402089554020855
S31508006180F0B5114A114C124E00F00105E3695F079C
S3150800619013D40DB9334213D103EA00078F4207D14E
S315080061A00B4A1A40002A0CBF00206FF00100F0BD10
S315080061B0013AEBD16FF00200F9E74FF0FF30F6E74E
S315080061C06FF00100F3E700BF8096980000000350C7
S315080061D002000100000000000000000000000000AE
S315080061E0013800D0FCE7704700F58050D0F80C0A5B
S315080061F0704700F58050D0F8100A704700F58050B7
S31508006200D0F8000A704700F58050C0F8001A7047A9
S3150800621000F54050B0F8E209704700F54050B0F874
S31508006220E009704700F54050D0F8D40B704700F5E8
S31508006230805090F8660E704700F5805090F8740EFE
S31508006240704700F5805080F8741E704700F580503E
S3150800625090F8750E704700F5805080F8751E7047E7
S31508006260004870479CFE0408004870479DFE0408D5
S31508006270004870479EFE0408004870479FFE0408C1
S31508006280002908BF4FF4E151044B00F580509942AC
S3150800629094BFC0F80C1AC0F80C3A70479AC420008C
S315080062A0074B00F58050002914BF0A461A46054BCD
S315080062B09A4294BFC0F8102AC0F8103A704700BF37
S315080062C0007512009AC4200000F50050D0F8EC00C2
S315080062D0704700F5EE500430704700F5EE50153063
S315080062E0704700F58050D0F8F00D704700F58050E3
S315080062F0B0F8260E704700F58050A0F8261E7047A5
S3150800630000F50050B0F8A20370470420704700F566
S31508006310005090F8E130012B9ABF80F862130020F4
S315080063200D20704700F5005090F86603704700F599
S31508006330005080F86613704700F54050D0F86008A2
S31508006340704700F54050C0F86018704700F50050D7
S3150800635090F86303704700F5005080F863137047A0
S3150800636000F5005090F86403704700F5005080F877
S315080063706413704700F5005090F86903704700F5FC
S31508006380005393F8E10010B983F8691370470D209C
S31508006390704700F5005090F86503704700F5005007
S315080063A080F86513704700F5405090F86102704711
S315080063B000F5405080F86112704770B505680C46C4
S315080063C025B9BDE870404B68084818478B68984758
S315080063D06A680146831A002BB8BF121A2368A8BF39
S315080063E00022BDE870400148184700BF3021002050
S315080063F038B50C461146A2680346944206D005688D
S31508006400AC420BD10260FFF7D8FFA46038BD9442B6
S315080064100DD011469268002AF9D1F6E72A460021DE
S31508006420F9E78B68002BF0D09B688B60EDE70029B5
S31508006430F7D1002DE9D0AA681A60E6E72DE9F04100
S31508006440936805460C46164698473246074621463F
S315080064502846FFF7CDFF2868002203466BB161681E
S31508006460D3F804E0A1EB070CAEEB070898EA0C0F8B
S3150800647013D4A1EB0E01002907DA4AB9A060314608
S3150800648028462C60BDE8F04197E71A469B68E5E781
S315080064909368A3609460BDE8F081BCF1000FEBE758
S315080064A070B5066804460D467EB18B6898477368D2
S315080064B0C01A002809DB20462A463146FFF798FF0E
S315080064C030463368BDE87040184729462046BDE87F
S315080064D0704072E700F5405393F8D03B13B1024978
S315080064E00830DDE7704700BFA0FE040800F54053FA
S315080064F093F8D03B13B102490C30D1E7704700BF7F
S31508006500ACFE04080968006845F069B909680068BE
S3150800651045F065B90968006845F061B90968006819
S3150800652045F05DB90968006845F059B92DE9F041AB
S315080065300D4606468AB03549286839F0A4FAC0B12E
S3150800654000270435286806A939F0A6FE044660B96E
S315080065506C682F49204639F096FA60B105F10801B2
S3150800656002A830F0FBFF0446C8B120460AB0BDE8D1
S31508006570F0810127E6E72046264939F084FA08B96A
S315080065800724F2E7A8680DF10B0139F0D5FE044699
S3150800659005460028E9D133689DF80B4001E03368C9
S315080065A002AD1D4A03F54053C3F8642AC3F8686A66
S315080065B003A906A82DF068FD08B10446D5E70DF134
S315080065C010080490A8F804008DF8104035B1284644
S315080065D00DF1110119F08AFF8DF815001CB19DF80F
S315080065E01530002BCCD101230C4A0D48CDF800807C
S315080065F006A91BF04CFB04460028B6D1002FB4D0E0
S31508006600337A242443F001033372AEE72DD304080A
S3150800661084F604088BF60408F96E0008B8FE040828
S315080066201042002070B50D4604468AB03A492868DB
S3150800663039F029FA08B1686808B9072046E02F2119
S3150800664045F002F90646002839D10023686802A9F0
S315080066508DF8203039F000FE002837D124689DF8DF
S31508006660203004F55C541C34002B50D05A1E3F2AA7
S31508006670CDE9040041D8DDE906160DF117051A46DD
S315080066802846072A3AD8DD08C5EB451203EBC203AC
S3150800669013F0FF020AD00123401B9340DBB20278B5
S315080066A05D42013B2A400B401343037001A904A82D
S315080066B015F094F9204601A924F02EFB06E004A95A
S315080066C0013021F02FFD18B11728BED00AB070BDD1
S315080066D0049B059AB3F5807F72F10002ADD2DBB256
S315080066E08DF82030013B3F2BA7D83070686806A983
S315080066F021F018FD1728AFD1A7E7FEE705F801191D
S31508006700083A090A41EA0661D2B2360AB9E704A983
S3150800671002A815F078F9C9E793F60408014B024A6E
S3150800672011F0B4BB81620008E9610008014B024A16
S3150800673011F0ACBBA1620008F3610008014B024AE4
S3150800674011F0A4BB07620008FD61000830B50C46CD
S3150800675087B0054601A9206839F09EFD70B96068C2
S3150800676005A939F0D8FD48B9A3684BB92B68024684
S3150800677003F5CF5001A9103018F0A2FA07B030BDC2
S315080067800720FBE710B50C684CB90068224600F5EF
S31508006790CF501030214617F0D9F9204610BD0720F2
S315080067A0FCE770B50E6805460C4686B030461949B2
S315080067B039F069F9D0B100260434206801A939F006
S315080067C06BFD88B9606805A939F0A5FD60B9A368AD
S315080067D0F3B9286885F8406000F5B45001AA05F1B8
S315080067E00C01183018F051F806B070BD30460A4949
S315080067F039F049F910B103260434DEE73046074973
S3150800680039F041F910B101260434D6E70226D4E757
S315080068100720E9E799F604089CF604089FF6040899
S31508006820014651F80C0B00F5B450183017F062B950
S315080068301346B0F86C202AB10A4600F15C010248FA
S3150800684018F08EBA0D207047C837002000F5405062
S31508006850B0F8E2398B4209D0A0F8E219044890F85A
S31508006860E130022B02D1E0303CF0A4BB704700BFF8
S315080068703041002000F54053B3F8E0298A4206D09B
S3150800688000F56750A3F8E019203017F070BB704781
S315080068901FB500240294079C00F5CA500194069C73
S315080068A00C30009418F00EFC04B010BD1FB501247E
S315080068B00294079C00F5CA500194069C0C3000947B
S315080068C018F000FC04B010BD00F5EF500A4606307B
S315080068D0002116F093BC00F5EF500A460630012158
S315080068E016F08CBC08B53530353120F0010021F0A2
S315080068F0010103780A7803F00F0302F00F029A42A7
S3150800690007D10431043045F0F1FEB0FA80F04009B1
S3150800691008BD0020FCE710B5044604F5005432F023
S31508006920C1FBD4F8CC3033F07C4204D0C3F319034E
S31508006930984228BF184610BD052938BF0521B1F56C
S31508006940E14F28BF4FF4E14138B500F50055D5F8B9
S31508006950EC30044699420ED0C5F8EC1032F070FBC4
S3150800696095F8E130022B06D104F503502030BDE836
S3150800697038403CF01FBB38BD42F21073994210B53F
S31508006980044615D800F50053D3F8F02091420DD0EF
S31508006990C3F8F01032F054FB064B93F87C3EDB0745
S315080069A004D504F5035020301BF000FA002010BD72
S315080069B00720FCE7303100202DE9F04104460E4659
S315080069C091B300F5005393F8E1507DBB00F580586C
S315080069D000F5EF57D8F8EC0D0C37814210D14FF47B
S315080069E0802032F02DFE04F5EA50183014F032FEFD
S315080069F004F5EC50043014F02DFE2846BDE8F0816D
S31508006A0010F088F84FF48020C8F8EC6D32F0D9FD04
S31508006A104FF4807032F0D5FD3846C8F8F05D19F0AD
S31508006A2077FB32F079FADEE70725E6E70D25E4E796
S31508006A30F8B504460D4649B300F5005393F8E160EE
S31508006A4036BB00F58057D7F8380E814215D14FF47A
S31508006A50002032F0F5FD97F8543E04F5EA5043F06D
S31508006A600103183087F8543E14F0F4FD04F5EC5091
S31508006A70043014F0EFFD3046F8BD10F04BF84FF433
S31508006A800020C7F8385E32F09CFDE4E70726F2E7F7
S31508006A900D26F0E738B500F5005292F8E1200546D4
S31508006AA0B2B9B9B10B78ABB100F5EE50043015F0B8
S31508006AB0BEFA32F0CDFD044605F5EA50183014F05A
S31508006AC0C9FD05F5EC50043014F0C4FD204638BD68
S31508006AD00D24FBE70724F9E710B500F5005393F8F2
S31508006AE0E1404CB900F5EE50153015F0A0FA18281B
S31508006AF018BF0446204610BD0D24FBE700F5EF50ED
S31508006B0000220C3019F0A8BB38B54B1E092B0446D9
S31508006B100D460BD800F50E500521203017F0BDFAAA
S31508006B2030B904F50054A4F8A25338BD0720FCE791
S31508006B300D20FAE700F56250383014F006BF08B5A4
S31508006B4000F5405393F80A2900F5625042F0010215
S31508006B50A3F8081983F80A29383018F099FE002096
S31508006B6008BD3E2904D800F52A50083020F0C6BAD8
S31508006B700720704738F010BD13B590F82030DB07B2
S31508006B8017D590F8212002B9827A0B4C343004F5D7
S31508006B908473009330F8121CB4F8243114F062FAA6
S31508006BA032F04EFA04F1E00002B0BDE810401BF0E6
S31508006BB0FDB802B010BD00BF3041002008B519B1BC
S31508006BC0A1F10B030F2B0ED800F5805393F87D2EF9
S31508006BD08A4206D000F5F25083F87D1E1C30FFF776
S31508006BE0CBFF002008BD0720FCE7436810B4D3E9B3
S31508006BF0004023465DF8044B18470EB403B503AAB4
S31508006C0052F8041B0192FFF7F0FF02B05DF804EB9F
S31508006C1003B070470049F0E7B712050873B50D468B
S31508006C200446028843881F492846FFF7E6FF22885C
S31508006C309AB1237B8BB963889A420ED34FF47A7143
S31508006C40D31A4B430A2193FBF2F3B3FBF1F228461E
S31508006C5001FB12331449FFF7D0FF6288A2B14FF443
S31508006C607A7660680023A0FB060144F071F9B0FB50
S31508006C70F6F306FB130062890090019228462289E2
S31508006C800A499BB2FFF7B9FF2846FFF7C3FF287AE0
S31508006C9010F0010004D102B0BDE870402DF04CBAE6
S31508006CA002B070BDA2F60408CFF60408E8F6040898
S31508006CB0F8B506460C46064F8D18AC4200D1F8BD0D
S31508006CC03946304614F8012BFFF797FFF5E700BF62
S31508006CD0CCDA040810B50446FFF7EAFF2046BDE8FB
S31508006CE0104097E7FF2330B5C3B005468DF8073047
S31508006CF099B900680DF1070300F55C5002AA1C302B
S31508006D001FF0D9FF044628B928469DF8072002A98E
S31508006D10FFF7E0FF204643B030BD0C24FAE7F0B594
S31508006D201C46002387B08DF8143052EA0403064641
S31508006D3015460ED130230DF113078DF81330304662
S31508006D403A460D49FFF759FF304607B0BDE8F0400F
S31508006D5060E705AF284621460A22002344F0F8F8E2
S31508006D60303207F8012D2A4623460A2A73F1000312
S31508006D7005460C46EED2E2E759D904084FF420132B
S31508006D8030B58DB0044601930023084602AD694626
S31508006D9008228DF80830009516F00EFA2A46204685
S31508006DA00249FFF72AFF0DB030BD00BF59D90408C4
S31508006DB010B50446FFF7E2FF2046BDE8104029E774
S31508006DC037B50546CC884B8864BAA4B20A880194BC
S31508006DD089885BBA49BA89B252BA00919BB204490A
S31508006DE092B2FFF70AFF284603B0BDE8304011E724
S31508006DF014F7040810B504468CB0084669462DF009
S31508006E00E4F920466A460449FFF7F7FE20460CB027
S31508006E10BDE81040FEE600BF59D904080CB473B5A6
S31508006E20054606AC54F8046B0A46074B0749FFF7B4
S31508006E30E4FE2246314628460194FFF7D6FE02B004
S31508006E40BDE8704002B07047891505081CFA0408A9
S31508006E500EB417B5044605AA52F8041B0192FFF7AB
S31508006E60C4FE2046FFF7D6FE03B0BDE8104003B0C7
S31508006E70704708B50249FFF7EBFF232008BD00BF9E
S31508006E8025F7040808B50249FFF7E2FF232008BDE5
S31508006E907DF704080B7870B5DE0705460C4603D562
S31508006EA04A681049FFF7D4FF2378990705D528467D
S31508006EB00D4B227A0D49FFF7CBFF23785A0705D5E4
S31508006EC02846094B627A0A49FFF7C2FF23781B074F
S31508006ED007D5284694F90A20034B0649BDE87040B1
S31508006EE0B6E770BDD3F70408B9FE0408F9F7040835
S31508006EF007F804081DF80408F8B507461C460E46A8
S31508006F00184615491546FFF778FE39462046FFF715
S31508006F104FFF76B131462046FFF7BCFF237ADA07E2
S31508006F2018D56FF3000323720020BDE8F8402DF052
S31508006F3003B9042D08D8094B03EB8503DA6B204601
S31508006F400749FFF785FFE9E7064A074BFE2D18BFF5
S31508006F501A46F4E7F8BD00BF4CF804089CFE04087E
S31508006F6070F8040840F8040832F8040870B50E46AC
S31508006F701C461546074902461846FFF73EFE3146A7
S31508006F80204610F032FC25B129462046BDE870405F
S31508006F9080E770BD90F8040870B505460E4614469D
S31508006FA00B49FFF72AFE31462846FFF701FF042C56
S31508006FB008D8084B03EB8403DA6B2846BDE8704013
S31508006FC0054945E7054A064BFE2C18BF1A46F4E75D
S31508006FD0EEF804089CFE04081FF9040840F80408A3
S31508006FE032F8040810B514460A4601462046FFF74B
S31508006FF0D3FF237A9A0707D56FF34103237200203C
S31508007000BDE810402DF098B810BD10B514460A46D4
S3150800701001462046FFF7C0FF237A5A0707D56FF3C4
S31508007020820323720020BDE810402DF085B810BDFC
S3150800703010B50C684CB90368054903F5405393F835
S315080070402027FFF705FF204610BD0720FCE700BFF5
S3150800705065D204080B6810B504464BB903680C4999
S3150800706003F5405393F82228FFF7F2FE002010BDDF
S315080070701846084938F007FD38B1236803F5405328
S3150800708093F8202783F82228F0E70720EFE700BFC8
S3150800709065D20408E8DF040837B50D460446428A77
S315080070A009490832284692B2FFF7A7FD2146284625
S315080070B0FFF764FE238A28460093A37DA28A034924
S315080070C0FFF7C6FE03B030BD2AF9040839F90408EB
S315080070D0F8B505680F6805F5D15604460E3627B982
S315080070E03146FFF787FE0020F8BD4B68BBB9384626
S315080070F00D4938F0C8FC20B131462046FFF758FE46
S31508007100F1E73846094938F0BEFC50B105F5805517
S315080071102046B5F83E2A0649FFF79AFEE3E7072018
S31508007120E2E72320E0E700BF62070508BCE10408A0
S3150800713065D204082DE9F04115461D4A0446FFF7B5
S315080071406DFE2A683AB120461A49FFF756FDAA7A13
S31508007150072A05D9FEE720461749FFF74EFDF6E749
S31508007160164B204603EB82031A6D1549FFF745FDBA
S315080071706E7A26B113492046BDE8F04168E62046F6
S315080071801149FFF73AFDDFF848802B7AF7B2BB4280
S3150800719001D80E49EFE71FB141462046FFF72DFDFE
S315080071A06968204601EB0711FFF7E8FD0136ECE7B1
S315080071B059F90408220005085FF904089CFE04082A
S315080071C066F9040879F9040861FB040818FA040842
S315080071D07EF904082DE9F0470D6804460E468AB084
S315080071E03DB90268294602F5D352FFF7A3FF0020EE
S315080071F0FFE02846AD4938F046FC002850D07768AD
S315080072006FB9236803F58053D3F8602AA84B002A80
S3150800721008BF1A462046A749FFF71AFEE7E7D6F839
S315080072200880B8F1000F40F01281384644F02CFB74
S3150800723085B23F2D00F20B81206800F5805393F844
S315080072406A2A12BBC3F8607A00F5D45700F5CF5006
S31508007250103016F085FA14376A1C92B238467168EF
S3150800726044F086FA206800F5805393F86A2AA2B19A
S31508007270072ABCD10022C3F8607A83F86A2A00F587
S31508007280CF50103016F06CFAB1E7072A40F061814A
S31508007290C3F8607A83F86A8AD6E7C3F8607AEEE7B5
S315080072A02846854938F0EFFB80B17368002B40F01B
S315080072B0CE80236803F5805393F86A2A072A00D9F3
S315080072C0FEE77E4B03EB82031A6DA3E728467C494B
S315080072D038F0D9FB0746002800F08E80D6F80480DF
S315080072E02568B8F1000F17D105F5805595F8696A34
S315080072F066B120467349FFF7ABFD78E7D5F8641AFF
S31508007300204601EB0311FFF753FD013695F8682A6D
S31508007310F3B29A42F2D86AE740466A4938F0B3FBB4
S3150800732010B305F5805494F8693A002B7FF45FAFE3
S3150800733005F5CF551035284616F038F9002858D1E6
S31508007340614BD3F848374BB9A4F8F439C4F8643A12
S315080073504FF480732846A4F8683A93E7DA7C6FF30B
S315080073604102DA745B69EEE702AF3946404638F007
S3150800737093FF00283DD1B068B0B306A938F08CFF5A
S31508007380B8BBF368A3BB4FF00208266841F6F019AC
S3150800739006EB090A504616F009F950BB06F5805661
S315080073A005F5D65586F8690A14355046C6F8647A3E
S315080073B086F8688A16F0D4F9394628464FEA08123C
S315080073C044F0D6F92468A144484616F0EFF8002898
S315080073D07FF40DAF04F5805383F8690AC3F8645A3D
S315080073E0484683F8688A4DE74FF001082668CDE7D6
S315080073F003200AB0BDE8F0872846344938F043FB35
S31508007400002865D070688DF808708DF8077068B91F
S3150800741023689DF8084003F5CF5003F5805393F889
S315080074206A1A1030072914D11820E2E702A938F0A1
S315080074303BFF0028DDD1B0680028E9D00DF107012F
S3150800744038F032FF0028D4D1F368002BE0D00720AB
S31508007450CFE70A1F012A06D893F8F129C2F30012CA
S31508007460A2423FF4C4AE042693F8F1299DF80750CA
S3150800747064F3041283F8F129D3F86C2A3AB969B986
S315080074807DB9072283F86A2A16F02DF9AFE6D47D6E
S31508007490043C012C88BFD675D269EFE704293FF46E
S315080074A0F1AE042283F86A2AECE600BFCBDE0408B4
S315080074B05FF9040859D90408CCE304089CFE0408BB
S315080074C06207050879F9040830310020E7D2040874
S315080074D02846224938F0D7FA00283CD07368002B92
S315080074E0B5D1256805F5805696F8F039023B032B89
S315080074F005D805F5CF500421103016F06AF896F82D
S31508007500F13905F5D3556FF3030386F8F1394FF4CE
S31508007510E163C6F8F8390023C6F86C3A2B606B604D
S31508007520AB6096F86A3A0021072B1CBF072386F83A
S315080075306A3A236803F58052C2F8141B03F5D7513B
S3150800754003F5E15318310833C2F8441CC2F8F43A7B
S315080075504DE60D204DE723204BE700BF6BD9040805
S315080075602DE9F74305460E461446DFF86C8014B934
S3150800757003B0BDE8F083236842460093636831464A
S315080075802846FFF74BFCA3687BB9E17D072910D98C
S31508007590FEE749462846FFF730FBA368BAB253F818
S315080075A022200137002AF4D1EFE70027DFF82C90D4
S315080075B0F3E7074A238A02EB8102A18A284601914A
S315080075C0618A126D00910349FFF742FCE469CEE730
S315080075D09CFE04089DF9040881F9040899F9040831
S315080075E0034A044B00290CBF1146194630E400BF74
S315080075F051E60408CAF9040810B50C685CB90368B2
S3150800760003F5805393F8F019003918BF0121FFF7E5
S31508007610E7FF204610BD0720FCE70CB473B5044607
S3150800762006AD55F8046B094B0A460949FFF7E5FA12
S315080076302A46314620460195FFF7D7FA2046FFF736
S31508007640E9FA02B0BDE8704002B07047891505082E
S315080076501CFA04082DE9F047044615460E46136839
S3150800766098B0029313890193D38800939388574A55
S31508007670FFF7D3FFEB6831462046554AFFF7CDFFA3
S31508007680544A31462046FFF7C9FB204605F1120148
S31508007690FFF774FB20466A6A4F49FFF7D9FB314664
S315080076A020464E4AFFF7BAFB95F82E70002F40F099
S315080076B08280AA6AAB8D204649490592ADF81830F2
S315080076C0ADF81A70FFF799FA0122059858B9454995
S315080076D02046FFF792FA20462A6B3F4918B0BDE8C4
S315080076E0F047FFF7B5BBBDF818100144BDF81A30CE
S315080076F0C6188E42EBD210F8039006F1010A0AEB7F
S31508007700090C6145E3D301334B44ADF81A30B9F19E
S31508007710000FEBD073783D2BE8D000230DF11B0149
S315080077201AF803003D2823D103F101085FFA88F609
S3150800773060336B44A9EB060603F8447C5AFA88F8CA
S31508007740B6B21AB920462849FFF757FA20462749FC
S3150800775007AAFFF752FAB8F1000F1DD020462449B0
S31508007760FFF74BFA324641462046FFF7A1FA13E0E7
S31508007770402B13D11AB920461B49FFF73EFA20467B
S315080077801749FFF73AFA514620464A46FFF790FA54
S3150800779020461449FFF731FA002296E7013301F82B
S315080077A0010FD8B28145BBD8002660336B44B0467A
S315080077B003F8447CC5E720460949FFF71EFAA96A7B
S315080077C02046AA8DFFF774FA0A4981E7D2F9040818
S315080077D0FBF9040803FA0408F2F9040810FA040885
S315080077E061FB040818FA04087EF9040859D9040844
S315080077F09CD9040815FA04082DE9F04F05460E46EB
S315080078001C461746DFF890B085B003F1FF3802EB47
S3150800781081094F4518D128461C49FFF719FBDFF89F
S315080078207090DFF87880264449462846FFF7E5F940
S3150800783014F8017B1FBBB442F6D12846144905B09B
S31508007840BDE8F04FFFF704BB57F8043B18F801AF43
S315080078501846039344F018F802305045039B06D89F
S3150800786059462846CAF10102FFF7C7F9D1E700933E
S315080078705346284607495A42FFF7BFF9C9E7414622
S315080078802846013FFFF7B9F9FFB2D3E714D8040831
S3150800789027FA040820FA04081AFA04087B130508CC
S315080078A070B506680D463046074938F0ECF80446C8
S315080078B020B93046054938F0E6F810B100202C709A
S315080078C070BD2320FCE700BF29FA040830FA040833
S315080078D00A6813B50B46044662B9036803F5805374
S315080078E093F8901A003918BF0121FFF779FE002096
S315080078F002B010BD18460DF10701FFF7D1FF0028A9
S31508007900F6D124689DF8071004F58053A1B193F8C1
S31508007910902AC3F8880AC3F88C0A002AE7D10122FC
S3150800792004F5CF541034204683F8902A16F0C4F88C
S31508007930204617F0DDFFDAE793F8902A002AD6D01A
S3150800794083F8901AD3E710B50C680B462CB1BDE83E
S31508007950104000F108011846A2E7017AFFF740FE39
S31508007960204610BD10B50C680B462CB1BDE810407A
S3150800797000F10801184693E7017AFFF731FE204621
S3150800798010BD2DE9F041804608680F4616461D468B
S3150800799088B008B3114638F07FFC002304462B70E4
S315080079A098B1396891B101A82DF050F870B908F569
S315080079B05C5002A91C3023F040F958B9304601AA98
S315080079C002A917F034FF01232B700024204608B0C3
S315080079D0BDE8F0810D24F9E70724F7E7F0B587B08D
S315080079E00DF10303044601AA00680D46FFF7C9FF17
S315080079F0034668BB9DF803303BB120461749FFF79D
S31508007A00FCF8204601A9FFF7D3F905AF394668689F
S31508007A1038F081FC0346D8B9AA68E2B9254655F874
S31508007A201ECB01AA164603CEBE42286069603246BE
S31508007A3005F10805F6D132882A80A28B42B904F1ED
S31508007A400C020CF5B4501146183016F01EFF03460A
S31508007A50184607B0F0BD0723FAE700BF38FA04084E
S31508007A60024613780846D9070AD499071BD45B0738
S31508007A701BD403462D2203F8012B00221A707047E7
S31508007A807221034603F8011B1178890702D5642180
S31508007A9003F8011B1278520702D56E2203F8012B50
S31508007AA08342EAD1E5E70346F1E70346F5E7102204
S31508007AB008B544F01BFEB0FA80F0400908BD0FB4C3
S31508007AC007B504AA52F8041B0448019231F06AFA71
S31508007AD003B05DF804EB04B0704700BF0CFF040860
S31508007AE00B6A994200D0FEE70B796FF382030B719C
S31508007AF0036823B9C1E90733016041607047002371
S31508007B00CB6143680B62D961F7E70023C0E900330C
S31508007B107047837FC22003F00F03D84000F00100AE
S31508007B207047036823B91720B0FA80F040097047F8
S31508007B30994201D01B6BF5E70020F5E713B501461E
S31508007B40024651F80C0B00F5B45400F5B55018343C
S31508007B50FFF7E7FF38B9009220460122034B16F0DB
S31508007B602FF802B010BD1820FBE700BFC18000083F
S31508007B7008B50BF002F808BD01F1100351F8042B03
S31508007B80994240F8042BF9D17047353020F00100AE
S31508007B900078C0F30110704708B5FFF7F6FFB0FA92
S31508007BA080F0400908BD0B6A994200D0FEE70B79C0
S31508007BB06FF382030B71036823B9C1E907330160C8
S31508007BC0416070470023CB6143680B62D961F7E7D0
S31508007BD0836D18472622002143F0ABBB030E0B70BA
S31508007BE0030C4B70030A8B70C8707047353020F051
S31508007BF001004078831E58425841704708B502462E
S31508007C00FFF7CAFF18B1BDE808401046EEE708BD01
S31508007C1070B505460C4623461E4613F8012B4AB98D
S31508007C20204643F031FE224681B22846BDE8704020
S31508007C3031F0FABA2F2AEFD1311B2246284689B2EB
S31508007C4031F0F2FA08B9741CE5E770BD1422002178
S31508007C5043F06FBB2DE9F84F0746884691469A468A
S31508007C604FF0000B0A9D0BEB0904661006FB0A860B
S31508007C7038463146A8470028C4F34F0407D0D2BF78
S31508007C80A14601341FFA84FBCB45ECD300263046C7
S31508007C90BDE8F88F0023F0B5441E184601392AB905
S31508007CA01BB1024492B2904211D1F0BD14F8017F83
S31508007CB011F8016F082A154628BF0825B74287EA32
S31508007CC00603EDD12844521B80B292B2E7E71906A3
S31508007CD0EBD45B000130DBB280B2E4E725289DBF18
S31508007CE0024B03EB8003D86F014870479CFE0408DB
S31508007CF061FA0408F8B5069D1C462B7A0F46164607
S31508007D0013B3FFF7EBFF174902462846FFF7A0F81B
S31508007D1028461549FFF79CF83A4604212846FFF7F6
S31508007D2009FA28461149FFF793F8324604212846EE
S31508007D30FFF716FC4CB128460D49FFF789F822468D
S31508007D4004212846FFF70CFC04B9F8BD2B68E26944
S31508007D5003F58053D3F8F41AE161C3F8F44A1446DC
S31508007D60F2E700BF72FA040891FA04089CFA0408BC
S31508007D70AAFA040800BA7047838870B50446C08812
S31508007D809E188642154608D82068184443F0F0FC29
S31508007D900020A3881D44A58070BD0320FCE707B515
S31508007DA049BAADF8061002220DF10601FFF7E4FF05
S31508007DB003B05DF804FB03468288C08811448142FB
S31508007DC09DBF186899808018002070470122D3E764
S31508007DD038B50446A3880846934215460AD321684F
S31508007DE043F0C6FC0020A38822685B1B2A44226055
S31508007DF0A38038BD0620FCE70122E9E710B5022278
S31508007E000C46FFF7E5FF10B923885BBA238010BD3F
S31508007E104368036003B1DB6943607047C3892DE992
S31508007E20F04101EB03081FFA88F8434504460D465E
S31508007E3002D90320BDE8F08106464C27B8453368C9
S31508007E4015D800221448326000F5805CC66DBCF86F
S31508007E5060164F1EBFB2C3B912B1C665ACF860163C
S31508007E60A3890020AB42658188BFA581E2E71BB1E3
S31508007E707C373668BFB2E1E76079C0F3410035F078
S31508007E8045FB30600028F3D1D3E71A6839461E60EF
S31508007E901E4613460122DCE730210020F8B500F122
S31508007EA0350424F00104054620460F461646FFF71A
S31508007EB0CDFE2378042103F03F0343F040032370EB
S31508007EC000232846AB812182FFF7A8FF2378667036
S31508007ED023F0300343EA07112170F8BD70B500F1AD
S31508007EE0350525F001052B78064623F00F0302F029
S31508007EF00F0003432846144600F8043B43F038FCB9
S31508007F002B8A3046E11889B22982BDE8704085E798
S31508007F10353121F001010A7802F00F02082A00D94A
S31508007F20FEE70431DAE7838942891944914200DD84
S31508007F30FEE789B29142818100D9FEE7704710B405
S31508007F40446A34B10022234642625DF8044B826AD1
S31508007F5018475DF8044B704738B504460221FFF709
S31508007F60EEFF236A9C4200D0FEE7094A02F58051DB
S31508007F70D56DB1F860362068013B25609BB2254671
S31508007F8018B9D465A1F8603638BD0446F3E700BFD2
S31508007F903021002043898B4200D2FEE75B1A4381D9
S31508007FA08389C2898B4294BF00235B1A0A4488BF1F
S31508007FB09BB2C2818381704770B54489A14230D291
S31508007FC015880D44AEB2B14201D8A54201DB641A48
S31508007FD01480C4899860214489B24B29044610D874
S31508007FE034304418C1F14C0189B2998010881C605C
S31508007FF0814228BF0146998011889B88CB1A138035
S3150800800070BD4C39246889B20CB99C60FEE77B299F
S3150800801005D89C6004340C44C1F17C01E4E77C3942
S31508008020F0E70021E7E770B5154686B0ADF80630EB
S315080080300DF1060203ABFFF7BFFF2C46BDF8106033
S315080080401EB9601B80B206B070BD03993246204641
S3150800805043F08EFB03A90DF10600344432F0C0F953
S31508008060ECE770B5054616460C468B894A89ADF588
S31508008070BC6DD21A0F49FEF7C0FD284606F110015D
S31508008080FEF77CFE2846728C0B4901AEFEF7B5FD5D
S315080080903246A18940F2DB532046FFF7C4FF00238E
S315080080A03246335405492846FEF7D2FE0DF5BC6D17
S315080080B070BD00BFC0FA04086DD8040859D9040871
S315080080C0CFE738B54589CC18AC4203DCFFF7ABFFE0
S315080080D0002038BD0620FCE70246084649893823B1
S315080080E0383989B2EDE70246084649892C232C39E6
S315080080F089B2E6E770B51646353104688CB021F0CA
S31508008100010514B920460CB070BD04F1350323F0FF
S3150800811001036A885B889A4212D102A8FFF75AFDC2
S31508008120214601A8FFF7DFFFBDF82A20738C9A4283
S3150800813006D106F1100106A8FFF7B9FC0028E1D11F
S31508008140E469DEE738B504460D460B460189006842
S31508008150FFF7B7FF10B923891D44258138BD0B8861
S3150800816013B50C2B0C460BD90D2B0CD101210DF197
S315080081700602FFF7E7FF20B99DF806300D33238086
S31508008180002002B010BD0E2B0CD102210DF1060203
S31508008190FFF7D8FF0028F4D1BDF806305BBA03F222
S315080081A00D13ECE70620ECE773B54FF6FF76C388A8
S315080081B00446B34206D001210DF10302FFF7C2FFC0
S315080081C018B1E680002002B070BD9DF80350FF2D5F
S315080081D00CD1236822895B89E6809A42F2D306206D
S315080081E04FF6FF73E38000232381ECE72B09204633
S315080081F00DF10601ADF80630FFF7B1FF0028EFD103
S3150800820005F00F05204601A9ADF80450FFF7A7FFB2
S315080082100028E5D1216823894989BDF80420C91AAF
S315080082208A42DCDC1344BDF806102381A388E28069
S315080082300B44A380C6E730B401F1350222F00102EF
S31508008240D48912784D8902F00F02043222449542ED
S315080082504FF0000404D3C0E9001430BC0281A3E740
S315080082604FF6FF720481C28030BC0620704710B4F6
S315080082704C889C4203D309885DF8044B21E7062005
S315080082805DF8044B70472DE9F04786B017461C4643
S31508008290ADF806300DF1060203ABDDF83880FFF7BE
S315080082A08BFEBDF810507DB1039EB8F1000F11D0BA
S315080082B0B94606EB050AB24513D019F8011B16F89C
S315080082C0010BC0470028F6D1B4FA84F0400906B07D
S315080082D0BDE8F0872A463946304644F007FA0028B2
S315080082E0F2D12F4403A9651B0DF10600ACB232F09A
S315080082F077F8D6E770B586B0ADF806300B44144665
S315080083009AB2914200D9FEE74289934200DDFEE720
S3150800831003AB0DF10602FFF74FFEBDF810500DB97D
S3150800832006B070BD21462A46039843F0A6F903A96C
S315080083300DF106002C4432F053F8EEE770B500F163
S31508008340350424F00104A37C05465BB14389218AE0
S31508008350994207D1012994BF491A01F1FF3189B21F
S31508008360FFF75CFD2378224603F00F032846BDE895
S31508008370704000210433BDE72DE9F041B0F80A80CA
S315080083800F4602EB080399B24145054616460CD33B
S31508008390FFF744FD044628B933463A46414628467F
S315080083A0FFF7A8FF2046BDE8F0810324FAE72DE988
S315080083B0F043074601239BB057F80C4B8DF8053060
S315080083C0037A0646884604F5B55039468DF80430D2
S315080083D0FFF7A7FB002800F0B6802622002103A895
S315080083E042F0A7FFD8F80830EBB1204641460DAB5E
S315080083F007AAFFF7C6FA0446002843D19DF8343089
S315080084003BB130465349FEF7F8FB304607A9FEF75D
S31508008410CFFCD8F804000DF12E0137F07CFF044696
S3150800842080BB08F10808082001A935F058F9054667
S31508008430002800F08A80D8F800404749204637F0DF
S3150800844022FB00283ED0D8F804000DA937F063FFB8
S31508008450044600283FD13023BDF834808DF8083013
S31508008460B8F1000F12D16B79306813F0180F31D0BC
S3150800847000F5B4502A46394603AB183016F070FC9E
S31508008480044640BB20461BB0BDE8F08301222846BF
S3150800849002A9FFF771FF0446E8B99DF808305A2B80
S315080084A00AD07A2B0AD0392B0AD00133DBB208F16D
S315080084B0FF381FFA88F8D1E76123F8E73023F6E793
S315080084C04123F4E72046254937F0DDFA20B3D8F8EA
S315080084D0043023B907242846FFF73EFDD2E74FF0BC
S315080084E03209029302230DAA0DF1060102A8ADF87E
S315080084F006901FF095FE804608B1242827D1284605
S31508008500BDF806200DA9FFF737FF04460028E2D17B
S31508008510B8F1000FE6D1A6E72046114937F0B3FABD
S3150800852008B108F10408D8F80040002CD2D020463B
S3150800853043F0AAF9214682B22846FFF71DFF0446F2
S31508008540002890D0C7E70D249CE703249AE7044641
S31508008550C1E700BFCFFA0408F5FA040884E3040863
S31508008560F8FA0408012207E7FF2313B58DF8073048
S3150800857043890446B3F5007F0FD20DF10701FFF7D3
S31508008580F1FF40B9012204F1350323F001039A747F
S3150800859062891A82A28102B010BD0320FBE7037824
S315080085A01BB1012B03D0002070474068E4E6043075
S315080085B0FFF7E2BB2DE9F04114469A180E4691B230
S315080085C086B08C420546ADF8063029D871899142A5
S315080085D028DBB0F80A80434499B2414524D3FFF713
S315080085E01DFC074648B92146304603AB0DF1060285
S315080085F0FFF7E2FCBDF810401CB9384606B0BDE8E6
S31508008600F081234641462846039AFFF773FE444401
S3150800861003A90DF106001FFA84F831F0E1FEE9E737
S315080086200727EAE70627E8E70327E6E72DE9F04FF5
S3150800863040231646FBB083460D46ADF86830706891
S31508008640FF233AAA1AA914F0E8F8002840F0AD81E9
S315080086505846BF493AAAFEF7FBFB002D40F0EC80CE
S315080086600595122200210DF15600BDF8144042F07E
S3150800867060FE3AAB1493FF23ADF854301AAB189347
S315080086808023ADF864300023728A0993A24209D880
S31508008690F38ABDF814101344994280F2AB80012383
S315080086A08DF86630338A2246B06808A9ADF82030BE
S315080086B014F06CF80746002840F06C81FF23B06878
S315080086C03AAA08A914F0A9F80446002840F06081DF
S315080086D0BDF820700A233946B0680AAAFFF7F1FCEC
S315080086E08046002840F04C81D6F808A03A46514604
S315080086F00DA813F0ABFF0446002840F01281BDF820
S3150800870034300A375BBAADF84030924B0D220093ED
S3150800871091490623BFB210A8ADF82270FFF79AFA5E
S31508008720814600286DD136F009FFCDF82490BDF8B2
S315080087302830DDF824805BBA9AB20692ADF8563036
S31508008740B8F1000F00F0FB80B8F80A400B98ADF8B6
S315080087505840FFF70FFB802CA14628BF4FF0800931
S3150800876082464B461790ADF864901AAAB8F1000FE6
S3150800877000F0EA8000214046FFF755FC404636F0F7
S31508008780DDFE5846BDF814207449FEF761FB744AAD
S3150800879010AB07CA83E807009DF866700421022F0C
S315080087A094BF53F827306F4B5846CDE901A36E4A5C
S315080087B0069B0094FEF731FF3AAB042158466B4AF4
S315080087C0FEF72BFF04215846694AFEF727FB4A465F
S315080087D058461AA9FEF76CFA802C03D958466549FB
S315080087E0FEF70BFA58466449FEF732FB059B013340
S315080087F0059336E7728B1344994280F2D28002239E
S315080088004EE721465D4A062034F0E2FE014609A8F5
S3150800881014F026FADDF82480B8F1000F00F08A80FB
S31508008820BDF83C2099F8023052BA92B29A4209D25F
S31508008830404636F083FE062528462BF07DFC7BB0A5
S31508008840BDE8F08F3A4651464046FFF7B3FE044668
S31508008850002866D199F8023006903B44ADF82230DC
S3150800886099F803109DF81830BDF82220994216D8B9
S31508008870BDF83C30D11B5BBA9BB29942D8DC3B446D
S31508008880B9F804109B1A9BB29942D1D85146404672
S31508008890FFF790FE044600283FF449AF41E05046F2
S315080088A00DF12201079213F059FF0446002838D12A
S315080088B0079ABAF1000F04D1404613F06BFE04463E
S315080088C02AE0CDF840A0ADF84820ADF84A00ADF84A
S315080088D04C2010A813F003FF044630B11728EBD03C
S315080088E0099836F02BFE2546A6E79DF84630013B4B
S315080088F03E2B1DD840460DF14601FFF733FE0446D0
S3150800890050B940469DF84630BDF844201099FFF707
S3150800891051FE04460028DCD0069B01330693002C42
S315080089209ED0099836F00AFE172C18BF254683E70D
S315080089300724F1E7404636F001FE03257CE7BDF83B
S31508008940304064BAA4B201E73946B06814E700BFFC
S31508008950FBFA04086BA10108B0FF040816FB04081B
S315080089600000050808EF04081AFB04084EFB040873
S3150800897056FB040863FB040818FA0408FEFF0408FB
S31508008980204636F0DBFDB8F1170F18BF454653E70A
S315080089903846C7E7002036F0D1FD172F18BF3D46E9
S315080089A04AE7002036F0CAFD46E7054644E713467F
S315080089B00A460146184639E6F8B504460E461546EF
S315080089C000F13407E3899D420BD85B1B6289E3817A
S315080089D0A3892A442B4492B29BB29A42628117D247
S315080089E0FEE76079C0F3410034F090FDC8B1236812
S315080089F00360E38920604B2B06D83430C3F14C0260
S31508008A00F918184442F0B4FEE3897C33E381D9E7C8
S31508008A102046A38132462B460021FFF76BFC002037
S31508008A20F8BD0320FCE773B5054603796E894079DE
S31508008A308E42C0F3410228BF0E46C3F340038DF8A9
S31508008A400520E98901AA40098DF8043034F0C0FDF3
S31508008A500446002832D0334600222946FFF7AAFDED
S31508008A6048BBAB896289B34228BF33469A4200D2D3
S31508008A70FEE7A381AA79A37962F30303A3712B798D
S31508008A802279DB0963F3C71222716B796279C3F322
S31508008A90C10363F3C4026271AB69A3612B8A2382A3
S31508008AA06B8A63822B7A2372AB8DA385EB8DE38564
S31508008AB0204602B070BD2046FFF74EFA0024F7E7BD
S31508008AC010B50446FFF7AFFF98B104F1350300F17E
S31508008AD0350223F0010322F0010203F1100153F8D5
S31508008AE0044B8B4242F8044BF9D1198811809B78C4
S31508008AF0937010BD38B504460D460B882C3020F807
S31508008B001A3C8B7800F8243C91F9031017F01EFDE7
S31508008B10297904F12E0017F04CFD6B79C3F3400256
S31508008B2003F001035B0043EA0223A28822F4817260
S31508008B301343A38038BD0368994204BFCB69036019
S31508008B404368994204BF0B6A43600B6A0BB1CA6952
S31508008B50DA61CB690BB10A6A1A6200220B79C1E99C
S31508008B60072162F382030B71704710B5FFF7E3FF25
S31508008B70BDE810400846FFF7EFB910B5044621686E
S31508008B8001B910BD2046FFF7F0FFF8E70023C1E959
S31508008B900033026802B970470B88106801330B80EE
S31508008BA0012340B9488803444B8050894B68D269F1
S31508008BB003444B60EEE701330068DBB2F1E70B795B
S31508008BC010B55B0700D4FEE74B79C3F3410300EB0E
S31508008BD083025468A14209D10C6A546034B164799D
S31508008BE0C4F341049C421CBF0023536003689942A6
S31508008BF004BFCB690360CB690BB10A6A1A620B6AB8
S31508008C000BB1CA69DA6100220B79C1E9072162F35F
S31508008C1082030B7110BD0023C1E90033026802B953
S31508008C2070470B88106801330B80012340B94888C8
S31508008C3003444B8050894B68D26903444B60EEE786
S31508008C4001330068DBB2F1E74A7970B5C2F3410235
S31508008C5014460B79061D43F004030B7156F82430AD
S31508008C601BB90134E5B2042DF8D10B624BB9036880
S31508008C70CB610160CB6903B1196200EB82004160E8
S31508008C8070BDDC69CC61D961F4E78B8949890380B9
S31508008C9099422CBFC3EB0102C3EB0302DB4392B23A
S31508008CA09BB2934228BF1346438070474388028885
S31508008CB0994228BF194612FA81F25B1A028043804C
S31508008CC07047084A138803B9FEE748F24E305368DE
S31508008CD0A3FB003010EB530044BF20F000400130E6
S31508008CE05060704758650020814210B5044600D888
S31508008CF0FEE7FFF7E6FF091BB0FBF1F303FB1100E4
S31508008D00204410BD10B50446FFF7DBFF091BC0B2AF
S31508008D1090FBF1F301FB13002044C0B210BD38B537
S31508008D200D46814288BF85B269000446013100209C
S31508008D30FFF7DAFF2044401B38BD112313B50F2275
S31508008D4000210446ADF8063042F0F3FA0223E37335
S31508008D500023224623740520618A0DF1060330F0AC
S31508008D6090FB0C2800D1FEE7003818BF01202075BB
S31508008D7002B010BD10B540B10023441E98B281421E
S31508008D8003D90133E25C002AF8D110BD0139013854
S31508008D9011F8012F10F8013F3AB9002B14BF012032
S31508008DA00220831E5842584170479A42F0D000204C
S31508008DB0F7E72DE9F04F0C6807460E4685B04CB923
S31508008DC00368214603F58053D3F86C2AFEF7C8FBDF
S31508008DD0002444E02046A24936F055FE002800F05B
S31508008DE0F1803B6803F58053D3F8F45A002D00F060
S31508008DF02981AB46EA690021C3F8F42A28464FF4CC
S31508008E00987242F096FA05F1340A05F58A734BF81A
S31508008E1094ABAB6005F12803EB60012305F1D40898
S31508008E20C5F804B0AB75C5F82C8005F1100949469C
S31508008E30F06837F070FA044648B971680846019137
S31508008E4042F022FD421C402A01990CD907243B68AE
S31508008E5003F58053D3F8F42AEA61C3F8F45A204696
S31508008E6005B0BDE8F08F584642F082FCD6F808B047
S31508008E70584642F009FD421C602AE7D85946504632
S31508008E8042F076FC2C21504642F0DEFC78B9494681
S31508008E90F06837F040FA04460028D8D13069B8B9E6
S31508008EA07069E8B9B4691CBB0023AB7533E005F5F6
S31508008EB0887A05F5947B00F8014B2C214AF8040FB3
S31508008EC042F0C2FC0028E2D0D345F4D10324BEE721
S31508008ED005F1120137F01FFA04460028E0D0B6E77C
S31508008EE005F1140137F017FA04460028DAD0AEE780
S31508008EF020465C4936F0C7FD0028D5D129464023CF
S31508008F00424621F8303F03A8012303941FF088F94D
S31508008F10044600289BD1F069002830D1306A002821
S31508008F2035D13E6806F58059D9F86C8A4446002C36
S31508008F303AD12B68002B89D06B68002B86D0EB685A
S31508008F4013B9AB7D002B81D107232A6AEB75464BF3
S31508008F50C5F81C809A4294BF2A622B626A6A00216D
S31508008F609A4294BF6A626B622846C9F86C5A14F032
S31508008F70E6FA06F5CF50103014F0F2FB28E705F1B3
S31508008F80200137F0B6F904460028C7D05FE705F197
S31508008F90240137F0AEF9044600287FF458AF736A07
S31508008FA0002B7FF453AFBCE729682068FFF7EEFE75
S31508008FB020B169686068FFF7E9FE08B9E469B6E7B1
S31508008FC0182444E72046294936F05DFD814628B92C
S31508008FD02046274936F057FD002835D0B368019357
S31508008FE0002B33D0D6F80CB0BBF1000F2ED1D7F832
S31508008FF0008008F5805ADAF86C5A2C460CB9172402
S315080090002DE76168706836F03EFD28B12168019841
S3150800901036F039FD002846D1E469EFE7AC4217D0AF
S31508009020ED69002DFAD1EAE79C4223D09B46DB691D
S31508009030002BF9D1E3E7DBF81C3013B3DB69CBF877
S315080090401C301EE003240AE7232408E7072406E762
S31508009050E37D043B012B8FD90423E3758CE700BF1E
S31508009060E3D204087B1305089AC42000E7D2040853
S315080090706BD90408BBF1000FDDD115B1EB69CAF84D
S315080090806C3A0023E361E37D072B1CBF0723E375D6
S3150800909014F066FB3B6803F58053D3F8F42AE261C3
S315080090A0C3F8F44A94E608F5CF501030B9F1000F2A
S315080090B0B7D12B46BCE7A0F14103052B04D83738B6
S315080090C0C0B2087000207047A0F16103052B01D8D3
S315080090D05738F5E73038C0B20928F2D90720704763
S315080090E070B504460E46E588134682880068AA428B
S315080090F034BFA91A0021104432463AF0C7FC0028AA
S3150800910000DAFEE7A388E288184480B2904228BFB6
S315080091102368A08022BF9B18002203F8012C204652
S3150800912070BD0EB417B5044605AA52F8041B019281
S31508009130FFF7D6FF204603B0BDE8104003B07047DE
S315080091404FF434132DE9F04794B00293002303AA91
S3150800915006460C460D46914691F810C08DF820300B
S315080091600CF10703DB100DF120085F1CCDF8048015
S315080091707F0801F1100A9646286869680835AEE83E
S31508009180030055457246F6D129788EF800106BB162
S315080091904FF0FF3103F14F026A4412F8440CCCEB4E
S315080091A0C30C01FA0CF1014002F8441C102BC3F160
S315080091B0100292B209EB030088BF0022002142F098
S315080091C0B8F83A46484601A913F0F6FF237C073358
S315080091D0772B03D8084901A8FFF7A3FF227C074984
S315080091E001A8FFF79EFF424630460549FDF705FDF3
S315080091F014B0BDE8F08700BF67FB04086AFB0408E3
S3150800920059D9040870B506460D460024AC4201D368
S31508009210012070BD305D0134030605D43AF026FC02
S315080092200028F3D00020F4E710F04003FAD08106B6
S3150800923012D5C20612D50307F4D4032307E0AC42BD
S31508009240F0D0325D013402F0C002802AEAD1013B37
S31508009250DBB2FF2BF3D1D9E70123F8E70223F6E7C0
S3150800926010B5044642F010FB01462046BDE8104002
S31508009270C8E743684BB9054B5A6812B9586040604D
S31508009280704751684160506058607047302100202F
S3150800929003685A1A11EA220138BF194643685A1A4E
S315080092A013EA220338BF0B46436070474160024AFF
S315080092B001460248FDF7C2B8A0FE0408382100207E
S315080092C0002A00DAFEE71144F0E738B50D460446F1
S315080092D0FEF74EFC2A4601462046BDE83840EFE731
S315080092E0064B07485A69196A914208BF9A6901F1FB
S315080092F0804104BF01329A61D8E700BF30210020BF
S315080093004C2100208368984203D04368CB1A002B6F
S3150800931000DACBE770470146014A0248FDF768B80C
S31508009320A0FE040838210020D1E9003103F10043EA
S31508009330013B8B4200D0B9E7EDE710B5044692B081
S31508009340684636F074FE616802A836F0A7FE0299F0
S3150800935031B9694604F11000FFF7E6FF12B010BDF7
S3150800936004A8FEF7B9FE68460F99FFF791FF02A811
S31508009370FEF74EFDEBE72DE9F041054614460430AD
S315080093801E46069F9DF81C80FFF7EFFB2846FFF751
S31508009390D4FF656A3DB143463A463146AC46A06AB3
S315080093A0BDE8F0416047BDE8F0812DE9F04192B093
S315080093B004460D46416802A836F070FE0B274FF0AA
S315080093C00008029E16B912B0BDE8F081314604A81D
S315080093D0FEF782FE25B1294604A8FEF768FB38B1D8
S315080093E0002331462046CDE9008704AAFFF7C3FFCC
S315080093F002A8FEF70DFDE4E72DE9F04F9FB00093B4
S31508009400289B064608460193FEF7BFFB02280C4632
S3150800941017460CD0032801F1350300F0F280B28913
S3150800942023F00103511C52BAB1815A8045E006A8BF
S31508009430FEF7D0FBFEF79CFB3A4600F57130D830B4
S3150800944006F12C09059006AB07F1200C1D4610689D
S315080094505168083203C562452B46F7D11068214684
S31508009460286092884846AA803A46FEF743FE054693
S3150800947018BBF16A03A836F011FEAA46AB46DDF81A
S315080094800C80B8F1000F40F09C801FFA8AF3092B74
S3150800949003D929464846FFF768FB20466189FFF746
S315080094A00FFB054648B12C2205A9FEF765FF0028E3
S315080094B000F09D802846FEF74FFD2046FEF73EFF4A
S315080094C02046FEF769FB002800F0A280B4F80AB02F
S315080094D0BBF1000F00F0B68010AB3D46994607F188
S315080094E0100C1A4628686968083503C2654513468C
S315080094F0F7D17B8C14AAADF8603005F1100C134631
S3150800950028686968083503C365451A46F7D1009A7D
S3150800951097F825301992019AC3F300131A92BDF8E9
S3150800952074209B0222F49F6222F0070243F0040390
S31508009530134340F6B9314FF4FA60ADF87430FFF7CB
S31508009540D3FB9DF875301C906FF3000320468DF809
S315080095507530FEF721FB9DF8753060F341038DF8F1
S315080095607530FEF705FB9DF8753059469B074CBFCD
S315080095701C9B384B18441B902046FFF7A1FA05465A
S3150800958000285AD038224946FEF7F6FE002851D15F
S3150800959006F1040829464046FEF705FB3046FFF764
S315080095A0CCFE21463A463046FEF712FB0446002812
S315080095B044D040462946FFF7D8FA3046FFF7BDFEA5
S315080095C03CE011A8FEF706FB414610A8FEF78BFD06
S315080095D025B1109AA2EB0B02002A02DA4546DDF8FD
S315080095E040B003A8FEF714FC0AF1010A47E729462A
S315080095F04846FEF7D8FA059906F13400FFF782FEC9
S315080096005BE723F001035B78002B3FF456AFFEE7D8
S315080096102046FEF7BAFA012814D1009B93B104F14B
S31508009620350323F0010393F800B00BF00F0B0BF191
S31508009630040B51E72846FEF78FFC032420461FB08B
S31508009640BDE8F08F3A46214630461FB0BDE8F04FD8
S31508009650FEF7BEBA486B0100002307B50093FFF773
S31508009660CBFE03B05DF804FB2DE9F0419CB0C5685C
S31508009670FEF77EFA064604A8FEF7ACFA696802A861
S3150800968036F00CFD1C274FF00008029C2CB9284622
S31508009690FFF753FE1CB0BDE8F08121460EA8FEF781
S315080096A01BFD199BF31A002B0EDB9DF86D309A07EC
S315080096B002D59DF86C305BB9002321462846CDE9D2
S315080096C000870EAAFFF757FE02A8FEF7A1FBDCE704
S315080096D0013B8DF86C301A9B61895B001A93334401
S315080096E01993382338390DEB0302204689B2FEF761
S315080096F001FE9DF86D30DB07E6D40DF1200C12ABA8
S315080097000FCB8CE80F00BDF858300EA904A8ADF8A9
S315080097103230FEF731FA9DF86D309DF83520C3F3E7
S31508009720800363F304128DF83520618920463839A1
S3150800973089B2FFF7C5F904460028C5D0014604AA30
S315080097402846FEF745FA0028BED02046FEF704FC58
S31508009750BAE72DE9F04701F1350727F00107154665
S315080097607B1ACA89203B9A4206460C4694B000D218
S31508009770FEE7B1F80C803846FEF768FA04233A4645
S3150800978041462046A7F80E80FEF79BFC00284DD1DF
S315080097903B7803F00F03082B48D808F1040120464C
S315080097A03A1D89B2FEF78DFC00283FD10DF1180845
S315080097B021464046FEF73FFD002837D14FF6FF7990
S315080097C0BDF81E304B452CD1FB89BDF8201020462C
S315080097D0C91A89B23982FEF7A6FB7B78013B032BAF
S315080097E035D9716803A836F059FC05F1100ADDF879
S315080097F00C90B9F1000F40F0D480F36C002B40F0C8
S315080098000B812046FEF7C8F920B92046FEF7BDF9B8
S3150800981001285DD12B4622460321304636F0BCFC92
S3150800982056E04046FEF7C0FC0028C9D02B78FF2B2F
S315080098304ED02046FEF7B0F9002849D02B462246DE
S315080098400321304614B0BDE8F04736F0A5BC736A6C
S31508009850DBB92A46214606F12C00FEF74BFC38BB3D
S31508009860214603A8FEF7E7FC4FF6FF77002840F0ED
S315080098702981BDF81230BB4263D0BDF810300B2BDE
S315080098805FD003A8FEF790FCF0E72946B26A98472E
S315080098900028DED017281BD12B78FF2B18D02B4693
S315080098A022468421304614B0BDE8F04736F024BC81
S315080098B041892C3989B2FFF703F9074640B1FEF70B
S315080098C03DFD2A4639463046FEF782F9002857D12B
S315080098D014B0BDE8F087474516BF3A46424602F837
S315080098E001ABD7180DF139018F42F1D2BDF814102A
S315080098F00398C91A89B2FEF796FB03A8FEF754FC2B
S31508009900002840F0DF80BDF812304B4503D0BDF883
S3150800991010300B2BF1D1BDF812304B45DBD10023AB
S315080099203B70776D9FB9376ACFB9736C23BB2B78B9
S31508009930FF2BCDD02B4622468421304636F0DCFB61
S31508009940C6E747464FF6FF794FF02F0AE3E72B465F
S31508009950224641463046B8470028E4D0B8E7414693
S315080099603868FFF713FA28B12A4621467B68B86893
S315080099709847ADE7FF68D7E72A462146B06CF7E770
S31508009980172808D12B78FF2B05D02B462246842191
S31508009990304636F0B1FB384614B0BDE8F047FEF75E
S315080099A0DBBA49464046FEF797FB51460AA8FEF73A
S315080099B07EF820B1BDF838206B8C9A4207D09DF806
S315080099C02830FF2B03D00CA813F0ABF900B32046C0
S315080099D0FEF7DBF8012815D90238C0B2012817D8D6
S315080099E009F1350323F001035A887B889A420FD17F
S315080099F02046FEF7CAF803283FF66AAFDFE800F00C
S31508009A004F55211449462046FCF76CFF0028EFD134
S31508009A1003A8FEF7FDF9EAE62A462146306D98477F
S31508009A2000287FF455AFECE67B78002B7FF450AF27
S31508009A300B22CDE90032424649463046FFF79BFCE9
S31508009A4046E77B78E3B99DF84D309A070CD543F085
S31508009A5001038DF84D30B9F80A10382338394246D3
S31508009A60484689B2FEF746FC0F9B002B7FF430AFC1
S31508009A70301D4946FFF779F83046FFF75EFC27E7C1
S31508009A803F2B7FF625AF49462046FCF72BFF0028DB
S31508009A903FF41EAF0023CDE900532346CBE72B4600
S31508009AA022460221304636F077FB0F9F002FF1D071
S31508009AB09DF82830FF2BEDD100232A462146109821
S31508009AC0B84705E717283FF432AF01E730B5C46851
S31508009AD091B001A836F0ABFA216803A836F0DEFA91
S31508009AE0039D35B901A904F10800FFF71DFC11B063
S31508009AF030BD06A8FEF76EF8294605A8FEF7F3FA64
S31508009B000599019B5B1A002B07DB29462046FFF7C0
S31508009B102CF803A8FEF77CF9E2E701A8FFF7B8FBE3
S31508009B20F7E74160024A01460248FCF787BC00BFD6
S31508009B30ACFE04083C2100200146024A0248FCF714
S31508009B4057BC00BFACFE04083C2100204378FF2B1D
S31508009B5004D1408840BA80B204307047981C7047D8
S31508009B6008B50246FFF7F2FF104408BDF0B50546F2
S31508009B70C5B003A80C4636F006FA294603A811F024
S31508009B80C4FB064690B903A812F05CF806460028FE
S31508009B9040F0D08001468822204641F0CAFB03AD3A
S31508009BA09DF80A3103AA13449D4202D3304645B0B4
S31508009BB0F0BD2B780E2B0BD80E2B11D8DFE803F04F
S31508009BC031884E77A166105A10101010B010200078
S31508009BD0352B2FD009D8332B00F08280342B35D083
S31508009BE02846FFF7BDFF0546DAE74A2BF8D10122DA
S31508009BF0B5F8033084F884205BBAA4F85C30EFE744
S31508009C000123A81C84F8783012F033FAC4E900015D
S31508009C102B895BBAC3F34E0203F001032281A372B8
S31508009C20DEE70122B5F8033084F880205BBAA4F891
S31508009C305A30D5E7284601A911F0F4FF0028CFD1FC
S31508009C40012384F88330019B6367C9E7284611F02E
S31508009C50C2FB0123606584F87E30C1E7012384F8DE
S31508009C607C30D5F80230C4F84130D5F80630C4F84F
S31508009C704530B5E7012384F87D30D5F80230C4F8BD
S31508009C804930D5F80630C4F84D30A9E7012304F168
S31508009C90200784F87A3005F1120CAB1C3A4618688E
S31508009CA05968083303C263451746F7D198E7012375
S31508009CB084F87B306B78AA1C102B28BF102301A9C7
S31508009CC004F1300001928DF8083012F08EF987E71A
S31508009CD001226B8884F87F205BBAA4F858307FE7A6
S31508009CE00123A81C84F8793012F0C3F9C4E90401E9
S31508009CF02B895BBAC3F34E0203F001032283A376D2
S31508009D006EE7012304F15E0284F8813005F1120141
S31508009D10AB1C53F8040B8B4242F8040BF9D15FE7EE
S31508009D20284611F0E1FE0123019084F88230C4F838
S31508009D306E0055E7072639E738B505460C46FFF79E
S31508009D4005FF294682B22046BDE83840FEF714BB17
S31508009D50F7B50E461746044602236A463946304684
S31508009D60FEF785FA054680B99DF8003023709DF800
S31508009D700130FF2B0CD00221607002333A68C4F818
S31508009D800220A288934214D90625284603B0F0BDBE
S31508009D900423394630460DEB0302FEF768FAD8B9B4
S31508009DA001236370BDF8063004215BBA9BB2043305
S31508009DB0E4E79BB2934228BF13466288A380134404
S31508009DC072899BB29A42DFD3D4F80230A01DC4F838
S31508009DD00630FEF76BFFD8E70546D6E773B50446A7
S31508009DE001A80D461646FEF750FF2946204601AA49
S31508009DF0FFF7AEFF38B92378B34205D0A18801A88A
S31508009E00FEF754FFF1E7172002B070BDF0B585B034
S31508009E10054616460A46014601A81F46FFF7DEFF15
S31508009E20044650B9BDF808203B46B24228BF324620
S31508009E302846BDF8061036F004F9204605B0F0BDF0
S31508009E401FB514460A46014601A8FFF7C7FF10B911
S31508009E50DDF80A30236004B010BDF0B51746428914
S31508009E6085B0ADF800101E468A422CBFC1EB02032E
S31508009E70C1EB0103C9439BB289B2994228BF19466F
S31508009E800546ADF802106A46014601A8FFF760FFCD
S31508009E90044660B9BDF80C203346974228BF1746DA
S31508009EA028463A46BDF80A1036F0CBF8F45520464F
S31508009EB005B0F0BDF0B51746428985B0ADF800107B
S31508009EC01E468A422CBFC1EB0203C1EB0103C943FC
S31508009ED09BB289B2994228BF19460546ADF80210C9
S31508009EE06A46014601A8FFF733FF044660B9BDF884
S31508009EF00C2096420BD8B2423B4628BF324628462B
S31508009F00BDF80A1036F09DF8204605B0F0BD0624C7
S31508009F10FAE710B502231446FFF7CCFF10B92388D9
S31508009F205BBA238010BD042310B51446FFF7C2FFA1
S31508009F30034618B92068FDF71DFF2060184610BDB6
S31508009F4030B585B0044615460A46014601A8FFF70E
S31508009F5045FF40B901232A462046BDF8061005B03C
S31508009F60BDE83040A6E705B030BD30B585B004463B
S31508009F7015460A46014601A8FFF730FF38B92A46B2
S31508009F802046BDF8061005B0BDE83040C1E705B06B
S31508009F9030BD30B585B0044615460A46014601A8C7
S31508009FA0FFF71CFF38B92A462046BDF8061005B04B
S31508009FB0BDE83040B7E705B030BD73B5154601AA10
S31508009FC004461E46FFF73CFF28B933462A46204674
S31508009FD001A9FEF74CF902B070BD38B5044615461E
S31508009FE001448C4202D30024204638BDA31C994262
S31508009FF0F9D36378FF2B02D1231D9942F3D3204668
S3150800A000FFF7AEFD8842EED82378AB42ECD0044683
S3150800A010E7E70422FEF7B0B90222FEF7ADB970B53C
S3150800A0200D4698B0286804A936F036F90446002883
S3150800A03047D168680DF1060136F07EF90446002816
S3150800A0403FD1A8680DF1050136F076F90446C0BB84
S3150800A05003A904A89DF806509DF805602AF014F88F
S3150800A060044670BB402E31D86B1EDBB2FD2B2DD8B3
S3150800A07014208DF8075035F029FD054620B35A23DC
S3150800A08002A98DF80830731C8DF80930FFF7C4FF54
S3150800A090044698B928460DF10701FEF763FA044607
S3150800A0A060B93246284608A9FEF766F9044628B973
S3150800A0B0284604A917F0C8F9044610B12846FDF742
S3150800A0C04BFF204618B070BD0324FAE70724F8E7CB
S3150800A0D0FF2B73B5054616461C4612D18DF805307A
S3150800A0E04FF47F438DF8041001A9ADF80630FFF749
S3150800A0F090FF20B9224631462846FEF73DF902B0C0
S3150800A10070BD8DF8001069468DF80130FFF784FFA1
S3150800A1100028F4D1002CF2D0ECE770B505460E46BF
S3150800A1201C46114618460BB1FEF724FE2246314658
S3150800A130C3B22846BDE87040CAE707B501238DF8C3
S3150800A14007200DF10702FFF7C3FF03B05DF804FB14
S3150800A15007B552BAADF8062002230DF10602FFF73D
S3150800A160B7FF03B05DF804FB13B504461046FDF7C8
S3150800A17001FE042301900DEB03022046FFF7A8FF1A
S3150800A18002B010BD10B590F8243004464BB1012B2F
S3150800A19001D1436983612046A169BDE81040FFF7F4
S3150800A1A094B84169B1EB510F4FEA510001D9FEF756
S3150800A1B09BFD0023A061E38384F82530EBE710B507
S3150800A1C090F8243004467BB1012B08D10169C06898
S3150800A1D00131FEF789FD60612046FFF7D3FF20466F
S3150800A1E0236ABDE81040184790F825306BB1012B5B
S3150800A1F0F5D1426922B10369991A8A4298BF530078
S3150800A20020466361BDE81040BCE7012380F825308D
S3150800A210D0E90513C91AFFF758F8E28BA38B9A42BF
S3150800A220DDD310BD10B50446FDF7A2FCD4E9003114
S3150800A230E268C01A9A4202D10028A8BF013110BDAF
S3150800A2402DE9F3411E461C4B044683424FF000039A
S3150800A2508B4115460AD216A3D3E9002340F078FEAF
S3150800A2601649144602462846FEF75BFF144B4EF67F
S3150800A2706021B4FBF3F203FB1244B4FBF1F34FF491
S3150800A2807A7801FB1344B4FBF8F728460D49009782
S3150800A290FEF747FF46B1284608FB17420A4902B0AF
S3150800A2A0BDE8F041FEF73DBF02B0BDE8F08100BF52
S3150800A2B0005C260500000000FF5B26056EFB04080F
S3150800A2C080EE360074FB040883FB040813B50068A7
S3150800A2D050B14AB141B100230068019301AB36F091
S3150800A2E0F7F90CF09EF800B1FEE702B010BD2DE9B3
S3150800A2F0F843436C15461344026C044693420E46D3
S3150800A3001AD84FF000084F1900F11009B74214D1B6
S3150800A310636C1D44236C65649D420BD1B4F85030C0
S3150800A3202BB104F1100211462046FFF7CFFF002398
S3150800A330A4F85030BDE8F883FEE7B4F85030102B87
S3150800A34006D14A4649462046FFF7C0FFA4F8508082
S3150800A350B4F850305A1CA4F85020234416F8010BC0
S3150800A3601A7C50401874D1E72DE9F04F1D4685B088
S3150800A3709DF8383091460293C36C826C2B44934205
S3150800A3800446884629D86FF0200B0F46CA466B1834
S3150800A390019300F12003ABEB000B0393019B9F4253
S3150800A3A01CD1E36C1D44A36CE5649D426CD3B4F8E0
S3150800A3B050302BB104F1100211462046FFF786FFF4
S3150800A3C0002194F8542002F121002044C2F10F0222
S3150800A3D005B0BDE8F04F40F0ACBFFEE7B4F8522038
S3150800A3E0102A16D104F13000024694F854600BEB9B
S3150800A3F000018E4206DA10F8011D0131C9B201705A
S3150800A4000029F4D020460399FFF760FF0022A4F83C
S3150800A4105220029B43BB3E78B9F1000F0AD0B4F82C
S3150800A4205220511CA4F85210224492F8302072404F
S3150800A4308AF80020B4F85020102A08D104F1100236
S3150800A44011462046FFF742FF0022A4F85020B4F830
S3150800A45050200137511CA4F850102244117C0AF1EF
S3150800A460010A4E40167499E7B4F852209AF800602B
S3150800A470511CA4F85210224492F830205640B8F1E4
S3150800A480000FD7D03E70D5E705B0BDE8F08F38B5D8
S3150800A490D0E912329A4204460D4600D0FEE700F192
S3150800A4A0300200F12001FFF711FF002304F10F022B
S3150800A4B094F855108B4200DB38BD12F8011F92F84C
S3150800A4C020004140E9540133F2E7006808B528B195
S3150800A4D0034925F089FE0BF0A4FF00B1FEE708BD8D
S3150800A4E009000002006808B528B121B125F0DAFE96
S3150800A4F00BF097FF00B1FEE708BD10B586B004461D
S3150800A500ADF80630084603AB11460DF10602FDF715
S3150800A51053FDBDF810200AB906B010BD20460399B0
S3150800A520FFF7E0FF03A90DF106002FF059FFF0E74A
S3150800A530002307B50068019330B1202201AB25F04E
S3150800A54049FF0BF06EFF00B1FEE703B05DF804FBB0
S3150800A5501F299DBF0068C84000F001000020704711
S3150800A56010B50B780446FF2B04BF0A230B700B7833
S3150800A5700A460133D9B21A29117001D9172010BD1C
S3150800A5802046FFF7E5FF10B90131C9B2F3E700200D
S3150800A590F5E7FF2337B5054600248DF8073028462A
S3150800A5A00DF10701FFF7DCFF234601340028F6D03A
S3150800A5B0D8B203B030BDFF2337B58DF8073003682E
S3150800A5C005467BB1FFF7E5FF014600B9FEE7002027
S3150800A5D0FEF798FB0DF1070104462846FFF7C0FF72
S3150800A5E000B91CB99DF8070003B030BD28460DF127
S3150800A5F00701013CFFF7B4FFE4B2F1E7837F0246A7
S3150800A60013F00F0004D0108C022894BF00200120FC
S3150800A6107047012938B50446456832D12EF042FD07
S3150800A620237E9A0702D5642828BF64205B0715D5C0
S3150800A630A022214BB0F57A7FB3F87E3E28BF4FF4AF
S3150800A6407A70534303F5FA73B3F57A7F06D34FF45A
S3150800A6507A72B3FBF2F3984228BF1846637E0F2B33
S3150800A66002D9BC2828BFBC20A36833F07C4204D09A
S3150800A670C3F31903984228BF1846002808BF0A20C2
S3150800A6806060FDF775FA6369014604F10C009842AB
S3150800A6900DD06268AA420DD0531A24680A3BE342D9
S3150800A6A04CBF0A222146BDE83840FEF709BE62685B
S3150800A6B02160F8E738BD00BF3031002010B531B150
S3150800A6C009291CD96FF07C43994228BF194600F521
S3150800A6D00052D2F8CC30C3F319048C420DD061F382
S3150800A6E01903C2F8CC3092F8DC30DB0705D500F543
S3150800A6F0035001210430FFF78CFF002010BD07200E
S3150800A700FCE7038910B58B420C4605D1BDE810401D
S3150800A7104FF400402EF094BF01814FF400402EF014
S3150800A72050FF2046BDE810402EF02CBC38B500F589
S3150800A730005393F8E150044685B900F5F2501C30F1
S3150800A740FFF7DFFF04F5EA50183010F083FF04F531
S3150800A750EC50043010F07EFF284638BD0D25FBE787
S3150800A76010B5027804465107437817D4120701D565
S3150800A770F3B110BD002BFCD1B0F8A030FBB190F8B6
S3150800A7803630082B1CBF082380F83630838E19060E
S3150800A790EFD4BDE81040343010F0A0BB002BE8D150
S3150800A7A04388D80504D5E16904F1D000FEF77EFD9B
S3150800A7B0E17A04F13400BDE8104035F0FCBB90F8AE
S3150800A7C04630DA070AD4838EDB0507D594F8363087
S3150800A7D0012BCED0012384F83630CAE72FF0B8FE15
S3150800A7E00028C6D1F2E7012342888B4013434380F1
S3150800A7F0437813B9C830FEF73CBD704770B5057885
S3150800A800ED071DD54578012D1CD0468816F0020F98
S3150800A81018D1022D16D0C6F38005760712D48362A6
S3150800A820049B4282C362FF230374C368002908BFDE
S3150800A83019460B4043610221FFF7D5FF284670BD34
S3150800A8400D20FCE70520FAE770B50578ED0722D557
S3150800A8504578012D21D0468816F0020F1DD1022D0C
S3150800A8601BD0C6F38005760717D48362049B002A9B
S3150800A870C3624FF0FF030374C36808BF4FF49672B0
S3150800A880002908BF19460B40428243610121FFF7A0
S3150800A890AAFF284670BD0D20FCE70520FAE71FB57C
S3150800A8A090F820300446990703F001020DD5418C33
S3150800A8B059B1EAB943F0010380F82030FCF75CF996
S3150800A8C0204604B0BDE810404AE78AB1002294F851
S3150800A8D0203011466FF3000384F8203002AB009352
S3150800A8E004F134004FF6FE73CDE9022210F0BAFBEC
S3150800A8F004B010BD024608B569B902F58052B2F82F
S3150800A9007E3E00F5F2501C301BB1A2F87E1EFFF702
S3150800A910C6FF002008BDA020B1FBF0F300FB131012
S3150800A920F0B94FF6FF70834228BF0346B1F51B5FA7
S3150800A9309BB215D302F5F25002F58052B2F87E1E8C
S3150800A9401C308B42E5D0A2F87E3EB1FA81F2B3FA0A
S3150800A95083F352095B099A42D9D1FCF70DF9D8E776
S3150800A9600720D7E72DE9F04FA84C042189B04FF40A
S3150800A9707A70E56CFEF7D3F9291804F14800FEF75A
S3150800A98095FC636CD8072ED5062204F5005696F872
S3150800A990C03002FB034303F50153203306F160027E
S3150800A9A0934240F0E48000254FF0060842F2600921
S3150800A9B096F8C070BD42C0F0E080FDF7D9F8944D16
S3150800A9C08046D5F8F41F04A835F068FB05F6F47937
S3150800A9D00499002940F0DF80D5F8F43F1BB917B970
S3150800A9E038462EF06BFE636C990708D5894D95F8A5
S3150800A9F0E3309A0700F1E28001202EF05FFE636CD7
S3150800AA005D0726D54FF00008834FD7F80037049323
S3150800AA10049A002A40F0EC820125D7F804370493FB
S3150800AA20049A002A40F0EF8201254FF07809D7F8FA
S3150800AA300C370493049E002E40F0F282D7F808578C
S3150800AA40002D40F00983B8F1000F02D102202EF044
S3150800AA5035FE636C18070AD5002604A804968DF8F7
S3150800AA60146013F0D9FA049D002D40F02083636C1E
S3150800AA70990626D5684D95F8A9397BB1FDF778F87A
S3150800AA80D5F8AC3903F5C333A0331B1A002BBEBF68
S3150800AA9095F8CA3943F0010385F8CA3995F8D319E8
S3150800AAA095F8D229B5F8D039002940F03A83002A1A
S3150800AAB040F04983002B40F05283D5F8D00935F091
S3150800AAC081F9636C5A0620D5534EB6F8883943B1D6
S3150800AAD0013B9BB2A6F888391BB906F684101FF00D
S3150800AAE019FCD6F884596DB1013DC6F884594DB99B
S3150800AAF0022029F095F8494829461FF0FFFC284608
S3150800AB0029F016FA45481BF0DEFB636CDB0540F1BD
S3150800AB103B830020034605464149A1F2A466CA784C
S3150800AB207AB1013AD2B2CA7032B1086806EB83022A
S3150800AB30C2F8A406012001330135232D01F10401D1
S3150800AB40EDD1002104EB830404F5B5540734222B18
S3150800AB5004DC14F8042B002A40F01283002840F085
S3150800AB601383082009B0BDE8F04F2EF0A7BD117970
S3150800AB700632013902F8021C12E708FB056393F84E
S3150800AB8064302BB918FB059020442FF07DFC0FE7A5
S3150800AB900135EDB20CE78B69A8EB0303B3F5FA6F41
S3150800ABA008D34B7948465B0902BF336C01333364DB
S3150800ABB0FDF7DBFF04A8FDF72BF909E795F86833DD
S3150800ABC013B1013B85F8683395F86A333BB1013B0D
S3150800ABD0DBB285F86A3313B912481BF03CFA0E4EFD
S3150800ABE096F8607237B1013FFFB286F86072B7FA1D
S3150800ABF087F77F0995F8E130042B00F29280DFE8A9
S3150800AC0003F0039013718E00FEE700BF3021002089
S3150800AC10303100203041002030510020B45A002045
S3150800AC20D43700201042002096F80C82002F4AD014
S3150800AC3095F86433434511D96FF0630095F92D11E2
S3150800AC4015F0DBFC09281CD83C2303FB0848AE4E4C
S3150800AC5008F52A5808F10C08B04503D1AB4816F098
S3150800AC60C9FF12E0B37F03F00F03072B07D16FF07C
S3150800AC70630096F9251015F0C0FC092801D83C3662
S3150800AC80EAE70221A2481FF0F9FDD5F87C63A14B3B
S3150800AC909E427FF4B4AEA6F525701BF041FA9E4895
S3150800ACA09E4B9F49C5E9E0034FF6FF73A5F890331D
S3150800ACB0012385F89833FEF717F8C5F88803304658
S3150800ACC0FFF760FA9BE6B8F1000F2AD095481CF00A
S3150800ACD025F995F86333834223D80121924817F062
S3150800ACE0E0FB09E096F80C32CBB18E481CF016F959
S3150800ACF095F863339842F0D29FB196F80C2295F8EE
S3150800AD0065339A4203D90321874817F0CAFB80485E
S3150800AD101BF0B0F928B97E4818F000F901E0002FB9
S3150800AD20F5D100230493052304A88DF814304FF0B9
S3150800AD30010813F071F9DDF81090B9F1000F33D15D
S3150800AD403C2396F80C72DFF8C09103FB074707F51A
S3150800AD502A570C37A9F1040AA9F5146B4F4575D182
S3150800AD600023724911F8012F013350B20028C8BFD9
S3150800AD7002F1FF32DBB2C8BF0A703F2BF2D195F859
S3150800AD80E130042B0DD167481CF0C8F8092808D90A
S3150800AD9096F85C32013386F85C32FCF7E9FEC6F8B1
S3150800ADA0580228F0D5FD2AE699F81E3003F00F035D
S3150800ADB0072B39D808FA03F313F0C60F06D113F098
S3150800ADC0110F2DD113F0280706D0FEE74FF47A723B
S3150800ADD0D9F8603002FB03F709F1480012F09EFF2C
S3150800ADE098B1FCF7C5FE4FF47A72D9F85430C01AF8
S3150800ADF0D9F84C305343984207D399F848306FF343
S3150800AE00C71389F848302FF076FAFCF7B1FED9F85F
S3150800AE100830C01AB84209D349463D481CF0F8F92B
S3150800AE2004A813F0D9F886E70027D5E795F8E100D6
S3150800AE3034F022FF0028F3D099F81E3003F00F03F0
S3150800AE40012BEDD1484637F06BFFE9E7B9F81C103E
S3150800AE50B5F8E420914206D1FCF78AFEC9F8080045
S3150800AE6009F13C097AE7FCF783FED9F80820304B4C
S3150800AE70A0EB0208B9F83A20012A82BF02F57F4200
S3150800AE80FE32A9F83A2099F81E20984502F00F02DA
S3150800AE9052D999F83A10072A6FF3000189F83A103F
S3150800AEA050D195F8E120022A07D101211D481CF04E
S3150800AEB047F895F86923824266D3494604A812F0F2
S3150800AEC031F81A211B4804AA16F060FF40B999F810
S3150800AED0392012F00C0F04BF42F0030289F839201A
S3150800AEE099F8392093072DD0D11C61F3010289F80E
S3150800AEF039204FF47A702EF057FA494602460D4823
S3150800AF0016F081FF1EE000BFBC4B0020E043002086
S3150800AF1010420020A444002090B20800F09C0900CA
S3150800AF20F19C0900B84B002030430020475300200D
S3150800AF309F8601007C420020072A03D195F8E1206C
S3150800AF40022A32D199F81E2002F00F02052A2CD1C6
S3150800AF50494604A811F0E6FF1A21584604AA16F035
S3150800AF6015FF10BB99F8392012F00C0F18D099F874
S3150800AF703910C1F38102033202F0030262F383013E
S3150800AF8089F83910B2B90BE0814A9045DAD94946B1
S3150800AF9004A811F0C7FF1A217E4804AA16F051FF2B
S3150800AFA049467D481CF034F95AE799F8392012F0D9
S3150800AFB00C0FDCD195F8E120042A7FF451AF5046F6
S3150800AFC099F838101BF053FF00287FF449AF48461C
S3150800AFD02FF05EF80F287FF643AF704A90457FF64C
S3150800AFE03FAFB9F81C106E48890A1CF087F837E796
S3150800AFF0D37C04A83F2B82BFC033D3744FF001081B
S3150800B00012F035FE04E5938A33B1013B9BB2938275
S3150800B01003B915764FF0010804A812F028FEFFE4DC
S3150800B020B38A53B1013B9BB2B38223B9737E43B94A
S3150800B0307576A6F814904FF0010804A812F017FECA
S3150800B040F8E4F28A53080F2B38BF0F239A42F2D03E
S3150800B050F3827823B382EEE7AB8A03B9FEE7013BB6
S3150800B0609BB2AB82FBB9EB8A4FF00108AB825B005F
S3150800B0709BB2782B28BF782331464A48EB82A5F83D
S3150800B080188034F02DFF2946474812F0D9FD0221D1
S3150800B09028462FF0DDFF002E3FF4D0AC304612F0E4
S3150800B0A0BDFD0546CCE42E464FF00108F6E7AB7F1A
S3150800B0B07F2B32D8B5F8A8207AB3B5F8AA30013371
S3150800B0C09BB29A42A5F8AA3027D8EB8F0296C3F30B
S3150800B0D00D03FBB90121354A022032F079FA0146FF
S3150800B0E002A811F0BDFD029FA7B1314B314AEB1AF8
S3150800B0F01B11534338460DF10601ADF80630FEF72D
S3150800B1008BFF38B9CDE9020703A832F023FD03986F
S3150800B11034F014FA029834F011FA04A812F05CFF1D
S3150800B120A1E40139C9B285F8D31900297FF4BFAC67
S3150800B13082B923B1013B9BB2A5F8D039B3B11E48F9
S3150800B140FEF797F8B9E4013AD2B285F8D229002A6F
S3150800B150EFD0AFE4013AD2B285F8D229E9E7013B4C
S3150800B1609BB2A5F8D039002B7FF4A7AC95F8A9397E
S3150800B17013B1012385F8A93910480FF0BFF9DEE7A6
S3150800B18004F8041C0133E2E409B0BDE8F08F00BFFF
S3150800B190EF4902007C420020104200208F5F010028
S3150800B1A0B84B0020385800203C580020FEFF040801
S3150800B1B0D8440020A38B2EBAC05A0020065B002074
S3150800B1C010B504460C30FFF7C3F900B3A27A8A42D9
S3150800B1D005D14FF480402EF033FA002010BD4FF40D
S3150800B1E08040A1722EF0EDF904F5B4700FF086F9DF
S3150800B1F023789B06F1D4A37AE37294F8213013B925
S3150800B2002046FBF7B9FC2046FFF7AAFAE5E7072030
S3150800B210E4E738B500F5005393F8E130044693B9EE
S3150800B22000F5F2501C30FFF7CBFF054648B904F588
S3150800B230EA50183010F00EFA04F5EC50043010F00D
S3150800B24009FA284638BD0D25FBE72DE9F04F4023BE
S3150800B2501446ADF5757D83460E46ADF8D031606867
S3150800B260FF2334AA74A911F0D8FA002840F0F78011
S3150800B27058467F4934AAFBF7EBFD002E40F0F080D4
S3150800B280059613AD00214FF040086268A068C5E92D
S3150800B2900012BDF81430A5F80880002800F0E080F8
S3150800B2A0228A0DEB0807ADF834200A2203920C22F5
S3150800B2B0CDE900520297628A0DA911F09DFB00287C
S3150800B2C040F0CE80D4F808A00DA95046BDF83490B9
S3150800B2D08DF8218011F042FA002840F0C180A9F1CA
S3150800B2E00A039AB206923A89BDF8341052BA92B253
S3150800B2F012FA83F30A33994200F2B280ADF8349019
S3150800B3000DF190094A4650460DF121030DA911F099
S3150800B3105CFA0790002840F0A3803A89069B52BA47
S3150800B320BAF80A1013FA82F20A328A4200F29880B0
S3150800B3304A4658464F49FBF78BFDFF22ADF86C206D
S3150800B3404FF4007234AB1A9374AB2193ADF888208E
S3150800B350079B6268CDE90D33C7E90032ADF83C308A
S3150800B360A368A7F8088053B3238AB4F81280ADF807
S3150800B3702230B8F1000F22D03A46A0680DF122011A
S3150800B38011F09DFAD8B90A2300930C22A0680AABDB
S3150800B3900DF1220111F06FF9172854D078B9BDF8CC
S3150800B3A02230A26868812A6028462B81AB81CDF8B5
S3150800B3B0249011F094F9824640B117283BD058469C
S3150800B3C0FBF728FC059B013305935BE7012228461A
S3150800B3D009A911F0F4F870B3BDF82230A2680DF18E
S3150800B3E06E00ADF83C30CDE90DA2CDF85CA0CDF8E5
S3150800B3F080A0CDF88CA08DF88AA00BF09DFF1A9B33
S3150800B40033BB0121204617AB0DAA11F0FEFC00281C
S3150800B410D5D10121204617AB0DAA11F040FB002813
S3150800B420CDD1239B0BB9ADF888300421584617AA0D
S3150800B430FCF710F9C3E7BDF83030BDF822205BBA37
S3150800B4401344ADF8223008F1FF381FFA88F890E760
S3150800B450BDF86C20002AD4D083F800A0D1E70646B0
S3150800B460304628F069FE0DF5757DBDE8F08F00BF02
S3150800B47089FB040859D9040813460A4601461846A2
S3150800B480E3E62DE9F04F40231446ADF5757D74AD1E
S3150800B49007460E468DF80F302B80294660680DF159
S3150800B4A00F0314AA11F091F938B10646304628F070
S3150800B4B043FE0DF5757DBDE8F08F0DF1D008FF232D
S3150800B4C042462946606811F0A8F90028EDD143469E
S3150800B4D03846384914AAFBF7BBFC002EE6D1FF23F1
S3150800B4E0ADF82C304FF400730DF12E094846ADF82F
S3150800B4F04830CDF8288011950796109613968DF842
S3150800B5004A600BF019FF0A9B1BB1BDF82C2002B14B
