S01900006275696C642F64656275672F6F742D7263702E73333711
S21400400008100020FD73000005FA000009FA000001
S2140040103DC700000DFA000015FA000023600000FE
S214004020236000002360000023600000236000007F
S21400403019FA0000ACA40100236000002360000011
S2140040402360000023600000236000006973000006
S214004050236000002360000023600000236000004F
S2140040602360000023600000B1EC000063C700007E
S21400407061C700002360000023600000236000008A
S214004080236000002360000023600000236000001F
S21400409023600000DD600000236000002360000055
S2140040A023600000BD6000009D60000023600000EB
S2140040B0236000002360000023600000E96901001F
S2140040C0238A01001F8A010031610100398A01003C
S2140040D0278A0100A96901002B8A0100994E010078
S2140040E0296A0100236000002360000023600000AE
S2140040F023600000236000002360000023600000AF
S214004100236000002360000023600000236000009E
S214004110236000002360000023600000236000008E
S214004120236000002360000023600000236000007E
S2080041302360000003
S214004140F0B5114A114C124E00F00105E3695F0705
S21400415013D40DB9334213D103EA00078F4207D1B7
S2140041600B4A1A40002A0CBF00206FF00100F0BD79
S214004170013AEBD16FF00200F9E74FF0FF30F6E7B7
S2140041806FF00100F3E700BF809698000000035030
S2140041900200010000000000000000000000000017
S2140041A02DE98048AC4B8FB05969C1F3073001F058
S2140041B03F01012917D1A94A936DDE0313D4536B2F
S2140041C023F4FF0323F4FE4343F4BC1343F4A06339
S2140041D05363136B23F4704343F440431363136B2E
S2140041E043F4E06313638DF81C008DF81D10BDF8D2
S2140041F01C30B3F5807F0CD14FF000531B68984BF2
S2140042001B68984B1B68984B1B68984B1B68984B11
S2140042101B68984AD2F8803043F00303C2F8803017
S214004220EFF31183302282F31188934C94F83022F6
S214004230002A40F07884012284F8302283F3118823
S214004240BFF36F8F6FF0040350218C488C4D13F032
S214004250800F03F1010240F05E842B443D2A83F870
S21400426000131346F3D1874AD2F84C3113F4802357
S21400427000F05F844FF07E6292F89C3092F99C20AA
S214004280002AB8BF25234FF4D15102207E4A4F2B77
S21400429051627E4928BF4F234860012001F58051B6
S2140042A0DBB24860116911F48031FBD143F48073AE
S2140042B0536140F201439360724B5160D3F84C2136
S2140042C0150300F13A84D3F85051EDB2704B714AA1
S2140042D094F968601A60674B2E441B6F86F30806D5
S2140042E003F00703032B01D114F0A4FC08F001FC33
S2140042F0032842D045F60E030221584AC2F8803001
S214004300654B9962012103F580539962936DD8033A
S214004310FCD4624B62491361936903F0004343EA9D
S214004320064343EA052343F0407343F03C0393619E
S214004330136A23F00D031362936A23F0330343F0EA
S21400434001039362454A936D31EA0303FBD10221D0
S214004350514B9962936D5900FCD4136923F4700392
S21400436043F4001313614FF000424B4B9A61022254
S21400437003F580539A6201229A62424BD3F8985012
S214004380484B5A68012A00F0DF8308F0B2FB042885
S21400439007D1454808F0E6F9364A136F43F48063C0
S2140043A01367424A25F04073D56815F00605FBD121
S2140043B0916893609068434013F4F81F05BF3C4B28
S2140043C0394A91601A6008F094FB042812D114F060
S2140043D031FC08F0C7F9012008F076F83549254A7F
S2140043E0884294BF00200120136F23F4806343EAC1
S2140043F080231367234B304AD3F8C0301D4E23F07A
S21400440040739360376F2848C7F380277B1C84F877
S214004410313208F0A7F9336F43F480633367336FA4
S21400442023F0070343F00203336714F003FC08F09D
S21400443099F9336F23F4806343EA87233367336F36
S21400444023F4505343F4806333670C4BD3F8FC20BB
S214004450D70140F17F8331E000C0075000C0005014
S214004460004000200080002000C000200000012046
S21400447000400120008000506017002000ED00E0A2
S21400448000E100E00080E00F000002500010025043
S214004490483E002000F0490200D000502008B00B33
S2140044A00300014000C0015000B4C40400000150E5
S2140044B0443E002080F0FA020040015AD3F8FC2067
S2140044C022F08072C3F8FC20D6F8802022F0030287
S2140044D042F00202C6F88020D3F8FC2042F0807238
S2140044E0C3F8FC20BB4BD3F8202122F0070242F091
S2140044F00102C3F82021D3F8802122F0030242F003
S2140045000102C3F88021D3F8402122F0030242F0D2
S2140045100202C3F84021D3F8602122F0030242F0E1
S2140045200202C3F86021D3F8402222F0030242F0D0
S2140045300202C3F84022D3F8002222F0070242F01B
S2140045400202C3F80022D3F8082222F0070242F043
S2140045500202C3F80822A04A536A23F001035362FA
S2140045604FF0E022136943F0040313619B4B5A6F2C
S21400457042F001025A67DA6E22F03002DA66EFF392
S2140045801186302383F3118894F83232002B4AD1F7
S2140045904FF0B041924A2367236013604B680BB11B
S2140045A008F0ACF8012200208E4B5A6088608E48D6
S2140045B042600222CA606022CA631F229A615A6160
S2140045C04FF0B0439A6A12F00802FBD11A625A689A
S2140045D05B680BB108F092F84FF00108824F0A2092
S2140045E0C7F8048008F08AF84FF0B0434FF48062B2
S2140045F0C3F80C807D4BC3F8802109F0DBF9C7F8BF
S2140046001880EFF31187302383F311880D2007F00D
S2140046105BFF024687F31188BFF36F8F744B1860F9
S214004620002840F0E78286F31188BFF36F8F09F009
S214004630A3FC704A7049D2F8C03023F0FF0343F061
S214004640A003C2F8C0306D4B99426D4940F0DD8240
S2140046500B686C48C2F89830C2F89C0000F5BF3072
S21400466000F5FF70C2F8A00001330B60BFF35F8F48
S2140046700522604BC3F894205A6A42F480325A628C
S214004680BFF34F8FBFF36F8FBFF34F8FBFF36F8FA5
S21400469040F203430022042109A8ADF8243007F0B5
S2140046A0B5FE00239B6AB3F5804F63D21A68564B5B
S2140046B09A425FD194F8336216F0FD065AD1534FF2
S2140046C03B78002B00F0C28202233B7008224FF496
S2140046D08038464B0320C3F880214D4BC3F80C802E
S2140046E009F068F94B4BC3F8108000239B6ADB691E
S2140046F098473B788046012B40F04C8305F0F0FC51
S214004700013040F03883D4F84422434B1A66D4F87C
S21400471048225A66D4F84C22C3F87021D4F85022A6
S214004720D20700F134833D4AD36C013313D194F899
S214004730333283B93A494968C80748BFD364394B0E
S2140047405B68D90744BF0123D364374B5B68DB073C
S21400475044BF0223D3640FF0E5FAD4F8343283F36F
S2140047601188BFF36F8F3E70B8F1000F02D101239E
S21400477084F8333229490A6D501C04BF174BD3F80E
S21400478094204FF0502308BF0A654FF40031196794
S214004790D30700F1018301210E46084606FA00F30E
S2140047A0134001F1010100F0F982204B03EB4003B6
S2140047B09B891F4A062B11681E4805918AB24FEA4C
S2140047C0114140F0F2824FF20F03994240F0EA8224
S2140047D032E000BF0080005000C00750004000508C
S2140047E09C130020002000580010005800E100E054
S2140047F0A013002000ED00E0403E0020E03D002039
S214004800541700200300002007B0CD5E36140020A9
S21400481000A0004400900044008000444C3E00206D
S2140048200080055000C005500000065034A6010068
S2140048300000002034140020B2F5406F28BF4FF46B
S214004840C06202804FF000534CF23C325A80C64A97
S214004850536A43F470235362EFF308834FF0CD316D
S214004860C24A043B934280F0B182C149C14807F076
S21400487075FC4FF440730122042109A8ADF82430DA
S21400488007F0C4FD0122BC4BC3F84424EFF31186A5
S214004890302383F311880C2007F016FE86F3118868
S2140048A0BFF36F8FB04B00F5D520D3F8F02000F2A1
S2140048B0FC4042F00102C3F8F020D3F8FC20AF4ED3
S2140048C042F08072C3F8FC20AD4AA3F55D431A603F
S2140048D0AC4B0222B0FBF3F0AB4B01381861C3F8C7
S2140048E0F0204FF48072C3F804234FF06043A74AC9
S2140048F0C3F8B02FA64AC3F8802ED3F8002E42F491
S2140049008072C3F8002EFF2283F82020D3F8002EF2
S21400491022F48072C3F8002E33689F0106D44FF04D
S21400492000731920C6F8803109F044F8336858013E
S21400493006D44FF080631A20C6F8803109F03AF8A2
S2140049404FF060460221D6F8003E09A843F4807373
S214004950C6F8003E8F4BCDE9091307F075FFD6F871
S214004960003E042123F48073C6F8003E40F2034361
S2140049700122ADF8243007F049FD94F87910022999
S21400498003D194F87830072B1BD094F87830DA07E8
S21400499003D443F0010384F8783094F878309F0706
S2140049A05FBF012243F0020384F8783084F87C234A
S2140049B094F8782011B9D60700F10B82500740F121
S2140049C00F8214F015FA684B4FF000085B680AF087
S2140049D041FE08F063F94FF0020C6F4BDFF80CE273
S2140049E0CDE909C34FF00073CDE90BE3052301269B
S2140049F009A94FF0FF300D93684F13F01DFB09A96E
S214004A004FF0FF30CDE909888DF8266013F002FAE2
S214004A106FF00A014FF0FF3013F011FB07F1200A88
S214004A200BF098FD20224146384612F048FE182228
S214004A304146504612F043FE594B5A4A83F81C80B2
S214004A409A60594AC3F82080DA60584AC3E900875A
S214004A501A61574AC3F818805A61564B564A304670
S214004A609A60564A83F81C80DA60554AC3E9008A81
S214004A701A61544AC3F820805A61C3F8188014F0AB
S214004A801DF8A7F515790346002840F0B18241F6D7
S214004A900B22002000214FF6FF7BDFF85481C4E98B
S214004AA0E001A8F80420484A7F21C4F88823474834
S214004AB01022C8F800300393ADF810B08DF81260DD
S214004AC012F0FDFD7F21424A4FF0FF3A1170414A35
S214004AD0039B128807F59A71A4F898233E4A09A802
S214004AE01268CDF824A0C4F8A0233C4A1288A4F883
S214004AF09A233B4A1268C4F8A4238022A4F89C2375
S214004B0007F5AC72C4F8A8231A460BF081FD0028FE
S214004B1000F06B81FEE703F00F03043B03441976B5
S214004B201346FFF794BB83F31188BFF36F8FFFF72D
S214004B309ABBD2F85021FFF7A6BB2A4B1D88FF2D43
S214004B4088BF8125FFF7C2BB27494A609A6992074A
S214004B50FCD11AE4D6F8803023F0030343F00203B6
S214004B60C6F88030BEE400BF00ED00E0080000207C
S214004B707C3E00203814002000D0035000E100E006
S214004B80FF030040F8590D00000004E055CEACC508
S214004B9009000100006A1810006A1800B419002005
S214004BA00C10002069C60000B95800001D66000001
S214004BB0C1C6000030100020A1660000C5580000E5
S214004BC0D1660000D966000017A20000D5140020A8
S214004BD0D41400203EA8010044A801003CA801000F
S214004BE040A801000001E00F00E0015000020400B0
S214004BF0CC140020002340F2E731944812F06EFBFC
S214004C00934B84F8328218600DE523F01F03203B97
S214004C10B3F1005F0BD308688E4EC2F8980043F0DD
S214004C2001030130C2F89C60C2F8A03008608A4ACE
S214004C300B688A4822F01F0242F00302C0F8983040
S214004C40C0F89C20864AC0F8A0200DE54FF0010869
S214004C50CDE9056687F80080EFF31183302282F3F2
S214004C601188C4F834320FF055F894F838325BB92E
S214004C707C497D4807F072FA30B97C497A480AF0D8
S214004C8017FC08B984F83882794B5A68C4F8502261
S214004C90784A9A601A6EC4F844225A6EC4F84822BB
S214004CA0D3F87021C4F84C221B6E580444D5724ABF
S214004CB0D368D907FCD4714BDA6C501C41D04FF442
S214004CC0801393406E4A136604226D4B4FF080416A
S214004CD01A664FF480621A6610221A664FF4005263
S214004CE04FF000081A6619665A66D8F82830B3F5E9
S214004CF0804F10D2012309A88DF82430CDE90A8808
S214004D0009F061FB0B9B590505D5D8F8283006A994
S214004D101B6C05A89847059A594B1A66069A5A6658
S214004D2094F83822002A3FF4D1ACD4F83C221A6614
S214004D30D4F840225A66C9E4524AD368DB07FCD44A
S214004D40B9E794F83332002BBED14F4B5A684C4B20
S214004D5012B94FF480121A664C4A526812B94FF4D0
S214004D6000121A664A4B5B68002BADD14FF48002E6
S214004D70434B1A66A8E705F0B3F940F201139842D0
S214004D803FF4C1AC3C4AD368DB07FCD4BBE400224A
S214004D909A60C8E40126E6E4002006E510297FF4C0
S214004DA0FCAC06E54FF4C0624BE540F20726B34282
S214004DB00AD14FF20F06B14206D19A4202BF4FF017
S214004DC000524CF23C315180038040E543F8041910
S214004DD048E5304807F09AFD022384F87930EDE57F
S214004DE042F0040284F87820EBE52B4909980BF092
S214004DF09FFF00B1FEE70221099813F024F800B1E6
S214004E00FEE7264909980CF08DF900B1FEE7314619
S214004E10099813F0E4F900B1FEE73146099813F05B
S214004E20ECF9014600B1FEE71D4B4022184612F091
S214004E3046FC3146A0F83CA080F83EB009980BF03E
S214004E404DFC184F0998386070BBFEE718FCFFFF52
S214004E5008100020030000205F3E002000ED00E068
S214004E60E17F01207C3E0020381400209C190020A1
S214004E700080004455CEAC00000004404C3E0020AC
S214004E8000900044000004500080055000C005500B
S214004E9000000650DC1700200700110060A6010085
S214004EA0CC1300203014002040F22223D4E9E01274
S214004EB0634E9A4208BFB1420DD00FF27C1BDBE96D
S214004EC000AB4FF0FF324FF0FF33CDE900AB12F0EE
S214004ED09FFFC4E9E0AB00215A4802F099FC01218B
S214004EE0084613F0D3FD386804A90BF0CFFB06463E
S214004EF000B1FEE7544B554A18609880544B90809A
S214004F001360A3F55B72C9F890209C228433C9F81D
S214004F109C30504BC9F8B8001A70A9F8940002F0FB
S214004F20FBFE066002F0B5FF031D00F1B402194651
S214004F3010339A42066008D198F804300B2B03D839
S214004F4098F805300A2B04D8FEE743F8106C0E4696
S214004F50EDE7414BC3F8008007F0A0FE002002F00A
S214004F606DFD08223868114612F0A5FF064600B10E
S214004F70FEE70146386813F05DF9314618223748D7
S214004F8012F09DFB364802F09AFB364B1222314651
S214004F90184612F094FB4FF6FE7220F8022CEFF340
S214004FA0108072B64FF010082F4F3E60BE60A7F814
S214004FB0048014F0DAF82D4B2D4EBB608C234FF492
S214004FC00C6009A9C6E9028307F0A8FD00282FD1C6
S214004FD00F22099BC6E90033F168013A19441960AB
S214004FE0F16892B20B44002AF6D14FF0FF321A60F5
S214004FF0204A214E136D591C02BF204BD3F8943023
S21400500013651F4A13604FF050234FF400321A679F
S21400501096F8C830002B40F0AD80C6E90133F36047
S2140050204FF6FF73174FB7F8008098452CD1FEE770
S214005030FEE700BFAFF300800AE020FF2202000078
S2140050400AE020FFCC14002020160020F0150020D7
S2140050508C1B002052160020C8140020AC14002020
S214005060C4140020D21500206416002019910100F7
S214005070B01600204C3E0020581000200040005083
S214005080CC15002098150020B8F1000F1BD1C5F1F3
S214005090040106AB09AA89B25819CDF8248008F095
S2140050A0E7FF002840F0C680099B1D44032DEED97B
S2140050B0069B002B00F0BF806FF00042934208BFB3
S2140050C00123924A13603B88002501333B8000F0A1
S2140050D022FC8F4F8F4B706100F1804039468E4A1C
S2140050E03062A7F11400F361B561776202F0A3FFA6
S2140050F08A4B4FF6FF78C6E90A35FB23B363884B25
S21400510007F144003365C6E90C55C6E9165502F0AA
S21400511019FE07F1540002F015FE07F1640002F0D4
S21400512011FE804B07F11C00C6F8983007F17C038F
S214005130C6F8A0307C4BA6F8B880C6F8BC3007F19D
S214005140A003C6F8C43003F0E7F90B2307F11C00F0
S21400515086F82830C6E90C55F562A6F82A8003F0D2
S214005160DBF986F8C85002F034FF0123C6F8CC00FD
S21400517086F8C830C4F8C0646C4C0027234643F851
S214005180D16B636004F6D103A3604FF40063251D62
S2140051902846A381C4E9047703F098FA23462565D8
S2140051A004241D46013CC3E9157703F10803F9D131
S2140051B0C8235F4F0022C5E928734FF6FF73A5F892
S2140051C0A8305C4B0421C5E92B3400235A4FC5E9AF
S2140051D01E44C5E92044C5E92244C5E92E23C5E995
S2140051E03023C7E90023A5F8744085F89840C5F831
S2140051F09C40C5F8B44085F8C810C5F8CC4085F882
S214005200D040A5F8D248A5F84C4985F84F49A5F8EE
S214005210504985F85249C5F85849C5F85C49C5F85B
S2140052206049C5F8644985F86849C5F86C492B6833
S2140052301BB9FEE7FEE7012343E7404B78221D60DB
S2140052403F4B2146A7F19C00C5E9063512F037FA18
S214005250FF23A7F6B8007721A5F8543985F85349F7
S21400526085F84E4985F8D14804F042F9A7F6C400FF
S21400527002F0C6FE07F10C02C7F8142807F63A0239
S214005280C7F834282F4B4FF40072C5F8783907F169
S2140052901203C5F87C394FF40063A7F838282A4A69
S2140052A0A5F88039C7F8402A284A07F5D263A7F838
S2140052B01848C7F81C48C7F82C48A7F8304887F89D
S2140052C03C4AC7F8444A07F63407C3E96525C3F8DD
S2140052D090711F4BC5E90435184B1B68AB4214D1BF
S2140052E01C4FD9F8C034D3F804805C60B8F1000FC6
S2140052F038D00025D8F8040080452DD04368C8F87B
S2140053000430036845609847F4E7FEE79C150020E4
S214005310741000209D800000A49B01000B00FFFF7E
S214005320F0170020A5850000676C000070220020A2
S21400533000F8FF07A9910000E02B0020C815002008
S21400534055910000C9690000FD87000035960000F1
S21400535021800000641600204046D8F80030C8F8C7
S21400536004509847D9F8C034099403934FF00103CA
S21400537089F8C43499F8C43453B120220021A848CF
S21400538012F09DF9A748C568002D61D189F8C4546C
S21400539009F098FBEFF3108072B67D8813F0E5FEF7
S2140053A0002D40F0E9804FF4F85013F087FB30B33F
S2140053B04FF4807013F082FBDFF89082824600285C
S2140053C000F0B581D8F8003029461B684FF480708D
S2140053D01B7813F0200F944B0CBF4FF0000A9A4630
S2140053E013F054FB2A460023D8F80000C0E9043323
S2140053F0836A93F8C83013B1514609F08EFB8B4B85
S214005400186820B10368022B01D102F06FF98849B1
S214005410A1F1240002F024F9002800F0AA818449B2
S214005420A1F1240002F01CF90546002840F0AA81EC
S2140054308049A1F1240002F013F9054600283FF444
S21400544050AF28467C4902F021F928467949F2E710
S21400545020227349006809ABA84789F8C44400288D
S21400546096D1764B1D68002D92D0BDF82480DFF8CB
S214005470B0A105F58055B8F1000F89D095F88C31AC
S2140054801AF8011B012B10D0022B4DD043B97E29F0
S21400549006D1012385F88C314FF6FF73C5F89C3191
S2140054A008F1FF381FFA88F8E5E77D291DD07E2928
S2140054B01FD0D5F89001B0F804B0BBF1000F52D061
S2140054C0B5F89C21DFF888C182EA0103DBB23CF81C
S2140054D0133083EA1223A5F89C3103F0B9F8B5F827
S2140054E09E310133A5F89E31DAE7022385F88C3128
S2140054F0D6E7B5F89E31002BCED0012B12D04FF256
S214005500B803B5F89C219A420CD10021D5F8903109
S2140055101A68023A1A609A8802329A80D5E965308B
S2140055209847B9E70621F9E7D5F89001B0F804B036
S214005530BBF1000F17D0B5F89C2181F02001DFF8F1
S21400554010C182EA0103DBB23CF8133083EA12236F
S214005550A5F89C3103F07CF8B5F89E310133A5F828
S2140055609E310123C2E70321D5F89431D5F898017E
S214005570984785F88CB193E789F8C544EFF3108017
S21400558072B6798811B913F0F0FDFEE73B8807EB99
S2140055908302D2F80C80BA880133B3FBF2F502FB23
S2140055A015333B804B1E7B8013F0DFFDB8F1000FF8
S2140055B0EBD0234D98F80C30EA7DC3F3800363F3F9
S2140055C04102EA7598F80C30002003F0FB0388F8D7
S2140055D00C30EA7DDB0963F30002EA7598F80C30BC
S2140055E003F07F0388F80C3098F80130AB7143461F
S2140055F013F80C2BAA802B6098F90330114A6B75B0
S214005600137098F80230104AAB751370D8F804304F
S214005610AB62D8F8081013F065FB039BD3B9FEE71E
S2140056207019002010140020F0150020C41400206B
S2140056303010002054100020215B0000C815002008
S214005640201600205116002050160020A41400201A
S214005650DC9E01004F4B28461A789B682A752B6102
S21400566002F03DFE80B10378C3F38302032A0BD118
S214005670980709D4286809F03FFAAB8800F4405030
S214005680092B01D9002833D0039B99F8C5A493F8B9
S214005690C830002B2CD0B36D002B3AD0BAF1000FD7
S2140056A013D0338F990623D5EB7D9A0720D5297D15
S2140056B096F894202B6991421AD1D6F890209A42F7
S2140056C09CBF0133C6F890300FE05146F26D324869
S2140056D09847338F9B060FD5EB7D98070CD5297D11
S2140056E096F894202B699142E7D0BAF1000F03D0C8
S2140056F0404608F07FFE4DE6B6F8A43083B909F0C0
S214005700BFF9F36A002BF3D00022234923489847B9
S214005710EEE7338F9A06E8D5EB7D9907E5D5DEE709
S214005720EB7D9B0744BFAB68C6F8B430E7E74FF4A1
S214005730007013F0C3F9054630B151464FF40070BF
S21400574013F0A4F90F224EE64FF4806013F0B6F97A
S214005750824638B129464FF4806013F097F9AA467E
S2140057600E2240E601464FF4805013F08FF90B22CC
S21400577039E60B49A1F1240001F072FF00287FF4FE
S2140057804EAEAEE52846074901F080FF284606499A
S21400579048E600BFCC13002020160020581000203A
S2140057A054100020155B0000301000200348044B06
S2140057B0834202D0034B03B1184770477C3F00205A
S2140057C07C3F002000000000064B0749C91A8910DC
S2140057D048BF0131491003D0044B0BB101481847AC
S2140057E0704700BF7C3F00207C3F00200000000088
S2140057F010B5064C237843B9FFF7D8FF044B13B116
S2140058000448AFF300800123237010BD183D00202C
S21400581000000000D8C9010008B5054B1BB10549BA
S2140058200548AFF30080BDE80840FFF7CDBF00BFD6
S2140058300000000060380020D8C90100A3F5803AB7
S214005840704700BF174B002B08BF134B9D46FFF752
S214005850F5FF00218B460F461348144A121A11F022
S2140058602EFF0E4B002B00D098470D4B002B00D080
S21400587098470020002104000D000D48002802D0A3
S2140058800C48AFF300800AF013F920002900FEF759
S21400589087FC0AF0FBF800BF0000080000000000CC
S2140058A0000000000810002008100020403D0020E6
S2140058B00000000000000000014B1868704700BFA1
S2140058C0081000204FF0FF30704710B5044600B9AE
S2140058D0FEE7037F1BB1436998470023237710BD7B
S2140058E038B5044600B9FEE7038B428B9A420CD9C2
S2140058F00022013302770383D0E90253984701461A
S2140059002046A8470123237738BD036A0133036284
S214005910BDE83840D9E7014B5B69184708100020FE
S21400592010B5EFF31184302383F311880348FFF793
S214005930CCFF84F31188BFF36F8F10BD0C100020CE
S214005940014B9B6B184700BF0810002010B5EFF303
S2140059501184302383F311880348FFF7B6FF84F3DE
S2140059601188BFF36F8F10BD301000202DE9F8436B
S214005970064614460D46FFF7A8FF336998470027EA
S2140059802D1947EB07032C1A63F10005012C75F15E
S214005990000306DA336A304601333362BDE8F84363
S2140059A093E7D6E902839847A04277EB05031CD21B
S2140059B0F36898473B4602462946204611F08EFC7F
S2140059C0F368914698473B4602462946204611F022
S2140059D085FC4C4683B200227383214630463283D0
S2140059E0C04701233377BDE8F8833B46F3E710B59D
S2140059F0084B5C6804B95860EFF31184302383F3D6
S214005A0011880548FFF7B2FF84F31188BFF36F8F44
S214005A1010BD00BF081000200C10002010B5084B69
S214005A209C6A04B99862EFF31184302383F31188DB
S214005A300448FFF79BFF84F31188BFF36F8F10BDF8
S214005A40081000203010002003468288C0881144C9
S214005A5081429DBF1868998080180020704770B5F5
S214005A6005680C4625B9BDE870404B6808481847DD
S214005A708B6898476A680146831A002BB8BF121ACB
S214005A802368A8BF0022BDE870400148184700BF41
S214005A905810002038B50C461146A26803469442BA
S214005AA006D00568AC420BD10260FFF7D8FFA460B1
S214005AB038BD94420DD011469268002AF9D1F6E717
S214005AC02A460021F9E78B68002BF0D09B688B6094
S214005AD0EDE70029F7D1002DE9D0AA681A60E6E7BD
S214005AE070B5066804460D467EB18B6898477368A5
S214005AF0C01A002809DB20462A463146FFF7CAFFAF
S214005B0030463368BDE87040184729462046BDE851
S214005B107040A4E701490830E2E700BFA49B0100FB
S214005B2001490C30DCE700BFB09B010000F4405296
S214005B30B2F5005F034620D148F2400220F44E50F2
S214005B4020F03F0090421ED00CD8B0F5446F1AD01B
S214005B5005D8C8B1B0F5046018BF01207047B0F58D
S214005B600040F9E703F44C43B3F5404F0BD04CF636
S214005B704043C01A18BF0120704710F4406F14BF8E
S214005B800120002070470020704700F44053B3F512
S214005B90005F04D100F44C43B3F54C4F07D0B0F58A
S214005BA0804F04D380F04000C0F380107047002080
S214005BB0704700F01800102805D0A0F118035842CE
S214005BC05841C000704704207047012300F00700CA
S214005BD0834013F0220F09D113F0880F08D113F079
S214005BE0440F14BF01200020C000704704207047F7
S214005BF01020704708B54307024608D0FFF7D9FFC4
S214005C0012F0180F0CBF05300630C0B208BDFF20DA
S214005C10FCE7416AD0E90E23994209D1017F0129A8
S214005C2006D0531E026893420ED34362C363704786
S214005C30016A914207D1027F2AB14268013393423A
S214005C4005D203628363704701890B44EBE7018941
S214005C505B1AF4E7037F022B06D0083350F8233094
S214005C60C0E90A3302230377D3E710B5C388028955
S214005C705C1C944297BF02680620D35C0B709FBFE3
S214005C80C3880133C380002010BD13B50C460DF148
S214005C900701FFF7EAFF28B99DF8073023B1012B6B
S214005CA004D1237002B010BD0346FAE70620F9E7D8
S214005CB013B50C460DF10701FFF7D7FF10B99DF895
S214005CC00730237002B010BD10B5C38802899C1C33
S214005CD094420BD80268D4186478D35C43EA042351
S214005CE00B80C3880233C380002010BD0620FCE76B
S214005CF070B5C4880389221D9A4211D805682A19EE
S214005D00937856782C5D1B04D27843EA0623234307
S214005D1043EA02630B60C3880433C380002070BD6F
S214005D200620FCE770B5C288038902F108049C428D
S214005D301CD80568AC18A3786678AA5C1B0443EAEE
S214005D4006231343E278657943EA0263227942EA3E
S214005D500522A579E47942EA054242EA0462C1E9ED
S214005D600032C3880833C380002070BD0620FCE7DD
S214005D70F0B50024C288036807899E182346BF1A18
S214005D809F42C3EBC30E12D0052B10D016F803C0EB
S214005D9001330CF07F0505FA0EF51CF0800F44EA7F
S214005DA00504EDD11A44C28000200C6000E00620F5
S214005DB0F0BD30B5C4880389A5189D42D7BF0368D7
S214005DC006201B190B60DFBFC388D218C2800020D4
S214005DD030BDF7B50E460DF1060105461446FFF731
S214005DE073FF40B9BDF8067031463A462846FFF7BD
S214005DF0E0FF00B9278003B0F0BD1C282ED8DFE8EE
S214005E0000F00F3011132D1517192D2D2D2D1B1DDC
S214005E101F212D2D2D272D2D2D25232D2D292B0012
S214005E20002070470E2070470B2070470C207047EC
S214005E3009207047032070470220704704207047EF
S214005E4011207047122070471320704714207047A7
S214005E5016207047172070471820704700F58040BE
S214005E6070470120704713B504460DF107018030D6
S214005E70FFF70BFF50B92368DA6A4AB193F84A2055
S214005E809DF8071061F3000283F84A2002B010BDA7
S214005E900D20FBE7F7B504460025012700F1800634
S214005EA0B4F88620B4F888309A4204D10020C4F8AA
S214005EB0A05003B0F0BD30460DF10701FFF7D5FE48
S214005EC00028F6D19DF807301F2B03D807FA03F3F6
S214005ED01D43E5E70720ECE700F1A4018030F3E678
S214005EE00C207047002307B580300DF107018DF8B0
S214005EF00730FFF7DDFE18B99DF80720024B1A7031
S214005F0003B05DF804FB00BF403E002007B58030BC
S214005F100DF10701FFF7CCFE002808BF0C2003B0E8
S214005F205DF804FB07B580300DF10601FFF7CCFEE7
S214005F30002808BF0C2003B05DF804FBFEE7FEE770
S214005F4037B5002300220446CDE90023FFF7E3FC23
S214005F506946054604F18000FFF7E4FE60B9DDE916
S214005F600032AB4272F1000108D35B1B62F1000203
S214005F70C4F87039C4F8742903B030BD0720FBE7B5
S214005F80F0B504460C260020013A82420DD8704334
S214005F900A1809588B4215BF0023D2E90101C4E94B
S214005FA00033C4E900012046F0BD15186D0806FB55
S214005FB005F7CF599F422CBF2A46681CE5E710B567
S214005FC090F85219044601F6551101448030FFF747
S214005FD05CFE50B9226894F85239D26A32B11C4439
S214005FE094F85529024B83F8202110BD0D20FCE7BC
S214005FF00810002013B504460DF106018030FFF7A7
S21400600063FE50B92368DA6A4AB1BDF80620B3F8D1
S2140060104010914201D0A3F8402002B010BD0D20E0
S214006020FBE7FEE7BFF34F8F0549064BCA6802F44D
S214006030E0621343CB60BFF34F8F00BFFDE700BFA6
S21400604000ED00E00400FA05F8B504460127124DFD
S2140060500CB314F001000BD0002024F0010405EB73
S214006060C0021668002EF3D05168C0B2B047EFE702
S2140060702246013020284FEA520201D0D307F8D535
S21400608007FA00F20F2824EA0204E8D9421E05EBBC
S214006090C2021038E5E7F8BD2C110020064BD3F8F5
S2140060A02404D3F8202403F50053104000F05530A4
S2140060B0C3F82004C8E700BF00C00350064BD3F85F
S2140060C02404D3F8202403F50053104000F0AA302F
S2140060D0C3F82004B8E700BF00C003502DE9F04124
S2140060E0194B1F6D5B6D1F4000D5FEE7012600258E
S2140060F0164CDFF8608037421CD0C8F85060236822
S214006100C3B1A168284601316268A1609847637BE5
S214006110012B0FD170B90E4B03EB451393F8A02259
S21400612060F3410283F8A02293F8B02260F34102A4
S21400613083F8B0220135082D4FEA460604F1100414
S214006140D9D1BDE8F08100BF000004501C12002029
S214006150081000200020045010B5416C4369A1F1DE
S2140061601404DA1CB2FBF4F203EBC2000330B0FBFB
S214006170F4F0B1F5805F00F1010002D1012828BFDC
S2140061800120013010BD73B506460D460024F36BA2
S21400619001225B6901A928199847019B013309D19F
S2140061A0736C043462196A405B421A42EFD0204690
S2140061B002B070BD0024FAE72DE9F341154690F8C9
S2140061C042201E46012A0CBF022304235D43CF7DD6
S2140061D02C1D844605F00205BFB915B1012724F031
S2140061E00304486808342044DCF83C30012A5B6924
S2140061F027D101A9984717B1BDF806300193BDF81D
S2140062000430336002B0BDE8F08155B124F00304D9
S21400621000230D7E01F1200ED8B2854203D800205F
S214006220E2E72F46F4E73EF8330003F10108A04208
S21400623004D901EBC303D8690834D4E74346241ACB
S214006240EAE70122314602B0BDE8F0411847D01E09
S214006250009B42424241187E824212D11A688A420C
S2140062600FD85A688A420CD35A6901325A61D3E968
S2140062700302824205D2986840F822101A69013259
S2140062801A610120704700234FF0FF3142689A429E
S21400629002D8002303727047026842F8331002687F
S2140062A002EBC30251600133F0E7002370B5466885
S2140062B09E4210D00568DC0055F83320B2F1FF3F4F
S2140062C00AD0C2F31302914206D14FF0FF322A5190
S2140062D0036823445A6070BD0133E9E710B5032A0A
S2140062E0029C07D1A26A5340626C5242134201D10B
S2140062F0FFF7DBFF012010BD0023F0B545689D4287
S21400630002D14FF0FF300EE00468DE0054F8334050
S214006310671C09D0C4F31307B94205D1240D1470C5
S214006320036833445868F0BD0133E8E773B5164692
S21400633000F108040D46204609680DF10702FFF734
S214006340DBFF032E05D16B68834202D12046FFF7A0
S214006350ACFF012002B070BD2DE9F0414668002E6A
S2140063603AD0056898464FF0000CAE4655F83C40CB
S214006370C4F31307013401D0B94222D00CF1010C4A
S214006380B4450EF1080EF1D100273C4603E0B442B6
S21400639007F108071DD055F8343001340133F6D123
S2140063A06FEA01316FEA1131E9510168CB59C3F345
S2140063B0130343EA0853CB5103683B445A60BDE8D5
S2140063C0F08141EA0851CEF80010036803EBCC03D5
S2140063D0F4E7B8F1030F03D101230372BDE8F0819F
S2140063E000273C4603E0B44207F10807F4D055F80E
S2140063F034300134C3F3075CBCF1030FF3D11B0D3B
S2140064001B050B43EB51D0E708B508301346D1E91E
S2140064100012FFF7A1FF012008BD41F67132044BC0
S2140064200020DA63012203F50053DA60704700BFEC
S2140064300000035041F671320121044BDA6303F584
S2140064400052D1600022DA63704700BF000003509C
S214006450704737B5054601F10C04436901A90122CE
S21400646020469847BDF8043001220093694620462E
S214006470AB69984703B030BD202A0B681EBF4FF0AB
S214006480FF3191408B43590801F055315B1A03F0F8
S21400649033319B0803F033330B44017803EB1313BB
S2140064A00A444FF0013103F00F334B43A2EB136263
S2140064B00270704737B5044600251B22011D0DF1FA
S2140064C007008DF80750FFF7D7FF63689DF8072091
S2140064D0B2EBD36F03D123F0784003B030BD1B225C
S2140064E004F108018DF80750FFF7C6FFA0689DF875
S2140064F00730B3EBD06F0ABFC0434FF0FF3020F039
S2140065007840EAE72DE9F0430646994689B00369E4
S21400651008460F46904698470446002867D1D9F8A3
S21400652004305B0A012B22464FEA530304F10104B0
S214006530F8D899F8035099F802302D03DB0203F4DB
S214006540006305F480551D43B9F800304FF000098C
S214006550C3F30A0352032B4492B29D18294B0DF144
S21400656007001B2228F0784402A9039302948DF8B2
S2140065700790FFF781FF9DF807306FEA054544EA6C
S214006580C36404946FEA08041B2224F0784402A92A
S21400659002948DF80790FFF76FFF9DF807306FEABB
S2140065A0154544EAC3644FF0FF3301220594069371
S2140065B007A9B369079507F110009847012204461A
S2140065C0B36905A907F1080098470122484518BF96
S2140065D00446B36904A9381D98470122484518BFE8
S2140065E00446B369384603A9984728B10446394695
S2140065F03046FFF72EFF01E0002CF8D1204609B008
S214006600BDE8F08301009AB2034B5A6812B19A6A49
S214006610002AFAD1704700BF0040065070B5EFF36D
S2140066201186302383F3118807F0BAFC4FF0B0438D
S214006630184DD5F894435B69DB0702D507F0B0FC2C
S214006640013486F31188BFF36F8F134B8342134BCD
S214006650A3411DD3D5F89823D2B14FF47A73A0FB8B
S214006660030103FB0411531E13420DD1B2FA82F24A
S214006670C2F11F04531CD243E04001FA03F318434F
S21400668021FA02F2104370BD002310F027FEFAE74D
S214006690FEE700BF08100020EFA7C64B3789410071
S2140066A007B50A4600B9FEE7037F03B1FEE7074BCE
S2140066B001900093416801234FF0FF3011F0FEFA7D
S2140066C000B1FEE703B05DF804FB00BF13910100C4
S2140066D04FF0FF3011F0C3BC00B9FEE741684FF041
S2140066E0FF3011F0FBBA37B505460DF106018030D4
S2140066F0FFF7EAFA044680B92B68DB6A83B1BDF877
S214006700060008F059F883B2092B0BD8064B03EBAA
S214006710800080F89E43A0F89C43204603B030BD1E
S2140067200D24FAE70A24F8E7081000202DE9F341C3
S214006730044601A98030FFF71BFB60BB03460646F4
S2140067400125DDF804E0154991F80880B8F1000F3E
S21400675019D00A68964516D1A3F12002C3F1200687
S21400676025FA06F605FA02F2324305FA03FCD4E9E6
S214006770307627EA0C0726EA0206C4E93076BEF130
S214006780000F08D1464601331F2B01F10C01DBD167
S214006790002E08BF072002B0BDE8F081BC9B0100B8
S2140067A02DE9F341044601A98030FFF7E1FA98BBD2
S2140067B0034605464FF0010CDDF804E0184991F851
S2140067C00880B8F1000F1FD00A6896451CD1D4E99E
S2140067D03076A3F12002C3F120052CFA05F50CFA59
S2140067E002F22A430CFA03F52F431643C4E9307627
S2140067F0D4E92E7627EA050726EA0206C4E92E76AD
S214006800BEF1000F08D1454601331F2B01F10C01E4
S214006810D5D1002D08BF072002B0BDE8F08100BF2B
S214006820BC9B0100002373B500F18006044601A955
S21400683030468DF80330FFF75BFA0546A0B9B4F88A
S2140068408620B4F888309A422BD030460DF10301EA
S214006850FFF71BFA002839D122689DF80300019B38
S214006860D16AF0B119B90D25284602B070BDD2F82C
S2140068709010994238BFC2F89030128F9206F3D526
S214006880EFF31181302282F31188114AD2F8C8033F
S214006890984238BFC2F8C83381F31188BFF36F8FB0
S2140068A0E2E72368019AD96A0029DCD0C3F8902071
S2140068B01B8F9B06D8D5EFF31183302181F3118807
S2140068C00349C1F8C82383F31188E7E70546CBE7F9
S2140068D00810002010B5044644EA010313F0030331
S2140068E0084609D1934201D1002010BD54F8231068
S2140068F040F823100133F5E72146920011F0FEF828
S214006900F2E710B58388032B12D9006808F0F4F874
S21400691080F480720446C2F30021FFF707F948B9F5
S2140069208A1CC4F38123022B06D0032B17D02BB16D
S214006930FF2212E00A1DF4E70232D2B22046FFF729
S21400694024F908B10232D2B2C4F38134022C08D042
S214006950032C09D0002C18BFFF22104610BD0832A9
S214006960EBE70232D2B2F8E70832FBE710B58388CD
S2140069700446022B07D9006808F0C9F818B120466B
S214006980BDE81040BDE7FF2010BD70B50546FFF717
S214006990B8FFFF28044611D02E68304608F0B7F836
S2140069A060B1A9888C420BDA305DFFF723F9FF2827
S2140069B008D00444E4B2A142B8BFFF24204670BD0C
S2140069C0FF24FBE70446F9E770B50C46064690B18F
S2140069D089B10A4D95F804340BB108F073F8D5F870
S2140069E00C3443B122463146D5F80804984710B90E
S2140069F0012385F80434204670BD00BF081000202F
S214006A0070B504460E46E588134682880068AA429A
S214006A1034BFA91A00211044324609F05DFC002854
S214006A2000DAFEE7A388E288184480B2904228BFC6
S214006A302368A08022BF9B18002203F8012C204662
S214006A4070BD0EB417B5044605AA52F8041B019291
S214006A50FFF7D6FF204603B0BDE8104003B07047EE
S214006A600FB44FF41603F0B50024ADB032AD55F8B0
S214006A70047B4322194906AE04A8059303950496A1
S214006A808DF81840FFF7DDFF2346154A12F8011B64
S214006A9009B99BB202E001330E2BF7D1114A124915
S214006AA01344009304A8A2F109030E22FFF7C9FFBE
S214006AB02A46394604A8FFF7A3FF0C4A0C4904A847
S214006AC0FFF7BFFF334610210120094A07F038FDC3
S214006AD02DB0BDE8F04004B0704700BF60920100E2
S214006AE0309D0100399D010066920100209801004A
S214006AF0409601002DE9F04183880D46232B9046F1
S214006B009CB04CD90668346824F04003802B02D031
S214006B10B4F5807F43D101271C22002115A810F070
S214006B20CEFD224BE40844F000541393331D0A9321
S214006B300B970C941E4C01AB0AAA07CA83E8070001
S214006B400D950DAA0E9704AD0F9407CA85E80700A9
S214006B50CDF8408010AA1197129407AC07CA84E8B3
S214006B60070014935A68012A1AD15D60214613A8BB
S214006B7012F05BFB316813A8C90812F0FBFA10216B
S214006B8013A812F0F7FA13A812F0FDFA4FF0984384
S214006B905A6CD202FCD55B6D13F4702F02D0FEE760
S214006BA05B68DFE71CB0BDE8F08100BF00010004B1
S214006BB01000002010B5436804464BB1007807F07B
S214006BC08DFB20B9A37C022B01D00223A37410BD39
S214006BD00D20FCE7002313B5044601A9803001937D
S214006BE0FFF7C6F8B0B923689DF80420D96A81B1CA
S214006BF083F828202368DA6A62B194F8522914448C
S214006C0094F84E2932B103F1280002B0BDE81040D6
S214006C10D0E70D2002B010BD10B58378044603F00F
S214006C20FB03032B1ED102888369D20604D498790D
S214006C3007F054FB00B1FEE7A378A069042B1CBF45
S214006C400423A37008F0C8FA0D2809D1A269536975
S214006C503BB100235361A2691361A06908F0BCFA36
S214006C6000B1FEE710BD07F075BE012B08B50DD0CC
S214006C70022B15D0D3B98A4237BF4368511A5B1A24
S214006C8001683CBF521AD11888B208BD8A4289BF33
S214006C904368891A9B1A026884BF891AC918F3E7E1
S214006CA0C721034B034A044808F026FF0021EBE700
S214006CB06F92010075920100CF9201000368006D8B
S214006CC093F8281007F03ABC044B006D93F8241490
S214006CD0490001F0FE0107F031BC00BF081000209B
S214006CE03221006D07F02ABCAF21006D07F026BCEC
S214006CF0F8B505460E460024012707FA04F333428A
S214006D0004D10134202CF8D10020F8BD286DE1B262
S214006D1007F014FC0028F4D0F7E7D0F8A010E7E757
S214006D200049E5E700F8FF070049E1E700F8FF073C
S214006D300368D96A41B190F85239034493F954195B
S214006D40013118BF01214900006D07F0F7BB012192
S214006D50006D07F0F3BB0021006D07F0EFBB0421C8
S214006D60006D07F0EBBB90F8C810006D07F0E6BBAF
S214006D7010B5044607F074FDC1B2206DBDE81040A2
S214006D8007F0DCBB9C21006D07F0D8BB0221006D2C
S214006D9007F0D4BB70B5164A86B002AC51680546FB
S214006DA026461068224604AB03C3124B124913F85A
S214006DB001098B4202F8010BF9D10822204604A9EA
S214006DC011F053FE60B90D4B9A6CDB6CCDE90023D5
S214006DD06A46234613F8011D934204F8011BF9D1B5
S214006DE008223146286D07F03BFB06B070BD00BF99
S214006DF0689301000900E00F0100E00F0080E00F3B
S214006E0001680822006D423107F02ABB0368006D56
S214006E10D96A003918BF012107F020BB90F8523913
S214006E20034493F84E19006D07F018BB90F85239DA
S214006E30034493F85519006D07F010BB002337B5CF
S214006E4005460DF1070180308DF80730FEF70DFF7F
S214006E50044660B99DF8073023B1013B012B09D9E0
S214006E60072404E02B68DB6A4BB107F07DF9204667
S214006E7003B030BD2B68DB6A0BB10120F5E70D24AB
S214006E80F5E773B505460DF106018030FEF71CFFE9
S214006E90044640B92D68EB6A43B1BDF8066030463B
S214006EA007F0C0F96E85204602B070BD0D24FAE7E3
S214006EB0002337B504460DF1070180308DF8073002
S214006EC0FEF7E3FE70B923689DF80750DA6A22B130
S214006ED055B103F12800FFF76DFE94F852391C44B3
S214006EE084F84E5903B030BD07F024FAF5E713B521
S214006EF004460DF106018030FEF7E6FE50B9236821
S214006F00DB6A33B1BDF8060002B0BDE8104007F0FA
S214006F106DBC0D2002B010BD37B503680446DB6AB1
S214006F200BB328220021114810F0C9FB04F180059C
S214006F30B4F88830B4F886209B1A9BB2012B01D88F
S214006F4000200EE028460DF10601FEF7BDFE40B912
S214006F502368BDF80600DB6A2BB107F047FC002863
S214006F60E6D003B030BD0D20FBE700BFA413002021
S214006F7037B505460DF106018030FEF7A5FE04463E
S214006F8070B92B68BDF80610DA6A42B1D987064B8D
S214006F900246D3F8280411F0F6F808B1FEE70D24EF
S214006FA0204603B030BD00BF081000202DE9F04F8A
S214006FB0DFF80883A44AB8F82C34A448B3F5406F29
S214006FC04FEA132138BF02EB8102C5B0FFF748FD38
S214006FD0B8F82C149E4B0A0A03EB8203D3F8A032AF
S214006FE0CAB203EB82029B48FFF73AFD0123B8F8CA
S214006FF02C24120A934040F2A172134274D0964C8D
S2140070009648D4E90D325F0748BF0025D4E9121B25
S2140070104EBF2F46276D8B46D4F83CA05DBF904DE3
S2140070209246DFF89C92DFF89C9213F0080F8D4B87
S2140070308D4918BF1946EE1B1FBF6422730802FB5A
S2140070400B33B3FBF6F31ABF9BB2039303963B4690
S2140070504A46CDE9005AB6B2FFF702FD4B46039A00
S214007060824800961FFA8BF1FFF7FAFC554501D3CC
S214007070574503D949467E48FFF7F2FCD4E9173254
S214007080134335D17B48FFF7EBFC40F60522B8F8F2
S2140070902C3493420ED8B3F5206F4CD840F20252EF
S2140070A0934256D040F2017293425AD040F20152B7
S2140070B093424AD00024FC22214605A80494264682
S2140070C010F0FDFADFF800B2634FDFF80082DFF859
S2140070D00092DFF800A29BF80030002B40F01781EA
S2140070E014B104A8FFF7BCFC002045B0BDE8F08F43
S2140070F06148FFF7B5FC00250126604FE26D06FAF1
S21400710005F3134203D029463846FFF7A9FC01359C
S214007110202DF3D100250126584F226E06FA05F3DE
S214007120134204D0384605F12001FFF799FC0135DB
S214007130202DF2D1A9E7A3F60223032B17D8DFE808
S21400714013F02D005500CB00E4004D48FFF788FCF7
S214007150B0E74C48FFF784FC216C4B48FFF780FCF7
S214007160A8E74A48D4E92412FFF77AFCA2E7484881
S214007170FFF776FC94F868309E0702D54548FFF77F
S2140071806FFC94F86B305D0602D54348FFF768FC49
S21400719094F96B30002B8DDA4048D7E74048FFF76C
S2140071A05FFC94F86430980703D0216C3648FFF7EC
S2140071B057FC94F96430002B03DA216F3948FFF747
S2140071C04FFC00250126384FDFF8E880626E06FA8D
S2140071D005F3134206D057F825100B7813B1404636
S2140071E0FFF73EFC0135082DF0D163E72F48FFF787
S2140071F037FC216C2448FFF733FC94F865305907B8
S21400720002D52B48FFF72CFC94F96530002B03DAE7
S214007210216F2448FFF724FC0825234E254F636E74
S214007220EB40DA0706D556F825100B7813B138462A
S214007230FFF716FC0135102DF1D194F86430002BC1
S2140072407FF438AF1C4881E7489D01009093010009
S214007250A49B0100A6930100403D0020C6930100B8
S214007260081000207E93010085930100F79301002B
S214007270309401004E940100639401009294010042
S21400728096940100D3940100039501001D9501001A
S21400729038950100509501008A950100BD950100C2
S2140072A0F99501001E960100749E010043960100A8
S2140072B05A9601003B960100A09601000810002097
S2140072C07993010071930100789D01008D93010070
S2140072D0209801000A9701001E48FFF7C1FB216CA9
S2140072E01D48FFF7BDFB10251C4E1D4F636EEB407F
S2140072F0DB0706D556F825100B7813B13846FFF78E
S214007300AFFB01351A2DF1D1D4E6164822E706F078
S2140073100302032A14BF43464B46019357F8043B27
S21400732004A8009352465B464FF48071204408F050
S214007330E1FF1BF8013B002BFBD1721C12F003058A
S214007340D6B203D02044C5B22C46C4E604A8FFF744
S21400735087FBF9E7D096010003950100749E0100B3
S2140073603B960100E99601001F4C07B594F82E34B1
S21400737003B9FEE70023694604F58660CDE90033CD
S21400738008F096F8F0B9194AD2F84031D2F8402100
S2140073901F2B4FF0010310D9203A9340019A1A434D
S2140073A0019294F864341BB16946114808F0B8F8A5
S2140073B0104B114A1A60FEF735FE9340009A1A43A6
S2140073C00092EEE72D28F3D1084AD2F84031D2F8E1
S2140073D040211F2B4FF0010385BF203A9340934076
S2140073E0019398BF0093DCE708100020008000445B
S2140073F038140020000000200B020FF008B5284BC0
S21400740083F30A886FF00101264B274A9A60D3F867
S214007410882042F47002C3F88820244A116641F29C
S214007420FF7151660221C3F8D010BFF34F8FBFF330
S2140074306F8F08214FF44034A3F54063C3F88011E2
S2140074400320D46006F0B6FA194B1A481C611A4B92
S214007450C01A801006F07AFE184B19498B4212D3D8
S2140074600020184B18498B4218D3FEF7EBF9186822
S21400747050F82240586840F822400132986882420C
S214007480F5D30C33EAE70022F8E71C6844F822003C
S21400749001325C68A242F8D30833E4E70022F8E73A
S2140074A00800002000ED00E00040000000A00044BE
S2140074B000800044A041000040410000E0C90100F7
S2140074C0ECC90100ECC90100ECC901002DE9F74F39
S2140074D0394C4FEA820AE269894602F4803341F663
S2140074E0713201210093E263344A8046D1608346BC
S2140074F04A46574677B939460122314BDA60009B37
S21400750013B100222C4BDA634B1C3FD0002948D025
S21400751071203CE00BF5005525F4FF5525F01F05BE
S214007520C4F814B0A5EB0B05E169BD4228BF3D4683
S214007530490733D4164656F8041B2A44A1619642DE
S21400754012D1042200212120226111F085FE01467D
S2140075500028D1D1212011F07FFE01460028CBD192
S2140075603246AB447F1BC5E708210846019211F05E
S21400757073FE019A70B1042301222361104BDA6076
S214007580009B0BB10023E3630130C1D16E2003B032
S214007590BDE8F08F56F8041BA161D0E74FF0FF312D
S2140075A0AAE752464946404611F05FFA002814BF43
S2140075B03D200020EBE700BF000003500010035002
S2140075C0002003502DE9F84341F671334FF00108CF
S2140075D01F4E0446F769F3631E4B0021C3F80C8068
S2140075E0022370612120336111F036FEDFF86C90C3
S2140075F0054607F4803748B1C9F80C800FB1002360
S214007600F36301350DD16E20BDE8F88301462120D5
S21400761011F022FEC9F80C8007B1F563431CF2D0C6
S21400762008B17120F0E70C4B9A6801230A3202F089
S2140076301F02934023F0030323449C4201D1002001
S214007640E2E754F8042B0132F7D03E20DCE700BF17
S21400765000000350001003500080E00F002003508D
S214007660094A091A891030B55143034600222425D9
S2140076708A4205FB023005D00BB1046A04B130BD66
S2140076800132F5E70020FAE7398EE33870B50D468B
S2140076900668EFF31182302181F311880021046A15
S2140076A0016282F31188BFF36F8F002C00DC70BD7F
S2140076B03046013CA847F8E7022011F0FFB938B57C
S2140076C00568044675B12B68012B06D1064BD3F826
S2140076D0280403F2A44110F001FB284606F012FA33
S2140076E00023236038BD00BF08100020034670B595
S2140076F0F8B10668022E1CD10E4C5A7904F2BC4032
S21400770000EB82009A798AB11D79FFF7D8FF94F8CA
S21400771018316DB26BB194F88A302846022B18BF28
S21400772084F88A60BDE8704006F058BDBDE8704039
S214007730C5E770BD0810002038B51446002A39D0B9
S214007740D168936801391C4D9942D5F828044FF04A
S214007750FF3118BF002110F0D3FA10F5007F0CD1CE
S21400776080232374A368E26801339A42A3600FD98A
S2140077702046BDE8384006F067BD002894F9103072
S214007780B8BF033040F387008342B8BF2074E9E7F0
S21400779094F91030237102232360A37913B1204695
S2140077A0FFF7A4FFD5F828040022BDE83840802162
S2140077B010F081BB38BD00BF0810002008B5074B8D
S2140077C0D3F8280410F041FB30B1054BB3FBF0F0C2
S2140077D083B20BB1184608BD0120FCE70810002054
S2140077E040420F001FB5FF238DF804300023CDE97B
S2140077F00233064B014601AAD3F8280410F07CFA9F
S214007800003818BF012005B05DF804FB0810002002
S214007810F8B506462C4D33680C46D5F828041BB33D
S214007820972110F0A6FC024600B1FEE73168D5F8B5
S214007830280408F0F7FF00B1FEE73168D5F8280401
S21400784010F0ECFA3179814200D0FEE7D5F8280432
S21400785009F0A6F900B1FEE70122D5F82804114682
S21400786010F0BBFC20B1FEE709F08AFC00B1FEE791
S2140078700322D5F82804114610F09FFC7F2C20D058
S214007880D5F8280410F041FB032814D104EB840437
S2140078906400D5F828740A21384610F038FB40F604
S2140078A0E441384610F035FB2146D5F8280409F0A7
S2140078B08FF930B1FEE7D5F8280409F0A5F904469B
S2140078C0E7E7C5F8C064F8BD0810002038B50446E0
S2140078D0164D11F007F9237D95F8C8249A4223D84F
S2140078E095F8C9249A421FD3D5F8C03405F2C4408F
S2140078F0834202D07F21FFF78BFF8022D5F8280431
S214007900114610F0D8FA10B1012000230AE0207DBD
S214007910FFF768FF0028F7D1204606F095FC002800
S214007920F2D10123236038BD2120EEE708100020A5
S21400793000232DE9F74F04460DF1070180308DF83E
S2140079400730FEF792F9064628B99DF8073013B1BE
S214007950022B04D00C26304603B0BDE8F08F276813
S214007960FB6A002BF7D094F85229224492F9543936
S214007970013301D00D26EEE7D4F8A050002D54D0E8
S2140079806B1E2B4051D16D08984603F10103FAD1C6
S21400799082F85489FB6AB4F8A490002BEAD097F8D2
S2140079A03A30002BE6D0033B042BE3D93B8F9B07F2
S2140079B0D0D5DFF884A0DAF8BC3493BB4FF47A73E2
S2140079C0182003FB09F906F05BFC5FFA88F84FF015
S2140079D0800BA0F814804FF001080560457180F810
S2140079E004B080F8068085600446FFF7E7FEC30013
S2140079F0B9EBC00F2CBFB9FBF3F34346204684F81F
S214007A0010B0E360FFF762FF58B9CAF8BC4497F8B5
S214007A103A30052B1CBF052387F83A30044B7B63AE
S214007A2099E70448FFF74BFEF1E7072693E700BF08
S214007A30F18D0000C41400200810002008B5054B86
S214007A4000EB80004100D3F8280409F0C1F800B12B
S214007A50FEE708BD0810002038B50F4B0C4693F81B
S214007A60C824824215D893F8C924824211D303F25F
S214007A70C445D3F8C034AB4204D10846FFF7DEFF56
S214007A80002038BD06F0E4FE21462846FFF7C0FE7B
S214007A90F6E70720F5E700BF08100020002313B51F
S214007AA080300DF107018DF80730FEF701F9044626
S214007AB040B99DF80720054B83F8CC2406F0ECFB74
S214007AC0FFF7BCFF204602B010BD00BF0810002024
S214007AD037B500F1800528460DF10701FEF7C5F819
S214007AE00446B0B928460DF10601FEF7E1F8044653
S214007AF078B99DF80720A2F10B030F2B0CD8074B83
S214007B0013449DF8062083F8C22406F0C5FBFFF751
S214007B1095FF204603B030BD0724FAE70810002082
S214007B2008B5302383F311884FF000534FF20F024D
S214007B3018805A80BFF35F8FFEF774FA2DE9F04184
S214007B406C4A6D4B55686D4C5D65516A99656C491C
S214007B50D1F80002D865D1F80412586B1966916AFC
S214007B6010F0040F5966D16A4FF000009966116B49
S214007B70D966516B1967D26BD8645A67D3E90E126F
S214007B8018BF11465F4A91421A655DD301F1200085
S214007B90A04259D88869C5F308051864CE69062D31
S214007BA05E6455D1584DA84252D3584DA8424FD284
S214007BB005884DF6426085424AD11868C3F89000A1
S214007BC05868C3F8940040F20170A242154604D2E9
S214007BD02E680432B6F1CD3FF7D00022C3E91E224C
S214007BE0C3E92022C3E92222641BDFF81CC1434DEF
S214007BF0DFF818E19C648D422DD8D3E91EC7D3E97F
S214007C002065D3E922414FF0000E013AD2B2FF2A96
S214007C103CD1BEF1000F05D0C3E91EC7C3E92065FD
S214007C20C3E92241B3F85430C3F308030C2B3BD806
S214007C30022B54D9DA1E092A51D8DFE802F0315750
S214007C40404350505050504D0021C3E910112D496B
S214007C504FF42060B9E755F8044D6445CBD374451E
S214007C60C9D2E607C7D50026294F57F8048FA04586
S214007C70C1D00136062EF8D132B1013AD2B202F1A5
S214007C801E0643F82640B6E70522F8E7E0464FF022
S214007C90010EBC4637462E4625460C464146B4E7FE
S214007CA040F60120BDE8F0813B2B18D1194B9B69AB
S214007CB013F0020F40F2025318BF1846F2E740F6E0
S214007CC00320EFE740F2017240F60423B0F5206F80
S214007CD014BF10461846E5E740F60520E2E740F6F2
S214007CE00722013B4B2B98BF1046DBE740F60220ED
S214007CF0D8E700BF00ED00E0403D0020081000205F
S214007D0000E100E008000020A041000040920100D1
S214007D10B43D00200080015A084B03F59C62D2E86F
S214007D20AF2FD20707D493F8E02422B9C3F8E4248F
S214007D30012283F8E0240248704700BF08100020A4
S214007D40EC140020102200210FF0B9BC2DE9F04FF2
S214007D5000F1800593B006460DF109012846FDF7AF
S214007D6084FF044620B99DF80930082B04D0072468
S214007D70204613B0BDE8F08F284602A9FDF775FF30
S214007D8004460028F4D128460DF10A0205A9FEF79C
S214007D9020F804460028EBD1BDF80A30102BE6D1B7
S214007DA028460DF10A0204A9FEF713F80446002837
S214007DB0DED1BDF80A30102BD9D128460DF10A02C3
S214007DC003A9FEF706F804460028D1D1BDF80A300C
S214007DD0102BCCD1DDE9035B059BD6F8009006AEF0
S214007DE030460AAF01939DF808A00DF13808FFF75A
S214007DF0A9FF3846FFF7A6FF4046FFF7A3FFD9F8CE
S214007E002C20002A43D0B446019B03F1100E624694
S214007E1018685968083303C273459446F7D15B4621
S214007E20BC460BF1100E624618685968083303C248
S214007E3073459446F7D12B46454603F1100C2A4667
S214007E4018685968083303C263451546F7D196E8A3
S214007E500F0009F1600589F894A085E80F0097E8FF
S214007E600F0009F1700585E80F0098E80F0009F18A
S214007E70800585E80F00B9F838309B067FF578AFA7
S214007E8043463A463146504606F07EF970E70D24E2
S214007E906EE770B5134D05F59D63D3E8AF4F14F04C
S214007EA0010416D195F8E8349BB9C5F8EC4405F5FD
S214007EB09E6630191034FFF745FFA02CF9D10B222F
S214007EC0094B013A194603F1100304D1012385F842
S214007ED0E834064870BDD5F8EC0443F8100CC5F835
S214007EE0EC14EEE708100020F8140020F41400202C
S214007EF02DE9F34100F1800528460DF10201FDF75A
S214007F00E3FE044690BB0822284601A9FDF751FF70
S214007F10044658BB8DF801000DF101012846FDF717
S214007F20A4FE044610BB9DF80130019FBDF8026018
S214007F30C3F3C00203F0010103F00F08002F3BD08B
S214007F4019B913F0060F00D14AB1FFF7E5FE056830
S214007F50DDB9FFF79EFF0568E5B9032406E0FFF7E5
S214007F60DBFE02682346154625B91724204602B0D4
S214007F70BDE8F081E988B14220D02B462D68F3E7B2
S214007F801A6802B312681A601DE0EB88B3420BD081
S214007F902D68DDE72B6803602846FFF7D3FEFFF762
S214007FA0BBFE03682B60056085F80480EE803B68A6
S214007FB0AB607B68EB60D9E70724D7E7002BDFD1FF
S214007FC00AB113680360FFF764FF03682B6005605F
S214007FD0CCE70A4AB2F8903503B9FEE748F24E30CD
S214007FE0D2F89435A3FB003010EB530044BF20F0CA
S214007FF000400130C2F89405704700BF081000200A
S214008000436853B9054B5A6D12B9586540607047BE
S214008010526842605A6D50605865704708100020DC
S214008020D0F87C2900F682139A4203D100F59D50C1
S2140080301030E5E770472DE9F041936805460C4699
S214008040164698473246074621462846FDF722FD43
S2140080502868002203466BB16168D3F804E0A1EB00
S214008060070CAEEB070898EA0C0F14D4A1EB0E0130
S214008070002908DA52B9A0602C6031462846BDE8CF
S214008080F041FDF7ECBC1A469B68E4E79368A360F2
S2140080909460BDE8F081BCF1000FEAE7084B596E2A
S2140080A01A6F8A4208BF996E02F1804204BF0131FE
S2140080B0996604491A67A1F11400034ABBE700BF9A
S2140080C00810002074100020A49B01004160024AA2
S2140080D001460248AFE700BFB09B010064100020D5
S2140080E00146024A0248FDF7D5BC00BFB09B01001E
S2140080F064100020002337B504460DF107018030D8
S2140081008DF80730FDF7C1FD0546C8B99DF8073064
S2140081102468C3B904F1BC00FFF7E2FF04F198003D
S214008120FFF7DEFF06F006F940B9012010F0C6FCA6
S21400813020B194F83A300BB184F83A500023E36249
S214008140284603B030BD94F83A3063B9012010F0E9
S214008150B5FC06F0EFF840B994F83A30012B02D09F
S214008160012384F83A30014BE9E7FEE797930000D5
S21400817038B505460C46FEF7F9FBFF2817BF2B68F7
S21400818006201B5C00201CBF03F00703237038BDCD
S21400819038B505460C46FEF7E9FBFF2817BF2B68E7
S2140081A006201B5C00201CBF03F01803237038BD9C
S2140081B038B505460C46FEF7D9FBFF281FBF431C03
S2140081C02A68DBB2D3581ABF00202360062038BDC9
S2140081D038B505460C46FEF7C9FBFF2800D1FEE77A
S2140081E02A68431CD9B2545452FA83F3220A5A70AE
S2140081F0220C240E9A70DC702B7F43F001032B7741
S21400820038BD70B506460D46FEF7B0FBFF2804469F
S21400821009D03268105CFDF7CCFC224402440020F2
S21400822053792B7070BD0620FCE770B506460D46E8
S214008230FEF79CFBFF28044600D1FEE73268105C80
S214008240FDF7B7FC22440244557170BD10B50446D4
S214008250FEF78CFBFF2806D02368185CFDF7B5FCFC
S2140082600230C0B210BD0220FCE7F8B50646FEF7A5
S2140082708CFBFF2804462ED03768384606F03CFCB8
S214008280830505461BD53046FFF7E0FFB188A21CE4
S21400829093B210FA82F28A4207EB04061DDC3A5DBE
S2140082A002F07F0213449CB210FA83F3994214DB67
S2140082B03288C2F3C7127F2A01D09942E7DC3B78A6
S2140082C003F00703032B06D105F44055B5F5005F10
S2140082D001D00134A4B2E0B2F8BDFF24FBE710B52C
S2140082E00446FFF7C2FFFF2816BF23680020C01809
S2140082F010BD10B50446FFF7F2FF2368C01AC0B2DF
S21400830010BD70B505468688FFF7F3FF044628467D
S214008310FFF79CFF0444301B80B270BD10B50446C6
S214008320006806F0E9FB830504D52046BDE810404A
S214008330FEF72BBBFF2010BD01F1080313F8012D3B
S2140083408B4200F8012BF9D170471FB50023044675
S214008350082201A980300193FDF72BFD48B9236858
S214008360DB6A43B102A80199FFF7E6FF02A806F010
S214008370EFF904B010BD0D20FBE7F8B507680E4610
S214008380384606F0B9FB0546384606F0B7FB044605
S2140083902846FDF7CBFB08B10234E4B2C5F38123CF
S2140083A0022B12D0032B13D02846FDF7EEFB08B1A4
S2140083B00234E4B2FF2C06D0C5F38135022D09D075
S2140083C0032D0DD04DB1062009E00234E4B2EBE7F0
S2140083D00834FBE701253B5B338000203572F8BD8F
S2140083E030463919FFF7A8FF0225F6E71FB5002328
S2140083F00C4601A98DF80C30FFF7BFFF024638B9CE
S2140084009DF80C30012B06D0022B09D003B9207240
S214008410104604B010BD2372BDF804302380F7E781
S214008420237201AB03CB20606160F1E730B585B005
S2140084300546082201A98030FDF7BBFC044678B942
S2140084402B68DA6A7AB1019902A80A68C3F8422052
S2140084504A68C3F84620FFF76FFF02A805F0CCFE77
S214008460204605B030BD0D24FAE730B50368044653
S214008470DB6A85B023B32822002112480FF01FF9CB
S21400848004F18005B4F88830B4F886209B1A9BB2B5
S214008490072B01D8002011E00822284601A9FDF785
S2140084A088FC58B923680199DB6A4BB102A8FFF72C
S2140084B043FF02A806F04CF90028E3D005B030BD13
S2140084C00D20FBE7A015002030B585B00546082234
S2140084D001A98030FDF76DFC0446A8B92B68DB6A5D
S2140084E0ABB1019902A8FFF727FF02A806F00CF926
S2140084F083B2092B8FBF0A24064B03EB800080F85B
S2140085009A4598BFA0F89845204605B030BD0D2482
S214008510FAE700BF0810002038B54FF6FE730025B6
S2140085200446C3800381438A458003F0FE0343F478
S214008530FE4343F0010343820571C0F80A50C0F8B9
S2140085400E5045612830FFF7FDFB04F13800FFF7B9
S214008550F9FB04F14800FFF7F5FB04F16000A565A0
S214008560A4F85C50FFF7BCFDC4E91D55A4F8705094
S214008570A4F86C5084F86E50E56704F18400BDE8FA
S2140085803840ADE582698378516909B912692AB124
S214008590072B01D007238370FEF73EBB032BFBD0CF
S2140085A00323F8E710B5274C94F88A30033B042BD6
S2140085B046D8DFE803F00308191503002248BDE893
S2140085C01040FEF729BBD4F8A030987905F086FE57
S2140085D0D4F8A0000E22BDE81040002106F09DBA97
S2140085E01948BDE81040CDE7B4F888309B0700D5A1
S2140085F0FEE706F035F97F2807D094F99B307F2BED
S21400860001D0984201DD84F89B00FDF784F9D4F888
S2140086109C30C01A002806DAD4F8EC100B488031DB
S214008620BDE8104052E594F88A3094F99B00022B7E
S2140086301CBF022384F88A30BDE8104005F0CEBD8A
S21400864010BD00BF0810002090100020F010002081
S214008650838843B103685A1C026019708388013B03
S2140086608380002070470320704738B57E29054672
S2140086700C4600680AD87C2903D801F0FD03112BAC
S21400868006D18388012B15D8032038BDF829F7E7D3
S2140086902146FFF7DDFF0028F7D1AA880A4B544091
S2140086A0E4B203EB4403B3F83833002083EA122322
S2140086B0AB80EAE77D21FFF7CBFF286884F0200136
S2140086C0FFF7C6FFE9E700BFA49B0100036810B5EB
S2140086D05A1E114603628B4211D84162022101776D
S2140086E000210163A1F58031C0E90A33C0E90D130A
S2140086F0934207D8C0E90F23C0E9113310BD04899F
S2140087002144E8E701890A44F2E7012B10B5044644
S21400871008460AD0022B0FD01BB963681044834268
S21400872000D910BD2289801AF9E72368881A834287
S214008730F7D922891044FAE79C21024B024A0348E3
S21400874007F0DAF96F92010019970100CF92010045
S2140087502DE9F04790F8242012B90D20BDE8F087E7
S214008760013A0568D2B280F8242095F81C90B9F139
S214008770020FF2D000EBC204AB6AA6689E42ECD1B0
S214008780D5F82CA031464B4652462846FEF76DFAE1
S2140087906768804631464B463A462846FEF765FAF5
S2140087A080450646D9D94B46524639462846FEF7F6
S2140087B05CFA0128D1D90236464512DC841EA4B2E2
S2140087C03C702B7F012239462846FFF79EFF240A7D
S2140087D004700146012228462B7FFFF796FF0020F3
S2140087E0BCE70720BAE7134610B501220C78FFF75E
S2140087F08CFF03782402E01880B210BD2DE9F04FFC
S214008800934B85B0D3F8C045261D04F58055216CE2
S214008810A06A814209D1E26B636A9A4205D195F853
S214008820A031022B00F0AF8088E095F8A031012B34
S2140088307BD0022B00F0A780002BEAD194F8C8204A
S21400884094F89830012A01D1002B77D04FF6FF73A9
S2140088507E21D5F88401A5F88831FFF7F9FE0028B7
S2140088606CD1216CA26A94F83930914242D0002B28
S21400887049D094F83830304604EB8303DB6BC4E908
S214008880113305F0DBFE012385F8A03194F839207A
S214008890032A62D0002A40F09680216CA36A94F8DE
S2140088A098B0994200F09380012284F8382094F81A
S2140088B038800B2704EB880ADAF83C90DAF8243084
S2140088C049460093009B994240F087803046CAF89C
S2140088D03C10FDF79EF9002384F839304FF6FF73FD
S2140088E0A7696387002F42D0334642464946E0696F
S2140088F0B8473CE0E16B626A9142C4D0002BB8D125
S21400890084F83830B5E70123FAE7E16C94F838309C
S21400891030460F78FFF7F9FEA36CE064984202D168
S214008920304605F08BFE85F8A17104F58C5095F85D
S214008930A1110430FFF799FE0028A7D0D4F87C597F
S21400894004F682102D1AA9B200297ED0D4F8783900
S2140089509847ADB2A84278D0FEE7A26A236C94F896
S21400896098B09A42A3D1626AE36B9A429FD1BBF158
S214008970000F05D094F8983013B9012385F8AC336E
S214008980022385F8A031D5F88431B5F888910DF129
S214008990080893E8030088E803006FEA090104F575
S2140089A08C5704371FFA81FA3846C9B2FFF75DFEC6
S2140089B098B3D5F884310298B8F8042018609A80E5
S2140089C0A5F88891BAE7012A9FD00027ABE7E16BAC
S2140089D0636A99427FF469AFC9E74246304601911F
S2140089E0FFF701FF10F4004F019902D089457FF48C
S2140089F06DAFC0F30D00821C43463046FFF785FE80
S214008A00013F17F0FF0701467FF45CAF40F24531A7
S214008A10104B114A114807F06FF838464FEA1A21F2
S214008A20FFF723FE0028C4D17E21D5F88401FFF786
S214008A300FFE0028BDD195F8AC3385F8A001002BB9
S214008A403FF4E5AE85F8AC03E1E605B0BDE8F08F8F
S214008A50081000206C97010088970100CF92010053
S214008A60F8B5047F0546022C0E4605D1E6210E4BCE
S214008A700E4A0F4807F040F82346B4FA84F4C76A53
S214008A8001223946FFF741FE6409083455F82430C0
S214008A90834203D03E70E8620020F8BD2846FDF70A
S214008AA0D9F80320F9E700BFB5970100D197010078
S214008AB0CF92010070B5D0E90A239A4205461DD12F
S214008AC0037F0021083350F82360B31A5E425E41EC
S214008AD0FFF7C6FFF603044670B901462846FFF7BF
S214008AE0BFFF044640B9A96A360A2B7F01222846F2
S214008AF00E70FFF70AFE0470204670BD0024FBE7E8
S214008B0038B5037F0446022B0D4607D0FFF7D2FF89
S214008B1028B929462046BDE83840A1E70D2038BDD3
S214008B2038B504460D460068C9B2FFF7E9FF20B91C
S214008B302068290ABDE83840E2E738BD50F8503BC7
S214008B40598DEDE750F8503BD98FE9E7B0F8A410FF
S214008B505030E5E738B504460D460068C9B2FFF761
S214008B60CFFF80B92068C5F30721FFF7C9FF50B9CA
S214008B702068C5F30741FFF7C3FF20B92068290E18
S214008B80BDE83840BCE738BD036893F8283093B199
S214008B900A2B08D84FF4FA62534303F55C2101F51B
S214008BA034615030D6E7192B07D841F28832044991
S214008BB002FB0311F5E70349F3E70021F1E700BFE5
S214008BC0B0DB2300CC3F0D0070B590F8245004466F
S214008BD0032D1DD80668337F022B19D03046FFF7C9
S214008BE069FFA0B9F36A04EBC5056B60B36A01467A
S214008BF0AB602068FFF784FF48B901462068FFF79E
S214008C007FFF20B994F82430013384F8243070BDF7
S214008C100D20FCE72DE9F041044694F82460002E70
S214008C2034D1246894F81C80B8F1020F39D0A76AB2
S214008C30434639462046E26AFEF717F801280546FD
S214008C402DD9424639462046FFF7CDFD023DC5F3F5
S214008C500D05284385B2C0F307204346387001222D
S214008C6039462046FFF751FD0570E36AA362227F6E
S214008C70A06A04EB8203196A21631862E56815B1DD
S214008C8023462069A8470223237705E02046FFF7FE
S214008C905FFD06460028C0D03046BDE8F081E7629A
S214008CA0E5E70D26F8E770B5D1B20446006816462B
S214008CB01D46FFF725FF30BB2068C6F30721FFF7E8
S214008CC01FFF00BB2068C6F30741FFF719FFD0B9A6
S214008CD02068310EFFF714FFA8B92068E9B2FFF745
S214008CE00FFF80B92068C5F30721FFF709FF50B9C9
S214008CF02068C5F30741FFF703FF20B92068290E57
S214008D00BDE87040FCE670BD00F51763D3E90023AC
S214008D105030C8E77F290B46F7B51ED9B1F5804F0E
S214008D201DD3B1F5001F1CD3B1F1805F2CBF052207
S214008D3004226E4600243146571EBC42DDB212D1D4
S214008D4004F108030DEB030405F07F0504F8085C46
S214008D50006805F085FB03B0F0BD0122E9E70222BA
S214008D60E7E70322E5E765F07F0506F8015BDB0928
S214008D700134E2E72DE9F04111F00F0804460E46F3
S214008D8017461D46006828D0002384F82430FCF7D8
S214008D9061FF01230377436AC0E90A33314620683E
S214008DA005F0CCFB10BB39462046FFF7B3FFE8B909
S214008DB02668337F022B18D03046FFF77BFEA8B913
S214008DC0F36A2946A362B36A2046E36294F8243025
S214008DD084F82530BDE8F0419CE784F82480FCF751
S214008DE039FF036A80F81C80D6E70D20BDE8F081C5
S214008DF0F8B51A4B0E46D3F8C055FF232C4695F906
S214008E00547985F8543954F8500B2830FDF7D2FEC3
S214008E103923062280212046FFF7ACFFE8B9286DEB
S214008E20F9B205F08BFBC0B9286DF1B205F086FBF0
S214008E3098B92046FFF7EEFE78B980213023062247
S214008E402046FFF797FF014638B9286D05F076FBF8
S214008E5018B92046BDE8F840DCE6F8BD081000204A
S214008E602DE9F0470568044695F81C900E46B9F1C2
S214008E70020F25D0AB6AD0F82C80984523D14B46FC
S214008E804146EA6A2846FDF7F0FED4F828A00746D1
S214008E904B46524641462846FDF7E7FE874212D922
S214008EA0C5F82CA094F825300021204684F82430FC
S214008EB0FFF730FF28B931462046BDE8F04729E7DE
S214008EC00D20BDE8F0870720FBE702215030C7E7FA
S214008ED0024B006D197805F031BB00BF403E002004
S214008EE010B5064B0446D3F8280407F08DFEC1B231
S214008EF0206DBDE8104005F021BB00BF0810002023
S214008F00024608B50C20FCF778FFBDE8084001468D
S214008F1002F15000A4E7024608B50C20FCF76DFFEE
S214008F20BDE80840014602F1500099E738B511F057
S214008F30300F00F1500408BFC0F89C2015460023EF
S214008F4006222046FFF716FF40B929462046FFF7BF
S214008F50E1FE18B92046BDE838405BE638BD2DE98D
S214008F60F74304460D4691461E4668461346184982
S214008F702A22FDF705F8DDE900782FB918F0010F71
S214008F8002D1DEB932461AE004F150064B460622FC
S214008F9029463046FFF7EEFEB8B918F0010F4FEA43
S214008FA0680318BFE35804EB680018BFDF59B847DA
S214008FB058B9304603B0BDE8F0432BE60D222946EB
S214008FC0204603B0BDE8F043B0E703B0BDE8F08349
S214008FD0DCA0010070B50446002694F8D25894F838
S214008FE0D338AB4201D1002033E005F58D7504EB94
S214008FF0C5021379590616D404EBC5052B796FF311
S21400900086132B7194F8D2380133DBB20F2B84F819
S214009010D238E2D194F8D33884F8D2680E2B20D810
S21400902084F8D338D9E7C3F30100C3F38301537937
S21400903041EA0011926803F0030361F07F01022BFE
S214009040C9B2C2F3170205D12046FFF76FFF00280A
S214009050D2D070BDB3FA83F320465B09FFF77FFFDB
S214009060F5E70F3BDBB2D9E72DE9F047D0E92E3222
S214009070134304461ED000254FF00109334FDFF896
S214009080D0A0C5F12001D4E92E30A5F12002EB4096
S21400909000FA01F10B4320FA02F2134313F0010F1A
S2140090A0C5F12008A5F1200609D101351F2D07F1CD
S2140090B00C07E6D1012384F86839BDE8F0873A68E2
S2140090C0002A39D17B68772B14D1DAF8C435D90752
S2140090D00ED4580628D413F0180F27D1990727D492
S2140090E09A0627D440F2847213420CBF0722062247
S2140090F002F170031A4680212046FFF717FF00286A
S214009100D8D1D4E92E3209FA06F629FA08F846EA42
S214009110080609FA05F123EA010322EA0602C4E971
S2140091202E321343C1D1C5E70222E1E70822DFE76A
S2140091300122DDE70322DBE794F86839002BE0D054
S214009140012380212046FFF70AFFD8E7BC9B0100D9
S2140091500810002010B590F89830044633B1D0F8C7
S214009160CC30994204BF002380F898302046FFF7A1
S21400917031FFC0B994F8D01089B101230C222046E3
S214009180FFF7EDFE78B994F8C83084F8D000042BC9
S2140091901FBF636BC4F8CC30012384F89830204698
S2140091A0BDE8104060E710BD014BD3F8C0055BE793
S2140091B008100020D0F89C105030ABE510B500F138
S2140091C0500404212046FFF7A5FD20B92046BDE83F
S2140091D0104003219EE510BD032150309AE5002182
S2140091E0503097E510B500F1500405212046FFF7F2
S2140091F091FD70BB0C212046FFF78CFD48BB182163
S2140092002046FFF787FD20BB22212046FFF782FD80
S214009210F8B940F201212046FFF77CFDC8B940218D
S2140092202046FFF777FDA0B941212046FFF772FDE3
S21400923078B942212046FFF76DFD50B943212046FC
S214009240FFF768FD28B92046BDE8104040F2062129
S21400925060E510BD0B2150305CE50421503059E527
S2140092602DE9F843064617460C4600F15005D9B1DD
S214009270AAB9B1F80480D1F8009028464146FFF715
S2140092804FFC10B10120BDE8F88342464946306DD8
S21400929005F0E6F80028F5D194F915100AE000214B
S2140092A02846FFF73DFCF5E72846FFF739FC00287F
S2140092B0E8D12146306DC9B205F040F90028E1D169
S2140092C08021306D05F03AF90028DBD1002C5BD008
S2140092D0E37D03F001019B074FEA011101D541F040
S2140092E020012846FFF71CFC0028CBD12846FFF7B4
S2140092F06BFC01460028C5D104B1A179306D05F09C
S2140093001DF901460028BDD104B1A17D306D05F0E0
S21400931015F90028B6D1002C38D0D4E90223284607
S214009320FFF7C1FC0028ADD12846FFF711FA002848
S214009330A8D12846FFF748FC0028A3D1394628467E
S214009340FFF7E8FC00289DD12846FFF701FA002821
S21400935098D12846FFF738FC0146002892D104B180
S214009360217D306D05F0EAF800288BD18CB121699B
S2140093702846FFF7EFFB002884D12846FFF7E8F9D8
S214009380003818BF01207EE72146AAE70022002306
S214009390C5E72146ECE7F8B50C4B0C46D3F8C0758C
S2140093A0154607F150067123062280213046FFF746
S2140093B0E1FC48B92A4621463846FFF751FF18B95E
S2140093C03046BDE8F84025E4F8BD00BF0810002090
S2140093D02DE9F74F1F46334B0D46D3F8C0451646CA
S2140093E094F8531900293CD041F0800B82B31068E2
S2140093F005F082FBC0F3001A002395F81C9004F1D8
S214009400500806225946404684F8533909F00109A7
S214009410FFF7B0FC28BB3846FCF7EFFC0146404699
S214009420FFF778FCE8B95146206D05F017F8C0B98B
S2140094304946206D05F012F898B95FB1286805F026
S21400944066FB88B9404603B0BDE8F04FFFF7E2BBC5
S2140094509246D1E73A4631462046FFF701FF0028FC
S214009460ECD003B0BDE8F08FB9F1000FEAD0284683
S2140094700DF10301FEF7C5FE0028F2D1284601A92A
S214009480FEF796FE0028ECD19DF80310206D05F03F
S21400949055F80028E5D140460199FFF75BFB002808
S2140094A0D0D0DEE70810002050F8503B198F41F06E
S2140094B034012FE438B5044608460D460EF088FB06
S2140094C04FF6FF73984228BF1846294682B2206896
S2140094D004F0C6FF014620B92068BDE83840FFF713
S2140094E00FBB38BD01495030E4E700BFD4A20100ED
S2140094F0002330B5174A146824BB5468A14221D112
S214009500C3F12004D0E90225A3F1200105FA04F4F2
S214009510DA40224325FA01F10A4312F0010FC3F1A3
S2140095202004A3F120020CD1012121FA04F401FA4F
S21400953002F222439940D0E900430C431343C0E9AA
S214009540004330BD0133DBB21F2B02F10C02D2D137
S214009550F7E700BFBC9B01002DE9F8430C4614F06A
S2140095600F0E1946164604F00F0306D1022A02D142
S214009570B830FFF7BDFF00200CE090F8D35890F805
S214009580D2C8A5EB0C020E2A06DDB8300E21FFF776
S214009590AFFF0320BDE8F883C4F30112841894F8E3
S2140095A0D148904674453BD12C460E2C3CD804F549
S2140095B08D7442F0400200EBC40442EA830242EAA1
S2140095C00622A38822F08002920523F45F7323F01C
S2140095D00303920D1A43A368013561F31703A280B3
S2140095E0A36080F8D358C6E70F3CE4B20E2CFBD835
S2140095F004F58D7400EBC404277917F0400F0BD0E8
S21400960007F00309C84507D1C7F38309F14503D11D
S2140096106FF386172771C7E70CF1010C5FFA8CFC15
S2140096206545C1D96446E1E70F3CE4B2BDE71346A1
S214009630022291E72DE9F04F00F58D53B1B00A33C1
S214009640019300F58053D3F8A461019B0446F61AF3
S214009650B6B20B46002940F0FC84012280F850295F
S214009660019A00F18005C0F880200422A0F8861038
S21400967080F88A1080F898108DF81810A0F884608A
S214009680A0F88860A0F88C6080F8C82006A9284654
S214009690FCF7EBFAA0B99DF918309DF818A0002B3E
S2140096A00EDAD4F85C390133C4F85C39CAF3011316
S2140096B084F852399BB1062251462046FFF736FC05
S2140096C0002384F85039019B04F58054C4F8A43173
S2140096D04FF40073A4F8A83131B0BDE8F08FD4F889
S2140096E00090B9F1000FE6D0284607A9FCF740FB2A
S2140096F0002840F09683DDF81C80B8F1010F08D0F2
S21400970040F20081A8F10203032B40F2F380052209
S2140097102DE102238DF82430B4F88630B34205D00C
S214009720284609A9FCF7A1FA00B1FEE79DF8243007
S214009730022B40F08780B84E10A8FEF703FB0025EA
S2140097401222002106F2CA500DF0B9FF4FF6FE7342
S2140097502822294606F56770A6F8C83586F82051EF
S2140097600DF0ADFF2822294606F5B3600DF0A7FFE1
S21400977001200FF0A3F940B104F0DCFD00B1FEE7D4
S21400978001200FF09BF900B9FEE700254FF6FF70A9
S21400979004F048FD0AA90CA8CDE90A55FEF7CCFD51
S2140097A00CA804F029FD2A464FF6FE71D6F82804C8
S2140097B00EF0E9FC054600B1FEE710A8FEF7C2FA77
S2140097C010AB1A461946284604F0DEFCEFF3118368
S2140097D0302282F31188C6F8C85383F31188BFF38A
S2140097E06F8F284604F0C0FC4FF6FF760B2309F176
S2140097F0380089F82830C9E90C55C9F82C50A9F862
S2140098002A60FEF789FE94F85239234483F84E59AD
S21400981083F8535983F8546983F85559206DC4F872
S2140098205859C4F85C59C4F86059C4F86459FEF72E
S2140098304DFF702280212046FFF778FB002800F0BD
S214009840C180FEE7032B53D101238DF8403000235F
S21400985010A8CDE9113304F0B6FD129B9F0244D543
S2140098606E494B680BB1FCF7CFFE01226C4B5A6079
S2140098708B6A9E06FCD4022301208B604B62694BE8
S2140098805860FCF7C1FE654BC8609A6AD506FCD4E2
S21400989002221A639A6AD406FCD40323604A122072
S2140098A05361A2F58052936104F084F84AF6E850BA
S2140098B05D4B5E4CDA6ED96E22F0030218665C4889
S2140098C042F0020241F00301C0F82044DA66D9668D
