:020000040800F2
:1000000000100020C50200086512000865120008F3
:1000100065120008651200086512000865120008E4
:1000200065120008651200086512000865120008D4
:1000300065120008A0750108651200086512000825
:1000400065120008651200086512000865120008B4
:1000500065120008651200086512000865120008A4
:100060006512000865120008651200086512000894
:100070006512000865120008651200086512000884
:100080006512000865120008651200086512000874
:100090006512000865120008651200086512000864
:1000A0006512000865120008651200086512000854
:1000B0006512000865120008651200086512000844
:1000C0006512000865120008651200086512000834
:1000D0006512000865120008651200086512000824
:1000E0006512000865120008651200086512000814
:1000F0006512000865120008651200086512000804
:1001000065120008651200086512000865120008F3
:1001100065120008651200086512000865120008E3
:1001200065120008651200086512000865120008D3
:1001300065120008651200086512000865120008C3
:1001400065120008651200086512000865120008B3
:1001500065120008651200086512000865120008A3
:100160006512000865120008651200086512000893
:100170006512000865120008651200080348044B68
:10018000834202D0034B03B1184770472019002067
:100190002019002000000000064B0749C91A8910E9
:1001A00048BF0131491003D0044B0BB10148184737
:1001B000704700BF20190020201900200000000017
:1001C00010B5064C237843B9FFF7D8FF044B13B1A1
:1001D0000448AFF300800123237010BD841A00206F
:1001E000000000001476010808B5054B1BB1054955
:1001F0000548AFF30080BDE80840FFF7CDBF00BF62
:10020000000000002019002014760108A3F5803AB0
:10021000704700BF174B002B08BF134B9D46FFF7DD
:10022000F5FF00218B460F461348144A121A01F0BD
:10023000C6F90E4B002B00D098470D4B002B00D079
:1002400098470020002104000D000D48002802D02E
:100250000C48AFF3008000F0D7FB2000290000F02D
:1002600089FA00F001FB00BF000008000000000058
:10027000000000000010002020190020881A002033
:1002800000000000000000000346054A0549106810
:1002900003448B428CBF4FF0FF301360704700BFA8
:1002A00000100020000004200348044A0449121AE8
:1002B000921000F0D8BF00BF487F0108487F0108B6
:1002C000881A002008B500F02FF8FFF7EDFF124B59
:1002D00012498B4212D30020114B12498B4218D382
:1002E000FFF798FF186850F82240586840F82240FD
:1002F000013298688242F5D30C33EAE70022F8E72E
:100300001C6844F8220001325C68A242F8D308332A
:10031000E4E70022F8E700BF1C7601082876010810
:1003200028760108287601084FF480414FF0FF300D
:10033000114B124A10B59A60D3F8882042F470022B
:10034000C3F888200E4A91660E4901F500521066E6
:100350000D4850660220C3F8D000BFF34F8FBFF3A3
:100360006F8F01244FF440330848C0F88041D360B8
:1003700004600B6110BD00BF00ED00E0000000084C
:1003800000900050008000447FFF7F0300E100E008
:1003900008B5B0B14FF480620B4B9A6600F088FF4D
:1003A0004FF098435A6CD202FCD54FF48062586DDE
:1003B000064B10F470209A6604D0BDE8084000F0A7
:1003C00098BF212008BD00BF0090005000A0005041
:1003D00010B5044668B161B10023074A8360C0E9E3
:1003E0000023C36100F05BFF2046BDE81040FFF72B
:1003F000CFBF212010BD00BF0000024310B504464E
:1004000068B161B10023074A8360C0E90023C3617A
:1004100000F045FF2046BDE81040FFF7B9BF21209E
:1004200010BD00BF0000034370B50E4615460446DC
:1004300086B0D0B1C9B1C2B100230D4A8360C0E912
:100440000023C36101AB039301230493094B03A968
:10045000059300F01AFF2046FFF79AFF18B9019B99
:100460003360029B2B6006B070BD2120FBE700BF0C
:1004700000000443080000201FB5044698B191B164
:1004800000230A4A8360C0E90023C361012301916C
:100490000293074B01A9039300F0F7FE2046FFF7F4
:1004A00077FF04B010BD2120FBE700BF0000084328
:1004B0000400002010B5044600F0E0FE024B1C6072
:1004C00000F0E0FE002010BD3819002010B500F04B
:1004D000D5FE034B1C6800F0D5FE204610BD00BFC2
:1004E0003819002013B5002301241A46194618466E
:1004F000009400F0CBF8002300941A4619461846E1
:1005000000F0F6F80248FFF7D5FF002002B010BD5A
:100510000410002008B5124BA8220021184601F053
:100520004EF803220346026142610E480E4A98616A
:100530004FF48061DA61002219629A625A62DA62CB
:1005400018660A485866996609491A67DA665A674A
:1005500011F8010D98540132102AF9D108BD00BFDD
:10056000781800208D74010878140020781000207D
:10057000A67401082DE9F84FDFF88080824698F8CC
:1005800000308946532B164601D0FFF7C3FF1827CA
:1005900007FB0A873D6FD7F86CB05D452BD9BC6E61
:1005A000796E641BB44228BF34464846294422462B
:1005B00001F010F8BB6E2544AB4208BF0025A144F2
:1005C000361BABEB050B5E4528BF5E4656B11823C4
:1005D00003FB0A83596E32462944484600F0FAFF6D
:1005E0003444354424B1182303FB0A88C8F87050FA
:1005F0002046BDE8F88F0024E3E700BF781800200C
:10060000F8B5182700FB0775124B0E461D4407FB73
:100610000033DB6A1446012B0AD0022B14D023B915
:10062000284600F0FEFE844208D900242046F8BD8A
:10063000284600F0F6FE844228BF04462246314692
:10064000284600F0F7FEF1E72846BDE8F84000F044
:100650000CBF00BF78180020F8B50B4B04461B7880
:100660000D46532B164601D0FFF754FFEFF31187C9
:100670004FF0200181F31188324629462046FFF7CA
:10068000BFFF87F31188F8BD781800202DE9F041ED
:10069000164C1E4623780546532B8846174601D034
:1006A000FFF738FF022D1DD8EFF3118C4FF020011A
:1006B00081F3118865B1182005FB000344F803801D
:1006C000E2180023576000FB0542166293625362F2
:1006D000182303FB0544069BE3628CF3118800207A
:1006E000BDE8F0814FF0FF30FAE700BF7818002036
:1006F0002DE9F843154E1F4633780546532B89469E
:10070000904601D0FFF706FF022D1BD8EFF31182B0
:100710004FF0200181F3118855B11824002304FB08
:100720000564C4F86090C4F86480A7662367E36634
:10073000182303FB0566089B736782F3118800206A
:10074000BDE8F8834FF0FF30FAE700BF78180020CB
:100750004FF4005382B00193019B5A1E0192002B6B
:10076000FAD1034A136923F00403136130BFF9E798
:1007700000ED00E0F0B58DB00021202204A800F0CB
:100780001EFF4FF0FF344FF480322C4B01945A6619
:100790004FF480629A66FFF7A5FE00F0A6FD04A85C
:1007A00000F0D5FD03AA02A904A8CDE90244FFF791
:1007B0003BFEDDE90212224800F00CF9214D01A9AF
:1007C00004A8FFF759FE01991F4800F003F9EC68EF
:1007D0001E48214600F0FEF8019B24F07F4423F0E0
:1007E0007F43A34204D31A4800F006F9FFF7B0FF95
:1007F000184F194E3B681B68B34201D11748F3E705
:1008000004A800F0A4FD294604A8FFF7E1FD044672
:100810000146134800F0DEF84CB93B6829461E60DB
:1008200004A8FFF7EBFD01460E4800F0D3F804A83A
:1008300000F097FD00F05BFDD8E700BF009000508E
:10084000A7740108A01A0008E6740108FE740108E4
:100850001E75010810100020EFBEADDE48750108BE
:100860006C7501088475010808B5064B044613B180
:100870000021AFF30080044B1B6803B1984720466A
:1008800000F09FFD00000000741A0020002310B546
:1008900004468360818119464366C28108228361D0
:1008A000C0E90033C0E904335C3000F088FE0D4B32
:1008B000246263620C4BA3620C4BE3620C4B236318
:1008C0000C4B9C4206D003F16802944202D0D03314
:1008D0009C4205D104F15800BDE8104000F077BEFD
:1008E00010BD00BF7B1800089D180008D51800082F
:1008F000F91800083C190020024A0349034800F097
:10090000EBBD00BF141000202B180008241000209D
:1009100041680C4B994210B5044601D000F085FFA8
:10092000A168094B994202D0204600F07EFFE168A1
:10093000064B994204D02046BDE8104000F075BF38
:1009400010BD00BF3C190020A41900200C1A002083
:1009500010B50B4B04210B4C0B4A20461A600022A9
:10096000FFF794FF04F1680001220921FFF78EFFD1
:1009700004F1D00002221221BDE81040FFF786BF2B
:10098000741A00203C190020F9080008014800F002
:100990001FBE00BF861A0020014800F01ABE00BF2B
:1009A000861A002010B50446FFF7F0FF236A1BB13A
:1009B000BDE81040FFF7F0BF044B2362044B1B68F7
:1009C000002BF5D1FFF7C4FFF2E700BF11090008C3
:1009D000741A00200FB407B5064904AB086853F831
:1009E000042B8168019300F033F803B05DF804EB49
:1009F00004B0704720100020024B0146186800F038
:100A000089BD00BF2010002070B50D4D00260D4C93
:100A1000641BA410A64209D10B4D00260B4C01F01B
:100A20001FF8641BA410A64205D170BD55F8043B05
:100A300001369847EEE755F8043B01369847F2E750
:100A40007010002070100020701000207410002022
:100A50002DE9F04F0D469DB014469846064618B154
:100A6000036A0BB9FFF79EFF6B6ED90705D4AB89FC
:100A70009A0502D4A86D00F0ABFDAB891B0701D528
:100A80002B699BB92946304600F0D4FA70B16B6EE1
:100A9000DC0704D54FF0FF301DB0BDE8F08FAB8907
:100AA0009805F7D4A86D00F094FDF3E70023CDF886
:100AB0000C804FF00109DFF8B481099320238DF8F1
:100AC000293030238DF82A3023469A4613F8012B1B
:100AD0000AB1252AF9D1BAEB040B0BD05B462246AA
:100AE0002946304600F09AFD013000F0A780099AAF
:100AF0005A4409929AF80030002B00F09F8000239E
:100B00004FF0FF320AF1010A049307938DF8533036
:100B10001A93CDE9052354460522544814F8011BC5
:100B200000F08DFF049AD8B9D10644BF20238DF878
:100B30005330130744BF2B238DF853309AF80030FD
:100B40002A2B15D0079A544600204FF00A0C214654
:100B500011F8013B303B092B4BD9B0B1079214E09F
:100B6000A0EB0803A24609FA03F313430493D2E768
:100B7000039B191D1B68002B0391BBBF5B4242F016
:100B8000020207930793B8BF049223782E2B0AD151
:100B900063782A2B32D1039B02341A1D1B6843EA67
:100BA000E37303920593DFF8D4A003222178504623
:100BB00000F045FF38B1A0EB0A004022049B01344D
:100BC00082401343049314F8011B062228488DF831
:100BD000281000F034FF00283FD0264B1BBB039B9E
:100BE000073323F0070308330393099B3B4409931E
:100BF0006AE70CFB02320C460120A8E7002301340F
:100C00004FF00A0C19460593204610F8012B303A94
:100C1000092A03D9002BC6D00591C4E70CFB01219A
:100C200004460123F0E703AB2A4604A930460093AB
:100C3000114BAFF300800746781CD6D16B6ED907F5
:100C400005D4AB899A0502D4A86D00F0C2FCAB892B
:100C50005B063FF51FAF09981EE703AB2A4604A9C0
:100C600030460093044B00F0ADF8E4E7E07501086E
:100C7000EA750108000000001D160008E67501086D
:100C800070B50F4E0C460546316811B900F07EFA7A
:100C900030602146284600F079FA431C03D14FF01A
:100CA000FF34204670BDC41C24F00304A042F8D0D9
:100CB000211A284600F06AFA0130F2D1EFE700BFAE
:100CC000781A00202DE9F843CD1C064625F00305CF
:100CD00008350C2D38BF0C25002D01DBA94204D9A5
:100CE0000C2333600020BDE8F883DFF8D48000F0E7
:100CF00095F9D8F800301C4644BB29463046FFF72A
:100D0000BFFF431C044658D1D8F800402746002FA7
:100D100043D1002C4BD023683946304604EB0309FD
:100D200000F034FA814542D1216830466D1A2946D7
:100D3000FFF7A6FF01303AD023682B442360D8F890
:100D400000305A6862BBC8F800700FE02268521B7E
:100D500020D40B2A17D96119A342256018BF596006
:100D6000636808BFC8F8001062514B60304600F05D
:100D70005BF904F10B00231D20F00700C21A1CBF11
:100D80001B1AA350AFE76268A3420CBFC8F800204B
:100D90005A60EBE723466468AEE73C467F68B6E7F7
:100DA0001A465B68A342FBD100235360DEE70C23A5
:100DB0003046336000F038F994E70560D6E700BFAD
:100DC0007C1A00202DE9FF470F7E914680460C4695
:100DD000782F9A460C9E01F1430207D8622F0AD859
:100DE000002F00F0DD80582F00F0C38004F1420690
:100DF00084F842703AE0A7F16303152BF6D801A1FD
:100E000051F823F05D0E0008710E0008ED0D00088A
:100E1000ED0D0008ED0D0008ED0D0008710E000845
:100E2000ED0D0008ED0D0008ED0D0008ED0D0008BA
:100E3000870F0008FF0E00083F0F0008ED0D0008A7
:100E4000ED0D0008A90F0008ED0D0008FF0E0008C9
:100E5000ED0D0008ED0D0008470F000833681A1D5E
:100E60001B68326004F1420684F842300123A8E096
:100E700031682368081D30601E0601D50D6803E047
:100E80005D06FBD5B1F90050002D616878DA2D20A0
:100E90000029A16084F843002DDA6D425D480A23E1
:100EA0001646B5FBF3F103FB1157C75D06F8017D4C
:100EB0002F460D46BB42F4D9082B0BD12368DF0720
:100EC00008D5236961689942DEBF302306F8013CEA
:100ED00006F1FF36921B22614B4603AA214640468B
:100EE000CDF800A000F0ACFB01306FD14FF0FF3027
:100EF00004B0BDE8F08723F004032360CDE7216848
:100F00003368080653F8045B02D4490648BFADB203
:100F10006F2F33603F4814BF0A230823002184F851
:100F200043106668002EA660BADB216821F0040138
:100F30002160002DB4D1002EB2D11646BCE7236843
:100F400043F02003236078273348236884F84570F2
:100F50001F06316851F8045B02D45F0648BFADB28A
:100F60003160D90744BF43F0200323601DB1102333
:100F7000D4E72848E9E7236823F020032360F6E755
:100F800024480A23CDE733682568181D616930605D
:100F90002E061B6801D5196002E06806FBD5198092
:100FA00000231646236197E7336800211A1D32603B
:100FB0001E686268304600F042FD08B1801B606028
:100FC00063682361002384F8433085E72369324650
:100FD00049464046D047013088D023689B0714D447
:100FE000E068039B9842B8BF184681E70123324668
:100FF00049464046D04701303FF478AF0135E368B9
:1010000003995B1AAB42F1DCEAE7002504F119060B
:10101000F5E700BFF175010802760108014800F00C
:10102000D7BA00BF851A0020014800F0D2BA00BF2D
:10103000851A002038B5294B05460C46186818B1AA
:10104000036A0BB9FFF7AEFCB4F90C30190722D4D0
:10105000DA0607D409222A6043F040034FF0FF303C
:10106000A38133E0580712D5616B41B104F1440309
:10107000994202D0284600F0ABF800236363A389AD
:1010800023F02403A3810023636023692360A389E1
:1010900043F00803A38123694BB9A38903F42073A8
:1010A000B3F5007F03D02146284600F08CFCB4F94C
:1010B0000C3013F001020AD00022A2606269524291
:1010C000A261226942B913F08000C5D138BD9907E9
:1010D00058BF6269A260F4E70020F7E72010002003
:1010E00038B50023054D044608462B6000F067F92B
:1010F000431C02D12B6803B1236038BD801A002045
:1011000038B50023064D0446084611462B6000F012
:1011100059F9431C02D12B6803B1236038BD00BFCD
:10112000801A002038B50023054D044608462B6080
:1011300000F04DF9431C02D12B6803B1236038BD88
:10114000801A002038B50446064D08461146002294
:101150002A601A4600F03DF9431C02D12B6803B106
:10116000236038BD801A002038B50446064D084675
:10117000114600222A601A4600F02DF9431C02D1C4
:101180002B6803B1236038BD801A002038B50023D6
:10119000054D044608462B60FFF776F8431C02D144
:1011A0002B6803B1236038BD801A002038B504468F
:1011B000064D0846114600222A601A4600F019F929
:1011C000431C02D12B6803B1236038BD801A002074
:1011D00038B50546002941D051F8043C0C1F002BBE
:1011E000B8BFE418FFF71AFF1D4A136833B96360EC
:1011F00014602846BDE83840FFF716BFA34208D95F
:10120000206821188B4201BF19685B6809182160AA
:10121000EDE71A465B680BB1A342FAD91168501882
:10122000A0420BD120680144501811608342E0D1E4
:1012300018685B68084453601060DAE702D90C2331
:101240002B60D6E7206821188B4202BF19685B68C3
:101250000918636008BF21605460CAE738BD00BF49
:101260007C1A0020FEE710B53AB1002350F8234065
:1012700041F8234001339A42F8D110BDEFF31080BA
:1012800072B6704700B962B67047836813B981605F
:1012900070475B685A68012AFBD159607047C3697F
:1012A000032B9FBF00EB83020133D160C361704702
:1012B000C369042B14D84FF09842116CC902FCD5B5
:1012C00004339B0013650168103B11604168116095
:1012D00050F8081F11604FF098420344984200D123
:1012E000704750F8041F1160F8E700207047002095
:1012F0007047B0F5802F22D010D8B0F5003F20D035
:1013000007D818B3B0F5803F08BF482018BF0120A8
:101310007047B0F5403F08BF2C20F7E7B0F5302FFD
:1013200011D007D8B0F5E02F0FD0B0F5202F08BFAF
:101330001020EBE7B0F57F0F08BF0620E6E74B2053
:1013400070472A207047112070472120704708B548
:1013500028B12022002100F032F9002008BD212010
:10136000FCE708B1FFF7F3BF2120704770B50C46CA
:10137000154610B9FFF7AAF838B143682BB12A46D1
:101380002146BDE8704000681847232070BDF7B5BE
:101390000D4616461C4648B103B901AC87685FB1DB
:1013A0002346324629460068B84706E0FFF78EF824
:1013B00004B901AC0028F1D1232003B0F0BD002016
:1013C0007047FEE74FF4005300204B607047012048
:1013D00070470020704707B5002001AB0190FFF770
:1013E000D6FF0198002808BF4FF0FF3003B05DF82A
:1013F00004FB10B514460020FFF7B8FF204610BDCF
:1014000010B500201C4600F059F8002820600CBFE1
:101410001B20002010BD08B50020FFF71DF900209B
:1014200008BD0369C26893429CBF81685B18013B99
:10143000981A70472DE9F041D0E902840546A8EBDF
:1014400004064068964220440F46144404D900F034
:10145000C1F8EC60BDE8F0813246A4EB080400F06E
:10146000B9F822466868B919F1E72DE9F84306464C
:10147000894617464FF00008C5683369B4689D4235
:1014800028BF1B19641BBC4228BF3C46013B5B1BA9
:101490009C4228BF1C46706849462844224600F0FA
:1014A00099F8B3682544AB4208BF00253F1BA04410
:1014B000A144F560E1D14046BDE8F88310B50B4684
:1014C000EFF311844FF0200181F311881946FFF7E3
:1014D00051F884F3118810BD2DE9F843074688467A
:1014E00014460026D4E90195B9F1010905D524680F
:1014F000002CF7D13046BDE8F883AB89012B07D922
:10150000B5F90E30013303D029463846C0470643AB
:101510006835E9E7036A70B505460E4684680BB97D
:10152000FFF740FA636EDB0705D4A389980502D460
:10153000A06D00F04DF8A389190702D52369002B8F
:1015400035D121462846FFF775FD80B34FF0FF35B2
:10155000636EDA0705D4A3899B0502D4A06D00F061
:1015600038F8284670BD002B15DB23685A1C226012
:101570001970A36816F8011F013BA3600029F2D17E
:10158000002B16DA22460A21284600F0B9F901306C
:10159000DCD00A25DCE7A2699A4201DC0A29E4D101
:1015A0002246284600F0ACF90130E2D1CEE7013EF8
:1015B000DFE723685A1C22600A221A70E9E7024416
:1015C0000346934200D1704703F8011BF9E77047C7
:1015D000704770470A44431E914200D1704710B5CE
:1015E00011F8014B914203F8014FF9D110BD9368F6
:1015F000013B002B936010B408DA9469A34201DB2D
:101600000A2903D15DF8044B00F07AB91368581C1D
:101610001060084619705DF8044B7047F8B506462F
:101620000F461446D518AC4201D1002007E03A46D7
:1016300014F8011B3046FFF7DAFF431CF3D1F8BD65
:101640002DE9F047164698468A6807460B690C460E
:10165000DDF820909342B8BF1346336091F84320E1
:101660000AB1013333602368990642BF33680233FD
:101670003360256815F0060506D104F1190AE36800
:1016800032689B1AAB422BDC94F843302268003B53
:1016900018BF0123920630D404F143024146384674
:1016A000C847013023D023681A3454F80A2C03F0B9
:1016B0000603042B0ABF54F80E5C002533684FF074
:1016C000000608BFED1A54F8123C08BF25EAE5757C
:1016D0009342C4BF9B1AED18B5421AD1002008E00E
:1016E0000123524641463846C847013003D14FF0E6
:1016F000FF30BDE8F0870135C1E7E1185A1C302002
:101700000233224481F8430094F8451082F84310D4
:10171000C2E70123224641463846C8470130E6D099
:101720000136D9E7B1F90C202DE9F041170705463C
:101730000C4656D44B68002B02DC0B6C002B3DDDB5
:10174000E66A002E3AD0002312F480522F68216AF4
:101750002B6025D0626DA389580705D56368D21A1E
:10176000636B0BB1236CD21A216A0023E66A284608
:10177000B047411C24D00023636023692360A38900
:10178000DA0400D56065616B2F60B9B104F14403E0
:10179000994202D02846FFF71BFD002363630DE04A
:1017A00001232846B047461C0246D4D12B68002BA3
:1017B000D1D01D2B01D0162B2AD12F6000202EE076
:1017C0002A68B4F90C3042B11D2A01D0162A21D161
:1017D0000023636023692360D5E762602269226089
:1017E000CEE70F69002FE9D093070E680F600CBF9A
:1017F0004B690023A6EB07088B60B8F1000FDDDD15
:1018000043463A46216A2846A66AB047002808DCC3
:10181000B4F90C3043F040034FF0FF30A381BDE832
:10182000F0810744A8EB0008E7E738B50B690546E7
:101830000C4613B90025284638BD18B1036A0BB908
:10184000FFF7B0F8B4F90C30002BF3D0626ED0077C
:1018500004D4990502D4A06DFFF7BAFE28462146AC
:10186000FFF760FF636E0546DA07E4D4A3899B05A2
:10187000E1D4A06DFFF7ADFEDDE710B50C46B1F980
:101880000E10FFF771FC0028ABBF636DA3891B1816
:1018900023F48053ACBF6365A38110BD2DE9F041F3
:1018A0001F468B8905460C46DB05164605D50223E7
:1018B0000022B1F90E10FFF745FCA3893246B4F9B6
:1018C0000E10284623F48053A3813B46BDE8F04127
:1018D000FFF76CBC10B50C46B1F90E10FFF732FCE7
:1018E000431CA38915BF606523F4805343F48053E0
:1018F000A38118BFA38110BDB1F90E10FFF7F0BB93
:10190000F8B50E461446054618B1036A0BB9FFF741
:1019100049F8A369A360A3891A0701D5236943B9CC
:1019200021462846FFF786FB18B14FF0FF373846AF
:10193000F8BD2368F6B222693746981A6369834274
:1019400005DC21462846FFF770FF0028EDD1A3688B
:10195000013BA36023685A1C22601E70431C62690D
:101960009A4204D0A389DB07E1D50A2EDFD12146B4
:101970002846FFF75AFF0028D9D0D6E770B50C46A5
:10198000B1F90E1096B0154600291E460CDAA3894F
:10199000002113F0800F14BF40234FF48063002018
:1019A00031602B6016B070BD6A46FFF7A9FB0028B6
:1019B000EDDB019901F47041A1F500535942594101
:1019C0004FF48063EBE78B89F7B59D0706460C461D
:1019D00007D504F14703236023610123636103B04A
:1019E000F0BD01AB6A46FFF7C9FF009F05463046D0
:1019F0003946FFF767F948B9B4F90C309A05EED4C7
:101A000023F0030343F00203A381E2E7A3892060EC
:101A100043F08003A381019BC4E904075BB1B4F9DF
:101A20000E103046FFF77EFB28B1A38923F0030395
:101A300043F00103A381A3891D43A581CFE7C9B268
:101A40000346024410B59342184601D1002003E03A
:101A5000047801338C42F6D110BD00000000000074
:101A6000F8B500BFF8BC08BC9E467047F8B500BF8B
:101A7000F8BC08BC9E467047000000000000000053
:101A80000000000000000000000000000000000056
:101A90000000000000000000000000000000000046
:101AA000EB17A65EE559010048590100070202073D
:101AB00001010000AED9DA29B5A5D4BA5B95D36D82
:101AC000F293E8D940A2D76C56A847732E7AE9E77B
:101AD000B91A9414041936080379863A76B4BD0C01
:101AE0005BB81CA96DD52178B19C5BFEA9746A789E
:101AF000CCCA0CB6C4A13A1022FBDC4C028A5C5D55
:101B0000FEBD54A5005D0B951958124C28C3F7353E
:101B10001408FEDBA992A08EE32DC501AFE3AE80D1
:101B20001BB97D81A333E2FE2C92EA6A277173CB45
:101B3000F704C679E1843D5446FC94FB71C62E90AF
:101B400037013B650FFD9AB6505F9DBBFFBFA0A15B
:101B50003712A79CA2A0B0BA00BE9A280EED449AF4
:101B6000834B2CE778C8464E4B9333CC9FE222BE82
:101B7000B28167BAD79E1C5693097E9A8A69D3654B
:101B8000DF07195039B1E21664E274E182ECD80C37
:101B90006D6E647CA2DC8A84A69FD61873C122FD78
:101BA0008CB690FF30A1F203FDC1B3AAB045DCD4DE
:101BB0006144A26A10B0232A25BEC339DCC2D9C64B
:101BC0001A36C853A6B6836ACE2948FB28AF2BB96C
:101BD000FD5628C5A4A08FB0DEDC4682BB0B64C7CF
:101BE000724769DC73A3CFA20512634BEA5B6510F1
:101BF0009E458F5B3AF82C943C905864D54C5A9B88
:101C00006BD6312C1BE779B54E05D8215E52EB1D02
:101C10000A16818CAF51D856F5780168FB55F93515
:101C2000308EE1D8B723737848D1B1C1CF1C0EDF15
:101C3000D9933347A6937D80DE20345DC34522BA15
:101C4000D024CD4C71D7FE4F311D9C3A718993271A
:101C5000231DC9E3930E0A8BB7A33690E039C9DE82
:101C6000479B5709CCD1F2E59301B70AC49A349F38
:101C7000DB860F44E76563B3C5EDD2D83CFAC77E77
:101C8000DDE12DF69201BCA237185BE98D5A7B4E3F
:101C9000AFB8E1DCE135050802AA60A307326D3771
:101CA00001DE2D90B089AF042E3469498A2143109A
:101CB000579301A12021359502882ED0CF501EAA1E
:101CC000FD97DF5A8F5CD75AC495BD28E360D47264
:101CD000D994E97A11F2E74F547AD669AD7B57C5AA
:101CE000F7EB647E20308A587B89167BE0FC75CA4E
:101CF0000089CD739E97E55FB67B6EC92790827889
:101D0000B819F7613EC3A6C73B80A2961C5CBECA49
:101D1000FEEC99D3765A18F5C978BFAA169EC76803
:101D20000830D0F5E292EFDF4AD93B61F03ABAF4DD
:101D3000CD7509E70FF464CED5090004A1449FBE18
:101D4000647437BA4EBF276389A4D9E2F95DF92CD0
:101D5000715ABB020AE42CA1DD99CDC655CE209361
:101D6000ED702C79C172534B995AD075AC89F1F151
:101D700054CCA006AAFD55D366D203204CFF89E6B9
:101D8000002D8B8618477ACFB91D8C185BC02E5852
:101D90006CE0F3FBD8746D472D69F8FC1F55DE9F8E
:101DA00073FCF13876CB2490687D91D5EFE833242D
:101DB00075CD6D3D6D0AD7D8205338022C1F1AF50A
:101DC000756AADC4ACDE9AFC3B295ED35854E12859
:101DD000A3B8729665C764EC9A765CD90EAFD7B992
:101DE0008C2802EA36FD71476B70FD61C7E7AE874C
:101DF000B98AADAACC37B74B36C70035BD78F0BE2F
:101E0000B13DF3F9481E3414A7492622473CF52971
:101E1000ED6BBD7A86A2D5982738ED989755793322
:101E2000DF76DC561A05AAE65CB58FA055AD83A314
:101E300002A9E4BFA6C41292318F3FD660F92A519D
:101E40003CDEF8325D77DAF66C37CD95EE373B182D
:101E50007EDA4043E87D9C1F4B97B24013FDB3AF41
:101E600001D1BE59BD6DDE4BA13E2A921A2F245BD3
:101E700068EC8728FCD09028799B648EFC02B436ED
:101E8000F08E5EAB4A35E0266A436A43624151A553
:101E90003917F66F60D09B764F883148EC06BAB799
:101EA000E1ECDCEBF6CA46D9B83D98E1247D3A5E18
:101EB000B8645EFA8FC64687F1A32B63945A51B279
:101EC0007DE9E975F83553770779243C6E157C1860
:101ED0005559000F7F256054F4D00F28D92FB484B2
:101EE0009B76433E69000540D41F6D371C1FA84CEC
:101EF00084A074D542A172059EAB5E9B074A523600
:101F0000F58B59A00C2C4B62662D3AD7779CE59047
:101F1000C699CA080A2DA9E3F6438B48373A8FE8D9
:101F20005F89CB8597896CD9B3874A3BFA5ADDCE56
:101F3000AC0C826AB2E971A4E48B87712B7F45F403
:101F4000E5FC2618EE6DB8327782D400059911AE03
:101F500052E5FCDB02CB991BDC0EA1C56FE39C8F25
:101F6000BBBA94EE65A6C5D14AE279C915E0E68709
:101F7000FAE251CBD3689C79E1047431483DE258D0
:101F8000495C9139A0DA8E9A2B3AB99B9DBA00B779
:101F900072CC983D537FAE52E64A939C1EDE5309A5
:101FA000EEC49F19BF9794AD18DC1734B0A907D0C1
:101FB00043837CFEC943AD1DAFDEB45178E64A9938
:101FC00029D591609045D0D1B35C792188B3097A45
:101FD000A7258029C551B9F0D11156E455E4FECFAB
:101FE000BD758FB127842E3E0F0393F848DC53BA9A
:101FF000F030F11E9F303BB38A14C43000872AAE04
:10200000A58167CCCFE0AFFCBEAE77A8EA061E3153
:10201000FAE327B2CD7CC59C85B04E2EF533A934AA
:10202000CEC78B600E39BFC7DC779B2E3AC93E12F4
:1020300093695798ACC0F37DF2E4D1ED4E55581337
:1020400041C6662B599A1550B54A48208FC1CE5DBE
:10205000B76A1985C8F63B438E50F4BBD430442A86
:10206000B1803668568CAF1866B1CC08C0E1FB7100
:10207000BE0576089212D1812D63A66F094FB4DE9A
:1020800082F42B00429A861AB8E00BD083AF7865B1
:10209000B7660750995D6FC6A600074AB4355992D6
:1020A000D8E49AAA0D42EB2F921EE9E07ADAB852F0
:1020B0000E8D823328C02949FD77FEA7903C6843E6
:1020C00054A6AB80ABFF1AA7AA8D96774313A660E0
:1020D000083609F6FF9A232952A45143D75AEE2D08
:1020E0001F1597E7D2FB0057FBB004250E698DCE74
:1020F0002AC317023F9E9CDBE2E82366B276B992C0
:10210000CDD0127A136933DCDFC6E9DF46DCB9C70C
:10211000198D95BAE83A3D2B4E3ED5E250510FF657
:10212000CA5A9B93B90615D6547FF299BD39A06A55
:102130003C119FB2E93E3531E9D0FB71B9800CD832
:102140002B2C11491236F574A51076E9560C324C39
:1021500045BBF0C85632C3AA2B9A9B86E018898EDD
:10216000F766DD28049A81789B434063ACD5290348
:1021700007B2F6E9F3EA8D68F7712AED815CD5B90B
:102180009C9913201900B3E77A41F40248A47A27F6
:1021900087048F14391DC3C9E79AC3B9E23FB13A26
:1021A000F32D42C4DEBA1F22D1800123C4DE63D1E5
:1021B000BB7B5764414741327AF5EE505E26A51B42
:1021C000D832CE1C5B76BD1D7346BC2EA167236E34
:1021D000B22E331F05D80AF5CFA36FEE84346519EC
:1021E0003B3E54BB8B3114A0C0D5F7CA11FA212E47
:1021F000DE49635949CEF6DAE3458AB4DF7D42E22F
:102200006B0E03DEA94D1D3C59F14541D05DC67BE7
:1022100023FF040431792D196675BAFDDFD648F520
:1022200073B6F427D0B1C8E0A26FF7B1A6D61FB538
:10223000DA1C3967B8BA26403AA9F6A81F86F46AAC
:1022400018314363C96CE52EFBD68F6EBECE338F3B
:1022500064A50F0AC21FA9E2B9094B09FBE657079B
:10226000F1B83B4D494E0354F36EE688BB29498BC8
:102270004B2C3113BD624984B338F6709CBAF8E236
:10228000BDDF1D15580D1C62138A4EB6A8B2193653
:102290007F707D6938E8462F86C6522E58107B4CD9
:1022A0000A01C1F028A9B37A99EE0675E65AA64745
:1022B00010947FD1C6A3A3EFA4E089075BB2976710
:1022C0004014ABD81CA5356B6966D2AE056EFE43D3
:1022D00000F9DA1C2216ED83061ED0F27401633A6F
:1022E000930672957D88635AF5877985118E3E2F06
:1022F000D6E8959A4A70081E06E2803EE763A6DC9F
:10230000D30380FD57D2D3BA81B08D2BF50DFB16C8
:102310003D79BDA5027909AC36F0D5AF465C7A0CA3
:10232000CC9CEF8425353945D3572AAB50EE032E8C
:102330008FA84F450C908B0B1DE18C1ACF10C32A30
:102340007C4CE56F8FB872BF4EF1958F09B6BD8199
:10235000A33C74BC4402175F6FA9E8A2FE8144D479
:102360001D4D3FD35BDCC4EC9EDB539D71A48540C7
:10237000EA25F8B0A40769AFACFD009FC9D9723453
:10238000F2C2934928A17B96141C0E29F102396AE6
:102390001FF1DB4D030C61CFE9C58AFBF758BD6621
:1023A000CA09F9D2E2209544048823E54957FBC7BE
:1023B00045F8B5A770E5A6A00451BB5138F93729F7
:1023C0008A43D70569F975C91E9D49627FF79366EF
:1023D0001D0C6681F81FBAC9A6BB0B5FB26B1CFA55
:1023E00031DE92BAF37937E2B35D601E83BA5D22C3
:1023F00088ABEB64C7F9EB4892D19975D3E8646771
:1024000085504F0DB218D3C4871C501FB9C683CC5A
:10241000C4FC3214460DA49D73F1982E00C91CAC67
:1024200047D6413ACA8DC480690FB9011125371FBB
:10243000EC0BFEE3BAF140E1375E7E3C031213077A
:102440002606312AA7652A700FB642C244129B3471
:10245000C8D5E2EDDC243BA9CD0C760293248FCCC9
:10246000D505181F8ED2B04F537BCA6937D6F2F507
:102470001944089D115A1D8E9A073B397B28BBB41D
:10248000185D7E54857566BAC131B9A9FAA726349C
:10249000F4B128946E216B773A089624AB524A1D0A
:1024A00093162D62E9E5961592FCD348335179BB1A
:1024B0006570918C8C7102C0680573E482B8B80DA8
:1024C00033CB693594D053CD26D4ADFEC839C7BFC0
:1024D0009B063DD1AFB2707BA95F2D6B719BDC7900
:1024E000E2675CAA7CA1677D8C65F28732431F6B33
:1024F000AAA665EC7D61B817FF4F822E462387039D
:102500002F01B70924CFD3C3797062FB54B9D4A18A
:1025100045FF3505E0B70396F4BD3F64410A019CD1
:102520003AF65178A175CC21EA348D914212049F7C
:10253000CB80E6A2453B56C2416E3FDA19C48B12EE
:10254000A08B5F955E1FFD7C0E78C1AA9256E3F1C9
:102550005F500BED44DDE617564ECB7F74BF3C72E7
:10256000EBEBF8426B019410F92F9A04E71BDA8722
:10257000BB80836AED663282D76F5777106B32E685
:10258000E6C5159B86900C3E3D696758E3A8F99017
:10259000D4820FC58AAF242E807CEDCC10F3CE06FA
:1025A0005CEEF16492BDB07A90100DB592AF99E0F7
:1025B000E01F200D32D909587C4A4DA5F5459709F1
:1025C00034F3F5E7F2B801929D96CDE58D6B6F532C
:1025D0008678607DF3DC8961FB60864960AD69AD1A
:1025E0006F02812A6A4E88CE2CB16E5BA133096FCF
:1025F00050F81C8BD48C073D6DC3317CC70F86B55A
:10260000BE4242A74E6E116BA0C643C8AB0F2FF956
:102610005462108D8C58BD2A75BC759431E40A67DC
:10262000CDF4A81145C5D4D675741B1DDBC935C4BE
:102630002B8749E4BD410BEE35A7BAEA7282061B2F
:102640008ADA2808D79AFAA04A76D0AEA9E0BD77F0
:1026500086A84A48204714778F87A5BE4F3DD8E00B
:10266000722D4EFE37520D28C02AAE21B3D59FE7FA
:10267000C09135B0595964449D13436281A3B3217D
:1026800008E2160ECA044703581328A45702FA3B5F
:102690009CF71D08BA09A41BDA0C5B73971865FF39
:1026A00035A8B4CB11347D5BA6BDE0A3E712703C26
:1026B0008C8C39E39C85A5D1C9B36BD06BCC34C36A
:1026C00032FB935257605B264006E5FAD0ADB93B2A
:1026D00064376E6CE0BC31A7D0E852D8B0CA590F4D
:1026E0007CC7CAE231360E8A4B2DE3FFEB3EB91BA5
:1026F0008FE5C3CE55B3316A056A40AD7554B2C695
:1027000040D5958BE71B20A3B44D727F2784B4EB93
:102710002DDA7E28362EE792AF290A85DA4AB76F7E
:10272000A8E768FF2EA6A6629A47DECD9749C70C98
:102730002CF0F6E733069167713F58457102485116
:10274000B055B3134690CC45976DE1182F172C5D0B
:10275000AB507BB4060D638CD7828B5BC2349F7CFD
:10276000D71F78D256CE5B14AEDDE35DFF164A3933
:10277000DFA1A443C4016488DFE4A53131D141D88D
:1027800054776E7809530699CEEE7E892CA5B4371E
:10279000AAF10FC3A1D0ACEF4C1FE320AEB2ADB98C
:1027A000596870BCCA5B8FC8A611D48B296591A8E3
:1027B0000EFC59145A92AF121B238B3ACB71D4786A
:1027C000F704B919D6CD2024BF4B0DEB306D40ACCA
:1027D00072B4452E35C6903BFFA8ABF7C78C26BA1E
:1027E0007DB2AABD78665694C6CA9CB2B0FF4BD5DE
:1027F00079A756D7585172EF22B4157E4E485EB471
:102800007268CC96D40522250152719AC50CA2C0DB
:10281000BC4B04626ABEB39C84DB763251679390F2
:1028200042C0CF45BD4974345F3239D1FB841D8F1E
:102830002BE02024D4F1B8D73DA9D5408331F7DC73
:10284000C57893657EFDFF6B8398637633E06CA05B
:1028500050E663D25EFA07686348E491A864AA5B15
:10286000E2EF48D6D4A47E470D5DE5AFD3D83C81D6
:102870006A914ECB5AF693C219433B2EB23A8E69F7
:102880006BC04FEC88466F7D91926444BB46105DEF
:10289000D1C61ECA3EA51376C7D836BD2C52F989BB
:1028A000ED48A5124B81C15B5EC03D434D5FAE6AF2
:1028B000E8E0222D75025A16340D4B7E6FAF288248
:1028C000ACCD5B54225ED73B9A83D69D87E1D47B07
:1028D000F3625A2C9A134D677CE41828F55F0C2894
:1028E000EF06D6D37A7E5A3DEB157DBD7B19933723
:1028F00039A0F67890B3BCA1613C09BD8B0D6B1576
:10290000B1DB28061F11F808C79F2B4668F3ABBA46
:1029100008985AADE87EC89B72F819C56C7A091DF3
:10292000BEBB0B069C189384F9ADBAE0F0E15420CD
:10293000D7949786318C87F8B4C2571252C58A5300
:10294000DFD3F168044E79DE894BF26D7AC86E28C8
:10295000B7782215DC1F1D9279F3B16963A03C445E
:10296000B2FDF78C412183522608C5644CA55C70EA
:10297000DD586216C2B40ED1DF49CCD2F4A96B7C0B
:10298000AF380B998FF117838BA298A1F1088B3385
:1029900046E99A4F592800A5C8DD521B80C8900B04
:1029A000B5B16007AA25CDD1BE87F133874344A5D1
:1029B00031380E853F0362F47024FF11D9E6E3EC51
:1029C00068207827EE29BC783BA38F8F9A406DE46E
:1029D000BC1D3FFBB9D9AC6D6C52E49C4ED3894D04
:1029E0005AA37A94A175AE41B21CA300F07BCFBF6D
:1029F0003FBBA1A817A749EC3E363986776A5683B4
:102A0000D0B599C4BC9EFEFED33C71F792064BB282
:102A1000290D0057413856EEECF3C73EB8BD0F1FE5
:102A2000F711B016470B910BF86A810BC631E5FB25
:102A30003CB68F812DB7DB9559DA32112FD6480974
:102A4000B4D8781A8D667465D91770E76F63E13270
:102A50000755922600347F704736A3B7D5F8EFD1DB
:102A6000A6D20D32FFA13EEBD3628CDF19C5F891DF
:102A70001509F8D45B96CF919AEE662AA0338E435F
:102A8000C898EECCF0648B2BD1DE5F8584A145DB4A
:102A9000B653B39BF8C4F20B107914C0D7FCC0E650
:102AA0003C21535ADAD471B4254974FE92DAE54ECA
:102AB000ACDE20EB38B755CBC46C06B36A61A2C05C
:102AC00016A5B6C51EF3CEB94A64D4F2590DE23B41
:102AD00050B3ADA406C13DFB74A32F60A368B284BC
:102AE0007001343EF09F89C71F7ADCD990E092E2F2
:102AF000D5D99CD840E4F97000E1CD357E18EA1DA7
:102B000004FF4D27FEA7EC7A8BF8D15345A44A2742
:102B1000045745484A6A96E2EB860A1194EF01DCB5
:102B2000B4E7FCF6E9EDE028CB16B42F6B3E9BF53D
:102B30007759EED00AB3297285176ECAEF553CA1BA
:102B4000D4261A685ACB6F4E6531BE98B8A2F3915D
:102B5000B80BB9468DA0D17B7B842F7F16932CD0E8
:102B6000E32C7A2CCA91509AEC8C4F1C222BD288E1
:102B70001C68E03C68FD678EB01C2B981B9B2214E0
:102B80008176046B249450B30E4D1F271E191EAC82
:102B900090E7BE190D5E915C6AA52BAEDEBA70643B
:102BA000ACDDB6E972E072F313A8D995C79D416D0B
:102BB000C28085CE06487090B65514A7D57F833560
:102BC0002561830BCAA6A039BEB5052FD5ED320706
:102BD00094C223AF3173A723B5318C997F50A3BF23
:102BE000A60AEBFDA67515558E6483515B93773F5E
:102BF0008F2923B085D7821687D76A4EF65B632765
:102C0000E830595278D171ABD51589222C9D335BB0
:102C100039097419025E5834C73F808B048EDB1269
:102C2000FFE3E65939CD25777974C29DD7E8413461
:102C3000E9B99A828BFFEBC61F92FD1A083680080D
:102C4000BB2FE215EA6B3CE2DC9A69C39F0760E2A6
:102C500090AD5501802A0E6EE855A8B5D6ED04F169
:102C6000A202A547CAC850B77279549EE017977B55
:102C700089F87CBBA4CA85ED8CCE6259407D4A7828
:102C80008932E176245113C40EEC80F333B9233733
:102C90005AE7FF9BA091A698AD28FAFBC08B0C6B5E
:102CA000E261B08B7D0D1A14ACE0D2A5DB21216767
:102CB0001D3E7EDDB72CF172DAD15E38674CE77EBF
:102CC00033A06A54EDA0F7C60FB5F8BAB202F619F0
:102CD000258EB922BA2F3D646ED06332C84D6996F5
:102CE000781C0369F0A3F1AA5EF042174796F090B2
:102CF00009E429EB42D5922BC2AF5874B119C35CD9
:102D0000926FF9BC04277D967EE0613D94C83678C9
:102D1000F62B89D017379FBCAEF1F0E0533334B4B3
:102D2000868FDFFA2C20BD2FB46A46199CE23B68DF
:102D30000F72C01DABC07A5A90262F38F1AE7CC7F7
:102D40007141B9091C6F4B4B3527169B3209F008AE
:102D5000585DC1EA9A03176AB46C1FCD8D499D7AFC
:102D6000845BF41D824A05F8649C21567C6F26DA48
:102D70002C32EF49483EFE5F3FE3E9DD88CE3E2B33
:102D800065AD721F6D1DA722BEE4A8A2667981AD54
:102D9000D63059DCE73A4BC2902BEE97ABBBF8D15B
:102DA000C964BB9A1B676CE7152A0A3E4AF8D5B27C
:102DB000A8F3978D0535C464398D54E706A9394BBE
:102DC0002FC26C95E692D89BFB8007DE21B31CAA2C
:102DD000807972FE87484F68DDC0F4ABB279BE31AE
:102DE0001CCFE896AB55077EA437041E3CBA063CC0
:102DF000F39F9273F7535B184F1FECA87DF7E20E19
:102E000059E529C1CA0B3C382FC4727B4827483684
:102E10005962553BC04D26F2232979BB46837CA6D7
:102E2000CF4CCFF59D35AD2E2C78C0CE95539BADB4
:102E300016BE7015AA69E084485E61BF9ABA9D9A71
:102E40005CC86FAD581D3CA118AFFCB940860AE6BE
:102E50002E67F25D7E7160622C0B3C1AB947B6BDDD
:102E60002BF90D6538D77DC806942F326431352093
:102E70006A67CC945E4744A06BCC10856D3FDA97AF
:102E8000AA848FAF8528FB988E4E2FCA2F85C8281D
:102E90003E6F604E29BF08C192A76D06B40AE3F0E9
:102EA00074704E0C477F736CA1F3883FF12E75361A
:102EB000D6716EE5727227EFFCF3C1FB2B08F12B84
:102EC000EB23F4B5697102472DDC23CFCD367BEBC4
:102ED0003DF263C2B924F488C18486F3ED403BA976
:102EE000352546212C088CE422931F59A760B9820E
:102EF000A98C8018326430178E010D9E5DDDBB9069
:102F00008E1D6960E99C34DC92EFAD5F01CABB079E
:102F1000CC1942ED741430F70918B0D294DE563F44
:102F20003CB3F4A9BD9968BDA01A5F05C4E74FD6AC
:102F30008F50C2BDCF4B70011C2CDAB2B2E4912489
:102F4000B4EE34ABF031764E50A15F0437DAA526EB
:102F5000F6F6E12F6D7D954B9FF28EFF2E5B19E704
:102F600063E5E28131A5431FF6B5247F53351E8DFD
:102F7000C564742478ADBFF2B3E1DFFCFA192E6C9E
:102F8000EEF05B09D03504718EBB211ED574A0AD67
:102F9000009A7D296C7C20E79756269AB45135FF1C
:102FA000A950AC0EE22F1A31EC2216D136CC73B4F4
:102FB000DC8343362B4B7FD78268949B47EF4B864D
:102FC0003A80CFA8BE19C6CA66E0CC0320C29A33A5
:102FD0003557B0BE606B6E2047D84A6BF5EADB64AC
:102FE0009FF3241D88F62E331406024D51126D02F4
:102FF000963813C9CD5AAF86BCEBE4D38A7C11DD79
:103000006452004D32BE7C2015A03BD0C919C3418B
:10301000280CC158AC29241DEB2934AE87469024D6
:1030200085BBA1D3A42F8C3D3B4A57576586527E62
:10303000F84F4F6ADA47D80732AF425A2F4B1CE796
:10304000095CB83A266758C994E51CC3FEB3769864
:10305000987D61C1363A4F23A7884400C60FC4E368
:10306000067A9900559D47620F135DFE93FF6F66C8
:10307000D260967EAA4989510C876AE582DDFC8F71
:10308000B09A95C0B5F9362D1658C5DABA16082289
:103090001C3EED6544BA97A03D87B5F7CA031E53A1
:1030A000F1A2D70EFF1687B087041D23B8D36C2872
:1030B0006B96DCA647F5EF11C83DBE84BAC1259ECC
:1030C00026D08AF272F1D897FA2FF886F74FC25FAE
:1030D00086138FA3E251F43087709405191DA8213F
:1030E00072B456F13900DE013C03027DB9118B59EF
:1030F000EDDF0B565E824A7EC3E52D59123626FE61
:10310000306E31FA972D82D0A1CA6B986559777BC2
:10311000A6281C9AE48981172F1EEF84FE7E08DF03
:10312000E452C0DD6DF306A68CF861CF1F55962BD7
:10313000F1198D0173FD5E08F006DF658A3ADB2424
:10314000A06F08C692B968139A66198A3368194A3B
:1031500079F94C4DC8FC046FA3344373EE461D79D6
:10316000155EEED57D73452B4934BB041B127C29BB
:103170004D32450FCA974AC8643BDB6B6530116C12
:103180002458AB4B3B9998EF72AD99B94E33138DE0
:10319000226A141FB4E4FC1F1332258B9C86710035
:1031A0005789C607A7C417C29AE1C6AC56CA0DB65E
:1031B000C20943113BD70ED2B3118781C4E315F680
:1031C000960BED9FA1E326FFECB7907C0D8673BFB5
:1031D000B9A6CF0FD16EE7A7B5F35D956FBB9AE0A7
:1031E000DB007B2797C0954CAEC4B3916A0E2AAF23
:1031F000304F03B78687AF8F8370D5C3A9B8AC0EA5
:10320000A8E7619D5A741438936969D1C2A193BB30
:103210000154A310406916EBF7637E84A0B447DB2A
:10322000309F79DC10F16DB18BE975BC06CDD2030E
:10323000CE32771369FB92DAF46F678B963C9D531D
:103240002D3566F7622225960D8DBF095A6FD2A3E0
:10325000C8846742E5F4520DEA8A41010E0D2E86BC
:10326000640B18FDFAD3E80EE49B5545746105D94B
:1032700047BAC60819592A45F09D0F5F3D06252615
:10328000DA2C92062E94B79662A97851DC51B0B729
:10329000436F917754DEBF68555C823F86C81FA597
:1032A00006FA9F53AB99941FAA64629A36B85E904F
:1032B000B1A0ECD8CEE99E3F8B5D44F21D8A09A5F2
:1032C00083F63DE01C44BC41DD5EE17CADE330D6DD
:1032D0005019EE9E670D6B9A37484BDAE8A2D4BBC3
:1032E000A978A61E2E05C89CAC47F7838918322FF3
:1032F0002FCDC02618C201F387890C4709E45B1F54
:1033000021EC1572C7C6E06D3608EB9E3C124BAE41
:103310005DB190F512CEB7B0F91F5F4B45CDF756B2
:10332000A4C92C3D12BD102B815208DECC0283F7BC
:10333000C4ADB4DD74974B995B2C7AFF5339329747
:1033400016A29CEE21F65F337AE02D9D53F8E8F942
:1033500042B63EFFD550F783499ABC176B2EA78A19
:1033600063C7E68E713D82A5727D811DE9B4D908DF
:10337000D5393F000C3698C39902FE3FDE9830E9FC
:10338000A15B64005BEC71ACF64AA7C0FCE5D070B1
:10339000789DFBF7C6CAB17354E5F5CE031193C50A
:1033A0007FB4117FDCFBB51A77F4097CF2C24B487D
:1033B0005CEB09D0EFFC1C773778A3E1C044212DEA
:1033C000966C458B7B3463311CD2A521A0BFA4C071
:1033D000605494AFDB108B860B8B34981F2C49D232
:1033E0006E904366FBCAF3852E1E29C098B8A3C809
:1033F000BEBB9AA0DE57548D2F838B3941807B85CD
:10340000FD8F5371E767CDDD631ED3AC80306A3129
:10341000DC55C7B89566C7993B91C1A91904EC441E
:10342000AE09CD178F622DD4C1D5E5F4D2572BDC70
:103430009847491ACECDB6D90E22714A8E363A55E2
:10344000C1E7E7FF544B4C948C05E18FE88A6FC1CC
:10345000347C76026D1DBA9C06F7C5E08EE40164EB
:10346000AEBA45BB6E6816D5887FA60753DE48679F
:10347000980695EEFDACCA2DFB1AA5906F5CAD7455
:103480006E5DF86ECF3E255378B5D81451910CE39C
:10349000A5CDEED34C2767AE51DC94DD1D17341D4E
:1034A00013168BDDF31AFB6701A8A87DF24B2002EF
:1034B00037017638FD1C5207F6ABDF8B80A2B3A331
:1034C000820646B5F7D855B5FC52D45DCD6BD9C34D
:1034D000523EB700AF3FD2F25B26D074745FB8DAC9
:1034E0000C60FA509D0702EDDD4267133BD6AEA992
:1034F0009E00FF7C478DD1DF08CE9F7102C8052E4C
:1035000079381E68A8B55ECC3AE68FE9F8BBD031B1
:103510007BA2DEC1134D30819ACBCF27ABF29963EA
:103520006E542CC94F23F95FBF2DCC3EBEBE0B4B52
:10353000DE6BE1059F4BA307A3D3C43A3A55024C77
:10354000346685E480F6279083157D79AA3E202D88
:103550003FE11C2830229E2F07BAAF7FC7CB99F5D9
:1035600073F091AEABD2A30B96EB78FD30A4070AB3
:10357000732F523C69DA15758459B24514804D3C5D
:103580005165C16510B33C4305413AA896E779D42B
:10359000DF283134A58D033CAED9BAF28BE5513723
:1035A0003135FD03F1513A9FFCAA2DC5E39A00265F
:1035B000E3E7B4B9C16AFC7EF90421B31846EC52C2
:1035C000AC95F2372CB8E1297C3C59B18A563CC6FF
:1035D000685DD93F6E2B447D6BEEB55EB1E92A0F75
:1035E000E2CA86A8363F2D1C8198EDF13D5E9575A7
:1035F0005B2FCCA024969427ED277C0A6E08D54E2D
:10360000E074472E0CDDF5C1205DA5CFCF187B7C83
:10361000BF83B5BF01D627100A1528B3FB8364E525
:10362000ECB3F9475A819F8D22D424214AF8A0E4B3
:10363000F5C0F70B750DF9419020CE34662ACF9E68
:10364000CF81E9DA3D4059E5B82AF2DA2D1CC53CB4
:10365000265A9CBAB35FA288CD5925878761A215E7
:103660003363945E61066C0D3A170067727560A350
:1036700086E976CFED8B6D95BAA51595F362A2110B
:10368000E9D3435882269048402D2817613012F420
:103690004D77C91135DD1FCB4D63D40C6B4DF6F062
:1036A00077BD39DFA714F5CBA71374388D8BF54B95
:1036B00036EA9E1DFF4A75D7C8A83FCDDADD8A508D
:1036C000DBEABE1870EE4087FFB698C4B6E15E979D
:1036D000BA1B1791EFFC8A3CC155D04126CE541E2F
:1036E00000DEE1E716AB8FC1338034973617DFC5B4
:1036F000627197321B139244A8ECA12D875EFEA243
:10370000C4BD343B531CFA87809B0E9B23E243903D
:103710008DF4230FF34DD907F9119EF034BE4826DE
:103720000CA15430AD69F2C1FAC0F22D8941FDAF50
:10373000EAFCBD66C2BA6D1395E9EDE8D61992525E
:10374000C2CA8A5CE6C2DAC4C11EAA26DFE3BB5342
:10375000CBB5AD2C45A3022F14CE617706D71EC181
:10376000FE277AD0BB93464013C2CEA68BF6DF1954
:1037700006B820294EAD2978603DCE1E64EF1D2B82
:103780001C74C826972235A68B361473A158AF5FD8
:1037900011A96942BE4ED9551A0054C83B77F5F8B5
:1037A00074812F52C23CBD290CD1B6F8A31FEB8CFB
:1037B0004CABDD59825890C381A49DA1F3336800BE
:1037C00080062CFFFAEB5F9D31391EDA291E3CE89A
:1037D0003E37B35BA0D8C24D3D98A2193A7876A186
:1037E000709935869C59858F5D81E52DF1BE135802
:1037F000DC055623B3676DBE254EF3BBCA9C03069A
:10380000CC871A11970FAA797D2B74D4636D2F1171
:103810007A5B5BC055E56019953486F44392FEEC03
:1038200055F3BB96EF241A37383600E18AD15E7023
:103830000449069B0880552290DBFAAE84BA93EFC8
:103840007A434EC3270CC57E6DCC96B17F44983D1C
:103850001831A94BF4A624983D54EBB895DDB21B62
:103860002382DF8521A6A56E09EFC287BC47000C25
:10387000001A5FB2AD6716FAF91BFA7E64A5E23C46
:10388000C7FD40ACC0A8D7D4EAAF4235D03B6E6884
:103890001487F4C81712BA52E8C06832DB584C1DBE
:1038A0004325815F5716AE2CF226023A206331AED3
:1038B0005C96EE0FCB27970E052B8A63E580B1B897
:1038C000CC64329961A464A21239CDA248E7168271
:1038D0000E3D30AF5A0083A0917EFCBE465467591E
:1038E0004004D7D4B666561BE0E2EFB9AD8887F541
:1038F000096EECBEE468598050CA9CC0A989E94AA7
:103900003B31E22896475CE98C796BB8844B4612D0
:10391000A551B957485A9F6DC0C39B11A98A453418
:10392000FA6F8636A6111F233FAFA76BF1319C5368
:103930000117B358023B24EBAA3FE73C28B148C229
:10394000C0FE148D4C4BA33373D1CEDDC2354C2A4F
:10395000E5B0DC8C55F2688C1E0BB777B90E0F31D1
:1039600054C879815DB48C93D40D80B144B3B24214
:10397000B07FAA25E05DEEF993E62D2F97AA3CCA09
:103980000723E406A9485E8F6FB36F3CD6DEBB0009
:10399000886A4710D418E42A0D97F09D3B76D330FF
:1039A000F3CE56C36745948EBFB13C7A0DCEC55F4A
:1039B0009D1F8A18C1CF6C9B44BD84682D1F32C0E7
:1039C000E3806C9CC6F07B0A7C1093D584EB656D1C
:1039D000786DF57934A9987477E56BA530C48D506E
:1039E00085F6DF67B2B6F59A5D1D1855DBCDCD2A99
:1039F0008A5EEAECB07C95AF05287998C3BD05F5E1
:103A000093E1DFBE67AC6A680926278783572F28B2
:103A1000312C2603B207CE8764D9ED1DB8C00B4CFC
:103A20004622129E6DDD703D0C6C8A220AED899053
:103A3000562269D546CEDF1E36E49EE6CCA5DFE1F0
:103A4000BC727983C0E21F9B0F4640C4A228DCEA07
:103A5000EE09D3891F8571054DC7492E4592E99C12
:103A60001D6E71A3E371BF26B8518957CF42EE8B0B
:103A7000E5EBD2DBF244F5013A0C8AE3066627A6B1
:103A8000C4B989E5E30B926CD4DBA5BE53980F74DF
:103A90004215497DC1740005449F42BDBF62DCC32D
:103AA0003AF6379AEC597C18E47FAC385648BB514B
:103AB000A8AB32B9E69438A147E576A680EEB460AB
:103AC000232C84462D392EA36D78D6B5AA7185771F
:103AD000B0C008BCBBB1E86A400A7EB194060B07CF
:103AE0009756DCA78529040260E1B50976F5C55033
:103AF000C55D965847A35130BC50A7CC67CD391A45
:103B0000A00CF85FAAD43A4406786CA216524A2355
:103B100053AF0CD02875D789985E07E836353B6DD2
:103B200071B81D5553FFD96D68160634574FFE4FB7
:103B3000176704877F3BC5D89231C548A3554E7A95
:103B40008B43B184DA6E81833362EC47C50D7BD43D
:103B5000F6E3C71A1142A99E5B5FBDC1A8A5A5CB1C
:103B60007C395347401ED2B30CC8EF0BA437CB7E31
:103B700016C09AF7E0B5AA9984B41A8D93A37C83F2
:103B8000E1F1791A6DF22456BFE954A5B419D802AF
:103B9000496734B738B60BF179A7206AFC51101980
:103BA0002E18350535D571F1EC8B28A8BB41ABE754
:103BB0002659F1CB842663995C4A9057A27141C67D
:103BC000D9AF0B65060B91EEF4C22CD1D3CF0155C2
:103BD0002A2EFA560C8B5AB2CC9F07DFADE1DDAA34
:103BE000C784F0D3886C2DC6DF14F382C64D3A42E9
:103BF00093DCC98E42024CA719F0271A5BC0AB8335
:103C000064BF6C344D2C2DC853522DAD7017958662
:103C1000CEC4BE13381DC4ABC734796834E3294D14
:103C2000F4C36E7491A7FE760EB5A102706BE2A488
:103C30000F62F8CFCFDD54A0DF4E457D94A5688F8D
:103C4000CDBF1AEF7CA61EDF96FE757EE12CE97DC6
:103C50000CE01D3788D043088DFA465CE3038727C4
:103C6000EFC6200DDBE18B9BEC974E63743D68C87B
:103C7000D4E481F1328FAE74BA2EA7189623ADEE3C
:103C8000125C8993D5BA84979752AFDD7C48A7A57B
:103C9000671947AEC8D1F989E48D2E2D7F35816F24
:103CA00002A3647DB6BF7A9CCF2E072233DC9E9F91
:103CB0004169AD845B6B224F189EE1C1DB6F494BBC
:103CC0006263354B8C40401E43C94E9E471ECEBB9F
:103CD0008FDE6D5FCDC9C04D0403754D459C190243
:103CE0008F9D371C772785C333C5AD87BBD07EEB4F
:103CF0007D1C9966F826D8FA99597945FDDB9BBC5D
:103D0000382A11AF4E6839217010A91D4E94004712
:103D1000BC7E456A667A85231927E027009153C93E
:103D2000FA108EA046D686D88BA4AD7F2706780AD7
:103D300074EC172B9E02D7523C8A77ECD72B695C28
:103D4000F07161F52E0F8FB5423E03F3FAD8A50C42
:103D50003FB2D4CB8BBA86CDC5B48D624E6F65C7EA
:103D600019B76D86FCE1E14E539E8C0941650EDA70
:103D70009FE2CD999A36E72A6D3489A2F6AFD2F642
:103D800058A9BADC625BE0C85C330B5A204695B593
:103D90006CA6709391DDDA86EE3DDDE04BBB2779B2
:103DA00039B6D7FAF586B1A6DE9FF8919CF18ED888
:103DB0004850251069ED9D4AE6989059AFB4DFBA96
:103DC0006FF3E775C5B90493B5ECDA4D60994F8987
:103DD000327EB79531D9D6F349ECE09B99CF4CB5FB
:103DE000D6AFF39037B3E6B186EB08DFCDE60579C1
:103DF0001D80E5F932C783EEB40BEB6C6AC9797E9E
:103E0000E577963032D97680B2BD1AFCE360B5D042
:103E100007214A6262ACA4072DDADA7A72ED242116
:103E2000955012FBD7E6F4DFEF0AFA4D69F81890C7
:103E30007E122F2DF237703D100DD19EFCF53957B3
:103E4000A34032C3B12F4684F973F4CA3C968DDA8D
:103E5000C9DFDB5B9FBE55DEFFC8D6633F269A2ACB
:103E600089ADE6B6D8A78947C2DC863341804C7855
:103E7000048224C7B8D1422AE776AA964BDF398458
:103E8000464172D5996CF42B76EC07E5CAE8E599C2
:103E9000DDC0F74C80778DE1DD5592BF2E4D7C6CF7
:103EA000CA2E50FD9E06785586DE291C5AB44394CE
:103EB0009A958D616CB3C997C0741855958E2C5323
:103EC00025FBF7F998A327C4BEFA4066A3C2511593
:103ED00052C794032A8E04503DCFF83F4DA71DBA18
:103EE000468D599BEA07CEA02B64323A2C2C040451
:103EF000D07E71DA8B619DE0785474A388D0C2744F
:103F0000AAE2973071D207CCA3F60595D7263D5883
:103F10001926AA5AD5C76900B68735BC23B1BE3F5A
:103F20001E78D98E16E5A33E9A2005726828C947E7
:103F3000A417163849B749CD0AFA3D53637B6DDCA7
:103F4000FEBE229109C0083A2FB2071BA8A830175D
:103F5000B9F55BBC5F3F52E6521FDBFD2E66EFCB2F
:103F60005D6314BD0FB1B11FB539E5F2FA3B5ADC00
:103F700028058AB13F4DE1FEFE3F2DD5CABF074B54
:103F80004A5B74FB5C67930A58B3355ED103775381
:103F90003F4A2A7AC4B2970AC698EF2B0AFD838952
:103FA000FACFD7E0F174745F9F86C46AB969685C20
:103FB000BBEA620D3AA9F3B3962571BEE70D540A28
:103FC000298444558387E80C60743F7114DCD9A4BC
:103FD00003FCF8162F780B8AFFAFF9F1EBE471CBF5
:103FE0006D76FFD1053D3DB0579E36FA3D9ED247D6
:103FF00028962D8C0AAF29C1620BD91CF51C2A58B2
:104000008938D5A820A133A09FE66D330128C79C2D
:10401000E5C30101BDF8D1BDCB54FC4402A2511B44
:10402000CC21B42C350ECCF5104701ADB1C860CB16
:10403000956A718433C762F4F27016E53DFC69FF3E
:1040400054589D5A35A227ADA730095F7E13AF8122
:104050002550528D0223275710DACFBF7504D7960B
:10406000E61CADB65E1F64AA41DC32C1B1BDBE6CB8
:104070005EB5088ACAFB04283371EB5369CB8B7297
:10408000BDCB3522D67701A66C44B05997247DCCA0
:10409000E8AD1CE6C5D11086A81E92B2F6ABAFDD26
:1040A000A86BF9FCB395F4AF31D793BF2DF28C7E9A
:1040B000F502FF21EA1B8C2A3BBB7A77B2FAD6685D
:1040C000D99A9B97F57783C5FBA375FA9111733045
:1040D00034180DDD5DC5B268CAF304872A62F59510
:1040E00055088153D4542263F39187A5B9ECC4CD0C
:1040F000F2ABF4AAB5629CD9BDC48EF9B86468D697
:10410000B8841AB752DAF0BD1898BE51D38F0DB2E9
:104110006A6FD7B63FEA013F325576130EADF044D1
:10412000492F04830BC69BA5F171EA9015EBF4C7E8
:104130002286C79BD12CAA8B5BD3A26A0EEFE72005
:10414000EF6FD0848FE56B87DBDF2C879C7C37712A
:10415000ABDBDC13003F4008A603E1A4DF2397811B
:10416000CB4FCD845A5A2FAD0A61DB74EEF602E5CF
:1041700070AC5F6BB51429A8677EA54AB68336A8D4
:10418000DD6098C5B768C1E92E831E04BF116ED4E7
:104190001EE2B6E571300B09537380C8AC6B3B8AE5
:1041A000EC86AE5C9FF1846834E5812AF5638F85E7
:1041B00002F560797898368C712D3B31B416871DE5
:1041C000EAA290D7FCE97373A5498572624ED07557
:1041D000C05EEAC37C7BCBBCF42424065CF182E99C
:1041E000F0E2C16278B696930CD123E9E055C2742F
:1041F0004B9D818508A02E3FA848BF965855A4C75F
:10420000FACD709BB4BD75C1A896D6D86720346925
:104210009116FE8E36FE3945EAF8D0697226BCCE7C
:104220009F42FD420BB3333DEA53BB52FAD9CAD386
:104230000F41E606670C1D6FB48B2F8502856780E2
:104240003F073E8E1A16184F268BB66F4433B23B8B
:10425000E6A6552C0AF2AD44918B379AEF18F4116B
:10426000B2E31FD8DFE9026EE7E7E6BDE239E41BFF
:1042700092739143C95EF04B8B05D8B537C923B013
:1042800098F1FE403E53D716B6A7BA35E6799B7F24
:104290001DD3CFFF8060C2CE1741B2DF8A97DAEE1E
:1042A0003C022F1CAC594B148E206B82D2EAEF16C5
:1042B000215361ECBB70B168FFF0E8C49F2552F850
:1042C0007C0D662140203611D8E7FBF7C50F2AC0C8
:1042D000674F896995D622D865D077B69B90663EA0
:1042E00024CE2D24442526C32693A06F5456B8709F
:1042F00020C642F0977181362637571E0432FE31B0
:10430000C2BD5BCEDCC512089C11E00DA7FE257571
:10431000B59882361BBC93088B875BBD9BE0C6C3F8
:104320007EE34EBB921CCAB285018DAC0AEDBFBBC9
:104330000D166E0E531E8293DD460380D52A3A3841
:10434000FB5FD1F517EF7D3C92B1A9AA1A67DCE2B9
:10435000062F00510586ADC76E1129413C307FA85C
:104360001BD66D559527CB5581352EC7C44DA79AC1
:104370009F6510747B500E3068186501587D683752
:1043800041E8F280282117BAE72B1E3C16F4456A53
:1043900091BE61B5B02E82214C0B779725DC0D8341
:1043A000EE7B5C2CE60E4737FABBE409F1E514021C
:1043B00056EDF53AA93B2C29A7DB0CD1BD779E29F8
:1043C000E82F11A8DF710C15320758C366AF10D85B
:1043D000C083B6D8BAF38D25C8BC35BC41EF51A80F
:1043E00060968225F15C706E4CEC41F720B4A6EC2F
:1043F000C5E3D520131350DF53E7D43AB46CD3BCD4
:104400000629A060587940886538CEC347D411A7E3
:104410009320643182A49A3FC55A04D51303E64021
:10442000ACABC83E752AE359A72A76C0DB3FF57CC2
:104430007197441B8B48100EC2568F84F1905F2DEC
:104440006AE0D231DE7F29B44188EF11C41A837645
:1044500096FD162169DBE1899450C9DE44D2279F7D
:10446000F23D014AAB05F00BF02D828574D30C8E22
:1044700015F5C416ABAC5513082BF99631B97ECCA3
:104480000086AF8FE38EF14D1733409D3962ED25E5
:104490002677673AFBCBD813B1F77A64BBC7E848F5
:1044A000B688E917DEB1D40EEA1D41C6D1E93269FA
:1044B000494CBE6EC4E06DB917451FBAB7C6BEE51C
:1044C00004D96CADF13D32BFE3D766363C0954D513
:1044D00027B19DAE7A1ABAF8450C22D975F3BEBB46
:1044E000C82FEEF8AC9DF0CCFAAEF04EAFD9E4CECA
:1044F000A8EAEC9FC361E0D997A43DBECE5A77C924
:1045000069EEBD13A6D5EAF7FF0CB67AEA1FD5020D
:104510008C84D0FC1D85100FAF8AE400F88F876C67
:10452000DC0888E937E28AC20D9B66E33B58A7E4C2
:10453000536995F7B9689E9FCCC94C949E5DAA4972
:104540004201FBDBF3D5E45F994F5B898F2A44017D
:10455000AA98F4B317F7B50105A96F1DA84F5853D2
:10456000BAD2146844C31F34A8541C7966E1BF7AD8
:10457000CA0A265574C2A61F9BDA1C2BC60DB0466C
:104580006ADED7B03AB7F7B0CCEB3984627AAC9137
:104590006EEDFA5D25343E28DABE7883D370C89775
:1045A0006EEA8A9E9DAB48F6970C89C35267F83431
:1045B000D0A5510ABDED89FA7B95186C168BCE6A91
:1045C0002A390D33E44F03BE1440152CF6C2615B4B
:1045D000134540BFC101F35518A0C4E6E0A9A9974F
:1045E00083D1C32D850BD71F02937DE6DF00C56500
:1045F0005435729DD480B81D51511704444F89C55C
:104600008CDEB5CD89698CA38FDB21F8E2E21944F9
:10461000627FA2F4E153247C2D4CE15E8FF953A418
:1046200052ECCBF6051357939DE1B04A31724FD54A
:104630005D01EB417F069154F5A8BC797272F8A137
:1046400054EE6E9A7ACC5CFDB3B7FB59699899FD2C
:1046500067CCA47C9310A01501CAB7D10A71F7707A
:1046600091E0DB5FADC8C9986EB101FF935E493937
:10467000A3848DE7C0CB65F26F02D245C34F92157C
:1046800034D17326D0E4A65B4586D9FBB51F5C45C3
:104690004BF8C448FA99044197B9E5ADDA2835CC0E
:1046A000CB81E4DBE4936CC3F678258E74B616F503
:1046B000B4A1768D876644FFC1C579869AB122532D
:1046C000EAB4BC852489705440DC66B483E59AA7BB
:1046D0008BD368026DB74ED698E5395206ADB698C1
:1046E00086CC88247F6A235C0E029C1E8A6EFF485B
:1046F0009BDA90177FB2A118990FA76A552D2A62ED
:104700004F379A32E662520516C848CD3E0F8146B1
:10471000D9774E681B4B1CC315FF027961BCC4CF0F
:10472000E3D13D24B3DB1AB0C1B9A73DDECDA8600B
:104730000753B970D7D42312604A5D4C601BD1DE99
:10474000BDBA6DCD35555AD749B915160EE3FB489C
:10475000CE430007B3728DD065868E2EFB0DBC1A3A
:10476000E7B1FD191A152103C899FE72285C64513E
:10477000005A3E704E55B9155C8A6D5C7E511FE93A
:104780007CF771A872D5316039434D6DD6D190F95F
:10479000FE92A4B894E8B9AA909E9E1518CE3A6AE3
:1047A0007BD1892DD7DEAAB89777A3D20496615B17
:1047B000BC5C5260920C2C7C7A336EADF1CB2E0532
:1047C0004A441B1A09D0F68DA9F166C3DB79CC499E
:1047D000427F85A774C038B44A4DD0745BDC151095
:1047E0006078A419C6C08635EFA029ED305D8ED063
:1047F000801D16E6F8F9C2885555854D65CDAD92F8
:104800000CDB68EBF689BA2D207986FF2AE1ABBF75
:10481000073CC3EFB504041A4231A8C4953063F3D2
:104820008F9007BE4E5F09637C0F6110BF990BDC50
:104830000DC675C226B900D08BB8ABE53A0A75161D
:104840007C7F381DC3BEFB03D35E2BE1700AEA3CBC
:10485000806A8121D28D1054D3FBA1AA7D0B3EBC6E
:104860009575058D320970CB6572DC76AD57E41D08
:10487000CD27A12188E72976C84F4E3CE66DAB5D78
:104880001F07E516EB0BA4743E08DE4B52A88E1FE3
:1048900089BD4ECD642603BE69F409F3B584FDDD00
:1048A0007D21FDC417C373CE0305770F575CFA5AF9
:1048B000A853CF0ADA35497A996E369D7BC7EA76D6
:1048C0003789BBA7305EDF4D2384B48F6C433A2E0B
:1048D00093DCDE95AC42411F05A066237D8D2AEF57
:1048E000F8D54842A80DF8CD16B6C2ABB433CA43CA
:1048F000774A884B5966C3A6AEDE18E5CA72DBE973
:104900005DEEDC13908386EB97259AC291C203B6C5
:1049100049A4702B9E5C402B49907025E526BC9FD6
:10492000CC5409EF01140F9B76608078D0A099B524
:104930006522A7742143607134D093AD9DCAE0C74E
:10494000EAB176A94AD0FD0E4427A75E45588E628B
:10495000961D3B5E3292A8E6C7C65E9A084808CC10
:10496000EA229B13721399334A30DD0AEDBB3FA84C
:10497000F00887C269FF61CC33BEDB2CCB25F51173
:104980002DB60C71B4445B1B4FCA6F9ED4605FFEA2
:10499000E5F6D06B49911AADB70E9E3E6C8D1C7E2C
:1049A0001F491E8081FD61EA27DD7F1EC6EE7189E9
:1049B0007CE216FE1A7F1779AE3617D218B2E6F6E9
:1049C00093B2EE74FF667B1E3FE831D18291C851ED
:1049D000D6BFE6091AD6A50ED96448725226DF1F43
:1049E000D625270C47D58A9C16CCFB592C837A6F89
:1049F0002E4A8DD5B7AE91EE23DAF1CC3CE296CDBE
:104A00009E90EF201262186BCC3CAF538863DE8619
:104A1000CDB4C5510E7DCBF93B006411569237E4FD
:104A20001D0DD077B071EE10F6FAEC4153A2A6E35B
:104A300004AF9BF52488E71A0633E6D4397CC11409
:104A40001D2ACC54CDD188B5C8B4855F567F07A741
:104A5000538A3C09378C0CCACFA927204837A53B7D
:104A60001CE056DBF1F948F77931528396A9A1038E
:104A7000AFE11FF7800F7BD82A433D60640D021B16
:104A80007AD237A070CFC95AB3D8DB12997BD4CE73
:104A90009A15E64F08A9E83F188456BCFD665F26C4
:104AA000124A11F874B6650684F65BCB710A50425F
:104AB000B80BF70138BFE0F59DE355905736120B60
:104AC000876B984F089D110DC06ED4886C25C79DCB
:104AD000061AA267F6D3427FA662D0F6451FB9C177
:104AE00034959451D31F91266B69AE926C8B67D627
:104AF00031DFA86747DB8D9B144E0DE0D75E529ED9
:104B0000D8AB633A6A23E960B7D72FA587B4AE293B
:104B10001969088888160C625BC8BCB50790E23337
:104B2000A3DB9CC5B032EF58D4D0AB096B5F9919A9
:104B30001A51AEA8C016C4F67A1B8BB875038E9AAC
:104B4000A7D43694911B365D2741FA8AB485C47880
:104B5000D4D814FA1ADE623838601400FE2FB2D6A8
:104B6000205A5E566EA3C676B66EAC885C18AD74DD
:104B70001C5F0C85C7B88C3DBBEEB855E18B5BAEB6
:104B800012D027AC5E52F6703AF482B499FF159BAE
:104B9000263942B7D4FB67515CC1B12C61AC5CBA19
:104BA0008C66FA528241ABDB620A98FE5773E6DFED
:104BB000F0FD7BBFE9877BC7DE5B44C751DFBD3DAE
:104BC000FA279EA7E8A0D5B8354152D8985FC4729D
:104BD00062458C6A7D884637BB08BF656EFCFB92D8
:104BE00088122D5F3F82D86252CBFD697BD3A9BB6F
:104BF000AC7A9704E5ADBB3CD5FABE14D159A5E11A
:104C000034FCA5559865C0E7C068AA9A478EEFC4E2
:104C1000E6DE50B9A064964945984FE2F22E4BB6B5
:104C20005584019B14BE47880186A5A79459E9A223
:104C30007481111D4F19FF13CE4A9B3CC2B83068D6
:104C400015D7E2C5B47D65B1D8A9A021E18A57DCAA
:104C50005928D4BAE60FC428427AED0E108CE1CA66
:104C6000E77F108BF37EC7B0D48AB569A886450A62
:104C7000886B90D86CF4D4EA1F29C8DD6291405645
:104C8000820C0695451B08F0897C3B283C93EEC7B7
:104C9000DD41E556ED510DC3C93B26E1DA4B1D73ED
:104CA0003A8C25DFB95D66E12E134CEA911CCD42AA
:104CB0001E5F3B2943EE65C9890E2F134776948703
:104CC00040FC90572243468A33B1EC4802F714A2C5
:104CD000D95CFD1D3A50B9D45F7B025248DD51F0DA
:104CE0000DC6EC1899F9C968DA5145CDB3972AC9B0
:104CF000D7635706CB6D1ED69D37A0C8111298D723
:104D00000E5EA5C0396FC166112FCCB477B2F04DDD
:104D1000BE9D5408F9905A07ACE67BB55AD8095A9B
:104D2000B7049D657C6565F42ECC14A9DF49C9895B
:104D3000F52C42EE1C535C36E3A690DE95E6DDAC26
:104D400066503531770F4423AB68760F768AE006DC
:104D50008FC757B2A1F4528FABBDFCD20F09BF135E
:104D600041BBC1FEEE8ECE2AC9CE75CB4F026B344D
:104D7000097F0F0A6CAC44343C0AA096FF2111064F
:104D8000A7916D59E32852C47FFECD1186F33628D2
:104D90002CA63D75EB7555F9DADF571919397748A7
:104DA0006935DAA4E212C692C23FA504FD3769FA5A
:104DB000CEC17ADD5F2E268CB0E83D9BBEE66B3F10
:104DC000A50BA24F8A5C0ED6908B08BCCD9133DD2B
:104DD0003FDD8692E187514F93C74F82510E0DF60A
:104DE00099336545B82BDCD7908E16B7B7B9A87044
:104DF0000DB307104622648FB7BDFE0D9776F34FB3
:104E0000166A15A2B7BCB414A5C790E5FC29C33532
:104E1000C094FDFED5CBE234E64048CD2965D17D76
:104E2000AC0F7101CEEA21CEE8A973C9D23FE77D6C
:104E300040C9A0B1DD69CAE1547DAB476564444710
:104E4000CCD589C06DA6AF41EE8BD009B92011A693
:104E500046394AA20BD8A60AFD3D4D0BE9FE9C6AD5
:104E6000B576A9BA8E230900853FF00FEDC61B5910
:104E7000D7672FB1297A1342D92504613176BB63F4
:104E8000845308E935ADB1C424AE7227312BBD106F
:104E9000AFE671D6965C33FB82317B8295E6C04BE0
:104EA000BB7EE356950715D7C5A4D00119D9DD38C7
:104EB0003D861F2B3352FBAA9E3DADB002B4CA5CA7
:104EC00035A97D711BFDF1580C443324FACDB31381
:104ED000B90EAB3E291AAE31706DB31B5730DE717F
:104EE000F9308847C803C889E6C1EC5E69B940F269
:104EF00061E84D23BC308F2117A3CA117897DC31AC
:104F0000DEF8AC7497AEB6FC6C2973E69A0880F8AC
:104F1000F8654EC3DC66169448A64BD68363906C46
:104F2000F85E8B2A3105DD2E34367F1A3FDEDFBC7A
:104F3000A45F5224350529A5188E57D702F2FB9F8E
:104F40000E728888382E0574F9D8B749FF8B9DE119
:104F50009899BF9EEFA9CE3DFFC4C0ED3DDFC3C110
:104F60003D9E428DABCD3A9C029CAE1615F59CD071
:104F7000A3B5551D2FE110A22708E4DF42D60C4F40
:104F800080C7E10103E06F53917CF92AFDD04B6D9E
:104F900038B34244296EF029E7A4BBB359F70AC7D6
:104FA00080A1D193CCCAF32B3B603109FE849E4291
:104FB000F43E42315072FB5320D97852F4EBD6A61E
:104FC00012DC628BBE172641B6DA9A87264382F33B
:104FD0004AFEAA54C9D0E1AA3CFC428B5996FAA7D2
:104FE000EB7BDB2291C34F360FB141DA98563199F2
:104FF0008CDB1F4A984A17124400A37B56361311C4
:10500000D35B611C79AD4371E84C054CE83AEC7B0D
:10501000C8C11D9A0FFC657756B1CA36B225216505
:10502000DDB6AAA7D148BA68DA7F1DDE17777A5AAB
:105030005FC17A9371A89456FE646181978B5E9CE0
:10504000845E8D2D62C9140BF43DE5665818B56D6C
:1050500091A0C2AD7C663868B15883A010CF9F7311
:10506000F007789682BC37E5F61E80A63CF940F141
:1050700035FC35285BE2FBC805C19461CA48A23BF8
:10508000D8AA477FE7583BB0A00D01F4199AC7860C
:1050900038CD6997D5F40F14141C2EA1EBD85047C6
:1050A0001D10B42791367D5E33C99E3B1C88DA23E0
:1050B0001106D9EDAAE2238565021E1A4C1CF83CA4
:1050C0004ECD350376CCB6EAE81E2372F5AEFB2C46
:1050D000175C224FF33163A10701EA89360D62CCD8
:1050E0006B73A689CCED978FD4EBE13E29C4F275A2
:1050F0004A83B721A3E21718ED467C6A1DE5B3B5D4
:10510000554819E12148DA238D6CAB05D2B0F55F23
:10511000AB97BD66DA834038956D4C63BB4EA04CAF
:105120009919A76AB482FCBD1E75EC743BA106C335
:1051300060AAB23A1652778D1FA68C917668D4DD9C
:105140002E518968E8829CACDE8C8AB59719546E22
:10515000A276E9A796291A4986F15AC05EAA50900C
:1051600011FC5132F79F9A5C64324A8C8B8A0CECAA
:10517000FAE0B18227485F09B0A2BBD5E79BE234D1
:10518000DBCE927D37C45970955C1394C2F9212C03
:105190007A1A9F1BB379357BBB3B84C4C8A19CB9E9
:1051A000412521F6D64E67ED8DA4947FF06457E734
:1051B000C0BC45BDA33DD4C5D9D5B82CB7A45C307F
:1051C0001CD1872B7C56574A5C375DC82AA21DDC50
:1051D0008274D81587E4E043F339E096C28E58E52F
:1051E0008A306C8D69F1C4DD3F27600C60C7DD1526
:1051F0009D5B8E422A931326AC86402116CB879066
:105200008627533E3540A795606D2777C48E8B9ACD
:105210008B2D0A19EB2A20CE207A662A827FC009BC
:105220006703DF276CE911C03755709044DFE1C593
:105230001EFB8955861596A488444ED91AD6EB7C58
:1052400092E3B81EF85C4E4A88AB7502E930C0960E
:10525000D62155CAA715097D01FC0D9F1F586DE584
:105260005F128FB240D560C822BBCD71E95A3D7B39
:105270009315DB848FCE64131A554789AEA0338112
:1052800050BA28C21B391FFA754D7848FB35158373
:10529000D188352A407410B23378AE42CA25C1ACE9
:1052A000D7D9426BF33BD15F8C294E38997A1E488F
:1052B00008386DC7289DD463759F47749E4A0C9526
:1052C0006FA0DE69D67A333D47117B0C170516E3D4
:1052D0006549ABC34F347A75E31F9B9D114085151B
:1052E000D60AEEFA3FE1B72757199A54571BE287BF
:1052F0007192368E311E9D73F680FB06D8A2DA8538
:105300003012D54A1E252F7E30D048DF6C737DF7D2
:10531000F29874495759062F287784369987EF6693
:105320001C193F5C2D6E8145004BAEB0982810AA29
:10533000AE7403A7904EA2F7D37735F23B741CB23C
:10534000E81958E745F7C8E68A2AEFED6438F370A4
:1053500021AA48ABEFC7A3C5F362225E13FF65C85D
:10536000F891DB468EF6286AC6E275B69E885446EA
:1053700082E60BDBDD0C6207EE834FCD995CAC5E01
:1053800041A1EC12FF9EEBFBA80B32908BA52F3BAB
:105390003F20E064FE7A52CEB160F8A58F0FFEC4C4
:1053A0009CFC585975ACFA5BD2D4439BCD3D4D4122
:1053B0009B2D406A02707079FA552FE6B5D71C5EB6
:1053C0004E110D1083DCD61C47BAF439986D5693F4
:1053D0003E48A9E01936C3429CD81E49F251330B0E
:1053E000F82E219214E270CB630D52E7C0AAF2CBE3
:1053F0000599AEC93D2D08C2D9EC63A19ABBF7F55A
:1054000034AFCF68E6BABCA42F3F6D20AA6A4552DC
:105410004B87CB16F8A556146CC67EB2E7DA8244E9
:1054200038ACF6A277CD8269A678869E99F51925C3
:105430003F0C1124F8C44C0C89038A508839078F1B
:10544000077305DF432786878FF4017AF3A49763F8
:10545000B1C2D6929FE5CAF5E486BE598F34333A7D
:10546000518DF8565C0797F334806AE7420967EE7E
:10547000EC582236D00FC0E91D9A3D2FFA3EBAE50E
:105480002078968EF7F58A113FB033F21AE3245E46
:105490005D799C6B5D7E69FF0F49BCC0AF4CC37AE0
:1054A00021A0397FB7A67A43DFB86DC99AD2B80F69
:1054B0005A8D07350914E58037888F943AF4D55012
:1054C0001D6D1DECEEA615AA56310B80FAE89D1E47
:1054D00091C5E396356369323F654D375350A7E474
:1054E000845477AFDD2C040E8C25718527A00777B7
:1054F000036C98F35223E27FD4C3D577B29C2DDDA1
:1055000089FB9A986F7B0F09ED633D37FE61511F50
:1055100048733F4D1575C9BC08D57A45C42A8B74AC
:1055200071AC77A334A3F5D51CA3A266CDFAD4EC55
:105530005C6697C0F1F2DBBE1D48B625871B3A6E4C
:1055400091004856E7314DD026B03EAE671DEB8E38
:105550003D115D3120D76F9C0E4931DA15B785209A
:10556000E4C082797895CC4E5657EF71172A8C8F0C
:10557000DE50683FE335437145DB71DB8219BA1AAF
:10558000AF1B62047BB8958176FCCD8CF4478C17F9
:105590007E0DE4F1D7119487A7A7340AE8679BD55D
:1055A0008F3AFDE1F21E95365C54046570DE19AB4E
:1055B000A889B666AD94860D8D9748EB90FE659FE1
:1055C000823AB30C4D24E933EED79661815B9B633D
:1055D000BB325F2DDBAEA77ABBA4A448847E4E0B02
:1055E000C36C61550A146A1480CA9151223036B6D0
:1055F0008944D3C728615CEE722C334F5D3018A10B
:10560000C1B90DDDBA5792B3F1A292E108A6BBB3BE
:10561000FB0A102069942250D00DA0DD1A933E7A27
:10562000D1507FC98A57D347E59FB8CC232557155A
:10563000C2095A241ABE63C76E293DF00231181AF6
:10564000DB2CF81807EB03F34008A7C49B63322E4A
:105650005654BE9D9AE609390C6C0734C3BAF95DFD
:10566000023EFDC4FCF3568546FCBCEC27132F9884
:10567000CFDFB96E4BCFA5ACCC50827CD9387563E7
:10568000D3DD084D4ED513DCBB706F4E2573E5B5E9
:105690007B5E2C7C9EC9B7C5D16193F4A4139C900A
:1056A0003881463845130FA098E712D7DF746C0491
:1056B000B346A44A9307240B011ED518F77EEF22A8
:1056C00013ADEF34459D72C92D11DFEF02F64C7218
:1056D0009BCFB43D49294E48FBE3A43D3E03B203B2
:1056E0005588BD1A7D3B3AD34ED34818D83122890C
:1056F0009E21805AC5AE40E22417A266B4A3E10BF6
:10570000FC561C30CF07C5762A49B46B6FE28B017B
:105710000394A65F70866A735C7EEA784A04083652
:10572000ACB69D4622621E0D03A83075FECAAB3A88
:1057300028704C5116EAF7E246FBFBA2C2F0C750B4
:1057400076BCE418F1D9DE3EC4148FC8C9C7EBE5B6
:10575000DBD6CFCB8B125A8074595CAED8FB9D70D0
:10576000EB5CCB5436DB798CA9FEE850F4701AF46C
:10577000D9EED65ED5CB1972120E75F022229A960A
:105780002D21B128D460086B7B5F55B7C6F466F74E
:105790009435EA42F178EAA3DC0C1074B9C572E4DE
:1057A000F6F791A30477746BCD45A598C53764D3FC
:1057B000FFBA7FAAC3188D5BF9D44CF3CBE006F295
:1057C000ADFCB0EF318139DF8BB44C8BE0EB83F271
:1057D0005B5806865C5EB2C2CCABD6428A066FFED0
:1057E000280A422E7B2780F9CB50A2AA4CFDC4B9CF
:1057F00049BB86E9C1BE294602F6A8688B9DDC0933
:105800009C4CB3235F9AC7DB76E217254B1F59598F
:1058100035B203EB60919CC8227E5A43673015CFA6
:1058200053A02DD86A83209CEFA29864D22E663AAA
:1058300080B457EBE172FA515ACABA7A9E0328989B
:1058400064275447FEC27864F214F109CAD4E966A9
:105850008782382705A974ADBF637466C4D65F30EC
:1058600097082C87CCDC1B67DC89D98B6C4F93782D
:10587000031FC9C0373E85212D39931471B496DFBB
:1058800020B1A6A434BE2CC7DDA2867BF474E81137
:105890003056852E7B9A7BC0A8A1B465C14979A1F9
:1058A000AE52F860345124253E8C9CE179912E272C
:1058B000148C7C69B01F751F984433E90FEBBDDB76
:1058C000ED998D38962AFA3CA87A03E241449DF876
:1058D000C828509DD22DC55BD6A64016567A9C9CF2
:1058E000C78A494CA1C430D71E89FACCBCF8011430
:1058F00009DD2438D9EC1983D9D14C7A2DA9297422
:1059000028FE3370AF37AFB509A0FF057421E53825
:10591000F359C2B33E8A2707F8D6718992C7E1448A
:10592000FE98C27AB3237B7CB89E19411D8C17CC9C
:10593000007B82A212C24198771195C050725BCD54
:10594000A3CC97B5982817CF2A6810BAF400240181
:10595000FD0FD63EEFE4D7F3EDA396A92D5DDE6EE5
:10596000251C96E7C6239D0F8E376D42173C5E5A65
:10597000D35B3AB6377E3FDEEA7CA52BF08FECF1A5
:105980007C30721E8893D6CC28A2B440184CFEA25C
:1059900032BC5C23E9B7F048071ADFE6C398D2B4FB
:1059A000A6C03DB6EA8DDA6C36A4FB87254BD163E1
:1059B000658E3E793345D662469E470459A08200E3
:1059C000FCBF3D4768C23BBB6F9B7979AA4101E7A9
:1059D000677E9D2545107DDDB4DC6EB851BA9D769D
:1059E00087150AEF9F22456A19AF343C85784990A4
:1059F000063B86558E9AA5BEBC98A8FBD55CCB38D5
:105A0000BA8798DA0BF12EC4E7C973378C62D46E6B
:105A10000A961B687C7C7C6F1F1581C3D4B6B106C7
:105A20007DB649055076124A3B7E14649E0DE09780
:105A30001B97DEB214EC5256D8C273AD3225F3F583
:105A40001D4CF78166E37AFE1AB5B6C6452A1BC01F
:105A500086BFF79226B0E98DBC1C28242A00A566D3
:105A60006803E6C42A59CCF32F1E99288A532D9E29
:105A7000E5AE5E56DB2C7F83433B25329988146A62
:105A800035A35DB5ECEEE05C03A639F7A8D1A72CF1
:105A9000D8644BD0C68C1401AF5B93316033619BEB
:105AA000493BE09CCDADB89B6C7DF8DA2FF6A4C7DE
:105AB00099FE4198D9FA3C1DC57034CD73C37F3629
:105AC0005E025913190A84EFA987DE9C00D06F8803
:105AD0005DA6544743AF2B2AC2966F403171673899
