:10000000001000207D020000CD110000CD11000085
:10001000CD110000CD110000CD110000CD11000068
:10002000CD110000CD110000CD110000CD11000058
:10003000CD11000038BC0000CD110000CD11000032
:10004000CD110000CD110000CD110000CD11000038
:10005000CD110000CD110000CD110000CD11000028
:10006000CD110000CD110000CD110000CD11000018
:10007000CD110000CD110000CD110000CD11000008
:10008000CD110000CD110000CD110000CD110000F8
:10009000CD110000CD110000CD110000CD110000E8
:1000A000CD110000CD110000CD110000CD110000D8
:1000B000CD110000CD110000CD110000CD110000C8
:1000C000CD110000CD110000CD110000CD110000B8
:1000D000CD110000CD110000CD110000CD110000A8
:1000E000CD110000CD110000CD110000CD11000098
:1000F000CD110000CD110000CD110000CD11000088
:10010000CD110000CD110000CD110000CD11000077
:10011000CD110000CD110000CD110000CD11000067
:10012000CD110000CD110000CD110000CD11000057
:10013000CD1100000348044B834202D0034B03B1AE
:1001400018477047201900202019002000000000E7
:10015000064B0749C91A891048BF0131491003D01D
:10016000044B0BB101481847704700BF201900200D
:10017000201900200000000010B5064C237843B978
:10018000FFF7D8FF044B13B10448AFF300800123FD
:10019000237010BD841A002000000000ACBC0000D9
:1001A00008B5054B1BB105490548AFF30080BDE814
:1001B0000840FFF7CDBF00BF00000000201900205D
:1001C000ACBC0000A3F5803A704700BF174B002B72
:1001D00008BF134B9D46FFF7F5FF00218B460F46E6
:1001E0001348144A121A01F0B1F90E4B002B00D03B
:1001F00098470D4B002B00D09847002000210400A9
:100200000D000D48002802D00C48AFF3008000F02C
:10021000AFFB2000290000F061FA00F0D9FA00BF1E
:100220000000080000000000000000000010002096
:1002300020190020881A00200000000000000000A3
:100240000346054A0549106803448B428CBF4FF0B2
:10025000FF301360704700BF0010002000800120B5
:100260000348044A0449121A921000F0B0BF00BFBC
:10027000E0C50000E0C50000881A002008B500F0C5
:100280002FF8FFF7EDFF124B12498B4212D30020DB
:10029000114B12498B4218D3FFF798FF186850F89A
:1002A0002240586840F82240013298688242F5D3D3
:1002B0000C33EAE70022F8E71C6844F82200013218
:1002C0005C68A242F8D30833E4E70022F8E700BFF5
:1002D000B4BC0000C0BC0000C0BC0000C0BC00003A
:1002E0006FF00100104B114A10B59A60D3F88820C6
:1002F0000F4942F47002C3F8882001F500521066DD
:1003000041F2FF7050660220C3F8D000BFF34F8F58
:10031000BFF36F8F08244FF440330648C0F8804184
:10032000D36004600B6110BD00ED00E00000000030
:100330000080004400E100E010B5044668B161B1FE
:100340000023074A8360C0E90023C36100F05BFF1C
:100350002046BDE8104000F0AEBF212010BD00BF18
:100360000000024310B5044668B161B10023074A9A
:100370008360C0E90023C36100F045FF2046BDE86B
:10038000104000F098BF212010BD00BF00000343C3
:1003900070B50E461546044686B0D0B1C9B1C2B19B
:1003A00000230D4A8360C0E90023C36101AB0393BE
:1003B00001230493094B03A9059300F01AFF20467B
:1003C00000F079FF18B9019B3360029B2B6006B0E7
:1003D00070BD2120FBE700BF00000443080000209F
:1003E0001FB5044698B191B100230A4A8360C0E961
:1003F0000023C361012301910293074B01A90393D9
:1004000000F0F7FE204600F056FF04B010BD21209A
:10041000FBE700BF000008430400002010B50446BD
:1004200000F0E0FE024B1C6000F0E0FE002010BD7A
:100430003819002010B500F0D5FE034B1C6800F001
:10044000D5FE204610BD00BF3819002013B500238B
:1004500001241A4619461846009400F0CBF80023F0
:1004600000941A461946184600F0F6F80248FFF7BD
:10047000D5FF002002B010BD0410002008B5124BBB
:10048000A8220021184601F061F803220346026108
:1004900042610E480E4A98614FF48061DA61002291
:1004A00019629A625A62DA6218660A485866996650
:1004B00009491A67DA665A6711F8010D9854013232
:1004C000102AF9D108BD00BF78180020E5BA000055
:1004D0007814002078100020FEBA00002DE9F84FB3
:1004E000DFF88080824698F800308946532B164604
:1004F00001D0FFF7C3FF182707FB0A873D6FD7F826
:100500006CB05D452BD9BC6E796E641BB44228BFBC
:10051000344648462944224601F023F8BB6E254460
:10052000AB4208BF0025A144361BABEB050B5E4573
:1005300028BF5E4656B1182303FB0A83596E324624
:100540002944484601F00DF83444354424B11823B9
:1005500003FB0A88C8F870502046BDE8F88F0024D5
:10056000E3E700BF78180020F8B5182700FB0775EF
:10057000124B0E461D4407FB0033DB6A1446012B69
:100580000AD0022B14D023B9284600F011FF844270
:1005900008D900242046F8BD284600F009FF84420F
:1005A00028BF044622463146284600F00AFFF1E7FC
:1005B0002846BDE8F84000F01FBF00BF78180020B3
:1005C000F8B50B4B04461B780D46532B164601D04D
:1005D000FFF754FFEFF311874FF0200181F31188EB
:1005E000324629462046FFF7BFFF87F31188F8BD42
:1005F000781800202DE9F041164C1E462378054658
:10060000532B8846174601D0FFF738FF022D1DD81F
:10061000EFF3118C4FF0200181F3118865B11820A0
:1006200005FB000344F80380E2180023576000FB39
:100630000542166293625362182303FB0544069B2E
:10064000E3628CF311880020BDE8F0814FF0FF30A9
:10065000FAE700BF781800202DE9F843154E1F4631
:1006600033780546532B8946904601D0FFF706FFA5
:10067000022D1BD8EFF311824FF0200181F3118876
:1006800055B11824002304FB0564C4F86090C4F835
:100690006480A7662367E366182303FB0566089B4F
:1006A000736782F311880020BDE8F8834FF0FF30B4
:1006B000FAE700BF781800204FF4005382B001938E
:1006C000019B5A1E0192002BFAD1034A136923F0B1
:1006D0000403136130BFF9E700ED00E0F0B54FF01F
:1006E000FF348DB02022002104A800F02FFF0194D8
:1006F000FFF7ACFE00F0ADFD04A800F0EFFD03AA8B
:1007000002A904A8CDE90244FFF742FEDDE9021286
:10071000244800F013F901A904A8FFF761FE01992C
:10072000214800F00BF9019B23F07F4323F0FF03E6
:1007300023B91E4800F014F9FFF7BEFF1C4D1D48F9
:10074000EC68214600F0FAF8019B24F07F4423F086
:100750007F43A34201D31848ECE7184F184E3B687B
:100760001B68B34201D11748E4E704A800F0B6FDC6
:10077000294604A8FFF7E0FD04460146124800F0B0
:10078000DDF84CB93B6829461E6004A8FFF7EAFD76
:1007900001460E4800F0D2F804A800F0A9FD00F0D0
:1007A0005AFDC9E7FFBA00003EBB000056BB00007F
:1007B000401A000098BB0000B8BB000010100020D9
:1007C000EFBEADDEE2BB000006BC00001EBC0000B8
:1007D00008B5064B044613B10021AFF30080044B6B
:1007E0001B6803B19847204600F0B2FD00000000EE
:1007F000741A0020002310B50446836081811946D5
:100800004366C28108228361C0E90033C0E9043332
:100810005C3000F09BFE0D4B246263620C4BA362C4
:100820000C4BE3620C4B23630C4B9C4206D003F150
:100830006802944202D0D0339C4205D104F15800A2
:10084000BDE8104000F08ABE10BD00BF09180000CE
:100850002B18000063180000871800003C190020C6
:10086000024A0349034800F0FEBD00BF14100020F7
:10087000B91700002410002041680C4B994210B5B4
:10088000044601D000F098FFA168094B994202D0BC
:10089000204600F091FFE168064B994204D02046C3
:1008A000BDE8104000F088BF10BD00BF3C1900201B
:1008B000A41900200C1A002010B50B4B04210B4C7E
:1008C0000B4A20461A600022FFF794FF04F16800EB
:1008D00001220921FFF78EFF04F1D000022212212C
:1008E000BDE81040FFF786BF741A00203C190020B5
:1008F00061080000014800F032BE00BF861A0020E7
:10090000014800F02DBE00BF861A002010B5044635
:10091000FFF7F0FF236A1BB1BDE81040FFF7F0BFFF
:10092000044B2362044B1B68002BF5D1FFF7C4FF77
:10093000F2E700BF79080000741A00200FB407B571
:10094000064904AB086853F8042B8168019300F052
:1009500033F803B05DF804EB04B0704720100020BA
:10096000024B0146186800F09CBD00BF201000201B
:1009700070B50D4D00260D4C641BA410A64209D184
:100980000B4D00260B4C01F03BF8641BA410A64253
:1009900005D170BD55F8043B01369847EEE755F890
:1009A000043B01369847F2E77010002070100020D9
:1009B00070100020741000202DE9F04F0D469DB0FE
:1009C00014469846064618B1036A0BB9FFF79EFF16
:1009D0006B6ED90705D4AB899A0502D4A86D00F0D7
:1009E000BEFDAB891B0701D52B699BB92946304653
:1009F00000F0D4FA70B16B6EDC0704D54FF0FF3015
:100A00001DB0BDE8F08FAB899805F7D4A86D00F054
:100A1000A7FDF3E70023CDF80C804FF00109DFF8C4
:100A2000B481099320238DF8293030238DF82A30A2
:100A300023469A4613F8012B0AB1252AF9D1BAEBBD
:100A4000040B0BD05B4622462946304600F0ADFD34
:100A5000013000F0A780099A5A4409929AF80030B0
:100A6000002B00F09F8000234FF0FF320AF1010AB3
:100A7000049307938DF853301A93CDE90523544618
:100A80000522544814F8011B00F0A0FF049AD8B9BD
:100A9000D10644BF20238DF85330130744BF2B23C6
:100AA0008DF853309AF800302A2B15D0079A544607
:100AB00000204FF00A0C214611F8013B303B092B76
:100AC0004BD9B0B1079214E0A0EB0803A24609FA93
:100AD00003F313430493D2E7039B191D1B68002BF8
:100AE0000391BBBF5B4242F0020207930793B8BF7A
:100AF000049223782E2B0AD163782A2B32D1039BC0
:100B000002341A1D1B6843EAE37303920593DFF86E
:100B1000D4A003222178504600F058FF38B1A0EB52
:100B20000A004022049B013482401343049314F8CA
:100B3000011B062228488DF8281000F047FF0028E6
:100B40003FD0264B1BBB039B073323F0070308331F
:100B50000393099B3B4409936AE70CFB02320C4662
:100B60000120A8E7002301344FF00A0C1946059331
:100B7000204610F8012B303A092A03D9002BC6D0A1
:100B80000591C4E70CFB012104460123F0E703AB08
:100B90002A4604A930460093114BAFF30080074664
:100BA000781CD6D16B6ED90705D4AB899A0502D4CF
:100BB000A86D00F0D5FCAB895B063FF51FAF099827
:100BC0001EE703AB2A4604A930460093044B00F00D
:100BD000ADF8E4E778BC000082BC00000000000033
:100BE000AB1500007EBC000070B50F4E0C460546EC
:100BF000316811B900F07EFA30602146284600F0D5
:100C000079FA431C03D14FF0FF34204670BDC41C59
:100C100024F00304A042F8D0211A284600F06AFA12
:100C20000130F2D1EFE700BF781A00202DE9F84338
:100C3000CD1C064625F0030508350C2D38BF0C25C4
:100C4000002D01DBA94204D90C2333600020BDE84C
:100C5000F883DFF8D48000F095F9D8F800301C460E
:100C600044BB29463046FFF7BFFF431C044658D11A
:100C7000D8F800402746002F43D1002C4BD02368E2
:100C80003946304604EB030900F034FA814542D17D
:100C9000216830466D1A2946FFF7A6FF01303AD089
:100CA00023682B442360D8F800305A6862BBC8F828
:100CB00000700FE02268521B20D40B2A17D961194B
:100CC000A342256018BF5960636808BFC8F80010C8
:100CD00062514B60304600F05BF904F10B00231DBC
:100CE00020F00700C21A1CBF1B1AA350AFE76268AE
:100CF000A3420CBFC8F800205A60EBE723466468A3
:100D0000AEE73C467F68B6E71A465B68A342FBD174
:100D100000235360DEE70C233046336000F038F9DF
:100D200094E70560D6E700BF7C1A00202DE9FF4755
:100D30000F7E914680460C46782F9A460C9E01F114
:100D4000430207D8622F0AD8002F00F0DD80582F09
:100D500000F0C38004F1420684F842703AE0A7F143
:100D60006303152BF6D801A151F823F0C50D00003F
:100D7000D90D0000550D0000550D0000550D000067
:100D8000550D0000D90D0000550D0000550D000057
:100D9000550D0000550D0000EF0E0000670E00001D
:100DA000A70E0000550D0000550D0000110F0000AA
:100DB000550D0000670E0000550D0000550D000098
:100DC000AF0E000033681A1D1B68326004F1420642
:100DD00084F842300123A8E031682368081D3060A0
:100DE0001E0601D50D6803E05D06FBD5B1F9005084
:100DF000002D616878DA2D200029A16084F8430075
:100E00002DDA6D425D480A231646B5FBF3F103FB6C
:100E10001157C75D06F8017D2F460D46BB42F4D938
:100E2000082B0BD12368DF0708D523696168994235
:100E3000DEBF302306F8013C06F1FF36921B22612B
:100E40004B4603AA21464046CDF800A000F0BFFB68
:100E500001306FD14FF0FF3004B0BDE8F08723F0D0
:100E600004032360CDE721683368080653F8045B68
:100E700002D4490648BFADB26F2F33603F4814BF5C
:100E80000A230823002184F843106668002EA66018
:100E9000BADB216821F004012160002DB4D1002EBD
:100EA000B2D11646BCE7236843F0200323607827BD
:100EB0003348236884F845701F06316851F8045B95
:100EC00002D45F0648BFADB23160D90744BF43F0DA
:100ED000200323601DB11023D4E72848E9E72368E5
:100EE00023F020032360F6E724480A23CDE7336884
:100EF0002568181D616930602E061B6801D51960D0
:100F000002E06806FBD5198000231646236197E7A7
:100F1000336800211A1D32601E686268304600F096
:100F200055FD08B1801B606063682361002384F86D
:100F3000433085E72369324649464046D047013071
:100F400088D023689B0714D4E068039B9842B8BFFD
:100F5000184681E70123324649464046D0470130D2
:100F60003FF478AF0135E36803995B1AAB42F1DCDB
:100F7000EAE7002504F11906F5E700BF89BC000087
:100F80009ABC0000014800F0EABA00BF851A0020B0
:100F9000014800F0E5BA00BF851A002038B5294B9A
:100FA00005460C46186818B1036A0BB9FFF7AEFC8A
:100FB000B4F90C30190722D4DA0607D409222A60C2
:100FC00043F040034FF0FF30A38133E0580712D5C0
:100FD000616B41B104F14403994202D0284600F00C
:100FE000ABF800236363A38923F02403A3810023C8
:100FF000636023692360A38943F00803A381236905
:101000004BB9A38903F42073B3F5007F03D02146C5
:10101000284600F09FFCB4F90C3013F001020AD00E
:101020000022A26062695242A261226942B913F0B1
:101030008000C5D138BD990758BF6269A260F4E746
:101040000020F7E72010002038B50023054D0446A6
:1010500008462B6000F07AF9431C02D12B6803B1DB
:10106000236038BD801A002038B50023064D0446A1
:10107000084611462B6000F06CF9431C02D12B6826
:1010800003B1236038BD00BF801A002038B50023AB
:10109000054D044608462B6000F060F9431C02D160
:1010A0002B6803B1236038BD801A002038B5044690
:1010B000064D0846114600222A601A4600F050F9F3
:1010C000431C02D12B6803B1236038BD801A002075
:1010D00038B50446064D0846114600222A601A46D5
:1010E00000F040F9431C02D12B6803B1236038BDE6
:1010F000801A002038B50023054D044608462B60B1
:10110000FFF79EF8431C02D12B6803B1236038BD62
:10111000801A002038B50446064D084611460022C4
:101120002A601A4600F02CF9431C02D12B6803B147
:10113000236038BD801A002038B50546002941D00B
:1011400051F8043C0C1F002BB8BFE418FFF71AFF3E
:101150001D4A136833B9636014602846BDE83840FF
:10116000FFF716BFA34208D9206821188B4201BFA0
:1011700019685B6809182160EDE71A465B680BB1D6
:10118000A342FAD911685018A0420BD1206801443B
:10119000501811608342E0D118685B6808445360BE
:1011A0001060DAE702D90C232B60D6E720682118FB
:1011B0008B4202BF19685B680918636008BF216031
:1011C0005460CAE738BD00BF7C1A0020FEE710B5A6
:1011D0003AB1002350F8234041F8234001339A42AA
:1011E000F8D110BDEFF3108072B6704700B962B647
:1011F0007047836813B9816070475B685A68012A39
:10120000FBD159607047C369032B9FBF00EB83027A
:101210000133D160C3617047C369042B14D84FF008
:101220009842116CC902FCD504339B001365016818
:10123000103B11604168116050F8081F11604FF0B9
:1012400098420344984200D1704750F8041F11603F
:10125000F8E70020704700207047B0F5802F22D0BB
:1012600010D8B0F5003F20D007D818B3B0F5803FB4
:1012700008BF482018BF01207047B0F5403F08BFA5
:101280002C20F7E7B0F5302F11D007D8B0F5E02FBC
:101290000FD0B0F5202F08BF1020EBE7B0F57F0F7F
:1012A00008BF0620E6E74B2070472A207047112030
:1012B00070472120704708B570B1FFF7ADFF4FF0C0
:1012C00098435A6CD202FCD5586D10F4702004D0AB
:1012D000BDE80840FFF7C1BF212008BD08B528B10F
:1012E0002022002100F032F9002008BD2120FCE777
:1012F00008B1FFF7F3BF2120704770B50C461546C3
:1013000010B9FFF797F838B143682BB12A46214648
:10131000BDE8704000681847232070BDF7B50D4642
:1013200016461C4648B103B901AC87685FB1234635
:10133000324629460068B84706E0FFF77BF804B953
:1013400001AC0028F1D1232003B0F0BD002070478C
:10135000FEE74FF4005300204B60704701207047B8
:101360000020704707B5002001AB0190FFF7D6FFC2
:101370000198002808BF4FF0FF3003B05DF804FB70
:1013800010B514460020FFF7B8FF204610BD10B579
:1013900000201C4600F059F8002820600CBF1B20DC
:1013A000002010BD08B50020FFF70AF9002008BD95
:1013B0000369C26893429CBF81685B18013B981A1D
:1013C00070472DE9F041D0E902840546A8EB0406F8
:1013D0004068964220440F46144404D900F0C1F8F6
:1013E000EC60BDE8F0813246A4EB080400F0B9F8E7
:1013F00022466868B919F1E72DE9F843064689469F
:1014000017464FF00008C5683369B4689D4228BF8D
:101410001B19641BBC4228BF3C46013B5B1B9C4222
:1014200028BF1C46706849462844224600F099F8B7
:10143000B3682544AB4208BF00253F1BA044A1442C
:10144000F560E1D14046BDE8F88310B50B46EFF3F7
:1014500011844FF0200181F311881946FFF73EF8FF
:1014600084F3118810BD2DE9F843074688461446D9
:101470000026D4E90195B9F1010905D52468002CAD
:10148000F7D13046BDE8F883AB89012B07D9B5F910
:101490000E30013303D029463846C047064368352D
:1014A000E9E7036A70B505460E4684680BB9FFF795
:1014B0002DFA636EDB0705D4A389980502D4A06DCD
:1014C00000F04DF8A389190702D52369002B35D107
:1014D00021462846FFF762FD80B34FF0FF35636E6B
:1014E000DA0705D4A3899B0502D4A06D00F038F873
:1014F000284670BD002B15DB23685A1C226019702A
:10150000A36816F8011F013BA3600029F2D1002B4C
:1015100016DA22460A21284600F0B9F90130DCD05B
:101520000A25DCE7A2699A4201DC0A29E4D12246B5
:10153000284600F0ACF90130E2D1CEE7013EDFE70A
:1015400023685A1C22600A221A70E9E70244034603
:10155000934200D1704703F8011BF9E770477047C9
:1015600070470A44431E914200D1704710B511F8EC
:10157000014B914203F8014FF9D110BD9368013B33
:10158000002B936010B408DA9469A34201DB0A29A6
:1015900003D15DF8044B00F07AB91368581C106051
:1015A000084619705DF8044B7047F8B506460F46BB
:1015B0001446D518AC4201D1002007E03A4614F891
:1015C000011B3046FFF7DAFF431CF3D1F8BD2DE9CC
:1015D000F047164698468A6807460B690C46DDF8C0
:1015E00020909342B8BF1346336091F843200AB16C
:1015F000013333602368990642BF33680233336096
:10160000256815F0060506D104F1190AE368326869
:101610009B1AAB422BDC94F843302268003B18BF86
:101620000123920630D404F1430241463846C847AC
:10163000013023D023681A3454F80A2C03F006032F
:10164000042B0ABF54F80E5C002533684FF00006E7
:1016500008BFED1A54F8123C08BF25EAE57593421D
:10166000C4BF9B1AED18B5421AD1002008E001232F
:10167000524641463846C847013003D14FF0FF304B
:10168000BDE8F0870135C1E7E1185A1C302002336C
:10169000224481F8430094F8451082F84310C2E7D1
:1016A0000123224641463846C8470130E6D001367C
:1016B000D9E7B1F90C202DE9F041170705460C4692
:1016C00056D44B68002B02DC0B6C002B3DDDE66A28
:1016D000002E3AD0002312F480522F68216A2B602A
:1016E00025D0626DA389580705D56368D21A636B4C
:1016F0000BB1236CD21A216A0023E66A2846B04750
:10170000411C24D00023636023692360A389DA0489
:1017100000D56065616B2F60B9B104F14403994253
:1017200002D02846FFF708FD002363630DE0012384
:101730002846B047461C0246D4D12B68002BD1D096
:101740001D2B01D0162B2AD12F6000202EE02A68F5
:10175000B4F90C3042B11D2A01D0162A21D1002340
:10176000636023692360D5E7626022692260CEE767
:101770000F69002FE9D093070E680F600CBF4B690B
:101780000023A6EB07088B60B8F1000FDDDD4346B0
:101790003A46216A2846A66AB047002808DCB4F910
:1017A0000C3043F040034FF0FF30A381BDE8F081DF
:1017B0000744A8EB0008E7E738B50B6905460C4677
:1017C00013B90025284638BD18B1036A0BB9FFF7D5
:1017D0009DF8B4F90C30002BF3D0626ED00704D41E
:1017E000990502D4A06DFFF7BAFE28462146FFF7FF
:1017F00060FF636E0546DA07E4D4A3899B05E1D454
:10180000A06DFFF7ADFEDDE710B50C46B1F90E1087
:10181000FFF75EFC0028ABBF636DA3891B1823F4A0
:101820008053ACBF6365A38110BD2DE9F0411F4615
:101830008B8905460C46DB05164605D5022300229A
:10184000B1F90E10FFF732FCA3893246B4F90E103D
:10185000284623F48053A3813B46BDE8F041FFF7BF
:1018600059BC10B50C46B1F90E10FFF71FFC431C14
:10187000A38915BF606523F4805343F48053A3818B
:1018800018BFA38110BDB1F90E10FFF7DDBBF8B58D
:101890000E461446054618B1036A0BB9FFF736F831
:1018A000A369A360A3891A0701D5236943B9214617
:1018B0002846FFF773FB18B14FF0FF373846F8BDE5
:1018C0002368F6B222693746981A6369834205DCB9
:1018D00021462846FFF770FF0028EDD1A368013BA1
:1018E000A36023685A1C22601E70431C62699A42DE
:1018F00004D0A389DB07E1D50A2EDFD12146284693
:10190000FFF75AFF0028D9D0D6E770B50C46B1F9D9
:101910000E1096B0154600291E460CDAA389002148
:1019200013F0800F14BF40234FF480630020316018
:101930002B6016B070BD6A46FFF796FB0028EDDB02
:10194000019901F47041A1F50053594259414FF4F6
:101950008063EBE78B89F7B59D0706460C4607D5F4
:1019600004F14703236023610123636103B0F0BDE9
:1019700001AB6A46FFF7C9FF009F0546304639466E
:10198000FFF754F948B9B4F90C309A05EED423F0B6
:10199000030343F00203A381E2E7A389206043F03D
:1019A0008003A381019BC4E904075BB1B4F90E1065
:1019B0003046FFF76BFB28B1A38923F0030343F004
:1019C0000103A381A3891D43A581CFE7C9B20346C3
:1019D000024410B59342184601D1002003E0047878
:1019E00001338C42F6D110BD000000000000000061
:1019F00000000000000000000000000000000000E7
:101A0000F8B500BFF8BC08BC9E467047F8B500BFEB
:101A1000F8BC08BC9E4670470000000000000000B3
:101A200000000000000000000000000000000000B6
:101A300000000000000000000000000000000000A6
:101A4000EB17A65E9DA0000000A00000110201009F
:101A500001010000267C296054E7F58DC8E1246B64
:101A6000C4B28F95277D83B28515DE3ECEF3AA3AA8
:101A7000CFB3967B3555EF8FDF94253DC52B3212C2
:101A800013064C3972D39BBBA3E79B2C26D0C35FB4
:101A90009B2012BD0B607358F6CA4221455E2ACEC8
:101AA0006331C74C00814C33064B703B0A5CA8B4D1
:101AB000717E7AC9D4CBF8E25E4861AC28089F10E9
:101AC0000501EFE87178D33A6D0B7823EA6E112C9B
:101AD000E8A4ACF4A3F9B22191876C4545BEDF02BE
:101AE000B35D842E0675554519D688794E5CCCB504
:101AF000B7549E1868B7770D58E870B04A889AD8DE
:101B000057B8D2E41E6ADF4C168250D74E7FAFE43E
:101B10003E48954584C9CFA64E67BDA5EF69A15340
:101B200023AFF5FD69709D074AFA0918715E243BE1
:101B3000F04EA7369D1869DEFB2DF401970BC81AED
:101B40009DAF64A7FC01D3534ABD84F1695A2F6647
:101B5000EF44FEF8FC6CB76A340E9AD769829E4057
:101B6000088717E4560DB06E121620B0659B6D897C
:101B7000A2CB68D7903FF7B3E9351070260B5F26EC
:101B8000390E8030FF3788CF757F4C6F377B45F437
:101B90001E828F9E4EB48F5152B874374F032BC69E
:101BA0006973B14B85DC76229F937BB79E0AF3C5A0
:101BB00047086681FA52136F03927D02906C52A51A
:101BC0005F486A16F673E1CCDBFAF5C0AB8E51D9EB
:101BD000890F82BEA35C24EF802230AB9398C4931C
:101BE0004CFA77075F088ABC1A230426FAC3F18DE2
:101BF0001B674D655144406A5B8F81EDB1AA2E97FA
:101C00009527590C6D5AE5B990A472490291323961
:101C10008083B272BCD3E8E081E636A014571DA1E0
:101C20001D07A6B3DFBCAE5EDB897EE8A6118FB8C8
:101C30002D42C5C0A4A907F1928707B4F0D24E4146
:101C4000C63532E533F2A0C791AB247156CD0E49AB
:101C5000C2C17B786B7CD3A075AC810A081A29E7D6
:101C6000FCF7598DF6CB17BC03FC7C7B04668BFC20
:101C70009E0985F8A644F0137B763E40A7CDD75544
:101C800060F38F73EC0467360968FD0B05C7AAA1E2
:101C900066FA30F556FE43FA5D669972F403D9523E
:101CA0008700C0B5E980C6AB7203882789977EA2FA
:101CB000C3982A053F26C48182B141D1EE8926A16D
:101CC0002BA028EAD7CE289118BEFAA6405088A0AB
:101CD000CC04DA254A8C41E0AD77CDE1850F6DF972
:101CE0008E55296686369466BC2384B3BCAECE7608
:101CF000CBEA3132D96D43B8AC4150FB957F1FF32D
:101D0000E9E9F6C6B375AE3754A1DB7D4A8B7C7426
:101D1000709448030AB6EB7D8704909F574BD3C855
:101D20005D182C51A47F5F24C2B4DE5ACE868AA0EF
:101D3000DF43BD953B695141C49B31B24E8913FCD1
:101D40008ED6640D982068EC4EF54065103BD1ECC2
:101D50005B34642060B25D702BD088D7B430A5723C
:101D600009BC1F39BC60031A41E5EC5417F66EF745
:101D7000F34EC568089B93294E9CC75AC10D7A54EF
:101D800071C668C41AB1888680E25C08CA5A7B8E24
:101D9000441D0590D134054530998F466F005CBFD6
:101DA000B5CDD441BFCC9FBF2EB0A3B86B8F73B954
:101DB00017989BAF36B16758B44201B436D6C418F1
:101DC000FCEA7331C738BFB99103BA739C7FA90B82
:101DD0003E02B5E4FC7EACA24F3C7E5D22F670CEA6
:101DE0005DC995855B8E19E841D1A176047FCFC28C
:101DF00096C5D447F59759EFD40C2C99CA2C0E7C74
:101E0000288D37072EAD58C2C52045F7E2A9EA8ACA
:101E10007ED60F6DB11BD715D27D65503590B2FEC1
:101E2000848B67267C8AB91DD73D6232FECB130CAA
:101E3000580573BD5D13157ABCA2596E62D326474F
:101E400025B414C4446F6EC8DFC1AD66C60707D0A1
:101E50004601FA067D500E5F24066E0F70EB3E2899
:101E60004803879473BE06B4BCF56B4D8F903DD983
:101E700054722D1DA2F2507E9EEBF750B5810D31AC
:101E8000177C73E25677687E531B6B82050723C16C
:101E90003543D4D5D479A403CE438D5821216ADAB1
:101EA000AB4A9C3A5A17D722D11769AEDA100DC740
:101EB000F50B4E93B086E1C17CC96608E374517F8F
:101EC000F0D08CBCBB562EFD8BE8FE7146844839A1
:101ED0005BAA2051AB4C514CBF2112D76527228FF2
:101EE000E6D28968C138F4D0CFE7CF4C08C9230BBC
:101EF000FEA5A2F6AB2F0F13EF68C43393AF30EEFD
:101F000046E7E5788C7201CB787953F63F5E46421E
:101F1000DC3B5AF558E159D22806EAE422098D5EE5
:101F20001798F600258FA4C120ABC380FA697A50B8
:101F300090FFC82A9717F23FBA0CD74C47E996A6EC
:101F400027278A9DD8256AA459CD7CEC7A67ECFCBA
:101F500095FC06BEF99315EB8ABBFC1A9CEA37D8B0
:101F600045A45A0A96A26F0187944A36CE2692BC9F
:101F700090A8145A565883E07F6BF986147842056E
:101F8000A5C3BD207B6BD44BABD5DCBAFEDE1DD325
:101F9000220A4A23E6C5B0E6D39151B55B0ED11EA5
:101FA00036F799E48D9DB51F163A46BA770DB828D5
:101FB000171986B4A8AD74CB197B96120D159B58D2
:101FC000094FC09301DDA1CC828E7D2E6832D7915E
:101FD0008C8CA4D0B14F8C5CCE8BD2CF955CDC398D
:101FE000EDD2D45057E9F71041A0F4F33E8568CE06
:101FF000952F5B97FA0168710FB2230C883FF32E7F
:1020000095582B3DCE9D15CB02F76B751692DA4392
:10201000F66821D481873696CC41A3F14493BA79EE
:1020200063FD819C2A4E6E10D166E02C9C29F3D36F
:102030000B42478EACD029CBA0D31E07DB6D065ECA
:10204000B16CD5289B4D6E89BCEC371016228C0BD9
:10205000711E19DA018B1A94991CA8FF71BAB76C1A
:1020600001BA0DC6A8C2A403E506DBAF2CB2798085
:10207000D892E4A3C98DABA054C1D4DE2DC300AA6D
:10208000F774EB2D588F0D1652E22F7AF7F2F0BE4F
:10209000EE06C432BCBAA74B5B565745BAC2E4C879
:1020A0004D2890ABF35A459821F7F9AA5BBE26BBA1
:1020B00017AEB6B18F50D99E529EC34B7846479A01
:1020C000C3918E5806C6DAD5F26995E8B690E5DA7E
:1020D0004BBEE917FA610BBAB7F600A8CB59A52B8E
:1020E00079E8230C1D5A8ECE2194585270163BD09D
:1020F000F0E0AC9D444CBD83E6B1A2B97B828C710B
:10210000C5D2940626FE1452B22A4E84B8E1E58F59
:1021100075F057328C6D499F6FDA7D6455890A627C
:102120005A5CA776F8D668A5F90C196D0796F432B3
:10213000C6341BC5BEB4CA58E7A86E5B982A6B0F9D
:102140009344FE62C931E729415884EF12885C79D3
:10215000032D1EA266E0828FE3D5651FD059FDB026
:10216000869732AC8F131FE477484703CDB9CA2254
:10217000F15A622F32091C0A72B9285593F32C7157
:10218000903502DA570D303632043DCAF226185A1D
:10219000C58D2E4269547F7B614E2C93CCBCBC4CC8
:1021A00048D2D184BB5643369F3383EA19611FC39B
:1021B000B9BE02897D224F310C2AE516B628E85EA9
:1021C000C283FC5E7E412C96514505AF9725324F68
:1021D000AEAB6AE85E65548F26EB47D43A1188FBB4
:1021E00062E5E38D25BD411C33B7AD6E41C9336D4A
:1021F000D63DC389C3264F74FFA6A10C91471A236D
:10220000D67C8F22B92A2585D73BE3F590A4FCEE36
:1022100054B5CB1F5AF3A5034EA586FEF7A2981B13
:10222000E9C5AB8366F27765F973BAB03A71FA7BA8
:10223000B7D4480C4DDC1A5D039326AF2A1DF4FD7C
:1022400078DA38CACA628349817A4725A4557E6CF8
:10225000F40A5B89AD8C1340C626ABEFCCFD1EF8AB
:10226000653A2917BD4C745909769B7E9DC9F4ECDB
:10227000982F47CEADBBA9AFC21EA02203B9642FD1
:10228000EBFB4BEFDC05BF9F70B0BA08634EC1118A
:1022900050C99820234DF9E5828FE761DCCBEBBF75
:1022A000CA5C9FF0427B6A1FC7DDE87AA0DD533528
:1022B0000C551DCD7EA392E97CD02542F9E4F08D2A
:1022C0006E9064A2FA2698B3A26E6246EAF5C6261C
:1022D00068F33850EE79E9E62B507059F081E3E16C
:1022E0006AFFF0F1E6F059C1ACC552E32213A7181A
:1022F0005612CDB247EA1332FFD5D8D534F47EB5A5
:10230000C7BBCE0398D1AAFFA88FB9E2243EBF83F2
:10231000E557A8C9DD3F18B221FFC46F576D4510BE
:10232000E9070BBAD829F1304BAC482F5AB537948E
:102330004A48750B1C586609F6CEBB0CAF12E47206
:1023400087D2B50A41936629ED494BD662DC7C8081
:10235000CD914BFBA7030E5A9B4350DA64AADC0FC6
:1023600072DF75FE5A16EAABED0BFCC2ECDF61249E
:1023700044748E2B108364BF4124D69BB295A6581B
:10238000025A15E758C5EC9B763C0F3004188FF2C3
:10239000A6BF09645825BFA607E5B60860A2D93ACA
:1023A000A3AA1724254269F3D1DCFC27876C5D942E
:1023B0004B849E7D38410F6B19FBB10002AFDE05E7
:1023C00042566E94F7399049A21585850BF4D5D401
:1023D000EF1A261AD00F29C45BCD8567061FC509E1
:1023E000707C84A133734E567BC71EFDFD6A05BB0E
:1023F000E5944CD5738A9B3BBD20049087AE871E25
:102400001ED48725DA1093C00C728E0D0498ABB4DD
:102410008881B3B7A4B6BA89FB6BDDEF7B0954178B
:10242000DB3092AE1D096E05E3A80926EB0CC990BE
:10243000FFAC45BEE7C8DAEECA710AC3C066DAD09F
:102440008F389ECF1CCBB64E489BDB59792AE1A52D
:10245000FC7C11D52B48F28314856F3A2B7F580AE8
:10246000AA88A60F419E2A0114E170155F6AF3AB9A
:102470001F6D1E305C6BA05253F95B71B94F042E77
:102480000A50DF9239DF2D175A730718F0C97D6A99
:10249000BFB86685131C12974B5BF5DC7E487FEB5B
:1024A000FA0F42C2DA29B79F2A6BE2DB25B3291C57
:1024B00037A8AA9E9D22F32228DF5532BCC9147C7E
:1024C000E8E0739DCFD1BD183DFF816EBA5495D61B
:1024D0003F0DF4B07563734F942557E299AFF0390F
:1024E000FB798B5F65B1B5A5CEDF1496E8E331C506
:1024F000B362D1D6D661A322B43C35F690EDC52F98
:10250000C2B3374BBCB6E141836614616275D2D960
:102510009A67D38E4F0D9C691AEB03232ED74CA4D8
:10252000B0482C868ECA616126B44AA3DEA6F61195
:10253000B681349B98884448F48D09F6AC9E3702E6
:102540008C815C84525ECA86741E04CD268038A4B9
:10255000A616E7F48EE41DBD477992DA5633ABF93F
:1025600095E3401BC749D2E0C13389BFA25699CE3B
:102570006399ECEC6BA3BFE3298C2E233B5DF81E23
:102580008BBFC3E1DF374CE4722E9E2E6DD2313A01
:1025900030F901A271906FF9F9CBC79C1AA390B9D9
:1025A000B97B4975592DAB9466470248E083527751
:1025B0003A03FDCE07A23749F89E77F18DC258390C
:1025C0005D35B9866C645601FE4ED2632F93FA2BAB
:1025D0006D895FB9FD2EC7BE6165FD1D65DA72CDDF
:1025E000857C4AD24907A385BDA2BF83229DC0B284
:1025F0006A02FE61E32E3B6EB50D88B3AB75CCB8B5
:1026000074C260D3384F040A81E2ADFE03084CBAAD
:1026100074C4D27F3AC551235E92AE743D31599F46
:1026200013A6BD6639B50E921E23A8B6B4BD3E13DF
:10263000144F1A260A9D119A92E9D4A4BCA2ED0A5D
:102640007B8B435406618FC5CA09D54655C14E7769
:102650006373485109445FD9BC05B3E183997B0B8F
:102660009C1F3A77ABEA31B34FCFF75A06FDA2FC75
:10267000407B106BF856F07AABDB01B2193DAD2A06
:1026800021210BCBFE0ECC2EA771EF126EE1198A21
:10269000A7F4626F47F2410D26D9B7821C13EE02F0
:1026A0004B32D2A4CA763E2D5CAD7442157209330A
:1026B000F2DCF433936E825199BE0A57FAA7208B4D
:1026C000128C965088793FDF7FEFF7B5DA0C67D12F
:1026D00001E0FDD21DB424103436F17DE15A7FE2D1
:1026E000C2C38B7C15A6D7F8088BC38EC7BC7B3AB8
:1026F00042E749C689D691E4AF2A3E135278CA15FB
:102700001A91D7093B4407F829812B18633D022809
:102710003FCD71A25CB6BDE440C5DFF67E2985D908
:102720006BC3915758F74F1A5BDA59CD65915E3AF2
:10273000A80A13969C1AFF6FBDF90EADE0168C081F
:10274000B3A01F64155F36A0C05C7FBBFED8A9563E
:102750000BACF25A7BD616E668F0C19E1A9AB7B552
:10276000DA314C2A1CB4A093738610D209A80CCD80
:10277000AF28FEA6AF79F2BA1FFDD21BC073C7DE29
:1027800017028D4799147484B935CA5AB403A79AAD
:1027900024DE42A67B044EACD50F6453675C02581E
:1027A000CCD8C8C7EB4EF96AA3F915B2E467014D5E
:1027B0009947762B5C3EC3873B4C97E549397D951D
:1027C000501D210727515251D94FEBCB3E712A4F53
:1027D000A6ADF599838739D7F95CFE4C1524A47210
:1027E0008D6F27E68C4CA6ABCDFB3B69B7ECED7645
:1027F00030696C3E653FCC34DF7851DA8E670E0865
:102800007E5B99260A7F0852E571ADFFC748F8E65E
:10281000F7103D3C8F178C11FB2ACACDC69783BE9B
:10282000701C815BA088DFA7C9AA38EE58E60D2B83
:10283000ABCA1E5DB903855B95C39F623096616329
:102840002C998D101568B3F8CCF292C0D25F968C9B
:10285000F3BDB1CD5AB47B379972ADF3B1AC6AD840
:10286000A1F0517A804BB367C262F2F58E5204FC3C
:10287000572C247AA237A37CDDA4E349F8BF49662C
:102880008FD555223A51B2ABD6A961D0767EDEF112
:102890000AF79733E79A1D34791106EF6307892801
:1028A0008383B397AE87342990B6C03AEA5E4FEC83
:1028B000777A25901BB1F8A358E99305DF77F843A1
:1028C0006A258B76C51EB39F3AB4E160274191908B
:1028D000E29E04DED2D823D05D57201C77747F8817
:1028E0004859FCC3FB54247BF38CC76DCE04807B1A
:1028F0005CC677CBA5DCB549DAEE4A38FD909D4041
:10290000B23546AACBFAD193879C3F51D42B316183
:102910000D884D5CE56405594FA72CD8FD97C0B3D1
:102920005780A8E7A8CE9FD7E104A6041A3A796693
:10293000EC7A1960BDDBF7A409DC8D044F98943460
:102940001BCFCE905074538AB916693372943FD816
:102950000399A0E940649FB355F64E8F30C8F2C981
:10296000F89E2957CBDD84A3B93D12D12636AA188B
:102970006F3BD9D98D8431C5FB4598CF983ED21D88
:1029800093B351088F8FC3F0D0F17C344F2DB890A2
:102990003703CA800E130535548DF4F9EAC26783F4
:1029A0005F2D3FE92F43F97148B99D6E4A471B5689
:1029B0004DBB4A136FF6A7F07832ACDCC5F5BA0907
:1029C000D2E8E687D36302DEB07055C4DFCEC525FA
:1029D000B72705013E0E7C38D8EB058E5F6C186872
:1029E000F4F64F2FD4CEBFBDAC30BE0DF8611A2225
:1029F00069D64BD8549DCED29B90382A7A736D8F6E
:102A00009C03B8317809D5F307195CDE80E76FD7EE
:102A1000BCAFEE747310C4EA3F427860E6C81AB6E1
:102A20008BBD4B2E935FA2D36DBEDF9D44F556E464
:102A3000B572F83E6E30F9705B35E723B462FC1076
:102A400055AAF7969A8DFB17E949F53F69BE78F1CB
:102A5000AFD9C7F4521A28C3AB6C0B57B31118C7C0
:102A60005F305C8E48A76BC499DC9DCE045BA0AB45
:102A700049DB6C058A504D8F57C5B0EC770A90360C
:102A800056AEC81D99768865FD12A7BF48D5D226D7
:102A9000DD2E73ADE16B26323AABC0F5543F3B0AF5
:102AA0005D180B9F3BB0E2230999EF9D98C6C0903B
:102AB00043C20BCA5B0D0FCDD122B6F89F34D08A2A
:102AC000609F06040D6E132825A107AA04A17C8926
:102AD000185D3E1F094F007C6652A6181635630725
:102AE0007704CB1B6B9E9177934E89F3C6F92075C3
:102AF000E7DB7DDBA31E4084FC68FAD7291511B003
:102B00009217B25CE34BFE06EA748FD50B3149DBBA
:102B10007757094A3BC6CADB973EF26879D15141E3
:102B2000985ACE16F5BA27D9F8BD90647CA32F1217
:102B3000B8BB011C8525F4A07EEC9A0EB12425F6C5
:102B4000AECA5ECACDE2C6BC6C362874A18258F10A
:102B50009CDB32001909D6FB29254B592045BDFEC7
:102B600007143F97E678E2497CA5AC55A1459A7ACF
:102B70001F7C55B8531A8D4B67CE4371D8C0D4957E
:102B8000FA814C636446870E58AA1B3701F4AE00E5
:102B90005A114A0B503E3DC62BAAD854D98263F530
:102BA00030F3BEDB201123018EE636425248A233B9
:102BB0007E15929AB2DFADB3D2A97F5B03EB9DD2B3
:102BC0005E50FB913A919CDB4593CC4B7CCF5EA54C
:102BD0004CBEA4D36E2E3D82BE67C126049C4F100E
:102BE000C374FCBE1374DF5048E79084DD598D2810
:102BF0002B959C554CC458744DC025C437456A0666
:102C0000EF033B8956A142738362061D2237F1F818
:102C1000AD3944A76BE36AFC3C71FE4F3230791347
:102C2000B688CC81874C2B9F9EFB106F315EF4EEF3
:102C300003E249A706F755CEE2B520C57BB01C726A
:102C40009656C3348B52031EC7900233D311F662DB
:102C5000EC94E64D6ED17CC6B68123574A0DA3167F
:102C60004AF85F3A7D066AA5E6E2F2B940DA6F2AD1
:102C700010D5B144C4877D0307203424575992BB33
:102C80000672F5C7307FA9CB4D967706A1BD909708
:102C900089FF79721768ECB04B8C64A1CE8013B1B8
:102CA0004B93541A4D5ED2787461CD19ABC5C1698E
:102CB0004F0F2F8A21B13497CA354630E226ECE90E
:102CC000FB2BF8E5E3C736B97F434AFC7944802FF4
:102CD000F80D423600682F0BCF567E4145D7CEE423
:102CE00088ED02A5AB0AD2DAF3470650DEAF20909A
:102CF0009D78900A1CC81240540486F445B13E8762
:102D0000028E7FA4D4C68BC6624F62668B9C053B45
:102D10007034CFE2EF04A4D1F76DE00B225B16DC38
:102D2000A8A2717BF7236980E80E1225E9557A6223
:102D300035D4EA948D171E2FC20C17A5DA810EB276
:102D40003191C577546B537A12754A9E2435675674
:102D5000182871C9D23DD00B878D1769CB6AF9AE9F
:102D60005634DDA8B247A46BE8A3B776DD5F70B236
:102D700000B6B292FABF3F64882D2032E7BFC65931
:102D8000BB511108F152AF3AF5C8317CCDCC3708B0
:102D9000BEE8E3FDA9192EC8E1E67AC5A05BE6A767
:102DA000DE0E74B1216B7F974B85B39744D47A853F
:102DB0008243D1788FD889A50855A47AD963363152
:102DC0004D4EEEF2C1902372DB53DB3CFC3D097F9C
:102DD00072ACE7264561FC008FF8180FA4C213EA15
:102DE000DB67D3E6D096297A81979A88092D110E50
:102DF0007207155782AC8B76597F5AD7CB7B63C24B
:102E000007CEAF040EDAA335265D5E2366FE484A80
:102E100090582E28D2835AAEBCFDEC9D02F8352D79
:102E2000DF658EA6C96DB7C6A977BAEE0D57CD522C
:102E30009C05081AB711F84F5A3EFFDFA5D465E884
:102E4000CA14257FA693F8461C2C2D4DBF9C83FAEF
:102E5000433813FE240164A2A32F0D9D42BDE5F962
:102E60003868CC7115F6B52B80DF9D715213B0A177
:102E7000AEE526EE21F5BAB4EABDEE1EF4658AA7EA
:102E8000079F25D161CCF3BB6EB437FAD92BAA6367
:102E90001AAD0132084529FFA6482299F97B99B558
:102EA000922F6995B9532C79D5600593B61E39C018
:102EB000BF006D904DC25EABB4BA8CA7DAA2C1362A
:102EC000E6683F9E9C72CA3F22ADF62311391C4032
:102ED000EFA9FEB1008DAE45A04FA953B451DFE07C
:102EE0001687C81B2BC004FB0C5B69AA0D60DDFBB9
:102EF000B9268A6D9747A0941FAE64EDC3389E8CA7
:102F0000D6EA1D9E10A6B6940B7B1E80C88933FDA1
:102F1000AFDB36660B077C21C414B1719559ABD178
:102F2000E6820AFBD1FFC3E49185D2FEA248D36DAD
:102F3000B86ABE4FC6CBE677853A54B95E9D40B5B8
:102F4000E0D33191D1B67E9454AB1C5873C1E409DF
:102F5000D95A876B1ED8FB328E9F1E9A632200DCE3
:102F600018A87E2579FE95000E7D77BAED2BB81254
:102F7000498FA62E9C9C6C62F3D263F2B352A57863
:102F80001BBF46189DE2FC1EC2BEBE4A2907115552
:102F9000B00E5E958364B8020C368236CCB9C9A4F3
:102FA000C65FD28DD47ACDD271FFEBD796E9DE5EC3
:102FB000772A27A3E91A21CED0EA80933000E01CBB
:102FC000011981CB84282667C19CF37CFBD80DD1E5
:102FD0004D0D55E2FA04DE64AD2766992E9EFDC2C2
:102FE000B00EA97F1081B4DE7709E934545BAD538C
:102FF000BAB46246FE015B56B6EE8FDC947399203C
:1030000023D0608524983D5AF09933D9094B03CADF
:1030100020C287D0112B9F4276F8E6F3E8BCD69FFA
:10302000501726A8DC5D9950FB80F7BBCFDB775E9D
:103030001C1B74F85400337C667755919587FF3AD2
:103040001A46F3E6804BDD8DC26C65C8C6D03CDD08
:103050006BEB0FF42F30C5560DB288A77C14D11836
:103060005947656E0861884FEF27DEFB1EA73BF6C8
:10307000474355A015EACD140F0504561028B61382
:1030800094F50C5B0E96A9F063506B235159759B18
:103090004E97119E96CCE79E113FAD5FB38361388A
:1030A0006FD579BBAAE33A000E932E1C1EE79D1440
:1030B000E8192155E88E2CCBB8813EA9EF7FBB5D86
:1030C000CEC8E6D8735F0DF30FCA518FE197FA7738
:1030D00030A2BC2E1A58D4B719695D8A8E8917732D
:1030E000309DC06C18ABD8618583A197E3A7815749
:1030F000AFF2647692F251E9C85DA61B44AA24049B
:10310000A68B8B9E7CBFFF0318A2F38CFFF177DDAB
:10311000DA41054AD9D6833C063E61FFD1DAD1CAED
:103120006D379E407CC38127B6DA92D6FB07031722
:10313000444E1AEEA73AEE8BE6A83B9F6E60E9C0BC
:10314000663F230CADA7485EED6E0AF43DDF679540
:10315000910CDE02005849DF0AAF8A2D60D48CE45E
:103160001619DC18B56347BFF13F2FEC67951FB404
:10317000B5157CE0728F2B1914124CD8FC8FB9A6B0
:1031800098FFC06D21A0A07D3965FC86466D9951E0
:10319000E71259D9045F3F3E85F0122043F7399179
:1031A0005D096D65724212ADF923644566E1CB138A
:1031B00010759863F2F76F6BFB45B430D90579B29F
:1031C000993729CED170DC16474269173657B47D3E
:1031D0008C1AFC26054571BF3F8C95AFBA826DFAFB
:1031E0009AB12FC6264C433B9A62E8D80C3F7145F2
:1031F000947626EC7AB2A0DAB4FDE6F86F3445781E
:10320000D658BDE0865449E1AEE241E62D5075F551
:1032100066CBF6C1D04163D66B7736A7D4FACC5AC9
:10322000192BA44C447AA68E1FDE4B0B92E9433730
:103230000C8D04A43898F843F8A11812F9BD6E60FB
:103240001670CC142E82FB11D3A62B369C3DEAB20D
:10325000BE65776BB33D13C8603D9878B4D857709E
:10326000A09B4C486ADF034FE516C3BEB855D08C0F
:10327000AA27C1199C8BD75FD2DC299C44C628356C
:103280001BF1A25A60E123070BB95AE3D69002F36F
:103290004803F68C9637A1855716DA2EB0BD6961C2
:1032A00009DD6D1B70531B07DBCCBDF82712718540
:1032B00005B769488B3BE5FEAF2E2480455EE9F9F2
:1032C000131788D48B822552E313772A9195984956
:1032D000C540DC51D2DC4F8C88B26F5AA3BAF8E0FB
:1032E000886819D0D89FDC5E488BC97F9E8C7B662E
:1032F0004504DE43FF7E9E232B1B634D465DB25883
:10330000F899CDA521CCF38F927BD2E68813D921F1
:10331000D269A1F21865C503CC83AED84CF7CD6550
:1033200096A3E21674D9FE596DE5E36E7EB19BF566
:103330002AF8C415AABCE4ED18E62996C4A589F2BA
:103340001B3336E53FC27B82A1E40C647DDCA9BB64
:10335000671EBC621E5A0CBF9C1D682097A0B3D08C
:10336000A50461CE90FE463167CA5B545FE07606E5
:10337000B3AFF6EED9DB2DBC190853B28E312F4511
:10338000780F4CAEE49947AF0DBB0EBC6A1A3F47AD
:103390001F49EF49C2709E4EE7D3E113BC0AAA420F
:1033A0005D537165DFA12494686C7534E3D87FCBDD
:1033B000A8896EA72F391946D95D4FF56C3C3D267B
:1033C0002EDDFB07C6FC0553928FDBBF7A9BFBE12A
:1033D000109981AB92A8E04B95410B28FA812CB251
:1033E000EEB03490654769B0AE5BC7429BE9FE39E9
:1033F00073F4F89786B59F4CE2A83F9022A317C5B7
:10340000053EE6E436690B276F196A4CD5C4412B9B
:10341000205D00888061339C7DEAD0CAC48BF3298B
:10342000CC68F419E40FADC52C55F565FECCC97F09
:10343000B01A5B00B50B2543012C6B1EDD07BBF3F7
:103440009010A4169E654BD42EE42976EEDA5149ED
:10345000F1790D3D55F9AD95FC8F92B82B51C7050B
:10346000F107F3AD946ABA92880C738131DF43F3AC
:10347000B9953C4972E4BF577396AC27555183CE3A
:10348000B5DCD99A9940F3C561D93BC415A11D3A61
:103490001C73A5942A96D95B4B389790D60DC276AB
:1034A0007EA09FDF17A50A503E676259C1444EDCDB
:1034B0007847826D0AE1B1463E14FBFDDE116423BC
:1034C0006FD95E35DC3ED19A02E540E0BBB803150A
:1034D000165133BB8005ED8057F1C6322FC92951F3
:1034E000769A4A414CD97BA92D5ACFB1ADDA953D98
:1034F00067BE989B838C535F263BE37383BB294F46
:10350000B2BB6E5C9BDF831BFAEF1B83AB019EB3E8
:103510007EDF2C7D47E006F26490C116A6308EF562
:10352000CFFB11F425F8AE3484ADE934CCD2E7FEFC
:103530003AB751DDB8F994CD35156EB6CAC2EA2353
:10354000F7CC5A05E920BE6515EA698C0ECC33B379
:10355000B9AD5D097EF08504B40C79DC1BE687C843
:103560007A9EA0F2AA134CC64EA6876AAD8C3C0B7D
:10357000054A99862963529DC12464AEAB9CDB1435
:103580007C350BD9E90763BAB4E33AC0AC8EE3ECFF
:103590003884644B49A35E79FE81E15240C95128C9
:1035A0007C656B31D1325B310327318F00A979DB28
:1035B000D72CBC907398637BE776E75B2FB1FB61F8
:1035C000802CFC636BC57C10F17BA63F4E0683E725
:1035D000DA668A72B69A56783592512570B36DC400
:1035E000F4A1C2B5F453B7D553CA347C0F448FE06D
:1035F000DC699005329A66800E529847CE0411130A
:103600005F1EF0621CCED23CA2376712E32E3D351E
:10361000CA94DAD70828CCD40B660F361909EBB553
:103620008BC5B4907EF56E53477AF6F40E381423AA
:10363000DF6610E199CB39E985CB89C640E36EE6B8
:10364000AEF50B151B8691737F6F9B05672176F393
:103650007C25D14237F3A0E84E628E6F8E18EEA61D
:10366000309E9C92AE9124299122CA93AC12C4CA76
:1036700023AB8BB664D1FE1BFBA5B58EF38C533701
:10368000BBE46887DFE46B32497006ACA6046031A6
:10369000FBCF13A00294C1447522A6E22569E26320
:1036A000AA692E934F57254E7763472D48828FDBAB
:1036B00061E51671F069F82F6A21506957C7D0DDAE
:1036C000F3345005F67A6E2C2254596555D1FFC05B
:1036D000E7EB692E2DD298FA6E6D1237259976C4D4
:1036E0004111E03CA36AA88061841B2264ADF4868A
:1036F000217B391B5B040EEAD98F777E9016D0C0F0
:10370000AC2A96628854C561E056A8198F8E2F9F07
:103710000FBFC54E4A3D8BCCE669ED373750C7C663
:1037200056BD245DA5919504638AF897599E1E3174
:10373000F8909F2EB95A672DCC3D002BBE5DB69EEA
:10374000D1897E6A5ACF2B4F42A86BF894F18FDE55
:103750007A8F39F789204B4BF251AE1EC57B9E788C
:1037600058242C67C8AED630314FF82FD01DA9B4DD
:10377000AF8B5C5F18407F10C15501CF9F4783A17D
:1037800031CD2E6EB9D458E0615ED3A3274B39C931
:10379000D337DFBBB494A875E2D618C4E24915113B
:1037A000466E60F825360121392DC864FE4D0A0B9E
:1037B000D000CE58EB3ABEF5CFE6722C61662340BE
:1037C000C5FA485866A2E1CAC51E0058F1FEFA665D
:1037D000E0A3E47C9FCE492A58DF1E45DB720948EE
:1037E000D8DD26E348BFF62C78CB84AEDCE11AC2E4
:1037F000D082C4B831FCA0C4D56A1C4C5A4F38C022
:10380000EB06C8269E547BB33D72787C7A52D0C5B5
:1038100099915FFE15543130788F68A8A0587A4985
:1038200012D0C8FE4FBE60BAE997122475450F3614
:1038300023FFCE6018602E592966A20D42EFFC5579
:1038400063154ECA0E58CC00511E3F5E99699D2FDC
:103850009D9BFBAD668F84482F3E9A2D00263276C5
:1038600015AF23F6625F53AD3D046CE54B78ECF683
:10387000A95FA16543EBF6B71259879A243C0C1C4B
:1038800050641630661E6B0B412DA0C7B9CF514551
:10389000AF6AB5354DE7A965405F253AE639932D06
:1038A0009F2EB4F240044E50D47F91101202A8B95A
:1038B000C03239C367324100803E15C311CFE143A6
:1038C000E1203C55A7F4082B5EB7130DB9AB4A6154
:1038D0009F0488846EDC64EAA30996EC2153264E8B
:1038E000E240FBD9B7DA96F1EC2ADAD8CB5BE60EE8
:1038F0002F9A80499363618343A1D1BF3578F7D96B
:1039000079D6308F3AC8D285309225097E580F6C0F
:103910000D717F25E8E1336FA45E893768FD2C3097
:103920006DA6A664F9496E03E6BE75E76AF118CB89
:10393000E20CB9D041FC2F5070948A8689B51B8F58
:103940008F9DB25FA0D236CAE83FEE57C677CE85CC
:10395000908ACFB2B3299848263EF5E2A035DC5BC9
:103960004AB1160D78F487E9CB90FC7A295BE2B373
:103970003DA4BDCBD8F9B8874FE18E70F31BFBF2A5
:1039800008C951FE0FF42828DF19F4DF253D96E51C
:10399000325C2410723C1D8F97C01E2E8206589DEB
:1039A000D9913DBB0602D1C898C885967F7656ED61
:1039B00066E8DD2070E43E32C18B1E62300F77D6A0
:1039C0005A56955B89D8FA7D9370A6A5311111C519
:1039D000B6318F16C6FECBF9ADB2E1DC26962C2CA3
:1039E000E23E6D0CEB3C478063333140AA56A82C75
:1039F000C8F9977B3E0ED32BB9EEE7CF0FBADD7334
:103A00003DF09B11F54365DC6D8BE64151616DAA7C
:103A1000F3E7AD633B677264DE7E2B2AE4F67CC17C
:103A2000D775957E35E8686C93D149E0976A1BB0ED
:103A30002C75D65B77CD52CF6D899AE929D2F8B132
:103A40003E66B4BF9E57DFD7F5001D5FA3CFCD36CE
:103A50005771F967A7E5B3FE98AF544B27A454EB11
:103A6000122261C30A718F83893EB4650165D41344
:103A7000DBEE8FA3A96B4B8860E0C738847977E8C9
:103A80008552A461BE8DC44A898C3FC28E16AE9900
:103A9000D5D28F4B16764CD0C492A7D1864C539278
:103AA00016590C472884039F32259C990A8620309A
:103AB0002250826D794A444905A5ED2F560A488C5B
:103AC0009B7D400F8DCF27A6F56F14C49CD7A90D01
:103AD0008C85301936404344754FF411B913593968
:103AE000D02C3A26C612330833AC28D0B814386A22
:103AF000563A1C33C24D6AE0A517039EE0B54B61F0
:103B00006F87DC66A4E236B0C115AE99A8AAEC5264
:103B1000D11C56FBBED6A24F3A2EED2F6FE07BFF95
:103B20002246F9692F2B35D2A46C99BE6AFBBAC222
:103B30007E0D7CFF63E897C66AE0002A3B78485018
:103B40005CEF873E2FA8A5C2C1191C76CF2ACD35C0
:103B500021ADAF5750ED97E64028EF59F2A58F18E9
:103B60004EACA28C26A227119201D0C3C1D0061E52
:103B700021657AF664A6C402908064AF8835C5B426
:103B800064942062CC9589E7D08BBF363157C2F35D
:103B9000DE6A4CBDC64DD4F44E80FBFA9271C579F5
:103BA000CADF7ECD02F3F3C1D4CBF18A359049A1AF
:103BB000A7435CFCFFCF61E0CB9AACD416BFAD74D9
:103BC0001ED43692A22BFB4229922C7AF8CF83E79F
:103BD0003E21B4A90A87180A526A8E387DAD309EFC
:103BE000F4F3FCC86D2DD543808C40D36F9488834B
:103BF000269F012C0DEDF25E004F76634A1CE8759E
:103C00007886AF650A5C69845D11A83C14457FF035
:103C10002E3FF579B6FF70A0E42CDD7A88B7AC6250
:103C2000EF95C6F5C0BE5F274EE195F6AB0259B7DA
:103C30004EC2D92D39C369CEB30DF30FFC601D34CC
:103C40008EDB038D3053109CB96F21B9071390FDA3
:103C50001C16EA07D777AFEE94318AE798557BFBBD
:103C6000D57D4542D2CA9BF162E9E51250449909DB
:103C70008C822AD8670F9577CA941FE5E8D69904F5
:103C80000A563AE5475335B8F3A3F542672060D9A1
:103C9000E9E6256F56EFCAEAE83F660A407D7FE213
:103CA0003904D3B78FBC34B644550FB3C9F21149A8
:103CB000ECF68374F1F06164F2F5F4369E7D18D76A
:103CC000A65F70FB70F39685E8DC605AAE7B2E1D14
:103CD00060FBB467E24DB8B105A835C62AE4781296
:103CE00093A4234B5921107B19B8EB0E92B212A466
:103CF000BEC00BCF9529FCD5BDC1F6408E06C39939
:103D0000EF6CDE4E008FB7AA2562A42A21A5510BC5
:103D1000ABC0571A93B551647DACE25FCBEA00B6F5
:103D2000AA46DA1E561541F4FA7F5307358B4752DF
:103D30004FD5B1E07B529DDEFA463E64E673B29405
:103D40002583FE340379ABE16B13EC92C2B4E497A4
:103D500022D0A55DE41FE00AA75E9B9742FBE6D652
:103D600065A572CB1480D4C9018A6367F3554EB040
:103D7000252BCB1EB8F64ECC61B315054DD65AC7D0
:103D8000D10B8A860D3CE9C6676CF11D9185122224
:103D9000B517ACE300600E26E0EFF3F1F4DF7B2112
:103DA000805C136957ACB2E135171125F1C1686029
:103DB00040BB7947547BA014B365942559EF54CA8E
:103DC0002DCD92936A01097507EB9C5DE9F4BB8ADE
:103DD000044924B5769419540F2A1434D54EED8431
:103DE000338E4489B70BCF051714DF1B071797A332
:103DF000D146461C0102C92233961A4C873ABB3F72
:103E0000F32A2C7C346632DD973CA737FB7F1FB149
:103E10001776218AA3A59EB4A2D1639C3D393C3775
:103E2000E3EC35A573B3D840070758641BC5089960
:103E3000A0566734CCB29BD43CCDCD5668758F4A22
:103E4000FBADAA6477BBB388FE232BE087CA264C60
:103E5000FF6EE72AEC20ACD1C6543AC212C5E8AFD7
:103E6000A72371B93C4AF1B097CCAA4F77137DA62E
:103E700081AE80D4056150A4B340BBE7F1B4E1D674
:103E8000A11E89227383ED121C60FDD9C4A2458F47
:103E9000791BDAFBB3341E9920AFA11FC0134A95DA
:103EA000883480ACFCC781C2665C482549B06F3B52
:103EB000A65D61B4FAC1B997162402A3B96C97AF95
:103EC00028520891146F5247C6F215B9B6191B95BE
:103ED0008F8367C1B0C46516B6BE47EDFF7A5A2A14
:103EE000FE9E919BBEEBA99B8B9283EB745152611A
:103EF0003E45994CF957D085CB4B5E3648F3244864
:103F00003D59EAC6CE2FBD617DEB5A47079A502432
:103F1000DBDD96E1FF956C5293BC317E56C1276282
:103F2000589BFC8997C5E97840CFCE2121017B932E
:103F3000ABAF08114542436F579B6A70401C171680
:103F4000F1592622DB52D2F69C22446EF45D3C49A4
:103F500098C0F4D5184ADC0668B720611E1F43B12B
:103F600085FACF17EE93D66A614B3437B110CB1F69
:103F7000E47714F089AD0E09FFC382272E66717EA7
:103F8000893C185544493BD8348B646E3B447DE9E9
:103F9000B00E802CE7B8C00251021996D89AA01131
:103FA00093FBE703C0B54A5D45A7DCAF1158762EF9
:103FB0003F6E4B9432A4845AB8A5A23BF8F4569BAA
:103FC000AA8FCBC3A3E523B4E429A337E8673796C8
:103FD0004BE6B01CFB33442FB9EE33BFE54E645BB8
:103FE000931181C052D36AB36993B60EBA43E9798B
:103FF000F308E3DDDFDA037D3CD2D7D5E4D199F1D4
:1040000013A26602A3F1EE18806D2A139F863CEF7F
:1040100077F1B196C2BAA2F132BB34E957B25A6312
:104020006F6772E5AB541B256D28C28949CBF55CDF
:10403000C1428334F8B2C756CE36113688EAA3F2AD
:10404000CD971342F9C82E96B09F7CB314ED763EFF
:10405000BE0EFA279E4AC1935DF177D9582417CC3A
:10406000A4707D02085A76B6AF3D935B4962822BFD
:104070002E1082CBE27DBFF1CEC304567BCFA35C72
:10408000C68A0D0C9F2FAA9674D75EAD72A01087BA
:10409000CDC85047124A63383B350932D913E75C23
:1040A000AF89F91CA5077FB5623DF96BEC7BF5CABA
:1040B0009694588295B2D3FEABA3C9942567E04E7F
:1040C000B4AEA9436020AA9CF1ECCA5C641742A676
:1040D00016004BF7702B4609CCBFFF1A074E310173
:1040E000658694BC200D4BFE4829AD84749BFDE38E
:1040F000F5112A2E2DFE90A2F31EE8927598D40594
:10410000C11DF558F1B040F6FC55F3E5D0A54E6A57
:10411000B2F902391A5DA2D4F5BC81A05BF2605FEE
:10412000B55CEDAB7E320FD9CCCA4720A900DA5E70
:10413000114D67990D012CF402E66F511D57344162
:1041400083AB23A5E2F0F29B6997B34696FCC9CDF9
:10415000CE21E822502220334549C46B103AA641B3
:10416000FCFADB924256B676339888CA2A1C89CA72
:10417000C51466067015D6B79E5E354A0D125629CF
:104180000B7A66CD38440BE6EDAFC2E0E89BB79200
:104190001ECEA6651E2FE33D4860FA1E69A3073EAA
:1041A0001E28582344C9E2084D79ED8D3726BC5AA4
:1041B0009A52F7FE3F6386EE52D4DCAC82299E7998
:1041C000F9D9467917CAB87B0D45414BC208F2654B
:1041D000603DE2116C0BB8A3C4CFC025081E8ED57C
:1041E000B6BDE98B622D2BD11DB0787AE17F1A72B2
:1041F000E486E2DD4FCD2F6DDE9E62D28657648469
:1042000055AFF69315E7FC69D46A54DD4A94D2DCC5
:1042100016A1F148536ADD8717B9A8185A4676DD0A
:104220005AB5ED3CE5A03364C65F92EC5EB9B15F70
:10423000C6AD874BC7F5BDC6DE47FA3E57C97817EE
:104240005FEAC45D180B2EC5F20E168F7A3AEEC6E1
:1042500093EA51A18EAC1191C249EB0C1F688E55A7
:1042600030BB9A4F57BC232B1C0D17435BFFC41662
:10427000854BCDDD5F326DF655A9B7D708D1518C8E
:104280005A21111A0C4C59BA2F4CF86E594FA02DC7
:1042900091409F233958F629C519E632C0B171EC17
:1042A000600F2F273D4D851381FD3190899C45631B
:1042B000E8E2C86E0768C5A2575F65C3AEFAFED5CF
:1042C0005C246905612E5D463A984344DFD3D2B33E
:1042D000AD67FB94FD289AB6FE6042E094A60A17EB
:1042E0008DCEDA594583C42DE005A59C28F90649F1
:1042F0006D918FFEA82446510260A7B5062EC2DC40
:1043000093C91B43EDE1203ECD0996072082E0AC26
:104310002B2FE80571E732B26852F3F86C988AAA3D
:104320001E7B45E7D41B929DA2BA3A56DBEB01D91E
:1043300096F1E80BE2A30F1D4BED84D89C8B86759C
:10434000869ACC2DBDE1242FBA8F2711FC7B2584C2
:104350004B68046E358D729184C1157CD662F5244C
:10436000AF0A46ED6F51CFCC16A3115FF883278BB0
:10437000055116AFF3FD91258A1D9AEDE48844CCD2
:10438000FDDF481A57199639A93D19722175642D18
:1043900063D2045CB3D094D8222576EEA7FA3D0F01
:1043A000AB49823B7C3F94AA6B3247401E5BD71BD4
:1043B0007E9B863F4150CE33F797CDE66359B47468
:1043C00006FF7F4CDEA92366082797C040FF85E0E3
:1043D000B8291CC438D4F020E6C9AE6E36682F5F09
:1043E000BE82762D3C77F0343EA34E916F3DAD07F3
:1043F00002D36DCBC924C8CBF0125163A733B6A545
:10440000402755CD1FCA36E6AD10825C1185E4C940
:10441000F735C9D86330F9DD5838F3A3A012774ACD
:10442000A85F21BB37B7099D54199894ABE62DB20C
:1044300086815CE4D1916C6B565F22518B1D00BC70
:10444000906996EDF20D64D81ABF69A0AAA33B88C3
:104450007AF6215996D019B74109F103E477791C0E
:10446000FBE18A3A86C5CB19E08F4FCBD2D147A565
:104470003785C2F85473E5A405A828E27D30138E71
:10448000344CA2BC09873F7C4F5153F7BC2697564A
:1044900027544FBD6FE9D607E0BEEB6869EB5228A1
:1044A0002482B663A9C310EE33E1E47CF3BAE79942
:1044B000CF4E60518BCBCD258C3498FE59CEA4576E
:1044C0007354525970CEE87BE1BC8AEBE7B5DF0E3E
:1044D0002229BC9FE32A17002C58F6722987AC5B6F
:1044E00037699603BD7109612FE930A179B85EA0E3
:1044F000E51D410D53369420A9C6604EE5F99EF79F
:1045000000F0623C30A4685413B03BD12B2C56957C
:10451000F0D64931D4AD2119C0FF389163B19F7FE6
:1045200028F43402AF6DAD44DBD5C9E69FF15306E4
:1045300011027B0E2AF7F41DC62C89CC4124B3D876
:104540006B6F37E61D2F3E0AF340A050825941554C
:104550007F462210B22185DA7A2E0B95C1779570AD
:1045600025AC1A16C7DAC4C7C5CFBD6EE0CEA7E921
:1045700068601837AEBDB1DA10D00396125A7FDAF0
:10458000AA7AA37CAB2DC1974A353FF66C6D01DA50
:1045900029FBFC6C55291DEA775AAFE0535366F2AC
:1045A000D6116282EF8162AA0E6CD6E12F1615A396
:1045B000FD84C7E3A4DFD9A8DA7ABB8376DE5FDDAA
:1045C000323CDD48BC61A7C7B23221DB084DC0E2F6
:1045D000A46FDC06361FB41B60EACC8508C0D0F996
:1045E000760B0FC83653B9161C453D60B04A5F15AF
:1045F000B14DD2C31458C8225229DC9A6ED834B3B4
:10460000AAF3AE87039A2329ADF29408998DC9863F
:10461000C8816809954DFC211414554C6BF4C19761
:104620005E7B6C88C16983A15E1CDA035CD4B3A491
:10463000F71D823CA33CA5FC30583D1BB64B3270A5
:10464000BBECF626B55CC7DD125F6904A239D2FB6C
:1046500052A4E54FDF481011E387A3D483519C1087
:104660001AB04FFF39D98CE3F6B65A61A45C627771
:104670008774CA423CDE07A9FB3D23072FB57B5553
:1046800017E64C09324C544D04EF0AC1AA858090BC
:1046900014C701E6F1B5F13F2B1828DFC528563FB6
:1046A000C60B37820CEC3BDE26FF8C54D98ACB1527
:1046B00078D4D89AE33EA3B18FEB6D56F36DE89DA5
:1046C00080A0D81C2F17B358F74603529593C8689B
:1046D0007561B57861A2192700E123D9143CFDF971
:1046E0007A92BC58868601B01F03EC4E8D3B0D8933
:1046F00059BF836C71D472E55E203F1D3EEBC73419
:1047000082F06102811F058FF12D9D282ABC44494A
:104710009E4BDEC18604B1F05F23D96BDA2A26ED09
:104720006853EBE9561685AC3F158D68D826A9B0BD
:104730005E3A7277D080E5442F3C51C2B20136CC4C
:1047400048C4EBEF61FDD51E75549D115C552FFCDF
:10475000D45B0213B6ED47AFAA705D0F80D3286813
:104760004E9DB0EA5A88AC5CEBBB8EF641C7EFDEDB
:10477000C6B85435974C6C62FD706FC9981DCD80DA
:10478000A81865BAD91F5BA8E843790E091F6214FF
:104790004182E55C72B4EF92D0F0C058C8626861A3
:1047A0002592DB534FD1112EB33E742F0250B58B9F
:1047B00003D8F9D6811002F59AD118A0DB4196EA08
:1047C0002171E9786128DD8799E989E55DBFD0D35A
:1047D00002149137360A86F4A3E1921B01C8E63F22
:1047E000EF3346ADE3C45233644CE8D387428DBB0C
:1047F000D5D20CCB8BE51A8C4FE171757315FE6128
:10480000AAB0F8FEEBEAE5EE0759CD39DD7942486A
:10481000DBB06163D92CD49CCCD77D111A0153E550
:1048200010D8359913BF1DBB4B70E33257149B90C2
:104830004716A75164D63E30810A4DA6883380DFE3
:10484000381455091CF08E0B763B4BBEBD78A3E6A1
:10485000B36ED33E830B5A1589C4EC4DFD0B883DD6
:104860008499BA96775C5A10A965C31EABD203A887
:10487000D7732DAF1D01971F327CD58A28240BEEEC
:10488000BCF62B19207C5CAF11B2C3C480EDC745C8
:10489000972F163D05EC69BCC8E94AF991D377CB4F
:1048A0002B8C8FD32DFA07A378368FED2D90CC2B40
:1048B0004440D9E387EA021734E4390A40CD86C878
:1048C0005C0954362E4B18ACB256EB3E3C1AA2058E
:1048D0006D0E68DAC2E37001DC4D9DBE370E449365
:1048E000DFFDE30D1B57AB8B563F7801B8065D8AA1
:1048F000D110B2705BCB5DC6C0C32C02245398C9E3
:104900008CBBF3EECDBF4B31E4B3AF07B2CE79F43D
:104910006421E7A404B14DE4FF50DAFD5929A22235
:10492000B8CB5CB0EF62D82D45183B2FFF1D9D41E1
:1049300027B5714E4154A94C7FA2E2BF2DB6591C38
:1049400048DFB544433B4667AC64AE6162E2EB23AB
:10495000D880DBE1700DA71C647599633D3C207223
:1049600061471A1CB8A54400D339547C818FABE24F
:104970001B33BD07BBFDD7009500C9A6A33A5E9DBA
:104980000E9C74D63F710C53766BBFB9C6F2F034EF
:10499000C5A87938130A9BAFCD8F1C2F27BC1B6786
:1049A000D02693AD232F5EF096E0A317B392B3B554
:1049B00091DD3BAD5670CD9B2E229673BF1A00162B
:1049C000AF7557FB4DFA45B33A7A6F26C478F63681
:1049D000F898A9B89660B920D675808DA3656365EF
:1049E000AFCE857CAE60D3C670939C9464FE780590
:1049F00044979A80866278A157BE668EB0845458D8
:104A0000BA3A02159E9E35703FB0E8D5044CB2EA22
:104A1000A1D3086F82B1CD83A697BFDCBDCB7A0A44
:104A20001EE0A0695BF5C6DA28799E9B9871C76184
:104A3000543E707C51F2B3D250227B06FEF4249394
:104A40001E156F0245F2CEF2943F71C35388C04DDC
:104A5000AF0B3C1F2257330A16E1D812B74107D9D2
:104A600065B6B1A1E486E9B7D6D574FF6CF9C7F590
:104A7000AC2960BE2F15E85B351AE469ED8CA4D231
:104A80009EBE8C5D9D26FD2C4CF33D25682F0E951A
:104A9000CFFF4D2785EE88D1A72805F23A816CEF2C
:104AA00000ED0CF14FD8603AF18BB0A4A31EA9839E
:104AB000371FE57EF195C27EA6EC340D5DA927B7C0
:104AC000BE56559C1D9DF06C41EE293592208415F3
:104AD000E619BE032A773252DBDCFB64E1AA3F46CB
:104AE0001F5606B71188A333021576794C9C0571C1
:104AF0006C308E8D5642B0C62B0FC137BB9C7D4AA1
:104B00008E4CF54767D6B8D5BC0CE83F3B87799704
:104B1000BE76163D3DF1BF65E3793FD7AB8A582994
:104B20001473C635DAC25667A56C1A18348E2F680E
:104B300054382E8F059585EC0F1863018225F17688
:104B400071AC7706FD2DB82751C1F3E448BA749EC5
:104B5000AF5AA1B8E2B8E0C9FDCAE45E7A75F809B7
:104B6000CCFD6B3C85091D58E02F329CCB7B44511A
:104B70007FA8D09BC192EF2523E12EF46CF56B2B1F
:104B8000DDE15FB580688C4AA00507DE30CD463D8B
:104B9000425058E946BC1079C8547FA898A654AE34
:104BA00055CCC05055B2477AFB7A9B346EBF57B88C
:104BB00075D0881E7E078D46F97C4B60890F96C89C
:104BC000046E3F15D2B02E14D8CE49BE00D455F78E
:104BD0001F4C47BD8F99767FCC32ADCFBDD3968B1E
:104BE0004D6A00649CFF7B09AC1FA20ADA55A878C5
:104BF00007DFBC826C9721CB266BC4DD579D58C361
:104C000044815BFC3059CE653F6FF79751433F209D
:104C10007AD897D3CA84A883A66D500A9F11A13071
:104C2000491AA21C819E27B02FBCF2237D4E5878D2
:104C300078EB1F26B1EE2BF8859B34FE3CB44EC6B4
:104C40006CB78B23DA97B19E992E939F859EF82A95
:104C500040AC6A5CA79B930B503549F7A32D507A63
:104C6000E1DACCFC3E647E879818F98A0C7A23D965
:104C7000E47A970E56CF2C4455B08AC4DA82E963A1
:104C80000F1215ABF08E86971E55631C3CF90989EF
:104C90004142B80A6762A431B459371FD7F0A3C2A2
:104CA000B528410046111B2029E73123FD82ACC104
:104CB000755A928A25C57A527185EBA0BD26D45CBF
:104CC000B2634D3A660D180BD62D00A78C183B9D8C
:104CD0005573C2C2E012BD8B572FCDE6D53219D421
:104CE0009B93C0A9399ED3D58A25D4D03B50A5012A
:104CF0003D1A2396ECB987D668078DA03EAEB3D691
:104D0000C3D910AC10D0BE4081054D1EB65E0F3524
:104D1000880A532460297A17CF7BC23794129ACD20
:104D200086A8B521DE4465A1A91407890B071DDB00
:104D30006867B11FAE306876472D2EC7AF8D7247BA
:104D4000B0C5C8FBC0D0D66BCAF89CB91FE9549B4C
:104D5000787A3EF8E44A3214100A5D0C30311F357F
:104D6000358A4B5B2BAEADC59F476CD1625A0C3573
:104D70001F66778A4B8F5B961FBBD7F490F0BA4FB4
:104D80000AD66CF943633A6454C403774B528F9C40
:104D9000D7E1C3F675A67AF89C1C19D92F01D14E1C
:104DA0007D379ABD32F5498A44EB0D91FD497CD897
:104DB00022C0878D05CBED39E04D8CF991C4849CE0
:104DC000B463BA4D838E21F2DFF3DF0F94999A54C6
:104DD00053883304B1DA832A88D2AD451CB6CEFBA2
:104DE00030C351B4CD3297D2BA6DEAB33BEC76DC26
:104DF0002878D3509BB77A7AFC43B74D8281D12271
:104E0000B4AABD7AEBE16BAADED9D4F9E06D1F57E5
:104E10002EEF0A0D9606FD565BFF5F2B76106F8E08
:104E2000C44DD96BF72089B65F6F0C76703F175E63
:104E3000924DBCE8752002A4490F6B51D42A5170E1
:104E40003065300B2A833C2097A19F61DF64671493
:104E5000A15618FF9AB9F4C3E79B5E4017C2CCB1C4
:104E6000E24C30047762FED0430FFB63D8479614C0
:104E700000D0C2C1361BC9367C1B427E3D1E99F351
:104E800026C2849B6B0CDBBF6E3EBE446F063DB5F5
:104E90001F4DC125ECE2E0BAD7013459877CFE01F1
:104EA000FA442584320E6D3284652353D169D4814E
:104EB00066C2FC44383D1679ED1E9485CF34E8BEB9
:104EC00071C55ECBE652EFA91D1471363D13F9A8EA
:104ED00036C0B441D056D3CDE7FBF6E775208053FA
:104EE0009F40EDBA9440A70B4DFD24F00885724019
:104EF0003A6F98634F38714FCFCD1ECFCD12E0DEA1
:104F0000D2DF52CB3AFEBDB342D43ACED32ADED959
:104F10007F8413E3A5C66804FD4FE30A611B21BD2E
:104F20006AEDAD30A7E35FC5718B258955CED6926A
:104F30002D47173DBC0B86556D1A889B9E8A20B461
:104F40005E5FF9D1F8CC7D1B151C1DE0B3C1280EA6
:104F5000155854CB3D0314129EC77D1AC4FCC4ECF3
:104F60003619462F26C2B5A3E7A4E971CE0D277FD7
:104F7000F58F5C88E610D4FA79257FCD97D9D36D6B
:104F800098C0FBAC206CA8274DE4F198F1FD707D32
:104F90001B73A7FE67BFFBC75320F51081DDDDE65D
:104FA000DCCFB51DBB0F465EC464B61D6BE5D2AC4D
:104FB00066255726B9FF3C54151A8A2FCDA60F1027
:104FC00068A7E57920A3E47D2611FC9B511398BFC7
:104FD000E1706BB029DAAC4557F492F2333F072EFB
:104FE0003752B02A8A7E9CBC7968046343326B09CD
:104FF00091CA8AB4257C7EC198D1ED4FB1801BC483
:1050000064A21A1854C50235202D9EEFAB9F7DA0D7
:10501000519E19F94EB54A499EF9BBCA8F3FB276E7
:10502000ADA62848ACDC031734D7D85633106047F8
:10503000953C806DF9D6D383F5DC4F25FBCBF2315F
:105040006B82AE44D6E48A5D66CC87937838406A3A
:105050006814BEF50145F83E7ECD4DD413EF593AA4
:10506000AC93D4D13B33DB281EACE98A8AC0B0BCF8
:1050700070E25D60F6CB908C6F58D0BC24F1217447
:105080006BF8219D419A23E0D5600A49998550101B
:10509000495DC066A0E3361771D9080B3375064128
:1050A0001164DBFDC436DAFDB07F2E150CEA2D4A03
:1050B0003C43B2085FACF884983EDDD89A3C6AA3C2
:1050C000DB36A40143295D34DF60D61A54B11315D1
:1050D000FE6F73FF3F4C1EE60287DF70D67096347A
:1050E000D64A3EBCEC39A68276342FA42D218D7190
:1050F000B7C73EB17FBB4DC76020C38F91D4514E1F
:10510000FCED87878D17C1BA506C862173763FF707
:1051100067FD0573E29973C1B8BDED29A227341369
:105120002352F4C60C6EC859458ABB7F15799295F7
:105130006E46601710596197E4C7D761A7AEE2F0D9
:105140007B3A482CF2B354EE8C0E26D8FC045F8DCB
:10515000F43F5B5D9E24A41554B12F1FF5852CBA36
:10516000AD87C13475909AD4DD1E6C8BBD56007727
:105170000F4E5DB361120A2465175AE1BAEC39ADDE
:105180008A299B39ECA2E9E7A9F29DA33F36D4BA5C
:1051900029524BDC9ABFD3BFBD35F441BB4E75CE0F
:1051A000D47640A6354E9B43AAC8186BD6DDC710EF
:1051B000C4BB805819B77A1E1C19C27A5D78957FD6
:1051C00013FA966CE5FAE9FFADED857169749BBE43
:1051D000CDE8B5A2D9CA85289411965E51A7A47FBF
:1051E000D0D95BB39AB8AFE5D0D2C42495F7C9CD76
:1051F0009811597E0D43840C2E3AEECBE3F38E4288
:10520000F56DF0874D3AE8828382A744845DB34010
:105210008AA360A2A7A12CB09F5DE411D5A1CE51B5
:10522000ED73D2AF5C724FA43A278B4160E8BB604C
:10523000EFC9B9001A308528A3ED6D8A9BDE432E95
:105240004DA2B7429DD9B31C8B8B9B97A4E562FC02
:105250001B1D69E474AC7FBF531323E2498195BCE5
:10526000525F2E93EB8662A4B1DDE4B782AE59BAE9
:10527000536CC35EFEDBD0F930837685F880E66B35
:10528000B4D3283A297F4AF8848A3C6B702DC5D95B
:10529000BA959774204B91FE87485AF4A8A23B21F7
:1052A0007DB132D06D46339FBA04BC9F1AE9E9D86C
:1052B000E5585442A0B7C7177B848FA368DDF084FC
:1052C0002B046DDD067C7168A27F34BE676BD94B01
:1052D00045D61B388E956EABEEF1B9A7892B30AF52
:1052E000C7AB4D6E588E040839704D9AC60DFBAC95
:1052F0000BDA34C76FCF824EFD613035B64BB0B19B
:10530000898E9D2C1DAD54E407B6E52D16AA969501
:10531000BCBDA2B80A951E3712B7CC427DC243A0CD
:1053200008181F397E1AB80D8A52155436BF6612F6
:105330009BDF777EC98CDC4460660265A9B5D6B276
:10534000F054FD306DDCD6629705C74A1D3652CF4A
:1053500016F2761800858563F7349622045AB11345
:10536000E0F27FFE79A08FD24C330445890913FE09
:10537000331F245E55D24D390789ECBA290C8ED9DA
:10538000F5A91B5BE8AE64C9AAFAC493CC4C67FBD1
:10539000F66700173A1621AC62B902CC58789761CB
:1053A000FAEBA9BE9B3F9A35D42ECCD5955475DE29
:1053B0002124E1F2E0F9DFDFCBAFA55C2E4B3562B3
:1053C000DF924A6C037A9F42A82301C3BF13563170
:1053D0004231E3EBE9CDD6AF303732D42323044258
:1053E000AF97C327A6B8F8F163F7AF597BD4B4637E
:1053F000B97E5137C0A28DE026DA0186DA72688D57
:10540000ED62C408809C314B50F98AA8F95B3A5987
:10541000C1C9FC4930C406E55750C7D00588A99FCB
:10542000DADCDB88A6314F6229C45E4F3F20BD8F96
:10543000F80A6DFDA7E0A6D60EFDE2A34DD1F51941
:105440008DDCF360C4531F86518B63D1429E294C7F
:105450001415D99E47A7606FD0D92A405C3AB3F49F
:105460007978EB3B875D376D106B8D31A53B29F665
:10547000BC0B07FFF55A5F352F2C67E48691CB5C98
:10548000B642FBB1F1DC98369D6B9ADECC1C10C99C
:10549000CCAA416D5073A3FDF0FE14E1C9BE8997FB
:1054A000E81381DF3FFE4E705F063BA7105C24B41B
:1054B00099DF50B57D85ECF147F6419C8A281DD3D4
:1054C000F45C7D148DE859A1C1649AF7216342A26E
:1054D000F6A0478BCDA2A1240A9750A829BE624C02
:1054E0000273B185A1540A782054300EFF62BF04C4
:1054F000593505A19B80271E63C9F63DEC48D7B4FA
:10550000ADD5E60400491A8772A682AE7AB6E101EB
:10551000F6A3005F8C9B0C43FC98C3CC1889451CF8
:1055200006E622E24C304854397A6408956BF2F270
:105530009AB5EEDDCE1E1EE63ED59CEDEDD6806E14
:10554000A444FEBD1C9E0FA2517751D1BB5CAADDC5
:10555000EB4517CB98BF3C6BB910B86513A34B3E16
:105560006DE8A400AB135AB06186DCC6A9E1291F1F
:10557000034A3787FF011F2221491875ED85398AB3
:1055800055F835A7AD62F14994169107D367EA81C2
:1055900050B518B8A6DF3CA9E0D40C5F4F6987E18D
:1055A000C6D8D773837A167057D2A9120A6AA60989
:1055B0005D479050B6EDA7DBC0752A3A1317E27924
:1055C000166B2A885DB42AB96228668287CE9F69E5
:1055D000A9D7E9D483248CCF53185C882CB5D18A01
:1055E0005ADB68A2663D5917E94C1EF4896FC590D5
:1055F000C26B1AA6266CFE921A8B80E07044B9B674
:10560000C93AF65A07632629460AA72A52B8B00FA4
:1056100030A4D7AD86FD3D4198B0B57AE7962D3BD5
:10562000939F6CCF2E0637A33403DEF747FA364537
:1056300052434D90120394AF40F5AFC4EAC37B8947
:105640004041D04509E9FD163F8F15B7650B283459
:10565000CB80B9994AFC28A38181D158672A712D42
:10566000C089591B1DFEFAB417B95D18E87D718B0E
:10567000BCD06DEE5C77DC2FBC29A218A46E50B2B2
:105680005AF213933D458FC925893F393D232E3169
:105690001CEC08202112EEF9DEBC8DD047615BC204
:1056A000D638E89DCF526616A5CB92558E03F9AF3A
:1056B0007B7ED958BB1FD5FCEB809B8D356E58C0C7
:1056C000E1E7BB2A4FC96D227DAFDB17028B85D680
:1056D0000885A47F9340C12C7470DFAF3195E0CD75
:1056E00016B86101E4BCF13B114D075CA9FCD2BACC
:1056F000570F9635EFDE3AAA9B0440D53BB0965F34
:105700003FFC7E7218EF56AAAB3564D2D4CEB19A64
:10571000E367547F2D6C6FABD244210A07C1CB24C1
:1057200079D2D8807005254FF992473D505518CC55
:105730004759DFEBCA63E8CDA8677EE1E7E4F7A24B
:10574000BF2F995B66D62906868E5687F308A31D60
:10575000B3217C5735556F1D72BB12C962DF8004BF
:105760003345CED4116DA6C0FE9FEF61B22C63917C
:105770009F0549F73EF208AFECB602EAF37B3D70B5
:105780006B6B1368ECB6CBC877DF28F14942DA6B54
:10579000C7EDE436207DF0AB5EDF5FEEF9CA33ABD8
:1057A000AF206D8EC173996F9258F987546599A394
:1057B000F02313B4B14E6B1D3292021C3043070923
:1057C000BA86F21D5CBADDABF9640F306D2DB5FD04
:1057D000C44DCA21C12B1D64C3DA2A7A5B556CB84B
:1057E00061AA09FE824626D81AAEC928E62BC55BF7
:1057F000022E56DAD6ACCA569F902D04661A649AC9
:1058000068B07C3D3FB295AEC8B2A1BBFFC2319A31
:1058100019A7DB15E4A58C7869295AD0B88D3E020A
:105820007363F17ECB4D4705B73B82C42BE92A3D1C
:105830000B836B20B619C36587677377BC840EFC36
:105840008C0760055093EF2550E5F4187E754146AE
:10585000A61405B4E6EA8AC9078816D15084607890
:10586000C0AF8B77811ECDF14BEA9180C4865FD4A7
:10587000AD269C3A5868BFFB0D3FDAFD9F91947AA4
:105880008D3E12C47FF4A233BBCB3375E907479238
:105890003DA36F833B6B72B14AF2514D02E9A54DB6
:1058A00017AC1AF3DFA1B7FB2924EED1346AFA1141
:1058B000036E7C40C7DCCCFB682BE5B3CE582DEEE5
:1058C0009E3DE82EB712FF14864108E2982DC3567C
:1058D00011971891DE80B889E645B8879F57BB338A
:1058E00023478ADBA6B6143970EDCEDFB22DE22F46
:1058F000D19AA7106FD97DB944F73FD4C4DE85FB98
:105900002C8753D70D36FCF9418C5D33B64E8C4055
:105910008CACC5F7192F9305DB9745F12A89FD98C3
:105920007E597F92925C50CA5D9AE9C3EE82936B76
:10593000C8DF61E1B78C872E68D51EDFF76D85461D
:10594000999A7DAE0BCEDD82BCD349917A3DE68C2F
:105950009168029621339D04BF4DF9824E6B20352C
:1059600028C26E11D2F502A604A908F91F43361702
:105970008F19582B9E68364373403B7C5870496D95
:105980002E6A8338155148CA761454B82613AA646F
:10599000EEDF87339C3AE36C965971EEF65F7363E2
:1059A000AFB89E294EEE4CDDA259A751E2A814E4EF
:1059B0001260A337F46BCB40D24A1B1DA03738D4FA
:1059C000F6539D57247541EEE6C37105BACF8F3863
:1059D0000A4F1761CC413EDECAB6697B813BBEBB34
:1059E0009058A66A656BDA0C0A1F5E61FAE84C45AE
:1059F000B3FAD4ADD81B191145E4F4EE0B6610C010
:105A0000A1864D41F01FEAF1598ED3CC6DE902F425
:105A10000F9FA9CDBF66EBF92097E7167DB216A5BB
:105A2000EEBF595A6CA821034DB5E6D28C1DD0F2B9
:105A3000250C8A3B979F3334A810FB4DACFB7A08AA
:105A4000CA7CB0F2DE983E6DF551A9FEBE8E4A3496
:105A5000537D23DBE52F76B74A5345F1FCDA3EE26E
:105A60003338EEE1CBD413B74650E346914D52EABA
:105A700008C195456F98DEDC99F9418C8E413E0B4B
:105A8000167E6AB351F93965A00E71326F6844D140
:105A9000935E39D657385B9BE5CC6F1816BBCC7933
:105AA000681C2A7F82752A5305350E31B8C5F38BE1
:105AB000F2FE70906536F17CC5135E51E2B3AE61C3
:105AC000445B063A2523A00CF0E4F688542A66FFCE
:105AD000930054E29B4451930949A6F78180629355
