S02100006275696C642F64656275672F6F742D6E63702D6D74642D6370632E73333738
S31508006000081800202D90020815FE030819FE03083B
S31508006010C1C900081DFE030825FE030803840208FB
S31508006020038402080384020803840208038402081E
S3150800603029FE030800D7040803840208038402081B
S3150800604003840208038402080384020803840208FE
S3150800605003840208038402080384020803840208EE
S3150800606003840208038402080384020803840208DE
S3150800607003840208038402080384020821D0020864
S3150800608003840208038402080384020803840208BE
S3150800609003840208038402080384020803840208AE
S315080060A0038402080384020803840208038402089E
S315080060B0038402080384020803840208038402088E
S315080060C0038402080384020803840208A1840208E0
S315080060D00384020803840208038402087D840208F4
S315080060E05984020803840208038402080384020808
S315080060F003840208D96A0408AD730408B395040832
S31508006100AF950408216B0408C9950408B7950408D7
S315080061107D730408BB950408ED73040855740408D8
S31508006120038402080384020803840208038402081D
S31508006130038402080384020803840208038402080D
S3150800614003840208038402080384020803840208FD
S3150800615003840208038402080384020803840208ED
S3150800616003840208038402080384020803840208DD
S3150800617003840208038402080384020803840208CD
S31508006180038402080384020803840208B99C0408ED
S31508006190ED560408038402089D950408A39504088F
S315080061A0038402080384020803840208038402089D
S309080061B0038402084C
S315080061C0F0B5114A114C124E00F00105E3695F075C
S315080061D013D40DB9334213D103EA00078F4207D10E
S315080061E00B4A1A40002A0CBF00206FF00100F0BDD0
S315080061F0013AEBD16FF00200F9E74FF0FF30F6E70E
S315080062006FF00100F3E700BF809698000000035086
S31508006210020001000000000000000000000000006D
S31508006220013800D0FCE7704700F58050D0F8EC0A3A
S31508006230704700F58050C0F8EC1A704710B44368F0
S31508006240D3E9004023465DF8044B184700F5005093
S31508006250B0F80207704700F50050B0F8000770471D
S3150800626000F50050D0F84C08704700F5805090F8BB
S31508006270520F704700F5805090F8600F704701483C
S31508006280704700BF64C904080048704765C9040818
S315080062900048704766C904080048704767C904087B
S315080062A000F58050D0F8F80A7047002908BF4FF467
S315080062B0E151054B00F58050994294BFC0F8F81A91
S315080062C0C0F8F83A704700BF9AC4200000F580501D
S315080062D0D0F8FC0A7047074B00F58050002914BF18
S315080062E00A461A46044B9A4294BFC0F8FC2AC0F8DC
S315080062F0FC3A7047007512009AC4200000F5005059
S31508006300D0F86401704700F5F5501030704700F575
S31508006310F6500130704700F58050D0F8DC0E704713
S3150800632000F58050B0F8120F704700F58050A0F8BD
S31508006330121F704703468288C088114481429DBF58
S315080063401868998080180020704770B505680C4653
S3150800635025B9BDE870404B68084818478B689847C8
S315080063606A680146831A002BB8BF121A2368A8BFA9
S315080063700022BDE870400148184700BFF01A002007
S3150800638038B50C461146A2680346944206D00568FD
S31508006390AC420BD10260FFF7D8FFA46038BD944227
S315080063A00DD011469268002AF9D1F6E72A4600214F
S315080063B0F9E78B68002BF0D09B688B60EDE7002926
S315080063C0F7D1002DE9D0AA681A60E6E72DE9F04171
S315080063D0936805460C4616469847324607462146B0
S315080063E02846FFF7CDFF2868002203466BB161688F
S315080063F0D3F804E0A1EB070CAEEB070898EA0C0FFC
S3150800640013D4A1EB0E01002907DA4AB9A0602C6063
S3150800641031462846BDE8F04197E71A469B68E5E706
S315080064209368A3609460BDE8F081BCF1000FEBE7C8
S3150800643070B5066804460D467EB18B689847736842
S31508006440C01A002809DB20462A463146FFF798FF7E
S3150800645030463368BDE87040184729462046BDE8EF
S31508006460704072E700F5005393F8483813B10249B3
S315080064700830DDE7704700BF68C9040800F5005317
S3150800648093F8483813B102490C30D1E7704700BF7A
S3150800649074C90408012300F00700834013F0220F93
S315080064A009D113F0880F08D113F0440F14BF012047
S315080064B00020C00070470420704710207047D0F8AD
S315080064C0020000BA70474200400800F0553002F05A
S315080064D0AA3202439300920802F0333203F0CC3317
S315080064E0134318011B0903F00F3300F0F03018436B
S315080064F000BA704730B50C4687B0054601A9206832
S3150800650038F052FF70B9606805A938F076FF48B9C7
S31508006510A3684BB92B68024603F5D65001A91C306F
S3150800652018F016FB07B030BD0720FBE710B50C685E
S315080065304CB90068224600F5D6501C30214616F0A4
S3150800654049FD204610BD0720FCE7024B024A13F01E
S3150800655046B800BF336200082962000810F0CEBFB3
S3150800656010F0CCBF70B50E6805460C4686B03046AE
S31508006570194938F04DFBD0B100260434206801A92A
S3150800658038F012FF88B9606805A938F036FF60B997
S31508006590A368F3B9286885F8406000F5B45001AAE5
S315080065A005F10C01183018F038F806B070BD304601
S315080065B00A4938F02DFB10B103260434DEE73046CD
S315080065C0074938F025FB10B101260434D6E7022620
S315080065D0D4E70720E9E700BFD4C70408D7C70408EB
S315080065E0DAC70408014651F80C0B00F5B450183008
S315080065F016F0C4BC1346B0F86C202AB10A4600F15E
S315080066005C01024818F0F4BA0D2070478831002062
S3150800661000F50050B0F802378B420AD0A0F80217EE
S31508006620044890F85931022B03D100F5AC7039F0C3
S31508006630D1BA7047F03A002000F50053B3F80027A6
S315080066408A4205D0A3F8001700F51C5016F05ABD6B
S3150800665070471FB500240294079C00F5D150019499
S31508006660069C1830009418F077FC04B010BD1FB5CE
S3150800667001240294079C00F5D1500194069C183019
S31508006680009418F069FC04B010BD00F5F6500A46EF
S315080066901230002115F002BF00F5F6500A461230F6
S315080066A0012115F0FBBE08B53130313120F001006B
S315080066B021F0010103780A7803F00F0302F00F02B4
S315080066C09A4207D10431043042F097FFB0FA80F0BD
S315080066D0400908BD0020FCE710B5044604F500543F
S315080066E033F05CFAD4F8403133F07C4204D0C3F37B
S315080066F01903984228BF184610BD42F210739942F2
S3150800670010B5044615D800F50053D3F86821914210
S315080067100DD0C3F8681133F04AF8074B93F8683F71
S31508006720DB0704D504F50550183018F003F90020E6
S3150800673010BD0720FCE700BFF02A002000F5055031
S315080067400022183017F0B8BC10B503780446002BA1
S3150800675014BF0520032000F5003012F0F9FA23785B
S31508006760BDE81040002B14BF0620042000F50030B9
S3150800677012F0EEBA00F5F6500022183017F010B9EC
S3150800678038B5044608464D7894F8FE20A91C031B24
S3150800679051FA83F3D21A014441F0EFFE94F8FE3021
S315080067A0023B5B1B84F8FE3038BD37F0BDBE2FF0C8
S315080067B05FBF08B51B4B93F8492F012A03D0062A59
S315080067C005D02AB3FEE7BDE8084031F003B800203B
S315080067D003F5805303F8B70C93F85011CA070CD584
S315080067E0C1F3C302013202F00F0262F3C601042AA2
S315080067F083F8501105D837F097FEBDE808402FF00A
S3150800680037BF93F8502160F3C60283F85021F4E7A6
S3150800681093F8482F520703D5B3F84A3F1B06ECD422
S3150800682008BD00BFF02A00208378072B09D190F80D
S315080068306E00C30903D000F07F0033F0C1BC33F00B
S3150800684091BC704731F0A6BD13B50446006820B95F
S3150800685040F20D13E38102B010BD04F10803009362
S31508006860A389E288A18838F014FBA073B0B96289BD
S315080068702389E1881344A2889BB20A4492B29A42B9
S315080068802CBFC3EB0201C3EB0301A380DB438AB22F
S315080068909BB2934228BF1346E380DCE70023172800
S315080068A008BF1846A3600123A073E373D3E70EB4A9
S315080068B003B503AA52F8041B0192FFF7BFFC02B006
S315080068C05DF804EB03B070470CB473B5054606AC27
S315080068D054F8046B0A46074B0749FFF7E8FF2246B8
S315080068E0314628460194FFF7A9FC02B0BDE870407E
S315080068F002B07047D9E20408ABC804080049D6E7D5
S31508006900DDC704080EB417B5044605AA52F8041BD9
S315080069100192FFF793FC2046FFF7F0FF03B0BDE8AE
S31508006920104003B070472DE9F74305460E46144656
S31508006930DFF8688014B903B0BDE8F08323684246DF
S315080069400093636831462846FFF7BEFFA3687BB904
S31508006950E27D072A10D9FEE749462846FFF7A7FF32
S31508006960A368BAB253F822200137002AF4D1EFE718
S315080069700027DFF82C90F3E7A18A238A0191618A20
S3150800698028460091034951F822200349FFF7BAFF28
S31508006990E469CFE788C30408FCC70408E0C704080D
S315080069A0F8C704082DE9F3470C6807460E4664B98C
S315080069B00368214603F58053D3F8582BFFF7B3FF36
S315080069C00024204602B0BDE8F0872046744938F016
S315080069D01FF9002800F0A480386800F5DC501DF087
S315080069E048F80546002800F0C78000F1100841461F
S315080069F0F06838F002FD044640B9D6F804904846D7
S31508006A0041F0CAFE421C402A09D907243B6803F50F
S31508006A108053D3F8E02BEA61C3F8E05BD1E7494637
S31508006A2005F1940041F024FED6F80890484641F056
S31508006A30B3FE421C602AE8D805F1340349461846D5
S31508006A4041F016FE2C2141F087FE78B94146F068E0
S31508006A5038F0D3FC04460028D8D13069B8B9706933
S31508006A60E8B9B06918BB0023AB7534E005F5887939
S31508006A7005F5947A00F8014B2C2149F8040F41F0EA
S31508006A806BFE0028E2D0CA45F4D10324BEE705F11F
S31508006A90120138F0B2FC04460028E0D0B6E705F14A
S31508006AA0140138F0AAFC04460028DAD0AEE73D49BE
S31508006AB038F0AEF80028D6D140232B86B36905F105
S31508006AC0D402019305F13001012301A81CF06CFFE3
S31508006AD0044600289AD1F06968B9306A98B93868C6
S31508006AE0294600F5D6501C3016F034F8044600281E
S31508006AF03FF466AF8AE705F1200138F06CFC0446DE
S31508006B000028EAD082E705F1240138F064FC04463F
S31508006B1000287FF47BAF736A002B7FF476AFDEE73D
S31508006B202046214938F074F8804620B920461F4986
S31508006B3038F06EF810B3D6F80890B9F1000F1FD0E8
S31508006B40F368EBB93C6804F58053D3F8585B0DB984
S31508006B50172436E76968706838F05AF820B148464D
S31508006B60296838F055F868B9ED69F0E7294602B0A2
S31508006B70BDE8F04716F028B8032422E7232420E7C7
S31508006B8007241EE704F5D6501C30B8F1000FEDD1E6
S31508006B90294616F02CF8044600287FF412AF35E78C
S31508006BA038A6040807E1040887A70408B1AE040854
S31508006BB00CB473B5044606AD55F8046B094B0A4682
S31508006BC00949FFF774FE2A46314620460195FFF724
S31508006BD035FB2046FFF792FE02B0BDE8704002B0D2
S31508006BE0704700BFD9E20408ABC80408F8B50646E2
S31508006BF00C46064F8D18AC4200D1F8BD39463046D2
S31508006C0014F8012BFFF753FEF5E700BFB1A80408F7
S31508006C1010B50446FFF7EAFF2046BDE810406DE6CA
S31508006C20F0B51C46002387B08DF8143052EA0403E9
S31508006C30064615460ED130230DF113078DF813308D
S31508006C4030463A460D49FFF732FE304607B0BDE8F2
S31508006C50F04053E605AF284621460A22002341F0B4
S31508006C60F7F8303207F8012D2A4623460A2A73F127
S31508006C70000305460C46EED2E2E700BF47AF04081C
S31508006C80034A044B00290CBF114619463AE600BFD1
S31508006C9086B7040829C8040810B50C685CB90368E7
S31508006CA003F5805393F8DC1A003918BF0121FFF762
S31508006CB0E7FF204610BD0720FCE74FF4201330B548
S31508006CC08DB0044601930023084602AD69460822A2
S31508006CD08DF80830009515F0C0FB2A462046024973
S31508006CE0FFF7E5FD0DB030BD47AF04082DE9F041CB
S31508006CF015461D4A0446FFF7E7FD2A683AB12046BD
S31508006D001A49FFF7D4FDAB7A072B05D9FEE72046CB
S31508006D101749FFF7CCFDF6E7164A204652F8232016
S31508006D201549FFF7C4FD6E7A26B114492046BDE819
S31508006D30F041E7E520461249FFF7B9FDDFF848803C
S31508006D402B7AF7B2BB4201D80E49EFE71FB141468D
S31508006D502046FFF7ACFD6968204601EB0711FFF7EF
S31508006D60ACFF0136ECE700BF31C8040852CA040874
S31508006D70A5AE040888C3040837C80408ACAE0408DE
S31508006D8090AE040886A804087EA80408F8B5069DEF
S31508006D901C462B7A0F4616462BB3252896BF184B4A
S31508006DA0184A53F8202018492846FFF7ABFD28460D
S31508006DB01649FFF7A7FD3A4604212846FFF796FF2E
S31508006DC028461349FFF79EFD324604212846FFF759
S31508006DD0AAFD4CB128460F49FFF794FD2246042127
S31508006DE02846FFF7A0FD04B9F8BD2B68E26903F54C
S31508006DF08053D3F8E01BE161C3F8E04B1446F2E791
S31508006E00A8C30408B7AE04084AC8040869C8040831
S31508006E1074C8040882C8040810B50446FFF74DFF75
S31508006E202046BDE8104069E537B50546CC884B884D
S31508006E3064BAA4B20A88019489885BBA49BA89B245
S31508006E4052BA00919BB2044992B2FFF730FD284628
S31508006E5003B0BDE8304051E598C8040810B50446AB
S31508006E608CB0084669462EF055FD20466A46044908
S31508006E70FFF71DFD20460CB0BDE810403EE500BFFB
S31508006E8047AF0408F8B505680F6805F5D8560446EF
S31508006E901A3627B93146FFF7E1FF0020F8BD4B68DF
S31508006EA0BBB938460D4937F0B3FE20B13146204606
S31508006EB0FFF7B2FFF1E73846094937F0A9FE50B1A6
S31508006EC005F580552046B5F82A2B0649FFF71AFD21
S31508006ED0E3E70720E2E72320E0E700BFAEAC0408BB
S31508006EE0E9B30408A5A404082DE9F04F05460E46A3
S31508006EF01C461746DFF890B085B003F1FF3802EB61
S31508006F0081094F4517D128461C49FFF7FBFCDFF8D6
S31508006F107090DFF87880264449462846FFF7C7FC74
S31508006F2014F8017B17BBB442F6D12846144905B0BC
S31508006F30BDE8F04FE6E457F8043B18F801AF1846E9
S31508006F40039341F029FC02305045039B06D8594665
S31508006F502846CAF10102FFF7AAFCD2E70093534676
S31508006F60284608495A42FFF7A2FCCAE7414628467E
S31508006F70013FFFF79CFCFFB2D4E700BF23AF04082C
S31508006F80B6C80408AFC80408A9C8040807E1040875
S31508006F9070B506680D463046074937F039FE04468F
S31508006FA020B93046054937F033FE10B100202C7061
S31508006FB070BD2320FCE700BFB8C80408BFC8040892
S31508006FC010B50C680B462CB1BDE8104000F108015D
S31508006FD01846DDE7017AFFF753FE204610BD2DE976
S31508006FE0F041804608680F4616461D4688B008B325
S31508006FF0114638F0D9F9002304462B7098B1396840
S3150800700091B101A82EF064FF70B908F5145002A9D1
S31508007010383020F0B5FD58B9304601AA02A919F052
S3150800702093F801232B700024204608B0BDE8F081B0
S315080070300D24F9E70724F7E7F0B587B00DF1030348
S31508007040044601AA00680D46FFF7C9FF034668BB58
S315080070509DF803303BB120461749FFF728FC204628
S3150800706001A9FFF7D9FE05AF3946686838F0C5F9B2
S315080070700346D8B9AA68E2B9254655F81ECB01AA2F
S31508007080164603CEBE4228606960324605F10805F9
S31508007090F6D132882A80A28B42B904F10C020CF58B
S315080070A0B4501146183017F0B8FA0346184607B018
S315080070B0F0BD0723FAE700BFC7C80408102208B5C1
S315080070C042F09BFAB0FA80F0400908BD88220021F8
S315080070D041F0AFB80023036043607047024608B525
S315080070E00846FFF7F7FF126802B908BD038801339F
S315080070F003800123116841B941880B4443805189B3
S3150800710043680B444360D269EEE701330968DBB292
S31508007110F1E7C1F30002F8B501F0020343EAC2033E
S31508007120C1F380010B4399075AB247D400F50055BD
S3150800713095F85B7142F004039F4224D000F505548C
S315080071401834204685F85B3116F056FF95F85961D4
S31508007150304637F09CFDC0B195F85B1195F858316B
S31508007160C7F34002C1F340008242C3F3C00304D10F
S315080071705BB93A0709D50B0707D400232046A5F8BB
S31508007180803217F0A1FC0020F8BD012E0BD1002695
S315080071902046A5F8806217F013FC314604F5907076
S315080071A017F02CF8EFE7022EEDD12046B5F85C1162
S315080071B018F09AFB204638F00DFDE4E70720E3E7D0
S315080071C01022002141F035B8036823B91720B0FA18
S315080071D080F040097047994201D01B6BF5E7002003
S315080071E0F5E7F8B5054655F80C6B044606F5B557A8
S315080071F029463846FFF7E8FFB0B9284615F01EFFBE
S31508007200012384F84030094B29463846C4E90C3432
S31508007210FFF7DAFF30B906F58056D6F8A036E363ED
S31508007220C6F8A0560020F8BD1820FCE7917600089D
S315080072304FF6FE720B46018891421DBF07C883E8C8
S31508007240070000201720704708B50CF06AFE08BD35
S3150800725001F1100351F8042B994240F8042BF9D197
S315080072607047313020F001000078C0F301107047F4
S3150800727008B5FFF7F6FFB0FA80F0400908BD836D40
S3150800728018472622002140F0D4BF030E0B70030CCA
S315080072904B70030A8B70C870704708B50246FFF733
S315080072A0E7FF30B1313222F001025078831E58428E
S315080072B0584108BD1422002140F0BBBF2DE9F84F04
S315080072C00746884691469A464FF0000B0A9D0BEBF7
S315080072D00904661006FB0A8638463146A847002880
S315080072E0C4F34F0407D0D2BFA14601341FFA84FB6A
S315080072F0CB45ECD300263046BDE8F88F0023F0B521
S31508007300441E184601392AB91BB1024492B290426A
S3150800731011D1F0BD14F8017F11F8016F082A15463E
S3150800732028BF0825B74287EA0603EDD12844521B31
S3150800733080B292B2E7E71906EBD45B000130DBB204
S3150800734080B2E4E700BA7047024608B5D1E90003FF
S315080073505BBA1380FFF7F6FFD388C2F802000889E4
S315080073605BBA03F0010343EA400398B25BBAD380E1
S315080073708B7A20F0010003435BBAD38008BD70B551
S3150800738083880446C0889E188642154608D8206811
S31508007390184441F06DF90020A3881D44A58070BDEE
S315080073A00320FCE707B549BAADF8061002220DF12D
S315080073B00601FFF7E4FF03B05DF804FB0122DEE7F0
S315080073C038B50446A3880846934215460AD3216869
S315080073D041F04EF90020A38822685B1B2A442260EC
S315080073E0A38038BD0620FCE70122E9E710B5022292
S315080073F00C46FFF7E5FF10B923885BBA238010BD5A
S315080074004368036003B1DB694360704710B5436A9C
S31508007410044623B1002202214262826A9847236AFF
S315080074209C420FD1084A02F580512346D06D246844
S315080074301860D365B1F86036013BA1F86036002CB8
S31508007440F3D110BDFEE700BFF01A00202DE9F04188
S31508007450C389044601EB03081FFA88F843450D461D
S3150800746002D90320BDE8F08106465027B84533689F
S315080074700CD800223260124A02F58051A3B9A389BA
S315080074806581AB4200D9A5810020EBE71BB17C37AB
S315080074903668BFB2EAE76079C0F3410032F04AFDC8
S315080074A030600028F3D1DCE7D66D18681E60D36516
S315080074B0B1F86036013BA1F860360346DEE700BF47
S315080074C0F01A0020F8B500F1310424F0010405464D
S315080074D020460F461646FFF7EDFE2378042103F0F3
S315080074E03F0343F04003237000232846AB812182E3
S315080074F0FFF7ACFF2378667023F0300343EA0711E1
S315080075002170F8BD70B500F1310525F001052B781D
S31508007510064623F00F0302F00F00034328461446DD
S3150800752000F8043B41F0A4F82B8A3046E11889B2EA
S315080075302982BDE8704089E7313121F001010A78D6
S3150800754002F00F02082A00D9FEE70431DAE7838938
S3150800755042891944914200DDFEE789B29142818150
S3150800756000D9FEE7704743898B4200D2FEE75B1AD3
S3150800757043818389C2898B4294BF00235B1A0A44DC
S3150800758088BF9BB2C2818381704770B54489A14286
S315080075902FD215880D44AEB2B14201D8A54201DBFF
S315080075A0641A1480C4899860214489B24F2910D876
S315080075B030300844C1F1500189B2998018601088AA
S315080075C0814228BF0146998011889B88CB1A13806F
S315080075D070BD5039986889B20068986000B9FEE7AE
S315080075E07B2904D804300844C1F17C01E4E77C39DE
S315080075F0F0E70021E7E770B5154686B0ADF8063026
S315080076000DF1060203ABFFF7C0FF2C46BDF810606C
S315080076101EB9601B80B206B070BD0399324620467B
S3150800762041F026F803A90DF10600344432F049FD6D
S31508007630ECE770B5054616460C468B894A89ADF5C2
S31508007640BC6DD21A0F49FFF732F9284606F1100128
S31508007650FFF733FB2846728C0B4901AEFFF727F973
S315080076603246A18940F2DB532046FFF7C4FF0023C8
S315080076703246335405492846FFF744F90DF5BC6DE3
S3150800768070BD00BFF0C80408FFC8040847AF040867
S31508007690CFE738B54589CC18AC4203DCFFF7ABFF1A
S315080076A0002038BD0620FCE70246084649893823EB
S315080076B0383989B2EDE70246084649892C232C3920
S315080076C089B2E6E770B51646313104688CB021F008
S315080076D0010514B920460CB070BD04F1310323F03E
S315080076E001036A885B889A4212D102A8FFF7C9FD8E
S315080076F0214601A8FFF7DFFFBDF82A20738C9A42BE
S3150800770006D106F1100106A8FFF7D8FC0028E1D13A
S31508007710E469DEE738B504460D460B46018900687C
S31508007720FFF7B7FF10B923891D44258138BD13B566
S315080077300B880C460C2B0BD90D2B0CD101210DF106
S315080077400602FFF7E7FF20B99DF806300D332380C0
S31508007750002002B010BD0E2B0CD102210DF106023D
S31508007760FFF7D8FF0028F4D1BDF806305BBA03F25C
S315080077700D13ECE70620ECE773B54FF6FF76C388E2
S315080077800446B34206D001210DF10302FFF7C2FFFA
S3150800779018B1E680002002B070BD9DF80350FF2D99
S315080077A00CD12368E68022895B899A42F2D30620A7
S315080077B04FF6FF73E38000232381ECE72B0920466D
S315080077C00DF10601ADF80630FFF7B1FF0028EFD13D
S315080077D005F00F05204601A9ADF80450FFF7A7FFED
S315080077E00028E5D1216823894989BDF80420C91AEA
S315080077F08A42DCDC1344BDF806102381A388E280A4
S315080078000B44A380C6E730B401F1310222F001022D
S31508007810D48912784D8902F00F0204322244954227
S315080078204FF0000404D3C0E90014028130BCA3E77A
S315080078304FF6FF720481C28030BC0620704710B430
S315080078404C889C4203D309885DF8044B21E706203F
S315080078505DF8044B70472DE9F04786B017461C467D
S31508007860ADF806300DF1060203ABDDF83880FFF7F8
S315080078708CFEBDF810507DB1039EB8F1000F11D0F3
S31508007880B94606EB050AB24513D019F8011B16F8D6
S31508007890010BC0470028F6D1B4FA84F0400906B0B7
S315080078A0BDE8F0872A463946304641F0A6FE00284C
S315080078B0F2D12F4403A9651B0DF10600ACB232F0D4
S315080078C000FCD6E770B586B0ADF806300B44144612
S315080078D09AB2914200D9FEE74289934200DDFEE75B
S315080078E003AB0DF10602FFF750FEBDF810500DB9B7
S315080078F006B070BD21462A46039840F03EFE03A90D
S315080079000DF106002C4432F0DCFBEEE770B500F111
S31508007910310424F00104A37C05465BB14389218A1E
S31508007920994207D1012994BF491A01F1FF3189B259
S31508007930FFF78CFD2378224603F00F032846BDE89F
S31508007940704000210433BDE72DE9F041B0F80A8004
S315080079500F4602EB080399B24145054616460CD375
S31508007960FFF774FD044628B933463A464146284689
S31508007970FFF7A8FF2046BDE8F0810324FAE72DE9C2
S31508007980F043074601239BB057F80C4B8DF805309A
S31508007990037A0646884604F5B55039468DF804300C
S315080079A0FFF712FC002800F0B6802622002103A863
S315080079B040F03FFCD8F80830EBB1204641460DAB05
S315080079C007AAFFF70CFB0446002843D19DF834307C
S315080079D03BB130465349FEF76AFF304607A9FFF721
S315080079E01BFAD8F804000DF12E0137F006FD0446FF
S315080079F080BB08F10808082001A932F05DFB05469E
S31508007A00002800F08A80D8F800404749204637F019
S31508007A10FFF800283ED0D8F804000DA937F0EDFC91
S31508007A20044600283FD13023BDF834808DF808304D
S31508007A30B8F1000F12D16B79306813F0180F31D0F6
S31508007A4000F5B4502A46394603AB183017F0D0F87B
S31508007A50044640BB20461BB0BDE8F08301222846F9
S31508007A6002A9FFF771FF0446E8B99DF808305A2BBA
S31508007A700AD07A2B0AD0392B0AD00133DBB208F1A7
S31508007A80FF381FFA88F8D1E76123F8E73023F6E7CD
S31508007A904123F4E72046254937F0BAF820B3D8F849
S31508007AA0043023B907242846FFF7B0FCD2E74FF085
S31508007AB03209029302230DAA0DF1060102A8ADF8B8
S31508007AC006901BF071FF804608B1242827D1284666
S31508007AD0BDF806200DA9FFF737FF04460028E2D1B6
S31508007AE0B8F1000FE6D1A6E72046114937F090F81D
S31508007AF008B108F10408D8F80040002CD2D0204676
S31508007B0040F04AFE214682B22846FFF71DFF04468A
S31508007B10002890D0C7E70D249CE703249AE704467B
S31508007B20C1E700BF04C904082AC90408B1B5040896
S31508007B302DC90408012207E7FF2313B58DF807307E
S31508007B4043890446B3F5007F0FD20DF10701FFF70D
S31508007B50F1FF40B9012204F1310323F001039A74BD
S31508007B6062891A82A28102B010BD0320FBE703785E
S31508007B701BB1012B03D0002070474068E4E60430AF
S31508007B80FFF7FDBB2DE9F04114469A180E4691B24F
S31508007B9086B08C420546ADF8063029D871899142DF
S31508007BA028DBB0F80A80434499B2414524D3FFF74D
S31508007BB04DFC074648B92146304603AB0DF106028F
S31508007BC0FFF7E3FCBDF810401CB9384606B0BDE81F
S31508007BD0F081234641462846039AFFF773FE44443C
S31508007BE003A90DF106001FFA84F832F06AFAE9E7EC
S31508007BF00727EAE70627E8E70327E6E7F8B504468E
S31508007C000E46154600F13007E3899D420BD85B1BEB
S31508007C106289E381A3892A442B4492B29BB29A4291
S31508007C20628117D2FEE76079C0F3410032F082F92B
S31508007C30D0B123680360E38920604F2B06D8303023
S31508007C40C3F15002F918184440F012FDE3897C3359
S31508007C50E381D9E7A3812EB12B463246002120467F
S31508007C60FFF730FE0020F8BD0320FCE7F0B5064616
S31508007C70B2420C461046194689B001D1A34215D323
S31508007C806B460EAAFFF781FCBDF804500DB909B082
S31508007C90F0BD214630462B46009AFFF713FE2C44CA
S31508007CA069460EA8A4B232F00CFAEDE7BDF83850D2
S31508007CB02C441D44A4B2ADB2BDF83820002AE6D043
S31508007CC0202A174628BF2027ED1BD21BADB2E41B7E
S31508007CD03B462946ADF8382030466A46A4B2FFF737
S31508007CE08AFC3B466A4621463046FFF7EBFDE3E74A
S31508007CF073B5054603796E8940798E42C0F3410211
S31508007D0028BF0E46C3F340038DF80520E98901AA6A
S31508007D1040098DF8043032F04DF90446002832D077
S31508007D20334600222946FFF72DFF48BBAB896289F7
S31508007D30B34228BF33469A4200D2FEE7A381AA7906
S31508007D40A37962F30303A3712B792279DB0963F321
S31508007D50C71222716B796279C3F3C10363F3C40254
S31508007D606271AB69A3612B8A23826B8A63822B7A41
S31508007D702372AB8DA385EB8DE385204602B070BDDB
S31508007D802046FFF743FB0024F7E710B50446FFF744
S31508007D90AFFF98B104F1310300F1310223F001037A
S31508007DA022F0010203F1100153F8044B8B4242F80A
S31508007DB0044BF9D1198811809B78937010BD0B6A12
S31508007DC0994200D0FEE70B796FF382030B710368C3
S31508007DD023B9C1E90733016041607047012A4FF0B2
S31508007DE0000205D0C1E907320368196201607047CD
S31508007DF0CA6143680B62D961EEE70368994204BF1A
S31508007E00CB6903604368994204BF0B6A43600B6AF7
S31508007E100BB1CA69DA61CB690BB10A6A1A62002228
S31508007E200B79C1E9072162F382030B71704710B51C
S31508007E30FFF7E3FFBDE810400846FFF7E7BA10B5BD
S31508007E400446216801B910BD2046FFF7F0FFF8E7A0
S31508007E500B7910B55B0700D4FEE74B79C3F34103F2
S31508007E6000EB83025468A14209D10C6A546034B10C
S31508007E706479C4F341049C421CBF00235360036821
S31508007E80994204BFCB690360CB690BB10A6A1A62CF
S31508007E900B6A0BB1CA69DA6100220B79C1E90721BD
S31508007EA062F382030B7110BD4A7970B5C2F34102C1
S31508007EB014460B79061D43F004030B7156F824305B
S31508007EC01BB90134E5B2042DF8D10B624BB903682E
S31508007ED0CB610160CB6903B1196200EB8200416096
S31508007EE070BDDC69CC61D961F4E78B894989038067
S31508007EF099422CBFC3EB0102C3EB0302DB4392B2E8
S31508007F009BB2934228BF1346438070474388028832
S31508007F10994228BF194612FA81F25B1A02804380F9
S31508007F207047F0B50C46064685B003A802AF15465D
S31508007F30FFF7DBFF20463346BDF80E20BDF80C10D0
S31508007F40009736F0A6FF044668B904213846FFF7BD
S31508007F50DDFFBDF80A30022B08D9822B28BF822301
S31508007F60029828606B80204605B0F0BD0624FAE723
S31508007F70084A138803B9FEE748F24E305368A3FB54
S31508007F80003010EB530044BF20F000400130506031
S31508007F90704700BF58610020814210B5044600D8DA
S31508007FA0FEE7FFF7E5FF091BB0FBF1F303FB110042
S31508007FB0204410BD38B50D46814288BF85B2690098
S31508007FC0044601310020FFF7E7FF2044401B38BD77
S31508007FD010B540B10023441E98B2814203D901333B
S31508007FE0E25C002AF8D110BD0139013811F8012FD9
S31508007FF010F8013F3AB9002B14BF01200220831E56
S315080080005842584170479A42F0D00020F7E7A0F14D
S315080080104103052B04D83738C0B2087000207047D2
S31508008020A0F16103052B01D85738F5E73038C0B2FF
S315080080300928F2D90720704770B504460E46E58828
S31508008040134682880068AA4234BFA91A0021104440
S31508008050324638F059FB002800DAFEE7A388E288A2
S31508008060184480B2904228BF2368A08022BF9B187C
S31508008070002203F8012C204670BD0EB417B504463D
S3150800808005AA52F8041B0192FFF7D6FF204603B053
S31508008090BDE8104003B070474FF434132DE9F0479C
S315080080A094B00293002303AA06460C460D46914651
S315080080B091F810C08DF820300CF10703DB100DF194
S315080080C020085F1CCDF804807F0801F1100A964647
S315080080D0286869680835AEE8030055457246F6D142
S315080080E029788EF800106BB14FF0FF3103F14F027B
S315080080F06A4412F8440CCCEBC30C01FA0CF10140AB
S3150800810002F8441C102BC3F1100292B209EB0300CB
S3150800811088BF0022002140F08CF83A46484601A95B
S3150800812014F09BF9237C0733772B03D8084901A859
S31508008130FFF7A3FF227C074901A8FFF79EFF4246E7
S3150800814030460549FEF7B3FB14B0BDE8F08700BF1B
S3150800815030C9040833C9040847AF040870B5064691
S315080081600D460024AC4201D3012070BD305D0134B8
S31508008170030605D438F0B8FA0028F3D00020F4E74F
S3150800818010F04003FAD0810612D5C20612D50307AD
S31508008190F4D4032307E0AC42F0D0325D013402F098
S315080081A0C002802AEAD1013BDBB2FF2BF3D1D9E723
S315080081B00123F8E70223F6E7436853B9054B5A68E3
S315080081C012B9586040607047526842605A685060F9
S315080081D058607047F01A002003685A1A11EA2201FB
S315080081E038BF194643685A1A13EA220338BF0B46A2
S315080081F0436070474160024A01460248FEF7E6B806
S3150800820068C90408F81A0020F7B5724C04214FF41F
S315080082107A70E56CFFF7CEFE291804F14800FFF7DF
S31508008220E9FF636CD80714D5FFF70EF804F5005577
S315080082300646D5F8E010684636F09CFF05F1E007DB
S315080082400099002940F08180D5F8E00008B92EF0A1
S3150800825031F8636C990625D55F4D95F8D5367BB10F
S31508008260FEF7F2FFD5F8D83603F5C333A0331B1A49
S31508008270002BBEBF95F8F63643F0010385F8F636AF
S3150800828095F8FF16B5F8FC3695F8FE26002970D144
S31508008290002A40F08380002B40F08780D5F8FC0642
S315080082A036F0CBFD636C5A0620D54B4EB6F8B4367D
S315080082B043B1013B9BB2A6F8B4361BB906F5D660A6
S315080082C01EF032FFD6F8B0566DB1013DC6F8B0566D
S315080082D04DB902202DF0A6F8404829461FF002F8AD
S315080082E028462DF0FDF83D481AF08BFB636CDB053C
S315080082F06ED50020034605463949A1F2A466CA7818
S315080083007AB1013AD2B2CA7032B1086806EB830272
S31508008310C2F8A406012001330135232D01F1040119
S31508008320EDD1002104EB830404F5B5540734222B60
S3150800833003DC14F8042B002A46D1002848D108206B
S3150800834003B0BDE8F0402DF0B5BF8B69F31AB3F55D
S31508008350FA6F0AD34B7938465B0902BFD5F8203144
S315080083600133C5F82031FFF762FD6846FFF748F884
S3150800837066E70139C9B285F8FF16002988D11AB10E
S31508008380013AD2B285F8FE2623B1013B9BB2A5F885
S31508008390FC368BB11348FFF70FFF7FE7013AD2B2DD
S315080083A085F8FE26002AEFD075E7013B9BB2A5F8B3
S315080083B0FC36002B7FF472AF95F8D536002BE9D042
S315080083C0012385F8D536E5E704F8041C0133AEE742
S315080083D003B0F0BDF01A0020F03A0020A0410020BA
S315080083E094310020AC410020002A00DAFEE711444F
S315080083F000E738B50D460446FEF726FF2A4601462D
S315080084002046BDE83840EFE710B590F8243004461A
S3150800841043B1012B01D1436983612046A169BDE8B7
S315080084201040E6E74169B1EB510F4FEA510001D917
S31508008430FFF7B2FD0023A061E38384F82530ECE75B
S3150800844010B590F8243004467BB1012B08D1016998
S31508008450C0680131FFF7A0FD60612046FFF7D4FF31
S315080084602046236ABDE81040184790F825306BB1BE
S31508008470012BF5D1426922B10369991A8A4298BF3C
S31508008480530063612046BDE81040BDE7012380F82C
S315080084902530D0E90513C91AFFF7ABFFE28BA38B8A
S315080084A09A42DDD310BD064B06485A69196A9142AD
S315080084B008BF9A6901F1804104BF01329A6199E6C1
S315080084C0F01A00200C1B00208368984203D04368EA
S315080084D0CB1A002B00DA8DE670470146014A02489E
S315080084E0FDF74EBF68C90408F81A0020D1E9003123
S315080084F003F10043013B8B4200D07BE6EDE710B564
S31508008500044692B0684636F0FEFD616802A836F069
S3150800851031FE029931B9694604F11000FFF7E6FF0A
S3150800852012B010BD04A8FFF7BFF868460F99FFF709
S3150800853053FE02A8FEF764FFEBE72DE9F041054676
S31508008540144604301E46069F9DF81C80FFF76FFCF4
S315080085502846FFF7D4FF656A3DB143463A46314699
S31508008560AC46A06ABDE8F0416047BDE8F0812DE958
S31508008570F04192B004460D46416802A836F0FAFD6D
S315080085800B274FF00008029E16B912B0BDE8F0811D
S31508008590314604A8FFF788F825B1294604A8FEF74E
S315080085A08DFD38B1002331462046CDE9008704AA5F
S315080085B0FFF7C3FF02A8FEF723FFE4E72DE9F04F14
S315080085C09FB00093289B064608460193FEF749FE8E
S315080085D002280C4617460CD0032801F1310300F097
S315080085E0F480B28923F00103511C52BAB1815A8032
S315080085F045E006A8FEF745FEFEF726FE3A4600F5D4
S315080086007130D83006F12C09059006AB07F1200C1D
S315080086101D4610685168083203C562452B46F7D1D6
S3150800862010682146286092884846AA803A46FFF78D
S3150800863049F8054618BBF16A03A836F09BFDAA4619
S31508008640AB46DDF80C80B8F1000F40F09D801FFAAC
S315080086508AF3092B03D929464846FFF7E8FB204643
S315080086606189FFF792FB054648B12C2205A9FFF759
S315080086706BF9002800F09E802846FEF7C7FE2046C4
S31508008680FFF744F92046FEF7F3FD002800F0A48022
S31508008690B4F80AB0BBF1000F00F0B88010AB3D4645
S315080086A0994607F1100C1A4628686968083503C206
S315080086B065451346F7D17B8C14AAADF8603005F1F1
S315080086C0100C134628686968083503C365451A46B9
S315080086D0F7D1009A97F825301992019AC3F3001337
S315080086E01A92BDF874209B0222F49F6222F00702B8
S315080086F043F00403134340F6B9314FF4FA60ADF87A
S315080087007430FFF749FC9DF875301C906FF3000331
S3150800871020468DF87530FEF7ABFD9DF8753060F391
S3150800872041038DF87530FEF78FFD9DF87530594673
S315080087309B074CBF1C9B394B18441B902046FFF7E0
S3150800874024FB054600285CD038224946FFF7FCF88A
S31508008750002853D106F10408012229464046FFF7AE
S315080087602EFB3046FFF7CBFE21463A463046FEF74B
S3150800877086FD0446002845D040462946FFF757FBA4
S315080087803046FFF7BCFE3DE011A8FEF77AFD4146EC
S3150800879010A8FEF790FF25B1109AA2EB0B02002A4B
S315080087A002DA4546DDF840B003A8FEF729FE0AF1CD
S315080087B0010A46E7294648460122FFF700FB0599C4
S315080087C006F13400FFF780FE59E723F001035B78D2
S315080087D0002B3FF454AFFEE72046FEF742FD012882
S315080087E014D1009B93B104F1310323F0010393F8EC
S315080087F000B00BF00F0B0BF1040B4FE72846FEF702
S3150800880005FE032420461FB0BDE8F08F3A462146F0
S3150800881030461FB0BDE8F04FFEF731BD486B01008A
S31508008820002307B50093FFF7C9FE03B05DF804FB04
S315080088302DE9F0419CB0C568FEF706FD064604A87A
S31508008840FEF71FFD696802A836F094FC1C274FF056
S315080088500008029C2CB92846FFF751FE1CB0BDE85B
S31508008860F08121460EA8FEF71FFF199BF31A002B6D
S315080088700EDB9DF86D309A0702D59DF86C305BB912
S31508008880002321462846CDE900870EAAFFF755FEA4
S3150800889002A8FEF7B5FDDCE7013B8DF86C301A9BA4
S315080088A020465B001A9333441993382361890DEBEC
S315080088B00302383989B2FFF705F89DF86D30DB07F2
S315080088C0E6D40DF1200C12AB0FCB8CE80F00BDF8E7
S315080088D058300EA904A8ADF83230FEF7B9FC9DF859
S315080088E06D309DF83520C3F3800363F304128DF8C9
S315080088F0352061892046383989B2FFF746FA044699
S315080089000028C5D0014604AA2846FEF7B8FC002868
S31508008910BED02046FEF77AFDBAE72DE9F04701F109
S31508008920310727F0010715467B1ACA891C3B9A426C
S3150800893006460C4694B000D2FEE7B1F80C803846DD
S31508008940FEF7B8FC04233A4641462046A7F80E80AF
S31508008950FEF79FFE00284DD13B7803F00F03082B46
S3150800896048D808F1040120463A1D89B2FEF791FE5F
S3150800897000283FD10DF1180821464046FEF743FF6F
S31508008980002837D14FF6FF79BDF81E304B452CD15C
S31508008990FB89BDF820102046C91A89B23982FEF72C
S315080089A0D6FD7B78013B032B35D9716803A836F0D1
S315080089B0E1FB05F1100ADDF80C90B9F1000F40F063
S315080089C0D480F36C002B40F00B812046FEF750FC58
S315080089D020B92046FEF745FC01285DD12B462246E4
S315080089E00321304636F046FC56E04046FEF7C4FE04
S315080089F00028C9D02B78FF2B4ED02046FEF738FC2E
S31508008A00002849D02B4622460321304614B0BDE83B
S31508008A10F04736F02FBC736ADBB92A46214606F1C1
S31508008A202C00FEF74FFE38BB214603A8FEF7EBFEE7
S31508008A304FF6FF77002840F02981BDF81230BB4277
S31508008A4063D0BDF810300B2B5FD003A8FEF794FE59
S31508008A50F0E72946B26A98470028DED017281BD1C6
S31508008A602B78FF2B18D02B4622468421304614B08B
S31508008A70BDE8F04736F0AEBB41892C3989B2FFF71D
S31508008A8084F9074640B1FEF741FF2A463946304683
S31508008A90FEF7F5FB002857D114B0BDE8F087474527
S31508008AA016BF3A46424602F801ABD7180DF139010E
S31508008AB08F42F1D2BDF814100398C91A89B2FEF78D
S31508008AC09AFD03A8FEF758FE002840F0DF80BDF89F
S31508008AD012304B4503D0BDF810300B2BF1D1BDF841
S31508008AE012304B45DBD100233B70776D9FB9376A4F
S31508008AF0CFB9736C23BB2B78FF2BCDD02B462246E0
S31508008B008421304636F066FBC6E747464FF6FF79BE
S31508008B104FF02F0AE3E72B46224641463046B84730
S31508008B200028E4D0B8E741463868FFF75DFA28B16F
S31508008B302A4621467B68B8689847ADE7FF68D7E7B5
S31508008B402A462146B06CF7E7172808D12B78FF2B61
S31508008B5005D02B4622468421304636F03BFB384664
S31508008B6014B0BDE8F047FEF751BC49464046FEF74B
S31508008B709BFD51460AA8FEF7A1FA20B1BDF8382098
S31508008B806B8C9A4207D09DF82830FF2B03D00CA88F
S31508008B9013F020FA00B32046FEF763FB012815D927
S31508008BA00238C0B2012817D809F1310323F00103AE
S31508008BB05A887B889A420FD12046FEF752FB032833
S31508008BC03FF66AAFDFE800F04F55211449462046C4
S31508008BD0FDF769FD0028EFD103A8FEF711FCEAE6C8
S31508008BE02A462146306D984700287FF455AFECE6B3
S31508008BF07B78002B7FF450AF0B22CDE9003242463A
S31508008C0049463046FFF799FC46E77B78E3B99DF875
S31508008C104D309A070CD543F001038DF84D30B9F85D
S31508008C200A10382338394246484689B2FEF74AFEC2
S31508008C300F9B002B7FF430AF301D4946FFF7F7F83E
S31508008C403046FFF75CFC27E73F2B7FF625AF494602
S31508008C502046FDF728FD00283FF41EAF0023CDE986
S31508008C6000532346CBE72B4622460221304636F0F0
S31508008C7001FB0F9F002FF1D09DF82830FF2BEDD177
S31508008C8000232A4621461098B84705E717283FF4D7
S31508008C9032AF01E730B5C46891B001A836F033FAAF
S31508008CA0216803A836F066FA039D35B901A904F1CF
S31508008CB00800FFF71BFC11B030BD06A8FEF7E1FA65
S31508008CC0294605A8FEF7F7FC0599019B5B1A002BB8
S31508008CD007DB29462046FFF7AAF803A8FEF790FB0C
S31508008CE0E2E701A8FFF778FAF7E770B5D0F8FC30A5
S31508008CF004462BB193F82230022B01D1002070BD17
S31508008D0004F13C063046FFF7E8FB04F16C0504F174
S31508008D10FC039D42F2D095F82220012A01D0243581
S31508008D20F7E7032104F1640010F008F800B1FEE744
S31508008D304FF47A72134BC4F8FC50C4E912234FF669
S31508008D40FF7384F86000A4F85830FFF711F90E4B4A
S31508008D50B0FBF3F202FB130000F57A70206530468B
S31508008D60FFF752FB94F8603053B9636C9E4207D004
S31508008D70A36C226D9A4203D030462365FFF744FB65
S31508008D800120BCE7C0D40100D9D001004160024AE5
S31508008D9001460248FDF71ABB74C90408FC1A0020EC
S31508008DA010B5274C94F87E3F033B032B46D8DFE8E3
S31508008DB003F002061713BDE8104031F09DBBD4F846
S31508008DC0943F987931F0FCF9D4F8940F0E22BDE857
S31508008DD0104000212DF0F4BFBDE8104031F0BEBBB5
S31508008DE0B4F87C3F9B0700D5FEE736F03DFB7F28AD
S31508008DF007D094F98F3F7F2B01D0984201DD84F884
S31508008E008F0FFEF721FAD4F8903FC01A002806DA29
S31508008E10D4F8E01F0B488031BDE81040B6E794F857
S31508008E207E3F94F98F0F022B1CBF022384F87E3FE6
S31508008E302DF04CFBBDE810402DF086BB10BD00BFE1
S31508008E40F02A0020CC3A00200146024A0248FDF7E3
S31508008E5097BA00BF74C90408FC1A00204378FF2B90
S31508008E6004D1408840BA80B204307047981C7047D5
S31508008E7038B505460C46FFF7F1FF294682B220466B
S31508008E80BDE83840FEF760BDF7B50E4617460446FE
S31508008E9002236A4639463046FEF7D1FC054680B9B4
S31508008EA09DF8003023709DF80130FF2B0CD002216D
S31508008EB0607002333A68C4F80220A288934214D933
S31508008EC00625284603B0F0BD0423394630460DEB87
S31508008ED00302FEF7B4FCD8B901236370BDF8063067
S31508008EE004215BBA9BB20433E4E79BB2934228BFE2
S31508008EF013466288A380134472899BB29A42DFD3D1
S31508008F00D4F80230A01DC4F80630FEF7FFFFD8E7F4
S31508008F100546D6E773B5044601A80D461646FEF77C
S31508008F20E4FF2946204601AAFFF7AEFF38B92378A1
S31508008F30B34205D0A18801A8FEF7E8FFF1E717209C
S31508008F4002B070BDF0B585B0054616460A4601461C
S31508008F5001A81F46FFF7DEFF044650B9BDF80820F2
S31508008F603B46B24228BF32462846BDF8061036F0C0
S31508008F70D4F8204605B0F0BD1FB514460A4601468A
S31508008F8001A8FFF7C7FF10B9DDF80A30236004B05F
S31508008F9010BDF0B51746428985B0ADF800101E46DB
S31508008FA08A422CBFC1EB0203C1EB0103C9439BB242
S31508008FB089B2994228BF19460546ADF802106A4695
S31508008FC0014601A8FFF760FF044660B9BDF80C200A
S31508008FD03346974228BF174628463A46BDF80A1030
S31508008FE036F09BF8F455204605B0F0BDF0B51746A7
S31508008FF0428985B0ADF800101E468A422CBFC1EBE7
S315080090000203C1EB0103C9439BB289B2994228BF47
S3150800901019460546ADF802106A46014601A8FFF74B
S3150800902033FF044660B9BDF80C2096420BD8B2420D
S315080090303B4628BF32462846BDF80A1036F06DF87A
S31508009040204605B0F0BD0624FAE710B502231446FB
S31508009050FFF7CCFF10B923885BBA238010BD042321
S3150800906010B51446FFF7C2FF034618B92068FEF785
S3150800907069F92060184610BD30B585B00446154616
S315080090800A46014601A8FFF745FF40B901232A46CB
S315080090902046BDF8061005B0BDE83040A6E705B085
S315080090A030BD002213B504468DF80720084663B97B
S315080090B010210DF10702FFF7DFFF0346C8B99DF837
S315080090C00720B2B1FF2A08BF2523002062786FF374
S315080090D041026270D4E9092160620AB118469047D4
S315080090E041F2883104F1180002B0BDE81040FFF7DC
S315080090F080B90623E9E730B585B0044615460A4621
S31508009100014601A8FFF706FF38B92A462046BDF8EA
S31508009110061005B0BDE8304097E705B030BD30B55C
S3150800912085B0044615460A46014601A8FFF7F2FE31
S3150800913038B92A462046BDF8061005B0BDE83040C5
S315080091408DE705B030BD73B5154601AA04461E461F
S31508009150FFF712FF28B933462A46204601A9FEF72B
S315080091606EFB02B070BD10B5044601448C4202D3B2
S315080091700024204610BDA31C9942F9D36378FF2B1F
S3150800918002D1231D9942F3D32046FFF767FE2044F8
S315080091908142EDD323789342EBD00446E6E70422D6
S315080091A0FEF7D2BB0222FEF7CFBBFF2B73B50546EF
S315080091B016461C4612D18DF805304FF47F438DF8BC
S315080091C0041001A9ADF80630FFF7E9FF20B92246D9
S315080091D031462846FEF7B8FB02B070BD8DF8001080
S315080091E069468DF80130FFF7DDFF0028F4D1002C21
S315080091F0F2D0ECE770B505460E461C4611461846F1
S315080092000BB1FEF7E5FE22463146C3B22846BDE855
S315080092107040CAE707B501238DF807200DF107024C
S31508009220FFF7C3FF03B05DF804FB07B552BAADF804
S31508009230062002230DF10602FFF7B7FF03B05DF81B
S3150800924004FB13B504461046FEF77CF80423019088
S315080092500DEB03022046FFF7A8FF02B010BD10B5BC
S315080092600446FDF7F1FFD4E90031E268C01A9A42D4
S3150800927002D10028A8BF013110BD2DE9F3411E46D1
S315080092801B4B044683424FF000038B4115460AD216
S3150800929015A3D3E900233EF0DBFD16491446024622
S315080092A02846FEF7EAFE144B4EF66021B4FBF3F2AD
S315080092B003FB1244B4FBF1F34FF47A7801FB134431
S315080092C0B4FBF8F728460D490097FEF7D6FE46B1D7
S315080092D0284608FB17420A4902B0BDE8F041FEF7E6
S315080092E0CCBE02B0BDE8F081005C26050000000097
S315080092F0FF5B260537C9040880EE36003DC9040819
S315080093004CC9040813B5006850B14AB141B10023ED
S315080093100068019301AB31F01FFC0FF069FB00B147
S31508009320FEE702B010BD2DE9F843436C1546134419
S31508009330026C044693420E461AD84FF000084F199D
S3150800934000F11009B74214D1636C1D44236C65649F
S315080093509D420BD1B4F850302BB104F110021146DE
S315080093602046FFF7CFFF0023A4F85030BDE8F88366
S31508009370FEE7B4F85030102B06D14A464946204637
S31508009380FFF7C0FFA4F85080B4F850305A1CA4F870
S315080093905020234416F8010B1A7C50401874D1E764
S315080093A02DE9F04F1D4685B09DF838309146029359
S315080093B0C36C826C2B4493420446884629D86FF0C6
S315080093C0200B0F46CA466B18019300F12003ABEB3E
S315080093D0000B0393019B9F421CD1E36C1D44A36CB5
S315080093E0E5649D426CD3B4F850302BB104F11002F9
S315080093F011462046FFF786FF002194F8542002F113
S3150800940021002044C2F10F0205B0BDE8F04F3EF03E
S3150800941010BFFEE7B4F85220102A16D104F1300026
S31508009420024694F854600BEB00018E4206DA10F8F7
S31508009430011D0131C9B201700029F4D020460399F3
S31508009440FFF760FF0022A4F85220029B43BB3E7838
S31508009450B9F1000F0AD0B4F85220511CA4F85210E2
S31508009460224492F8302072408AF80020B4F850203E
S31508009470102A08D104F1100211462046FFF742FFD0
S315080094800022A4F85020B4F850200137511CA4F843
S3150800949050102244117C0AF1010A4E40167499E7CD
S315080094A0B4F852209AF80060511CA4F852102244CD
S315080094B092F830205640B8F1000FD7D03E70D5E765
S315080094C005B0BDE8F08F38B5D0E912329A420446A5
S315080094D00D4600D0FEE700F1300200F12001FFF74B
S315080094E011FF002304F10F0294F855108B4200DB9C
S315080094F038BD12F8011F92F820004140E9540133A3
S31508009500F2E72DE9F04F056889461746A5B0002D04
S3150800951000F020812B68002B00F01F81042B33D02C
S31508009520052B36D0012B40F0DF80A868002800F014
S315080095300E818D4B20F47E149C421AD1EB680BB138
S31508009540E86C38B9894825F00AFF0446002800F077
S31508009550F08038E005F002FD10F1860F06D00028ED
S31508009560F1D09330EED16FF06F00ECE76FF0710039
S31508009570E9E77F4B0340B3F1607F40F0E88005F1EF
S31508009580100026F033FCE0E705F1080005F0E6FCDC
S31508009590DBE7D5F88840764B05F1080B2340B3F195
S315080095A0607F40F0CC80D5F8AC10002940F0CF8021
S315080095B028221AA83EF03DFE1AA840F0F5FD80467E
S315080095C028B16FF09204284626F01EFFB2E0E3B2F7
S315080095D043F0007303F17E43053B062B00F29D80A2
S315080095E0DFE803F0909B9B8D9304850030260423C7
S315080095F0C4F30544B44277D8002C18BF2646202E5B
S315080096007AD85C495A1E51FA82F292F81CA0BAF12D
S31508009610200F7FD8584A584602EB03231A93002393
S3150800962012A9CDE91B33229304F094FA04460028C4
S3150800963071D112991AA840F0BEFD39461AA840F011
S31508009640BAFD6946584604F05EFB0446002862D116
S3150800965069461AA804F094FB584603A904F06AFB65
S315080096600446002857D1012403A91AA847F0005731
S3150800967004F086FBCDF83C9006AB10940FAA119720
S3150800968007CA83E8070019461AA804F079FB12AB43
S315080096900C934AF000530D940CAA0E9309AB07CA13
S315080096A083E8070019461AA840F08EFD1AA840F06C
S315080096B031FA044678BB324612A905F18C003EF011
S315080096C0D7FF0023C5F8AC6012AA02F8083008F1E3
S315080096D00108B8F1200FF7D1212C21D11AA840F0A2
S315080096E063FD00287FF46DAF6FF086046BE714F412
S315080096F07C1FC4F305460BD16FF0890463E71C266B
S31508009700022375E71426012372E7202603236FE751
S31508009710052374E721240026D3E76FF0850452E772
S31508009720002C7FF44EAF1AA840F03EFD00287FF4C7
S3150800973048AF002420460FF05BF988B1FEE71346D0
S3150800974005F188000A46594604F05AFEFDE66FF010
S31508009750880438E76FF08604ECE76FF08804E9E7D9
S3150800976025B0BDE8F08F00BF0002C003009FFFFFD1
S315080097700000C07F64C904080001020308B5006838
S3150800978028B1044926F004FB0FF032F900B1FEE7D0
S3150800979008BD00BF0900000208B5006828B121B15C
S315080097A026F024FB0FF024F900B1FEE708BD10B53A
S315080097B086B00446ADF80630084603AB11460DF1EF
S315080097C00602FDF7E2FEBDF810200AB906B010BD84
S315080097D020460399FFF7E0FF03A90DF1060030F0D4
S315080097E070FCF0E7002307B50068019330B120222A
S315080097F001AB26F023FB0FF0FBF800B1FEE703B040
S315080098005DF804FB73B50C46054646220021A01CEC
S315080098103EF00FFD2C2305F580522380B2F8603602
S3150800982005F50356C3F12C036380B2F8623604F1DA
S315080098300801A38006F10C00FDF750FC04F11001A5
S3150800984006F12000FDF74AFC05F5B35004F11801AE
S315080098501430FDF743FC05F5075004F128010430E0
S31508009860FDF73CFC05F5C05004F130011430FDF756
S3150800987035FC05F5C15069461C30FDF72FFC238ED3
S31508009880BDF8002013442386BDF80220638E1344D6
S315080098906386019A636B1344636302B070BD1F2924
S315080098A09DBF0068C84000F001000020704710B551
S315080098B00B780446FF2B04BF0A230B700B780A4665
S315080098C00133D9B21A29117001D9172010BD2046C3
S315080098D0FFF7E5FF10B90131C9B2F3E70020F5E754
S315080098E0837FC22003F00F03D84000F001007047C1
S315080098F038B501290446456832D130F04FF9237E40
S315080099009A0702D5642828BF64205B0715D5A022CC
S31508009910204BB0F57A7FB3F86A3F28BF4FF47A70C8
S31508009920534303F5FA73B3F57A7F06D34FF47A7285
S31508009930B3FBF2F3984228BF1846637E0F2B02D971
S31508009940BC2828BFBC20A36833F07C4204D0C3F3EC
S315080099501903984228BF1846002808BF0A206060E5
S31508009960FDF772FC6369014604F10C0098420DD0BC
S315080099706268AA420DD0531A24680A3BE3424CBFD8
S315080099800A222146BDE83840FEF72EBD62682160EE
S31508009990F8E738BDF02A002008B531B1092914D9ED
S315080099A06FF07C43994228BF19468368C3F31902AE
S315080099B08A4208D061F319038360037EDB0702D568
S315080099C00121FFF795FF002008BD0720FCE700F5F9
S315080099D004503830E0E710B5038904468B4205D1B8
S315080099E0BDE810404FF400402FF08CBF01814FF4C2
S315080099F000402FF053FF2089BDE8104030F00CB925
S31508009A0010B5027804465107437817D4120701D5D2
S31508009A10F3B110BD002BFCD1B0F8A030FBB190F823
S31508009A203630072B1CBF072380F83630838E19067D
S31508009A30EFD4BDE810403430FCF7F6BE002BE8D171
S31508009A404388180604D5E16904F1D000FEF7D2FB75
S31508009A50E17A04F13400BDE8104035F0B4BA90F864
S31508009A604630DA070AD4838EDB0507D594F83630F4
S31508009A70012BCED0012384F83630CAE730F072FBCA
S31508009A800028C6D1F2E738B500F5805494F80C28BA
S31508009A90054612BB94F8482F114B61F3C30284F8AC
S31508009AA0482F104A186811703FF073F900B1FEE7A5
S31508009AB094F8483F05F5FA505907C3F3800258BF92
S31508009AC0C3F3C00294F88E3F083062F3000384F8AB
S31508009AD08E3FFFF795FF002038BD0D20FCE700BF3D
S31508009AE0641900205C190020012342888B40134327
S31508009AF04380437813B9C830FEF75EBB704770B52C
S31508009B000578ED071DD54578012D1CD0468816F039
S31508009B10020F18D1022D16D0C6F38005760712D487
S31508009B208362049B4282C362FF230374C3680029CD
S31508009B3008BF19460B4043610221FFF7D5FF2846A7
S31508009B4070BD0D20FCE70520FAE770B50578ED072E
S31508009B5022D54578012D21D0468816F0020F1DD151
S31508009B60022D1BD0C6F38005760717D48362049BA3
S31508009B70002AC3624FF0FF030374C36808BF4FF49B
S31508009B809672002908BF19460B404282436101219B
S31508009B90FFF7AAFF284670BD0D20FCE70520FAE767
S31508009BA000230380704700F44052B2F5005F034675
S31508009BB020D148F2400220F44E5020F03F00904257
S31508009BC01ED00CD8B0F5446F1AD005D8C8B1B0F578
S31508009BD0046018BF01207047B0F50040F9E703F4A8
S31508009BE04C43B3F5404F0BD04CF64043C01A18BF50
S31508009BF00120704710F4406F14BF01200020704701
S31508009C000020704738B505680C46284635F0A6FC8E
S31508009C10FFF7C9FF40B1284635F0A2FCFF2803D05C
S31508009C202B5A0020238038BD0620FCE738B5056886
S31508009C300C46284635F092FCC30500D5FEE7AC7005
S31508009C4038BD00F44053B3F5005F04D100F44C432B
S31508009C50B3F54C4F07D0B0F5804F04D380F04000E1
S31508009C60C0F3801070470020704710B58388032B17
S31508009C7012D9006835F072FC80F480720446C2F38B
S31508009C800021FFF790FF48B98A1CC4F38123022BF1
S31508009C9006D0032B17D02BB1FF2212E00A1DF4E7DA
S31508009CA00232D2B22046FFF7CCFF08B10232D2B256
S31508009CB0C4F38134022C08D0032C09D0002C18BF19
S31508009CC0FF22104610BD0832EBE70232D2B2F8E79F
S31508009CD00832FBE7F8B507680E46384635F03EFC0D
S31508009CE00546FFF7AEFFD0B1384635F039FC0446D5
S31508009CF02846FFF758FF08B10234E4B2C5F38125B8
S31508009D00022D07D0032D08D0FF2C08D000203B5B7E
S31508009D103380F8BD0234E4B2F6E70834FBE70620E0
S31508009D20F7E710B583880446022B07D9006835F093
S31508009D3030FC18B12046BDE8104096E7FF2010BD5C
S31508009D4038B505460C46FFF7ECFFFF2817BF2B680A
S31508009D5006201B5C00201CBF03F00703237038BDD8
S31508009D6038B505460C46FFF7DCFFFF2817BF2B68FA
S31508009D7006201B5C00201CBF03F01803237038BDA7
S31508009D8038B505460C46FFF7CCFFFF281FBF431C16
S31508009D902A68DBB2D3581ABF00202360062038BDD4
S31508009DA038B505460C46FFF7BCFFFF2800D1FEE78D
S31508009DB02A68431CD9B2545452FA83F3220A5A70B9
S31508009DC0220C240E9A70DC702B7F43F001032B774C
S31508009DD038BD00F01800102805D0A0F11803584225
S31508009DE05841C00070470420704708B5430702462B
S31508009DF008D0FFF7EEFF12F0180F0CBF053006303B
S31508009E00C0B208BDFF20FCE72DE9F04F057B0688A8
S31508009E10B0F8029087B0031D012D04460F4646EAA6
S31508009E20090B019330D0022D0CBF0322002294F8AF
S31508009E3016A04BEA823BBAF1010F04F10E0825D0B1
S31508009E40BAF1020F2FD0BAF1000F21D1A37F94F8EF
S31508009E502120003B18BF0123B9F5805F4BEAC303F5
S31508009E6005D0B9F5005F21D0B9F1000F29D145B168
S31508009E70BAF1000F05D0208B618B884208BF43F0EA
S31508009E804003D60721D5FEE70222D0E74BF4006B44
S31508009E905146E08935F0ABF80028D7D1022E18BF15
S31508009EA04BF0200BD2E74BF4406BF1E7BAF1000F09
S31508009EB040F09480617F002D40F08880002940F0B2
S31508009EC09A80D50748BF43F48073C2F3400243EA39
S31508009ED042253B6804A804934FF4FE0329460593DC
S31508009EE035F023F9E80503D4012104A8FCF722FA82
S31508009EF02846FFF758FE18B1618B04A835F015F906
S31508009F0004A8414635F01CF92846FFF79AFE18B111
S31508009F10218B04A835F009F9211D04A835F010F99C
S31508009F20BDF81430BB80A67FA6B1E37F0DF10F0103
S31508009F301E4304A88DF80F60FDF740FA3046FFF778
S31508009F4054FF411E89B204A8FCF7F4F93046FCF721
S31508009F50A1FA064694F8213099070ED5022104A8DD
S31508009F60FCF7E8F90D2304214370017004A8FCF7F7
S31508009F70E1F93B7F43F008033B77AA0523880ED512
S31508009F80032B03D094F821305B0714D4022104A8CC
S31508009F90FCF7D0F96FF07F0303703F2343702388E3
S31508009FA0032B08D194F820300DF10F0104A88DF881
S31508009FB00F30FDF703FA0236B1B204A8FCF7BAF976
S31508009FC0BDF81430BB8007B0BDE8F08F00297FF4D8
S31508009FD078AF217F00297FF474AF0CE00DB9617F5B
S31508009FE0F8E7022D02D1BAF1020FF8D0208B618B67
S31508009FF088427FF466AF43F0400362E770B50546D2
S3150800A000FFF733FEFF28044611D02E68304635F098
S3150800A010C0FA60B1A9888C420BDA305DFFF7E5FE1D
S3150800A020FF2808D00444E4B2A142B8BFFF24204662
S3150800A03070BDFF24FBE70446F9E770B506460D46F2
S3150800A040FFF76FFEFF28044609D03268105CFFF759
S3150800A050C0FE22440244002053792B7070BD0620AE
S3150800A060FCE770B506460D46FFF75BFEFF2804467B
S3150800A07000D1FEE73268105CFFF7ABFE22440244CB
S3150800A080557170BD10B50446FFF74BFEFF2806D084
S3150800A0902368185CFCF7FEF90230C0B210BD022036
S3150800A0A0FCE770B50646FFF7A9FFFF2804462CD043
S3150800A0B03568284635F052FA83051BD53046FFF732
S3150800A0C0E1FFB188A21C93B210FA82F28A4205EB2C
S3150800A0D004061CDC2A5D02F07F0213449CB210FAC7
S3150800A0E083F3994213DB3288C2F3C7127F2A01D061
S3150800A0F09942E7DC2B7803F00703032B05D12846A2
S3150800A10035F03DFA08B90134A4B2E0B270BDFF24B7
S3150800A110FBE738B50546FFF7C4FFFF28044614D009
S3150800A1202868037803F00703032B04D135F027FAD0
S3150800A13008B10134E4B22846FFF7A4FFAB8804440B
S3150800A1409C42CCBF0620002038BD0620FCE710B58F
S3150800A1500446FFF7A6FFFF2816BF23680020C0188D
S3150800A16010BD10B50446FFF7F2FF2368C01AC0B247
S3150800A17010BD70B505468688FFF7F3FF04462846E6
S3150800A180FFF780FF0444301B80B270BD10B504464B
S3150800A190006835F0E3F9830503D52046BDE810408D
S3150800A1A02CE7FF2010BD08B530F048FA003818BF74
S3150800A1B0012008BD08B530F041FA00B1023008BDEB
S3150800A1C000232DE9F0419EB003930AAB08930823B8
S3150800A1D0044600680D46ADF8243035F0DAF9002853
S3150800A1E059D020460DF10B01FFF7AAFD002852D1E0
S3150800A1F0204603A9FFF7C4FD064600284BD10DF1FA
S3150800A20010084346286869689DF80B2003C303981D
S3150800A2101946FDF73AF8A3688DF81C20196808A8AE
S3150800A22034F06CFF2046FFF72DFF05462046FFF762
S3150800A23098FF07462046FFF79CFFAB1EDBB2024697
S3150800A240394608A8CDF800802FF0D6F92046FFF742
S3150800A25088FF25680246294608A8FFF764F82046BD
S3150800A260FFF775FF05462046FFF783FF2A46034694
S3150800A270294608A80096FFF793F82046FFF702FF3D
S3150800A280A38825681B1AE91808A8FFF71CF9237F75
S3150800A29043F0100323771EB0BDE8F0810023F0B524
S3150800A2A0A3B003930EAB0C930823044600680D462F
S3150800A2B01646ADF8343035F06CF930B120460DF15C
S3150800A2C00B01FFF73DFD10B1082023B0F0BD204675
S3150800A2D003A9FFF755FD0028F6D104AF3B462868C9
S3150800A2E069689DF80B2003C303981946FCF7CDFF50
S3150800A2F031680CA88DF81C2034F000FF2046FFF7C3
S3150800A300C1FE851E2046FFF72CFF06462046FFF7AE
S3150800A31030FFEDB22B46024631460CA800972FF0C7
S3150800A3206BF92046FFF71DFF2668024631460CA842
S3150800A330FEF7F9FF2046FFF70AFF06462046FFF715
S3150800A34018FF01220346314600920CA83246FFF751
S3150800A35027F808A90CA8FFF7B6F82046FFF792FEDB
S3150800A360A3882668181A31182A4608A83FF045F91E
S3150800A370003818BF0120C000A7E70B6803604B68C8
S3150800A3804360037883F0020303707047082208B518
S3150800A3903FF033F9B0FA80F0400908BD10B504461D
S3150800A3A000680EF0D5FC4FF00043236010BDF0B5F1
S3150800A3B0002787B0044600680E46154605970EF036
S3150800A3C0C7FC4FF00043236010234FF41051CDE92A
S3150800A3D00163074A45F44073009705A81EF0A7FFD6
S3150800A3E00EF006FB00B1FEE7059B236007B0F0BD43
S3150800A3F00044400408210EF0A1BC2DE9F04F0026C8
S3150800A400A74B8FB0D3F828900096B9F1000F00F04B
S3150800A410228303F500549E6294F85931002B4BD0E1
S3150800A42019F0030F14D004F55A71A1F6344014F04C
S3150800A430E9F858B904F55C70FFF7DCFF00B1FEE7F0
S3150800A44098482FF00DFA10202FF028FA2FF0BCF9B3
S3150800A45019F4405F04D02BF00BFC08B12FF0B4F9C7
S3150800A46019F4007F05D019F0040F02D18E4814F0B4
S3150800A47061FA19F4827F0AD019F4807F04D194F81E
S3150800A480590134F004FC10B1874813F0B5FD19F4EE
S3150800A490800F11D0854B08A8D3F8542F93F8521F74
S3150800A4A00892FFF7FCF9024630B994F859311BB106
S3150800A4B001467F4813F00AFF19F40073019300F070
S3150800A4C0468194F859310BB12AF01EFF4FF0000A65
S3150800A4D001235746D04602AA8DF8083003928DF814
S3150800A4E010300DF1200B5146724803AA2BF02CF9B7
S3150800A4F0824688B9B8F1000F3AD14FF6FE73A4F830
S3150800A5009036009BC4F89456A4F8923684F8986658
S3150800A51000202AF0E5FF62E0664B08930023CDE9A8
S3150800A52009A3584618F0ABFF0028DCD10A9A5378DD
S3150800A530023B062BF5D9B8F1000F16D094F87F1117
S3150800A540538889025BBA89B21FFA83FC61450CD02D
S3150800A550B8F802305BBA9BB29942E2D010793978E2
S3150800A560884202D8DDD19C45DBD99046171DD8E72D
S3150800A570B7F80130B8F802205BBA98B20090D7F85D
S3150800A5800300FCF7DFFE91B2054652BAB4F890060E
S3150800A5901FFA82F840453E784FF6FF602AD081427E
S3150800A5A0ABD0B5F5967F38BF4FF496754249A4F8F7
S3150800A5B090268D4228BF0D460120A4F89236C4F88D
S3150800A5C0945684F898662AF08BFF94F85B319D07B9
S3150800A5D002D42AF076FF10B1384812F09DFE002307
S3150800A5E0344D03935A46284603A91DF041F8D0B1C5
S3150800A5F000211EE0814280D0B5F5967F38BF4FF422
S3150800A60096752D4A954228BF154694F89826B24263
S3150800A610D2D1B4F892260099C4F894568A4218BF43
S3150800A620A4F8923674E79DF832305807C3F38001D0
S3150800A630D8D594F8AC7681B9002F4AD01122204893
S3150800A6403DF0F7FD94F8D436D90702D51B4834F007
S3150800A65096FD1A4812F038FE3BE09DF83050BD4290
S3150800A66006D12A4658461649FCF748FE854229D996
S3150800A6705E4604F29C650FCE0FC533682B704FB14A
S3150800A68094F8D4360D48DA0702D534F078FD0B482D
S3150800A69012F01AFE94F8AC36002B40F0EE80FEE776
S3150800A6A0F01A0020583E0020483C0020F02A0020DE
S3150800A6B0E43D0020284000209BC42000A84100203B
S3150800A6C08C410020B649A1F57B6013F09BFF00285A
S3150800A6D0E0D005250026DFF8F88208F62847013D70
S3150800A6E040F0EC802E464FF0010A03955A46AD48D5
S3150800A6F003A91CF0BDFF0546002800F00681002EC0
S3150800A70000F03381A84DB5F8B83873B9022105F6BB
S3150800A710A80012F097FC40F2222105F6A80015F0D1
S3150800A72033FD05F6A400FEF7E0FAD4F8745775B1C0
S3150800A7305A4609219B4818F08DFE40B12846FCF779
S3150800A74065FE00239948C4F87437FDF7C6FE40F63F
S3150800A750040319EA030F1CBF0023C4F8583640F651
S3150800A760042319EA030F02D091481DF037F919F0AE
S3150800A77004080DD094F85931022B00F2FD808D485B
S3150800A780FDF7ABFE00238C4884F80E38FDF7A5FECE
S3150800A79019F0805F844E2FD0002308A808932AF06A
S3150800A7A005FE48BB089D3DB3D4F804389D4223D026
S3150800A7B0D6F8543F1D40C4F8045825B97D48FDF71E
S3150800A7C08CFE84F80E58FF2300258DF80C3003A95B
S3150800A7D008A8FFF76CF82B4601350028F7D0DAB23F
S3150800A7E0764B7748B3FBF2F3C4F8083896F8523F2D
S3150800A7F084F8103812F04AFC19F4804F06D096F8FF
S3150800A800523F6F4884F8103812F040FC19F4805F04
S3150800A81003D000216B481CF065FDB8F1000F06D087
S3150800A82094F85931022B02D101202AF059FE019BD6
S3150800A83083B15B49A1F57B6013F0E4FE50B158483B
S3150800A84008A932F02BF89DF832309D0702D45E48ED
S3150800A85012F03AFD94F8590134F019FA002840F03C
S3150800A860BF80C4F8FC0696F8A439002B40F0208176
S3150800A870B8F1000F00F0C780FBE0494884F8F436C9
S3150800A880FCF79EFC514901F1480011F0BBFCD4F8D5
S3150800A890DC36D4F8E02613430AD01146D4F8DC0691
S3150800A8A004F2EC6383E80300474812F000FD10E762
S3150800A8B0454812F0DFFC0028F6D00AE798F822305F
S3150800A8C003B3D8F81C30EBB103965A46384603A9A9
S3150800A8D01CF0CEFE30B140462EF086FF002388F8E5
S3150800A8E022300FE09DF83130DB06EED598F81020BF
S3150800A8F09DF830309A42E8D15946404611F078FC26
S3150800A9000028E2D008F12408E9E69DF83130DF0690
S3150800A910C3F300187FF5EAAE05269DF830702C4B78
S3150800A920013E0AD1FDB19BE80F002F7485E80F00A0
S3150800A93085F822A02B46EE6112E093F8222022B970
S3150800A940002D08BF1D462433EAE71A7CBA42FAD11D
S3150800A95018465946009311F04BFC009B0028F2D08C
S3150800A960BDF834201A844646C0E61A48FDF7B5FDF8
S3150800A970194812F029FBD8E60823A4F83C38002326
S3150800A980164984F84438C4F82C18C4F83018FDF76A
S3150800A990EFFA0948C4F83418FDF736FDF8E600BFA3
S3150800A9A0D441002028400020F02A002068420020D8
S3150800A9B0304100200443002010430020C13F050019
S3150800A9C0F4420020A0410020A84100208C4100202C
S3150800A9D000340020D033002098330020807F0A00FE
S3150800A9E009F00105B8F1000F38D1002D58D196F8B5
S3150800A9F0A43943B1019B002B5DD119F0020F02D097
S3150800AA00854811F064FE19F4047F02D0834815F0D6
S3150800AA1019FC19F0130F12D096F8553B7BB1002795
S3150800AA20D6F83457DFF81082002D40F0CD80002F7D
S3150800AA3040F0E68094F87B339B0740F1D580784B4D
S3150800AA401D4693F84040073403EBC40405F1380368
S3150800AA509C4240F0DA800FB0BDE8F08F94F8583188
S3150800AA60580702D56F4812F057FC75BB96F8A439FB
S3150800AA70F3B994F8590134F00AF90246002800F0AF
S3150800AA809580664812F05CFA96F8DC3A012BBAD142
S3150800AA900421624811F0F9FE604811F0DAFFB2E7C6
S3150800AAA094F8FF36012B14D196F8A439002BAAD0B6
S3150800AAB0019B002B75D04FF0050A5B4DBAF1010AD0
S3150800AAC00FD1554811F003FED2E694F8FF36012B54
S3150800AAD0CCD0012384F8FF36D4F8FC0634F0ADF95F
S3150800AAE0C1E6AB7C990701D42035E7E7002302933A
S3150800AAF04E4808AA02A91CF0BBFD0746C0B1EF697B
S3150800AB00002FF1D1AB7C13F0010B42D0FCF79CFB74
S3150800AB1000F5922101F57871012938BF01214448D1
S3150800AB20E961FDF7D1FC394628462AF0BDFDDBE789
S3150800AB309DF831301A07DBD59DF832305B07D7D43C
S3150800AB409DF83030402BD3D1294608A811F0B0FD26
S3150800AB500028CDD0D6F8A83953B1314808A9984766
S3150800AB6030B128462EF040FEAB7C67F34103AB7448
S3150800AB70284603A931F092FE9DF81E30980748BF73
S3150800AB809DF81D702B7EBB42AED02F762EF01CFE94
S3150800AB90AAE728462EF028FEAA7C6BF34102AA747F
S3150800ABA0A2E719F0020F3FF463AE8AE796F8DC3A9B
S3150800ABB0002B3FF428AF1F49184811F0F7FE012172
S3150800ABC0164811F062FE1EE7454517D028462DF0B7
S3150800ABD02DFCEB7CC3F3400398420CD023B1AB7C2D
S3150800ABE0990701D5DA0707D50C4811F03BFE0B4843
S3150800ABF011F02FFF23E708B10137BFB26D6913E7DC
S3150800AC00B6F8E03ABB42EFD119E7AB6B13B1484649
S3150800AC10E96B9847083519E794340020CC350020AD
S3150800AC20F01A0020A8410020A8340020284000205F
S3150800AC309C34002085C90408583E002001F1080309
S3150800AC4013F8012D8B4200F8012BF9D17047F8B59E
S3150800AC5007680E46384634F083FC0446384634F016
S3150800AC607DFC0546FEF79FFF04EB4003DBB2FF2B96
S3150800AC7013D0C5F38120022805D0032807D0002366
S3150800AC8000203372F8BDFB5A33800123F8E7F91820
S3150800AC903046FFF7D3FF0223F2E70620F2E7F8B5BE
S3150800ACA007680E46384634F059FC0546384634F0EF
S3150800ACB057FC04462846FEF776FF08B10234E4B28C
S3150800ACC0C5F38123022B12D0032B13D02846FEF797
S3150800ACD0B8FF08B10234E4B2FF2C06D0C5F38135BB
S3150800ACE0022D09D0032D0DD04DB1062009E00234FE
S3150800ACF0E4B2EBE70834FBE701253B5B3380002031
S3150800AD003572F8BD30463919FFF798FF0225F6E780
S3150800AD1008B5044BC180002218683EF02EF800B131
S3150800AD20FEE708BD6419002007B50A68C0F80A20BE
S3150800AD304A68C0F80E206846FFF780FF0723094ACD
S3150800AD401DF80310013B02F8011BF9D2064B00223D
S3150800AD50694618683EF017F800B1FEE703B05DF8DB
S3150800AD6004FB00BF60610020641900202DE9F04152
S3150800AD700446B0F86C600EF0C8FEE36F364AC11A96
S3150800AD8094F8800000233230A1FB00013DF060F802
S3150800AD90A02794F881307E4303EB830300EB43003E
S3150800ADA000F1780800F5647520467608B54230F853
S3150800ADB0843B28BF3546B04528BFB04613F080020D
S3150800ADC0A16F1FD0B4F86C607E433144491BFDF770
S3150800ADD0DDFFA36F616F3344A367204B72181A61B6
S3150800ADE0A378626713F0FD0F33D094F86E00A5F5CB
S3150800ADF0167508EB0502491B00F07F00BDE8F04117
S3150800AE0034F06ABB94F86E30DE090BD062F3C713D0
S3150800AE1084F86E30491BFDF7B9FF2046BDE8F041BE
S3150800AE20FBF702BD4144B4F86C50FDF7AFFF94F848
S3150800AE306E307D4343F0800384F86E3009F086F85F
S3150800AE40A26F636F2A44A267044A2B44636713619F
S3150800AE50E3E7BDE8F08100BF40420F00701A00200A
S3150800AE60F8B50446B4F86CC090F86E008C45069D9B
S3150800AE70B4F8706000F07F070CD094F86E0062F3A7
S3150800AE80060084F86E004FF6FF729142A4F87030FF
S3150800AE900CD1FEE7974206D062F306009E4284F87C
S3150800AEA06E00F0D1F8BD9E42E7D1FBE74FF6FD7282
S3150800AEB0934209D815480246C16022F8023B2B681E
S3150800AEC0C0F802306B68536094F86E30A4F86C10C2
S3150800AED06FF3C71384F86E3004F18400FDF7B4FFEE
S3150800AEE0B4F86C304BB10EF010FE606709F02EF81E
S3150800AEF0A0672046BDE8F84038E723881B06D1D46A
S3150800AF002046BDE8F840FBF78FBC00BF701A00204A
S3150800AF1013B590F82030DB0717D590F8212002B931
S3150800AF20827A0B4C343004F5C073009330F8121C47
S3150800AF30B4F89C31FFF794FF2EF039FC04F5AC7099
S3150800AF4002B0BDE8104013F0F5BC02B010BD00BF5A
S3150800AF50F03A002008B519B1A1F10B030F2B0ED852
S3150800AF6000F5805393F8692F8A4206D000F5FA5007
S3150800AF7083F8691F0830FFF7CBFF002008BD0720BC
S3150800AF80FCE710B504460C30FEF789FC00B3A27A3C
S3150800AF908A4205D14FF480402EF0B4FC002010BD43
S3150800AFA04FF48040A1722EF079FC04F5B470FEF7D8
S3150800AFB0F7FD23789B06F1D4A37AE37294F821303F
S3150800AFC013B92046FFF7A4FF2046FEF719FDE5E76B
S3150800AFD00720E4E71FB590F820300446990703F0E8
S3150800AFE001020ED5418C61B1F2B943F0010380F834
S3150800AFF02030FFF78DFF204604B0BDE81040FEF76D
S3150800B000FFBC8AB1002294F8203011466FF3000382
S3150800B01084F8203002AB009304F134004FF6FE7337
S3150800B020CDE90222FFF71CFF04B010BD024608B5A1
S3150800B03069B902F58052B2F86A3F00F5FA5008304D
S3150800B0401BB1A2F86A1FFFF7C5FF002008BDA020A4
S3150800B050B1FBF0F300FB1310F0B94FF6FF70834213
S3150800B06028BF0346B1F51B5F9BB215D302F5FA500C
S3150800B07002F58052B2F86A1F08308B42E5D0A2F872
S3150800B0806A3FB1FA81F2B3FA83F352095B099A422D
S3150800B090D9D1FFF73DFFD8E70720D7E7004865E68F
S3150800B0A06C3A00200A4690F8FE10FEF75CB80029B4
S3150800B0B010B514BF33210E211446FFF7F3FF38B13C
S3150800B0C0D0F802302360D0F806300020636010BD47
S3150800B0D01720FCE7F8B5044618300D46FDF7FDF9CC
S3150800B0E04FF0FF3323746374A374E3742375637595
S3150800B0F0A375E37523726372A372E3722373637392
S3150800B100A373E37395F8FE30DBB1264663782846C9
S3150800B11043F00103637016F8087B32463946FFF799
S3150800B120C6FF28B996E8030004F1100383E8030074
S3150800B13017B928462EF0FEFB2078BDE8F84033F014
S3150800B14008BFF8BD2DE9F0410746884603261B4D82
S3150800B15086B0013E02D106B0BDE8F0813B7803BB5C
S3150800B1606B7803F50033404629780593FFF79AFF75
S3150800B170044600B34278F2B1FF2A0CBF0423022327
S3150800B18003440193012341F20101029200934FF017
S3150800B190004205A81EF0CBF80DF02AFC014610B1B6
S3150800B1A0FEE7AB78DDE76278FF2A0CBF04200220B1
S3150800B1B020443DF03EF80335CBE700BF8DC90408AF
S3150800B1C070B50D46C2B00446FBF7BEFA95F8FE60A8
S3150800B1D0002E3BD12378002B14BF022001202BF030
S3150800B1E007F90C2800D1FEE7637866F300032246C8
S3150800B1F06370284612F8081BFFF759FF48B14FF04D
S3150800B200FF3323726372A372E37223736373A373A8
S3150800B210E373FCF719F823786060012B2FD11948DE
S3150800B220FDF75BF934212846FFF73CFF38B3FBF7F7
S3150800B23046F9154B0246984228BF1A46D5F800111A
S3150800B240104842B0BDE87040FDF7CEB801A833F00B
S3150800B25088FE3246294601A83DF00AFAD5F800319B
S3150800B260204601A941938DF80261FFF76BFF20780C
S3150800B27001A92EF08DFA637843F00103B7E742B0CF
S3150800B28070BD00BF8C3900200014730F70B50C46D2
S3150800B2900546C2B001A833F064FE94F8FE60214664
S3150800B2A0324601A83DF0E4F9D4F80031284601A950
S3150800B2B041938DF80261FFF745FF287801A92EF022
S3150800B2C067FA42B070BD10B591F8FE200446FF2A11
S3150800B2D009D080F8FE203DF0CBF9FBF7B5FFC4F89E
S3150800B2E00001002010BD0720FCE72DE9F8430F46B2
S3150800B2F0984690F8FE4005461646FFF7D3FEC4F179
S3150800B300FE040146A4B208F1020918B94C450AD24E
S3150800B310032021E0437802331C44A4B24C45F7D3FA
S3150800B3202846FBF72DFA95F8FE30B8F1FF0F994439
S3150800B33005EB030085F8FE90EF5414BF022304239F
S3150800B3404246314680F8018018443DF091F9FBF7F2
S3150800B3507BFFC5F800010020BDE8F88310B5044658
S3150800B360FFF7A0FE014620B12046BDE81040FBF7D6
S3150800B37007BA10BD00232DE9F74FFE2281F8FE30EB
S3150800B38003780546002BADF8042014BF02200120DF
S3150800B39001AA0C4631F0F4F80746002842D1BDF858
S3150800B3A00430FE2B3DD88146314E84F8FE3006F136
S3150800B3B0060B2B78002B39D196F801A02046317858
S3150800B3C0FFF770FE804698B142788AB1FF2A0CBF13
S3150800B3D00421022101AB01440AF500300DF06EFC90
S3150800B3E038BB98F80120019B9A4218BF4FF0010913
S3150800B3F003365E45DDD1B9F1000F03D02146284654
S3150800B400FFF744FF2B78BBB933212046FFF7A6FF89
S3150800B41034212046FFF7A2FFFBF716FFC4F8000108
S3150800B42000E01727384603B0BDE8F08F96F802A06B
S3150800B430C4E74FF00109DBE734212046FFF732FE67
S3150800B44006460028EED0FBF73AF80A4B6D68984294
S3150800B45028BF18468046FBF7F7FE431B98458ABF68
S3150800B4602D1A002005EB0800B11CFBF70EFFD3E7E9
S3150800B4708DC904080014730F30B50446C3B001A87B
S3150800B48033F06FFD01A92046FFF774FF054601A9B1
S3150800B4902046FFF71FFE284643B030BD70B50C4660
S3150800B4A00546C2B001A833F05CFDFF220021204604
S3150800B4B03CF0BFFE284601A9FFF75CFF054640B9E8
S3150800B4C09DF802612046324601A93DF0D1F884F87C
S3150800B4D0FE60284642B070BD4FF0FF3310B50446F3
S3150800B4E0037443748374C374037543758375C37592
S3150800B4F0037243728372C372037343738373C37392
